{
  "abi": [
    {
      "type": "constructor",
      "inputs": [
        {
          "name": "_ethPOS",
          "type": "address",
          "internalType": "contract IETHPOSDeposit"
        },
        {
          "name": "_eigenPodManager",
          "type": "address",
          "internalType": "contract IEigenPodManager"
        },
        {
          "name": "_GENESIS_TIME",
          "type": "uint64",
          "internalType": "uint64"
        }
      ],
      "stateMutability": "nonpayable"
    },
    {
      "type": "receive",
      "stateMutability": "payable"
    },
    {
      "type": "function",
      "name": "GENESIS_TIME",
      "inputs": [],
      "outputs": [
        {
          "name": "",
          "type": "uint64",
          "internalType": "uint64"
        }
      ],
      "stateMutability": "view"
    },
    {
      "type": "function",
      "name": "activeValidatorCount",
      "inputs": [],
      "outputs": [
        {
          "name": "",
          "type": "uint256",
          "internalType": "uint256"
        }
      ],
      "stateMutability": "view"
    },
    {
      "type": "function",
      "name": "checkpointBalanceExitedGwei",
      "inputs": [
        {
          "name": "",
          "type": "uint64",
          "internalType": "uint64"
        }
      ],
      "outputs": [
        {
          "name": "",
          "type": "uint64",
          "internalType": "uint64"
        }
      ],
      "stateMutability": "view"
    },
    {
      "type": "function",
      "name": "currentCheckpoint",
      "inputs": [],
      "outputs": [
        {
          "name": "",
          "type": "tuple",
          "internalType": "struct IEigenPodTypes.Checkpoint",
          "components": [
            {
              "name": "beaconBlockRoot",
              "type": "bytes32",
              "internalType": "bytes32"
            },
            {
              "name": "proofsRemaining",
              "type": "uint24",
              "internalType": "uint24"
            },
            {
              "name": "podBalanceGwei",
              "type": "uint64",
              "internalType": "uint64"
            },
            {
              "name": "balanceDeltasGwei",
              "type": "int64",
              "internalType": "int64"
            },
            {
              "name": "prevBeaconBalanceGwei",
              "type": "uint64",
              "internalType": "uint64"
            }
          ]
        }
      ],
      "stateMutability": "view"
    },
    {
      "type": "function",
      "name": "currentCheckpointTimestamp",
      "inputs": [],
      "outputs": [
        {
          "name": "",
          "type": "uint64",
          "internalType": "uint64"
        }
      ],
      "stateMutability": "view"
    },
    {
      "type": "function",
      "name": "eigenPodManager",
      "inputs": [],
      "outputs": [
        {
          "name": "",
          "type": "address",
          "internalType": "contract IEigenPodManager"
        }
      ],
      "stateMutability": "view"
    },
    {
      "type": "function",
      "name": "ethPOS",
      "inputs": [],
      "outputs": [
        {
          "name": "",
          "type": "address",
          "internalType": "contract IETHPOSDeposit"
        }
      ],
      "stateMutability": "view"
    },
    {
      "type": "function",
      "name": "getParentBlockRoot",
      "inputs": [
        {
          "name": "timestamp",
          "type": "uint64",
          "internalType": "uint64"
        }
      ],
      "outputs": [
        {
          "name": "",
          "type": "bytes32",
          "internalType": "bytes32"
        }
      ],
      "stateMutability": "view"
    },
    {
      "type": "function",
      "name": "initialize",
      "inputs": [
        {
          "name": "_podOwner",
          "type": "address",
          "internalType": "address"
        }
      ],
      "outputs": [],
      "stateMutability": "nonpayable"
    },
    {
      "type": "function",
      "name": "lastCheckpointTimestamp",
      "inputs": [],
      "outputs": [
        {
          "name": "",
          "type": "uint64",
          "internalType": "uint64"
        }
      ],
      "stateMutability": "view"
    },
    {
      "type": "function",
      "name": "podOwner",
      "inputs": [],
      "outputs": [
        {
          "name": "",
          "type": "address",
          "internalType": "address"
        }
      ],
      "stateMutability": "view"
    },
    {
      "type": "function",
      "name": "proofSubmitter",
      "inputs": [],
      "outputs": [
        {
          "name": "",
          "type": "address",
          "internalType": "address"
        }
      ],
      "stateMutability": "view"
    },
    {
      "type": "function",
      "name": "recoverTokens",
      "inputs": [
        {
          "name": "tokenList",
          "type": "address[]",
          "internalType": "contract IERC20[]"
        },
        {
          "name": "amountsToWithdraw",
          "type": "uint256[]",
          "internalType": "uint256[]"
        },
        {
          "name": "recipient",
          "type": "address",
          "internalType": "address"
        }
      ],
      "outputs": [],
      "stateMutability": "nonpayable"
    },
    {
      "type": "function",
      "name": "setProofSubmitter",
      "inputs": [
        {
          "name": "newProofSubmitter",
          "type": "address",
          "internalType": "address"
        }
      ],
      "outputs": [],
      "stateMutability": "nonpayable"
    },
    {
      "type": "function",
      "name": "stake",
      "inputs": [
        {
          "name": "pubkey",
          "type": "bytes",
          "internalType": "bytes"
        },
        {
          "name": "signature",
          "type": "bytes",
          "internalType": "bytes"
        },
        {
          "name": "depositDataRoot",
          "type": "bytes32",
          "internalType": "bytes32"
        }
      ],
      "outputs": [],
      "stateMutability": "payable"
    },
    {
      "type": "function",
      "name": "startCheckpoint",
      "inputs": [
        {
          "name": "revertIfNoBalance",
          "type": "bool",
          "internalType": "bool"
        }
      ],
      "outputs": [],
      "stateMutability": "nonpayable"
    },
    {
      "type": "function",
      "name": "validatorPubkeyHashToInfo",
      "inputs": [
        {
          "name": "validatorPubkeyHash",
          "type": "bytes32",
          "internalType": "bytes32"
        }
      ],
      "outputs": [
        {
          "name": "",
          "type": "tuple",
          "internalType": "struct IEigenPodTypes.ValidatorInfo",
          "components": [
            {
              "name": "validatorIndex",
              "type": "uint64",
              "internalType": "uint64"
            },
            {
              "name": "restakedBalanceGwei",
              "type": "uint64",
              "internalType": "uint64"
            },
            {
              "name": "lastCheckpointedAt",
              "type": "uint64",
              "internalType": "uint64"
            },
            {
              "name": "status",
              "type": "uint8",
              "internalType": "enum IEigenPodTypes.VALIDATOR_STATUS"
            }
          ]
        }
      ],
      "stateMutability": "view"
    },
    {
      "type": "function",
      "name": "validatorPubkeyToInfo",
      "inputs": [
        {
          "name": "validatorPubkey",
          "type": "bytes",
          "internalType": "bytes"
        }
      ],
      "outputs": [
        {
          "name": "",
          "type": "tuple",
          "internalType": "struct IEigenPodTypes.ValidatorInfo",
          "components": [
            {
              "name": "validatorIndex",
              "type": "uint64",
              "internalType": "uint64"
            },
            {
              "name": "restakedBalanceGwei",
              "type": "uint64",
              "internalType": "uint64"
            },
            {
              "name": "lastCheckpointedAt",
              "type": "uint64",
              "internalType": "uint64"
            },
            {
              "name": "status",
              "type": "uint8",
              "internalType": "enum IEigenPodTypes.VALIDATOR_STATUS"
            }
          ]
        }
      ],
      "stateMutability": "view"
    },
    {
      "type": "function",
      "name": "validatorStatus",
      "inputs": [
        {
          "name": "validatorPubkey",
          "type": "bytes",
          "internalType": "bytes"
        }
      ],
      "outputs": [
        {
          "name": "",
          "type": "uint8",
          "internalType": "enum IEigenPodTypes.VALIDATOR_STATUS"
        }
      ],
      "stateMutability": "view"
    },
    {
      "type": "function",
      "name": "validatorStatus",
      "inputs": [
        {
          "name": "pubkeyHash",
          "type": "bytes32",
          "internalType": "bytes32"
        }
      ],
      "outputs": [
        {
          "name": "",
          "type": "uint8",
          "internalType": "enum IEigenPodTypes.VALIDATOR_STATUS"
        }
      ],
      "stateMutability": "view"
    },
    {
      "type": "function",
      "name": "verifyCheckpointProofs",
      "inputs": [
        {
          "name": "balanceContainerProof",
          "type": "tuple",
          "internalType": "struct BeaconChainProofs.BalanceContainerProof",
          "components": [
            {
              "name": "balanceContainerRoot",
              "type": "bytes32",
              "internalType": "bytes32"
            },
            {
              "name": "proof",
              "type": "bytes",
              "internalType": "bytes"
            }
          ]
        },
        {
          "name": "proofs",
          "type": "tuple[]",
          "internalType": "struct BeaconChainProofs.BalanceProof[]",
          "components": [
            {
              "name": "pubkeyHash",
              "type": "bytes32",
              "internalType": "bytes32"
            },
            {
              "name": "balanceRoot",
              "type": "bytes32",
              "internalType": "bytes32"
            },
            {
              "name": "proof",
              "type": "bytes",
              "internalType": "bytes"
            }
          ]
        }
      ],
      "outputs": [],
      "stateMutability": "nonpayable"
    },
    {
      "type": "function",
      "name": "verifyStaleBalance",
      "inputs": [
        {
          "name": "beaconTimestamp",
          "type": "uint64",
          "internalType": "uint64"
        },
        {
          "name": "stateRootProof",
          "type": "tuple",
          "internalType": "struct BeaconChainProofs.StateRootProof",
          "components": [
            {
              "name": "beaconStateRoot",
              "type": "bytes32",
              "internalType": "bytes32"
            },
            {
              "name": "proof",
              "type": "bytes",
              "internalType": "bytes"
            }
          ]
        },
        {
          "name": "proof",
          "type": "tuple",
          "internalType": "struct BeaconChainProofs.ValidatorProof",
          "components": [
            {
              "name": "validatorFields",
              "type": "bytes32[]",
              "internalType": "bytes32[]"
            },
            {
              "name": "proof",
              "type": "bytes",
              "internalType": "bytes"
            }
          ]
        }
      ],
      "outputs": [],
      "stateMutability": "nonpayable"
    },
    {
      "type": "function",
      "name": "verifyWithdrawalCredentials",
      "inputs": [
        {
          "name": "beaconTimestamp",
          "type": "uint64",
          "internalType": "uint64"
        },
        {
          "name": "stateRootProof",
          "type": "tuple",
          "internalType": "struct BeaconChainProofs.StateRootProof",
          "components": [
            {
              "name": "beaconStateRoot",
              "type": "bytes32",
              "internalType": "bytes32"
            },
            {
              "name": "proof",
              "type": "bytes",
              "internalType": "bytes"
            }
          ]
        },
        {
          "name": "validatorIndices",
          "type": "uint40[]",
          "internalType": "uint40[]"
        },
        {
          "name": "validatorFieldsProofs",
          "type": "bytes[]",
          "internalType": "bytes[]"
        },
        {
          "name": "validatorFields",
          "type": "bytes32[][]",
          "internalType": "bytes32[][]"
        }
      ],
      "outputs": [],
      "stateMutability": "nonpayable"
    },
    {
      "type": "function",
      "name": "withdrawRestakedBeaconChainETH",
      "inputs": [
        {
          "name": "recipient",
          "type": "address",
          "internalType": "address"
        },
        {
          "name": "amountWei",
          "type": "uint256",
          "internalType": "uint256"
        }
      ],
      "outputs": [],
      "stateMutability": "nonpayable"
    },
    {
      "type": "function",
      "name": "withdrawableRestakedExecutionLayerGwei",
      "inputs": [],
      "outputs": [
        {
          "name": "",
          "type": "uint64",
          "internalType": "uint64"
        }
      ],
      "stateMutability": "view"
    },
    {
      "type": "event",
      "name": "CheckpointCreated",
      "inputs": [
        {
          "name": "checkpointTimestamp",
          "type": "uint64",
          "indexed": true,
          "internalType": "uint64"
        },
        {
          "name": "beaconBlockRoot",
          "type": "bytes32",
          "indexed": true,
          "internalType": "bytes32"
        },
        {
          "name": "validatorCount",
          "type": "uint256",
          "indexed": false,
          "internalType": "uint256"
        }
      ],
      "anonymous": false
    },
    {
      "type": "event",
      "name": "CheckpointFinalized",
      "inputs": [
        {
          "name": "checkpointTimestamp",
          "type": "uint64",
          "indexed": true,
          "internalType": "uint64"
        },
        {
          "name": "totalShareDeltaWei",
          "type": "int256",
          "indexed": false,
          "internalType": "int256"
        }
      ],
      "anonymous": false
    },
    {
      "type": "event",
      "name": "EigenPodStaked",
      "inputs": [
        {
          "name": "pubkey",
          "type": "bytes",
          "indexed": false,
          "internalType": "bytes"
        }
      ],
      "anonymous": false
    },
    {
      "type": "event",
      "name": "Initialized",
      "inputs": [
        {
          "name": "version",
          "type": "uint8",
          "indexed": false,
          "internalType": "uint8"
        }
      ],
      "anonymous": false
    },
    {
      "type": "event",
      "name": "NonBeaconChainETHReceived",
      "inputs": [
        {
          "name": "amountReceived",
          "type": "uint256",
          "indexed": false,
          "internalType": "uint256"
        }
      ],
      "anonymous": false
    },
    {
      "type": "event",
      "name": "ProofSubmitterUpdated",
      "inputs": [
        {
          "name": "prevProofSubmitter",
          "type": "address",
          "indexed": false,
          "internalType": "address"
        },
        {
          "name": "newProofSubmitter",
          "type": "address",
          "indexed": false,
          "internalType": "address"
        }
      ],
      "anonymous": false
    },
    {
      "type": "event",
      "name": "RestakedBeaconChainETHWithdrawn",
      "inputs": [
        {
          "name": "recipient",
          "type": "address",
          "indexed": true,
          "internalType": "address"
        },
        {
          "name": "amount",
          "type": "uint256",
          "indexed": false,
          "internalType": "uint256"
        }
      ],
      "anonymous": false
    },
    {
      "type": "event",
      "name": "ValidatorBalanceUpdated",
      "inputs": [
        {
          "name": "validatorIndex",
          "type": "uint40",
          "indexed": false,
          "internalType": "uint40"
        },
        {
          "name": "balanceTimestamp",
          "type": "uint64",
          "indexed": false,
          "internalType": "uint64"
        },
        {
          "name": "newValidatorBalanceGwei",
          "type": "uint64",
          "indexed": false,
          "internalType": "uint64"
        }
      ],
      "anonymous": false
    },
    {
      "type": "event",
      "name": "ValidatorCheckpointed",
      "inputs": [
        {
          "name": "checkpointTimestamp",
          "type": "uint64",
          "indexed": true,
          "internalType": "uint64"
        },
        {
          "name": "validatorIndex",
          "type": "uint40",
          "indexed": true,
          "internalType": "uint40"
        }
      ],
      "anonymous": false
    },
    {
      "type": "event",
      "name": "ValidatorRestaked",
      "inputs": [
        {
          "name": "validatorIndex",
          "type": "uint40",
          "indexed": false,
          "internalType": "uint40"
        }
      ],
      "anonymous": false
    },
    {
      "type": "event",
      "name": "ValidatorWithdrawn",
      "inputs": [
        {
          "name": "checkpointTimestamp",
          "type": "uint64",
          "indexed": true,
          "internalType": "uint64"
        },
        {
          "name": "validatorIndex",
          "type": "uint40",
          "indexed": true,
          "internalType": "uint40"
        }
      ],
      "anonymous": false
    },
    {
      "type": "error",
      "name": "BeaconTimestampTooFarInPast",
      "inputs": []
    },
    {
      "type": "error",
      "name": "CannotCheckpointTwiceInSingleBlock",
      "inputs": []
    },
    {
      "type": "error",
      "name": "CheckpointAlreadyActive",
      "inputs": []
    },
    {
      "type": "error",
      "name": "CredentialsAlreadyVerified",
      "inputs": []
    },
    {
      "type": "error",
      "name": "CurrentlyPaused",
      "inputs": []
    },
    {
      "type": "error",
      "name": "ForkTimestampZero",
      "inputs": []
    },
    {
      "type": "error",
      "name": "InputAddressZero",
      "inputs": []
    },
    {
      "type": "error",
      "name": "InputArrayLengthMismatch",
      "inputs": []
    },
    {
      "type": "error",
      "name": "InsufficientWithdrawableBalance",
      "inputs": []
    },
    {
      "type": "error",
      "name": "InvalidEIP4788Response",
      "inputs": []
    },
    {
      "type": "error",
      "name": "InvalidProof",
      "inputs": []
    },
    {
      "type": "error",
      "name": "InvalidProofLength",
      "inputs": []
    },
    {
      "type": "error",
      "name": "InvalidProofLength",
      "inputs": []
    },
    {
      "type": "error",
      "name": "InvalidPubKeyLength",
      "inputs": []
    },
    {
      "type": "error",
      "name": "InvalidValidatorFieldsLength",
      "inputs": []
    },
    {
      "type": "error",
      "name": "MsgValueNot32ETH",
      "inputs": []
    },
    {
      "type": "error",
      "name": "NoActiveCheckpoint",
      "inputs": []
    },
    {
      "type": "error",
      "name": "NoBalanceToCheckpoint",
      "inputs": []
    },
    {
      "type": "error",
      "name": "OnlyEigenPodManager",
      "inputs": []
    },
    {
      "type": "error",
      "name": "OnlyEigenPodOwner",
      "inputs": []
    },
    {
      "type": "error",
      "name": "OnlyEigenPodOwnerOrProofSubmitter",
      "inputs": []
    },
    {
      "type": "error",
      "name": "TimestampOutOfRange",
      "inputs": []
    },
    {
      "type": "error",
      "name": "ValidatorInactiveOnBeaconChain",
      "inputs": []
    },
    {
      "type": "error",
      "name": "ValidatorIsExitingBeaconChain",
      "inputs": []
    },
    {
      "type": "error",
      "name": "ValidatorNotActiveInPod",
      "inputs": []
    },
    {
      "type": "error",
      "name": "ValidatorNotSlashedOnBeaconChain",
      "inputs": []
    },
    {
      "type": "error",
      "name": "WithdrawalCredentialsNotForEigenPod",
      "inputs": []
    }
  ],
  "bytecode": {
    "object": "0x60e060405234801561000f575f5ffd5b50604051613e6d380380613e6d83398101604081905261002e91610131565b6001600160a01b03808416608052821660a0526001600160401b03811660c05261005661005e565b505050610186565b5f54610100900460ff16156100c95760405162461bcd60e51b815260206004820152602760248201527f496e697469616c697a61626c653a20636f6e747261637420697320696e697469604482015266616c697a696e6760c81b606482015260840160405180910390fd5b5f5460ff90811614610118575f805460ff191660ff9081179091556040519081527f7f26b83ff96e1f2b6a682f133852f6798a09c465da95921460cefb38474024989060200160405180910390a15b565b6001600160a01b038116811461012e575f5ffd5b50565b5f5f5f60608486031215610143575f5ffd5b835161014e8161011a565b602085015190935061015f8161011a565b60408501519092506001600160401b038116811461017b575f5ffd5b809150509250925092565b60805160a05160c051613c696102045f395f61060401525f81816102a90152818161063f015281816106e7015281816109b401528181610b7f01528181610e5801528181610eff0152818161113501528181611483015281816115b701528181611a96015261290b01525f81816104c60152610f680152613c695ff3fe608060405260043610610164575f3560e01c80636fcd0e53116100cd578063c490744211610087578063dda3346c11610062578063dda3346c14610596578063ee94d67c146105b5578063f074ba62146105d4578063f2882461146105f3575f5ffd5b8063c490744214610539578063c4d66de814610558578063d06d558714610577575f5ffd5b80636fcd0e53146104545780637439841f1461048057806374cdd798146104b557806388676cad146104e85780639b4e463414610507578063b522538a1461051a575f5ffd5b80634665bcda1161011e5780634665bcda1461029857806347d28372146102cb57806352396a59146103b657806358753357146103ea57806358eaee79146104095780636c0d2d5a14610435575f5ffd5b8063039157d2146101a25780630b18ff66146101c35780632340e8d3146101ff5780633474aa16146102225780633f65cf191461025357806342ecff2a14610272575f5ffd5b3661019e576040513481527f6fdd3dbdb173299608c0aa9f368735857c8842b581f8389238bf05bd04b3bf499060200160405180910390a1005b5f5ffd5b3480156101ad575f5ffd5b506101c16101bc366004613183565b610626565b005b3480156101ce575f5ffd5b506033546101e2906001600160a01b031681565b6040516001600160a01b0390911681526020015b60405180910390f35b34801561020a575f5ffd5b5061021460395481565b6040519081526020016101f6565b34801561022d575f5ffd5b506034546001600160401b03165b6040516001600160401b0390911681526020016101f6565b34801561025e575f5ffd5b506101c161026d36600461323e565b61095b565b34801561027d575f5ffd5b50603a5461023b90600160401b90046001600160401b031681565b3480156102a3575f5ffd5b506101e27f000000000000000000000000000000000000000000000000000000000000000081565b3480156102d6575f5ffd5b5061035b6040805160a0810182525f80825260208201819052918101829052606081018290526080810191909152506040805160a081018252603c548152603d5462ffffff811660208301526001600160401b0363010000008204811693830193909352600160581b810460070b6060830152600160981b9004909116608082015290565b6040516101f691905f60a0820190508251825262ffffff60208401511660208301526001600160401b036040840151166040830152606083015160070b60608301526001600160401b03608084015116608083015292915050565b3480156103c1575f5ffd5b5061023b6103d0366004613315565b603b6020525f90815260409020546001600160401b031681565b3480156103f5575f5ffd5b50603e546101e2906001600160a01b031681565b348015610414575f5ffd5b5061042861042336600461336d565b610be4565b6040516101f691906133df565b348015610440575f5ffd5b5061021461044f366004613315565b610c46565b34801561045f575f5ffd5b5061047361046e3660046133ed565b610d54565b6040516101f69190613404565b34801561048b575f5ffd5b5061042861049a3660046133ed565b5f90815260366020526040902054600160c01b900460ff1690565b3480156104c0575f5ffd5b506101e27f000000000000000000000000000000000000000000000000000000000000000081565b3480156104f3575f5ffd5b506101c1610502366004613464565b610dff565b6101c161051536600461347f565b610ef4565b348015610525575f5ffd5b5061047361053436600461336d565b61103b565b348015610544575f5ffd5b506101c1610553366004613514565b61112a565b348015610563575f5ffd5b506101c161057236600461353e565b611261565b348015610582575f5ffd5b506101c161059136600461353e565b6113ab565b3480156105a1575f5ffd5b506101c16105b0366004613629565b61143f565b3480156105c0575f5ffd5b50603a5461023b906001600160401b031681565b3480156105df575f5ffd5b506101c16105ee3660046136fb565b61159e565b3480156105fe575f5ffd5b5061023b7f000000000000000000000000000000000000000000000000000000000000000081565b604051635ac86ab760e01b8152600660048201819052907f00000000000000000000000000000000000000000000000000000000000000006001600160a01b031690635ac86ab790602401602060405180830381865afa15801561068c573d5f5f3e3d5ffd5b505050506040513d601f19601f820116820180604052508101906106b09190613762565b156106ce5760405163840a48d560e01b815260040160405180910390fd5b604051635ac86ab760e01b8152600860048201819052907f00000000000000000000000000000000000000000000000000000000000000006001600160a01b031690635ac86ab790602401602060405180830381865afa158015610734573d5f5f3e3d5ffd5b505050506040513d601f19601f820116820180604052508101906107589190613762565b156107765760405163840a48d560e01b815260040160405180910390fd5b5f6107ba610784858061377d565b808060200260200160405190810160405280939291908181526020018383602002808284375f920191909152506119a392505050565b5f818152603660209081526040808320815160808101835281546001600160401b038082168352600160401b8204811695830195909552600160801b8104909416928101929092529394509192906060830190600160c01b900460ff166002811115610828576108286133ab565b6002811115610839576108396133ab565b81525050905080604001516001600160401b0316876001600160401b031611610875576040516337e07ffd60e01b815260040160405180910390fd5b60018160600151600281111561088d5761088d6133ab565b146108ab5760405163d49e19a760e01b815260040160405180910390fd5b6108ee6108b8868061377d565b808060200260200160405190810160405280939291908181526020018383602002808284375f920191909152506119c592505050565b61090b5760405163161ce5ed60e31b815260040160405180910390fd5b61091d61091788610c46565b876119ed565b61094961092988611a92565b8735610935888061377d565b61094260208b018b6137c2565b8751611b69565b6109525f611c9d565b50505050505050565b6033546001600160a01b031633148061097e5750603e546001600160a01b031633145b61099b5760405163427a777960e01b815260040160405180910390fd5b604051635ac86ab760e01b8152600260048201819052907f00000000000000000000000000000000000000000000000000000000000000006001600160a01b031690635ac86ab790602401602060405180830381865afa158015610a01573d5f5f3e3d5ffd5b505050506040513d601f19601f82011682018060405250810190610a259190613762565b15610a435760405163840a48d560e01b815260040160405180910390fd5b8584148015610a5157508382145b610a6e576040516343714afd60e01b815260040160405180910390fd5b603a546001600160401b03600160401b9091048116908a1611610aa4576040516337e07ffd60e01b815260040160405180910390fd5b610ab6610ab08a610c46565b896119ed565b5f805b87811015610b4f57610b3b8b8b358b8b85818110610ad957610ad9613804565b9050602002016020810190610aee9190613818565b8a8a86818110610b0057610b00613804565b9050602002810190610b1291906137c2565b8a8a88818110610b2457610b24613804565b9050602002810190610b36919061377d565b611e1d565b610b459083613850565b9150600101610ab9565b5060335460405163a1ca780b60e01b81526001600160a01b0391821660048201525f6024820152604481018390527f00000000000000000000000000000000000000000000000000000000000000009091169063a1ca780b906064015f604051808303815f87803b158015610bc2575f5ffd5b505af1158015610bd4573d5f5f3e3d5ffd5b5050505050505050505050505050565b5f5f610c2484848080601f0160208091040260200160405190810160405280939291908181526020018383808284375f9201919091525061233092505050565b5f90815260366020526040902054600160c01b900460ff169150505b92915050565b5f610c54611fff600c613863565b610c676001600160401b0384164261387a565b10610c8557604051637944e66d60e11b815260040160405180910390fd5b604080516001600160401b03841660208201525f918291720f3df6d732807ef1319fb7b8bb8522d0beac02910160408051601f1981840301815290829052610ccc916138a4565b5f60405180830381855afa9150503d805f8114610d04576040519150601f19603f3d011682016040523d82523d5f602084013e610d09565b606091505b5091509150818015610d1b57505f8151115b610d385760405163558ad0a360e01b815260040160405180910390fd5b80806020019051810190610d4c91906138af565b949350505050565b610d7b604080516080810182525f8082526020820181905291810182905290606082015290565b5f82815260366020908152604091829020825160808101845281546001600160401b038082168352600160401b8204811694830194909452600160801b810490931693810193909352906060830190600160c01b900460ff166002811115610de557610de56133ab565b6002811115610df657610df66133ab565b90525092915050565b6033546001600160a01b0316331480610e225750603e546001600160a01b031633145b610e3f5760405163427a777960e01b815260040160405180910390fd5b604051635ac86ab760e01b8152600660048201819052907f00000000000000000000000000000000000000000000000000000000000000006001600160a01b031690635ac86ab790602401602060405180830381865afa158015610ea5573d5f5f3e3d5ffd5b505050506040513d601f19601f82011682018060405250810190610ec99190613762565b15610ee75760405163840a48d560e01b815260040160405180910390fd5b610ef082611c9d565b5050565b336001600160a01b037f00000000000000000000000000000000000000000000000000000000000000001614610f3d57604051633213a66160e21b815260040160405180910390fd5b346801bc16d674ec80000014610f665760405163049696b360e31b815260040160405180910390fd5b7f00000000000000000000000000000000000000000000000000000000000000006001600160a01b031663228951186801bc16d674ec8000008787610fa96123c1565b8888886040518863ffffffff1660e01b8152600401610fcd9695949392919061391c565b5f604051808303818588803b158015610fe4575f5ffd5b505af1158015610ff6573d5f5f3e3d5ffd5b50505050507f606865b7934a25d4aed43f6cdb426403353fa4b3009c4d228407474581b01e23858560405161102c92919061396a565b60405180910390a15050505050565b611062604080516080810182525f8082526020820181905291810182905290606082015290565b60365f6110a385858080601f0160208091040260200160405190810160405280939291908181526020018383808284375f9201919091525061233092505050565b815260208082019290925260409081015f20815160808101835281546001600160401b038082168352600160401b8204811695830195909552600160801b81049094169281019290925290916060830190600160c01b900460ff16600281111561110f5761110f6133ab565b6002811115611120576111206133ab565b9052509392505050565b336001600160a01b037f0000000000000000000000000000000000000000000000000000000000000000161461117357604051633213a66160e21b815260040160405180910390fd5b5f611182633b9aca0083613991565b905061119b633b9aca006001600160401b038316613863565b6034549092506001600160401b0390811690821611156111ce576040516302c6f54760e21b815260040160405180910390fd5b603480548291905f906111eb9084906001600160401b03166139a4565b92506101000a8154816001600160401b0302191690836001600160401b03160217905550826001600160a01b03167f8947fd2ce07ef9cc302c4e8f0461015615d91ce851564839e91cc804c2f49d8e8360405161124a91815260200190565b60405180910390a261125c83836123f1565b505050565b5f54610100900460ff161580801561127f57505f54600160ff909116105b806112985750303b15801561129857505f5460ff166001145b6113005760405162461bcd60e51b815260206004820152602e60248201527f496e697469616c697a61626c653a20636f6e747261637420697320616c72656160448201526d191e481a5b9a5d1a585b1a5e995960921b60648201526084015b60405180910390fd5b5f805460ff191660011790558015611321575f805461ff0019166101001790555b6001600160a01b038216611348576040516339b190bb60e11b815260040160405180910390fd5b603380546001600160a01b0319166001600160a01b0384161790558015610ef0575f805461ff0019169055604051600181527f7f26b83ff96e1f2b6a682f133852f6798a09c465da95921460cefb38474024989060200160405180910390a15050565b6033546001600160a01b031633146113d65760405163719f370360e11b815260040160405180910390fd5b603e54604080516001600160a01b03928316815291831660208301527ffb8129080a19d34dceac04ba253fc50304dc86c729bd63cdca4a969ad19a5eac910160405180910390a1603e80546001600160a01b0319166001600160a01b0392909216919091179055565b6033546001600160a01b0316331461146a5760405163719f370360e11b815260040160405180910390fd5b604051635ac86ab760e01b8152600560048201819052907f00000000000000000000000000000000000000000000000000000000000000006001600160a01b031690635ac86ab790602401602060405180830381865afa1580156114d0573d5f5f3e3d5ffd5b505050506040513d601f19601f820116820180604052508101906114f49190613762565b156115125760405163840a48d560e01b815260040160405180910390fd5b8251845114611534576040516343714afd60e01b815260040160405180910390fd5b5f5b84518110156115975761158f8385838151811061155557611555613804565b602002602001015187848151811061156f5761156f613804565b60200260200101516001600160a01b03166125069092919063ffffffff16565b600101611536565b5050505050565b604051635ac86ab760e01b8152600760048201819052907f00000000000000000000000000000000000000000000000000000000000000006001600160a01b031690635ac86ab790602401602060405180830381865afa158015611604573d5f5f3e3d5ffd5b505050506040513d601f19601f820116820180604052508101906116289190613762565b156116465760405163840a48d560e01b815260040160405180910390fd5b603a54600160401b90046001600160401b03165f81900361167a57604051631a544f4960e01b815260040160405180910390fd5b6040805160a081018252603c548152603d5462ffffff811660208301526001600160401b0363010000008204811693830193909352600160581b810460070b6060830152600160981b900490911660808201526116e16116d983611a92565b825188612558565b5f805b8581101561194a57368787838181106116ff576116ff613804565b905060200281019061171191906139c3565b80355f908152603660209081526040808320815160808101835281546001600160401b038082168352600160401b8204811695830195909552600160801b8104909416928101929092529394509192906060830190600160c01b900460ff166002811115611781576117816133ab565b6002811115611792576117926133ab565b90525090506001816060015160028111156117af576117af6133ab565b146117bb575050611942565b856001600160401b031681604001516001600160401b0316106117df575050611942565b5f80806117ef848a8f3588612619565b60208b0180519396509194509250611806826139e1565b62ffffff169052506080880180518491906118229083906139fe565b6001600160401b0316905250606088018051839190611842908390613a1d565b60070b90525061185281886139fe565b85355f908152603660209081526040918290208751815492890151938901516001600160401b03908116600160801b0267ffffffffffffffff60801b19958216600160401b026001600160801b0319909516919092161792909217928316821781556060880151939a50879390929091839160ff60c01b1990911668ffffffffffffffffff60801b1990911617600160c01b8360028111156118f6576118f66133ab565b021790555050845160405164ffffffffff90911691506001600160401b038b16907fa91c59033c3423e18b54d0acecebb4972f9ea95aedf5f4cae3b677b02eaf3a3f905f90a350505050505b6001016116e4565b506001600160401b038084165f908152603b6020526040812080548493919291611976918591166139fe565b92506101000a8154816001600160401b0302191690836001600160401b031602179055506109528261273c565b5f815f815181106119b6576119b6613804565b60200260200101519050919050565b5f816003815181106119d9576119d9613804565b60200260200101515f5f1b14159050919050565b6119f960036020613863565b611a0660208301836137c2565b905014611a26576040516313717da960e21b815260040160405180910390fd5b611a75611a3660208301836137c2565b8080601f0160208091040260200160405190810160405280939291908181526020018383808284375f920191909152508692505084359050600361296b565b610ef0576040516309bde33960e01b815260040160405180910390fd5b5f5f7f00000000000000000000000000000000000000000000000000000000000000006001600160a01b0316632704351a6040518163ffffffff1660e01b8152600401602060405180830381865afa158015611af0573d5f5f3e3d5ffd5b505050506040513d601f19601f82011682018060405250810190611b149190613a4c565b9050806001600160401b03165f03611b3f576040516341a02cc960e01b815260040160405180910390fd5b806001600160401b0316836001600160401b03161115611b60576001611b62565b5f5b9392505050565b60088414611b8a5760405163200591bd60e01b815260040160405180910390fd5b5f611b9488612982565b905080611ba360286001613850565b611bad9190613850565b611bb8906020613863565b8314611bd7576040516313717da960e21b815260040160405180910390fd5b5f611c138787808060200260200160405190810160405280939291908181526020018383602002808284375f920191909152506129aa92505050565b90505f64ffffffffff8416611c2a60286001613850565b600b901b179050611c7486868080601f0160208091040260200160405190810160405280939291908181526020018383808284375f920191909152508d925086915085905061296b565b611c91576040516309bde33960e01b815260040160405180910390fd5b50505050505050505050565b603a54600160401b90046001600160401b031615611ccd5760405162be9bc360e81b815260040160405180910390fd5b603a546001600160401b03428116911603611cfb576040516367db5b8b60e01b815260040160405180910390fd5b6034545f906001600160401b0316611d17633b9aca0047613991565b611d2191906139a4565b9050818015611d3757506001600160401b038116155b15611d55576040516332dea95960e21b815260040160405180910390fd5b5f6040518060a00160405280611d6a42610c46565b815260395462ffffff1660208201526001600160401b0380851660408301525f60608301819052608090920191909152603a805442909216600160401b026fffffffffffffffff0000000000000000199092169190911790559050611dce8161273c565b805160208083015160405162ffffff90911681526001600160401b034216917f575796133bbed337e5b39aa49a30dc2556a91e0c6c2af4b7b886ae77ebef1076910160405180910390a3505050565b5f5f611e5a8484808060200260200160405190810160405280939291908181526020018383602002808284375f920191909152506119a392505050565b5f818152603660209081526040808320815160808101835281546001600160401b038082168352600160401b8204811695830195909552600160801b8104909416928101929092529394509192906060830190600160c01b900460ff166002811115611ec857611ec86133ab565b6002811115611ed957611ed96133ab565b90525090505f81606001516002811115611ef557611ef56133ab565b14611f13576040516335e09e9d60e01b815260040160405180910390fd5b6001600160401b038016611f588686808060200260200160405190810160405280939291908181526020018383602002808284375f92019190915250612c3a92505050565b6001600160401b031603611f7f57604051631958236d60e21b815260040160405180910390fd5b6001600160401b038016611fc48686808060200260200160405190810160405280939291908181526020018383602002808284375f92019190915250612c5e92505050565b6001600160401b031614611feb57604051632eade63760e01b815260040160405180910390fd5b611ff36123c1565b611ffc90613a67565b6120378686808060200260200160405190810160405280939291908181526020018383602002808284375f92019190915250612c7592505050565b148061208c5750612046612c89565b61204f90613a67565b61208a8686808060200260200160405190810160405280939291908181526020018383602002808284375f92019190915250612c7592505050565b145b6120a957604051633772dd5360e11b815260040160405180910390fd5b5f6120e58686808060200260200160405190810160405280939291908181526020018383602002808284375f92019190915250612ca592505050565b90506120fe6120f38c611a92565b8b88888c8c8f611b69565b60398054905f61210d83613a8a565b9091555050603a545f90600160401b90046001600160401b03161561214457603a54600160401b90046001600160401b0316612151565b603a546001600160401b03165b6040805160808101825264ffffffffff8d1681526001600160401b03858116602083015283169181019190915290915060608101600190525f858152603660209081526040918290208351815492850151938501516001600160401b03908116600160801b0267ffffffffffffffff60801b19958216600160401b026001600160801b031990951691909216179290921792831682178155606084015190929091839160ff60c01b1990911668ffffffffffffffffff60801b1990911617600160c01b836002811115612226576122266133ab565b021790555050603d8054849250601390612251908490600160981b90046001600160401b03166139fe565b92506101000a8154816001600160401b0302191690836001600160401b031602179055507f2d0800bbc377ea54a08c5db6a87aafff5e3e9c8fead0eda110e40e0c104414498a6040516122b1919064ffffffffff91909116815260200190565b60405180910390a16040805164ffffffffff8c1681526001600160401b03838116602083015284168183015290517f0e5fac175b83177cc047381e030d8fb3b42b37bd1c025e22c280facad62c32df9181900360600190a1612320633b9aca006001600160401b038416613863565b9c9b505050505050505050505050565b5f815160301461235357604051634f88323960e11b815260040160405180910390fd5b6040516002906123699084905f90602001613aa2565b60408051601f1981840301815290829052612383916138a4565b602060405180830381855afa15801561239e573d5f5f3e3d5ffd5b5050506040513d601f19601f82011682018060405250810190610c4091906138af565b6040516060906123dd90600160f81b905f903090602001613ac6565b604051602081830303815290604052905090565b804710156124415760405162461bcd60e51b815260206004820152601d60248201527f416464726573733a20696e73756666696369656e742062616c616e636500000060448201526064016112f7565b5f826001600160a01b0316826040515f6040518083038185875af1925050503d805f811461248a576040519150601f19603f3d011682016040523d82523d5f602084013e61248f565b606091505b505090508061125c5760405162461bcd60e51b815260206004820152603a60248201527f416464726573733a20756e61626c6520746f2073656e642076616c75652c207260448201527f6563697069656e74206d6179206861766520726576657274656400000000000060648201526084016112f7565b604080516001600160a01b038416602482015260448082018490528251808303909101815260649091019091526020810180516001600160e01b031663a9059cbb60e01b17905261125c908490612cbc565b5f61256284612982565b905061256f816003613850565b61257a906020613863565b61258760208401846137c2565b9050146125a7576040516313717da960e21b815260040160405180910390fd5b6003811b600c176125fc6125be60208501856137c2565b8080601f0160208091040260200160405190810160405280939291908181526020018383808284375f9201919091525088925050863590508461296b565b611597576040516309bde33960e01b815260040160405180910390fd5b83516020850151905f90819081612631878388612d8f565b9050846001600160401b0316816001600160401b0316146126ab576126568582613b04565b6040805164ffffffffff851681526001600160401b038b8116602083015284168183015290519195507f0e5fac175b83177cc047381e030d8fb3b42b37bd1c025e22c280facad62c32df919081900360600190a15b6001600160401b0380821660208b0181905290891660408b01525f036127305760398054905f6126da83613b33565b9091555050600260608a01526126ef84613b48565b92508164ffffffffff16886001600160401b03167f2a02361ffa66cf2c2da4682c2355a6adcaa9f6c227b6e6563e68480f9587626a60405160405180910390a35b50509450945094915050565b602081015162ffffff16156127dc578051603c556020810151603d80546040840151606085015160809095015162ffffff9094166affffffffffffffffffffff199092169190911763010000006001600160401b0392831602176fffffffffffffffffffffffffffffffff60581b1916600160581b9482169490940267ffffffffffffffff60981b191693909317600160981b9390921692909202179055565b60808101516034545f916127f8916001600160401b03166139fe565b90505f8260600151836040015161280f9190613a1d565b60408401516034805492935090915f906128339084906001600160401b03166139fe565b82546101009290920a6001600160401b03818102199093169183160217909155603a8054600160401b810483166001600160801b03199091161790555f915061288390633b9aca00908516613863565b90505f612898633b9aca00600785900b613b6d565b603a546040518281529192506001600160401b0316907f525408c201bc1576eb44116f6478f1c2a54775b19a043bcfdc708364f74f8e449060200160405180910390a260335460405163a1ca780b60e01b81526001600160a01b03918216600482015260248101849052604481018390527f00000000000000000000000000000000000000000000000000000000000000009091169063a1ca780b906064015f604051808303815f87803b15801561294e575f5ffd5b505af1158015612960573d5f5f3e3d5ffd5b505050505050505050565b5f83612978868585612e6d565b1495945050505050565b5f80826001811115612996576129966133ab565b146129a2576006610c40565b600592915050565b5f5f600283516129ba9190613991565b90505f816001600160401b038111156129d5576129d5613559565b6040519080825280602002602001820160405280156129fe578160200160208202803683370190505b5090505f5b82811015612af857600285612a188383613863565b81518110612a2857612a28613804565b602002602001015186836002612a3e9190613863565b612a49906001613850565b81518110612a5957612a59613804565b6020026020010151604051602001612a7b929190918252602082015260400190565b60408051601f1981840301815290829052612a95916138a4565b602060405180830381855afa158015612ab0573d5f5f3e3d5ffd5b5050506040513d601f19601f82011682018060405250810190612ad391906138af565b828281518110612ae557612ae5613804565b6020908102919091010152600101612a03565b50612b04600283613991565b91505b8115612c17575f5b82811015612c0457600282612b248383613863565b81518110612b3457612b34613804565b602002602001015183836002612b4a9190613863565b612b55906001613850565b81518110612b6557612b65613804565b6020026020010151604051602001612b87929190918252602082015260400190565b60408051601f1981840301815290829052612ba1916138a4565b602060405180830381855afa158015612bbc573d5f5f3e3d5ffd5b5050506040513d601f19601f82011682018060405250810190612bdf91906138af565b828281518110612bf157612bf1613804565b6020908102919091010152600101612b0f565b50612c10600283613991565b9150612b07565b805f81518110612c2957612c29613804565b602002602001015192505050919050565b5f610c4082600581518110612c5157612c51613804565b6020026020010151612f41565b5f610c4082600681518110612c5157612c51613804565b5f816001815181106119b6576119b6613804565b6040516060906123dd90600160f91b905f903090602001613ac6565b5f610c4082600281518110612c5157612c51613804565b5f612d10826040518060400160405280602081526020017f5361666545524332303a206c6f772d6c6576656c2063616c6c206661696c6564815250856001600160a01b0316612fa89092919063ffffffff16565b905080515f1480612d30575080806020019051810190612d309190613762565b61125c5760405162461bcd60e51b815260206004820152602a60248201527f5361666545524332303a204552433230206f7065726174696f6e20646964206e6044820152691bdd081cdd58d8d9595960b21b60648201526084016112f7565b5f612d9c60266001613850565b612da7906020613863565b612db460408401846137c2565b905014612dd4576040516313717da960e21b815260040160405180910390fd5b5f612de0600485613b9c565b64ffffffffff169050612e39612df960408501856137c2565b8080601f0160208091040260200160405190810160405280939291908181526020018383808284375f92019190915250899250505060208601358461296b565b612e56576040516309bde33960e01b815260040160405180910390fd5b612e64836020013585612fb6565b95945050505050565b5f83515f14158015612e8a575060208451612e889190613bc5565b155b612ea7576040516313717da960e21b815260040160405180910390fd5b604080516020808201909252848152905b85518111612f3757612ecb600285613bc5565b5f03612efd5781515f528086015160205260208260405f60026107d05a03fa612ef2575f5ffd5b600284049350612f25565b808601515f52815160205260208260405f60026107d05a03fa612f1e575f5ffd5b6002840493505b612f30602082613850565b9050612eb8565b5051949350505050565b60f881901c60e882901c61ff00161760d882901c62ff0000161760c882901c63ff000000161764ff0000000060b883901c161765ff000000000060a883901c161766ff000000000000609883901c161767ff0000000000000060889290921c919091161790565b6060610d4c84845f85612fe2565b5f80612fc3600484613bd8565b612fce906040613c01565b64ffffffffff169050610d4c84821b612f41565b6060824710156130435760405162461bcd60e51b815260206004820152602660248201527f416464726573733a20696e73756666696369656e742062616c616e636520666f6044820152651c8818d85b1b60d21b60648201526084016112f7565b5f5f866001600160a01b0316858760405161305e91906138a4565b5f6040518083038185875af1925050503d805f8114613098576040519150601f19603f3d011682016040523d82523d5f602084013e61309d565b606091505b50915091506130ae878383876130b9565b979650505050505050565b606083156131275782515f03613120576001600160a01b0385163b6131205760405162461bcd60e51b815260206004820152601d60248201527f416464726573733a2063616c6c20746f206e6f6e2d636f6e747261637400000060448201526064016112f7565b5081610d4c565b610d4c838381511561313c5781518083602001fd5b8060405162461bcd60e51b81526004016112f79190613c21565b6001600160401b038116811461316a575f5ffd5b50565b5f6040828403121561317d575f5ffd5b50919050565b5f5f5f60608486031215613195575f5ffd5b83356131a081613156565b925060208401356001600160401b038111156131ba575f5ffd5b6131c68682870161316d565b92505060408401356001600160401b038111156131e1575f5ffd5b6131ed8682870161316d565b9150509250925092565b5f5f83601f840112613207575f5ffd5b5081356001600160401b0381111561321d575f5ffd5b6020830191508360208260051b8501011115613237575f5ffd5b9250929050565b5f5f5f5f5f5f5f5f60a0898b031215613255575f5ffd5b883561326081613156565b975060208901356001600160401b0381111561327a575f5ffd5b6132868b828c0161316d565b97505060408901356001600160401b038111156132a1575f5ffd5b6132ad8b828c016131f7565b90975095505060608901356001600160401b038111156132cb575f5ffd5b6132d78b828c016131f7565b90955093505060808901356001600160401b038111156132f5575f5ffd5b6133018b828c016131f7565b999c989b5096995094979396929594505050565b5f60208284031215613325575f5ffd5b8135611b6281613156565b5f5f83601f840112613340575f5ffd5b5081356001600160401b03811115613356575f5ffd5b602083019150836020828501011115613237575f5ffd5b5f5f6020838503121561337e575f5ffd5b82356001600160401b03811115613393575f5ffd5b61339f85828601613330565b90969095509350505050565b634e487b7160e01b5f52602160045260245ffd5b600381106133db57634e487b7160e01b5f52602160045260245ffd5b9052565b60208101610c4082846133bf565b5f602082840312156133fd575f5ffd5b5035919050565b5f6080820190506001600160401b0383511682526001600160401b0360208401511660208301526001600160401b036040840151166040830152606083015161345060608401826133bf565b5092915050565b801515811461316a575f5ffd5b5f60208284031215613474575f5ffd5b8135611b6281613457565b5f5f5f5f5f60608688031215613493575f5ffd5b85356001600160401b038111156134a8575f5ffd5b6134b488828901613330565b90965094505060208601356001600160401b038111156134d2575f5ffd5b6134de88828901613330565b96999598509660400135949350505050565b6001600160a01b038116811461316a575f5ffd5b803561350f816134f0565b919050565b5f5f60408385031215613525575f5ffd5b8235613530816134f0565b946020939093013593505050565b5f6020828403121561354e575f5ffd5b8135611b62816134f0565b634e487b7160e01b5f52604160045260245ffd5b604051601f8201601f191681016001600160401b038111828210171561359557613595613559565b604052919050565b5f6001600160401b038211156135b5576135b5613559565b5060051b60200190565b5f82601f8301126135ce575f5ffd5b81356135e16135dc8261359d565b61356d565b8082825260208201915060208360051b860101925085831115613602575f5ffd5b602085015b8381101561361f578035835260209283019201613607565b5095945050505050565b5f5f5f6060848603121561363b575f5ffd5b83356001600160401b03811115613650575f5ffd5b8401601f81018613613660575f5ffd5b803561366e6135dc8261359d565b8082825260208201915060208360051b85010192508883111561368f575f5ffd5b6020840193505b828410156136ba5783356136a9816134f0565b825260209384019390910190613696565b955050505060208401356001600160401b038111156136d7575f5ffd5b6136e3868287016135bf565b9250506136f260408501613504565b90509250925092565b5f5f5f6040848603121561370d575f5ffd5b83356001600160401b03811115613722575f5ffd5b61372e8682870161316d565b93505060208401356001600160401b03811115613749575f5ffd5b613755868287016131f7565b9497909650939450505050565b5f60208284031215613772575f5ffd5b8151611b6281613457565b5f5f8335601e19843603018112613792575f5ffd5b8301803591506001600160401b038211156137ab575f5ffd5b6020019150600581901b3603821315613237575f5ffd5b5f5f8335601e198436030181126137d7575f5ffd5b8301803591506001600160401b038211156137f0575f5ffd5b602001915036819003821315613237575f5ffd5b634e487b7160e01b5f52603260045260245ffd5b5f60208284031215613828575f5ffd5b813564ffffffffff81168114611b62575f5ffd5b634e487b7160e01b5f52601160045260245ffd5b80820180821115610c4057610c4061383c565b8082028115828204841417610c4057610c4061383c565b81810381811115610c4057610c4061383c565b5f81518060208401855e5f93019283525090919050565b5f611b62828461388d565b5f602082840312156138bf575f5ffd5b5051919050565b81835281816020850137505f828201602090810191909152601f909101601f19169091010190565b5f81518084528060208401602086015e5f602082860101526020601f19601f83011685010191505092915050565b608081525f61392f60808301888a6138c6565b828103602084015261394181886138ee565b905082810360408401526139568186886138c6565b915050826060830152979650505050505050565b602081525f610d4c6020830184866138c6565b634e487b7160e01b5f52601260045260245ffd5b5f8261399f5761399f61397d565b500490565b6001600160401b038281168282160390811115610c4057610c4061383c565b5f8235605e198336030181126139d7575f5ffd5b9190910192915050565b5f62ffffff8216806139f5576139f561383c565b5f190192915050565b6001600160401b038181168382160190811115610c4057610c4061383c565b600781810b9083900b01677fffffffffffffff8113677fffffffffffffff1982121715610c4057610c4061383c565b5f60208284031215613a5c575f5ffd5b8151611b6281613156565b8051602080830151919081101561317d575f1960209190910360031b1b16919050565b5f60018201613a9b57613a9b61383c565b5060010190565b5f613aad828561388d565b6001600160801b03199390931683525050601001919050565b6001600160f81b03199390931683526001600160a81b031991909116600183015260601b6bffffffffffffffffffffffff1916600c82015260200190565b600782810b9082900b03677fffffffffffffff198112677fffffffffffffff82131715610c4057610c4061383c565b5f81613b4157613b4161383c565b505f190190565b5f8160070b677fffffffffffffff198103613b6557613b6561383c565b5f0392915050565b8082025f8212600160ff1b84141615613b8857613b8861383c565b8181058314821517610c4057610c4061383c565b5f64ffffffffff831680613bb257613bb261397d565b8064ffffffffff84160491505092915050565b5f82613bd357613bd361397d565b500690565b5f64ffffffffff831680613bee57613bee61397d565b8064ffffffffff84160691505092915050565b64ffffffffff81811683821602908116908181146134505761345061383c565b602081525f611b6260208301846138ee56fea26469706673582212201d9a0230a83aef34d892c8b506fa80c91c29a9488ca03108ddc5bd736b89b99964736f6c634300081b0033",
    "linkReferences": {}
  },
  "methodIdentifiers": {
    "GENESIS_TIME()": "f2882461",
    "activeValidatorCount()": "2340e8d3",
    "checkpointBalanceExitedGwei(uint64)": "52396a59",
    "currentCheckpoint()": "47d28372",
    "currentCheckpointTimestamp()": "42ecff2a",
    "eigenPodManager()": "4665bcda",
    "ethPOS()": "74cdd798",
    "getParentBlockRoot(uint64)": "6c0d2d5a",
    "initialize(address)": "c4d66de8",
    "lastCheckpointTimestamp()": "ee94d67c",
    "podOwner()": "0b18ff66",
    "proofSubmitter()": "58753357",
    "recoverTokens(address[],uint256[],address)": "dda3346c",
    "setProofSubmitter(address)": "d06d5587",
    "stake(bytes,bytes,bytes32)": "9b4e4634",
    "startCheckpoint(bool)": "88676cad",
    "validatorPubkeyHashToInfo(bytes32)": "6fcd0e53",
    "validatorPubkeyToInfo(bytes)": "b522538a",
    "validatorStatus(bytes)": "58eaee79",
    "validatorStatus(bytes32)": "7439841f",
    "verifyCheckpointProofs((bytes32,bytes),(bytes32,bytes32,bytes)[])": "f074ba62",
    "verifyStaleBalance(uint64,(bytes32,bytes),(bytes32[],bytes))": "039157d2",
    "verifyWithdrawalCredentials(uint64,(bytes32,bytes),uint40[],bytes[],bytes32[][])": "3f65cf19",
    "withdrawRestakedBeaconChainETH(address,uint256)": "c4907442",
    "withdrawableRestakedExecutionLayerGwei()": "3474aa16"
  },
  "id": 186
}