{
  "abi": [
    {
      "type": "function",
      "name": "increment",
      "inputs": [],
      "outputs": [
        {
          "name": "",
          "type": "uint256",
          "internalType": "uint256"
        }
      ],
      "stateMutability": "nonpayable"
    },
    {
      "type": "function",
      "name": "stateVar",
      "inputs": [],
      "outputs": [
        {
          "name": "",
          "type": "uint256",
          "internalType": "uint256"
        }
      ],
      "stateMutability": "view"
    }
  ],
  "bytecode": {
    "object": "0x6080604052348015600e575f5ffd5b5060c080601a5f395ff3fe6080604052348015600e575f5ffd5b50600436106030575f3560e01c8063793816ec146034578063d09de08a14604d575b5f5ffd5b603b5f5481565b60405190815260200160405180910390f35b603b5f80548180605b836067565b91905055505f54905090565b5f60018201608357634e487b7160e01b5f52601160045260245ffd5b506001019056fea2646970667358221220a3c59cf7177b54e307529559db4eef9ee65b28046c28769974401fde335f74ac64736f6c634300081b0033",
    "linkReferences": {}
  },
  "methodIdentifiers": {
    "increment()": "d09de08a",
    "stateVar()": "793816ec"
  },
  "id": 139
}