{
  "abi": [
    {
      "type": "constructor",
      "inputs": [
        {
          "name": "_strategyManager",
          "type": "address",
          "internalType": "contract IStrategyManager"
        },
        {
          "name": "_eigenPodManager",
          "type": "address",
          "internalType": "contract IEigenPodManager"
        },
        {
          "name": "_allocationManager",
          "type": "address",
          "internalType": "contract IAllocationManager"
        },
        {
          "name": "_pauserRegistry",
          "type": "address",
          "internalType": "contract IPauserRegistry"
        },
        {
          "name": "_permissionController",
          "type": "address",
          "internalType": "contract IPermissionController"
        },
        {
          "name": "_MIN_WITHDRAWAL_DELAY",
          "type": "uint32",
          "internalType": "uint32"
        }
      ],
      "stateMutability": "nonpayable"
    },
    {
      "type": "function",
      "name": "DELEGATION_APPROVAL_TYPEHASH",
      "inputs": [],
      "outputs": [
        {
          "name": "",
          "type": "bytes32",
          "internalType": "bytes32"
        }
      ],
      "stateMutability": "view"
    },
    {
      "type": "function",
      "name": "allocationManager",
      "inputs": [],
      "outputs": [
        {
          "name": "",
          "type": "address",
          "internalType": "contract IAllocationManager"
        }
      ],
      "stateMutability": "view"
    },
    {
      "type": "function",
      "name": "beaconChainETHStrategy",
      "inputs": [],
      "outputs": [
        {
          "name": "",
          "type": "address",
          "internalType": "contract IStrategy"
        }
      ],
      "stateMutability": "view"
    },
    {
      "type": "function",
      "name": "burnOperatorShares",
      "inputs": [
        {
          "name": "operator",
          "type": "address",
          "internalType": "address"
        },
        {
          "name": "strategy",
          "type": "address",
          "internalType": "contract IStrategy"
        },
        {
          "name": "prevMaxMagnitude",
          "type": "uint64",
          "internalType": "uint64"
        },
        {
          "name": "newMaxMagnitude",
          "type": "uint64",
          "internalType": "uint64"
        }
      ],
      "outputs": [],
      "stateMutability": "nonpayable"
    },
    {
      "type": "function",
      "name": "calculateDelegationApprovalDigestHash",
      "inputs": [
        {
          "name": "staker",
          "type": "address",
          "internalType": "address"
        },
        {
          "name": "operator",
          "type": "address",
          "internalType": "address"
        },
        {
          "name": "approver",
          "type": "address",
          "internalType": "address"
        },
        {
          "name": "approverSalt",
          "type": "bytes32",
          "internalType": "bytes32"
        },
        {
          "name": "expiry",
          "type": "uint256",
          "internalType": "uint256"
        }
      ],
      "outputs": [
        {
          "name": "",
          "type": "bytes32",
          "internalType": "bytes32"
        }
      ],
      "stateMutability": "view"
    },
    {
      "type": "function",
      "name": "calculateWithdrawalRoot",
      "inputs": [
        {
          "name": "withdrawal",
          "type": "tuple",
          "internalType": "struct IDelegationManagerTypes.Withdrawal",
          "components": [
            {
              "name": "staker",
              "type": "address",
              "internalType": "address"
            },
            {
              "name": "delegatedTo",
              "type": "address",
              "internalType": "address"
            },
            {
              "name": "withdrawer",
              "type": "address",
              "internalType": "address"
            },
            {
              "name": "nonce",
              "type": "uint256",
              "internalType": "uint256"
            },
            {
              "name": "startBlock",
              "type": "uint32",
              "internalType": "uint32"
            },
            {
              "name": "strategies",
              "type": "address[]",
              "internalType": "contract IStrategy[]"
            },
            {
              "name": "scaledShares",
              "type": "uint256[]",
              "internalType": "uint256[]"
            }
          ]
        }
      ],
      "outputs": [
        {
          "name": "",
          "type": "bytes32",
          "internalType": "bytes32"
        }
      ],
      "stateMutability": "pure"
    },
    {
      "type": "function",
      "name": "completeQueuedWithdrawal",
      "inputs": [
        {
          "name": "withdrawal",
          "type": "tuple",
          "internalType": "struct IDelegationManagerTypes.Withdrawal",
          "components": [
            {
              "name": "staker",
              "type": "address",
              "internalType": "address"
            },
            {
              "name": "delegatedTo",
              "type": "address",
              "internalType": "address"
            },
            {
              "name": "withdrawer",
              "type": "address",
              "internalType": "address"
            },
            {
              "name": "nonce",
              "type": "uint256",
              "internalType": "uint256"
            },
            {
              "name": "startBlock",
              "type": "uint32",
              "internalType": "uint32"
            },
            {
              "name": "strategies",
              "type": "address[]",
              "internalType": "contract IStrategy[]"
            },
            {
              "name": "scaledShares",
              "type": "uint256[]",
              "internalType": "uint256[]"
            }
          ]
        },
        {
          "name": "tokens",
          "type": "address[]",
          "internalType": "contract IERC20[]"
        },
        {
          "name": "receiveAsTokens",
          "type": "bool",
          "internalType": "bool"
        }
      ],
      "outputs": [],
      "stateMutability": "nonpayable"
    },
    {
      "type": "function",
      "name": "completeQueuedWithdrawals",
      "inputs": [
        {
          "name": "tokens",
          "type": "address[][]",
          "internalType": "contract IERC20[][]"
        },
        {
          "name": "receiveAsTokens",
          "type": "bool[]",
          "internalType": "bool[]"
        },
        {
          "name": "numToComplete",
          "type": "uint256",
          "internalType": "uint256"
        }
      ],
      "outputs": [],
      "stateMutability": "nonpayable"
    },
    {
      "type": "function",
      "name": "completeQueuedWithdrawals",
      "inputs": [
        {
          "name": "withdrawals",
          "type": "tuple[]",
          "internalType": "struct IDelegationManagerTypes.Withdrawal[]",
          "components": [
            {
              "name": "staker",
              "type": "address",
              "internalType": "address"
            },
            {
              "name": "delegatedTo",
              "type": "address",
              "internalType": "address"
            },
            {
              "name": "withdrawer",
              "type": "address",
              "internalType": "address"
            },
            {
              "name": "nonce",
              "type": "uint256",
              "internalType": "uint256"
            },
            {
              "name": "startBlock",
              "type": "uint32",
              "internalType": "uint32"
            },
            {
              "name": "strategies",
              "type": "address[]",
              "internalType": "contract IStrategy[]"
            },
            {
              "name": "scaledShares",
              "type": "uint256[]",
              "internalType": "uint256[]"
            }
          ]
        },
        {
          "name": "tokens",
          "type": "address[][]",
          "internalType": "contract IERC20[][]"
        },
        {
          "name": "receiveAsTokens",
          "type": "bool[]",
          "internalType": "bool[]"
        }
      ],
      "outputs": [],
      "stateMutability": "nonpayable"
    },
    {
      "type": "function",
      "name": "cumulativeWithdrawalsQueued",
      "inputs": [
        {
          "name": "staker",
          "type": "address",
          "internalType": "address"
        }
      ],
      "outputs": [
        {
          "name": "totalQueued",
          "type": "uint256",
          "internalType": "uint256"
        }
      ],
      "stateMutability": "view"
    },
    {
      "type": "function",
      "name": "decreaseDelegatedShares",
      "inputs": [
        {
          "name": "staker",
          "type": "address",
          "internalType": "address"
        },
        {
          "name": "curDepositShares",
          "type": "uint256",
          "internalType": "uint256"
        },
        {
          "name": "beaconChainSlashingFactorDecrease",
          "type": "uint64",
          "internalType": "uint64"
        }
      ],
      "outputs": [],
      "stateMutability": "nonpayable"
    },
    {
      "type": "function",
      "name": "delegateTo",
      "inputs": [
        {
          "name": "operator",
          "type": "address",
          "internalType": "address"
        },
        {
          "name": "approverSignatureAndExpiry",
          "type": "tuple",
          "internalType": "struct ISignatureUtils.SignatureWithExpiry",
          "components": [
            {
              "name": "signature",
              "type": "bytes",
              "internalType": "bytes"
            },
            {
              "name": "expiry",
              "type": "uint256",
              "internalType": "uint256"
            }
          ]
        },
        {
          "name": "approverSalt",
          "type": "bytes32",
          "internalType": "bytes32"
        }
      ],
      "outputs": [],
      "stateMutability": "nonpayable"
    },
    {
      "type": "function",
      "name": "delegatedTo",
      "inputs": [
        {
          "name": "staker",
          "type": "address",
          "internalType": "address"
        }
      ],
      "outputs": [
        {
          "name": "operator",
          "type": "address",
          "internalType": "address"
        }
      ],
      "stateMutability": "view"
    },
    {
      "type": "function",
      "name": "delegationApprover",
      "inputs": [
        {
          "name": "operator",
          "type": "address",
          "internalType": "address"
        }
      ],
      "outputs": [
        {
          "name": "",
          "type": "address",
          "internalType": "address"
        }
      ],
      "stateMutability": "view"
    },
    {
      "type": "function",
      "name": "delegationApproverSaltIsSpent",
      "inputs": [
        {
          "name": "delegationApprover",
          "type": "address",
          "internalType": "address"
        },
        {
          "name": "salt",
          "type": "bytes32",
          "internalType": "bytes32"
        }
      ],
      "outputs": [
        {
          "name": "spent",
          "type": "bool",
          "internalType": "bool"
        }
      ],
      "stateMutability": "view"
    },
    {
      "type": "function",
      "name": "depositScalingFactor",
      "inputs": [
        {
          "name": "staker",
          "type": "address",
          "internalType": "address"
        },
        {
          "name": "strategy",
          "type": "address",
          "internalType": "contract IStrategy"
        }
      ],
      "outputs": [
        {
          "name": "",
          "type": "uint256",
          "internalType": "uint256"
        }
      ],
      "stateMutability": "view"
    },
    {
      "type": "function",
      "name": "domainSeparator",
      "inputs": [],
      "outputs": [
        {
          "name": "",
          "type": "bytes32",
          "internalType": "bytes32"
        }
      ],
      "stateMutability": "view"
    },
    {
      "type": "function",
      "name": "eigenPodManager",
      "inputs": [],
      "outputs": [
        {
          "name": "",
          "type": "address",
          "internalType": "contract IEigenPodManager"
        }
      ],
      "stateMutability": "view"
    },
    {
      "type": "function",
      "name": "getDepositedShares",
      "inputs": [
        {
          "name": "staker",
          "type": "address",
          "internalType": "address"
        }
      ],
      "outputs": [
        {
          "name": "",
          "type": "address[]",
          "internalType": "contract IStrategy[]"
        },
        {
          "name": "",
          "type": "uint256[]",
          "internalType": "uint256[]"
        }
      ],
      "stateMutability": "view"
    },
    {
      "type": "function",
      "name": "getOperatorShares",
      "inputs": [
        {
          "name": "operator",
          "type": "address",
          "internalType": "address"
        },
        {
          "name": "strategies",
          "type": "address[]",
          "internalType": "contract IStrategy[]"
        }
      ],
      "outputs": [
        {
          "name": "",
          "type": "uint256[]",
          "internalType": "uint256[]"
        }
      ],
      "stateMutability": "view"
    },
    {
      "type": "function",
      "name": "getOperatorsShares",
      "inputs": [
        {
          "name": "operators",
          "type": "address[]",
          "internalType": "address[]"
        },
        {
          "name": "strategies",
          "type": "address[]",
          "internalType": "contract IStrategy[]"
        }
      ],
      "outputs": [
        {
          "name": "",
          "type": "uint256[][]",
          "internalType": "uint256[][]"
        }
      ],
      "stateMutability": "view"
    },
    {
      "type": "function",
      "name": "getQueuedWithdrawals",
      "inputs": [
        {
          "name": "staker",
          "type": "address",
          "internalType": "address"
        }
      ],
      "outputs": [
        {
          "name": "withdrawals",
          "type": "tuple[]",
          "internalType": "struct IDelegationManagerTypes.Withdrawal[]",
          "components": [
            {
              "name": "staker",
              "type": "address",
              "internalType": "address"
            },
            {
              "name": "delegatedTo",
              "type": "address",
              "internalType": "address"
            },
            {
              "name": "withdrawer",
              "type": "address",
              "internalType": "address"
            },
            {
              "name": "nonce",
              "type": "uint256",
              "internalType": "uint256"
            },
            {
              "name": "startBlock",
              "type": "uint32",
              "internalType": "uint32"
            },
            {
              "name": "strategies",
              "type": "address[]",
              "internalType": "contract IStrategy[]"
            },
            {
              "name": "scaledShares",
              "type": "uint256[]",
              "internalType": "uint256[]"
            }
          ]
        },
        {
          "name": "shares",
          "type": "uint256[][]",
          "internalType": "uint256[][]"
        }
      ],
      "stateMutability": "view"
    },
    {
      "type": "function",
      "name": "getSlashableSharesInQueue",
      "inputs": [
        {
          "name": "operator",
          "type": "address",
          "internalType": "address"
        },
        {
          "name": "strategy",
          "type": "address",
          "internalType": "contract IStrategy"
        }
      ],
      "outputs": [
        {
          "name": "",
          "type": "uint256",
          "internalType": "uint256"
        }
      ],
      "stateMutability": "view"
    },
    {
      "type": "function",
      "name": "getWithdrawableShares",
      "inputs": [
        {
          "name": "staker",
          "type": "address",
          "internalType": "address"
        },
        {
          "name": "strategies",
          "type": "address[]",
          "internalType": "contract IStrategy[]"
        }
      ],
      "outputs": [
        {
          "name": "withdrawableShares",
          "type": "uint256[]",
          "internalType": "uint256[]"
        },
        {
          "name": "depositShares",
          "type": "uint256[]",
          "internalType": "uint256[]"
        }
      ],
      "stateMutability": "view"
    },
    {
      "type": "function",
      "name": "increaseDelegatedShares",
      "inputs": [
        {
          "name": "staker",
          "type": "address",
          "internalType": "address"
        },
        {
          "name": "strategy",
          "type": "address",
          "internalType": "contract IStrategy"
        },
        {
          "name": "prevDepositShares",
          "type": "uint256",
          "internalType": "uint256"
        },
        {
          "name": "addedShares",
          "type": "uint256",
          "internalType": "uint256"
        }
      ],
      "outputs": [],
      "stateMutability": "nonpayable"
    },
    {
      "type": "function",
      "name": "initialize",
      "inputs": [
        {
          "name": "initialOwner",
          "type": "address",
          "internalType": "address"
        },
        {
          "name": "initialPausedStatus",
          "type": "uint256",
          "internalType": "uint256"
        }
      ],
      "outputs": [],
      "stateMutability": "nonpayable"
    },
    {
      "type": "function",
      "name": "isDelegated",
      "inputs": [
        {
          "name": "staker",
          "type": "address",
          "internalType": "address"
        }
      ],
      "outputs": [
        {
          "name": "",
          "type": "bool",
          "internalType": "bool"
        }
      ],
      "stateMutability": "view"
    },
    {
      "type": "function",
      "name": "isOperator",
      "inputs": [
        {
          "name": "operator",
          "type": "address",
          "internalType": "address"
        }
      ],
      "outputs": [
        {
          "name": "",
          "type": "bool",
          "internalType": "bool"
        }
      ],
      "stateMutability": "view"
    },
    {
      "type": "function",
      "name": "minWithdrawalDelayBlocks",
      "inputs": [],
      "outputs": [
        {
          "name": "",
          "type": "uint32",
          "internalType": "uint32"
        }
      ],
      "stateMutability": "view"
    },
    {
      "type": "function",
      "name": "modifyOperatorDetails",
      "inputs": [
        {
          "name": "operator",
          "type": "address",
          "internalType": "address"
        },
        {
          "name": "newDelegationApprover",
          "type": "address",
          "internalType": "address"
        }
      ],
      "outputs": [],
      "stateMutability": "nonpayable"
    },
    {
      "type": "function",
      "name": "operatorShares",
      "inputs": [
        {
          "name": "operator",
          "type": "address",
          "internalType": "address"
        },
        {
          "name": "strategy",
          "type": "address",
          "internalType": "contract IStrategy"
        }
      ],
      "outputs": [
        {
          "name": "shares",
          "type": "uint256",
          "internalType": "uint256"
        }
      ],
      "stateMutability": "view"
    },
    {
      "type": "function",
      "name": "owner",
      "inputs": [],
      "outputs": [
        {
          "name": "",
          "type": "address",
          "internalType": "address"
        }
      ],
      "stateMutability": "view"
    },
    {
      "type": "function",
      "name": "pause",
      "inputs": [
        {
          "name": "newPausedStatus",
          "type": "uint256",
          "internalType": "uint256"
        }
      ],
      "outputs": [],
      "stateMutability": "nonpayable"
    },
    {
      "type": "function",
      "name": "pauseAll",
      "inputs": [],
      "outputs": [],
      "stateMutability": "nonpayable"
    },
    {
      "type": "function",
      "name": "paused",
      "inputs": [
        {
          "name": "index",
          "type": "uint8",
          "internalType": "uint8"
        }
      ],
      "outputs": [
        {
          "name": "",
          "type": "bool",
          "internalType": "bool"
        }
      ],
      "stateMutability": "view"
    },
    {
      "type": "function",
      "name": "paused",
      "inputs": [],
      "outputs": [
        {
          "name": "",
          "type": "uint256",
          "internalType": "uint256"
        }
      ],
      "stateMutability": "view"
    },
    {
      "type": "function",
      "name": "pauserRegistry",
      "inputs": [],
      "outputs": [
        {
          "name": "",
          "type": "address",
          "internalType": "contract IPauserRegistry"
        }
      ],
      "stateMutability": "view"
    },
    {
      "type": "function",
      "name": "pendingWithdrawals",
      "inputs": [
        {
          "name": "withdrawalRoot",
          "type": "bytes32",
          "internalType": "bytes32"
        }
      ],
      "outputs": [
        {
          "name": "pending",
          "type": "bool",
          "internalType": "bool"
        }
      ],
      "stateMutability": "view"
    },
    {
      "type": "function",
      "name": "permissionController",
      "inputs": [],
      "outputs": [
        {
          "name": "",
          "type": "address",
          "internalType": "contract IPermissionController"
        }
      ],
      "stateMutability": "view"
    },
    {
      "type": "function",
      "name": "queueWithdrawals",
      "inputs": [
        {
          "name": "params",
          "type": "tuple[]",
          "internalType": "struct IDelegationManagerTypes.QueuedWithdrawalParams[]",
          "components": [
            {
              "name": "strategies",
              "type": "address[]",
              "internalType": "contract IStrategy[]"
            },
            {
              "name": "depositShares",
              "type": "uint256[]",
              "internalType": "uint256[]"
            },
            {
              "name": "withdrawer",
              "type": "address",
              "internalType": "address"
            }
          ]
        }
      ],
      "outputs": [
        {
          "name": "",
          "type": "bytes32[]",
          "internalType": "bytes32[]"
        }
      ],
      "stateMutability": "nonpayable"
    },
    {
      "type": "function",
      "name": "queuedWithdrawals",
      "inputs": [
        {
          "name": "withdrawalRoot",
          "type": "bytes32",
          "internalType": "bytes32"
        }
      ],
      "outputs": [
        {
          "name": "staker",
          "type": "address",
          "internalType": "address"
        },
        {
          "name": "delegatedTo",
          "type": "address",
          "internalType": "address"
        },
        {
          "name": "withdrawer",
          "type": "address",
          "internalType": "address"
        },
        {
          "name": "nonce",
          "type": "uint256",
          "internalType": "uint256"
        },
        {
          "name": "startBlock",
          "type": "uint32",
          "internalType": "uint32"
        }
      ],
      "stateMutability": "view"
    },
    {
      "type": "function",
      "name": "redelegate",
      "inputs": [
        {
          "name": "newOperator",
          "type": "address",
          "internalType": "address"
        },
        {
          "name": "newOperatorApproverSig",
          "type": "tuple",
          "internalType": "struct ISignatureUtils.SignatureWithExpiry",
          "components": [
            {
              "name": "signature",
              "type": "bytes",
              "internalType": "bytes"
            },
            {
              "name": "expiry",
              "type": "uint256",
              "internalType": "uint256"
            }
          ]
        },
        {
          "name": "approverSalt",
          "type": "bytes32",
          "internalType": "bytes32"
        }
      ],
      "outputs": [
        {
          "name": "withdrawalRoots",
          "type": "bytes32[]",
          "internalType": "bytes32[]"
        }
      ],
      "stateMutability": "nonpayable"
    },
    {
      "type": "function",
      "name": "registerAsOperator",
      "inputs": [
        {
          "name": "initDelegationApprover",
          "type": "address",
          "internalType": "address"
        },
        {
          "name": "allocationDelay",
          "type": "uint32",
          "internalType": "uint32"
        },
        {
          "name": "metadataURI",
          "type": "string",
          "internalType": "string"
        }
      ],
      "outputs": [],
      "stateMutability": "nonpayable"
    },
    {
      "type": "function",
      "name": "renounceOwnership",
      "inputs": [],
      "outputs": [],
      "stateMutability": "nonpayable"
    },
    {
      "type": "function",
      "name": "strategyManager",
      "inputs": [],
      "outputs": [
        {
          "name": "",
          "type": "address",
          "internalType": "contract IStrategyManager"
        }
      ],
      "stateMutability": "view"
    },
    {
      "type": "function",
      "name": "transferOwnership",
      "inputs": [
        {
          "name": "newOwner",
          "type": "address",
          "internalType": "address"
        }
      ],
      "outputs": [],
      "stateMutability": "nonpayable"
    },
    {
      "type": "function",
      "name": "undelegate",
      "inputs": [
        {
          "name": "staker",
          "type": "address",
          "internalType": "address"
        }
      ],
      "outputs": [
        {
          "name": "withdrawalRoots",
          "type": "bytes32[]",
          "internalType": "bytes32[]"
        }
      ],
      "stateMutability": "nonpayable"
    },
    {
      "type": "function",
      "name": "unpause",
      "inputs": [
        {
          "name": "newPausedStatus",
          "type": "uint256",
          "internalType": "uint256"
        }
      ],
      "outputs": [],
      "stateMutability": "nonpayable"
    },
    {
      "type": "function",
      "name": "updateOperatorMetadataURI",
      "inputs": [
        {
          "name": "operator",
          "type": "address",
          "internalType": "address"
        },
        {
          "name": "metadataURI",
          "type": "string",
          "internalType": "string"
        }
      ],
      "outputs": [],
      "stateMutability": "nonpayable"
    },
    {
      "type": "event",
      "name": "DelegationApproverUpdated",
      "inputs": [
        {
          "name": "operator",
          "type": "address",
          "indexed": true,
          "internalType": "address"
        },
        {
          "name": "newDelegationApprover",
          "type": "address",
          "indexed": false,
          "internalType": "address"
        }
      ],
      "anonymous": false
    },
    {
      "type": "event",
      "name": "DepositScalingFactorUpdated",
      "inputs": [
        {
          "name": "staker",
          "type": "address",
          "indexed": false,
          "internalType": "address"
        },
        {
          "name": "strategy",
          "type": "address",
          "indexed": false,
          "internalType": "contract IStrategy"
        },
        {
          "name": "newDepositScalingFactor",
          "type": "uint256",
          "indexed": false,
          "internalType": "uint256"
        }
      ],
      "anonymous": false
    },
    {
      "type": "event",
      "name": "Initialized",
      "inputs": [
        {
          "name": "version",
          "type": "uint8",
          "indexed": false,
          "internalType": "uint8"
        }
      ],
      "anonymous": false
    },
    {
      "type": "event",
      "name": "OperatorMetadataURIUpdated",
      "inputs": [
        {
          "name": "operator",
          "type": "address",
          "indexed": true,
          "internalType": "address"
        },
        {
          "name": "metadataURI",
          "type": "string",
          "indexed": false,
          "internalType": "string"
        }
      ],
      "anonymous": false
    },
    {
      "type": "event",
      "name": "OperatorRegistered",
      "inputs": [
        {
          "name": "operator",
          "type": "address",
          "indexed": true,
          "internalType": "address"
        },
        {
          "name": "delegationApprover",
          "type": "address",
          "indexed": false,
          "internalType": "address"
        }
      ],
      "anonymous": false
    },
    {
      "type": "event",
      "name": "OperatorSharesBurned",
      "inputs": [
        {
          "name": "operator",
          "type": "address",
          "indexed": true,
          "internalType": "address"
        },
        {
          "name": "strategy",
          "type": "address",
          "indexed": false,
          "internalType": "contract IStrategy"
        },
        {
          "name": "shares",
          "type": "uint256",
          "indexed": false,
          "internalType": "uint256"
        }
      ],
      "anonymous": false
    },
    {
      "type": "event",
      "name": "OperatorSharesDecreased",
      "inputs": [
        {
          "name": "operator",
          "type": "address",
          "indexed": true,
          "internalType": "address"
        },
        {
          "name": "staker",
          "type": "address",
          "indexed": false,
          "internalType": "address"
        },
        {
          "name": "strategy",
          "type": "address",
          "indexed": false,
          "internalType": "contract IStrategy"
        },
        {
          "name": "shares",
          "type": "uint256",
          "indexed": false,
          "internalType": "uint256"
        }
      ],
      "anonymous": false
    },
    {
      "type": "event",
      "name": "OperatorSharesIncreased",
      "inputs": [
        {
          "name": "operator",
          "type": "address",
          "indexed": true,
          "internalType": "address"
        },
        {
          "name": "staker",
          "type": "address",
          "indexed": false,
          "internalType": "address"
        },
        {
          "name": "strategy",
          "type": "address",
          "indexed": false,
          "internalType": "contract IStrategy"
        },
        {
          "name": "shares",
          "type": "uint256",
          "indexed": false,
          "internalType": "uint256"
        }
      ],
      "anonymous": false
    },
    {
      "type": "event",
      "name": "OwnershipTransferred",
      "inputs": [
        {
          "name": "previousOwner",
          "type": "address",
          "indexed": true,
          "internalType": "address"
        },
        {
          "name": "newOwner",
          "type": "address",
          "indexed": true,
          "internalType": "address"
        }
      ],
      "anonymous": false
    },
    {
      "type": "event",
      "name": "Paused",
      "inputs": [
        {
          "name": "account",
          "type": "address",
          "indexed": true,
          "internalType": "address"
        },
        {
          "name": "newPausedStatus",
          "type": "uint256",
          "indexed": false,
          "internalType": "uint256"
        }
      ],
      "anonymous": false
    },
    {
      "type": "event",
      "name": "SlashingWithdrawalCompleted",
      "inputs": [
        {
          "name": "withdrawalRoot",
          "type": "bytes32",
          "indexed": false,
          "internalType": "bytes32"
        }
      ],
      "anonymous": false
    },
    {
      "type": "event",
      "name": "SlashingWithdrawalQueued",
      "inputs": [
        {
          "name": "withdrawalRoot",
          "type": "bytes32",
          "indexed": false,
          "internalType": "bytes32"
        },
        {
          "name": "withdrawal",
          "type": "tuple",
          "indexed": false,
          "internalType": "struct IDelegationManagerTypes.Withdrawal",
          "components": [
            {
              "name": "staker",
              "type": "address",
              "internalType": "address"
            },
            {
              "name": "delegatedTo",
              "type": "address",
              "internalType": "address"
            },
            {
              "name": "withdrawer",
              "type": "address",
              "internalType": "address"
            },
            {
              "name": "nonce",
              "type": "uint256",
              "internalType": "uint256"
            },
            {
              "name": "startBlock",
              "type": "uint32",
              "internalType": "uint32"
            },
            {
              "name": "strategies",
              "type": "address[]",
              "internalType": "contract IStrategy[]"
            },
            {
              "name": "scaledShares",
              "type": "uint256[]",
              "internalType": "uint256[]"
            }
          ]
        },
        {
          "name": "sharesToWithdraw",
          "type": "uint256[]",
          "indexed": false,
          "internalType": "uint256[]"
        }
      ],
      "anonymous": false
    },
    {
      "type": "event",
      "name": "StakerDelegated",
      "inputs": [
        {
          "name": "staker",
          "type": "address",
          "indexed": true,
          "internalType": "address"
        },
        {
          "name": "operator",
          "type": "address",
          "indexed": true,
          "internalType": "address"
        }
      ],
      "anonymous": false
    },
    {
      "type": "event",
      "name": "StakerForceUndelegated",
      "inputs": [
        {
          "name": "staker",
          "type": "address",
          "indexed": true,
          "internalType": "address"
        },
        {
          "name": "operator",
          "type": "address",
          "indexed": true,
          "internalType": "address"
        }
      ],
      "anonymous": false
    },
    {
      "type": "event",
      "name": "StakerUndelegated",
      "inputs": [
        {
          "name": "staker",
          "type": "address",
          "indexed": true,
          "internalType": "address"
        },
        {
          "name": "operator",
          "type": "address",
          "indexed": true,
          "internalType": "address"
        }
      ],
      "anonymous": false
    },
    {
      "type": "event",
      "name": "Unpaused",
      "inputs": [
        {
          "name": "account",
          "type": "address",
          "indexed": true,
          "internalType": "address"
        },
        {
          "name": "newPausedStatus",
          "type": "uint256",
          "indexed": false,
          "internalType": "uint256"
        }
      ],
      "anonymous": false
    },
    {
      "type": "error",
      "name": "ActivelyDelegated",
      "inputs": []
    },
    {
      "type": "error",
      "name": "CallerCannotUndelegate",
      "inputs": []
    },
    {
      "type": "error",
      "name": "CurrentlyPaused",
      "inputs": []
    },
    {
      "type": "error",
      "name": "FullySlashed",
      "inputs": []
    },
    {
      "type": "error",
      "name": "InputAddressZero",
      "inputs": []
    },
    {
      "type": "error",
      "name": "InputArrayLengthMismatch",
      "inputs": []
    },
    {
      "type": "error",
      "name": "InputArrayLengthZero",
      "inputs": []
    },
    {
      "type": "error",
      "name": "InvalidNewPausedStatus",
      "inputs": []
    },
    {
      "type": "error",
      "name": "InvalidPermissions",
      "inputs": []
    },
    {
      "type": "error",
      "name": "InvalidSignature",
      "inputs": []
    },
    {
      "type": "error",
      "name": "InvalidSnapshotOrdering",
      "inputs": []
    },
    {
      "type": "error",
      "name": "NotActivelyDelegated",
      "inputs": []
    },
    {
      "type": "error",
      "name": "OnlyAllocationManager",
      "inputs": []
    },
    {
      "type": "error",
      "name": "OnlyEigenPodManager",
      "inputs": []
    },
    {
      "type": "error",
      "name": "OnlyPauser",
      "inputs": []
    },
    {
      "type": "error",
      "name": "OnlyStrategyManagerOrEigenPodManager",
      "inputs": []
    },
    {
      "type": "error",
      "name": "OnlyUnpauser",
      "inputs": []
    },
    {
      "type": "error",
      "name": "OperatorNotRegistered",
      "inputs": []
    },
    {
      "type": "error",
      "name": "OperatorsCannotUndelegate",
      "inputs": []
    },
    {
      "type": "error",
      "name": "SaltSpent",
      "inputs": []
    },
    {
      "type": "error",
      "name": "SignatureExpired",
      "inputs": []
    },
    {
      "type": "error",
      "name": "WithdrawalDelayNotElapsed",
      "inputs": []
    },
    {
      "type": "error",
      "name": "WithdrawalExceedsMax",
      "inputs": []
    },
    {
      "type": "error",
      "name": "WithdrawalNotQueued",
      "inputs": []
    },
    {
      "type": "error",
      "name": "WithdrawerNotCaller",
      "inputs": []
    },
    {
      "type": "error",
      "name": "WithdrawerNotStaker",
      "inputs": []
    }
  ],
  "bytecode": {
    "object": "0x610180604052348015610010575f5ffd5b506040516160b13803806160b183398101604081905261002f91610235565b8186868684876001600160a01b03811661005c576040516339b190bb60e11b815260040160405180910390fd5b6001600160a01b0390811660805293841660a05291831660c05290911660e05263ffffffff166101005246610120526100936100b7565b610140526001600160a01b0316610160526100ac610162565b5050505050506102c0565b5f61012051461461015a5750604080518082018252600a81526922b4b3b2b72630bcb2b960b11b60209182015281517f8cad95687ba82c2ce50e74f7b754645e5117c3a5bec8151c0726d5857980a866818301527f71b625cfad44bac63b13dba07f2e1d6084ee04b6f8752101ece6126d584ee6ea81840152466060820152306080808301919091528351808303909101815260a0909101909252815191012090565b506101405190565b5f54610100900460ff16156101cd5760405162461bcd60e51b815260206004820152602760248201527f496e697469616c697a61626c653a20636f6e747261637420697320696e697469604482015266616c697a696e6760c81b606482015260840160405180910390fd5b5f5460ff9081161461021c575f805460ff191660ff9081179091556040519081527f7f26b83ff96e1f2b6a682f133852f6798a09c465da95921460cefb38474024989060200160405180910390a15b565b6001600160a01b0381168114610232575f5ffd5b50565b5f5f5f5f5f5f60c0878903121561024a575f5ffd5b86516102558161021e565b60208801519096506102668161021e565b60408801519095506102778161021e565b60608801519094506102888161021e565b60808801519093506102998161021e565b60a088015190925063ffffffff811681146102b2575f5ffd5b809150509295509295509295565b60805160a05160c05160e05161010051610120516101405161016051615cfc6103b55f395f81816103f2015261346d01525f61407701525f613fb701525f8181610741015281816135f80152613ac701525f818161079101528181610ce701528181610e980152818161177001528181611bf7015281816124e701528181612998015261428a01525f818161041901528181610e1e015281816116d701528181611935015281816132560152613f7701525f818161034f01528181610dec01528181611889015281816125d40152613f5101525f818161059401528181610bdf01528181610fb8015261280a0152615cfc5ff3fe608060405234801561000f575f5ffd5b50600436106102b1575f3560e01c8063778e55f31161017b578063bfae3fd2116100e4578063e4cc3f901161009e578063f0e0e67611610079578063f0e0e67614610812578063f2fde38b14610832578063f698da2514610845578063fabc1cbc1461084d575f5ffd5b8063e4cc3f90146107d9578063ee74937f146107ec578063eea9064b146107ff575f5ffd5b8063bfae3fd214610724578063c448feb814610737578063c978f7ac1461076b578063ca8aa7c71461078c578063cd6dc687146107b3578063da8be864146107c6575f5ffd5b80639435bb43116101355780639435bb431461060257806399f5371b14610615578063a1788484146106a3578063a33a3433146106c2578063b7f06ebe146106d5578063bb45fef2146106f7575f5ffd5b8063778e55f31461055257806378296ec51461057c578063886f11951461058f5780638da5cb5b146105b657806390041347146105c75780639104c319146105e7575f5ffd5b8063595c6a671161021d57806360a0d1ce116101d757806360a0d1ce146104c857806365da1264146104db57806366d5ba93146105035780636d70f7ae146105245780636e17444814610537578063715018a61461054a575f5ffd5b8063595c6a671461044e578063597b36da146104565780635ac86ab7146104695780635c975abb1461048c5780635dd68579146104945780635f48e667146104b5575f5ffd5b80633c651cf21161026e5780633c651cf2146103895780633cdeb5e01461039c5780633e28391d146103ca5780634657e26a146103ed5780634665bcda1461041457806354b7c96c1461043b575f5ffd5b806304a4f979146102b55780630b9f487a146102ef5780630dd8dd0214610302578063136439dd146103225780632aa6d8881461033757806339b70e381461034a575b5f5ffd5b6102dc7f14bde674c9f64b2ad00eaaee4a8bed1fabef35c7507e3c5b9cfc9436909a2dad81565b6040519081526020015b60405180910390f35b6102dc6102fd366004614c1c565b610860565b610315610310366004614cb3565b6108e8565b6040516102e69190614cf1565b610335610330366004614d28565b610bca565b005b610335610345366004614d8f565b610c9f565b6103717f000000000000000000000000000000000000000000000000000000000000000081565b6040516001600160a01b0390911681526020016102e6565b610335610397366004614ded565b610de1565b6103716103aa366004614e30565b6001600160a01b039081165f908152609960205260409020600101541690565b6103dd6103d8366004614e30565b610f28565b60405190151581526020016102e6565b6103717f000000000000000000000000000000000000000000000000000000000000000081565b6103717f000000000000000000000000000000000000000000000000000000000000000081565b610335610449366004614e4b565b610f47565b610335610fa3565b6102dc6104643660046150bc565b611052565b6103dd6104773660046150ed565b606654600160ff9092169190911b9081161490565b6066546102dc565b6104a76104a2366004614e30565b611081565b6040516102e692919061524c565b6103356104c33660046152b9565b611438565b6103356104d636600461533e565b6116cc565b6103716104e9366004614e30565b609a6020525f90815260409020546001600160a01b031681565b610516610511366004614e30565b611861565b6040516102e692919061537d565b6103dd610532366004614e30565b611b61565b6102dc610545366004614e4b565b611b99565b610335611c9f565b6102dc610560366004614e4b565b609860209081525f928352604080842090915290825290205481565b61033561058a3660046153a1565b611cb0565b6103717f000000000000000000000000000000000000000000000000000000000000000081565b6033546001600160a01b0316610371565b6105da6105d53660046153f1565b611d38565b6040516102e6919061543d565b61037173beac0eeeeeeeeeeeeeeeeeeeeeeeeeeeeeebeac081565b61033561061036600461544f565b611e0e565b610665610623366004614d28565b60a46020525f9081526040902080546001820154600283015460038401546004909401546001600160a01b039384169492841693909116919063ffffffff1685565b604080516001600160a01b03968716815294861660208601529290941691830191909152606082015263ffffffff909116608082015260a0016102e6565b6102dc6106b1366004614e30565b609f6020525f908152604090205481565b6103156106d03660046154eb565b611ec4565b6103dd6106e3366004614d28565b609e6020525f908152604090205460ff1681565b6103dd6107053660046155d2565b609c60209081525f928352604080842090915290825290205460ff1681565b6102dc610732366004614e4b565b611f61565b60405163ffffffff7f00000000000000000000000000000000000000000000000000000000000000001681526020016102e6565b61077e6107793660046153f1565b611f9d565b6040516102e69291906155fc565b6103717f000000000000000000000000000000000000000000000000000000000000000081565b6103356107c13660046155d2565b61222a565b6103156107d4366004614e30565b612345565b6103356107e736600461561b565b612486565b6103356107fa366004615699565b6124dc565b61033561080d3660046154eb565b612679565b6108256108203660046156e7565b6126dc565b6040516102e69190615794565b610335610840366004614e30565b612781565b6102dc6127fa565b61033561085b366004614d28565b612808565b604080517f14bde674c9f64b2ad00eaaee4a8bed1fabef35c7507e3c5b9cfc9436909a2dad60208201526001600160a01b03808616928201929092528187166060820152908516608082015260a0810183905260c081018290525f906108de9060e0016040516020818303038152906040528051906020012061291f565b9695505050505050565b6066546060906001906002908116036109145760405163840a48d560e01b815260040160405180910390fd5b5f836001600160401b0381111561092d5761092d614e82565b604051908082528060200260200182016040528015610956578160200160208202803683370190505b50335f908152609a60205260408120549192506001600160a01b03909116905b85811015610bbf57868682818110610990576109906157a6565b90506020028101906109a291906157ba565b6109b09060208101906157d8565b90508787838181106109c4576109c46157a6565b90506020028101906109d691906157ba565b6109e090806157d8565b905014610a00576040516343714afd60e01b815260040160405180910390fd5b33878783818110610a1357610a136157a6565b9050602002810190610a2591906157ba565b610a36906060810190604001614e30565b6001600160a01b031614610a5d576040516330c4716960e21b815260040160405180910390fd5b5f610ac733848a8a86818110610a7557610a756157a6565b9050602002810190610a8791906157ba565b610a9190806157d8565b808060200260200160405190810160405280939291908181526020018383602002808284375f9201919091525061294d92505050565b9050610b9933848a8a86818110610ae057610ae06157a6565b9050602002810190610af291906157ba565b610afc90806157d8565b808060200260200160405190810160405280939291908181526020018383602002808284375f920191909152508e92508d9150889050818110610b4157610b416157a6565b9050602002810190610b5391906157ba565b610b619060208101906157d8565b808060200260200160405190810160405280939291908181526020018383602002808284375f92019190915250889250612a94915050565b848381518110610bab57610bab6157a6565b602090810291909101015250600101610976565b509095945050505050565b60405163237dfb4760e11b81523360048201527f00000000000000000000000000000000000000000000000000000000000000006001600160a01b0316906346fbf68e90602401602060405180830381865afa158015610c2c573d5f5f3e3d5ffd5b505050506040513d601f19601f82011682018060405250810190610c50919061581d565b610c6d57604051631d77d47760e21b815260040160405180910390fd5b6066548181168114610c925760405163c61dca5d60e01b815260040160405180910390fd5b610c9b8261306d565b5050565b610ca833610f28565b15610cc657604051633bf2b50360e11b815260040160405180910390fd5b604051632b6241f360e11b815233600482015263ffffffff841660248201527f00000000000000000000000000000000000000000000000000000000000000006001600160a01b0316906356c483e6906044015f604051808303815f87803b158015610d30575f5ffd5b505af1158015610d42573d5f5f3e3d5ffd5b50505050610d5033856130aa565b610d5a333361310c565b6040516001600160a01b038516815233907fa453db612af59e5521d6ab9284dc3e2d06af286eb1b1b7b771fce4716c19f2c19060200160405180910390a2336001600160a01b03167f02a919ed0e2acad1dd90f17ef2fa4ae5462ee1339170034a8531cca4b67080908383604051610dd3929190615838565b60405180910390a250505050565b336001600160a01b037f0000000000000000000000000000000000000000000000000000000000000000161480610e405750336001600160a01b037f000000000000000000000000000000000000000000000000000000000000000016145b610e5d5760405163045206a560e21b815260040160405180910390fd5b6001600160a01b038481165f908152609a602052604080822054905163152667d960e31b8152908316600482018190528684166024830152927f0000000000000000000000000000000000000000000000000000000000000000169063a9333ec890604401602060405180830381865afa158015610edd573d5f5f3e3d5ffd5b505050506040513d601f19601f82011682018060405250810190610f019190615866565b90505f610f0f87878461320f565b9050610f1f8388888888866132f1565b50505050505050565b6001600160a01b039081165f908152609a602052604090205416151590565b81610f518161342f565b610f6e5760405163932d94f760e01b815260040160405180910390fd5b610f7783611b61565b610f94576040516325ec6c1f60e01b815260040160405180910390fd5b610f9e83836130aa565b505050565b60405163237dfb4760e11b81523360048201527f00000000000000000000000000000000000000000000000000000000000000006001600160a01b0316906346fbf68e90602401602060405180830381865afa158015611005573d5f5f3e3d5ffd5b505050506040513d601f19601f82011682018060405250810190611029919061581d565b61104657604051631d77d47760e21b815260040160405180910390fd5b6110505f1961306d565b565b5f816040516020016110649190615881565b604051602081830303815290604052805190602001209050919050565b6001600160a01b0381165f90815260a36020526040812060609182916110a6906134d9565b8051909150806001600160401b038111156110c3576110c3614e82565b6040519080825280602002602001820160405280156110fc57816020015b6110e9614ad8565b8152602001906001900390816110e15790505b509350806001600160401b0381111561111757611117614e82565b60405190808252806020026020018201604052801561114a57816020015b60608152602001906001900390816111355790505b506001600160a01b038087165f908152609a60205260408120549295509116905b8281101561142f5760a45f858381518110611188576111886157a6565b60209081029190910181015182528181019290925260409081015f20815160e08101835281546001600160a01b03908116825260018301548116828601526002830154168184015260038201546060820152600482015463ffffffff1660808201526005820180548451818702810187019095528085529194929360a086019390929083018282801561124257602002820191905f5260205f20905b81546001600160a01b03168152600190910190602001808311611224575b505050505081526020016006820180548060200260200160405190810160405280929190818152602001828054801561129857602002820191905f5260205f20905b815481526020019060010190808311611284575b5050505050815250508682815181106112b3576112b36157a6565b60200260200101819052508581815181106112d0576112d06157a6565b602002602001015160a00151516001600160401b038111156112f4576112f4614e82565b60405190808252806020026020018201604052801561131d578160200160208202803683370190505b50858281518110611330576113306157a6565b60200260200101819052505f6113648884898581518110611353576113536157a6565b602002602001015160a0015161294d565b90505f5b87838151811061137a5761137a6157a6565b602002602001015160a0015151811015611425576113e78884815181106113a3576113a36157a6565b602002602001015160c0015182815181106113c0576113c06157a6565b60200260200101518385815181106113da576113da6157a6565b60200260200101516134e5565b8784815181106113f9576113f96157a6565b60200260200101518281518110611412576114126157a6565b6020908102919091010152600101611368565b505060010161116b565b50505050915091565b6066546002906004908116036114615760405163840a48d560e01b815260040160405180910390fd5b6114696134f0565b335f90815260a3602052604081209061148182613549565b90508084116114905783611492565b805b93505f846001600160401b038111156114ad576114ad614e82565b6040519080825280602002602001820160405280156114e657816020015b6114d3614ad8565b8152602001906001900390816114cb5790505b5090505f5b81518110156116355760a45f6115018684613552565b815260208082019290925260409081015f20815160e08101835281546001600160a01b03908116825260018301548116828601526002830154168184015260038201546060820152600482015463ffffffff1660808201526005820180548451818702810187019095528085529194929360a08601939092908301828280156115b157602002820191905f5260205f20905b81546001600160a01b03168152600190910190602001808311611593575b505050505081526020016006820180548060200260200160405190810160405280929190818152602001828054801561160757602002820191905f5260205f20905b8154815260200190600101908083116115f3575b505050505081525050828281518110611622576116226157a6565b60209081029190910101526001016114eb565b505f5b81518110156116b6576116ae828281518110611656576116566157a6565b60200260200101518b8b84818110611670576116706157a6565b905060200281019061168291906157d8565b8b8b86818110611694576116946157a6565b90506020020160208101906116a99190615893565b61355d565b600101611638565b505050506116c4600160c955565b505050505050565b336001600160a01b037f0000000000000000000000000000000000000000000000000000000000000000161461171557604051633213a66160e21b815260040160405180910390fd5b61171e83610f28565b15610f9e576001600160a01b038381165f908152609a602052604080822054905163152667d960e31b81529083166004820181905273beac0eeeeeeeeeeeeeeeeeeeeeeeeeeeeeebeac06024830152927f0000000000000000000000000000000000000000000000000000000000000000169063a9333ec890604401602060405180830381865afa1580156117b5573d5f5f3e3d5ffd5b505050506040513d601f19601f820116820180604052508101906117d99190615866565b6001600160a01b0386165f90815260a26020908152604080832073beac0eeeeeeeeeeeeeeeeeeeeeeeeeeeeeebeac084528252808320815192830190915254815291925061183f866118376001600160401b038087169089166139d7565b8491906139eb565b9050610f1f848873beac0eeeeeeeeeeeeeeeeeeeeeeeeeeeeeebeac084613a11565b6040516394f649dd60e01b81526001600160a01b03828116600483015260609182915f9182917f000000000000000000000000000000000000000000000000000000000000000016906394f649dd906024015f60405180830381865afa1580156118cd573d5f5f3e3d5ffd5b505050506040513d5f823e601f3d908101601f191682016040526118f49190810190615909565b60405163fe243a1760e01b81526001600160a01b03888116600483015273beac0eeeeeeeeeeeeeeeeeeeeeeeeeeeeeebeac060248301529294509092505f917f0000000000000000000000000000000000000000000000000000000000000000169063fe243a1790604401602060405180830381865afa15801561197a573d5f5f3e3d5ffd5b505050506040513d601f19601f8201168201806040525081019061199e91906159c4565b9050805f036119b257509094909350915050565b5f835160016119c191906159ef565b6001600160401b038111156119d8576119d8614e82565b604051908082528060200260200182016040528015611a01578160200160208202803683370190505b5090505f84516001611a1391906159ef565b6001600160401b03811115611a2a57611a2a614e82565b604051908082528060200260200182016040528015611a53578160200160208202803683370190505b50905073beac0eeeeeeeeeeeeeeeeeeeeeeeeeeeeeebeac082865181518110611a7e57611a7e6157a6565b60200260200101906001600160a01b031690816001600160a01b0316815250508281865181518110611ab257611ab26157a6565b60209081029190910101525f5b8551811015611b5357858181518110611ada57611ada6157a6565b6020026020010151838281518110611af457611af46157a6565b60200260200101906001600160a01b031690816001600160a01b031681525050848181518110611b2657611b266157a6565b6020026020010151828281518110611b4057611b406157a6565b6020908102919091010152600101611abf565b509097909650945050505050565b5f6001600160a01b03821615801590611b9357506001600160a01b038083165f818152609a6020526040902054909116145b92915050565b6040805160018082528183019092525f918291906020808301908036833701905050905082815f81518110611bd057611bd06157a6565b6001600160a01b03928316602091820292909201015260405163547afb8760e01b81525f917f0000000000000000000000000000000000000000000000000000000000000000169063547afb8790611c2e9088908690600401615a02565b5f60405180830381865afa158015611c48573d5f5f3e3d5ffd5b505050506040513d5f823e601f3d908101601f19168201604052611c6f9190810190615a25565b5f81518110611c8057611c806157a6565b60200260200101519050611c968585835f613a8b565b95945050505050565b611ca7613b3c565b6110505f613b96565b82611cba8161342f565b611cd75760405163932d94f760e01b815260040160405180910390fd5b611ce084611b61565b611cfd576040516325ec6c1f60e01b815260040160405180910390fd5b836001600160a01b03167f02a919ed0e2acad1dd90f17ef2fa4ae5462ee1339170034a8531cca4b67080908484604051610dd3929190615838565b60605f82516001600160401b03811115611d5457611d54614e82565b604051908082528060200260200182016040528015611d7d578160200160208202803683370190505b5090505f5b8351811015611e06576001600160a01b0385165f9081526098602052604081208551909190869084908110611db957611db96157a6565b60200260200101516001600160a01b03166001600160a01b031681526020019081526020015f2054828281518110611df357611df36157a6565b6020908102919091010152600101611d82565b509392505050565b606654600290600490811603611e375760405163840a48d560e01b815260040160405180910390fd5b611e3f6134f0565b855f5b81811015611eb857611eb0898983818110611e5f57611e5f6157a6565b9050602002810190611e719190615ab4565b611e7a90615ac8565b888884818110611e8c57611e8c6157a6565b9050602002810190611e9e91906157d8565b888886818110611694576116946157a6565b600101611e42565b5050610f1f600160c955565b6060611ecf33610f28565b611eec5760405163a5c7c44560e01b815260040160405180910390fd5b611ef533611b61565b15611f13576040516311ca333560e31b815260040160405180910390fd5b611f1c84611b61565b611f39576040516325ec6c1f60e01b815260040160405180910390fd5b611f4233613be7565b9050611f5033858585613e46565b611f5a338561310c565b9392505050565b6001600160a01b038083165f90815260a260209081526040808320938516835292815282822083519182019093529154825290611f5a90613f0b565b60608082516001600160401b03811115611fb957611fb9614e82565b604051908082528060200260200182016040528015611fe2578160200160208202803683370190505b50915082516001600160401b03811115611ffe57611ffe614e82565b604051908082528060200260200182016040528015612027578160200160208202803683370190505b506001600160a01b038086165f908152609a602052604081205492935091169061205286838761294d565b90505f5b855181101561221f575f612082878381518110612075576120756157a6565b6020026020010151613f2a565b9050806001600160a01b031663fe243a17898985815181106120a6576120a66157a6565b60200260200101516040518363ffffffff1660e01b81526004016120e09291906001600160a01b0392831681529116602082015260400190565b602060405180830381865afa1580156120fb573d5f5f3e3d5ffd5b505050506040513d601f19601f8201168201806040525081019061211f91906159c4565b858381518110612131576121316157a6565b6020026020010181815250505f60a25f8a6001600160a01b03166001600160a01b031681526020019081526020015f205f898581518110612174576121746157a6565b60200260200101516001600160a01b03166001600160a01b031681526020019081526020015f206040518060200160405290815f8201548152505090506121f88684815181106121c6576121c66157a6565b60200260200101518585815181106121e0576121e06157a6565b6020026020010151836139eb9092919063ffffffff16565b87848151811061220a5761220a6157a6565b60209081029190910101525050600101612056565b5050505b9250929050565b5f54610100900460ff161580801561224857505f54600160ff909116105b806122615750303b15801561226157505f5460ff166001145b6122c95760405162461bcd60e51b815260206004820152602e60248201527f496e697469616c697a61626c653a20636f6e747261637420697320616c72656160448201526d191e481a5b9a5d1a585b1a5e995960921b60648201526084015b60405180910390fd5b5f805460ff1916600117905580156122ea575f805461ff0019166101001790555b6122f38261306d565b6122fc83613b96565b8015610f9e575f805461ff0019169055604051600181527f7f26b83ff96e1f2b6a682f133852f6798a09c465da95921460cefb38474024989060200160405180910390a1505050565b606061235082610f28565b61236d5760405163a5c7c44560e01b815260040160405180910390fd5b61237682611b61565b15612394576040516311ca333560e31b815260040160405180910390fd5b6001600160a01b0382166123bb576040516339b190bb60e11b815260040160405180910390fd5b6001600160a01b038083165f818152609a6020526040902054909116903314806123e957506123e98161342f565b8061240f57506001600160a01b038181165f908152609960205260409020600101541633145b61242c57604051631e499a2360e11b815260040160405180910390fd5b336001600160a01b0384161461247d57806001600160a01b0316836001600160a01b03167ff0eddf07e6ea14f388b47e1e94a0f464ecbd9eed4171130e0fc0e99fb4030a8a60405160405180910390a35b611f5a83613be7565b6066546002906004908116036124af5760405163840a48d560e01b815260040160405180910390fd5b6124b76134f0565b6124cb6124c386615ac8565b85858561355d565b6124d5600160c955565b5050505050565b336001600160a01b037f00000000000000000000000000000000000000000000000000000000000000001614612525576040516323d871a560e01b815260040160405180910390fd5b6001600160a01b038085165f908152609860209081526040808320938716835292905290812054612563906001600160401b03808616908516613f9c565b90505f61257286868686613a8b565b61257c90836159ef565b905061258a865f8785613a11565b6001600160a01b03851673beac0eeeeeeeeeeeeeeeeeeeeeeeeeeeeeebeac0146116c457604051633b9e9f0160e21b81526001600160a01b038681166004830152602482018390527f0000000000000000000000000000000000000000000000000000000000000000169063ee7a7c04906044015f604051808303815f87803b158015612615575f5ffd5b505af1158015612627573d5f5f3e3d5ffd5b5050604080516001600160a01b038981168252602082018690528a1693507feff6aab2bc3f7c648896e1522eae71d6c22e3b0e218206b3f40af0e4d204716b92500160405180910390a2505050505050565b61268233610f28565b156126a057604051633bf2b50360e11b815260040160405180910390fd5b6126a983611b61565b6126c6576040516325ec6c1f60e01b815260040160405180910390fd5b6126d233848484613e46565b610f9e338461310c565b60605f83516001600160401b038111156126f8576126f8614e82565b60405190808252806020026020018201604052801561272b57816020015b60608152602001906001900390816127165790505b5090505f5b8451811015611e065761275c85828151811061274e5761274e6157a6565b602002602001015185611d38565b82828151811061276e5761276e6157a6565b6020908102919091010152600101612730565b612789613b3c565b6001600160a01b0381166127ee5760405162461bcd60e51b815260206004820152602660248201527f4f776e61626c653a206e6577206f776e657220697320746865207a65726f206160448201526564647265737360d01b60648201526084016122c0565b6127f781613b96565b50565b5f612803613fb4565b905090565b7f00000000000000000000000000000000000000000000000000000000000000006001600160a01b031663eab66d7a6040518163ffffffff1660e01b8152600401602060405180830381865afa158015612864573d5f5f3e3d5ffd5b505050506040513d601f19601f820116820180604052508101906128889190615ad3565b6001600160a01b0316336001600160a01b0316146128b95760405163794821ff60e01b815260040160405180910390fd5b606654801982198116146128e05760405163c61dca5d60e01b815260040160405180910390fd5b606682905560405182815233907f3582d1828e26bf56bd801502bc021ac0bc8afb57c826e4986b45593c8fad389c906020015b60405180910390a25050565b5f612928613fb4565b60405161190160f01b6020820152602281019190915260428101839052606201611064565b60605f82516001600160401b0381111561296957612969614e82565b604051908082528060200260200182016040528015612992578160200160208202803683370190505b5090505f7f00000000000000000000000000000000000000000000000000000000000000006001600160a01b031663547afb8786866040518363ffffffff1660e01b81526004016129e4929190615a02565b5f60405180830381865afa1580156129fe573d5f5f3e3d5ffd5b505050506040513d5f823e601f3d908101601f19168201604052612a259190810190615a25565b90505f5b8451811015610bbf57612a6f87868381518110612a4857612a486157a6565b6020026020010151848481518110612a6257612a626157a6565b602002602001015161320f565b838281518110612a8157612a816157a6565b6020908102919091010152600101612a29565b5f6001600160a01b038616612abc576040516339b190bb60e11b815260040160405180910390fd5b83515f03612add5760405163796cc52560e01b815260040160405180910390fd5b5f84516001600160401b03811115612af757612af7614e82565b604051908082528060200260200182016040528015612b20578160200160208202803683370190505b5090505f85516001600160401b03811115612b3d57612b3d614e82565b604051908082528060200260200182016040528015612b66578160200160208202803683370190505b5090505f5b8651811015612ea0575f612b8a888381518110612075576120756157a6565b90505f60a25f8c6001600160a01b03166001600160a01b031681526020019081526020015f205f8a8581518110612bc357612bc36157a6565b60200260200101516001600160a01b03166001600160a01b031681526020019081526020015f206040518060200160405290815f820154815250509050816001600160a01b031663fe243a178c8b8681518110612c2257612c226157a6565b60200260200101516040518363ffffffff1660e01b8152600401612c5c9291906001600160a01b0392831681529116602082015260400190565b602060405180830381865afa158015612c77573d5f5f3e3d5ffd5b505050506040513d601f19601f82011682018060405250810190612c9b91906159c4565b888481518110612cad57612cad6157a6565b60200260200101511115612cd45760405163f020e5b960e01b815260040160405180910390fd5b612d03888481518110612ce957612ce96157a6565b60200260200101518885815181106121e0576121e06157a6565b848481518110612d1557612d156157a6565b602002602001018181525050612d5d848481518110612d3657612d366157a6565b6020026020010151888581518110612d5057612d506157a6565b6020026020010151614099565b858481518110612d6f57612d6f6157a6565b60209081029190910101526001600160a01b038a1615612e0457612dc68a8a8581518110612d9f57612d9f6157a6565b6020026020010151878681518110612db957612db96157a6565b60200260200101516140b2565b612e048a8c8b8681518110612ddd57612ddd6157a6565b6020026020010151878781518110612df757612df76157a6565b6020026020010151613a11565b816001600160a01b031663724af4238c8b8681518110612e2657612e266157a6565b60200260200101518b8781518110612e4057612e406157a6565b60200260200101516040518463ffffffff1660e01b8152600401612e6693929190615aee565b5f604051808303815f87803b158015612e7d575f5ffd5b505af1158015612e8f573d5f5f3e3d5ffd5b505050505050806001019050612b6b565b506001600160a01b0388165f908152609f60205260408120805491829190612ec783615b12565b91905055505f6040518060e001604052808b6001600160a01b031681526020018a6001600160a01b031681526020018b6001600160a01b031681526020018381526020014363ffffffff1681526020018981526020018581525090505f612f2d82611052565b5f818152609e602090815260408083208054600160ff19909116811790915560a4835292819020865181546001600160a01b03199081166001600160a01b039283161783558885015195830180548216968316969096179095559187015160028201805490951692169190911790925560608501516003830155608085015160048301805463ffffffff191663ffffffff90921691909117905560a085015180519394508593612fe39260058501920190614b31565b5060c08201518051612fff916006840191602090910190614b94565b5050506001600160a01b038b165f90815260a3602052604090206130239082614140565b507f26b2aae26516e8719ef50ea2f6831a2efbd4e37dccdf0f6936b27bc08e793e3081838660405161305793929190615b2a565b60405180910390a19a9950505050505050505050565b606681905560405181815233907fab40a374bc51de372200a8bc981af8c9ecdc08dfdaef0bb6e09f88f3c616ef3d9060200160405180910390a250565b6001600160a01b038281165f8181526099602090815260409182902060010180546001600160a01b0319169486169485179055905192835290917f773b54c04d756fcc5e678111f7d730de3be98192000799eee3d63716055a87c69101612913565b6066545f906001908116036131345760405163840a48d560e01b815260040160405180910390fd5b6001600160a01b038381165f818152609a602052604080822080546001600160a01b0319169487169485179055517fc3ee9f2e5fda98e8066a1f745b2df9285f416fe98cf2559cd21484b3d87433049190a35f5f61319185611861565b915091505f6131a186868561294d565b90505f5b8351811015610f1f5761320786888684815181106131c5576131c56157a6565b60200260200101515f8786815181106131e0576131e06157a6565b60200260200101518787815181106131fa576131fa6157a6565b60200260200101516132f1565b6001016131a5565b5f73beac0eeeeeeeeeeeeeeeeeeeeeeeeeeeeeebeabf196001600160a01b038416016132e15760405163a3d75e0960e01b81526001600160a01b0385811660048301525f917f00000000000000000000000000000000000000000000000000000000000000009091169063a3d75e0990602401602060405180830381865afa15801561329d573d5f5f3e3d5ffd5b505050506040513d601f19601f820116820180604052508101906132c19190615866565b90506132d96001600160401b038481169083166139d7565b915050611f5a565b506001600160401b031692915050565b805f0361331157604051630a33bc6960e21b815260040160405180910390fd5b6001600160a01b038086165f90815260a2602090815260408083209388168352929052206133418185858561414b565b6040805160208101909152815481527f8be932bac54561f27260f95463d9b8ab37e06b2842e5ee2404157cc13df6eb8f908790879061337f90613f0b565b60405161338e93929190615aee565b60405180910390a161339f86610f28565b15610f1f576001600160a01b038088165f908152609860209081526040808320938916835292905290812080548592906133da9084906159ef565b92505081905550866001600160a01b03167f1ec042c965e2edd7107b51188ee0f383e22e76179041ab3a9d18ff151405166c87878660405161341e93929190615aee565b60405180910390a250505050505050565b604051631beb2b9760e31b81526001600160a01b0382811660048301523360248301523060448301525f80356001600160e01b0319166064840152917f00000000000000000000000000000000000000000000000000000000000000009091169063df595cb8906084016020604051808303815f875af11580156134b5573d5f5f3e3d5ffd5b505050506040513d601f19601f82011682018060405250810190611b93919061581d565b60605f611f5a836141c0565b5f611f5a83836139d7565b600260c954036135425760405162461bcd60e51b815260206004820152601f60248201527f5265656e7472616e637947756172643a207265656e7472616e742063616c6c0060448201526064016122c0565b600260c955565b5f611b93825490565b5f611f5a8383614219565b60a0840151518214613582576040516343714afd60e01b815260040160405180910390fd5b83604001516001600160a01b0316336001600160a01b0316146135b8576040516316110d3560e21b815260040160405180910390fd5b5f6135c285611052565b5f818152609e602052604090205490915060ff166135f3576040516387c9d21960e01b815260040160405180910390fd5b60605f7f000000000000000000000000000000000000000000000000000000000000000087608001516136269190615b54565b90504363ffffffff168163ffffffff161115613655576040516378f67ae160e11b815260040160405180910390fd5b61366c875f015188602001518960a001518461423f565b87516001600160a01b039081165f908152609a60205260408120548a5160a08c015194965092169350916136a29190849061294d565b90505f5b8860a00151518110156138f5575f6136cd8a60a001518381518110612075576120756157a6565b90505f6137038b60c0015184815181106136e9576136e96157a6565b60200260200101518785815181106113da576113da6157a6565b905087156137d357816001600160a01b0316632eae418c8c5f01518d60a001518681518110613734576137346157a6565b60200260200101518d8d8881811061374e5761374e6157a6565b90506020020160208101906137639190614e30565b60405160e085901b6001600160e01b03191681526001600160a01b03938416600482015291831660248301529091166044820152606481018490526084015f604051808303815f87803b1580156137b8575f5ffd5b505af11580156137ca573d5f5f3e3d5ffd5b505050506138eb565b5f5f836001600160a01b031663c4623ea18e5f01518f60a0015188815181106137fe576137fe6157a6565b60200260200101518f8f8a818110613818576138186157a6565b905060200201602081019061382d9190614e30565b60405160e085901b6001600160e01b03191681526001600160a01b039384166004820152918316602483015290911660448201526064810186905260840160408051808303815f875af1158015613886573d5f5f3e3d5ffd5b505050506040513d601f19601f820116820180604052508101906138aa9190615b70565b915091506138e8878e5f01518f60a0015188815181106138cc576138cc6157a6565b602002602001015185858b8b815181106131fa576131fa6157a6565b50505b50506001016136a6565b5087516001600160a01b03165f90815260a360205260409020613918908561436d565b505f84815260a46020526040812080546001600160a01b031990811682556001820180548216905560028201805490911690556003810182905560048101805463ffffffff191690559061396f6005830182614bcd565b61397c600683015f614bcd565b50505f848152609e602052604090819020805460ff19169055517f1f40400889274ed07b24845e5054a87a0cab969eb1277aafe61ae352e7c32a00906139c59086815260200190565b60405180910390a15050505050505050565b5f611f5a8383670de0b6b3a7640000614378565b5f613a0982613a036139fc87613f0b565b86906139d7565b906139d7565b949350505050565b6001600160a01b038085165f90815260986020908152604080832093861683529290529081208054839290613a47908490615b92565b92505081905550836001600160a01b03167f6909600037b75d7b4733aedd815442b5ec018a827751c832aaff64eba5d6d2dd848484604051610dd393929190615aee565b6001600160a01b038085165f90815260a56020908152604080832093871683529290529081208190613abc9061445d565b90505f613b16613aec7f000000000000000000000000000000000000000000000000000000000000000043615ba5565b6001600160a01b03808a165f90815260a560209081526040808320938c1683529290522090614477565b90505f613b238284615b92565b9050613b30818787614493565b98975050505050505050565b6033546001600160a01b031633146110505760405162461bcd60e51b815260206004820181905260248201527f4f776e61626c653a2063616c6c6572206973206e6f7420746865206f776e657260448201526064016122c0565b603380546001600160a01b038381166001600160a01b0319831681179093556040519116919082907f8be0079c531659141344cd1fd0a4f28419497f9722a3daafe3b4186f6b6457e0905f90a35050565b606654606090600190600290811603613c135760405163840a48d560e01b815260040160405180910390fd5b6001600160a01b038084165f818152609a602052604080822080546001600160a01b0319811690915590519316928392917ffee30966a256b71e14bc0ebfc94315e28ef4a97a7131a9e2b7a310a73af4467691a35f5f613c7286611861565b9150915081515f03613c8657505050613e40565b81516001600160401b03811115613c9f57613c9f614e82565b604051908082528060200260200182016040528015613cc8578160200160208202803683370190505b5094505f613cd787858561294d565b90505f5b8351811015613e3a576040805160018082528183019092525f916020808301908036833750506040805160018082528183019092529293505f9291506020808301908036833750506040805160018082528183019092529293505f92915060208083019080368337019050509050868481518110613d5b57613d5b6157a6565b6020026020010151835f81518110613d7557613d756157a6565b60200260200101906001600160a01b031690816001600160a01b031681525050858481518110613da757613da76157a6565b6020026020010151825f81518110613dc157613dc16157a6565b602002602001018181525050848481518110613ddf57613ddf6157a6565b6020026020010151815f81518110613df957613df96157a6565b602002602001018181525050613e128b89858585612a94565b8a8581518110613e2457613e246157a6565b6020908102919091010152505050600101613cdb565b50505050505b50919050565b6001600160a01b038084165f908152609960205260409020600101541680613e6e5750613f05565b6001600160a01b0381165f908152609c6020908152604080832085845290915290205460ff1615613eb257604051630d4c4c9160e21b815260040160405180910390fd5b6001600160a01b0381165f908152609c602090815260408083208584528252909120805460ff191660011790558301516124d5908290613ef9908890889084908890610860565b855160208701516144b1565b50505050565b80515f9015613f1b578151611b93565b670de0b6b3a764000092915050565b5f6001600160a01b03821673beac0eeeeeeeeeeeeeeeeeeeeeeeeeeeeeebeac014613f75577f0000000000000000000000000000000000000000000000000000000000000000611b93565b7f000000000000000000000000000000000000000000000000000000000000000092915050565b5f613faa8483856001614503565b613a099085615b92565b5f7f000000000000000000000000000000000000000000000000000000000000000046146140745750604080518082018252600a81526922b4b3b2b72630bcb2b960b11b60209182015281517f8cad95687ba82c2ce50e74f7b754645e5117c3a5bec8151c0726d5857980a866818301527f71b625cfad44bac63b13dba07f2e1d6084ee04b6f8752101ece6126d584ee6ea81840152466060820152306080808301919091528351808303909101815260a0909101909252815191012090565b507f000000000000000000000000000000000000000000000000000000000000000090565b5f815f036140a857505f611b93565b611f5a8383614552565b6001600160a01b03821673beac0eeeeeeeeeeeeeeeeeeeeeeeeeeeeeebeac014610f9e576001600160a01b038084165f90815260a56020908152604080832093861683529290529081206141059061445d565b9050613f054361411584846159ef565b6001600160a01b038088165f90815260a560209081526040808320938a168352929052209190614566565b5f611f5a8383614571565b825f0361416b57614164670de0b6b3a764000082614552565b8455613f05565b6040805160208101909152845481525f906141879085846139eb565b90505f61419484836159ef565b90505f6141b5846141af6141a8888a6159ef565b8590614552565b90614552565b875550505050505050565b6060815f0180548060200260200160405190810160405280929190818152602001828054801561420d57602002820191905f5260205f20905b8154815260200190600101908083116141f9575b50505050509050919050565b5f825f01828154811061422e5761422e6157a6565b905f5260205f200154905092915050565b60605f83516001600160401b0381111561425b5761425b614e82565b604051908082528060200260200182016040528015614284578160200160208202803683370190505b5090505f7f00000000000000000000000000000000000000000000000000000000000000006001600160a01b03166394d7d00c8787876040518463ffffffff1660e01b81526004016142d893929190615bc1565b5f60405180830381865afa1580156142f2573d5f5f3e3d5ffd5b505050506040513d5f823e601f3d908101601f191682016040526143199190810190615a25565b90505f5b85518110156143615761433c88878381518110612a4857612a486157a6565b83828151811061434e5761434e6157a6565b602090810291909101015260010161431d565b50909695505050505050565b5f611f5a83836145bd565b5f80805f19858709858702925082811083820303915050805f036143af578382816143a5576143a5615bfa565b0492505050611f5a565b8084116143f65760405162461bcd60e51b81526020600482015260156024820152744d6174683a206d756c446976206f766572666c6f7760581b60448201526064016122c0565b5f8486880960026001871981018816978890046003810283188082028403028082028403028082028403028082028403028082028403029081029092039091025f889003889004909101858311909403939093029303949094049190911702949350505050565b5f61446882826146a0565b6001600160e01b031692915050565b5f6144838383836146e5565b6001600160e01b03169392505050565b5f613a096144a18385615c0e565b85906001600160401b03166139d7565b428110156144d257604051630819bdcd60e01b815260040160405180910390fd5b6144e66001600160a01b038516848461472e565b613f0557604051638baa579f60e01b815260040160405180910390fd5b5f5f614510868686614378565b9050600183600281111561452657614526615c2d565b14801561454257505f848061453d5761453d615bfa565b868809115b15611c96576108de6001826159ef565b5f611f5a83670de0b6b3a764000084614378565b610f9e838383614782565b5f8181526001830160205260408120546145b657508154600181810184555f848152602080822090930184905584548482528286019093526040902091909155611b93565b505f611b93565b5f8181526001830160205260408120548015614697575f6145df600183615b92565b85549091505f906145f290600190615b92565b9050818114614651575f865f018281548110614610576146106157a6565b905f5260205f200154905080875f018481548110614630576146306157a6565b5f918252602080832090910192909255918252600188019052604090208390555b855486908061466257614662615c41565b600190038181905f5260205f20015f90559055856001015f8681526020019081526020015f205f905560019350505050611b93565b5f915050611b93565b81545f9080156146dd576146c6846146b9600184615b92565b5f91825260209091200190565b5464010000000090046001600160e01b0316613a09565b509092915050565b82545f90816146f686868385614888565b905080156147245761470d866146b9600184615b92565b5464010000000090046001600160e01b03166108de565b5091949350505050565b5f5f5f61473b85856148db565b90925090505f81600481111561475357614753615c2d565b1480156147715750856001600160a01b0316826001600160a01b0316145b806108de57506108de86868661491a565b8254801561483a575f61479a856146b9600185615b92565b60408051808201909152905463ffffffff8082168084526401000000009092046001600160e01b0316602084015291925090851610156147ed5760405163151b8e3f60e11b815260040160405180910390fd5b805163ffffffff808616911603614838578261480e866146b9600186615b92565b80546001600160e01b03929092166401000000000263ffffffff9092169190911790555050505050565b505b506040805180820190915263ffffffff92831681526001600160e01b03918216602080830191825285546001810187555f968752952091519051909216640100000000029190921617910155565b5f5b81831015611e06575f61489d8484614a01565b5f8781526020902090915063ffffffff86169082015463ffffffff1611156148c7578092506148d5565b6148d28160016159ef565b93505b5061488a565b5f5f825160410361490f576020830151604084015160608501515f1a61490387828585614a1b565b94509450505050612223565b505f90506002612223565b5f5f5f856001600160a01b0316631626ba7e60e01b8686604051602401614942929190615c55565b60408051601f198184030181529181526020820180516001600160e01b03166001600160e01b03199094169390931790925290516149809190615c91565b5f60405180830381855afa9150503d805f81146149b8576040519150601f19603f3d011682016040523d82523d5f602084013e6149bd565b606091505b50915091508180156149d157506020815110155b80156108de57508051630b135d3f60e11b906149f690830160209081019084016159c4565b149695505050505050565b5f614a0f6002848418615ca7565b611f5a908484166159ef565b5f807f7fffffffffffffffffffffffffffffff5d576e7357a4501ddfe92f46681b20a0831115614a5057505f90506003614acf565b604080515f8082526020820180845289905260ff881692820192909252606081018690526080810185905260019060a0016020604051602081039080840390855afa158015614aa1573d5f5f3e3d5ffd5b5050604051601f1901519150506001600160a01b038116614ac9575f60019250925050614acf565b91505f90505b94509492505050565b6040518060e001604052805f6001600160a01b031681526020015f6001600160a01b031681526020015f6001600160a01b031681526020015f81526020015f63ffffffff16815260200160608152602001606081525090565b828054828255905f5260205f20908101928215614b84579160200282015b82811115614b8457825182546001600160a01b0319166001600160a01b03909116178255602090920191600190910190614b4f565b50614b90929150614be4565b5090565b828054828255905f5260205f20908101928215614b84579160200282015b82811115614b84578251825591602001919060010190614bb2565b5080545f8255905f5260205f20908101906127f791905b5b80821115614b90575f8155600101614be5565b6001600160a01b03811681146127f7575f5ffd5b8035614c1781614bf8565b919050565b5f5f5f5f5f60a08688031215614c30575f5ffd5b8535614c3b81614bf8565b94506020860135614c4b81614bf8565b93506040860135614c5b81614bf8565b94979396509394606081013594506080013592915050565b5f5f83601f840112614c83575f5ffd5b5081356001600160401b03811115614c99575f5ffd5b6020830191508360208260051b8501011115612223575f5ffd5b5f5f60208385031215614cc4575f5ffd5b82356001600160401b03811115614cd9575f5ffd5b614ce585828601614c73565b90969095509350505050565b602080825282518282018190525f918401906040840190835b81811015610bbf578351835260209384019390920191600101614d0a565b5f60208284031215614d38575f5ffd5b5035919050565b803563ffffffff81168114614c17575f5ffd5b5f5f83601f840112614d62575f5ffd5b5081356001600160401b03811115614d78575f5ffd5b602083019150836020828501011115612223575f5ffd5b5f5f5f5f60608587031215614da2575f5ffd5b8435614dad81614bf8565b9350614dbb60208601614d3f565b925060408501356001600160401b03811115614dd5575f5ffd5b614de187828801614d52565b95989497509550505050565b5f5f5f5f60808587031215614e00575f5ffd5b8435614e0b81614bf8565b93506020850135614e1b81614bf8565b93969395505050506040820135916060013590565b5f60208284031215614e40575f5ffd5b8135611f5a81614bf8565b5f5f60408385031215614e5c575f5ffd5b8235614e6781614bf8565b91506020830135614e7781614bf8565b809150509250929050565b634e487b7160e01b5f52604160045260245ffd5b60405160e081016001600160401b0381118282101715614eb857614eb8614e82565b60405290565b604080519081016001600160401b0381118282101715614eb857614eb8614e82565b604051601f8201601f191681016001600160401b0381118282101715614f0857614f08614e82565b604052919050565b5f6001600160401b03821115614f2857614f28614e82565b5060051b60200190565b5f82601f830112614f41575f5ffd5b8135614f54614f4f82614f10565b614ee0565b8082825260208201915060208360051b860101925085831115614f75575f5ffd5b602085015b83811015614f9b578035614f8d81614bf8565b835260209283019201614f7a565b5095945050505050565b5f82601f830112614fb4575f5ffd5b8135614fc2614f4f82614f10565b8082825260208201915060208360051b860101925085831115614fe3575f5ffd5b602085015b83811015614f9b578035835260209283019201614fe8565b5f60e08284031215615010575f5ffd5b615018614e96565b905061502382614c0c565b815261503160208301614c0c565b602082015261504260408301614c0c565b60408201526060828101359082015261505d60808301614d3f565b608082015260a08201356001600160401b0381111561507a575f5ffd5b61508684828501614f32565b60a08301525060c08201356001600160401b038111156150a4575f5ffd5b6150b084828501614fa5565b60c08301525092915050565b5f602082840312156150cc575f5ffd5b81356001600160401b038111156150e1575f5ffd5b613a0984828501615000565b5f602082840312156150fd575f5ffd5b813560ff81168114611f5a575f5ffd5b5f8151808452602084019350602083015f5b828110156151465781516001600160a01b031686526020958601959091019060010161511f565b5093949350505050565b5f8151808452602084019350602083015f5b82811015615146578151865260209586019590910190600101615162565b80516001600160a01b03908116835260208083015182169084015260408083015190911690830152606080820151908301526080808201515f916151cb9085018263ffffffff169052565b5060a082015160e060a08501526151e560e085018261510d565b905060c083015184820360c0860152611c968282615150565b5f82825180855260208501945060208160051b830101602085015f5b8381101561436157601f19858403018852615236838351615150565b602098890198909350919091019060010161521a565b5f604082016040835280855180835260608501915060608160051b8601019250602087015f5b828110156152a357605f1987860301845261528e858351615180565b94506020938401939190910190600101615272565b505050508281036020840152611c9681856151fe565b5f5f5f5f5f606086880312156152cd575f5ffd5b85356001600160401b038111156152e2575f5ffd5b6152ee88828901614c73565b90965094505060208601356001600160401b0381111561530c575f5ffd5b61531888828901614c73565b96999598509660400135949350505050565b6001600160401b03811681146127f7575f5ffd5b5f5f5f60608486031215615350575f5ffd5b833561535b81614bf8565b92506020840135915060408401356153728161532a565b809150509250925092565b604081525f61538f604083018561510d565b8281036020840152611c968185615150565b5f5f5f604084860312156153b3575f5ffd5b83356153be81614bf8565b925060208401356001600160401b038111156153d8575f5ffd5b6153e486828701614d52565b9497909650939450505050565b5f5f60408385031215615402575f5ffd5b823561540d81614bf8565b915060208301356001600160401b03811115615427575f5ffd5b61543385828601614f32565b9150509250929050565b602081525f611f5a6020830184615150565b5f5f5f5f5f5f60608789031215615464575f5ffd5b86356001600160401b03811115615479575f5ffd5b61548589828a01614c73565b90975095505060208701356001600160401b038111156154a3575f5ffd5b6154af89828a01614c73565b90955093505060408701356001600160401b038111156154cd575f5ffd5b6154d989828a01614c73565b979a9699509497509295939492505050565b5f5f5f606084860312156154fd575f5ffd5b833561550881614bf8565b925060208401356001600160401b03811115615522575f5ffd5b840160408187031215615533575f5ffd5b61553b614ebe565b81356001600160401b03811115615550575f5ffd5b8201601f81018813615560575f5ffd5b80356001600160401b0381111561557957615579614e82565b61558c601f8201601f1916602001614ee0565b8181528960208385010111156155a0575f5ffd5b816020840160208301375f60209282018301528352928301359282019290925293969395505050506040919091013590565b5f5f604083850312156155e3575f5ffd5b82356155ee81614bf8565b946020939093013593505050565b604081525f61538f6040830185615150565b80151581146127f7575f5ffd5b5f5f5f5f6060858703121561562e575f5ffd5b84356001600160401b03811115615643575f5ffd5b850160e08188031215615654575f5ffd5b935060208501356001600160401b0381111561566e575f5ffd5b61567a87828801614c73565b909450925050604085013561568e8161560e565b939692955090935050565b5f5f5f5f608085870312156156ac575f5ffd5b84356156b781614bf8565b935060208501356156c781614bf8565b925060408501356156d78161532a565b9150606085013561568e8161532a565b5f5f604083850312156156f8575f5ffd5b82356001600160401b0381111561570d575f5ffd5b8301601f8101851361571d575f5ffd5b803561572b614f4f82614f10565b8082825260208201915060208360051b85010192508783111561574c575f5ffd5b6020840193505b8284101561577757833561576681614bf8565b825260209384019390910190615753565b945050505060208301356001600160401b03811115615427575f5ffd5b602081525f611f5a60208301846151fe565b634e487b7160e01b5f52603260045260245ffd5b5f8235605e198336030181126157ce575f5ffd5b9190910192915050565b5f5f8335601e198436030181126157ed575f5ffd5b8301803591506001600160401b03821115615806575f5ffd5b6020019150600581901b3603821315612223575f5ffd5b5f6020828403121561582d575f5ffd5b8151611f5a8161560e565b60208152816020820152818360408301375f818301604090810191909152601f909201601f19160101919050565b5f60208284031215615876575f5ffd5b8151611f5a8161532a565b602081525f611f5a6020830184615180565b5f602082840312156158a3575f5ffd5b8135611f5a8161560e565b5f82601f8301126158bd575f5ffd5b81516158cb614f4f82614f10565b8082825260208201915060208360051b8601019250858311156158ec575f5ffd5b602085015b83811015614f9b5780518352602092830192016158f1565b5f5f6040838503121561591a575f5ffd5b82516001600160401b0381111561592f575f5ffd5b8301601f8101851361593f575f5ffd5b805161594d614f4f82614f10565b8082825260208201915060208360051b85010192508783111561596e575f5ffd5b6020840193505b8284101561599957835161598881614bf8565b825260209384019390910190615975565b8095505050505060208301516001600160401b038111156159b8575f5ffd5b615433858286016158ae565b5f602082840312156159d4575f5ffd5b5051919050565b634e487b7160e01b5f52601160045260245ffd5b80820180821115611b9357611b936159db565b6001600160a01b03831681526040602082018190525f90613a099083018461510d565b5f60208284031215615a35575f5ffd5b81516001600160401b03811115615a4a575f5ffd5b8201601f81018413615a5a575f5ffd5b8051615a68614f4f82614f10565b8082825260208201915060208360051b850101925086831115615a89575f5ffd5b6020840193505b828410156108de578351615aa38161532a565b825260209384019390910190615a90565b5f823560de198336030181126157ce575f5ffd5b5f611b933683615000565b5f60208284031215615ae3575f5ffd5b8151611f5a81614bf8565b6001600160a01b039384168152919092166020820152604081019190915260600190565b5f60018201615b2357615b236159db565b5060010190565b838152606060208201525f615b426060830185615180565b82810360408401526108de8185615150565b63ffffffff8181168382160190811115611b9357611b936159db565b5f5f60408385031215615b81575f5ffd5b505080516020909101519092909150565b81810381811115611b9357611b936159db565b63ffffffff8281168282160390811115611b9357611b936159db565b6001600160a01b03841681526060602082018190525f90615be49083018561510d565b905063ffffffff83166040830152949350505050565b634e487b7160e01b5f52601260045260245ffd5b6001600160401b038281168282160390811115611b9357611b936159db565b634e487b7160e01b5f52602160045260245ffd5b634e487b7160e01b5f52603160045260245ffd5b828152604060208201525f82518060408401528060208501606085015e5f606082850101526060601f19601f8301168401019150509392505050565b5f82518060208501845e5f920191825250919050565b5f82615cc157634e487b7160e01b5f52601260045260245ffd5b50049056fea2646970667358221220b302bc35114e1921cf8bb16bbe96de3516e750fa9b91287e8e3ac447f0d9fea764736f6c634300081b0033",
    "linkReferences": {}
  },
  "methodIdentifiers": {
    "DELEGATION_APPROVAL_TYPEHASH()": "04a4f979",
    "allocationManager()": "ca8aa7c7",
    "beaconChainETHStrategy()": "9104c319",
    "burnOperatorShares(address,address,uint64,uint64)": "ee74937f",
    "calculateDelegationApprovalDigestHash(address,address,address,bytes32,uint256)": "0b9f487a",
    "calculateWithdrawalRoot((address,address,address,uint256,uint32,address[],uint256[]))": "597b36da",
    "completeQueuedWithdrawal((address,address,address,uint256,uint32,address[],uint256[]),address[],bool)": "e4cc3f90",
    "completeQueuedWithdrawals((address,address,address,uint256,uint32,address[],uint256[])[],address[][],bool[])": "9435bb43",
    "completeQueuedWithdrawals(address[][],bool[],uint256)": "5f48e667",
    "cumulativeWithdrawalsQueued(address)": "a1788484",
    "decreaseDelegatedShares(address,uint256,uint64)": "60a0d1ce",
    "delegateTo(address,(bytes,uint256),bytes32)": "eea9064b",
    "delegatedTo(address)": "65da1264",
    "delegationApprover(address)": "3cdeb5e0",
    "delegationApproverSaltIsSpent(address,bytes32)": "bb45fef2",
    "depositScalingFactor(address,address)": "bfae3fd2",
    "domainSeparator()": "f698da25",
    "eigenPodManager()": "4665bcda",
    "getDepositedShares(address)": "66d5ba93",
    "getOperatorShares(address,address[])": "90041347",
    "getOperatorsShares(address[],address[])": "f0e0e676",
    "getQueuedWithdrawals(address)": "5dd68579",
    "getSlashableSharesInQueue(address,address)": "6e174448",
    "getWithdrawableShares(address,address[])": "c978f7ac",
    "increaseDelegatedShares(address,address,uint256,uint256)": "3c651cf2",
    "initialize(address,uint256)": "cd6dc687",
    "isDelegated(address)": "3e28391d",
    "isOperator(address)": "6d70f7ae",
    "minWithdrawalDelayBlocks()": "c448feb8",
    "modifyOperatorDetails(address,address)": "54b7c96c",
    "operatorShares(address,address)": "778e55f3",
    "owner()": "8da5cb5b",
    "pause(uint256)": "136439dd",
    "pauseAll()": "595c6a67",
    "paused()": "5c975abb",
    "paused(uint8)": "5ac86ab7",
    "pauserRegistry()": "886f1195",
    "pendingWithdrawals(bytes32)": "b7f06ebe",
    "permissionController()": "4657e26a",
    "queueWithdrawals((address[],uint256[],address)[])": "0dd8dd02",
    "queuedWithdrawals(bytes32)": "99f5371b",
    "redelegate(address,(bytes,uint256),bytes32)": "a33a3433",
    "registerAsOperator(address,uint32,string)": "2aa6d888",
    "renounceOwnership()": "715018a6",
    "strategyManager()": "39b70e38",
    "transferOwnership(address)": "f2fde38b",
    "undelegate(address)": "da8be864",
    "unpause(uint256)": "fabc1cbc",
    "updateOperatorMetadataURI(address,string)": "78296ec5"
  },
  "id": 121
}