{
  "abi": [
    {
      "type": "constructor",
      "inputs": [
        {
          "name": "_ethPOS",
          "type": "address",
          "internalType": "contract IETHPOSDeposit"
        },
        {
          "name": "_eigenPodBeacon",
          "type": "address",
          "internalType": "contract IBeacon"
        },
        {
          "name": "_delegationManager",
          "type": "address",
          "internalType": "contract IDelegationManager"
        },
        {
          "name": "_pauserRegistry",
          "type": "address",
          "internalType": "contract IPauserRegistry"
        }
      ],
      "stateMutability": "nonpayable"
    },
    {
      "type": "function",
      "name": "addShares",
      "inputs": [
        {
          "name": "staker",
          "type": "address",
          "internalType": "address"
        },
        {
          "name": "strategy",
          "type": "address",
          "internalType": "contract IStrategy"
        },
        {
          "name": "",
          "type": "address",
          "internalType": "contract IERC20"
        },
        {
          "name": "shares",
          "type": "uint256",
          "internalType": "uint256"
        }
      ],
      "outputs": [
        {
          "name": "",
          "type": "uint256",
          "internalType": "uint256"
        },
        {
          "name": "",
          "type": "uint256",
          "internalType": "uint256"
        }
      ],
      "stateMutability": "nonpayable"
    },
    {
      "type": "function",
      "name": "beaconChainETHStrategy",
      "inputs": [],
      "outputs": [
        {
          "name": "",
          "type": "address",
          "internalType": "contract IStrategy"
        }
      ],
      "stateMutability": "view"
    },
    {
      "type": "function",
      "name": "beaconChainSlashingFactor",
      "inputs": [
        {
          "name": "podOwner",
          "type": "address",
          "internalType": "address"
        }
      ],
      "outputs": [
        {
          "name": "",
          "type": "uint64",
          "internalType": "uint64"
        }
      ],
      "stateMutability": "view"
    },
    {
      "type": "function",
      "name": "createPod",
      "inputs": [],
      "outputs": [
        {
          "name": "",
          "type": "address",
          "internalType": "address"
        }
      ],
      "stateMutability": "nonpayable"
    },
    {
      "type": "function",
      "name": "delegationManager",
      "inputs": [],
      "outputs": [
        {
          "name": "",
          "type": "address",
          "internalType": "contract IDelegationManager"
        }
      ],
      "stateMutability": "view"
    },
    {
      "type": "function",
      "name": "eigenPodBeacon",
      "inputs": [],
      "outputs": [
        {
          "name": "",
          "type": "address",
          "internalType": "contract IBeacon"
        }
      ],
      "stateMutability": "view"
    },
    {
      "type": "function",
      "name": "ethPOS",
      "inputs": [],
      "outputs": [
        {
          "name": "",
          "type": "address",
          "internalType": "contract IETHPOSDeposit"
        }
      ],
      "stateMutability": "view"
    },
    {
      "type": "function",
      "name": "getPod",
      "inputs": [
        {
          "name": "podOwner",
          "type": "address",
          "internalType": "address"
        }
      ],
      "outputs": [
        {
          "name": "",
          "type": "address",
          "internalType": "contract IEigenPod"
        }
      ],
      "stateMutability": "view"
    },
    {
      "type": "function",
      "name": "hasPod",
      "inputs": [
        {
          "name": "podOwner",
          "type": "address",
          "internalType": "address"
        }
      ],
      "outputs": [
        {
          "name": "",
          "type": "bool",
          "internalType": "bool"
        }
      ],
      "stateMutability": "view"
    },
    {
      "type": "function",
      "name": "initialize",
      "inputs": [
        {
          "name": "initialOwner",
          "type": "address",
          "internalType": "address"
        },
        {
          "name": "_initPausedStatus",
          "type": "uint256",
          "internalType": "uint256"
        }
      ],
      "outputs": [],
      "stateMutability": "nonpayable"
    },
    {
      "type": "function",
      "name": "numPods",
      "inputs": [],
      "outputs": [
        {
          "name": "",
          "type": "uint256",
          "internalType": "uint256"
        }
      ],
      "stateMutability": "view"
    },
    {
      "type": "function",
      "name": "owner",
      "inputs": [],
      "outputs": [
        {
          "name": "",
          "type": "address",
          "internalType": "address"
        }
      ],
      "stateMutability": "view"
    },
    {
      "type": "function",
      "name": "ownerToPod",
      "inputs": [
        {
          "name": "podOwner",
          "type": "address",
          "internalType": "address"
        }
      ],
      "outputs": [
        {
          "name": "",
          "type": "address",
          "internalType": "contract IEigenPod"
        }
      ],
      "stateMutability": "view"
    },
    {
      "type": "function",
      "name": "pause",
      "inputs": [
        {
          "name": "newPausedStatus",
          "type": "uint256",
          "internalType": "uint256"
        }
      ],
      "outputs": [],
      "stateMutability": "nonpayable"
    },
    {
      "type": "function",
      "name": "pauseAll",
      "inputs": [],
      "outputs": [],
      "stateMutability": "nonpayable"
    },
    {
      "type": "function",
      "name": "paused",
      "inputs": [
        {
          "name": "index",
          "type": "uint8",
          "internalType": "uint8"
        }
      ],
      "outputs": [
        {
          "name": "",
          "type": "bool",
          "internalType": "bool"
        }
      ],
      "stateMutability": "view"
    },
    {
      "type": "function",
      "name": "paused",
      "inputs": [],
      "outputs": [
        {
          "name": "",
          "type": "uint256",
          "internalType": "uint256"
        }
      ],
      "stateMutability": "view"
    },
    {
      "type": "function",
      "name": "pauserRegistry",
      "inputs": [],
      "outputs": [
        {
          "name": "",
          "type": "address",
          "internalType": "contract IPauserRegistry"
        }
      ],
      "stateMutability": "view"
    },
    {
      "type": "function",
      "name": "podOwnerDepositShares",
      "inputs": [
        {
          "name": "podOwner",
          "type": "address",
          "internalType": "address"
        }
      ],
      "outputs": [
        {
          "name": "shares",
          "type": "int256",
          "internalType": "int256"
        }
      ],
      "stateMutability": "view"
    },
    {
      "type": "function",
      "name": "recordBeaconChainETHBalanceUpdate",
      "inputs": [
        {
          "name": "podOwner",
          "type": "address",
          "internalType": "address"
        },
        {
          "name": "prevRestakedBalanceWei",
          "type": "uint256",
          "internalType": "uint256"
        },
        {
          "name": "balanceDeltaWei",
          "type": "int256",
          "internalType": "int256"
        }
      ],
      "outputs": [],
      "stateMutability": "nonpayable"
    },
    {
      "type": "function",
      "name": "removeDepositShares",
      "inputs": [
        {
          "name": "staker",
          "type": "address",
          "internalType": "address"
        },
        {
          "name": "strategy",
          "type": "address",
          "internalType": "contract IStrategy"
        },
        {
          "name": "depositSharesToRemove",
          "type": "uint256",
          "internalType": "uint256"
        }
      ],
      "outputs": [],
      "stateMutability": "nonpayable"
    },
    {
      "type": "function",
      "name": "renounceOwnership",
      "inputs": [],
      "outputs": [],
      "stateMutability": "nonpayable"
    },
    {
      "type": "function",
      "name": "stake",
      "inputs": [
        {
          "name": "pubkey",
          "type": "bytes",
          "internalType": "bytes"
        },
        {
          "name": "signature",
          "type": "bytes",
          "internalType": "bytes"
        },
        {
          "name": "depositDataRoot",
          "type": "bytes32",
          "internalType": "bytes32"
        }
      ],
      "outputs": [],
      "stateMutability": "payable"
    },
    {
      "type": "function",
      "name": "stakerDepositShares",
      "inputs": [
        {
          "name": "user",
          "type": "address",
          "internalType": "address"
        },
        {
          "name": "strategy",
          "type": "address",
          "internalType": "contract IStrategy"
        }
      ],
      "outputs": [
        {
          "name": "depositShares",
          "type": "uint256",
          "internalType": "uint256"
        }
      ],
      "stateMutability": "view"
    },
    {
      "type": "function",
      "name": "transferOwnership",
      "inputs": [
        {
          "name": "newOwner",
          "type": "address",
          "internalType": "address"
        }
      ],
      "outputs": [],
      "stateMutability": "nonpayable"
    },
    {
      "type": "function",
      "name": "unpause",
      "inputs": [
        {
          "name": "newPausedStatus",
          "type": "uint256",
          "internalType": "uint256"
        }
      ],
      "outputs": [],
      "stateMutability": "nonpayable"
    },
    {
      "type": "function",
      "name": "withdrawSharesAsTokens",
      "inputs": [
        {
          "name": "staker",
          "type": "address",
          "internalType": "address"
        },
        {
          "name": "strategy",
          "type": "address",
          "internalType": "contract IStrategy"
        },
        {
          "name": "",
          "type": "address",
          "internalType": "contract IERC20"
        },
        {
          "name": "shares",
          "type": "uint256",
          "internalType": "uint256"
        }
      ],
      "outputs": [],
      "stateMutability": "nonpayable"
    },
    {
      "type": "event",
      "name": "BeaconChainETHDeposited",
      "inputs": [
        {
          "name": "podOwner",
          "type": "address",
          "indexed": true,
          "internalType": "address"
        },
        {
          "name": "amount",
          "type": "uint256",
          "indexed": false,
          "internalType": "uint256"
        }
      ],
      "anonymous": false
    },
    {
      "type": "event",
      "name": "BeaconChainETHWithdrawalCompleted",
      "inputs": [
        {
          "name": "podOwner",
          "type": "address",
          "indexed": true,
          "internalType": "address"
        },
        {
          "name": "shares",
          "type": "uint256",
          "indexed": false,
          "internalType": "uint256"
        },
        {
          "name": "nonce",
          "type": "uint96",
          "indexed": false,
          "internalType": "uint96"
        },
        {
          "name": "delegatedAddress",
          "type": "address",
          "indexed": false,
          "internalType": "address"
        },
        {
          "name": "withdrawer",
          "type": "address",
          "indexed": false,
          "internalType": "address"
        },
        {
          "name": "withdrawalRoot",
          "type": "bytes32",
          "indexed": false,
          "internalType": "bytes32"
        }
      ],
      "anonymous": false
    },
    {
      "type": "event",
      "name": "BeaconChainSlashingFactorDecreased",
      "inputs": [
        {
          "name": "staker",
          "type": "address",
          "indexed": false,
          "internalType": "address"
        },
        {
          "name": "prevBeaconChainSlashingFactor",
          "type": "uint64",
          "indexed": false,
          "internalType": "uint64"
        },
        {
          "name": "newBeaconChainSlashingFactor",
          "type": "uint64",
          "indexed": false,
          "internalType": "uint64"
        }
      ],
      "anonymous": false
    },
    {
      "type": "event",
      "name": "Initialized",
      "inputs": [
        {
          "name": "version",
          "type": "uint8",
          "indexed": false,
          "internalType": "uint8"
        }
      ],
      "anonymous": false
    },
    {
      "type": "event",
      "name": "NewTotalShares",
      "inputs": [
        {
          "name": "podOwner",
          "type": "address",
          "indexed": true,
          "internalType": "address"
        },
        {
          "name": "newTotalShares",
          "type": "int256",
          "indexed": false,
          "internalType": "int256"
        }
      ],
      "anonymous": false
    },
    {
      "type": "event",
      "name": "OwnershipTransferred",
      "inputs": [
        {
          "name": "previousOwner",
          "type": "address",
          "indexed": true,
          "internalType": "address"
        },
        {
          "name": "newOwner",
          "type": "address",
          "indexed": true,
          "internalType": "address"
        }
      ],
      "anonymous": false
    },
    {
      "type": "event",
      "name": "Paused",
      "inputs": [
        {
          "name": "account",
          "type": "address",
          "indexed": true,
          "internalType": "address"
        },
        {
          "name": "newPausedStatus",
          "type": "uint256",
          "indexed": false,
          "internalType": "uint256"
        }
      ],
      "anonymous": false
    },
    {
      "type": "event",
      "name": "PodDeployed",
      "inputs": [
        {
          "name": "eigenPod",
          "type": "address",
          "indexed": true,
          "internalType": "address"
        },
        {
          "name": "podOwner",
          "type": "address",
          "indexed": true,
          "internalType": "address"
        }
      ],
      "anonymous": false
    },
    {
      "type": "event",
      "name": "PodSharesUpdated",
      "inputs": [
        {
          "name": "podOwner",
          "type": "address",
          "indexed": true,
          "internalType": "address"
        },
        {
          "name": "sharesDelta",
          "type": "int256",
          "indexed": false,
          "internalType": "int256"
        }
      ],
      "anonymous": false
    },
    {
      "type": "event",
      "name": "Unpaused",
      "inputs": [
        {
          "name": "account",
          "type": "address",
          "indexed": true,
          "internalType": "address"
        },
        {
          "name": "newPausedStatus",
          "type": "uint256",
          "indexed": false,
          "internalType": "uint256"
        }
      ],
      "anonymous": false
    },
    {
      "type": "error",
      "name": "CurrentlyPaused",
      "inputs": []
    },
    {
      "type": "error",
      "name": "EigenPodAlreadyExists",
      "inputs": []
    },
    {
      "type": "error",
      "name": "InputAddressZero",
      "inputs": []
    },
    {
      "type": "error",
      "name": "InvalidNewPausedStatus",
      "inputs": []
    },
    {
      "type": "error",
      "name": "InvalidStrategy",
      "inputs": []
    },
    {
      "type": "error",
      "name": "LegacyWithdrawalsNotCompleted",
      "inputs": []
    },
    {
      "type": "error",
      "name": "OnlyDelegationManager",
      "inputs": []
    },
    {
      "type": "error",
      "name": "OnlyEigenPod",
      "inputs": []
    },
    {
      "type": "error",
      "name": "OnlyPauser",
      "inputs": []
    },
    {
      "type": "error",
      "name": "OnlyUnpauser",
      "inputs": []
    },
    {
      "type": "error",
      "name": "SharesNegative",
      "inputs": []
    },
    {
      "type": "error",
      "name": "SharesNotMultipleOfGwei",
      "inputs": []
    }
  ],
  "bytecode": {
    "object": "0x610100604052348015610010575f5ffd5b5060405161297838038061297883398101604081905261002f9161015c565b838383836001600160a01b03811661005a576040516339b190bb60e11b815260040160405180910390fd5b6001600160a01b0390811660805292831660a05290821660c0521660e052610080610089565b505050506101b8565b5f54610100900460ff16156100f45760405162461bcd60e51b815260206004820152602760248201527f496e697469616c697a61626c653a20636f6e747261637420697320696e697469604482015266616c697a696e6760c81b606482015260840160405180910390fd5b5f5460ff90811614610143575f805460ff191660ff9081179091556040519081527f7f26b83ff96e1f2b6a682f133852f6798a09c465da95921460cefb38474024989060200160405180910390a15b565b6001600160a01b0381168114610159575f5ffd5b50565b5f5f5f5f6080858703121561016f575f5ffd5b845161017a81610145565b602086015190945061018b81610145565b604086015190935061019c81610145565b60608601519092506101ad81610145565b939692955090935050565b60805160a05160c05160e0516127476102315f395f81816104ec015281816106840152818161098a01528181610d0101528181610dae0152610f5b01525f81816101cb01528181610e74015261144501525f6102de01525f8181610325015281816105b9015281816108d4015261118401526127475ff3fe608060405260043610610195575f3560e01c80639b4e4634116100e7578063cd6dc68711610087578063f2fde38b11610062578063f2fde38b1461050e578063f6848d241461052d578063fabc1cbc14610566578063fe243a1714610585575f5ffd5b8063cd6dc68714610491578063d48e8894146104b0578063ea4d3c9b146104db575f5ffd5b8063a38406a3116100c2578063a38406a3146103f1578063a3d75e0914610410578063a6a509be14610448578063c4623ea11461045d575f5ffd5b80639b4e46341461038b5780639ba062751461039e578063a1ca780b146103d2575f5ffd5b8063715018a61161015257806384d810621161012d57806384d8106214610300578063886f1195146103145780638da5cb5b146103475780639104c31914610364575f5ffd5b8063715018a61461029a578063724af423146102ae57806374cdd798146102cd575f5ffd5b8063136439dd14610199578063292b7b2b146101ba5780632eae418c1461020a578063595c6a67146102295780635ac86ab71461023d5780635c975abb1461027c575b5f5ffd5b3480156101a4575f5ffd5b506101b86101b3366004611a06565b6105a4565b005b3480156101c5575f5ffd5b506101ed7f000000000000000000000000000000000000000000000000000000000000000081565b6040516001600160a01b0390911681526020015b60405180910390f35b348015610215575f5ffd5b506101b8610224366004611a31565b610679565b348015610234575f5ffd5b506101b86108bf565b348015610248575f5ffd5b5061026c610257366004611a7f565b606654600160ff9092169190911b9081161490565b6040519015158152602001610201565b348015610287575f5ffd5b506066545b604051908152602001610201565b3480156102a5575f5ffd5b506101b861096e565b3480156102b9575f5ffd5b506101b86102c8366004611a9f565b61097f565b3480156102d8575f5ffd5b506101ed7f000000000000000000000000000000000000000000000000000000000000000081565b34801561030b575f5ffd5b506101ed610aa5565b34801561031f575f5ffd5b506101ed7f000000000000000000000000000000000000000000000000000000000000000081565b348015610352575f5ffd5b506033546001600160a01b03166101ed565b34801561036f575f5ffd5b506101ed73beac0eeeeeeeeeeeeeeeeeeeeeeeeeeeeeebeac081565b6101b8610399366004611b1b565b610b15565b3480156103a9575f5ffd5b506101ed6103b8366004611b8e565b60986020525f90815260409020546001600160a01b031681565b3480156103dd575f5ffd5b506101b86103ec366004611ba9565b610bd2565b3480156103fc575f5ffd5b506101ed61040b366004611b8e565b610e1a565b34801561041b575f5ffd5b5061042f61042a366004611b8e565b610eeb565b60405167ffffffffffffffff9091168152602001610201565b348015610453575f5ffd5b5061028c60995481565b348015610468575f5ffd5b5061047c610477366004611a31565b610f4e565b60408051928352602083019190915201610201565b34801561049c575f5ffd5b506101b86104ab366004611bdb565b610fed565b3480156104bb575f5ffd5b5061028c6104ca366004611b8e565b609b6020525f908152604090205481565b3480156104e6575f5ffd5b506101ed7f000000000000000000000000000000000000000000000000000000000000000081565b348015610519575f5ffd5b506101b8610528366004611b8e565b611109565b348015610538575f5ffd5b5061026c610547366004611b8e565b6001600160a01b039081165f9081526098602052604090205416151590565b348015610571575f5ffd5b506101b8610580366004611a06565b611182565b348015610590575f5ffd5b5061028c61059f366004611c05565b611298565b60405163237dfb4760e11b81523360048201527f00000000000000000000000000000000000000000000000000000000000000006001600160a01b0316906346fbf68e90602401602060405180830381865afa158015610606573d5f5f3e3d5ffd5b505050506040513d601f19601f8201168201806040525081019061062a9190611c3c565b61064757604051631d77d47760e21b815260040160405180910390fd5b606654818116811461066c5760405163c61dca5d60e01b815260040160405180910390fd5b61067582611318565b5050565b336001600160a01b037f000000000000000000000000000000000000000000000000000000000000000016146106c25760405163f739589b60e01b815260040160405180910390fd5b6001600160a01b03831673beac0eeeeeeeeeeeeeeeeeeeeeeeeeeeeeebeac0146106ff57604051632711b74d60e11b815260040160405180910390fd5b6001600160a01b038416610726576040516339b190bb60e11b815260040160405180910390fd5b5f81136107465760405163ef147de160e01b815260040160405180910390fd5b6001600160a01b0384165f908152609b6020526040812054908290821215610840575f61077283611c6f565b90505f818511156107905750806107898186611c89565b9250610796565b505f9150835b5f6107a18286611c9c565b6001600160a01b038a165f818152609b60205260409081902083905551919250907f4e2b791dedccd9fb30141b088cabf5c14a8912b52f59375c95c010700b8c6193906107f19085815260200190565b60405180910390a2886001600160a01b03167fd4def76d6d2bed6f14d5cd9af73cc2913d618d00edde42432e81c09bfe0770988260405161083491815260200190565b60405180910390a25050505b80156108b7576001600160a01b038681165f81815260986020526040908190205490516362483a2160e11b81526004810192909252602482018490529091169063c4907442906044015f604051808303815f87803b1580156108a0575f5ffd5b505af11580156108b2573d5f5f3e3d5ffd5b505050505b505050505050565b60405163237dfb4760e11b81523360048201527f00000000000000000000000000000000000000000000000000000000000000006001600160a01b0316906346fbf68e90602401602060405180830381865afa158015610921573d5f5f3e3d5ffd5b505050506040513d601f19601f820116820180604052508101906109459190611c3c565b61096257604051631d77d47760e21b815260040160405180910390fd5b61096c5f19611318565b565b610976611355565b61096c5f6113af565b336001600160a01b037f000000000000000000000000000000000000000000000000000000000000000016146109c85760405163f739589b60e01b815260040160405180910390fd5b6001600160a01b03821673beac0eeeeeeeeeeeeeeeeeeeeeeeeeeeeeebeac014610a0557604051632711b74d60e11b815260040160405180910390fd5b6001600160a01b0383165f908152609b6020526040812054610a28908390611cc3565b90505f811215610a4b5760405163ef147de160e01b815260040160405180910390fd5b6001600160a01b0384165f818152609b602052604090819020839055517fd4def76d6d2bed6f14d5cd9af73cc2913d618d00edde42432e81c09bfe07709890610a979084815260200190565b60405180910390a250505050565b6066545f908190600190811603610acf5760405163840a48d560e01b815260040160405180910390fd5b335f908152609860205260409020546001600160a01b031615610b055760405163031a852160e21b815260040160405180910390fd5b5f610b0e611400565b9250505090565b6066545f90600190811603610b3d5760405163840a48d560e01b815260040160405180910390fd5b335f908152609860205260409020546001600160a01b031680610b6557610b62611400565b90505b6040516326d3918d60e21b81526001600160a01b03821690639b4e4634903490610b9b908b908b908b908b908b90600401611d11565b5f604051808303818588803b158015610bb2575f5ffd5b505af1158015610bc4573d5f5f3e3d5ffd5b505050505050505050505050565b6001600160a01b038084165f908152609860205260409020548491163314610c0d576040516312e16d7160e11b815260040160405180910390fd5b610c1561155b565b6001600160a01b038416610c3c576040516339b190bb60e11b815260040160405180910390fd5b610c4a633b9aca0083611d5e565b15610c68576040516347d072bb60e11b815260040160405180910390fd5b6001600160a01b0384165f908152609b602052604081205490811215610ca157604051634b692bcf60e01b815260040160405180910390fd5b5f8312610d61575f5f610cb487866115b4565b604051631e328e7960e11b81526001600160a01b038a8116600483015273beac0eeeeeeeeeeeeeeeeeeeeeeeeeeeeeebeac0602483015260448201849052606482018390529294509092507f000000000000000000000000000000000000000000000000000000000000000090911690633c651cf2906084015f604051808303815f87803b158015610d44575f5ffd5b505af1158015610d56573d5f5f3e3d5ffd5b505050505050610e09565b5f610d758686610d7087611c6f565b6116f1565b60405163305068e760e11b81526001600160a01b0388811660048301526024820185905267ffffffffffffffff831660448301529192507f0000000000000000000000000000000000000000000000000000000000000000909116906360a0d1ce906064015f604051808303815f87803b158015610df1575f5ffd5b505af1158015610e03573d5f5f3e3d5ffd5b50505050505b50610e14600160c955565b50505050565b6001600160a01b038082165f9081526098602052604081205490911680610ee557610ee2836001600160a01b03165f1b60405180610940016040528061090e8152602001611e0461090e9139604080516001600160a01b037f0000000000000000000000000000000000000000000000000000000000000000166020820152808201919091525f606082015260800160408051601f1981840301815290829052610ec79291602001611d94565b604051602081830303815290604052805190602001206117ea565b90505b92915050565b6001600160a01b0381165f908152609d6020908152604080832081518083019092525460ff8116151580835261010090910467ffffffffffffffff169282019290925290610f4157670de0b6b3a7640000610f47565b80602001515b9392505050565b5f80336001600160a01b037f00000000000000000000000000000000000000000000000000000000000000001614610f995760405163f739589b60e01b815260040160405180910390fd5b6001600160a01b03851673beac0eeeeeeeeeeeeeeeeeeeeeeeeeeeeeebeac014610fd657604051632711b74d60e11b815260040160405180910390fd5b610fe086846115b4565b9150915094509492505050565b5f54610100900460ff161580801561100b57505f54600160ff909116105b806110245750303b15801561102457505f5460ff166001145b61108c5760405162461bcd60e51b815260206004820152602e60248201527f496e697469616c697a61626c653a20636f6e747261637420697320616c72656160448201526d191e481a5b9a5d1a585b1a5e995960921b60648201526084015b60405180910390fd5b5f805460ff1916600117905580156110ad575f805461ff0019166101001790555b6110b6836113af565b6110bf82611318565b8015611104575f805461ff0019169055604051600181527f7f26b83ff96e1f2b6a682f133852f6798a09c465da95921460cefb38474024989060200160405180910390a15b505050565b611111611355565b6001600160a01b0381166111765760405162461bcd60e51b815260206004820152602660248201527f4f776e61626c653a206e6577206f776e657220697320746865207a65726f206160448201526564647265737360d01b6064820152608401611083565b61117f816113af565b50565b7f00000000000000000000000000000000000000000000000000000000000000006001600160a01b031663eab66d7a6040518163ffffffff1660e01b8152600401602060405180830381865afa1580156111de573d5f5f3e3d5ffd5b505050506040513d601f19601f820116820180604052508101906112029190611db0565b6001600160a01b0316336001600160a01b0316146112335760405163794821ff60e01b815260040160405180910390fd5b6066548019821981161461125a5760405163c61dca5d60e01b815260040160405180910390fd5b606682905560405182815233907f3582d1828e26bf56bd801502bc021ac0bc8afb57c826e4986b45593c8fad389c9060200160405180910390a25050565b5f6001600160a01b03821673beac0eeeeeeeeeeeeeeeeeeeeeeeeeeeeeebeac0146112d657604051632711b74d60e11b815260040160405180910390fd5b6001600160a01b0383165f908152609b602052604081205412611310576001600160a01b0383165f908152609b6020526040902054610ee2565b505f92915050565b606681905560405181815233907fab40a374bc51de372200a8bc981af8c9ecdc08dfdaef0bb6e09f88f3c616ef3d9060200160405180910390a250565b6033546001600160a01b0316331461096c5760405162461bcd60e51b815260206004820181905260248201527f4f776e61626c653a2063616c6c6572206973206e6f7420746865206f776e65726044820152606401611083565b603380546001600160a01b038381166001600160a01b0319831681179093556040519116919082907f8be0079c531659141344cd1fd0a4f28419497f9722a3daafe3b4186f6b6457e0905f90a35050565b5f60995f815461140f90611dcb565b9091555060408051610940810190915261090e8082525f916114ac9183913391611e046020830139604080516001600160a01b037f0000000000000000000000000000000000000000000000000000000000000000166020820152808201919091525f606082015260800160408051601f19818403018152908290526114989291602001611d94565b6040516020818303038152906040526117f6565b60405163189acdbd60e31b81523360048201529091506001600160a01b0382169063c4d66de8906024015f604051808303815f87803b1580156114ed575f5ffd5b505af11580156114ff573d5f5f3e3d5ffd5b5050335f8181526098602052604080822080546001600160a01b0319166001600160a01b038816908117909155905192945092507f21c99d0db02213c32fff5b05cf0a718ab5f858802b91498f80d82270289d856a91a3919050565b600260c954036115ad5760405162461bcd60e51b815260206004820152601f60248201527f5265656e7472616e637947756172643a207265656e7472616e742063616c6c006044820152606401611083565b600260c955565b5f806001600160a01b0384166115dd576040516339b190bb60e11b815260040160405180910390fd5b5f8312156115fe5760405163ef147de160e01b815260040160405180910390fd5b6001600160a01b0384165f908152609b602052604081205484916116228383611c9c565b6001600160a01b0388165f818152609b60205260409081902083905551919250907f4e2b791dedccd9fb30141b088cabf5c14a8912b52f59375c95c010700b8c6193906116729086815260200190565b60405180910390a2866001600160a01b03167fd4def76d6d2bed6f14d5cd9af73cc2913d618d00edde42432e81c09bfe077098826040516116b591815260200190565b60405180910390a25f81136116d2575f5f945094505050506116ea565b5f82126116df57816116e1565b5f5b86945094505050505b9250929050565b5f806116fd8385611c89565b90505f61170986610eeb565b90505f61172167ffffffffffffffff831684886118f8565b90505f61172e8284611de3565b6040805180820182526001815267ffffffffffffffff85811660208084018281526001600160a01b038f165f818152609d845287902095518654925168ffffffffffffffffff1990931690151568ffffffffffffffff001916176101009286169290920291909117909455845193845291881691830191909152918101919091529091507fb160ab8589bf47dc04ea11b50d46678d21590cea2ed3e454e7bd3e41510f98cf9060600160405180910390a1979650505050505050565b5f610ee28383306119dd565b5f834710156118475760405162461bcd60e51b815260206004820152601d60248201527f437265617465323a20696e73756666696369656e742062616c616e63650000006044820152606401611083565b81515f036118975760405162461bcd60e51b815260206004820181905260248201527f437265617465323a2062797465636f6465206c656e677468206973207a65726f6044820152606401611083565b8282516020840186f590506001600160a01b038116610f475760405162461bcd60e51b815260206004820152601960248201527f437265617465323a204661696c6564206f6e206465706c6f79000000000000006044820152606401611083565b5f80805f19858709858702925082811083820303915050805f0361192f5783828161192557611925611d4a565b0492505050610f47565b8084116119765760405162461bcd60e51b81526020600482015260156024820152744d6174683a206d756c446976206f766572666c6f7760581b6044820152606401611083565b5f8486880960026001871981018816978890046003810283188082028403028082028403028082028403028082028403028082028403029081029092039091025f889003889004909101858311909403939093029303949094049190911702949350505050565b5f604051836040820152846020820152828152600b8101905060ff815360559020949350505050565b5f60208284031215611a16575f5ffd5b5035919050565b6001600160a01b038116811461117f575f5ffd5b5f5f5f5f60808587031215611a44575f5ffd5b8435611a4f81611a1d565b93506020850135611a5f81611a1d565b92506040850135611a6f81611a1d565b9396929550929360600135925050565b5f60208284031215611a8f575f5ffd5b813560ff81168114610f47575f5ffd5b5f5f5f60608486031215611ab1575f5ffd5b8335611abc81611a1d565b92506020840135611acc81611a1d565b929592945050506040919091013590565b5f5f83601f840112611aed575f5ffd5b50813567ffffffffffffffff811115611b04575f5ffd5b6020830191508360208285010111156116ea575f5ffd5b5f5f5f5f5f60608688031215611b2f575f5ffd5b853567ffffffffffffffff811115611b45575f5ffd5b611b5188828901611add565b909650945050602086013567ffffffffffffffff811115611b70575f5ffd5b611b7c88828901611add565b96999598509660400135949350505050565b5f60208284031215611b9e575f5ffd5b8135610f4781611a1d565b5f5f5f60608486031215611bbb575f5ffd5b8335611bc681611a1d565b95602085013595506040909401359392505050565b5f5f60408385031215611bec575f5ffd5b8235611bf781611a1d565b946020939093013593505050565b5f5f60408385031215611c16575f5ffd5b8235611c2181611a1d565b91506020830135611c3181611a1d565b809150509250929050565b5f60208284031215611c4c575f5ffd5b81518015158114610f47575f5ffd5b634e487b7160e01b5f52601160045260245ffd5b5f600160ff1b8201611c8357611c83611c5b565b505f0390565b81810381811115610ee557610ee5611c5b565b8082018281125f831280158216821582161715611cbb57611cbb611c5b565b505092915050565b8181035f831280158383131683831282161715611ce257611ce2611c5b565b5092915050565b81835281816020850137505f828201602090810191909152601f909101601f19169091010190565b606081525f611d24606083018789611ce9565b8281036020840152611d37818688611ce9565b9150508260408301529695505050505050565b634e487b7160e01b5f52601260045260245ffd5b5f82611d7857634e487b7160e01b5f52601260045260245ffd5b500790565b5f81518060208401855e5f93019283525090919050565b5f611da8611da28386611d7d565b84611d7d565b949350505050565b5f60208284031215611dc0575f5ffd5b8151610f4781611a1d565b5f60018201611ddc57611ddc611c5b565b5060010190565b67ffffffffffffffff8281168282160390811115610ee557610ee5611c5b56fe608060405260405161090e38038061090e83398101604081905261002291610460565b61002e82826000610035565b505061058a565b61003e83610100565b6040516001600160a01b038416907f1cf3b03a6cf19fa2baba4df148e9dcabedea7f8a5c07840e207e5c089be95d3e90600090a260008251118061007f5750805b156100fb576100f9836001600160a01b0316635c60da1b6040518163ffffffff1660e01b8152600401602060405180830381865afa1580156100c5573d6000803e3d6000fd5b505050506040513d601f19601f820116820180604052508101906100e99190610520565b836102a360201b6100291760201c565b505b505050565b610113816102cf60201b6100551760201c565b6101725760405162461bcd60e51b815260206004820152602560248201527f455243313936373a206e657720626561636f6e206973206e6f74206120636f6e6044820152641d1c9858dd60da1b60648201526084015b60405180910390fd5b6101e6816001600160a01b0316635c60da1b6040518163ffffffff1660e01b8152600401602060405180830381865afa1580156101b3573d6000803e3d6000fd5b505050506040513d601f19601f820116820180604052508101906101d79190610520565b6102cf60201b6100551760201c565b61024b5760405162461bcd60e51b815260206004820152603060248201527f455243313936373a20626561636f6e20696d706c656d656e746174696f6e206960448201526f1cc81b9bdd08184818dbdb9d1c9858dd60821b6064820152608401610169565b806102827fa3f0ad74e5423aebfd80d3ef4346578335a9a72aeaee59ff6cb3582b35133d5060001b6102de60201b6100641760201c565b80546001600160a01b0319166001600160a01b039290921691909117905550565b60606102c883836040518060600160405280602781526020016108e7602791396102e1565b9392505050565b6001600160a01b03163b151590565b90565b6060600080856001600160a01b0316856040516102fe919061053b565b600060405180830381855af49150503d8060008114610339576040519150601f19603f3d011682016040523d82523d6000602084013e61033e565b606091505b5090925090506103508683838761035a565b9695505050505050565b606083156103c65782516103bf576001600160a01b0385163b6103bf5760405162461bcd60e51b815260206004820152601d60248201527f416464726573733a2063616c6c20746f206e6f6e2d636f6e74726163740000006044820152606401610169565b50816103d0565b6103d083836103d8565b949350505050565b8151156103e85781518083602001fd5b8060405162461bcd60e51b81526004016101699190610557565b80516001600160a01b038116811461041957600080fd5b919050565b634e487b7160e01b600052604160045260246000fd5b60005b8381101561044f578181015183820152602001610437565b838111156100f95750506000910152565b6000806040838503121561047357600080fd5b61047c83610402565b60208401519092506001600160401b038082111561049957600080fd5b818501915085601f8301126104ad57600080fd5b8151818111156104bf576104bf61041e565b604051601f8201601f19908116603f011681019083821181831017156104e7576104e761041e565b8160405282815288602084870101111561050057600080fd5b610511836020830160208801610434565b80955050505050509250929050565b60006020828403121561053257600080fd5b6102c882610402565b6000825161054d818460208701610434565b9190910192915050565b6020815260008251806020840152610576816040850160208701610434565b601f01601f19169190910160400192915050565b61034e806105996000396000f3fe60806040523661001357610011610017565b005b6100115b610027610022610067565b610100565b565b606061004e83836040518060600160405280602781526020016102f260279139610124565b9392505050565b6001600160a01b03163b151590565b90565b600061009a7fa3f0ad74e5423aebfd80d3ef4346578335a9a72aeaee59ff6cb3582b35133d50546001600160a01b031690565b6001600160a01b0316635c60da1b6040518163ffffffff1660e01b8152600401602060405180830381865afa1580156100d7573d6000803e3d6000fd5b505050506040513d601f19601f820116820180604052508101906100fb9190610249565b905090565b3660008037600080366000845af43d6000803e80801561011f573d6000f35b3d6000fd5b6060600080856001600160a01b03168560405161014191906102a2565b600060405180830381855af49150503d806000811461017c576040519150601f19603f3d011682016040523d82523d6000602084013e610181565b606091505b50915091506101928683838761019c565b9695505050505050565b6060831561020d578251610206576001600160a01b0385163b6102065760405162461bcd60e51b815260206004820152601d60248201527f416464726573733a2063616c6c20746f206e6f6e2d636f6e747261637400000060448201526064015b60405180910390fd5b5081610217565b610217838361021f565b949350505050565b81511561022f5781518083602001fd5b8060405162461bcd60e51b81526004016101fd91906102be565b60006020828403121561025b57600080fd5b81516001600160a01b038116811461004e57600080fd5b60005b8381101561028d578181015183820152602001610275565b8381111561029c576000848401525b50505050565b600082516102b4818460208701610272565b9190910192915050565b60208152600082518060208401526102dd816040850160208701610272565b601f01601f1916919091016040019291505056fe416464726573733a206c6f772d6c6576656c2064656c65676174652063616c6c206661696c6564a2646970667358221220d51e81d3bc5ed20a26aeb05dce7e825c503b2061aa78628027300c8d65b9d89a64736f6c634300080c0033416464726573733a206c6f772d6c6576656c2064656c65676174652063616c6c206661696c6564a264697066735822122010d5d18f1422f6f797da75c7e367b5c88ab280a2bfcd963f618a2f69d1cfeebf64736f6c634300081b0033",
    "linkReferences": {}
  },
  "methodIdentifiers": {
    "addShares(address,address,address,uint256)": "c4623ea1",
    "beaconChainETHStrategy()": "9104c319",
    "beaconChainSlashingFactor(address)": "a3d75e09",
    "createPod()": "84d81062",
    "delegationManager()": "ea4d3c9b",
    "eigenPodBeacon()": "292b7b2b",
    "ethPOS()": "74cdd798",
    "getPod(address)": "a38406a3",
    "hasPod(address)": "f6848d24",
    "initialize(address,uint256)": "cd6dc687",
    "numPods()": "a6a509be",
    "owner()": "8da5cb5b",
    "ownerToPod(address)": "9ba06275",
    "pause(uint256)": "136439dd",
    "pauseAll()": "595c6a67",
    "paused()": "5c975abb",
    "paused(uint8)": "5ac86ab7",
    "pauserRegistry()": "886f1195",
    "podOwnerDepositShares(address)": "d48e8894",
    "recordBeaconChainETHBalanceUpdate(address,uint256,int256)": "a1ca780b",
    "removeDepositShares(address,address,uint256)": "724af423",
    "renounceOwnership()": "715018a6",
    "stake(bytes,bytes,bytes32)": "9b4e4634",
    "stakerDepositShares(address,address)": "fe243a17",
    "transferOwnership(address)": "f2fde38b",
    "unpause(uint256)": "fabc1cbc",
    "withdrawSharesAsTokens(address,address,address,uint256)": "2eae418c"
  },
  "id": 159
}