{
  "abi": [
    {
      "type": "constructor",
      "inputs": [
        {
          "name": "_delegationManager",
          "type": "address",
          "internalType": "contract IDelegationManager"
        },
        {
          "name": "_strategyManager",
          "type": "address",
          "internalType": "contract IStrategyManager"
        },
        {
          "name": "_allocationManager",
          "type": "address",
          "internalType": "contract IAllocationManager"
        },
        {
          "name": "_pauserRegistry",
          "type": "address",
          "internalType": "contract IPauserRegistry"
        },
        {
          "name": "_permissionController",
          "type": "address",
          "internalType": "contract IPermissionController"
        },
        {
          "name": "_CALCULATION_INTERVAL_SECONDS",
          "type": "uint32",
          "internalType": "uint32"
        },
        {
          "name": "_MAX_REWARDS_DURATION",
          "type": "uint32",
          "internalType": "uint32"
        },
        {
          "name": "_MAX_RETROACTIVE_LENGTH",
          "type": "uint32",
          "internalType": "uint32"
        },
        {
          "name": "_MAX_FUTURE_LENGTH",
          "type": "uint32",
          "internalType": "uint32"
        },
        {
          "name": "_GENESIS_REWARDS_TIMESTAMP",
          "type": "uint32",
          "internalType": "uint32"
        }
      ],
      "stateMutability": "nonpayable"
    },
    {
      "type": "function",
      "name": "CALCULATION_INTERVAL_SECONDS",
      "inputs": [],
      "outputs": [
        {
          "name": "",
          "type": "uint32",
          "internalType": "uint32"
        }
      ],
      "stateMutability": "view"
    },
    {
      "type": "function",
      "name": "GENESIS_REWARDS_TIMESTAMP",
      "inputs": [],
      "outputs": [
        {
          "name": "",
          "type": "uint32",
          "internalType": "uint32"
        }
      ],
      "stateMutability": "view"
    },
    {
      "type": "function",
      "name": "MAX_FUTURE_LENGTH",
      "inputs": [],
      "outputs": [
        {
          "name": "",
          "type": "uint32",
          "internalType": "uint32"
        }
      ],
      "stateMutability": "view"
    },
    {
      "type": "function",
      "name": "MAX_RETROACTIVE_LENGTH",
      "inputs": [],
      "outputs": [
        {
          "name": "",
          "type": "uint32",
          "internalType": "uint32"
        }
      ],
      "stateMutability": "view"
    },
    {
      "type": "function",
      "name": "MAX_REWARDS_DURATION",
      "inputs": [],
      "outputs": [
        {
          "name": "",
          "type": "uint32",
          "internalType": "uint32"
        }
      ],
      "stateMutability": "view"
    },
    {
      "type": "function",
      "name": "activationDelay",
      "inputs": [],
      "outputs": [
        {
          "name": "",
          "type": "uint32",
          "internalType": "uint32"
        }
      ],
      "stateMutability": "view"
    },
    {
      "type": "function",
      "name": "allocationManager",
      "inputs": [],
      "outputs": [
        {
          "name": "",
          "type": "address",
          "internalType": "contract IAllocationManager"
        }
      ],
      "stateMutability": "view"
    },
    {
      "type": "function",
      "name": "beaconChainETHStrategy",
      "inputs": [],
      "outputs": [
        {
          "name": "",
          "type": "address",
          "internalType": "contract IStrategy"
        }
      ],
      "stateMutability": "view"
    },
    {
      "type": "function",
      "name": "calculateEarnerLeafHash",
      "inputs": [
        {
          "name": "leaf",
          "type": "tuple",
          "internalType": "struct IRewardsCoordinatorTypes.EarnerTreeMerkleLeaf",
          "components": [
            {
              "name": "earner",
              "type": "address",
              "internalType": "address"
            },
            {
              "name": "earnerTokenRoot",
              "type": "bytes32",
              "internalType": "bytes32"
            }
          ]
        }
      ],
      "outputs": [
        {
          "name": "",
          "type": "bytes32",
          "internalType": "bytes32"
        }
      ],
      "stateMutability": "pure"
    },
    {
      "type": "function",
      "name": "calculateTokenLeafHash",
      "inputs": [
        {
          "name": "leaf",
          "type": "tuple",
          "internalType": "struct IRewardsCoordinatorTypes.TokenTreeMerkleLeaf",
          "components": [
            {
              "name": "token",
              "type": "address",
              "internalType": "contract IERC20"
            },
            {
              "name": "cumulativeEarnings",
              "type": "uint256",
              "internalType": "uint256"
            }
          ]
        }
      ],
      "outputs": [
        {
          "name": "",
          "type": "bytes32",
          "internalType": "bytes32"
        }
      ],
      "stateMutability": "pure"
    },
    {
      "type": "function",
      "name": "checkClaim",
      "inputs": [
        {
          "name": "claim",
          "type": "tuple",
          "internalType": "struct IRewardsCoordinatorTypes.RewardsMerkleClaim",
          "components": [
            {
              "name": "rootIndex",
              "type": "uint32",
              "internalType": "uint32"
            },
            {
              "name": "earnerIndex",
              "type": "uint32",
              "internalType": "uint32"
            },
            {
              "name": "earnerTreeProof",
              "type": "bytes",
              "internalType": "bytes"
            },
            {
              "name": "earnerLeaf",
              "type": "tuple",
              "internalType": "struct IRewardsCoordinatorTypes.EarnerTreeMerkleLeaf",
              "components": [
                {
                  "name": "earner",
                  "type": "address",
                  "internalType": "address"
                },
                {
                  "name": "earnerTokenRoot",
                  "type": "bytes32",
                  "internalType": "bytes32"
                }
              ]
            },
            {
              "name": "tokenIndices",
              "type": "uint32[]",
              "internalType": "uint32[]"
            },
            {
              "name": "tokenTreeProofs",
              "type": "bytes[]",
              "internalType": "bytes[]"
            },
            {
              "name": "tokenLeaves",
              "type": "tuple[]",
              "internalType": "struct IRewardsCoordinatorTypes.TokenTreeMerkleLeaf[]",
              "components": [
                {
                  "name": "token",
                  "type": "address",
                  "internalType": "contract IERC20"
                },
                {
                  "name": "cumulativeEarnings",
                  "type": "uint256",
                  "internalType": "uint256"
                }
              ]
            }
          ]
        }
      ],
      "outputs": [
        {
          "name": "",
          "type": "bool",
          "internalType": "bool"
        }
      ],
      "stateMutability": "view"
    },
    {
      "type": "function",
      "name": "claimerFor",
      "inputs": [
        {
          "name": "earner",
          "type": "address",
          "internalType": "address"
        }
      ],
      "outputs": [
        {
          "name": "claimer",
          "type": "address",
          "internalType": "address"
        }
      ],
      "stateMutability": "view"
    },
    {
      "type": "function",
      "name": "createAVSRewardsSubmission",
      "inputs": [
        {
          "name": "rewardsSubmissions",
          "type": "tuple[]",
          "internalType": "struct IRewardsCoordinatorTypes.RewardsSubmission[]",
          "components": [
            {
              "name": "strategiesAndMultipliers",
              "type": "tuple[]",
              "internalType": "struct IRewardsCoordinatorTypes.StrategyAndMultiplier[]",
              "components": [
                {
                  "name": "strategy",
                  "type": "address",
                  "internalType": "contract IStrategy"
                },
                {
                  "name": "multiplier",
                  "type": "uint96",
                  "internalType": "uint96"
                }
              ]
            },
            {
              "name": "token",
              "type": "address",
              "internalType": "contract IERC20"
            },
            {
              "name": "amount",
              "type": "uint256",
              "internalType": "uint256"
            },
            {
              "name": "startTimestamp",
              "type": "uint32",
              "internalType": "uint32"
            },
            {
              "name": "duration",
              "type": "uint32",
              "internalType": "uint32"
            }
          ]
        }
      ],
      "outputs": [],
      "stateMutability": "nonpayable"
    },
    {
      "type": "function",
      "name": "createOperatorDirectedAVSRewardsSubmission",
      "inputs": [
        {
          "name": "avs",
          "type": "address",
          "internalType": "address"
        },
        {
          "name": "operatorDirectedRewardsSubmissions",
          "type": "tuple[]",
          "internalType": "struct IRewardsCoordinatorTypes.OperatorDirectedRewardsSubmission[]",
          "components": [
            {
              "name": "strategiesAndMultipliers",
              "type": "tuple[]",
              "internalType": "struct IRewardsCoordinatorTypes.StrategyAndMultiplier[]",
              "components": [
                {
                  "name": "strategy",
                  "type": "address",
                  "internalType": "contract IStrategy"
                },
                {
                  "name": "multiplier",
                  "type": "uint96",
                  "internalType": "uint96"
                }
              ]
            },
            {
              "name": "token",
              "type": "address",
              "internalType": "contract IERC20"
            },
            {
              "name": "operatorRewards",
              "type": "tuple[]",
              "internalType": "struct IRewardsCoordinatorTypes.OperatorReward[]",
              "components": [
                {
                  "name": "operator",
                  "type": "address",
                  "internalType": "address"
                },
                {
                  "name": "amount",
                  "type": "uint256",
                  "internalType": "uint256"
                }
              ]
            },
            {
              "name": "startTimestamp",
              "type": "uint32",
              "internalType": "uint32"
            },
            {
              "name": "duration",
              "type": "uint32",
              "internalType": "uint32"
            },
            {
              "name": "description",
              "type": "string",
              "internalType": "string"
            }
          ]
        }
      ],
      "outputs": [],
      "stateMutability": "nonpayable"
    },
    {
      "type": "function",
      "name": "createRewardsForAllEarners",
      "inputs": [
        {
          "name": "rewardsSubmissions",
          "type": "tuple[]",
          "internalType": "struct IRewardsCoordinatorTypes.RewardsSubmission[]",
          "components": [
            {
              "name": "strategiesAndMultipliers",
              "type": "tuple[]",
              "internalType": "struct IRewardsCoordinatorTypes.StrategyAndMultiplier[]",
              "components": [
                {
                  "name": "strategy",
                  "type": "address",
                  "internalType": "contract IStrategy"
                },
                {
                  "name": "multiplier",
                  "type": "uint96",
                  "internalType": "uint96"
                }
              ]
            },
            {
              "name": "token",
              "type": "address",
              "internalType": "contract IERC20"
            },
            {
              "name": "amount",
              "type": "uint256",
              "internalType": "uint256"
            },
            {
              "name": "startTimestamp",
              "type": "uint32",
              "internalType": "uint32"
            },
            {
              "name": "duration",
              "type": "uint32",
              "internalType": "uint32"
            }
          ]
        }
      ],
      "outputs": [],
      "stateMutability": "nonpayable"
    },
    {
      "type": "function",
      "name": "createRewardsForAllSubmission",
      "inputs": [
        {
          "name": "rewardsSubmissions",
          "type": "tuple[]",
          "internalType": "struct IRewardsCoordinatorTypes.RewardsSubmission[]",
          "components": [
            {
              "name": "strategiesAndMultipliers",
              "type": "tuple[]",
              "internalType": "struct IRewardsCoordinatorTypes.StrategyAndMultiplier[]",
              "components": [
                {
                  "name": "strategy",
                  "type": "address",
                  "internalType": "contract IStrategy"
                },
                {
                  "name": "multiplier",
                  "type": "uint96",
                  "internalType": "uint96"
                }
              ]
            },
            {
              "name": "token",
              "type": "address",
              "internalType": "contract IERC20"
            },
            {
              "name": "amount",
              "type": "uint256",
              "internalType": "uint256"
            },
            {
              "name": "startTimestamp",
              "type": "uint32",
              "internalType": "uint32"
            },
            {
              "name": "duration",
              "type": "uint32",
              "internalType": "uint32"
            }
          ]
        }
      ],
      "outputs": [],
      "stateMutability": "nonpayable"
    },
    {
      "type": "function",
      "name": "cumulativeClaimed",
      "inputs": [
        {
          "name": "earner",
          "type": "address",
          "internalType": "address"
        },
        {
          "name": "token",
          "type": "address",
          "internalType": "contract IERC20"
        }
      ],
      "outputs": [
        {
          "name": "totalClaimed",
          "type": "uint256",
          "internalType": "uint256"
        }
      ],
      "stateMutability": "view"
    },
    {
      "type": "function",
      "name": "currRewardsCalculationEndTimestamp",
      "inputs": [],
      "outputs": [
        {
          "name": "",
          "type": "uint32",
          "internalType": "uint32"
        }
      ],
      "stateMutability": "view"
    },
    {
      "type": "function",
      "name": "defaultOperatorSplitBips",
      "inputs": [],
      "outputs": [
        {
          "name": "",
          "type": "uint16",
          "internalType": "uint16"
        }
      ],
      "stateMutability": "view"
    },
    {
      "type": "function",
      "name": "delegationManager",
      "inputs": [],
      "outputs": [
        {
          "name": "",
          "type": "address",
          "internalType": "contract IDelegationManager"
        }
      ],
      "stateMutability": "view"
    },
    {
      "type": "function",
      "name": "disableRoot",
      "inputs": [
        {
          "name": "rootIndex",
          "type": "uint32",
          "internalType": "uint32"
        }
      ],
      "outputs": [],
      "stateMutability": "nonpayable"
    },
    {
      "type": "function",
      "name": "getCurrentClaimableDistributionRoot",
      "inputs": [],
      "outputs": [
        {
          "name": "",
          "type": "tuple",
          "internalType": "struct IRewardsCoordinatorTypes.DistributionRoot",
          "components": [
            {
              "name": "root",
              "type": "bytes32",
              "internalType": "bytes32"
            },
            {
              "name": "rewardsCalculationEndTimestamp",
              "type": "uint32",
              "internalType": "uint32"
            },
            {
              "name": "activatedAt",
              "type": "uint32",
              "internalType": "uint32"
            },
            {
              "name": "disabled",
              "type": "bool",
              "internalType": "bool"
            }
          ]
        }
      ],
      "stateMutability": "view"
    },
    {
      "type": "function",
      "name": "getCurrentDistributionRoot",
      "inputs": [],
      "outputs": [
        {
          "name": "",
          "type": "tuple",
          "internalType": "struct IRewardsCoordinatorTypes.DistributionRoot",
          "components": [
            {
              "name": "root",
              "type": "bytes32",
              "internalType": "bytes32"
            },
            {
              "name": "rewardsCalculationEndTimestamp",
              "type": "uint32",
              "internalType": "uint32"
            },
            {
              "name": "activatedAt",
              "type": "uint32",
              "internalType": "uint32"
            },
            {
              "name": "disabled",
              "type": "bool",
              "internalType": "bool"
            }
          ]
        }
      ],
      "stateMutability": "view"
    },
    {
      "type": "function",
      "name": "getDistributionRootAtIndex",
      "inputs": [
        {
          "name": "index",
          "type": "uint256",
          "internalType": "uint256"
        }
      ],
      "outputs": [
        {
          "name": "",
          "type": "tuple",
          "internalType": "struct IRewardsCoordinatorTypes.DistributionRoot",
          "components": [
            {
              "name": "root",
              "type": "bytes32",
              "internalType": "bytes32"
            },
            {
              "name": "rewardsCalculationEndTimestamp",
              "type": "uint32",
              "internalType": "uint32"
            },
            {
              "name": "activatedAt",
              "type": "uint32",
              "internalType": "uint32"
            },
            {
              "name": "disabled",
              "type": "bool",
              "internalType": "bool"
            }
          ]
        }
      ],
      "stateMutability": "view"
    },
    {
      "type": "function",
      "name": "getDistributionRootsLength",
      "inputs": [],
      "outputs": [
        {
          "name": "",
          "type": "uint256",
          "internalType": "uint256"
        }
      ],
      "stateMutability": "view"
    },
    {
      "type": "function",
      "name": "getOperatorAVSSplit",
      "inputs": [
        {
          "name": "operator",
          "type": "address",
          "internalType": "address"
        },
        {
          "name": "avs",
          "type": "address",
          "internalType": "address"
        }
      ],
      "outputs": [
        {
          "name": "",
          "type": "uint16",
          "internalType": "uint16"
        }
      ],
      "stateMutability": "view"
    },
    {
      "type": "function",
      "name": "getOperatorPISplit",
      "inputs": [
        {
          "name": "operator",
          "type": "address",
          "internalType": "address"
        }
      ],
      "outputs": [
        {
          "name": "",
          "type": "uint16",
          "internalType": "uint16"
        }
      ],
      "stateMutability": "view"
    },
    {
      "type": "function",
      "name": "getRootIndexFromHash",
      "inputs": [
        {
          "name": "rootHash",
          "type": "bytes32",
          "internalType": "bytes32"
        }
      ],
      "outputs": [
        {
          "name": "",
          "type": "uint32",
          "internalType": "uint32"
        }
      ],
      "stateMutability": "view"
    },
    {
      "type": "function",
      "name": "initialize",
      "inputs": [
        {
          "name": "initialOwner",
          "type": "address",
          "internalType": "address"
        },
        {
          "name": "initialPausedStatus",
          "type": "uint256",
          "internalType": "uint256"
        },
        {
          "name": "_rewardsUpdater",
          "type": "address",
          "internalType": "address"
        },
        {
          "name": "_activationDelay",
          "type": "uint32",
          "internalType": "uint32"
        },
        {
          "name": "_defaultSplitBips",
          "type": "uint16",
          "internalType": "uint16"
        }
      ],
      "outputs": [],
      "stateMutability": "nonpayable"
    },
    {
      "type": "function",
      "name": "isAVSRewardsSubmissionHash",
      "inputs": [
        {
          "name": "avs",
          "type": "address",
          "internalType": "address"
        },
        {
          "name": "hash",
          "type": "bytes32",
          "internalType": "bytes32"
        }
      ],
      "outputs": [
        {
          "name": "valid",
          "type": "bool",
          "internalType": "bool"
        }
      ],
      "stateMutability": "view"
    },
    {
      "type": "function",
      "name": "isOperatorDirectedAVSRewardsSubmissionHash",
      "inputs": [
        {
          "name": "",
          "type": "address",
          "internalType": "address"
        },
        {
          "name": "",
          "type": "bytes32",
          "internalType": "bytes32"
        }
      ],
      "outputs": [
        {
          "name": "",
          "type": "bool",
          "internalType": "bool"
        }
      ],
      "stateMutability": "view"
    },
    {
      "type": "function",
      "name": "isRewardsForAllSubmitter",
      "inputs": [
        {
          "name": "submitter",
          "type": "address",
          "internalType": "address"
        }
      ],
      "outputs": [
        {
          "name": "valid",
          "type": "bool",
          "internalType": "bool"
        }
      ],
      "stateMutability": "view"
    },
    {
      "type": "function",
      "name": "isRewardsSubmissionForAllEarnersHash",
      "inputs": [
        {
          "name": "avs",
          "type": "address",
          "internalType": "address"
        },
        {
          "name": "hash",
          "type": "bytes32",
          "internalType": "bytes32"
        }
      ],
      "outputs": [
        {
          "name": "valid",
          "type": "bool",
          "internalType": "bool"
        }
      ],
      "stateMutability": "view"
    },
    {
      "type": "function",
      "name": "isRewardsSubmissionForAllHash",
      "inputs": [
        {
          "name": "avs",
          "type": "address",
          "internalType": "address"
        },
        {
          "name": "hash",
          "type": "bytes32",
          "internalType": "bytes32"
        }
      ],
      "outputs": [
        {
          "name": "valid",
          "type": "bool",
          "internalType": "bool"
        }
      ],
      "stateMutability": "view"
    },
    {
      "type": "function",
      "name": "owner",
      "inputs": [],
      "outputs": [
        {
          "name": "",
          "type": "address",
          "internalType": "address"
        }
      ],
      "stateMutability": "view"
    },
    {
      "type": "function",
      "name": "pause",
      "inputs": [
        {
          "name": "newPausedStatus",
          "type": "uint256",
          "internalType": "uint256"
        }
      ],
      "outputs": [],
      "stateMutability": "nonpayable"
    },
    {
      "type": "function",
      "name": "pauseAll",
      "inputs": [],
      "outputs": [],
      "stateMutability": "nonpayable"
    },
    {
      "type": "function",
      "name": "paused",
      "inputs": [
        {
          "name": "index",
          "type": "uint8",
          "internalType": "uint8"
        }
      ],
      "outputs": [
        {
          "name": "",
          "type": "bool",
          "internalType": "bool"
        }
      ],
      "stateMutability": "view"
    },
    {
      "type": "function",
      "name": "paused",
      "inputs": [],
      "outputs": [
        {
          "name": "",
          "type": "uint256",
          "internalType": "uint256"
        }
      ],
      "stateMutability": "view"
    },
    {
      "type": "function",
      "name": "pauserRegistry",
      "inputs": [],
      "outputs": [
        {
          "name": "",
          "type": "address",
          "internalType": "contract IPauserRegistry"
        }
      ],
      "stateMutability": "view"
    },
    {
      "type": "function",
      "name": "permissionController",
      "inputs": [],
      "outputs": [
        {
          "name": "",
          "type": "address",
          "internalType": "contract IPermissionController"
        }
      ],
      "stateMutability": "view"
    },
    {
      "type": "function",
      "name": "processClaim",
      "inputs": [
        {
          "name": "claim",
          "type": "tuple",
          "internalType": "struct IRewardsCoordinatorTypes.RewardsMerkleClaim",
          "components": [
            {
              "name": "rootIndex",
              "type": "uint32",
              "internalType": "uint32"
            },
            {
              "name": "earnerIndex",
              "type": "uint32",
              "internalType": "uint32"
            },
            {
              "name": "earnerTreeProof",
              "type": "bytes",
              "internalType": "bytes"
            },
            {
              "name": "earnerLeaf",
              "type": "tuple",
              "internalType": "struct IRewardsCoordinatorTypes.EarnerTreeMerkleLeaf",
              "components": [
                {
                  "name": "earner",
                  "type": "address",
                  "internalType": "address"
                },
                {
                  "name": "earnerTokenRoot",
                  "type": "bytes32",
                  "internalType": "bytes32"
                }
              ]
            },
            {
              "name": "tokenIndices",
              "type": "uint32[]",
              "internalType": "uint32[]"
            },
            {
              "name": "tokenTreeProofs",
              "type": "bytes[]",
              "internalType": "bytes[]"
            },
            {
              "name": "tokenLeaves",
              "type": "tuple[]",
              "internalType": "struct IRewardsCoordinatorTypes.TokenTreeMerkleLeaf[]",
              "components": [
                {
                  "name": "token",
                  "type": "address",
                  "internalType": "contract IERC20"
                },
                {
                  "name": "cumulativeEarnings",
                  "type": "uint256",
                  "internalType": "uint256"
                }
              ]
            }
          ]
        },
        {
          "name": "recipient",
          "type": "address",
          "internalType": "address"
        }
      ],
      "outputs": [],
      "stateMutability": "nonpayable"
    },
    {
      "type": "function",
      "name": "processClaims",
      "inputs": [
        {
          "name": "claims",
          "type": "tuple[]",
          "internalType": "struct IRewardsCoordinatorTypes.RewardsMerkleClaim[]",
          "components": [
            {
              "name": "rootIndex",
              "type": "uint32",
              "internalType": "uint32"
            },
            {
              "name": "earnerIndex",
              "type": "uint32",
              "internalType": "uint32"
            },
            {
              "name": "earnerTreeProof",
              "type": "bytes",
              "internalType": "bytes"
            },
            {
              "name": "earnerLeaf",
              "type": "tuple",
              "internalType": "struct IRewardsCoordinatorTypes.EarnerTreeMerkleLeaf",
              "components": [
                {
                  "name": "earner",
                  "type": "address",
                  "internalType": "address"
                },
                {
                  "name": "earnerTokenRoot",
                  "type": "bytes32",
                  "internalType": "bytes32"
                }
              ]
            },
            {
              "name": "tokenIndices",
              "type": "uint32[]",
              "internalType": "uint32[]"
            },
            {
              "name": "tokenTreeProofs",
              "type": "bytes[]",
              "internalType": "bytes[]"
            },
            {
              "name": "tokenLeaves",
              "type": "tuple[]",
              "internalType": "struct IRewardsCoordinatorTypes.TokenTreeMerkleLeaf[]",
              "components": [
                {
                  "name": "token",
                  "type": "address",
                  "internalType": "contract IERC20"
                },
                {
                  "name": "cumulativeEarnings",
                  "type": "uint256",
                  "internalType": "uint256"
                }
              ]
            }
          ]
        },
        {
          "name": "recipient",
          "type": "address",
          "internalType": "address"
        }
      ],
      "outputs": [],
      "stateMutability": "nonpayable"
    },
    {
      "type": "function",
      "name": "renounceOwnership",
      "inputs": [],
      "outputs": [],
      "stateMutability": "nonpayable"
    },
    {
      "type": "function",
      "name": "rewardsUpdater",
      "inputs": [],
      "outputs": [
        {
          "name": "",
          "type": "address",
          "internalType": "address"
        }
      ],
      "stateMutability": "view"
    },
    {
      "type": "function",
      "name": "setActivationDelay",
      "inputs": [
        {
          "name": "_activationDelay",
          "type": "uint32",
          "internalType": "uint32"
        }
      ],
      "outputs": [],
      "stateMutability": "nonpayable"
    },
    {
      "type": "function",
      "name": "setClaimerFor",
      "inputs": [
        {
          "name": "claimer",
          "type": "address",
          "internalType": "address"
        }
      ],
      "outputs": [],
      "stateMutability": "nonpayable"
    },
    {
      "type": "function",
      "name": "setClaimerFor",
      "inputs": [
        {
          "name": "earner",
          "type": "address",
          "internalType": "address"
        },
        {
          "name": "claimer",
          "type": "address",
          "internalType": "address"
        }
      ],
      "outputs": [],
      "stateMutability": "nonpayable"
    },
    {
      "type": "function",
      "name": "setDefaultOperatorSplit",
      "inputs": [
        {
          "name": "split",
          "type": "uint16",
          "internalType": "uint16"
        }
      ],
      "outputs": [],
      "stateMutability": "nonpayable"
    },
    {
      "type": "function",
      "name": "setOperatorAVSSplit",
      "inputs": [
        {
          "name": "operator",
          "type": "address",
          "internalType": "address"
        },
        {
          "name": "avs",
          "type": "address",
          "internalType": "address"
        },
        {
          "name": "split",
          "type": "uint16",
          "internalType": "uint16"
        }
      ],
      "outputs": [],
      "stateMutability": "nonpayable"
    },
    {
      "type": "function",
      "name": "setOperatorPISplit",
      "inputs": [
        {
          "name": "operator",
          "type": "address",
          "internalType": "address"
        },
        {
          "name": "split",
          "type": "uint16",
          "internalType": "uint16"
        }
      ],
      "outputs": [],
      "stateMutability": "nonpayable"
    },
    {
      "type": "function",
      "name": "setRewardsForAllSubmitter",
      "inputs": [
        {
          "name": "_submitter",
          "type": "address",
          "internalType": "address"
        },
        {
          "name": "_newValue",
          "type": "bool",
          "internalType": "bool"
        }
      ],
      "outputs": [],
      "stateMutability": "nonpayable"
    },
    {
      "type": "function",
      "name": "setRewardsUpdater",
      "inputs": [
        {
          "name": "_rewardsUpdater",
          "type": "address",
          "internalType": "address"
        }
      ],
      "outputs": [],
      "stateMutability": "nonpayable"
    },
    {
      "type": "function",
      "name": "strategyManager",
      "inputs": [],
      "outputs": [
        {
          "name": "",
          "type": "address",
          "internalType": "contract IStrategyManager"
        }
      ],
      "stateMutability": "view"
    },
    {
      "type": "function",
      "name": "submissionNonce",
      "inputs": [
        {
          "name": "avs",
          "type": "address",
          "internalType": "address"
        }
      ],
      "outputs": [
        {
          "name": "nonce",
          "type": "uint256",
          "internalType": "uint256"
        }
      ],
      "stateMutability": "view"
    },
    {
      "type": "function",
      "name": "submitRoot",
      "inputs": [
        {
          "name": "root",
          "type": "bytes32",
          "internalType": "bytes32"
        },
        {
          "name": "rewardsCalculationEndTimestamp",
          "type": "uint32",
          "internalType": "uint32"
        }
      ],
      "outputs": [],
      "stateMutability": "nonpayable"
    },
    {
      "type": "function",
      "name": "transferOwnership",
      "inputs": [
        {
          "name": "newOwner",
          "type": "address",
          "internalType": "address"
        }
      ],
      "outputs": [],
      "stateMutability": "nonpayable"
    },
    {
      "type": "function",
      "name": "unpause",
      "inputs": [
        {
          "name": "newPausedStatus",
          "type": "uint256",
          "internalType": "uint256"
        }
      ],
      "outputs": [],
      "stateMutability": "nonpayable"
    },
    {
      "type": "event",
      "name": "AVSRewardsSubmissionCreated",
      "inputs": [
        {
          "name": "avs",
          "type": "address",
          "indexed": true,
          "internalType": "address"
        },
        {
          "name": "submissionNonce",
          "type": "uint256",
          "indexed": true,
          "internalType": "uint256"
        },
        {
          "name": "rewardsSubmissionHash",
          "type": "bytes32",
          "indexed": true,
          "internalType": "bytes32"
        },
        {
          "name": "rewardsSubmission",
          "type": "tuple",
          "indexed": false,
          "internalType": "struct IRewardsCoordinatorTypes.RewardsSubmission",
          "components": [
            {
              "name": "strategiesAndMultipliers",
              "type": "tuple[]",
              "internalType": "struct IRewardsCoordinatorTypes.StrategyAndMultiplier[]",
              "components": [
                {
                  "name": "strategy",
                  "type": "address",
                  "internalType": "contract IStrategy"
                },
                {
                  "name": "multiplier",
                  "type": "uint96",
                  "internalType": "uint96"
                }
              ]
            },
            {
              "name": "token",
              "type": "address",
              "internalType": "contract IERC20"
            },
            {
              "name": "amount",
              "type": "uint256",
              "internalType": "uint256"
            },
            {
              "name": "startTimestamp",
              "type": "uint32",
              "internalType": "uint32"
            },
            {
              "name": "duration",
              "type": "uint32",
              "internalType": "uint32"
            }
          ]
        }
      ],
      "anonymous": false
    },
    {
      "type": "event",
      "name": "ActivationDelaySet",
      "inputs": [
        {
          "name": "oldActivationDelay",
          "type": "uint32",
          "indexed": false,
          "internalType": "uint32"
        },
        {
          "name": "newActivationDelay",
          "type": "uint32",
          "indexed": false,
          "internalType": "uint32"
        }
      ],
      "anonymous": false
    },
    {
      "type": "event",
      "name": "ClaimerForSet",
      "inputs": [
        {
          "name": "earner",
          "type": "address",
          "indexed": true,
          "internalType": "address"
        },
        {
          "name": "oldClaimer",
          "type": "address",
          "indexed": true,
          "internalType": "address"
        },
        {
          "name": "claimer",
          "type": "address",
          "indexed": true,
          "internalType": "address"
        }
      ],
      "anonymous": false
    },
    {
      "type": "event",
      "name": "DefaultOperatorSplitBipsSet",
      "inputs": [
        {
          "name": "oldDefaultOperatorSplitBips",
          "type": "uint16",
          "indexed": false,
          "internalType": "uint16"
        },
        {
          "name": "newDefaultOperatorSplitBips",
          "type": "uint16",
          "indexed": false,
          "internalType": "uint16"
        }
      ],
      "anonymous": false
    },
    {
      "type": "event",
      "name": "DistributionRootDisabled",
      "inputs": [
        {
          "name": "rootIndex",
          "type": "uint32",
          "indexed": true,
          "internalType": "uint32"
        }
      ],
      "anonymous": false
    },
    {
      "type": "event",
      "name": "DistributionRootSubmitted",
      "inputs": [
        {
          "name": "rootIndex",
          "type": "uint32",
          "indexed": true,
          "internalType": "uint32"
        },
        {
          "name": "root",
          "type": "bytes32",
          "indexed": true,
          "internalType": "bytes32"
        },
        {
          "name": "rewardsCalculationEndTimestamp",
          "type": "uint32",
          "indexed": true,
          "internalType": "uint32"
        },
        {
          "name": "activatedAt",
          "type": "uint32",
          "indexed": false,
          "internalType": "uint32"
        }
      ],
      "anonymous": false
    },
    {
      "type": "event",
      "name": "Initialized",
      "inputs": [
        {
          "name": "version",
          "type": "uint8",
          "indexed": false,
          "internalType": "uint8"
        }
      ],
      "anonymous": false
    },
    {
      "type": "event",
      "name": "OperatorAVSSplitBipsSet",
      "inputs": [
        {
          "name": "caller",
          "type": "address",
          "indexed": true,
          "internalType": "address"
        },
        {
          "name": "operator",
          "type": "address",
          "indexed": true,
          "internalType": "address"
        },
        {
          "name": "avs",
          "type": "address",
          "indexed": true,
          "internalType": "address"
        },
        {
          "name": "activatedAt",
          "type": "uint32",
          "indexed": false,
          "internalType": "uint32"
        },
        {
          "name": "oldOperatorAVSSplitBips",
          "type": "uint16",
          "indexed": false,
          "internalType": "uint16"
        },
        {
          "name": "newOperatorAVSSplitBips",
          "type": "uint16",
          "indexed": false,
          "internalType": "uint16"
        }
      ],
      "anonymous": false
    },
    {
      "type": "event",
      "name": "OperatorDirectedAVSRewardsSubmissionCreated",
      "inputs": [
        {
          "name": "caller",
          "type": "address",
          "indexed": true,
          "internalType": "address"
        },
        {
          "name": "avs",
          "type": "address",
          "indexed": true,
          "internalType": "address"
        },
        {
          "name": "operatorDirectedRewardsSubmissionHash",
          "type": "bytes32",
          "indexed": true,
          "internalType": "bytes32"
        },
        {
          "name": "submissionNonce",
          "type": "uint256",
          "indexed": false,
          "internalType": "uint256"
        },
        {
          "name": "operatorDirectedRewardsSubmission",
          "type": "tuple",
          "indexed": false,
          "internalType": "struct IRewardsCoordinatorTypes.OperatorDirectedRewardsSubmission",
          "components": [
            {
              "name": "strategiesAndMultipliers",
              "type": "tuple[]",
              "internalType": "struct IRewardsCoordinatorTypes.StrategyAndMultiplier[]",
              "components": [
                {
                  "name": "strategy",
                  "type": "address",
                  "internalType": "contract IStrategy"
                },
                {
                  "name": "multiplier",
                  "type": "uint96",
                  "internalType": "uint96"
                }
              ]
            },
            {
              "name": "token",
              "type": "address",
              "internalType": "contract IERC20"
            },
            {
              "name": "operatorRewards",
              "type": "tuple[]",
              "internalType": "struct IRewardsCoordinatorTypes.OperatorReward[]",
              "components": [
                {
                  "name": "operator",
                  "type": "address",
                  "internalType": "address"
                },
                {
                  "name": "amount",
                  "type": "uint256",
                  "internalType": "uint256"
                }
              ]
            },
            {
              "name": "startTimestamp",
              "type": "uint32",
              "internalType": "uint32"
            },
            {
              "name": "duration",
              "type": "uint32",
              "internalType": "uint32"
            },
            {
              "name": "description",
              "type": "string",
              "internalType": "string"
            }
          ]
        }
      ],
      "anonymous": false
    },
    {
      "type": "event",
      "name": "OperatorPISplitBipsSet",
      "inputs": [
        {
          "name": "caller",
          "type": "address",
          "indexed": true,
          "internalType": "address"
        },
        {
          "name": "operator",
          "type": "address",
          "indexed": true,
          "internalType": "address"
        },
        {
          "name": "activatedAt",
          "type": "uint32",
          "indexed": false,
          "internalType": "uint32"
        },
        {
          "name": "oldOperatorPISplitBips",
          "type": "uint16",
          "indexed": false,
          "internalType": "uint16"
        },
        {
          "name": "newOperatorPISplitBips",
          "type": "uint16",
          "indexed": false,
          "internalType": "uint16"
        }
      ],
      "anonymous": false
    },
    {
      "type": "event",
      "name": "OwnershipTransferred",
      "inputs": [
        {
          "name": "previousOwner",
          "type": "address",
          "indexed": true,
          "internalType": "address"
        },
        {
          "name": "newOwner",
          "type": "address",
          "indexed": true,
          "internalType": "address"
        }
      ],
      "anonymous": false
    },
    {
      "type": "event",
      "name": "Paused",
      "inputs": [
        {
          "name": "account",
          "type": "address",
          "indexed": true,
          "internalType": "address"
        },
        {
          "name": "newPausedStatus",
          "type": "uint256",
          "indexed": false,
          "internalType": "uint256"
        }
      ],
      "anonymous": false
    },
    {
      "type": "event",
      "name": "RewardsClaimed",
      "inputs": [
        {
          "name": "root",
          "type": "bytes32",
          "indexed": false,
          "internalType": "bytes32"
        },
        {
          "name": "earner",
          "type": "address",
          "indexed": true,
          "internalType": "address"
        },
        {
          "name": "claimer",
          "type": "address",
          "indexed": true,
          "internalType": "address"
        },
        {
          "name": "recipient",
          "type": "address",
          "indexed": true,
          "internalType": "address"
        },
        {
          "name": "token",
          "type": "address",
          "indexed": false,
          "internalType": "contract IERC20"
        },
        {
          "name": "claimedAmount",
          "type": "uint256",
          "indexed": false,
          "internalType": "uint256"
        }
      ],
      "anonymous": false
    },
    {
      "type": "event",
      "name": "RewardsForAllSubmitterSet",
      "inputs": [
        {
          "name": "rewardsForAllSubmitter",
          "type": "address",
          "indexed": true,
          "internalType": "address"
        },
        {
          "name": "oldValue",
          "type": "bool",
          "indexed": true,
          "internalType": "bool"
        },
        {
          "name": "newValue",
          "type": "bool",
          "indexed": true,
          "internalType": "bool"
        }
      ],
      "anonymous": false
    },
    {
      "type": "event",
      "name": "RewardsSubmissionForAllCreated",
      "inputs": [
        {
          "name": "submitter",
          "type": "address",
          "indexed": true,
          "internalType": "address"
        },
        {
          "name": "submissionNonce",
          "type": "uint256",
          "indexed": true,
          "internalType": "uint256"
        },
        {
          "name": "rewardsSubmissionHash",
          "type": "bytes32",
          "indexed": true,
          "internalType": "bytes32"
        },
        {
          "name": "rewardsSubmission",
          "type": "tuple",
          "indexed": false,
          "internalType": "struct IRewardsCoordinatorTypes.RewardsSubmission",
          "components": [
            {
              "name": "strategiesAndMultipliers",
              "type": "tuple[]",
              "internalType": "struct IRewardsCoordinatorTypes.StrategyAndMultiplier[]",
              "components": [
                {
                  "name": "strategy",
                  "type": "address",
                  "internalType": "contract IStrategy"
                },
                {
                  "name": "multiplier",
                  "type": "uint96",
                  "internalType": "uint96"
                }
              ]
            },
            {
              "name": "token",
              "type": "address",
              "internalType": "contract IERC20"
            },
            {
              "name": "amount",
              "type": "uint256",
              "internalType": "uint256"
            },
            {
              "name": "startTimestamp",
              "type": "uint32",
              "internalType": "uint32"
            },
            {
              "name": "duration",
              "type": "uint32",
              "internalType": "uint32"
            }
          ]
        }
      ],
      "anonymous": false
    },
    {
      "type": "event",
      "name": "RewardsSubmissionForAllEarnersCreated",
      "inputs": [
        {
          "name": "tokenHopper",
          "type": "address",
          "indexed": true,
          "internalType": "address"
        },
        {
          "name": "submissionNonce",
          "type": "uint256",
          "indexed": true,
          "internalType": "uint256"
        },
        {
          "name": "rewardsSubmissionHash",
          "type": "bytes32",
          "indexed": true,
          "internalType": "bytes32"
        },
        {
          "name": "rewardsSubmission",
          "type": "tuple",
          "indexed": false,
          "internalType": "struct IRewardsCoordinatorTypes.RewardsSubmission",
          "components": [
            {
              "name": "strategiesAndMultipliers",
              "type": "tuple[]",
              "internalType": "struct IRewardsCoordinatorTypes.StrategyAndMultiplier[]",
              "components": [
                {
                  "name": "strategy",
                  "type": "address",
                  "internalType": "contract IStrategy"
                },
                {
                  "name": "multiplier",
                  "type": "uint96",
                  "internalType": "uint96"
                }
              ]
            },
            {
              "name": "token",
              "type": "address",
              "internalType": "contract IERC20"
            },
            {
              "name": "amount",
              "type": "uint256",
              "internalType": "uint256"
            },
            {
              "name": "startTimestamp",
              "type": "uint32",
              "internalType": "uint32"
            },
            {
              "name": "duration",
              "type": "uint32",
              "internalType": "uint32"
            }
          ]
        }
      ],
      "anonymous": false
    },
    {
      "type": "event",
      "name": "RewardsUpdaterSet",
      "inputs": [
        {
          "name": "oldRewardsUpdater",
          "type": "address",
          "indexed": true,
          "internalType": "address"
        },
        {
          "name": "newRewardsUpdater",
          "type": "address",
          "indexed": true,
          "internalType": "address"
        }
      ],
      "anonymous": false
    },
    {
      "type": "event",
      "name": "Unpaused",
      "inputs": [
        {
          "name": "account",
          "type": "address",
          "indexed": true,
          "internalType": "address"
        },
        {
          "name": "newPausedStatus",
          "type": "uint256",
          "indexed": false,
          "internalType": "uint256"
        }
      ],
      "anonymous": false
    },
    {
      "type": "error",
      "name": "AmountExceedsMax",
      "inputs": []
    },
    {
      "type": "error",
      "name": "AmountIsZero",
      "inputs": []
    },
    {
      "type": "error",
      "name": "CurrentlyPaused",
      "inputs": []
    },
    {
      "type": "error",
      "name": "DurationExceedsMax",
      "inputs": []
    },
    {
      "type": "error",
      "name": "EarningsNotGreaterThanClaimed",
      "inputs": []
    },
    {
      "type": "error",
      "name": "InputAddressZero",
      "inputs": []
    },
    {
      "type": "error",
      "name": "InputArrayLengthMismatch",
      "inputs": []
    },
    {
      "type": "error",
      "name": "InputArrayLengthZero",
      "inputs": []
    },
    {
      "type": "error",
      "name": "InvalidAddressZero",
      "inputs": []
    },
    {
      "type": "error",
      "name": "InvalidCalculationIntervalSecondsRemainder",
      "inputs": []
    },
    {
      "type": "error",
      "name": "InvalidClaimProof",
      "inputs": []
    },
    {
      "type": "error",
      "name": "InvalidDurationRemainder",
      "inputs": []
    },
    {
      "type": "error",
      "name": "InvalidEarner",
      "inputs": []
    },
    {
      "type": "error",
      "name": "InvalidEarnerLeafIndex",
      "inputs": []
    },
    {
      "type": "error",
      "name": "InvalidGenesisRewardsTimestampRemainder",
      "inputs": []
    },
    {
      "type": "error",
      "name": "InvalidNewPausedStatus",
      "inputs": []
    },
    {
      "type": "error",
      "name": "InvalidPermissions",
      "inputs": []
    },
    {
      "type": "error",
      "name": "InvalidProofLength",
      "inputs": []
    },
    {
      "type": "error",
      "name": "InvalidRoot",
      "inputs": []
    },
    {
      "type": "error",
      "name": "InvalidRootIndex",
      "inputs": []
    },
    {
      "type": "error",
      "name": "InvalidStartTimestampRemainder",
      "inputs": []
    },
    {
      "type": "error",
      "name": "InvalidTokenLeafIndex",
      "inputs": []
    },
    {
      "type": "error",
      "name": "NewRootMustBeForNewCalculatedPeriod",
      "inputs": []
    },
    {
      "type": "error",
      "name": "OnlyPauser",
      "inputs": []
    },
    {
      "type": "error",
      "name": "OnlyUnpauser",
      "inputs": []
    },
    {
      "type": "error",
      "name": "OperatorsNotInAscendingOrder",
      "inputs": []
    },
    {
      "type": "error",
      "name": "PreviousSplitPending",
      "inputs": []
    },
    {
      "type": "error",
      "name": "RewardsEndTimestampNotElapsed",
      "inputs": []
    },
    {
      "type": "error",
      "name": "RootAlreadyActivated",
      "inputs": []
    },
    {
      "type": "error",
      "name": "RootDisabled",
      "inputs": []
    },
    {
      "type": "error",
      "name": "RootNotActivated",
      "inputs": []
    },
    {
      "type": "error",
      "name": "SplitExceedsMax",
      "inputs": []
    },
    {
      "type": "error",
      "name": "StartTimestampTooFarInFuture",
      "inputs": []
    },
    {
      "type": "error",
      "name": "StartTimestampTooFarInPast",
      "inputs": []
    },
    {
      "type": "error",
      "name": "StrategiesNotInAscendingOrder",
      "inputs": []
    },
    {
      "type": "error",
      "name": "StrategyNotWhitelisted",
      "inputs": []
    },
    {
      "type": "error",
      "name": "SubmissionNotRetroactive",
      "inputs": []
    },
    {
      "type": "error",
      "name": "UnauthorizedCaller",
      "inputs": []
    }
  ],
  "bytecode": {
    "object": "0x6101c0604052348015610010575f5ffd5b506040516142d63803806142d683398101604081905261002f91610211565b858a8a8a88888888888f6001600160a01b038116610060576040516339b190bb60e11b815260040160405180910390fd5b6001600160a01b031660805261007685826102d3565b63ffffffff161561009a57604051630e06bd3160e01b815260040160405180910390fd5b6100a762015180866102d3565b63ffffffff16156100cb5760405163223c7b3960e11b815260040160405180910390fd5b6001600160a01b0397881660a05295871660c05293861660e05263ffffffff9283166101005290821661012052811661014052908116610160521661018052166101a052610117610126565b50505050505050505050610306565b5f54610100900460ff16156101915760405162461bcd60e51b815260206004820152602760248201527f496e697469616c697a61626c653a20636f6e747261637420697320696e697469604482015266616c697a696e6760c81b606482015260840160405180910390fd5b5f5460ff908116146101e0575f805460ff191660ff9081179091556040519081527f7f26b83ff96e1f2b6a682f133852f6798a09c465da95921460cefb38474024989060200160405180910390a15b565b6001600160a01b03811681146101f6575f5ffd5b50565b805163ffffffff8116811461020c575f5ffd5b919050565b5f5f5f5f5f5f5f5f5f5f6101408b8d03121561022b575f5ffd5b8a51610236816101e2565b60208c0151909a50610247816101e2565b60408c0151909950610258816101e2565b60608c0151909850610269816101e2565b60808c015190975061027a816101e2565b955061028860a08c016101f9565b945061029660c08c016101f9565b93506102a460e08c016101f9565b92506102b36101008c016101f9565b91506102c26101208c016101f9565b90509295989b9194979a5092959850565b5f63ffffffff8316806102f457634e487b7160e01b5f52601260045260245ffd5b8063ffffffff84160691505092915050565b60805160a05160c05160e05161010051610120516101405161016051610180516101a051613f066103d05f395f81816105a601526129ee01525f818161045a0152612f2f01525f81816103bc015261233201525f81816105080152612eed01525f818161080c0152612dfd01525f818161076001528181612e4d0152612e9b01525f81816108600152611a2601525f818161052f0152612fca01525f81816108d3015261199601525f81816106f201528181610b62015281816111750152611dcb0152613f065ff3fe608060405234801561000f575f5ffd5b506004361061037c575f3560e01c8063886f1195116101d4578063dcbb03b311610109578063f2fde38b116100a9578063fabc1cbc11610079578063fabc1cbc14610981578063fbf1e2c114610994578063fce36c7d146109a7578063ff9f6cce146109ba575f5ffd5b8063f2fde38b14610935578063f6efbb5914610948578063f8cd84481461095b578063f96abf2e1461096e575f5ffd5b8063e810ce21116100e4578063e810ce21146108bb578063ea4d3c9b146108ce578063ed71e6a2146108f5578063f22cef8514610922575f5ffd5b8063dcbb03b314610882578063de02e50314610895578063e063f81f146108a8575f5ffd5b8063a50a1d9c11610174578063bb7e451f1161014f578063bb7e451f146107e8578063bf21a8aa14610807578063c46db6061461082e578063ca8aa7c71461085b575f5ffd5b8063a50a1d9c14610795578063aebd8bae146107a8578063b3dbb0e0146107d5575f5ffd5b80639be3d4e4116101af5780639be3d4e4146107405780639cb9a5fa146107485780639d45c2811461075b578063a0169ddd14610782575f5ffd5b8063886f1195146106ed5780638da5cb5b146107145780639104c31914610725575f5ffd5b80634596021c116102b55780635c975abb11610255578063715018a611610225578063715018a6146106a05780637b8f8b05146106a8578063863cb9a9146106b0578063865c6953146106c3575f5ffd5b80635c975abb146106435780635e9d83481461064b57806363f6a7981461065e5780636d21117e14610673575f5ffd5b80634d18cc35116102905780634d18cc35146105ee57806358baaa3e14610605578063595c6a67146106185780635ac86ab714610620575f5ffd5b80634596021c1461058e5780634657e26a146105a15780634b943960146105c8575f5ffd5b80632b9f64a41161032057806339b70e38116102fb57806339b70e381461052a5780633a8c0786146105515780633ccc861d146105685780633efe1db61461057b575f5ffd5b80632b9f64a4146104b057806336af41fa146104f057806337838ed014610503575f5ffd5b80630eb383451161035b5780630eb3834514610440578063131433b414610455578063136439dd1461047c578063149bc8721461048f575f5ffd5b806218572c1461038057806304a0c502146103b75780630e9a53cf146103f3575b5f5ffd5b6103a261038e3660046134e6565b60d16020525f908152604090205460ff1681565b60405190151581526020015b60405180910390f35b6103de7f000000000000000000000000000000000000000000000000000000000000000081565b60405163ffffffff90911681526020016103ae565b6103fb6109cd565b6040516103ae91905f6080820190508251825263ffffffff602084015116602083015263ffffffff604084015116604083015260608301511515606083015292915050565b61045361044e36600461350e565b610acd565b005b6103de7f000000000000000000000000000000000000000000000000000000000000000081565b61045361048a366004613545565b610b4d565b6104a261049d366004613572565b610c22565b6040519081526020016103ae565b6104d86104be3660046134e6565b60cc6020525f90815260409020546001600160a01b031681565b6040516001600160a01b0390911681526020016103ae565b6104536104fe3660046135d4565b610c97565b6103de7f000000000000000000000000000000000000000000000000000000000000000081565b6104d87f000000000000000000000000000000000000000000000000000000000000000081565b60cb546103de90600160a01b900463ffffffff1681565b610453610576366004613624565b610e37565b61045361058936600461367b565b610e7c565b61045361059c3660046136a5565b611070565b6104d87f000000000000000000000000000000000000000000000000000000000000000081565b6105db6105d63660046134e6565b6110f1565b60405161ffff90911681526020016103ae565b60cb546103de90600160c01b900463ffffffff1681565b6104536106133660046136f8565b61114c565b610453611160565b6103a261062e366004613711565b606654600160ff9092169190911b9081161490565b6066546104a2565b6103a2610659366004613731565b61120f565b60cb546105db90600160e01b900461ffff1681565b6103a2610681366004613763565b60cf60209081525f928352604080842090915290825290205460ff1681565b61045361129a565b60ca546104a2565b6104536106be3660046134e6565b6112ab565b6104a26106d136600461378d565b60cd60209081525f928352604080842090915290825290205481565b6104d87f000000000000000000000000000000000000000000000000000000000000000081565b6033546001600160a01b03166104d8565b6104d873beac0eeeeeeeeeeeeeeeeeeeeeeeeeeeeeebeac081565b6103fb6112bc565b6104536107563660046137b9565b611358565b6103de7f000000000000000000000000000000000000000000000000000000000000000081565b6104536107903660046134e6565b611503565b6104536107a336600461381b565b61150e565b6103a26107b6366004613763565b60d260209081525f928352604080842090915290825290205460ff1681565b6104536107e3366004613834565b61151f565b6104a26107f63660046134e6565b60ce6020525f908152604090205481565b6103de7f000000000000000000000000000000000000000000000000000000000000000081565b6103a261083c366004613763565b60d060209081525f928352604080842090915290825290205460ff1681565b6104d87f000000000000000000000000000000000000000000000000000000000000000081565b61045361089036600461385e565b611668565b6103fb6108a3366004613545565b6117d3565b6105db6108b636600461378d565b611863565b6103de6108c9366004613545565b6118cf565b6104d87f000000000000000000000000000000000000000000000000000000000000000081565b6103a2610903366004613763565b60d360209081525f928352604080842090915290825290205460ff1681565b61045361093036600461378d565b611950565b6104536109433660046134e6565b611aba565b6104536109563660046138a2565b611b35565b6104a2610969366004613572565b611c6a565b61045361097c3660046136f8565b611c7a565b61045361098f366004613545565b611dc9565b60cb546104d8906001600160a01b031681565b6104536109b53660046135d4565b611edf565b6104536109c83660046135d4565b61202e565b604080516080810182525f80825260208201819052918101829052606081019190915260ca545b8015610aa5575f60ca610a08600184613914565b81548110610a1857610a18613927565b5f91825260209182902060408051608081018252600293909302909101805483526001015463ffffffff80821694840194909452600160201b810490931690820152600160401b90910460ff161580156060830181905291925090610a875750806040015163ffffffff164210155b15610a925792915050565b5080610a9d8161393b565b9150506109f4565b5050604080516080810182525f80825260208201819052918101829052606081019190915290565b610ad56121ad565b6001600160a01b0382165f81815260d1602052604080822054905160ff9091169284151592841515927f4de6293e668df1398422e1def12118052c1539a03cbfedc145895d48d7685f1c9190a4506001600160a01b03919091165f90815260d160205260409020805460ff1916911515919091179055565b60405163237dfb4760e11b81523360048201527f00000000000000000000000000000000000000000000000000000000000000006001600160a01b0316906346fbf68e90602401602060405180830381865afa158015610baf573d5f5f3e3d5ffd5b505050506040513d601f19601f82011682018060405250810190610bd39190613950565b610bf057604051631d77d47760e21b815260040160405180910390fd5b6066548181168114610c155760405163c61dca5d60e01b815260040160405180910390fd5b610c1e82612207565b5050565b5f80610c3160208401846134e6565b8360200135604051602001610c7a9392919060f89390931b6001600160f81b031916835260609190911b6bffffffffffffffffffffffff19166001830152601582015260350190565b604051602081830303815290604052805190602001209050919050565b606654600190600290811603610cc05760405163840a48d560e01b815260040160405180910390fd5b335f90815260d1602052604090205460ff16610cef57604051635c427cd960e01b815260040160405180910390fd5b610cf7612244565b5f5b82811015610e275736848483818110610d1457610d14613927565b9050602002810190610d26919061396b565b335f81815260ce60209081526040808320549051949550939192610d509290918591879101613ab9565b604051602081830303815290604052805190602001209050610d718361229d565b335f90815260d0602090815260408083208484529091529020805460ff19166001908117909155610da3908390613ae8565b335f81815260ce602052604090819020929092559051829184917f51088b8c89628df3a8174002c2a034d0152fce6af8415d651b2a4734bf27048290610dea908890613afb565b60405180910390a4610e1c333060408601803590610e0b90602089016134e6565b6001600160a01b031692919061238d565b505050600101610cf9565b50610e326001609755565b505050565b606654600290600490811603610e605760405163840a48d560e01b815260040160405180910390fd5b610e68612244565b610e7283836123f8565b610e326001609755565b606654600390600890811603610ea55760405163840a48d560e01b815260040160405180910390fd5b60cb546001600160a01b03163314610ed057604051635c427cd960e01b815260040160405180910390fd5b60cb5463ffffffff600160c01b909104811690831611610f0357604051631ca7e50b60e21b815260040160405180910390fd5b428263ffffffff1610610f29576040516306957c9160e11b815260040160405180910390fd5b60ca5460cb545f90610f4890600160a01b900463ffffffff1642613b0d565b6040805160808101825287815263ffffffff87811660208084018281528684168587018181525f6060880181815260ca8054600181018255925297517f42d72674974f694b5f5159593243114d38a5c39c89d6b62fee061ff523240ee160029092029182015592517f42d72674974f694b5f5159593243114d38a5c39c89d6b62fee061ff523240ee290930180549151975193871667ffffffffffffffff1990921691909117600160201b978716979097029690961760ff60401b1916600160401b921515929092029190911790945560cb805463ffffffff60c01b1916600160c01b840217905593519283529394508892908616917fecd866c3c158fa00bf34d803d5f6023000b57080bcb48af004c2b4b46b3afd08910160405180910390a45050505050565b6066546002906004908116036110995760405163840a48d560e01b815260040160405180910390fd5b6110a1612244565b5f5b838110156110e0576110d88585838181106110c0576110c0613927565b90506020028101906110d29190613b29565b846123f8565b6001016110a3565b506110eb6001609755565b50505050565b6001600160a01b0381165f90815260d5602090815260408083208151606081018352905461ffff80821683526201000082041693820193909352600160201b90920463ffffffff169082015261114690612680565b92915050565b6111546121ad565b61115d816126f0565b50565b60405163237dfb4760e11b81523360048201527f00000000000000000000000000000000000000000000000000000000000000006001600160a01b0316906346fbf68e90602401602060405180830381865afa1580156111c2573d5f5f3e3d5ffd5b505050506040513d601f19601f820116820180604052508101906111e69190613950565b61120357604051631d77d47760e21b815260040160405180910390fd5b61120d5f19612207565b565b5f6112928260ca61122360208301836136f8565b63ffffffff168154811061123957611239613927565b5f91825260209182902060408051608081018252600293909302909101805483526001015463ffffffff80821694840194909452600160201b810490931690820152600160401b90910460ff1615156060820152612761565b506001919050565b6112a26121ad565b61120d5f612904565b6112b36121ad565b61115d81612955565b604080516080810182525f80825260208201819052918101829052606081019190915260ca80546112ef90600190613914565b815481106112ff576112ff613927565b5f91825260209182902060408051608081018252600293909302909101805483526001015463ffffffff80821694840194909452600160201b810490931690820152600160401b90910460ff1615156060820152919050565b6066546005906020908116036113815760405163840a48d560e01b815260040160405180910390fd5b8361138b816129b0565b6113a85760405163932d94f760e01b815260040160405180910390fd5b6113b0612244565b5f5b838110156114f157368585838181106113cd576113cd613927565b90506020028101906113df9190613b3d565b6001600160a01b0388165f90815260ce6020908152604080832054905193945092611410918b918591879101613cab565b6040516020818303038152906040528051906020012090505f61143284612a5a565b6001600160a01b038b165f90815260d3602090815260408083208684529091529020805460ff19166001908117909155909150611470908490613ae8565b6001600160a01b038b165f81815260ce60205260409081902092909255905183919033907ffc8888bffd711da60bc5092b33f677d81896fe80ecc677b84cfab8184462b6e0906114c39088908a90613cd1565b60405180910390a46114e1333083610e0b6040890160208a016134e6565b5050600190920191506113b29050565b506114fc6001609755565b5050505050565b33610c1e8183612c40565b6115166121ad565b61115d81612ca3565b6066546007906080908116036115485760405163840a48d560e01b815260040160405180910390fd5b82611552816129b0565b61156f5760405163932d94f760e01b815260040160405180910390fd5b60cb545f9061158b90600160a01b900463ffffffff1642613b0d565b6001600160a01b0386165f90815260d5602090815260408083208151606081018352905461ffff80821683526201000082041693820193909352600160201b90920463ffffffff1690820152919250906115e490612680565b6001600160a01b0387165f90815260d560205260409020909150611609908684612d0e565b6040805163ffffffff8416815261ffff838116602083015287168183015290516001600160a01b0388169133917fd1e028bd664486a46ad26040e999cd2d22e1e9a094ee6afe19fcf64678f16f749181900360600190a3505050505050565b6066546006906040908116036116915760405163840a48d560e01b815260040160405180910390fd5b8361169b816129b0565b6116b85760405163932d94f760e01b815260040160405180910390fd5b60cb545f906116d490600160a01b900463ffffffff1642613b0d565b6001600160a01b038781165f90815260d460209081526040808320938a1683529281528282208351606081018552905461ffff80821683526201000082041692820192909252600160201b90910463ffffffff169281019290925291925061173b90612680565b6001600160a01b038089165f90815260d460209081526040808320938b1683529290522090915061176d908684612d0e565b6040805163ffffffff8416815261ffff838116602083015287168183015290516001600160a01b0388811692908a169133917f48e198b6ae357e529204ee53a8e514c470ff77d9cc8e4f7207f8b5d490ae6934919081900360600190a450505050505050565b604080516080810182525f80825260208201819052918101829052606081019190915260ca828154811061180957611809613927565b5f91825260209182902060408051608081018252600293909302909101805483526001015463ffffffff80821694840194909452600160201b810490931690820152600160401b90910460ff161515606082015292915050565b6001600160a01b038281165f90815260d46020908152604080832093851683529281528282208351606081018552905461ffff80821683526201000082041692820192909252600160201b90910463ffffffff1692810192909252906118c890612680565b9392505050565b60ca545f905b63ffffffff811615611936578260ca6118ef600184613ce9565b63ffffffff168154811061190557611905613927565b905f5260205f2090600202015f015403611924576118c8600182613ce9565b8061192e81613d05565b9150506118d5565b5060405163504570e360e01b815260040160405180910390fd5b8161195a816129b0565b6119775760405163932d94f760e01b815260040160405180910390fd5b6040516336b87bd760e11b81526001600160a01b0384811660048301527f00000000000000000000000000000000000000000000000000000000000000001690636d70f7ae90602401602060405180830381865afa1580156119db573d5f5f3e3d5ffd5b505050506040513d601f19601f820116820180604052508101906119ff9190613950565b80611a93575060405163ba1a84e560e01b81526001600160a01b0384811660048301525f917f00000000000000000000000000000000000000000000000000000000000000009091169063ba1a84e590602401602060405180830381865afa158015611a6d573d5f5f3e3d5ffd5b505050506040513d601f19601f82011682018060405250810190611a919190613d23565b115b611ab05760405163fb494ea160e01b815260040160405180910390fd5b610e328383612c40565b611ac26121ad565b6001600160a01b038116611b2c5760405162461bcd60e51b815260206004820152602660248201527f4f776e61626c653a206e6577206f776e657220697320746865207a65726f206160448201526564647265737360d01b60648201526084015b60405180910390fd5b61115d81612904565b5f54610100900460ff1615808015611b5357505f54600160ff909116105b80611b6c5750303b158015611b6c57505f5460ff166001145b611bcf5760405162461bcd60e51b815260206004820152602e60248201527f496e697469616c697a61626c653a20636f6e747261637420697320616c72656160448201526d191e481a5b9a5d1a585b1a5e995960921b6064820152608401611b23565b5f805460ff191660011790558015611bf0575f805461ff0019166101001790555b611bf985612207565b611c0286612904565b611c0b84612955565b611c14836126f0565b611c1d82612ca3565b8015611c62575f805461ff0019169055604051600181527f7f26b83ff96e1f2b6a682f133852f6798a09c465da95921460cefb38474024989060200160405180910390a15b505050505050565b5f6001610c3160208401846134e6565b606654600390600890811603611ca35760405163840a48d560e01b815260040160405180910390fd5b60cb546001600160a01b03163314611cce57604051635c427cd960e01b815260040160405180910390fd5b60ca5463ffffffff831610611cf6576040516394a8d38960e01b815260040160405180910390fd5b5f60ca8363ffffffff1681548110611d1057611d10613927565b905f5260205f20906002020190508060010160089054906101000a900460ff1615611d4e57604051631b14174b60e01b815260040160405180910390fd5b6001810154600160201b900463ffffffff164210611d7f57604051630c36f66560e21b815260040160405180910390fd5b60018101805460ff60401b1916600160401b17905560405163ffffffff8416907fd850e6e5dfa497b72661fa73df2923464eaed9dc2ff1d3cb82bccbfeabe5c41e905f90a2505050565b7f00000000000000000000000000000000000000000000000000000000000000006001600160a01b031663eab66d7a6040518163ffffffff1660e01b8152600401602060405180830381865afa158015611e25573d5f5f3e3d5ffd5b505050506040513d601f19601f82011682018060405250810190611e499190613d3a565b6001600160a01b0316336001600160a01b031614611e7a5760405163794821ff60e01b815260040160405180910390fd5b60665480198219811614611ea15760405163c61dca5d60e01b815260040160405180910390fd5b606682905560405182815233907f3582d1828e26bf56bd801502bc021ac0bc8afb57c826e4986b45593c8fad389c9060200160405180910390a25050565b6066545f90600190811603611f075760405163840a48d560e01b815260040160405180910390fd5b611f0f612244565b5f5b82811015610e275736848483818110611f2c57611f2c613927565b9050602002810190611f3e919061396b565b335f81815260ce60209081526040808320549051949550939192611f689290918591879101613ab9565b604051602081830303815290604052805190602001209050611f898361229d565b335f90815260cf602090815260408083208484529091529020805460ff19166001908117909155611fbb908390613ae8565b335f81815260ce602052604090819020929092559051829184917f450a367a380c4e339e5ae7340c8464ef27af7781ad9945cfe8abd828f89e628190612002908890613afb565b60405180910390a4612023333060408601803590610e0b90602089016134e6565b505050600101611f11565b6066546004906010908116036120575760405163840a48d560e01b815260040160405180910390fd5b335f90815260d1602052604090205460ff1661208657604051635c427cd960e01b815260040160405180910390fd5b61208e612244565b5f5b82811015610e2757368484838181106120ab576120ab613927565b90506020028101906120bd919061396b565b335f81815260ce602090815260408083205490519495509391926120e79290918591879101613ab9565b6040516020818303038152906040528051906020012090506121088361229d565b335f90815260d2602090815260408083208484529091529020805460ff1916600190811790915561213a908390613ae8565b335f81815260ce602052604090819020929092559051829184917f5251b6fdefcb5d81144e735f69ea4c695fd43b0289ca53dc075033f5fc80068b90612181908890613afb565b60405180910390a46121a2333060408601803590610e0b90602089016134e6565b505050600101612090565b6033546001600160a01b0316331461120d5760405162461bcd60e51b815260206004820181905260248201527f4f776e61626c653a2063616c6c6572206973206e6f7420746865206f776e65726044820152606401611b23565b606681905560405181815233907fab40a374bc51de372200a8bc981af8c9ecdc08dfdaef0bb6e09f88f3c616ef3d9060200160405180910390a250565b6002609754036122965760405162461bcd60e51b815260206004820152601f60248201527f5265656e7472616e637947756172643a207265656e7472616e742063616c6c006044820152606401611b23565b6002609755565b6122cf6122aa8280613d55565b6122ba60808501606086016136f8565b6122ca60a08601608087016136f8565b612ddd565b5f8160400135116122f3576040516310eb483f60e21b815260040160405180910390fd5b6f4b3b4ca85a86c47a098a223fffffffff816040013511156123285760405163070b5a6f60e21b815260040160405180910390fd5b61235863ffffffff7f00000000000000000000000000000000000000000000000000000000000000001642613ae8565b61236860808301606084016136f8565b63ffffffff16111561115d57604051637ee2b44360e01b815260040160405180910390fd5b6040516001600160a01b03808516602483015283166044820152606481018290526110eb9085906323b872dd60e01b906084015b60408051601f198184030181529190526020810180516001600160e01b03166001600160e01b0319909316929092179091526130b5565b5f60ca61240860208501856136f8565b63ffffffff168154811061241e5761241e613927565b5f91825260209182902060408051608081018252600293909302909101805483526001015463ffffffff80821694840194909452600160201b810490931690820152600160401b90910460ff1615156060820152905061247e8382612761565b5f61248f60808501606086016134e6565b6001600160a01b038082165f90815260cc602052604090205491925016806124b45750805b336001600160a01b038216146124dd57604051635c427cd960e01b815260040160405180910390fd5b5f5b6124ec60a0870187613d9b565b9050811015611c62573661250360e0880188613d55565b8381811061251357612513613927565b6001600160a01b0387165f90815260cd602090815260408083209302949094019450929091508290612547908501856134e6565b6001600160a01b03166001600160a01b031681526020019081526020015f205490508082602001351161258d5760405163aa385e8160e01b815260040160405180910390fd5b5f61259c826020850135613914565b6001600160a01b0387165f90815260cd602090815260408220929350850180359291906125c990876134e6565b6001600160a01b031681526020808201929092526040015f209190915561260a90899083906125fa908701876134e6565b6001600160a01b03169190613188565b86516001600160a01b03808a1691878216918916907f9543dbd55580842586a951f0386e24d68a5df99ae29e3b216588b45fd684ce319061264e60208901896134e6565b604080519283526001600160a01b039091166020830152810186905260600160405180910390a45050506001016124df565b5f816040015163ffffffff165f14806126b25750815161ffff9081161480156126b25750816040015163ffffffff1642105b156126ca57505060cb54600160e01b900461ffff1690565b816040015163ffffffff164210156126e3578151611146565b506020015190565b919050565b60cb546040805163ffffffff600160a01b9093048316815291831660208301527faf557c6c02c208794817a705609cfa935f827312a1adfdd26494b6b95dd2b4b3910160405180910390a160cb805463ffffffff909216600160a01b0263ffffffff60a01b19909216919091179055565b80606001511561278457604051631b14174b60e01b815260040160405180910390fd5b806040015163ffffffff164210156127af57604051631437a2bb60e31b815260040160405180910390fd5b6127bc60c0830183613d9b565b90506127cb60a0840184613d9b565b9050146127eb576040516343714afd60e01b815260040160405180910390fd5b6127f860e0830183613d55565b905061280760c0840184613d9b565b905014612827576040516343714afd60e01b815260040160405180910390fd5b80516128539061283d60408501602086016136f8565b61284a6040860186613de1565b866060016131b8565b5f5b61286260a0840184613d9b565b9050811015610e32576128fc608084013561288060a0860186613d9b565b8481811061289057612890613927565b90506020020160208101906128a591906136f8565b6128b260c0870187613d9b565b858181106128c2576128c2613927565b90506020028101906128d49190613de1565b6128e160e0890189613d55565b878181106128f1576128f1613927565b90506040020161325c565b600101612855565b603380546001600160a01b038381166001600160a01b0319831681179093556040519116919082907f8be0079c531659141344cd1fd0a4f28419497f9722a3daafe3b4186f6b6457e0905f90a35050565b60cb546040516001600160a01b038084169216907f237b82f438d75fc568ebab484b75b01d9287b9e98b490b7c23221623b6705dbb905f90a360cb80546001600160a01b0319166001600160a01b0392909216919091179055565b604051631beb2b9760e31b81526001600160a01b0382811660048301523360248301523060448301525f80356001600160e01b0319166064840152917f00000000000000000000000000000000000000000000000000000000000000009091169063df595cb8906084016020604051808303815f875af1158015612a36573d5f5f3e3d5ffd5b505050506040513d601f19601f820116820180604052508101906111469190613950565b5f612a88612a688380613d55565b612a7860808601606087016136f8565b6122ca60a08701608088016136f8565b5f612a966040840184613d55565b905011612ab65760405163796cc52560e01b815260040160405180910390fd5b42612ac760a08401608085016136f8565b612ad760808501606086016136f8565b612ae19190613b0d565b63ffffffff1610612b055760405163150358a160e21b815260040160405180910390fd5b5f80805b612b166040860186613d55565b9050811015612c075736612b2d6040870187613d55565b83818110612b3d57612b3d613927565b6040029190910191505f9050612b5660208301836134e6565b6001600160a01b031603612b7d57604051630863a45360e11b815260040160405180910390fd5b612b8a60208201826134e6565b6001600160a01b0316836001600160a01b031610612bbb576040516310fb47f160e31b815260040160405180910390fd5b5f816020013511612bdf576040516310eb483f60e21b815260040160405180910390fd5b612bec60208201826134e6565b9250612bfc602082013585613ae8565b935050600101612b09565b506f4b3b4ca85a86c47a098a223fffffffff821115612c395760405163070b5a6f60e21b815260040160405180910390fd5b5092915050565b6001600160a01b038083165f81815260cc602052604080822080548686166001600160a01b0319821681179092559151919094169392849290917fbab947934d42e0ad206f25c9cab18b5bb6ae144acfb00f40b4e3aa59590ca3129190a4505050565b60cb546040805161ffff600160e01b9093048316815291831660208301527fe6cd4edfdcc1f6d130ab35f73d72378f3a642944fb4ee5bd84b7807a81ea1c4e910160405180910390a160cb805461ffff909216600160e01b0261ffff60e01b19909216919091179055565b61271061ffff83161115612d355760405163891c63df60e01b815260040160405180910390fd5b8254600160201b900463ffffffff164211612d6357604051637b1e25c560e01b815260040160405180910390fd5b8254600160201b900463ffffffff165f03612d8a57825461ffff191661ffff178355612da1565b825462010000810461ffff1661ffff199091161783555b825463ffffffff909116600160201b0267ffffffff000000001961ffff90931662010000029290921667ffffffffffff00001990911617179055565b82612dfb5760405163796cc52560e01b815260040160405180910390fd5b7f000000000000000000000000000000000000000000000000000000000000000063ffffffff168163ffffffff161115612e4857604051630dd0b9f560e21b815260040160405180910390fd5b612e727f000000000000000000000000000000000000000000000000000000000000000082613e38565b63ffffffff1615612e965760405163ee66470560e01b815260040160405180910390fd5b612ec07f000000000000000000000000000000000000000000000000000000000000000083613e38565b63ffffffff1615612ee457604051633c1a94f160e21b815260040160405180910390fd5b8163ffffffff167f000000000000000000000000000000000000000000000000000000000000000063ffffffff1642612f1d9190613914565b11158015612f5757508163ffffffff167f000000000000000000000000000000000000000000000000000000000000000063ffffffff1611155b612f745760405163041aa75760e11b815260040160405180910390fd5b5f805b84811015611c62575f868683818110612f9257612f92613927565b612fa892602060409092020190810191506134e6565b60405163198f077960e21b81526001600160a01b0380831660048301529192507f00000000000000000000000000000000000000000000000000000000000000009091169063663c1de490602401602060405180830381865afa158015613011573d5f5f3e3d5ffd5b505050506040513d601f19601f820116820180604052508101906130359190613950565b8061305c57506001600160a01b03811673beac0eeeeeeeeeeeeeeeeeeeeeeeeeeeeeebeac0145b61307957604051632efd965160e11b815260040160405180910390fd5b806001600160a01b0316836001600160a01b0316106130ab5760405163dfad9ca160e01b815260040160405180910390fd5b9150600101612f77565b5f613109826040518060400160405280602081526020017f5361666545524332303a206c6f772d6c6576656c2063616c6c206661696c6564815250856001600160a01b031661329a9092919063ffffffff16565b905080515f14806131295750808060200190518101906131299190613950565b610e325760405162461bcd60e51b815260206004820152602a60248201527f5361666545524332303a204552433230206f7065726174696f6e20646964206e6044820152691bdd081cdd58d8d9595960b21b6064820152608401611b23565b6040516001600160a01b038316602482015260448101829052610e3290849063a9059cbb60e01b906064016123c1565b6131c3602083613e5f565b6001901b8463ffffffff16106131eb5760405162c6c39d60e71b815260040160405180910390fd5b5f6131f582610c22565b905061323f84848080601f0160208091040260200160405190810160405280939291908181526020018383808284375f920191909152508a92508591505063ffffffff89166132b0565b611c62576040516369ca16c960e01b815260040160405180910390fd5b613267602083613e5f565b6001901b8463ffffffff16106132905760405163054ff4df60e51b815260040160405180910390fd5b5f6131f582611c6a565b60606132a884845f856132c7565b949350505050565b5f836132bd86858561339e565b1495945050505050565b6060824710156133285760405162461bcd60e51b815260206004820152602660248201527f416464726573733a20696e73756666696369656e742062616c616e636520666f6044820152651c8818d85b1b60d21b6064820152608401611b23565b5f5f866001600160a01b031685876040516133439190613e72565b5f6040518083038185875af1925050503d805f811461337d576040519150601f19603f3d011682016040523d82523d5f602084013e613382565b606091505b509150915061339387838387613435565b979650505050505050565b5f602084516133ad9190613e88565b156133cb576040516313717da960e21b815260040160405180910390fd5b8260205b8551811161342c576133e2600285613e88565b5f0361340357815f528086015160205260405f20915060028404935061341a565b808601515f528160205260405f2091506002840493505b613425602082613ae8565b90506133cf565b50949350505050565b606083156134a35782515f0361349c576001600160a01b0385163b61349c5760405162461bcd60e51b815260206004820152601d60248201527f416464726573733a2063616c6c20746f206e6f6e2d636f6e74726163740000006044820152606401611b23565b50816132a8565b6132a883838151156134b85781518083602001fd5b8060405162461bcd60e51b8152600401611b239190613e9b565b6001600160a01b038116811461115d575f5ffd5b5f602082840312156134f6575f5ffd5b81356118c8816134d2565b801515811461115d575f5ffd5b5f5f6040838503121561351f575f5ffd5b823561352a816134d2565b9150602083013561353a81613501565b809150509250929050565b5f60208284031215613555575f5ffd5b5035919050565b5f6040828403121561356c575f5ffd5b50919050565b5f60408284031215613582575f5ffd5b6118c8838361355c565b5f5f83601f84011261359c575f5ffd5b50813567ffffffffffffffff8111156135b3575f5ffd5b6020830191508360208260051b85010111156135cd575f5ffd5b9250929050565b5f5f602083850312156135e5575f5ffd5b823567ffffffffffffffff8111156135fb575f5ffd5b6136078582860161358c565b90969095509350505050565b5f610100828403121561356c575f5ffd5b5f5f60408385031215613635575f5ffd5b823567ffffffffffffffff81111561364b575f5ffd5b61365785828601613613565b925050602083013561353a816134d2565b803563ffffffff811681146126eb575f5ffd5b5f5f6040838503121561368c575f5ffd5b8235915061369c60208401613668565b90509250929050565b5f5f5f604084860312156136b7575f5ffd5b833567ffffffffffffffff8111156136cd575f5ffd5b6136d98682870161358c565b90945092505060208401356136ed816134d2565b809150509250925092565b5f60208284031215613708575f5ffd5b6118c882613668565b5f60208284031215613721575f5ffd5b813560ff811681146118c8575f5ffd5b5f60208284031215613741575f5ffd5b813567ffffffffffffffff811115613757575f5ffd5b6132a884828501613613565b5f5f60408385031215613774575f5ffd5b823561377f816134d2565b946020939093013593505050565b5f5f6040838503121561379e575f5ffd5b82356137a9816134d2565b9150602083013561353a816134d2565b5f5f5f604084860312156137cb575f5ffd5b83356137d6816134d2565b9250602084013567ffffffffffffffff8111156137f1575f5ffd5b6137fd8682870161358c565b9497909650939450505050565b803561ffff811681146126eb575f5ffd5b5f6020828403121561382b575f5ffd5b6118c88261380a565b5f5f60408385031215613845575f5ffd5b8235613850816134d2565b915061369c6020840161380a565b5f5f5f60608486031215613870575f5ffd5b833561387b816134d2565b9250602084013561388b816134d2565b91506138996040850161380a565b90509250925092565b5f5f5f5f5f60a086880312156138b6575f5ffd5b85356138c1816134d2565b94506020860135935060408601356138d8816134d2565b92506138e660608701613668565b91506138f46080870161380a565b90509295509295909350565b634e487b7160e01b5f52601160045260245ffd5b8181038181111561114657611146613900565b634e487b7160e01b5f52603260045260245ffd5b5f8161394957613949613900565b505f190190565b5f60208284031215613960575f5ffd5b81516118c881613501565b5f8235609e1983360301811261397f575f5ffd5b9190910192915050565b5f5f8335601e1984360301811261399e575f5ffd5b830160208101925035905067ffffffffffffffff8111156139bd575f5ffd5b8060061b36038213156135cd575f5ffd5b8183526020830192505f815f5b84811015613a315781356139ee816134d2565b6001600160a01b0316865260208201356bffffffffffffffffffffffff8116808214613a18575f5ffd5b60208801525060409586019591909101906001016139db565b5093949350505050565b5f613a468283613989565b60a08552613a5860a0860182846139ce565b9150506020830135613a69816134d2565b6001600160a01b031660208501526040838101359085015263ffffffff613a9260608501613668565b16606085015263ffffffff613aa960808501613668565b1660808501528091505092915050565b60018060a01b0384168152826020820152606060408201525f613adf6060830184613a3b565b95945050505050565b8082018082111561114657611146613900565b602081525f6118c86020830184613a3b565b63ffffffff818116838216019081111561114657611146613900565b5f823560fe1983360301811261397f575f5ffd5b5f823560be1983360301811261397f575f5ffd5b5f5f8335601e19843603018112613b66575f5ffd5b830160208101925035905067ffffffffffffffff811115613b85575f5ffd5b8036038213156135cd575f5ffd5b81835281816020850137505f828201602090810191909152601f909101601f19169091010190565b5f613bc68283613989565b60c08552613bd860c0860182846139ce565b9150506020830135613be9816134d2565b6001600160a01b03166020850152613c046040840184613989565b858303604087015280835290915f91906020015b81831015613c53578335613c2b816134d2565b6001600160a01b03168152602084810135908201526040938401936001939093019201613c18565b613c5f60608701613668565b63ffffffff811660608901529350613c7960808701613668565b63ffffffff811660808901529350613c9460a0870187613b51565b9450925086810360a0880152613393818585613b93565b60018060a01b0384168152826020820152606060408201525f613adf6060830184613bbb565b828152604060208201525f6132a86040830184613bbb565b63ffffffff828116828216039081111561114657611146613900565b5f63ffffffff821680613d1a57613d1a613900565b5f190192915050565b5f60208284031215613d33575f5ffd5b5051919050565b5f60208284031215613d4a575f5ffd5b81516118c8816134d2565b5f5f8335601e19843603018112613d6a575f5ffd5b83018035915067ffffffffffffffff821115613d84575f5ffd5b6020019150600681901b36038213156135cd575f5ffd5b5f5f8335601e19843603018112613db0575f5ffd5b83018035915067ffffffffffffffff821115613dca575f5ffd5b6020019150600581901b36038213156135cd575f5ffd5b5f5f8335601e19843603018112613df6575f5ffd5b83018035915067ffffffffffffffff821115613e10575f5ffd5b6020019150368190038213156135cd575f5ffd5b634e487b7160e01b5f52601260045260245ffd5b5f63ffffffff831680613e4d57613e4d613e24565b8063ffffffff84160691505092915050565b5f82613e6d57613e6d613e24565b500490565b5f82518060208501845e5f920191825250919050565b5f82613e9657613e96613e24565b500690565b602081525f82518060208401528060208501604085015e5f604082850101526040601f19601f8301168401019150509291505056fea26469706673582212208790d4148db94f85bd6737fbe5f642acd7803e9435c56b59aa09980a5aa9a4bf64736f6c634300081b0033",
    "linkReferences": {}
  },
  "methodIdentifiers": {
    "CALCULATION_INTERVAL_SECONDS()": "9d45c281",
    "GENESIS_REWARDS_TIMESTAMP()": "131433b4",
    "MAX_FUTURE_LENGTH()": "04a0c502",
    "MAX_RETROACTIVE_LENGTH()": "37838ed0",
    "MAX_REWARDS_DURATION()": "bf21a8aa",
    "activationDelay()": "3a8c0786",
    "allocationManager()": "ca8aa7c7",
    "beaconChainETHStrategy()": "9104c319",
    "calculateEarnerLeafHash((address,bytes32))": "149bc872",
    "calculateTokenLeafHash((address,uint256))": "f8cd8448",
    "checkClaim((uint32,uint32,bytes,(address,bytes32),uint32[],bytes[],(address,uint256)[]))": "5e9d8348",
    "claimerFor(address)": "2b9f64a4",
    "createAVSRewardsSubmission(((address,uint96)[],address,uint256,uint32,uint32)[])": "fce36c7d",
    "createOperatorDirectedAVSRewardsSubmission(address,((address,uint96)[],address,(address,uint256)[],uint32,uint32,string)[])": "9cb9a5fa",
    "createRewardsForAllEarners(((address,uint96)[],address,uint256,uint32,uint32)[])": "ff9f6cce",
    "createRewardsForAllSubmission(((address,uint96)[],address,uint256,uint32,uint32)[])": "36af41fa",
    "cumulativeClaimed(address,address)": "865c6953",
    "currRewardsCalculationEndTimestamp()": "4d18cc35",
    "defaultOperatorSplitBips()": "63f6a798",
    "delegationManager()": "ea4d3c9b",
    "disableRoot(uint32)": "f96abf2e",
    "getCurrentClaimableDistributionRoot()": "0e9a53cf",
    "getCurrentDistributionRoot()": "9be3d4e4",
    "getDistributionRootAtIndex(uint256)": "de02e503",
    "getDistributionRootsLength()": "7b8f8b05",
    "getOperatorAVSSplit(address,address)": "e063f81f",
    "getOperatorPISplit(address)": "4b943960",
    "getRootIndexFromHash(bytes32)": "e810ce21",
    "initialize(address,uint256,address,uint32,uint16)": "f6efbb59",
    "isAVSRewardsSubmissionHash(address,bytes32)": "6d21117e",
    "isOperatorDirectedAVSRewardsSubmissionHash(address,bytes32)": "ed71e6a2",
    "isRewardsForAllSubmitter(address)": "0018572c",
    "isRewardsSubmissionForAllEarnersHash(address,bytes32)": "aebd8bae",
    "isRewardsSubmissionForAllHash(address,bytes32)": "c46db606",
    "owner()": "8da5cb5b",
    "pause(uint256)": "136439dd",
    "pauseAll()": "595c6a67",
    "paused()": "5c975abb",
    "paused(uint8)": "5ac86ab7",
    "pauserRegistry()": "886f1195",
    "permissionController()": "4657e26a",
    "processClaim((uint32,uint32,bytes,(address,bytes32),uint32[],bytes[],(address,uint256)[]),address)": "3ccc861d",
    "processClaims((uint32,uint32,bytes,(address,bytes32),uint32[],bytes[],(address,uint256)[])[],address)": "4596021c",
    "renounceOwnership()": "715018a6",
    "rewardsUpdater()": "fbf1e2c1",
    "setActivationDelay(uint32)": "58baaa3e",
    "setClaimerFor(address)": "a0169ddd",
    "setClaimerFor(address,address)": "f22cef85",
    "setDefaultOperatorSplit(uint16)": "a50a1d9c",
    "setOperatorAVSSplit(address,address,uint16)": "dcbb03b3",
    "setOperatorPISplit(address,uint16)": "b3dbb0e0",
    "setRewardsForAllSubmitter(address,bool)": "0eb38345",
    "setRewardsUpdater(address)": "863cb9a9",
    "strategyManager()": "39b70e38",
    "submissionNonce(address)": "bb7e451f",
    "submitRoot(bytes32,uint32)": "3efe1db6",
    "transferOwnership(address)": "f2fde38b",
    "unpause(uint256)": "fabc1cbc"
  },
  "id": 151
}