{
  "abi": [
    {
      "type": "constructor",
      "inputs": [
        {
          "name": "_strategyManager",
          "type": "address",
          "internalType": "contract IStrategyManager"
        },
        {
          "name": "_pauserRegistry",
          "type": "address",
          "internalType": "contract IPauserRegistry"
        }
      ],
      "stateMutability": "nonpayable"
    },
    {
      "type": "function",
      "name": "EIGEN",
      "inputs": [],
      "outputs": [
        {
          "name": "",
          "type": "address",
          "internalType": "contract IEigen"
        }
      ],
      "stateMutability": "view"
    },
    {
      "type": "function",
      "name": "deposit",
      "inputs": [
        {
          "name": "token",
          "type": "address",
          "internalType": "contract IERC20"
        },
        {
          "name": "amount",
          "type": "uint256",
          "internalType": "uint256"
        }
      ],
      "outputs": [
        {
          "name": "newShares",
          "type": "uint256",
          "internalType": "uint256"
        }
      ],
      "stateMutability": "nonpayable"
    },
    {
      "type": "function",
      "name": "explanation",
      "inputs": [],
      "outputs": [
        {
          "name": "",
          "type": "string",
          "internalType": "string"
        }
      ],
      "stateMutability": "pure"
    },
    {
      "type": "function",
      "name": "initialize",
      "inputs": [
        {
          "name": "_EIGEN",
          "type": "address",
          "internalType": "contract IEigen"
        },
        {
          "name": "_bEIGEN",
          "type": "address",
          "internalType": "contract IERC20"
        }
      ],
      "outputs": [],
      "stateMutability": "nonpayable"
    },
    {
      "type": "function",
      "name": "initialize",
      "inputs": [
        {
          "name": "_underlyingToken",
          "type": "address",
          "internalType": "contract IERC20"
        }
      ],
      "outputs": [],
      "stateMutability": "nonpayable"
    },
    {
      "type": "function",
      "name": "pause",
      "inputs": [
        {
          "name": "newPausedStatus",
          "type": "uint256",
          "internalType": "uint256"
        }
      ],
      "outputs": [],
      "stateMutability": "nonpayable"
    },
    {
      "type": "function",
      "name": "pauseAll",
      "inputs": [],
      "outputs": [],
      "stateMutability": "nonpayable"
    },
    {
      "type": "function",
      "name": "paused",
      "inputs": [
        {
          "name": "index",
          "type": "uint8",
          "internalType": "uint8"
        }
      ],
      "outputs": [
        {
          "name": "",
          "type": "bool",
          "internalType": "bool"
        }
      ],
      "stateMutability": "view"
    },
    {
      "type": "function",
      "name": "paused",
      "inputs": [],
      "outputs": [
        {
          "name": "",
          "type": "uint256",
          "internalType": "uint256"
        }
      ],
      "stateMutability": "view"
    },
    {
      "type": "function",
      "name": "pauserRegistry",
      "inputs": [],
      "outputs": [
        {
          "name": "",
          "type": "address",
          "internalType": "contract IPauserRegistry"
        }
      ],
      "stateMutability": "view"
    },
    {
      "type": "function",
      "name": "shares",
      "inputs": [
        {
          "name": "user",
          "type": "address",
          "internalType": "address"
        }
      ],
      "outputs": [
        {
          "name": "",
          "type": "uint256",
          "internalType": "uint256"
        }
      ],
      "stateMutability": "view"
    },
    {
      "type": "function",
      "name": "sharesToUnderlying",
      "inputs": [
        {
          "name": "amountShares",
          "type": "uint256",
          "internalType": "uint256"
        }
      ],
      "outputs": [
        {
          "name": "",
          "type": "uint256",
          "internalType": "uint256"
        }
      ],
      "stateMutability": "view"
    },
    {
      "type": "function",
      "name": "sharesToUnderlyingView",
      "inputs": [
        {
          "name": "amountShares",
          "type": "uint256",
          "internalType": "uint256"
        }
      ],
      "outputs": [
        {
          "name": "",
          "type": "uint256",
          "internalType": "uint256"
        }
      ],
      "stateMutability": "view"
    },
    {
      "type": "function",
      "name": "strategyManager",
      "inputs": [],
      "outputs": [
        {
          "name": "",
          "type": "address",
          "internalType": "contract IStrategyManager"
        }
      ],
      "stateMutability": "view"
    },
    {
      "type": "function",
      "name": "totalShares",
      "inputs": [],
      "outputs": [
        {
          "name": "",
          "type": "uint256",
          "internalType": "uint256"
        }
      ],
      "stateMutability": "view"
    },
    {
      "type": "function",
      "name": "underlyingToShares",
      "inputs": [
        {
          "name": "amountUnderlying",
          "type": "uint256",
          "internalType": "uint256"
        }
      ],
      "outputs": [
        {
          "name": "",
          "type": "uint256",
          "internalType": "uint256"
        }
      ],
      "stateMutability": "view"
    },
    {
      "type": "function",
      "name": "underlyingToSharesView",
      "inputs": [
        {
          "name": "amountUnderlying",
          "type": "uint256",
          "internalType": "uint256"
        }
      ],
      "outputs": [
        {
          "name": "",
          "type": "uint256",
          "internalType": "uint256"
        }
      ],
      "stateMutability": "view"
    },
    {
      "type": "function",
      "name": "underlyingToken",
      "inputs": [],
      "outputs": [
        {
          "name": "",
          "type": "address",
          "internalType": "contract IERC20"
        }
      ],
      "stateMutability": "view"
    },
    {
      "type": "function",
      "name": "unpause",
      "inputs": [
        {
          "name": "newPausedStatus",
          "type": "uint256",
          "internalType": "uint256"
        }
      ],
      "outputs": [],
      "stateMutability": "nonpayable"
    },
    {
      "type": "function",
      "name": "userUnderlying",
      "inputs": [
        {
          "name": "user",
          "type": "address",
          "internalType": "address"
        }
      ],
      "outputs": [
        {
          "name": "",
          "type": "uint256",
          "internalType": "uint256"
        }
      ],
      "stateMutability": "nonpayable"
    },
    {
      "type": "function",
      "name": "userUnderlyingView",
      "inputs": [
        {
          "name": "user",
          "type": "address",
          "internalType": "address"
        }
      ],
      "outputs": [
        {
          "name": "",
          "type": "uint256",
          "internalType": "uint256"
        }
      ],
      "stateMutability": "view"
    },
    {
      "type": "function",
      "name": "withdraw",
      "inputs": [
        {
          "name": "recipient",
          "type": "address",
          "internalType": "address"
        },
        {
          "name": "token",
          "type": "address",
          "internalType": "contract IERC20"
        },
        {
          "name": "amountShares",
          "type": "uint256",
          "internalType": "uint256"
        }
      ],
      "outputs": [],
      "stateMutability": "nonpayable"
    },
    {
      "type": "event",
      "name": "ExchangeRateEmitted",
      "inputs": [
        {
          "name": "rate",
          "type": "uint256",
          "indexed": false,
          "internalType": "uint256"
        }
      ],
      "anonymous": false
    },
    {
      "type": "event",
      "name": "Initialized",
      "inputs": [
        {
          "name": "version",
          "type": "uint8",
          "indexed": false,
          "internalType": "uint8"
        }
      ],
      "anonymous": false
    },
    {
      "type": "event",
      "name": "Paused",
      "inputs": [
        {
          "name": "account",
          "type": "address",
          "indexed": true,
          "internalType": "address"
        },
        {
          "name": "newPausedStatus",
          "type": "uint256",
          "indexed": false,
          "internalType": "uint256"
        }
      ],
      "anonymous": false
    },
    {
      "type": "event",
      "name": "StrategyTokenSet",
      "inputs": [
        {
          "name": "token",
          "type": "address",
          "indexed": false,
          "internalType": "contract IERC20"
        },
        {
          "name": "decimals",
          "type": "uint8",
          "indexed": false,
          "internalType": "uint8"
        }
      ],
      "anonymous": false
    },
    {
      "type": "event",
      "name": "Unpaused",
      "inputs": [
        {
          "name": "account",
          "type": "address",
          "indexed": true,
          "internalType": "address"
        },
        {
          "name": "newPausedStatus",
          "type": "uint256",
          "indexed": false,
          "internalType": "uint256"
        }
      ],
      "anonymous": false
    },
    {
      "type": "error",
      "name": "BalanceExceedsMaxTotalDeposits",
      "inputs": []
    },
    {
      "type": "error",
      "name": "CurrentlyPaused",
      "inputs": []
    },
    {
      "type": "error",
      "name": "InputAddressZero",
      "inputs": []
    },
    {
      "type": "error",
      "name": "InvalidNewPausedStatus",
      "inputs": []
    },
    {
      "type": "error",
      "name": "MaxPerDepositExceedsMax",
      "inputs": []
    },
    {
      "type": "error",
      "name": "NewSharesZero",
      "inputs": []
    },
    {
      "type": "error",
      "name": "OnlyPauser",
      "inputs": []
    },
    {
      "type": "error",
      "name": "OnlyStrategyManager",
      "inputs": []
    },
    {
      "type": "error",
      "name": "OnlyUnderlyingToken",
      "inputs": []
    },
    {
      "type": "error",
      "name": "OnlyUnpauser",
      "inputs": []
    },
    {
      "type": "error",
      "name": "TotalSharesExceedsMax",
      "inputs": []
    },
    {
      "type": "error",
      "name": "WithdrawalAmountExceedsTotalDeposits",
      "inputs": []
    }
  ],
  "bytecode": {
    "object": "0x60c060405234801561000f575f5ffd5b5060405161168d38038061168d83398101604081905261002e9161014f565b8181806001600160a01b038116610058576040516339b190bb60e11b815260040160405180910390fd5b6001600160a01b03908116608052821660a05261007361007c565b50505050610187565b5f54610100900460ff16156100e75760405162461bcd60e51b815260206004820152602760248201527f496e697469616c697a61626c653a20636f6e747261637420697320696e697469604482015266616c697a696e6760c81b606482015260840160405180910390fd5b5f5460ff90811614610136575f805460ff191660ff9081179091556040519081527f7f26b83ff96e1f2b6a682f133852f6798a09c465da95921460cefb38474024989060200160405180910390a15b565b6001600160a01b038116811461014c575f5ffd5b50565b5f5f60408385031215610160575f5ffd5b825161016b81610138565b602084015190925061017c81610138565b809150509250929050565b60805160a0516114bb6101d25f395f818161018b0152818161043e01528181610871015261090e01525f81816102540152818161034b0152818161066a0152610a3c01526114bb5ff3fe608060405234801561000f575f5ffd5b506004361061013d575f3560e01c8063886f1195116100b4578063ce7c2ac211610079578063ce7c2ac2146102c4578063d9caed12146102d7578063e3dae51c146102ea578063f3e73875146102fd578063fabc1cbc14610310578063fdc371ce14610323575f5ffd5b8063886f11951461024f5780638c871019146102765780638f6a624014610289578063ab5921e11461029c578063c4d66de8146102b1575f5ffd5b8063485cc95511610105578063485cc955146101d7578063553ca5f8146101ea578063595c6a67146101fd5780635ac86ab7146102055780635c975abb146102345780637a8b26371461023c575f5ffd5b8063136439dd146101415780632495a5991461015657806339b70e38146101865780633a98ef39146101ad57806347e7ef24146101c4575b5f5ffd5b61015461014f3660046111ab565b610336565b005b603254610169906001600160a01b031681565b6040516001600160a01b0390911681526020015b60405180910390f35b6101697f000000000000000000000000000000000000000000000000000000000000000081565b6101b660335481565b60405190815260200161017d565b6101b66101d23660046111d9565b61040b565b6101546101e5366004611203565b610557565b6101b66101f836600461123a565b610642565b610154610655565b61022461021336600461126a565b6001805460ff9092161b9081161490565b604051901515815260200161017d565b6001546101b6565b6101b661024a3660046111ab565b610704565b6101697f000000000000000000000000000000000000000000000000000000000000000081565b6101b66102843660046111ab565b61074d565b6101b661029736600461123a565b610757565b6102a4610764565b60405161017d9190611285565b6101546102bf36600461123a565b610784565b6101b66102d236600461123a565b61084a565b6101546102e53660046112ba565b6108dc565b6101b66102f83660046111ab565b6109f9565b6101b661030b3660046111ab565b610a30565b61015461031e3660046111ab565b610a3a565b606454610169906001600160a01b031681565b60405163237dfb4760e11b81523360048201527f00000000000000000000000000000000000000000000000000000000000000006001600160a01b0316906346fbf68e90602401602060405180830381865afa158015610398573d5f5f3e3d5ffd5b505050506040513d601f19601f820116820180604052508101906103bc91906112f8565b6103d957604051631d77d47760e21b815260040160405180910390fd5b60015481811681146103fe5760405163c61dca5d60e01b815260040160405180910390fd5b61040782610b50565b5050565b600180545f9182918116036104335760405163840a48d560e01b815260040160405180910390fd5b336001600160a01b037f0000000000000000000000000000000000000000000000000000000000000000161461047c576040516348da714f60e01b815260040160405180910390fd5b6104868484610b8d565b6033545f6104966103e88361132b565b90505f6103e86104a4610c46565b6104ae919061132b565b90505f6104bb878361133e565b9050806104c88489611351565b6104d29190611368565b9550855f036104f457604051630c392ed360e11b815260040160405180910390fd5b6104fe868561132b565b60338190556f4b3b4ca85a86c47a098a223fffffffff101561053357604051632f14e8a360e11b815260040160405180910390fd5b61054c826103e8603354610547919061132b565b610cb5565b505050505092915050565b5f54610100900460ff161580801561057557505f54600160ff909116105b8061058e5750303b15801561058e57505f5460ff166001145b6105b35760405162461bcd60e51b81526004016105aa90611387565b60405180910390fd5b5f805460ff1916600117905580156105d4575f805461ff0019166101001790555b606480546001600160a01b0319166001600160a01b0385161790556105f882610d01565b801561063d575f805461ff0019169055604051600181527f7f26b83ff96e1f2b6a682f133852f6798a09c465da95921460cefb38474024989060200160405180910390a15b505050565b5f61064f61024a8361084a565b92915050565b60405163237dfb4760e11b81523360048201527f00000000000000000000000000000000000000000000000000000000000000006001600160a01b0316906346fbf68e90602401602060405180830381865afa1580156106b7573d5f5f3e3d5ffd5b505050506040513d601f19601f820116820180604052508101906106db91906112f8565b6106f857604051631d77d47760e21b815260040160405180910390fd5b6107025f19610b50565b565b5f5f6103e8603354610716919061132b565b90505f6103e8610724610c46565b61072e919061132b565b90508161073b8583611351565b6107459190611368565b949350505050565b5f61064f826109f9565b5f61064f61030b8361084a565b60606040518060800160405280604d8152602001611439604d9139905090565b5f54610100900460ff16158080156107a257505f54600160ff909116105b806107bb5750303b1580156107bb57505f5460ff166001145b6107d75760405162461bcd60e51b81526004016105aa90611387565b5f805460ff1916600117905580156107f8575f805461ff0019166101001790555b61080182610d01565b8015610407575f805461ff0019169055604051600181527f7f26b83ff96e1f2b6a682f133852f6798a09c465da95921460cefb3847402498906020015b60405180910390a15050565b60405163fe243a1760e01b81526001600160a01b0382811660048301523060248301525f917f00000000000000000000000000000000000000000000000000000000000000009091169063fe243a1790604401602060405180830381865afa1580156108b8573d5f5f3e3d5ffd5b505050506040513d601f19601f8201168201806040525081019061064f91906113d5565b600180546002908116036109035760405163840a48d560e01b815260040160405180910390fd5b336001600160a01b037f0000000000000000000000000000000000000000000000000000000000000000161461094c576040516348da714f60e01b815260040160405180910390fd5b610957848484610e4c565b6033548083111561097b57604051630b469df360e41b815260040160405180910390fd5b5f6109886103e88361132b565b90505f6103e8610996610c46565b6109a0919061132b565b90505f826109ae8784611351565b6109b89190611368565b90506109c4868561133e565b6033556109e46109d4828461133e565b6103e8603354610547919061132b565b6109ef888883610e92565b5050505050505050565b5f5f6103e8603354610a0b919061132b565b90505f6103e8610a19610c46565b610a23919061132b565b90508061073b8386611351565b5f61064f82610704565b7f00000000000000000000000000000000000000000000000000000000000000006001600160a01b031663eab66d7a6040518163ffffffff1660e01b8152600401602060405180830381865afa158015610a96573d5f5f3e3d5ffd5b505050506040513d601f19601f82011682018060405250810190610aba91906113ec565b6001600160a01b0316336001600160a01b031614610aeb5760405163794821ff60e01b815260040160405180910390fd5b60015480198219811614610b125760405163c61dca5d60e01b815260040160405180910390fd5b600182905560405182815233907f3582d1828e26bf56bd801502bc021ac0bc8afb57c826e4986b45593c8fad389c9060200160405180910390a25050565b600181905560405181815233907fab40a374bc51de372200a8bc981af8c9ecdc08dfdaef0bb6e09f88f3c616ef3d9060200160405180910390a250565b6032546001600160a01b0383811691161480610bb657506064546001600160a01b038381169116145b610bd357604051630312abdd60e61b815260040160405180910390fd5b6064546001600160a01b039081169083160361040757606454604051636f074d1f60e11b8152600481018390526001600160a01b039091169063de0e9a3e906024015f604051808303815f87803b158015610c2c575f5ffd5b505af1158015610c3e573d5f5f3e3d5ffd5b505050505050565b6032546040516370a0823160e01b81523060048201525f916001600160a01b0316906370a0823190602401602060405180830381865afa158015610c8c573d5f5f3e3d5ffd5b505050506040513d601f19601f82011682018060405250810190610cb091906113d5565b905090565b7fd2494f3479e5da49d386657c292c610b5b01df313d07c62eb0cfa49924a31be881610ce984670de0b6b3a7640000611351565b610cf39190611368565b60405190815260200161083e565b5f54610100900460ff16610d6b5760405162461bcd60e51b815260206004820152602b60248201527f496e697469616c697a61626c653a20636f6e7472616374206973206e6f74206960448201526a6e697469616c697a696e6760a81b60648201526084016105aa565b603280546001600160a01b0319166001600160a01b038316179055610d8f5f610b50565b7f1c540707b00eb5427b6b774fc799d756516a54aee108b64b327acc55af55750760325f9054906101000a90046001600160a01b0316826001600160a01b031663313ce5676040518163ffffffff1660e01b8152600401602060405180830381865afa158015610e01573d5f5f3e3d5ffd5b505050506040513d601f19601f82011682018060405250810190610e259190611407565b604080516001600160a01b03909316835260ff90911660208301520160405180910390a150565b6032546001600160a01b0383811691161480610e7557506064546001600160a01b038381169116145b61063d57604051630312abdd60e61b815260040160405180910390fd5b6064546001600160a01b0390811690831603610f775760325460405163095ea7b360e01b81526001600160a01b038481166004830152602482018490529091169063095ea7b3906044016020604051808303815f875af1158015610ef8573d5f5f3e3d5ffd5b505050506040513d601f19601f82011682018060405250810190610f1c91906112f8565b50606454604051630ea598cb60e41b8152600481018390526001600160a01b039091169063ea598cb0906024015f604051808303815f87803b158015610f60575f5ffd5b505af1158015610f72573d5f5f3e3d5ffd5b505050505b604080516001600160a01b03858116602483015260448083018590528351808403909101815260649092018352602080830180516001600160e01b031663a9059cbb60e01b17905283518085019094528084527f5361666545524332303a206c6f772d6c6576656c2063616c6c206661696c65649084015261063d92908516918691859185918591905f9061100f908490849061108e565b905080515f148061102f57508080602001905181019061102f91906112f8565b61063d5760405162461bcd60e51b815260206004820152602a60248201527f5361666545524332303a204552433230206f7065726174696f6e20646964206e6044820152691bdd081cdd58d8d9595960b21b60648201526084016105aa565b606061074584845f85855f5f866001600160a01b031685876040516110b39190611422565b5f6040518083038185875af1925050503d805f81146110ed576040519150601f19603f3d011682016040523d82523d5f602084013e6110f2565b606091505b50915091506111038783838761110e565b979650505050505050565b6060831561117c5782515f03611175576001600160a01b0385163b6111755760405162461bcd60e51b815260206004820152601d60248201527f416464726573733a2063616c6c20746f206e6f6e2d636f6e747261637400000060448201526064016105aa565b5081610745565b61074583838151156111915781518083602001fd5b8060405162461bcd60e51b81526004016105aa9190611285565b5f602082840312156111bb575f5ffd5b5035919050565b6001600160a01b03811681146111d6575f5ffd5b50565b5f5f604083850312156111ea575f5ffd5b82356111f5816111c2565b946020939093013593505050565b5f5f60408385031215611214575f5ffd5b823561121f816111c2565b9150602083013561122f816111c2565b809150509250929050565b5f6020828403121561124a575f5ffd5b8135611255816111c2565b9392505050565b60ff811681146111d6575f5ffd5b5f6020828403121561127a575f5ffd5b81356112558161125c565b602081525f82518060208401528060208501604085015e5f604082850101526040601f19601f83011684010191505092915050565b5f5f5f606084860312156112cc575f5ffd5b83356112d7816111c2565b925060208401356112e7816111c2565b929592945050506040919091013590565b5f60208284031215611308575f5ffd5b81518015158114611255575f5ffd5b634e487b7160e01b5f52601160045260245ffd5b8082018082111561064f5761064f611317565b8181038181111561064f5761064f611317565b808202811582820484141761064f5761064f611317565b5f8261138257634e487b7160e01b5f52601260045260245ffd5b500490565b6020808252602e908201527f496e697469616c697a61626c653a20636f6e747261637420697320616c72656160408201526d191e481a5b9a5d1a585b1a5e995960921b606082015260800190565b5f602082840312156113e5575f5ffd5b5051919050565b5f602082840312156113fc575f5ffd5b8151611255816111c2565b5f60208284031215611417575f5ffd5b81516112558161125c565b5f82518060208501845e5f92019182525091905056fe4261736520537472617465677920696d706c656d656e746174696f6e20746f20696e68657269742066726f6d20666f72206d6f726520636f6d706c657820696d706c656d656e746174696f6e73a2646970667358221220852e4408ce84057e68eb07d24cd9e6f3343fe5d55ca3f72cbef7173657e56e6f64736f6c634300081b0033",
    "linkReferences": {}
  },
  "methodIdentifiers": {
    "EIGEN()": "fdc371ce",
    "deposit(address,uint256)": "47e7ef24",
    "explanation()": "ab5921e1",
    "initialize(address)": "c4d66de8",
    "initialize(address,address)": "485cc955",
    "pause(uint256)": "136439dd",
    "pauseAll()": "595c6a67",
    "paused()": "5c975abb",
    "paused(uint8)": "5ac86ab7",
    "pauserRegistry()": "886f1195",
    "shares(address)": "ce7c2ac2",
    "sharesToUnderlying(uint256)": "f3e73875",
    "sharesToUnderlyingView(uint256)": "7a8b2637",
    "strategyManager()": "39b70e38",
    "totalShares()": "3a98ef39",
    "underlyingToShares(uint256)": "8c871019",
    "underlyingToSharesView(uint256)": "e3dae51c",
    "underlyingToken()": "2495a599",
    "unpause(uint256)": "fabc1cbc",
    "userUnderlying(address)": "8f6a6240",
    "userUnderlyingView(address)": "553ca5f8",
    "withdraw(address,address,uint256)": "d9caed12"
  },
  "id": 191
}