{
  "abi": [
    {
      "type": "constructor",
      "inputs": [
        {
          "name": "_delegationManager",
          "type": "address",
          "internalType": "contract IDelegationManager"
        },
        {
          "name": "_strategyManager",
          "type": "address",
          "internalType": "contract IStrategyManager"
        },
        {
          "name": "_CALCULATION_INTERVAL_SECONDS",
          "type": "uint32",
          "internalType": "uint32"
        },
        {
          "name": "_MAX_REWARDS_DURATION",
          "type": "uint32",
          "internalType": "uint32"
        },
        {
          "name": "_MAX_RETROACTIVE_LENGTH",
          "type": "uint32",
          "internalType": "uint32"
        },
        {
          "name": "_MAX_FUTURE_LENGTH",
          "type": "uint32",
          "internalType": "uint32"
        },
        {
          "name": "__GENESIS_REWARDS_TIMESTAMP",
          "type": "uint32",
          "internalType": "uint32"
        }
      ],
      "stateMutability": "nonpayable"
    },
    {
      "type": "function",
      "name": "CALCULATION_INTERVAL_SECONDS",
      "inputs": [],
      "outputs": [
        {
          "name": "",
          "type": "uint32",
          "internalType": "uint32"
        }
      ],
      "stateMutability": "view"
    },
    {
      "type": "function",
      "name": "GENESIS_REWARDS_TIMESTAMP",
      "inputs": [],
      "outputs": [
        {
          "name": "",
          "type": "uint32",
          "internalType": "uint32"
        }
      ],
      "stateMutability": "view"
    },
    {
      "type": "function",
      "name": "MAX_FUTURE_LENGTH",
      "inputs": [],
      "outputs": [
        {
          "name": "",
          "type": "uint32",
          "internalType": "uint32"
        }
      ],
      "stateMutability": "view"
    },
    {
      "type": "function",
      "name": "MAX_RETROACTIVE_LENGTH",
      "inputs": [],
      "outputs": [
        {
          "name": "",
          "type": "uint32",
          "internalType": "uint32"
        }
      ],
      "stateMutability": "view"
    },
    {
      "type": "function",
      "name": "MAX_REWARDS_DURATION",
      "inputs": [],
      "outputs": [
        {
          "name": "",
          "type": "uint32",
          "internalType": "uint32"
        }
      ],
      "stateMutability": "view"
    },
    {
      "type": "function",
      "name": "activationDelay",
      "inputs": [],
      "outputs": [
        {
          "name": "",
          "type": "uint32",
          "internalType": "uint32"
        }
      ],
      "stateMutability": "view"
    },
    {
      "type": "function",
      "name": "beaconChainETHStrategy",
      "inputs": [],
      "outputs": [
        {
          "name": "",
          "type": "address",
          "internalType": "contract IStrategy"
        }
      ],
      "stateMutability": "view"
    },
    {
      "type": "function",
      "name": "calculateEarnerLeafHash",
      "inputs": [
        {
          "name": "leaf",
          "type": "tuple",
          "internalType": "struct IRewardsCoordinator.EarnerTreeMerkleLeaf",
          "components": [
            {
              "name": "earner",
              "type": "address",
              "internalType": "address"
            },
            {
              "name": "earnerTokenRoot",
              "type": "bytes32",
              "internalType": "bytes32"
            }
          ]
        }
      ],
      "outputs": [
        {
          "name": "",
          "type": "bytes32",
          "internalType": "bytes32"
        }
      ],
      "stateMutability": "pure"
    },
    {
      "type": "function",
      "name": "calculateTokenLeafHash",
      "inputs": [
        {
          "name": "leaf",
          "type": "tuple",
          "internalType": "struct IRewardsCoordinator.TokenTreeMerkleLeaf",
          "components": [
            {
              "name": "token",
              "type": "address",
              "internalType": "contract IERC20"
            },
            {
              "name": "cumulativeEarnings",
              "type": "uint256",
              "internalType": "uint256"
            }
          ]
        }
      ],
      "outputs": [
        {
          "name": "",
          "type": "bytes32",
          "internalType": "bytes32"
        }
      ],
      "stateMutability": "pure"
    },
    {
      "type": "function",
      "name": "checkClaim",
      "inputs": [
        {
          "name": "claim",
          "type": "tuple",
          "internalType": "struct IRewardsCoordinator.RewardsMerkleClaim",
          "components": [
            {
              "name": "rootIndex",
              "type": "uint32",
              "internalType": "uint32"
            },
            {
              "name": "earnerIndex",
              "type": "uint32",
              "internalType": "uint32"
            },
            {
              "name": "earnerTreeProof",
              "type": "bytes",
              "internalType": "bytes"
            },
            {
              "name": "earnerLeaf",
              "type": "tuple",
              "internalType": "struct IRewardsCoordinator.EarnerTreeMerkleLeaf",
              "components": [
                {
                  "name": "earner",
                  "type": "address",
                  "internalType": "address"
                },
                {
                  "name": "earnerTokenRoot",
                  "type": "bytes32",
                  "internalType": "bytes32"
                }
              ]
            },
            {
              "name": "tokenIndices",
              "type": "uint32[]",
              "internalType": "uint32[]"
            },
            {
              "name": "tokenTreeProofs",
              "type": "bytes[]",
              "internalType": "bytes[]"
            },
            {
              "name": "tokenLeaves",
              "type": "tuple[]",
              "internalType": "struct IRewardsCoordinator.TokenTreeMerkleLeaf[]",
              "components": [
                {
                  "name": "token",
                  "type": "address",
                  "internalType": "contract IERC20"
                },
                {
                  "name": "cumulativeEarnings",
                  "type": "uint256",
                  "internalType": "uint256"
                }
              ]
            }
          ]
        }
      ],
      "outputs": [
        {
          "name": "",
          "type": "bool",
          "internalType": "bool"
        }
      ],
      "stateMutability": "view"
    },
    {
      "type": "function",
      "name": "claimerFor",
      "inputs": [
        {
          "name": "",
          "type": "address",
          "internalType": "address"
        }
      ],
      "outputs": [
        {
          "name": "",
          "type": "address",
          "internalType": "address"
        }
      ],
      "stateMutability": "view"
    },
    {
      "type": "function",
      "name": "createAVSRewardsSubmission",
      "inputs": [
        {
          "name": "rewardsSubmissions",
          "type": "tuple[]",
          "internalType": "struct IRewardsCoordinator.RewardsSubmission[]",
          "components": [
            {
              "name": "strategiesAndMultipliers",
              "type": "tuple[]",
              "internalType": "struct IRewardsCoordinator.StrategyAndMultiplier[]",
              "components": [
                {
                  "name": "strategy",
                  "type": "address",
                  "internalType": "contract IStrategy"
                },
                {
                  "name": "multiplier",
                  "type": "uint96",
                  "internalType": "uint96"
                }
              ]
            },
            {
              "name": "token",
              "type": "address",
              "internalType": "contract IERC20"
            },
            {
              "name": "amount",
              "type": "uint256",
              "internalType": "uint256"
            },
            {
              "name": "startTimestamp",
              "type": "uint32",
              "internalType": "uint32"
            },
            {
              "name": "duration",
              "type": "uint32",
              "internalType": "uint32"
            }
          ]
        }
      ],
      "outputs": [],
      "stateMutability": "nonpayable"
    },
    {
      "type": "function",
      "name": "createOperatorDirectedAVSRewardsSubmission",
      "inputs": [
        {
          "name": "avs",
          "type": "address",
          "internalType": "address"
        },
        {
          "name": "operatorDirectedRewardsSubmissions",
          "type": "tuple[]",
          "internalType": "struct IRewardsCoordinator.OperatorDirectedRewardsSubmission[]",
          "components": [
            {
              "name": "strategiesAndMultipliers",
              "type": "tuple[]",
              "internalType": "struct IRewardsCoordinator.StrategyAndMultiplier[]",
              "components": [
                {
                  "name": "strategy",
                  "type": "address",
                  "internalType": "contract IStrategy"
                },
                {
                  "name": "multiplier",
                  "type": "uint96",
                  "internalType": "uint96"
                }
              ]
            },
            {
              "name": "token",
              "type": "address",
              "internalType": "contract IERC20"
            },
            {
              "name": "operatorRewards",
              "type": "tuple[]",
              "internalType": "struct IRewardsCoordinator.OperatorReward[]",
              "components": [
                {
                  "name": "operator",
                  "type": "address",
                  "internalType": "address"
                },
                {
                  "name": "amount",
                  "type": "uint256",
                  "internalType": "uint256"
                }
              ]
            },
            {
              "name": "startTimestamp",
              "type": "uint32",
              "internalType": "uint32"
            },
            {
              "name": "duration",
              "type": "uint32",
              "internalType": "uint32"
            },
            {
              "name": "description",
              "type": "string",
              "internalType": "string"
            }
          ]
        }
      ],
      "outputs": [],
      "stateMutability": "nonpayable"
    },
    {
      "type": "function",
      "name": "createRewardsForAllEarners",
      "inputs": [
        {
          "name": "rewardsSubmissions",
          "type": "tuple[]",
          "internalType": "struct IRewardsCoordinator.RewardsSubmission[]",
          "components": [
            {
              "name": "strategiesAndMultipliers",
              "type": "tuple[]",
              "internalType": "struct IRewardsCoordinator.StrategyAndMultiplier[]",
              "components": [
                {
                  "name": "strategy",
                  "type": "address",
                  "internalType": "contract IStrategy"
                },
                {
                  "name": "multiplier",
                  "type": "uint96",
                  "internalType": "uint96"
                }
              ]
            },
            {
              "name": "token",
              "type": "address",
              "internalType": "contract IERC20"
            },
            {
              "name": "amount",
              "type": "uint256",
              "internalType": "uint256"
            },
            {
              "name": "startTimestamp",
              "type": "uint32",
              "internalType": "uint32"
            },
            {
              "name": "duration",
              "type": "uint32",
              "internalType": "uint32"
            }
          ]
        }
      ],
      "outputs": [],
      "stateMutability": "nonpayable"
    },
    {
      "type": "function",
      "name": "createRewardsForAllSubmission",
      "inputs": [
        {
          "name": "rewardsSubmissions",
          "type": "tuple[]",
          "internalType": "struct IRewardsCoordinator.RewardsSubmission[]",
          "components": [
            {
              "name": "strategiesAndMultipliers",
              "type": "tuple[]",
              "internalType": "struct IRewardsCoordinator.StrategyAndMultiplier[]",
              "components": [
                {
                  "name": "strategy",
                  "type": "address",
                  "internalType": "contract IStrategy"
                },
                {
                  "name": "multiplier",
                  "type": "uint96",
                  "internalType": "uint96"
                }
              ]
            },
            {
              "name": "token",
              "type": "address",
              "internalType": "contract IERC20"
            },
            {
              "name": "amount",
              "type": "uint256",
              "internalType": "uint256"
            },
            {
              "name": "startTimestamp",
              "type": "uint32",
              "internalType": "uint32"
            },
            {
              "name": "duration",
              "type": "uint32",
              "internalType": "uint32"
            }
          ]
        }
      ],
      "outputs": [],
      "stateMutability": "nonpayable"
    },
    {
      "type": "function",
      "name": "cumulativeClaimed",
      "inputs": [
        {
          "name": "",
          "type": "address",
          "internalType": "address"
        },
        {
          "name": "",
          "type": "address",
          "internalType": "contract IERC20"
        }
      ],
      "outputs": [
        {
          "name": "",
          "type": "uint256",
          "internalType": "uint256"
        }
      ],
      "stateMutability": "view"
    },
    {
      "type": "function",
      "name": "currRewardsCalculationEndTimestamp",
      "inputs": [],
      "outputs": [
        {
          "name": "",
          "type": "uint32",
          "internalType": "uint32"
        }
      ],
      "stateMutability": "view"
    },
    {
      "type": "function",
      "name": "defaultOperatorSplitBips",
      "inputs": [],
      "outputs": [
        {
          "name": "",
          "type": "uint16",
          "internalType": "uint16"
        }
      ],
      "stateMutability": "view"
    },
    {
      "type": "function",
      "name": "delegationManager",
      "inputs": [],
      "outputs": [
        {
          "name": "",
          "type": "address",
          "internalType": "contract IDelegationManager"
        }
      ],
      "stateMutability": "view"
    },
    {
      "type": "function",
      "name": "disableRoot",
      "inputs": [
        {
          "name": "rootIndex",
          "type": "uint32",
          "internalType": "uint32"
        }
      ],
      "outputs": [],
      "stateMutability": "nonpayable"
    },
    {
      "type": "function",
      "name": "domainSeparator",
      "inputs": [],
      "outputs": [
        {
          "name": "",
          "type": "bytes32",
          "internalType": "bytes32"
        }
      ],
      "stateMutability": "view"
    },
    {
      "type": "function",
      "name": "getCurrentClaimableDistributionRoot",
      "inputs": [],
      "outputs": [
        {
          "name": "",
          "type": "tuple",
          "internalType": "struct IRewardsCoordinator.DistributionRoot",
          "components": [
            {
              "name": "root",
              "type": "bytes32",
              "internalType": "bytes32"
            },
            {
              "name": "rewardsCalculationEndTimestamp",
              "type": "uint32",
              "internalType": "uint32"
            },
            {
              "name": "activatedAt",
              "type": "uint32",
              "internalType": "uint32"
            },
            {
              "name": "disabled",
              "type": "bool",
              "internalType": "bool"
            }
          ]
        }
      ],
      "stateMutability": "view"
    },
    {
      "type": "function",
      "name": "getCurrentDistributionRoot",
      "inputs": [],
      "outputs": [
        {
          "name": "",
          "type": "tuple",
          "internalType": "struct IRewardsCoordinator.DistributionRoot",
          "components": [
            {
              "name": "root",
              "type": "bytes32",
              "internalType": "bytes32"
            },
            {
              "name": "rewardsCalculationEndTimestamp",
              "type": "uint32",
              "internalType": "uint32"
            },
            {
              "name": "activatedAt",
              "type": "uint32",
              "internalType": "uint32"
            },
            {
              "name": "disabled",
              "type": "bool",
              "internalType": "bool"
            }
          ]
        }
      ],
      "stateMutability": "view"
    },
    {
      "type": "function",
      "name": "getDistributionRootAtIndex",
      "inputs": [
        {
          "name": "index",
          "type": "uint256",
          "internalType": "uint256"
        }
      ],
      "outputs": [
        {
          "name": "",
          "type": "tuple",
          "internalType": "struct IRewardsCoordinator.DistributionRoot",
          "components": [
            {
              "name": "root",
              "type": "bytes32",
              "internalType": "bytes32"
            },
            {
              "name": "rewardsCalculationEndTimestamp",
              "type": "uint32",
              "internalType": "uint32"
            },
            {
              "name": "activatedAt",
              "type": "uint32",
              "internalType": "uint32"
            },
            {
              "name": "disabled",
              "type": "bool",
              "internalType": "bool"
            }
          ]
        }
      ],
      "stateMutability": "view"
    },
    {
      "type": "function",
      "name": "getDistributionRootsLength",
      "inputs": [],
      "outputs": [
        {
          "name": "",
          "type": "uint256",
          "internalType": "uint256"
        }
      ],
      "stateMutability": "view"
    },
    {
      "type": "function",
      "name": "getOperatorAVSSplit",
      "inputs": [
        {
          "name": "operator",
          "type": "address",
          "internalType": "address"
        },
        {
          "name": "avs",
          "type": "address",
          "internalType": "address"
        }
      ],
      "outputs": [
        {
          "name": "",
          "type": "uint16",
          "internalType": "uint16"
        }
      ],
      "stateMutability": "view"
    },
    {
      "type": "function",
      "name": "getOperatorPISplit",
      "inputs": [
        {
          "name": "operator",
          "type": "address",
          "internalType": "address"
        }
      ],
      "outputs": [
        {
          "name": "",
          "type": "uint16",
          "internalType": "uint16"
        }
      ],
      "stateMutability": "view"
    },
    {
      "type": "function",
      "name": "getRootIndexFromHash",
      "inputs": [
        {
          "name": "rootHash",
          "type": "bytes32",
          "internalType": "bytes32"
        }
      ],
      "outputs": [
        {
          "name": "",
          "type": "uint32",
          "internalType": "uint32"
        }
      ],
      "stateMutability": "view"
    },
    {
      "type": "function",
      "name": "initialize",
      "inputs": [
        {
          "name": "initialOwner",
          "type": "address",
          "internalType": "address"
        },
        {
          "name": "_pauserRegistry",
          "type": "address",
          "internalType": "contract IPauserRegistry"
        },
        {
          "name": "initialPausedStatus",
          "type": "uint256",
          "internalType": "uint256"
        },
        {
          "name": "_rewardsUpdater",
          "type": "address",
          "internalType": "address"
        },
        {
          "name": "_activationDelay",
          "type": "uint32",
          "internalType": "uint32"
        },
        {
          "name": "_defaultSplitBips",
          "type": "uint16",
          "internalType": "uint16"
        }
      ],
      "outputs": [],
      "stateMutability": "nonpayable"
    },
    {
      "type": "function",
      "name": "isAVSRewardsSubmissionHash",
      "inputs": [
        {
          "name": "",
          "type": "address",
          "internalType": "address"
        },
        {
          "name": "",
          "type": "bytes32",
          "internalType": "bytes32"
        }
      ],
      "outputs": [
        {
          "name": "",
          "type": "bool",
          "internalType": "bool"
        }
      ],
      "stateMutability": "view"
    },
    {
      "type": "function",
      "name": "isOperatorDirectedAVSRewardsSubmissionHash",
      "inputs": [
        {
          "name": "",
          "type": "address",
          "internalType": "address"
        },
        {
          "name": "",
          "type": "bytes32",
          "internalType": "bytes32"
        }
      ],
      "outputs": [
        {
          "name": "",
          "type": "bool",
          "internalType": "bool"
        }
      ],
      "stateMutability": "view"
    },
    {
      "type": "function",
      "name": "isRewardsForAllSubmitter",
      "inputs": [
        {
          "name": "",
          "type": "address",
          "internalType": "address"
        }
      ],
      "outputs": [
        {
          "name": "",
          "type": "bool",
          "internalType": "bool"
        }
      ],
      "stateMutability": "view"
    },
    {
      "type": "function",
      "name": "isRewardsSubmissionForAllEarnersHash",
      "inputs": [
        {
          "name": "",
          "type": "address",
          "internalType": "address"
        },
        {
          "name": "",
          "type": "bytes32",
          "internalType": "bytes32"
        }
      ],
      "outputs": [
        {
          "name": "",
          "type": "bool",
          "internalType": "bool"
        }
      ],
      "stateMutability": "view"
    },
    {
      "type": "function",
      "name": "isRewardsSubmissionForAllHash",
      "inputs": [
        {
          "name": "",
          "type": "address",
          "internalType": "address"
        },
        {
          "name": "",
          "type": "bytes32",
          "internalType": "bytes32"
        }
      ],
      "outputs": [
        {
          "name": "",
          "type": "bool",
          "internalType": "bool"
        }
      ],
      "stateMutability": "view"
    },
    {
      "type": "function",
      "name": "owner",
      "inputs": [],
      "outputs": [
        {
          "name": "",
          "type": "address",
          "internalType": "address"
        }
      ],
      "stateMutability": "view"
    },
    {
      "type": "function",
      "name": "pause",
      "inputs": [
        {
          "name": "newPausedStatus",
          "type": "uint256",
          "internalType": "uint256"
        }
      ],
      "outputs": [],
      "stateMutability": "nonpayable"
    },
    {
      "type": "function",
      "name": "pauseAll",
      "inputs": [],
      "outputs": [],
      "stateMutability": "nonpayable"
    },
    {
      "type": "function",
      "name": "paused",
      "inputs": [
        {
          "name": "index",
          "type": "uint8",
          "internalType": "uint8"
        }
      ],
      "outputs": [
        {
          "name": "",
          "type": "bool",
          "internalType": "bool"
        }
      ],
      "stateMutability": "view"
    },
    {
      "type": "function",
      "name": "paused",
      "inputs": [],
      "outputs": [
        {
          "name": "",
          "type": "uint256",
          "internalType": "uint256"
        }
      ],
      "stateMutability": "view"
    },
    {
      "type": "function",
      "name": "pauserRegistry",
      "inputs": [],
      "outputs": [
        {
          "name": "",
          "type": "address",
          "internalType": "contract IPauserRegistry"
        }
      ],
      "stateMutability": "view"
    },
    {
      "type": "function",
      "name": "processClaim",
      "inputs": [
        {
          "name": "claim",
          "type": "tuple",
          "internalType": "struct IRewardsCoordinator.RewardsMerkleClaim",
          "components": [
            {
              "name": "rootIndex",
              "type": "uint32",
              "internalType": "uint32"
            },
            {
              "name": "earnerIndex",
              "type": "uint32",
              "internalType": "uint32"
            },
            {
              "name": "earnerTreeProof",
              "type": "bytes",
              "internalType": "bytes"
            },
            {
              "name": "earnerLeaf",
              "type": "tuple",
              "internalType": "struct IRewardsCoordinator.EarnerTreeMerkleLeaf",
              "components": [
                {
                  "name": "earner",
                  "type": "address",
                  "internalType": "address"
                },
                {
                  "name": "earnerTokenRoot",
                  "type": "bytes32",
                  "internalType": "bytes32"
                }
              ]
            },
            {
              "name": "tokenIndices",
              "type": "uint32[]",
              "internalType": "uint32[]"
            },
            {
              "name": "tokenTreeProofs",
              "type": "bytes[]",
              "internalType": "bytes[]"
            },
            {
              "name": "tokenLeaves",
              "type": "tuple[]",
              "internalType": "struct IRewardsCoordinator.TokenTreeMerkleLeaf[]",
              "components": [
                {
                  "name": "token",
                  "type": "address",
                  "internalType": "contract IERC20"
                },
                {
                  "name": "cumulativeEarnings",
                  "type": "uint256",
                  "internalType": "uint256"
                }
              ]
            }
          ]
        },
        {
          "name": "recipient",
          "type": "address",
          "internalType": "address"
        }
      ],
      "outputs": [],
      "stateMutability": "nonpayable"
    },
    {
      "type": "function",
      "name": "processClaims",
      "inputs": [
        {
          "name": "claims",
          "type": "tuple[]",
          "internalType": "struct IRewardsCoordinator.RewardsMerkleClaim[]",
          "components": [
            {
              "name": "rootIndex",
              "type": "uint32",
              "internalType": "uint32"
            },
            {
              "name": "earnerIndex",
              "type": "uint32",
              "internalType": "uint32"
            },
            {
              "name": "earnerTreeProof",
              "type": "bytes",
              "internalType": "bytes"
            },
            {
              "name": "earnerLeaf",
              "type": "tuple",
              "internalType": "struct IRewardsCoordinator.EarnerTreeMerkleLeaf",
              "components": [
                {
                  "name": "earner",
                  "type": "address",
                  "internalType": "address"
                },
                {
                  "name": "earnerTokenRoot",
                  "type": "bytes32",
                  "internalType": "bytes32"
                }
              ]
            },
            {
              "name": "tokenIndices",
              "type": "uint32[]",
              "internalType": "uint32[]"
            },
            {
              "name": "tokenTreeProofs",
              "type": "bytes[]",
              "internalType": "bytes[]"
            },
            {
              "name": "tokenLeaves",
              "type": "tuple[]",
              "internalType": "struct IRewardsCoordinator.TokenTreeMerkleLeaf[]",
              "components": [
                {
                  "name": "token",
                  "type": "address",
                  "internalType": "contract IERC20"
                },
                {
                  "name": "cumulativeEarnings",
                  "type": "uint256",
                  "internalType": "uint256"
                }
              ]
            }
          ]
        },
        {
          "name": "recipient",
          "type": "address",
          "internalType": "address"
        }
      ],
      "outputs": [],
      "stateMutability": "nonpayable"
    },
    {
      "type": "function",
      "name": "renounceOwnership",
      "inputs": [],
      "outputs": [],
      "stateMutability": "nonpayable"
    },
    {
      "type": "function",
      "name": "rewardsUpdater",
      "inputs": [],
      "outputs": [
        {
          "name": "",
          "type": "address",
          "internalType": "address"
        }
      ],
      "stateMutability": "view"
    },
    {
      "type": "function",
      "name": "setActivationDelay",
      "inputs": [
        {
          "name": "_activationDelay",
          "type": "uint32",
          "internalType": "uint32"
        }
      ],
      "outputs": [],
      "stateMutability": "nonpayable"
    },
    {
      "type": "function",
      "name": "setClaimerFor",
      "inputs": [
        {
          "name": "claimer",
          "type": "address",
          "internalType": "address"
        }
      ],
      "outputs": [],
      "stateMutability": "nonpayable"
    },
    {
      "type": "function",
      "name": "setDefaultOperatorSplit",
      "inputs": [
        {
          "name": "split",
          "type": "uint16",
          "internalType": "uint16"
        }
      ],
      "outputs": [],
      "stateMutability": "nonpayable"
    },
    {
      "type": "function",
      "name": "setOperatorAVSSplit",
      "inputs": [
        {
          "name": "operator",
          "type": "address",
          "internalType": "address"
        },
        {
          "name": "avs",
          "type": "address",
          "internalType": "address"
        },
        {
          "name": "split",
          "type": "uint16",
          "internalType": "uint16"
        }
      ],
      "outputs": [],
      "stateMutability": "nonpayable"
    },
    {
      "type": "function",
      "name": "setOperatorPISplit",
      "inputs": [
        {
          "name": "operator",
          "type": "address",
          "internalType": "address"
        },
        {
          "name": "split",
          "type": "uint16",
          "internalType": "uint16"
        }
      ],
      "outputs": [],
      "stateMutability": "nonpayable"
    },
    {
      "type": "function",
      "name": "setPauserRegistry",
      "inputs": [
        {
          "name": "newPauserRegistry",
          "type": "address",
          "internalType": "contract IPauserRegistry"
        }
      ],
      "outputs": [],
      "stateMutability": "nonpayable"
    },
    {
      "type": "function",
      "name": "setRewardsForAllSubmitter",
      "inputs": [
        {
          "name": "_submitter",
          "type": "address",
          "internalType": "address"
        },
        {
          "name": "_newValue",
          "type": "bool",
          "internalType": "bool"
        }
      ],
      "outputs": [],
      "stateMutability": "nonpayable"
    },
    {
      "type": "function",
      "name": "setRewardsUpdater",
      "inputs": [
        {
          "name": "_rewardsUpdater",
          "type": "address",
          "internalType": "address"
        }
      ],
      "outputs": [],
      "stateMutability": "nonpayable"
    },
    {
      "type": "function",
      "name": "strategyManager",
      "inputs": [],
      "outputs": [
        {
          "name": "",
          "type": "address",
          "internalType": "contract IStrategyManager"
        }
      ],
      "stateMutability": "view"
    },
    {
      "type": "function",
      "name": "submissionNonce",
      "inputs": [
        {
          "name": "",
          "type": "address",
          "internalType": "address"
        }
      ],
      "outputs": [
        {
          "name": "",
          "type": "uint256",
          "internalType": "uint256"
        }
      ],
      "stateMutability": "view"
    },
    {
      "type": "function",
      "name": "submitRoot",
      "inputs": [
        {
          "name": "root",
          "type": "bytes32",
          "internalType": "bytes32"
        },
        {
          "name": "rewardsCalculationEndTimestamp",
          "type": "uint32",
          "internalType": "uint32"
        }
      ],
      "outputs": [],
      "stateMutability": "nonpayable"
    },
    {
      "type": "function",
      "name": "transferOwnership",
      "inputs": [
        {
          "name": "newOwner",
          "type": "address",
          "internalType": "address"
        }
      ],
      "outputs": [],
      "stateMutability": "nonpayable"
    },
    {
      "type": "function",
      "name": "unpause",
      "inputs": [
        {
          "name": "newPausedStatus",
          "type": "uint256",
          "internalType": "uint256"
        }
      ],
      "outputs": [],
      "stateMutability": "nonpayable"
    },
    {
      "type": "event",
      "name": "AVSRewardsSubmissionCreated",
      "inputs": [
        {
          "name": "avs",
          "type": "address",
          "indexed": true,
          "internalType": "address"
        },
        {
          "name": "submissionNonce",
          "type": "uint256",
          "indexed": true,
          "internalType": "uint256"
        },
        {
          "name": "rewardsSubmissionHash",
          "type": "bytes32",
          "indexed": true,
          "internalType": "bytes32"
        },
        {
          "name": "rewardsSubmission",
          "type": "tuple",
          "indexed": false,
          "internalType": "struct IRewardsCoordinator.RewardsSubmission",
          "components": [
            {
              "name": "strategiesAndMultipliers",
              "type": "tuple[]",
              "internalType": "struct IRewardsCoordinator.StrategyAndMultiplier[]",
              "components": [
                {
                  "name": "strategy",
                  "type": "address",
                  "internalType": "contract IStrategy"
                },
                {
                  "name": "multiplier",
                  "type": "uint96",
                  "internalType": "uint96"
                }
              ]
            },
            {
              "name": "token",
              "type": "address",
              "internalType": "contract IERC20"
            },
            {
              "name": "amount",
              "type": "uint256",
              "internalType": "uint256"
            },
            {
              "name": "startTimestamp",
              "type": "uint32",
              "internalType": "uint32"
            },
            {
              "name": "duration",
              "type": "uint32",
              "internalType": "uint32"
            }
          ]
        }
      ],
      "anonymous": false
    },
    {
      "type": "event",
      "name": "ActivationDelaySet",
      "inputs": [
        {
          "name": "oldActivationDelay",
          "type": "uint32",
          "indexed": false,
          "internalType": "uint32"
        },
        {
          "name": "newActivationDelay",
          "type": "uint32",
          "indexed": false,
          "internalType": "uint32"
        }
      ],
      "anonymous": false
    },
    {
      "type": "event",
      "name": "ClaimerForSet",
      "inputs": [
        {
          "name": "earner",
          "type": "address",
          "indexed": true,
          "internalType": "address"
        },
        {
          "name": "oldClaimer",
          "type": "address",
          "indexed": true,
          "internalType": "address"
        },
        {
          "name": "claimer",
          "type": "address",
          "indexed": true,
          "internalType": "address"
        }
      ],
      "anonymous": false
    },
    {
      "type": "event",
      "name": "DefaultOperatorSplitBipsSet",
      "inputs": [
        {
          "name": "oldDefaultOperatorSplitBips",
          "type": "uint16",
          "indexed": false,
          "internalType": "uint16"
        },
        {
          "name": "newDefaultOperatorSplitBips",
          "type": "uint16",
          "indexed": false,
          "internalType": "uint16"
        }
      ],
      "anonymous": false
    },
    {
      "type": "event",
      "name": "DistributionRootDisabled",
      "inputs": [
        {
          "name": "rootIndex",
          "type": "uint32",
          "indexed": true,
          "internalType": "uint32"
        }
      ],
      "anonymous": false
    },
    {
      "type": "event",
      "name": "DistributionRootSubmitted",
      "inputs": [
        {
          "name": "rootIndex",
          "type": "uint32",
          "indexed": true,
          "internalType": "uint32"
        },
        {
          "name": "root",
          "type": "bytes32",
          "indexed": true,
          "internalType": "bytes32"
        },
        {
          "name": "rewardsCalculationEndTimestamp",
          "type": "uint32",
          "indexed": true,
          "internalType": "uint32"
        },
        {
          "name": "activatedAt",
          "type": "uint32",
          "indexed": false,
          "internalType": "uint32"
        }
      ],
      "anonymous": false
    },
    {
      "type": "event",
      "name": "Initialized",
      "inputs": [
        {
          "name": "version",
          "type": "uint8",
          "indexed": false,
          "internalType": "uint8"
        }
      ],
      "anonymous": false
    },
    {
      "type": "event",
      "name": "OperatorAVSSplitBipsSet",
      "inputs": [
        {
          "name": "caller",
          "type": "address",
          "indexed": true,
          "internalType": "address"
        },
        {
          "name": "operator",
          "type": "address",
          "indexed": true,
          "internalType": "address"
        },
        {
          "name": "avs",
          "type": "address",
          "indexed": true,
          "internalType": "address"
        },
        {
          "name": "activatedAt",
          "type": "uint32",
          "indexed": false,
          "internalType": "uint32"
        },
        {
          "name": "oldOperatorAVSSplitBips",
          "type": "uint16",
          "indexed": false,
          "internalType": "uint16"
        },
        {
          "name": "newOperatorAVSSplitBips",
          "type": "uint16",
          "indexed": false,
          "internalType": "uint16"
        }
      ],
      "anonymous": false
    },
    {
      "type": "event",
      "name": "OperatorDirectedAVSRewardsSubmissionCreated",
      "inputs": [
        {
          "name": "caller",
          "type": "address",
          "indexed": true,
          "internalType": "address"
        },
        {
          "name": "avs",
          "type": "address",
          "indexed": true,
          "internalType": "address"
        },
        {
          "name": "operatorDirectedRewardsSubmissionHash",
          "type": "bytes32",
          "indexed": true,
          "internalType": "bytes32"
        },
        {
          "name": "submissionNonce",
          "type": "uint256",
          "indexed": false,
          "internalType": "uint256"
        },
        {
          "name": "operatorDirectedRewardsSubmission",
          "type": "tuple",
          "indexed": false,
          "internalType": "struct IRewardsCoordinator.OperatorDirectedRewardsSubmission",
          "components": [
            {
              "name": "strategiesAndMultipliers",
              "type": "tuple[]",
              "internalType": "struct IRewardsCoordinator.StrategyAndMultiplier[]",
              "components": [
                {
                  "name": "strategy",
                  "type": "address",
                  "internalType": "contract IStrategy"
                },
                {
                  "name": "multiplier",
                  "type": "uint96",
                  "internalType": "uint96"
                }
              ]
            },
            {
              "name": "token",
              "type": "address",
              "internalType": "contract IERC20"
            },
            {
              "name": "operatorRewards",
              "type": "tuple[]",
              "internalType": "struct IRewardsCoordinator.OperatorReward[]",
              "components": [
                {
                  "name": "operator",
                  "type": "address",
                  "internalType": "address"
                },
                {
                  "name": "amount",
                  "type": "uint256",
                  "internalType": "uint256"
                }
              ]
            },
            {
              "name": "startTimestamp",
              "type": "uint32",
              "internalType": "uint32"
            },
            {
              "name": "duration",
              "type": "uint32",
              "internalType": "uint32"
            },
            {
              "name": "description",
              "type": "string",
              "internalType": "string"
            }
          ]
        }
      ],
      "anonymous": false
    },
    {
      "type": "event",
      "name": "OperatorPISplitBipsSet",
      "inputs": [
        {
          "name": "caller",
          "type": "address",
          "indexed": true,
          "internalType": "address"
        },
        {
          "name": "operator",
          "type": "address",
          "indexed": true,
          "internalType": "address"
        },
        {
          "name": "activatedAt",
          "type": "uint32",
          "indexed": false,
          "internalType": "uint32"
        },
        {
          "name": "oldOperatorPISplitBips",
          "type": "uint16",
          "indexed": false,
          "internalType": "uint16"
        },
        {
          "name": "newOperatorPISplitBips",
          "type": "uint16",
          "indexed": false,
          "internalType": "uint16"
        }
      ],
      "anonymous": false
    },
    {
      "type": "event",
      "name": "OwnershipTransferred",
      "inputs": [
        {
          "name": "previousOwner",
          "type": "address",
          "indexed": true,
          "internalType": "address"
        },
        {
          "name": "newOwner",
          "type": "address",
          "indexed": true,
          "internalType": "address"
        }
      ],
      "anonymous": false
    },
    {
      "type": "event",
      "name": "Paused",
      "inputs": [
        {
          "name": "account",
          "type": "address",
          "indexed": true,
          "internalType": "address"
        },
        {
          "name": "newPausedStatus",
          "type": "uint256",
          "indexed": false,
          "internalType": "uint256"
        }
      ],
      "anonymous": false
    },
    {
      "type": "event",
      "name": "PauserRegistrySet",
      "inputs": [
        {
          "name": "pauserRegistry",
          "type": "address",
          "indexed": false,
          "internalType": "contract IPauserRegistry"
        },
        {
          "name": "newPauserRegistry",
          "type": "address",
          "indexed": false,
          "internalType": "contract IPauserRegistry"
        }
      ],
      "anonymous": false
    },
    {
      "type": "event",
      "name": "RewardsClaimed",
      "inputs": [
        {
          "name": "root",
          "type": "bytes32",
          "indexed": false,
          "internalType": "bytes32"
        },
        {
          "name": "earner",
          "type": "address",
          "indexed": true,
          "internalType": "address"
        },
        {
          "name": "claimer",
          "type": "address",
          "indexed": true,
          "internalType": "address"
        },
        {
          "name": "recipient",
          "type": "address",
          "indexed": true,
          "internalType": "address"
        },
        {
          "name": "token",
          "type": "address",
          "indexed": false,
          "internalType": "contract IERC20"
        },
        {
          "name": "claimedAmount",
          "type": "uint256",
          "indexed": false,
          "internalType": "uint256"
        }
      ],
      "anonymous": false
    },
    {
      "type": "event",
      "name": "RewardsForAllSubmitterSet",
      "inputs": [
        {
          "name": "rewardsForAllSubmitter",
          "type": "address",
          "indexed": true,
          "internalType": "address"
        },
        {
          "name": "oldValue",
          "type": "bool",
          "indexed": true,
          "internalType": "bool"
        },
        {
          "name": "newValue",
          "type": "bool",
          "indexed": true,
          "internalType": "bool"
        }
      ],
      "anonymous": false
    },
    {
      "type": "event",
      "name": "RewardsSubmissionForAllCreated",
      "inputs": [
        {
          "name": "submitter",
          "type": "address",
          "indexed": true,
          "internalType": "address"
        },
        {
          "name": "submissionNonce",
          "type": "uint256",
          "indexed": true,
          "internalType": "uint256"
        },
        {
          "name": "rewardsSubmissionHash",
          "type": "bytes32",
          "indexed": true,
          "internalType": "bytes32"
        },
        {
          "name": "rewardsSubmission",
          "type": "tuple",
          "indexed": false,
          "internalType": "struct IRewardsCoordinator.RewardsSubmission",
          "components": [
            {
              "name": "strategiesAndMultipliers",
              "type": "tuple[]",
              "internalType": "struct IRewardsCoordinator.StrategyAndMultiplier[]",
              "components": [
                {
                  "name": "strategy",
                  "type": "address",
                  "internalType": "contract IStrategy"
                },
                {
                  "name": "multiplier",
                  "type": "uint96",
                  "internalType": "uint96"
                }
              ]
            },
            {
              "name": "token",
              "type": "address",
              "internalType": "contract IERC20"
            },
            {
              "name": "amount",
              "type": "uint256",
              "internalType": "uint256"
            },
            {
              "name": "startTimestamp",
              "type": "uint32",
              "internalType": "uint32"
            },
            {
              "name": "duration",
              "type": "uint32",
              "internalType": "uint32"
            }
          ]
        }
      ],
      "anonymous": false
    },
    {
      "type": "event",
      "name": "RewardsSubmissionForAllEarnersCreated",
      "inputs": [
        {
          "name": "tokenHopper",
          "type": "address",
          "indexed": true,
          "internalType": "address"
        },
        {
          "name": "submissionNonce",
          "type": "uint256",
          "indexed": true,
          "internalType": "uint256"
        },
        {
          "name": "rewardsSubmissionHash",
          "type": "bytes32",
          "indexed": true,
          "internalType": "bytes32"
        },
        {
          "name": "rewardsSubmission",
          "type": "tuple",
          "indexed": false,
          "internalType": "struct IRewardsCoordinator.RewardsSubmission",
          "components": [
            {
              "name": "strategiesAndMultipliers",
              "type": "tuple[]",
              "internalType": "struct IRewardsCoordinator.StrategyAndMultiplier[]",
              "components": [
                {
                  "name": "strategy",
                  "type": "address",
                  "internalType": "contract IStrategy"
                },
                {
                  "name": "multiplier",
                  "type": "uint96",
                  "internalType": "uint96"
                }
              ]
            },
            {
              "name": "token",
              "type": "address",
              "internalType": "contract IERC20"
            },
            {
              "name": "amount",
              "type": "uint256",
              "internalType": "uint256"
            },
            {
              "name": "startTimestamp",
              "type": "uint32",
              "internalType": "uint32"
            },
            {
              "name": "duration",
              "type": "uint32",
              "internalType": "uint32"
            }
          ]
        }
      ],
      "anonymous": false
    },
    {
      "type": "event",
      "name": "RewardsUpdaterSet",
      "inputs": [
        {
          "name": "oldRewardsUpdater",
          "type": "address",
          "indexed": true,
          "internalType": "address"
        },
        {
          "name": "newRewardsUpdater",
          "type": "address",
          "indexed": true,
          "internalType": "address"
        }
      ],
      "anonymous": false
    },
    {
      "type": "event",
      "name": "Unpaused",
      "inputs": [
        {
          "name": "account",
          "type": "address",
          "indexed": true,
          "internalType": "address"
        },
        {
          "name": "newPausedStatus",
          "type": "uint256",
          "indexed": false,
          "internalType": "uint256"
        }
      ],
      "anonymous": false
    }
  ],
  "bytecode": {
    "object": "0x6101806040523480156200001257600080fd5b50604051620057c9380380620057c98339810160408190526200003591620002e4565b868686868686866200004885826200037e565b63ffffffff1615620000ed5760405162461bcd60e51b815260206004820152606060248201527f52657761726473436f6f7264696e61746f723a2047454e455349535f5245574160448201527f5244535f54494d455354414d50206d7573742062652061206d756c7469706c6560648201527f206f662043414c43554c4154494f4e5f494e54455256414c5f5345434f4e4453608482015260a4015b60405180910390fd5b620000fc62015180866200037e565b63ffffffff16156200019d5760405162461bcd60e51b815260206004820152605760248201527f52657761726473436f6f7264696e61746f723a2043414c43554c4154494f4e5f60448201527f494e54455256414c5f5345434f4e4453206d7573742062652061206d756c746960648201527f706c65206f6620534e415053484f545f434144454e4345000000000000000000608482015260a401620000e4565b6001600160a01b0396871661012052949095166101405263ffffffff92831660805290821660a052811660c05291821660e0521661010052620001df620001f2565b5050466101605250620003b09350505050565b600054610100900460ff16156200025c5760405162461bcd60e51b815260206004820152602760248201527f496e697469616c697a61626c653a20636f6e747261637420697320696e697469604482015266616c697a696e6760c81b6064820152608401620000e4565b60005460ff9081161015620002af576000805460ff191660ff9081179091556040519081527f7f26b83ff96e1f2b6a682f133852f6798a09c465da95921460cefb38474024989060200160405180910390a15b565b6001600160a01b0381168114620002c757600080fd5b50565b805163ffffffff81168114620002df57600080fd5b919050565b600080600080600080600060e0888a0312156200030057600080fd5b87516200030d81620002b1565b60208901519097506200032081620002b1565b95506200033060408901620002ca565b94506200034060608901620002ca565b93506200035060808901620002ca565b92506200036060a08901620002ca565b91506200037060c08901620002ca565b905092959891949750929550565b600063ffffffff80841680620003a457634e487b7160e01b600052601260045260246000fd5b92169190910692915050565b60805160a05160c05160e05161010051610120516101405161016051615382620004476000396000611f5f0152600081816105460152613e0a015260006108a00152600081816104700152613d040152600081816103c4015261290401526000818161051f0152613cc20152600081816107ec0152613a5f01526000818161073e01528181613b180152613be801526153826000f3fe608060405234801561001057600080fd5b50600436106103825760003560e01c8063865c6953116101de578063d4540a551161010f578063f2fde38b116100ad578063fabc1cbc1161007c578063fabc1cbc14610931578063fbf1e2c114610944578063fce36c7d14610957578063ff9f6cce1461096a57600080fd5b8063f2fde38b146108f0578063f698da2514610903578063f8cd84481461090b578063f96abf2e1461091e57600080fd5b8063e063f81f116100e9578063e063f81f14610875578063e810ce2114610888578063ea4d3c9b1461089b578063ed71e6a2146108c257600080fd5b8063d4540a551461083c578063dcbb03b31461084f578063de02e5031461086257600080fd5b8063a0169ddd1161017c578063b3dbb0e011610156578063b3dbb0e0146107b4578063bb7e451f146107c7578063bf21a8aa146107e7578063c46db6061461080e57600080fd5b8063a0169ddd14610760578063a50a1d9c14610773578063aebd8bae1461078657600080fd5b80639104c319116101b85780639104c319146107035780639be3d4e41461071e5780639cb9a5fa146107265780639d45c2811461073957600080fd5b8063865c6953146106b4578063886f1195146106df5780638da5cb5b146106f257600080fd5b80633efe1db6116102b85780635c975abb116102565780636d21117e116102305780636d21117e14610663578063715018a6146106915780637b8f8b0514610699578063863cb9a9146106a157600080fd5b80635c975abb146106335780635e9d83481461063b57806363f6a7981461064e57600080fd5b80634d18cc35116102925780634d18cc35146105de57806358baaa3e146105f5578063595c6a67146106085780635ac86ab71461061057600080fd5b80633efe1db6146105925780634596021c146105a55780634b943960146105b857600080fd5b8063149bc8721161032557806337838ed0116102ff57806337838ed01461051a57806339b70e38146105415780633a8c0786146105685780633ccc861d1461057f57600080fd5b8063149bc872146104a55780632b9f64a4146104c657806336af41fa1461050757600080fd5b80630eb38345116103615780630eb383451461044357806310d67a2f14610458578063131433b41461046b578063136439dd1461049257600080fd5b806218572c1461038757806304a0c502146103bf5780630e9a53cf146103fb575b600080fd5b6103aa61039536600461464c565b60d16020526000908152604090205460ff1681565b60405190151581526020015b60405180910390f35b6103e67f000000000000000000000000000000000000000000000000000000000000000081565b60405163ffffffff90911681526020016103b6565b61040361097d565b604080518251815260208084015163ffffffff908116918301919091528383015116918101919091526060918201511515918101919091526080016103b6565b610456610451366004614677565b610a81565b005b61045661046636600461464c565b610b03565b6103e67f000000000000000000000000000000000000000000000000000000000000000081565b6104566104a03660046146b0565b610bbf565b6104b86104b33660046146e1565b610cfe565b6040519081526020016103b6565b6104ef6104d436600461464c565b60cc602052600090815260409020546001600160a01b031681565b6040516001600160a01b0390911681526020016103b6565b610456610515366004614749565b610d74565b6103e67f000000000000000000000000000000000000000000000000000000000000000081565b6104ef7f000000000000000000000000000000000000000000000000000000000000000081565b60cb546103e690600160a01b900463ffffffff1681565b61045661058d36600461479e565b610f3e565b6104566105a03660046147f9565b610fa3565b6104566105b3366004614825565b611274565b6105cb6105c636600461464c565b61131b565b60405161ffff90911681526020016103b6565b60cb546103e690600160c01b900463ffffffff1681565b61045661060336600461487c565b611377565b610456611388565b6103aa61061e366004614897565b606654600160ff9092169190911b9081161490565b6066546104b8565b6103aa6106493660046148ba565b61144f565b60cb546105cb90600160e01b900461ffff1681565b6103aa6106713660046148ef565b60cf60209081526000928352604080842090915290825290205460ff1681565b6104566114dc565b60ca546104b8565b6104566106af36600461464c565b6114f0565b6104b86106c236600461491b565b60cd60209081526000928352604080842090915290825290205481565b6065546104ef906001600160a01b031681565b6033546001600160a01b03166104ef565b6104ef73beac0eeeeeeeeeeeeeeeeeeeeeeeeeeeeeebeac081565b610403611501565b610456610734366004614949565b61159f565b6103e67f000000000000000000000000000000000000000000000000000000000000000081565b61045661076e36600461464c565b6117d8565b6104566107813660046149b0565b611837565b6103aa6107943660046148ef565b60d260209081526000928352604080842090915290825290205460ff1681565b6104566107c23660046149cb565b611848565b6104b86107d536600461464c565b60ce6020526000908152604090205481565b6103e67f000000000000000000000000000000000000000000000000000000000000000081565b6103aa61081c3660046148ef565b60d060209081526000928352604080842090915290825290205460ff1681565b61045661084a3660046149f7565b6119f4565b61045661085d366004614a6a565b611b3c565b6104036108703660046146b0565b611d0b565b6105cb61088336600461491b565b611d9d565b6103e66108963660046146b0565b611e0a565b6104ef7f000000000000000000000000000000000000000000000000000000000000000081565b6103aa6108d03660046148ef565b60d360209081526000928352604080842090915290825290205460ff1681565b6104566108fe36600461464c565b611ee5565b6104b8611f5b565b6104b86109193660046146e1565b611f99565b61045661092c36600461487c565b611faa565b61045661093f3660046146b0565b6121e0565b60cb546104ef906001600160a01b031681565b610456610965366004614749565b61233c565b610456610978366004614749565b6124bb565b60408051608081018252600080825260208201819052918101829052606081019190915260ca545b8015610a5857600060ca6109ba600184614ac7565b815481106109ca576109ca614ade565b600091825260209182902060408051608081018252600293909302909101805483526001015463ffffffff80821694840194909452600160201b810490931690820152600160401b90910460ff161580156060830181905291925090610a3a5750806040015163ffffffff164210155b15610a455792915050565b5080610a5081614af4565b9150506109a5565b505060408051608081018252600080825260208201819052918101829052606081019190915290565b610a89612669565b6001600160a01b038216600081815260d1602052604080822054905160ff9091169284151592841515927f4de6293e668df1398422e1def12118052c1539a03cbfedc145895d48d7685f1c9190a4506001600160a01b0391909116600090815260d160205260409020805460ff1916911515919091179055565b606560009054906101000a90046001600160a01b03166001600160a01b031663eab66d7a6040518163ffffffff1660e01b8152600401602060405180830381865afa158015610b56573d6000803e3d6000fd5b505050506040513d601f19601f82011682018060405250810190610b7a9190614b0b565b6001600160a01b0316336001600160a01b031614610bb35760405162461bcd60e51b8152600401610baa90614b28565b60405180910390fd5b610bbc816126c3565b50565b60655460405163237dfb4760e11b81523360048201526001600160a01b03909116906346fbf68e90602401602060405180830381865afa158015610c07573d6000803e3d6000fd5b505050506040513d601f19601f82011682018060405250810190610c2b9190614b72565b610c475760405162461bcd60e51b8152600401610baa90614b8f565b60665481811614610cc05760405162461bcd60e51b815260206004820152603860248201527f5061757361626c652e70617573653a20696e76616c696420617474656d70742060448201527f746f20756e70617573652066756e6374696f6e616c69747900000000000000006064820152608401610baa565b606681905560405181815233907fab40a374bc51de372200a8bc981af8c9ecdc08dfdaef0bb6e09f88f3c616ef3d906020015b60405180910390a250565b600080610d0e602084018461464c565b8360200135604051602001610d579392919060f89390931b6001600160f81b031916835260609190911b6bffffffffffffffffffffffff19166001830152601582015260350190565b604051602081830303815290604052805190602001209050919050565b60665460019060029081161415610d9d5760405162461bcd60e51b8152600401610baa90614bd7565b33600090815260d1602052604090205460ff16610dcc5760405162461bcd60e51b8152600401610baa90614c0e565b60026097541415610def5760405162461bcd60e51b8152600401610baa90614c85565b600260975560005b82811015610f335736848483818110610e1257610e12614ade565b9050602002810190610e249190614cbc565b33600081815260ce60209081526040808320549051949550939192610e4f9290918591879101614e15565b604051602081830303815290604052805190602001209050610e70836127ba565b33600090815260d0602090815260408083208484529091529020805460ff19166001908117909155610ea3908390614e45565b33600081815260ce602052604090819020929092559051829184917f51088b8c89628df3a8174002c2a034d0152fce6af8415d651b2a4734bf27048290610eeb908890614e5d565b60405180910390a4610f1d333060408601803590610f0c906020890161464c565b6001600160a01b03169291906129d0565b5050508080610f2b90614e70565b915050610df7565b505060016097555050565b60665460029060049081161415610f675760405162461bcd60e51b8152600401610baa90614bd7565b60026097541415610f8a5760405162461bcd60e51b8152600401610baa90614c85565b6002609755610f998383612a41565b5050600160975550565b60665460039060089081161415610fcc5760405162461bcd60e51b8152600401610baa90614bd7565b60cb546001600160a01b03163314610ff65760405162461bcd60e51b8152600401610baa90614e8b565b60cb5463ffffffff600160c01b9091048116908316116110925760405162461bcd60e51b815260206004820152604b60248201527f52657761726473436f6f7264696e61746f722e7375626d6974526f6f743a206e60448201527f657720726f6f74206d75737420626520666f72206e657765722063616c63756c60648201526a185d1959081c195c9a5bd960aa1b608482015260a401610baa565b428263ffffffff161061112b5760405162461bcd60e51b815260206004820152605560248201527f52657761726473436f6f7264696e61746f722e7375626d6974526f6f743a207260448201527f65776172647343616c63756c6174696f6e456e6454696d657374616d702063616064820152746e6e6f7420626520696e207468652066757475726560581b608482015260a401610baa565b60ca5460cb5460009061114b90600160a01b900463ffffffff1642614edf565b6040805160808101825287815263ffffffff878116602080840182815286841685870181815260006060880181815260ca8054600181018255925297517f42d72674974f694b5f5159593243114d38a5c39c89d6b62fee061ff523240ee160029092029182015592517f42d72674974f694b5f5159593243114d38a5c39c89d6b62fee061ff523240ee290930180549151975193871667ffffffffffffffff1990921691909117600160201b978716979097029690961760ff60401b1916600160401b921515929092029190911790945560cb805463ffffffff60c01b1916600160c01b840217905593519283529394508892908616917fecd866c3c158fa00bf34d803d5f6023000b57080bcb48af004c2b4b46b3afd08910160405180910390a45050505050565b6066546002906004908116141561129d5760405162461bcd60e51b8152600401610baa90614bd7565b600260975414156112c05760405162461bcd60e51b8152600401610baa90614c85565b600260975560005b8381101561130f576112fd8585838181106112e5576112e5614ade565b90506020028101906112f79190614f07565b84612a41565b8061130781614e70565b9150506112c8565b50506001609755505050565b6001600160a01b038116600090815260d5602090815260408083208151606081018352905461ffff80821683526201000082041693820193909352600160201b90920463ffffffff169082015261137190612dae565b92915050565b61137f612669565b610bbc81612e20565b60655460405163237dfb4760e11b81523360048201526001600160a01b03909116906346fbf68e90602401602060405180830381865afa1580156113d0573d6000803e3d6000fd5b505050506040513d601f19601f820116820180604052508101906113f49190614b72565b6114105760405162461bcd60e51b8152600401610baa90614b8f565b600019606681905560405190815233907fab40a374bc51de372200a8bc981af8c9ecdc08dfdaef0bb6e09f88f3c616ef3d9060200160405180910390a2565b60006114d48260ca611464602083018361487c565b63ffffffff168154811061147a5761147a614ade565b600091825260209182902060408051608081018252600293909302909101805483526001015463ffffffff80821694840194909452600160201b810490931690820152600160401b90910460ff1615156060820152612e91565b506001919050565b6114e4612669565b6114ee6000613162565b565b6114f8612669565b610bbc816131b4565b60408051608081018252600080825260208201819052918101829052606081019190915260ca805461153590600190614ac7565b8154811061154557611545614ade565b600091825260209182902060408051608081018252600293909302909101805483526001015463ffffffff80821694840194909452600160201b810490931690820152600160401b90910460ff1615156060820152919050565b606654600590602090811614156115c85760405162461bcd60e51b8152600401610baa90614bd7565b600260975414156115eb5760405162461bcd60e51b8152600401610baa90614c85565b6002609755336001600160a01b0385161461168b5760405162461bcd60e51b815260206004820152605460248201527f52657761726473436f6f7264696e61746f722e6372656174654f70657261746f60448201527f724469726563746564415653526577617264735375626d697373696f6e3a2063606482015273616c6c6572206973206e6f74207468652041565360601b608482015260a401610baa565b60005b8281101561130f57368484838181106116a9576116a9614ade565b90506020028101906116bb9190614f1d565b6001600160a01b038716600090815260ce60209081526040808320549051939450926116ed918a91859187910161509a565b604051602081830303815290604052805190602001209050600061171084613210565b6001600160a01b038a16600090815260d3602090815260408083208684529091529020805460ff1916600190811790915590915061174f908490614e45565b6001600160a01b038a16600081815260ce60205260409081902092909255905183919033907ffc8888bffd711da60bc5092b33f677d81896fe80ecc677b84cfab8184462b6e0906117a39088908a906150c1565b60405180910390a46117c1333083610f0c6040890160208a0161464c565b5050505080806117d090614e70565b91505061168e565b33600081815260cc602052604080822080546001600160a01b031981166001600160a01b038781169182179093559251911692839185917fbab947934d42e0ad206f25c9cab18b5bb6ae144acfb00f40b4e3aa59590ca31291a4505050565b61183f612669565b610bbc81613672565b606654600790608090811614156118715760405162461bcd60e51b8152600401610baa90614bd7565b336001600160a01b038416146118f95760405162461bcd60e51b815260206004820152604160248201527f52657761726473436f6f7264696e61746f722e7365744f70657261746f72504960448201527f53706c69743a2063616c6c6572206973206e6f7420746865206f70657261746f6064820152603960f91b608482015260a401610baa565b60cb5460009061191690600160a01b900463ffffffff1642614edf565b6001600160a01b038516600090815260d5602090815260408083208151606081018352905461ffff80821683526201000082041693820193909352600160201b90920463ffffffff16908201529192509061197090612dae565b6001600160a01b038616600090815260d5602052604090209091506119969085846136dd565b6040805163ffffffff8416815261ffff838116602083015286168183015290516001600160a01b0387169133917fd1e028bd664486a46ad26040e999cd2d22e1e9a094ee6afe19fcf64678f16f749181900360600190a35050505050565b600054610100900460ff1615808015611a145750600054600160ff909116105b80611a2e5750303b158015611a2e575060005460ff166001145b611a915760405162461bcd60e51b815260206004820152602e60248201527f496e697469616c697a61626c653a20636f6e747261637420697320616c72656160448201526d191e481a5b9a5d1a585b1a5e995960921b6064820152608401610baa565b6000805460ff191660011790558015611ab4576000805461ff0019166101001790555b611abc61386c565b60c955611ac98686613903565b611ad287613162565b611adb846131b4565b611ae483612e20565b611aed82613672565b8015611b33576000805461ff0019169055604051600181527f7f26b83ff96e1f2b6a682f133852f6798a09c465da95921460cefb38474024989060200160405180910390a15b50505050505050565b60665460069060409081161415611b655760405162461bcd60e51b8152600401610baa90614bd7565b336001600160a01b03851614611bee5760405162461bcd60e51b815260206004820152604260248201527f52657761726473436f6f7264696e61746f722e7365744f70657261746f72415660448201527f5353706c69743a2063616c6c6572206973206e6f7420746865206f706572617460648201526137b960f11b608482015260a401610baa565b60cb54600090611c0b90600160a01b900463ffffffff1642614edf565b6001600160a01b03868116600090815260d46020908152604080832093891683529281528282208351606081018552905461ffff80821683526201000082041692820192909252600160201b90910463ffffffff1692810192909252919250611c7390612dae565b6001600160a01b03808816600090815260d460209081526040808320938a16835292905220909150611ca69085846136dd565b6040805163ffffffff8416815261ffff838116602083015286168183015290516001600160a01b03878116929089169133917f48e198b6ae357e529204ee53a8e514c470ff77d9cc8e4f7207f8b5d490ae6934919081900360600190a4505050505050565b60408051608081018252600080825260208201819052918101829052606081019190915260ca8281548110611d4257611d42614ade565b600091825260209182902060408051608081018252600293909302909101805483526001015463ffffffff80821694840194909452600160201b810490931690820152600160401b90910460ff161515606082015292915050565b6001600160a01b03828116600090815260d46020908152604080832093851683529281528282208351606081018552905461ffff80821683526201000082041692820192909252600160201b90910463ffffffff169281019290925290611e0390612dae565b9392505050565b60ca546000905b63ffffffff811615611e76578260ca611e2b6001846150da565b63ffffffff1681548110611e4157611e41614ade565b9060005260206000209060020201600001541415611e6457611e036001826150da565b80611e6e816150ff565b915050611e11565b5060405162461bcd60e51b815260206004820152603760248201527f52657761726473436f6f7264696e61746f722e676574526f6f74496e6465784660448201527f726f6d486173683a20726f6f74206e6f7420666f756e640000000000000000006064820152608401610baa565b611eed612669565b6001600160a01b038116611f525760405162461bcd60e51b815260206004820152602660248201527f4f776e61626c653a206e6577206f776e657220697320746865207a65726f206160448201526564647265737360d01b6064820152608401610baa565b610bbc81613162565b60007f0000000000000000000000000000000000000000000000000000000000000000461415611f8c575060c95490565b611f9461386c565b905090565b60006001610d0e602084018461464c565b60665460039060089081161415611fd35760405162461bcd60e51b8152600401610baa90614bd7565b60cb546001600160a01b03163314611ffd5760405162461bcd60e51b8152600401610baa90614e8b565b60ca5463ffffffff83161061206e5760405162461bcd60e51b815260206004820152603160248201527f52657761726473436f6f7264696e61746f722e64697361626c65526f6f743a206044820152700d2dcecc2d8d2c840e4dedee892dcc8caf607b1b6064820152608401610baa565b600060ca8363ffffffff168154811061208957612089614ade565b906000526020600020906002020190508060010160089054906101000a900460ff16156121165760405162461bcd60e51b815260206004820152603560248201527f52657761726473436f6f7264696e61746f722e64697361626c65526f6f743a206044820152741c9bdbdd08185b1c9958591e48191a5cd8589b1959605a1b6064820152608401610baa565b6001810154600160201b900463ffffffff1642106121955760405162461bcd60e51b815260206004820152603660248201527f52657761726473436f6f7264696e61746f722e64697361626c65526f6f743a206044820152751c9bdbdd08185b1c9958591e481858dd1a5d985d195960521b6064820152608401610baa565b60018101805460ff60401b1916600160401b17905560405163ffffffff8416907fd850e6e5dfa497b72661fa73df2923464eaed9dc2ff1d3cb82bccbfeabe5c41e90600090a2505050565b606560009054906101000a90046001600160a01b03166001600160a01b031663eab66d7a6040518163ffffffff1660e01b8152600401602060405180830381865afa158015612233573d6000803e3d6000fd5b505050506040513d601f19601f820116820180604052508101906122579190614b0b565b6001600160a01b0316336001600160a01b0316146122875760405162461bcd60e51b8152600401610baa90614b28565b6066541981196066541916146123055760405162461bcd60e51b815260206004820152603860248201527f5061757361626c652e756e70617573653a20696e76616c696420617474656d7060448201527f7420746f2070617573652066756e6374696f6e616c69747900000000000000006064820152608401610baa565b606681905560405181815233907f3582d1828e26bf56bd801502bc021ac0bc8afb57c826e4986b45593c8fad389c90602001610cf3565b606654600090600190811614156123655760405162461bcd60e51b8152600401610baa90614bd7565b600260975414156123885760405162461bcd60e51b8152600401610baa90614c85565b600260975560005b82811015610f3357368484838181106123ab576123ab614ade565b90506020028101906123bd9190614cbc565b33600081815260ce602090815260408083205490519495509391926123e89290918591879101614e15565b604051602081830303815290604052805190602001209050612409836127ba565b33600090815260cf602090815260408083208484529091529020805460ff1916600190811790915561243c908390614e45565b33600081815260ce602052604090819020929092559051829184917f450a367a380c4e339e5ae7340c8464ef27af7781ad9945cfe8abd828f89e628190612484908890614e5d565b60405180910390a46124a5333060408601803590610f0c906020890161464c565b50505080806124b390614e70565b915050612390565b606654600490601090811614156124e45760405162461bcd60e51b8152600401610baa90614bd7565b33600090815260d1602052604090205460ff166125135760405162461bcd60e51b8152600401610baa90614c0e565b600260975414156125365760405162461bcd60e51b8152600401610baa90614c85565b600260975560005b82811015610f33573684848381811061255957612559614ade565b905060200281019061256b9190614cbc565b33600081815260ce602090815260408083205490519495509391926125969290918591879101614e15565b6040516020818303038152906040528051906020012090506125b7836127ba565b33600090815260d2602090815260408083208484529091529020805460ff191660019081179091556125ea908390614e45565b33600081815260ce602052604090819020929092559051829184917f5251b6fdefcb5d81144e735f69ea4c695fd43b0289ca53dc075033f5fc80068b90612632908890614e5d565b60405180910390a4612653333060408601803590610f0c906020890161464c565b505050808061266190614e70565b91505061253e565b6033546001600160a01b031633146114ee5760405162461bcd60e51b815260206004820181905260248201527f4f776e61626c653a2063616c6c6572206973206e6f7420746865206f776e65726044820152606401610baa565b6001600160a01b0381166127515760405162461bcd60e51b815260206004820152604960248201527f5061757361626c652e5f73657450617573657252656769737472793a206e657760448201527f50617573657252656769737472792063616e6e6f7420626520746865207a65726064820152686f206164647265737360b81b608482015260a401610baa565b606554604080516001600160a01b03928316815291831660208301527f6e9fcd539896fca60e8b0f01dd580233e48a6b0f7df013b89ba7f565869acdb6910160405180910390a1606580546001600160a01b0319166001600160a01b0392909216919091179055565b6127ec6127c7828061511f565b6127d7608085016060860161487c565b6127e760a086016080870161487c565b6139ed565b60008160400135116128705760405162461bcd60e51b815260206004820152604160248201527f52657761726473436f6f7264696e61746f722e5f76616c69646174655265776160448201527f7264735375626d697373696f6e3a20616d6f756e742063616e6e6f74206265206064820152600360fc1b608482015260a401610baa565b6f4b3b4ca85a86c47a098a223fffffffff816040013511156128fa5760405162461bcd60e51b815260206004820152603f60248201527f52657761726473436f6f7264696e61746f722e5f76616c69646174655265776160448201527f7264735375626d697373696f6e3a20616d6f756e7420746f6f206c61726765006064820152608401610baa565b61292a63ffffffff7f00000000000000000000000000000000000000000000000000000000000000001642614e45565b61293a608083016060840161487c565b63ffffffff161115610bbc5760405162461bcd60e51b815260206004820152605360248201527f52657761726473436f6f7264696e61746f722e5f76616c69646174655265776160448201527f7264735375626d697373696f6e3a20737461727454696d657374616d7020746f6064820152726f2066617220696e207468652066757475726560681b608482015260a401610baa565b6040516001600160a01b0380851660248301528316604482015260648101829052612a3b9085906323b872dd60e01b906084015b60408051601f198184030181529190526020810180516001600160e01b03166001600160e01b031990931692909217909152613fdc565b50505050565b600060ca612a52602085018561487c565b63ffffffff1681548110612a6857612a68614ade565b600091825260209182902060408051608081018252600293909302909101805483526001015463ffffffff80821694840194909452600160201b810490931690820152600160401b90910460ff16151560608201529050612ac98382612e91565b6000612adb608085016060860161464c565b6001600160a01b03808216600090815260cc60205260409020549192501680612b015750805b336001600160a01b03821614612b7f5760405162461bcd60e51b815260206004820152603c60248201527f52657761726473436f6f7264696e61746f722e70726f63657373436c61696d3a60448201527f2063616c6c6572206973206e6f742076616c696420636c61696d6572000000006064820152608401610baa565b60005b612b8f60a0870187615169565b9050811015612da65736612ba660e088018861511f565b83818110612bb657612bb6614ade565b6001600160a01b038716600090815260cd602090815260408083209302949094019450929091508290612beb9085018561464c565b6001600160a01b03166001600160a01b0316815260200190815260200160002054905080826020013511612ca55760405162461bcd60e51b815260206004820152605560248201527f52657761726473436f6f7264696e61746f722e70726f63657373436c61696d3a60448201527f2063756d756c61746976654561726e696e6773206d75737420626520677420746064820152741a185b8818dd5b5d5b185d1a5d9950db185a5b5959605a1b608482015260a401610baa565b6000612cb5826020850135614ac7565b6001600160a01b038716600090815260cd60209081526040822092935085018035929190612ce3908761464c565b6001600160a01b0316815260208082019290925260400160002091909155612d259089908390612d159087018761464c565b6001600160a01b031691906140ae565b86516001600160a01b03808a1691878216918916907f9543dbd55580842586a951f0386e24d68a5df99ae29e3b216588b45fd684ce3190612d69602089018961464c565b604080519283526001600160a01b039091166020830152810186905260600160405180910390a45050508080612d9e90614e70565b915050612b82565b505050505050565b6000816040015163ffffffff1660001480612de25750815161ffff908116148015612de25750816040015163ffffffff1642105b15612dfa57505060cb54600160e01b900461ffff1690565b816040015163ffffffff16421015612e13578151611371565b506020015190565b919050565b60cb546040805163ffffffff600160a01b9093048316815291831660208301527faf557c6c02c208794817a705609cfa935f827312a1adfdd26494b6b95dd2b4b3910160405180910390a160cb805463ffffffff909216600160a01b0263ffffffff60a01b19909216919091179055565b806060015115612eea5760405162461bcd60e51b815260206004820152603060248201526000805160206152cd83398151915260448201526f1c9bdbdd081a5cc8191a5cd8589b195960821b6064820152608401610baa565b806040015163ffffffff16421015612f515760405162461bcd60e51b815260206004820152603660248201526000805160206152cd8339815191526044820152751c9bdbdd081b9bdd081858dd1a5d985d1959081e595d60521b6064820152608401610baa565b612f5e60c0830183615169565b9050612f6d60a0840184615169565b905014612fe55760405162461bcd60e51b815260206004820152604c60248201526000805160206152cd83398151915260448201527f746f6b656e496e646963657320616e6420746f6b656e50726f6f6673206c656e60648201526b0cee8d040dad2e6dac2e8c6d60a31b608482015260a401610baa565b612ff260e083018361511f565b905061300160c0840184615169565b9050146130775760405162461bcd60e51b815260206004820152604a60248201526000805160206152cd83398151915260448201527f746f6b656e5472656550726f6f667320616e64206c6561766573206c656e67746064820152690d040dad2e6dac2e8c6d60b31b608482015260a401610baa565b80516130a39061308d604085016020860161487c565b61309a60408601866151b3565b866060016140de565b60005b6130b360a0840184615169565b905081101561315d5761314d60808401356130d160a0860186615169565b848181106130e1576130e1614ade565b90506020020160208101906130f6919061487c565b61310360c0870187615169565b8581811061311357613113614ade565b905060200281019061312591906151b3565b61313260e089018961511f565b8781811061314257613142614ade565b90506040020161424a565b61315681614e70565b90506130a6565b505050565b603380546001600160a01b038381166001600160a01b0319831681179093556040519116919082907f8be0079c531659141344cd1fd0a4f28419497f9722a3daafe3b4186f6b6457e090600090a35050565b60cb546040516001600160a01b038084169216907f237b82f438d75fc568ebab484b75b01d9287b9e98b490b7c23221623b6705dbb90600090a360cb80546001600160a01b0319166001600160a01b0392909216919091179055565b600061323f61321f838061511f565b61322f608086016060870161487c565b6127e760a087016080880161487c565b600061324e604084018461511f565b9050116132ce5760405162461bcd60e51b8152602060048201526054602482015260008051602061530d83398151915260448201527f61746f724469726563746564526577617264735375626d697373696f6e3a206e6064820152731bc81bdc195c985d1bdc9cc81c995dd85c99195960621b608482015260a401610baa565b60008060005b6132e1604086018661511f565b905081101561351357366132f8604087018761511f565b8381811061330857613308614ade565b60400291909101915060009050613322602083018361464c565b6001600160a01b031614156133a15760405162461bcd60e51b815260206004820152605b602482015260008051602061530d83398151915260448201526000805160206152ed83398151915260648201527f70657261746f722063616e6e6f74206265203020616464726573730000000000608482015260a401610baa565b6133ae602082018261464c565b6001600160a01b0316836001600160a01b03161061345c5760405162461bcd60e51b8152602060048201526078602482015260008051602061530d83398151915260448201526000805160206152ed83398151915260648201527f70657261746f7273206d75737420626520696e20617363656e64696e67206f7260848201527f64657220746f2068616e646c65206475706c696361746573000000000000000060a482015260c401610baa565b613469602082018261464c565b925060008160200135116134f15760405162461bcd60e51b8152602060048201526061602482015260008051602061530d83398151915260448201526000805160206152ed83398151915260648201527f70657261746f722072657761726420616d6f756e742063616e6e6f74206265206084820152600360fc1b60a482015260c401610baa565b6134ff602082013585614e45565b9350508061350c90614e70565b90506132d4565b506f4b3b4ca85a86c47a098a223fffffffff8211156135a65760405162461bcd60e51b8152602060048201526055602482015260008051602061530d83398151915260448201527f61746f724469726563746564526577617264735375626d697373696f6e3a20746064820152746f74616c20616d6f756e7420746f6f206c6172676560581b608482015260a401610baa565b426135b760a086016080870161487c565b6135c7608087016060880161487c565b6135d19190614edf565b63ffffffff161061366b5760405162461bcd60e51b8152602060048201526076602482015260008051602061530d83398151915260448201526000805160206152ed83398151915260648201527f70657261746f722d64697265637465642072657761726473207375626d697373608482015275696f6e206973206e6f7420726574726f61637469766560501b60a482015260c401610baa565b5092915050565b60cb546040805161ffff600160e01b9093048316815291831660208301527fe6cd4edfdcc1f6d130ab35f73d72378f3a642944fb4ee5bd84b7807a81ea1c4e910160405180910390a160cb805461ffff909216600160e01b0261ffff60e01b19909216919091179055565b61271061ffff831611156137635760405162461bcd60e51b815260206004820152604160248201527f52657761726473436f6f7264696e61746f722e5f7365744f70657261746f725360448201527f706c69743a2073706c6974206d757374206265203c3d203130303030206269706064820152607360f81b608482015260a401610baa565b8254600160201b900463ffffffff1642116137f45760405162461bcd60e51b815260206004820152604560248201527f52657761726473436f6f7264696e61746f722e5f7365744f70657261746f725360448201527f706c69743a206561726c6965722073706c6974206e6f7420616374697661746560648201526419081e595d60da1b608482015260a401610baa565b8254600160201b900463ffffffff1661381957825461ffff191661ffff178355613830565b825462010000810461ffff1661ffff199091161783555b825463ffffffff909116600160201b0267ffffffff000000001961ffff90931662010000029290921667ffffffffffff00001990911617179055565b604080518082018252600a81526922b4b3b2b72630bcb2b960b11b60209182015281517f8cad95687ba82c2ce50e74f7b754645e5117c3a5bec8151c0726d5857980a866818301527f71b625cfad44bac63b13dba07f2e1d6084ee04b6f8752101ece6126d584ee6ea81840152466060820152306080808301919091528351808303909101815260a0909101909252815191012090565b6065546001600160a01b031615801561392457506001600160a01b03821615155b6139a65760405162461bcd60e51b815260206004820152604760248201527f5061757361626c652e5f696e697469616c697a655061757365723a205f696e6960448201527f7469616c697a6550617573657228292063616e206f6e6c792062652063616c6c6064820152666564206f6e636560c81b608482015260a401610baa565b606681905560405181815233907fab40a374bc51de372200a8bc981af8c9ecdc08dfdaef0bb6e09f88f3c616ef3d9060200160405180910390a26139e9826126c3565b5050565b82613a5d5760405162461bcd60e51b8152602060048201526046602482015260008051602061532d83398151915260448201527f6f6e526577617264735375626d697373696f6e3a206e6f207374726174656769606482015265195cc81cd95d60d21b608482015260a401610baa565b7f000000000000000000000000000000000000000000000000000000000000000063ffffffff168163ffffffff161115613b135760405162461bcd60e51b815260206004820152605a602482015260008051602061532d83398151915260448201527f6f6e526577617264735375626d697373696f6e3a206475726174696f6e20657860648201527f6365656473204d41585f524557415244535f4455524154494f4e000000000000608482015260a401610baa565b613b3d7f000000000000000000000000000000000000000000000000000000000000000082615210565b63ffffffff1615613be35760405162461bcd60e51b8152602060048201526070602482015260008051602061532d83398151915260448201527f6f6e526577617264735375626d697373696f6e3a206475726174696f6e206d7560648201527f73742062652061206d756c7469706c65206f662043414c43554c4154494f4e5f60848201526f494e54455256414c5f5345434f4e445360801b60a482015260c401610baa565b613c0d7f000000000000000000000000000000000000000000000000000000000000000083615210565b63ffffffff1615613cb95760405162461bcd60e51b8152602060048201526076602482015260008051602061532d83398151915260448201527f6f6e526577617264735375626d697373696f6e3a20737461727454696d65737460648201527f616d70206d7573742062652061206d756c7469706c65206f662043414c43554c6084820152754154494f4e5f494e54455256414c5f5345434f4e445360501b60a482015260c401610baa565b8163ffffffff167f000000000000000000000000000000000000000000000000000000000000000063ffffffff1642613cf29190614ac7565b11158015613d2c57508163ffffffff167f000000000000000000000000000000000000000000000000000000000000000063ffffffff1611155b613db25760405162461bcd60e51b8152602060048201526057602482015260008051602061532d83398151915260448201527f6f6e526577617264735375626d697373696f6e3a20737461727454696d65737460648201527f616d7020746f6f2066617220696e207468652070617374000000000000000000608482015260a401610baa565b6000805b84811015612da6576000868683818110613dd257613dd2614ade565b613de8926020604090920201908101915061464c565b60405163198f077960e21b81526001600160a01b0380831660048301529192507f00000000000000000000000000000000000000000000000000000000000000009091169063663c1de490602401602060405180830381865afa158015613e53573d6000803e3d6000fd5b505050506040513d601f19601f82011682018060405250810190613e779190614b72565b80613e9e57506001600160a01b03811673beac0eeeeeeeeeeeeeeeeeeeeeeeeeeeeeebeac0145b613f175760405162461bcd60e51b8152602060048201526050602482015260008051602061532d83398151915260448201527f6f6e526577617264735375626d697373696f6e3a20696e76616c69642073747260648201526f185d1959de4818dbdb9cda59195c995960821b608482015260a401610baa565b806001600160a01b0316836001600160a01b031610613fca5760405162461bcd60e51b815260206004820152606f602482015260008051602061532d83398151915260448201527f6f6e526577617264735375626d697373696f6e3a20737472617465676965732060648201527f6d75737420626520696e20617363656e64696e67206f7264657220746f20686160848201526e6e646c65206475706c69636174657360881b60a482015260c401610baa565b9150613fd581614e70565b9050613db6565b6000614031826040518060400160405280602081526020017f5361666545524332303a206c6f772d6c6576656c2063616c6c206661696c6564815250856001600160a01b031661439b9092919063ffffffff16565b80519091501561315d578080602001905181019061404f9190614b72565b61315d5760405162461bcd60e51b815260206004820152602a60248201527f5361666545524332303a204552433230206f7065726174696f6e20646964206e6044820152691bdd081cdd58d8d9595960b21b6064820152608401610baa565b6040516001600160a01b03831660248201526044810182905261315d90849063a9059cbb60e01b90606401612a04565b6140e9602083615233565b6001901b8463ffffffff16106141735760405162461bcd60e51b815260206004820152604360248201527f52657761726473436f6f7264696e61746f722e5f7665726966794561726e657260448201527f436c61696d50726f6f663a20696e76616c6964206561726e65724c656166496e6064820152620c8caf60eb1b608482015260a401610baa565b600061417e82610cfe565b90506141c984848080601f0160208091040260200160405190810160405280939291908181526020018383808284376000920191909152508a92508591505063ffffffff89166143b2565b612da65760405162461bcd60e51b815260206004820152604660248201527f52657761726473436f6f7264696e61746f722e5f7665726966794561726e657260448201527f436c61696d50726f6f663a20696e76616c6964206561726e657220636c61696d60648201526510383937b7b360d11b608482015260a401610baa565b614255602083615233565b6001901b8463ffffffff16106142d35760405162461bcd60e51b815260206004820152603c60248201527f52657761726473436f6f7264696e61746f722e5f766572696679546f6b656e4360448201527f6c61696d3a20696e76616c696420746f6b656e4c656166496e646578000000006064820152608401610baa565b60006142de82611f99565b905061432984848080601f0160208091040260200160405190810160405280939291908181526020018383808284376000920191909152508a92508591505063ffffffff89166143b2565b612da65760405162461bcd60e51b815260206004820152603f60248201527f52657761726473436f6f7264696e61746f722e5f766572696679546f6b656e4360448201527f6c61696d3a20696e76616c696420746f6b656e20636c61696d2070726f6f66006064820152608401610baa565b60606143aa84846000856143ca565b949350505050565b6000836143c08685856144fb565b1495945050505050565b60608247101561442b5760405162461bcd60e51b815260206004820152602660248201527f416464726573733a20696e73756666696369656e742062616c616e636520666f6044820152651c8818d85b1b60d21b6064820152608401610baa565b6001600160a01b0385163b6144825760405162461bcd60e51b815260206004820152601d60248201527f416464726573733a2063616c6c20746f206e6f6e2d636f6e74726163740000006044820152606401610baa565b600080866001600160a01b0316858760405161449e9190615273565b60006040518083038185875af1925050503d80600081146144db576040519150601f19603f3d011682016040523d82523d6000602084013e6144e0565b606091505b50915091506144f08282866145fe565b979650505050505050565b60006020845161450b9190615285565b156145925760405162461bcd60e51b815260206004820152604b60248201527f4d65726b6c652e70726f63657373496e636c7573696f6e50726f6f664b65636360448201527f616b3a2070726f6f66206c656e6774682073686f756c642062652061206d756c60648201526a3a34b836329037b310199960a91b608482015260a401610baa565b8260205b855181116145f5576145a9600285615285565b6145ca578160005280860151602052604060002091506002840493506145e3565b8086015160005281602052604060002091506002840493505b6145ee602082614e45565b9050614596565b50949350505050565b6060831561460d575081611e03565b82511561461d5782518084602001fd5b8160405162461bcd60e51b8152600401610baa9190615299565b6001600160a01b0381168114610bbc57600080fd5b60006020828403121561465e57600080fd5b8135611e0381614637565b8015158114610bbc57600080fd5b6000806040838503121561468a57600080fd5b823561469581614637565b915060208301356146a581614669565b809150509250929050565b6000602082840312156146c257600080fd5b5035919050565b6000604082840312156146db57600080fd5b50919050565b6000604082840312156146f357600080fd5b611e0383836146c9565b60008083601f84011261470f57600080fd5b50813567ffffffffffffffff81111561472757600080fd5b6020830191508360208260051b850101111561474257600080fd5b9250929050565b6000806020838503121561475c57600080fd5b823567ffffffffffffffff81111561477357600080fd5b61477f858286016146fd565b90969095509350505050565b600061010082840312156146db57600080fd5b600080604083850312156147b157600080fd5b823567ffffffffffffffff8111156147c857600080fd5b6147d48582860161478b565b92505060208301356146a581614637565b803563ffffffff81168114612e1b57600080fd5b6000806040838503121561480c57600080fd5b8235915061481c602084016147e5565b90509250929050565b60008060006040848603121561483a57600080fd5b833567ffffffffffffffff81111561485157600080fd5b61485d868287016146fd565b909450925050602084013561487181614637565b809150509250925092565b60006020828403121561488e57600080fd5b611e03826147e5565b6000602082840312156148a957600080fd5b813560ff81168114611e0357600080fd5b6000602082840312156148cc57600080fd5b813567ffffffffffffffff8111156148e357600080fd5b6143aa8482850161478b565b6000806040838503121561490257600080fd5b823561490d81614637565b946020939093013593505050565b6000806040838503121561492e57600080fd5b823561493981614637565b915060208301356146a581614637565b60008060006040848603121561495e57600080fd5b833561496981614637565b9250602084013567ffffffffffffffff81111561498557600080fd5b614991868287016146fd565b9497909650939450505050565b803561ffff81168114612e1b57600080fd5b6000602082840312156149c257600080fd5b611e038261499e565b600080604083850312156149de57600080fd5b82356149e981614637565b915061481c6020840161499e565b60008060008060008060c08789031215614a1057600080fd5b8635614a1b81614637565b95506020870135614a2b81614637565b9450604087013593506060870135614a4281614637565b9250614a50608088016147e5565b9150614a5e60a0880161499e565b90509295509295509295565b600080600060608486031215614a7f57600080fd5b8335614a8a81614637565b92506020840135614a9a81614637565b9150614aa86040850161499e565b90509250925092565b634e487b7160e01b600052601160045260246000fd5b600082821015614ad957614ad9614ab1565b500390565b634e487b7160e01b600052603260045260246000fd5b600081614b0357614b03614ab1565b506000190190565b600060208284031215614b1d57600080fd5b8151611e0381614637565b6020808252602a908201527f6d73672e73656e646572206973206e6f74207065726d697373696f6e6564206160408201526939903ab73830bab9b2b960b11b606082015260800190565b600060208284031215614b8457600080fd5b8151611e0381614669565b60208082526028908201527f6d73672e73656e646572206973206e6f74207065726d697373696f6e6564206160408201526739903830bab9b2b960c11b606082015260800190565b60208082526019908201527f5061757361626c653a20696e6465782069732070617573656400000000000000604082015260600190565b60208082526051908201527f52657761726473436f6f7264696e61746f723a2063616c6c6572206973206e6f60408201527f7420612076616c69642063726561746552657761726473466f72416c6c53756260608201527036b4b9b9b4b7b71039bab136b4ba3a32b960791b608082015260a00190565b6020808252601f908201527f5265656e7472616e637947756172643a207265656e7472616e742063616c6c00604082015260600190565b60008235609e19833603018112614cd257600080fd5b9190910192915050565b6000808335601e19843603018112614cf357600080fd5b830160208101925035905067ffffffffffffffff811115614d1357600080fd5b8060061b360383131561474257600080fd5b818352600060208085019450826000805b86811015614d8a578235614d4981614637565b6001600160a01b03168852828401356bffffffffffffffffffffffff8116808214614d72578384fd5b89860152506040978801979290920191600101614d36565b50959695505050505050565b6000614da28283614cdc565b60a08552614db460a086018284614d25565b9150506020830135614dc581614637565b6001600160a01b0316602085015260408381013590850152614de9606084016147e5565b63ffffffff808216606087015280614e03608087016147e5565b16608087015250508091505092915050565b60018060a01b0384168152826020820152606060408201526000614e3c6060830184614d96565b95945050505050565b60008219821115614e5857614e58614ab1565b500190565b602081526000611e036020830184614d96565b6000600019821415614e8457614e84614ab1565b5060010190565b60208082526034908201527f52657761726473436f6f7264696e61746f723a2063616c6c6572206973206e6f6040820152733a103a3432903932bbb0b93239aab83230ba32b960611b606082015260800190565b600063ffffffff808316818516808303821115614efe57614efe614ab1565b01949350505050565b6000823560fe19833603018112614cd257600080fd5b6000823560be19833603018112614cd257600080fd5b6000808335601e19843603018112614f4a57600080fd5b830160208101925035905067ffffffffffffffff811115614f6a57600080fd5b80360383131561474257600080fd5b81835281816020850137506000828201602090810191909152601f909101601f19169091010190565b6000614fae8283614cdc565b60c08552614fc060c086018284614d25565b915050602080840135614fd281614637565b6001600160a01b0390811686830152604090614ff086830187614cdc565b888603848a015280865290946000919085015b8183101561503457863561501681614637565b84168152868601358682015295840195600192909201918401615003565b61504060608a016147e5565b63ffffffff811660608c0152965061505a60808a016147e5565b63ffffffff811660808c0152965061507560a08a018a614f33565b9750955089810360a08b015261508c818888614f79565b9a9950505050505050505050565b60018060a01b0384168152826020820152606060408201526000614e3c6060830184614fa2565b8281526040602082015260006143aa6040830184614fa2565b600063ffffffff838116908316818110156150f7576150f7614ab1565b039392505050565b600063ffffffff82168061511557615115614ab1565b6000190192915050565b6000808335601e1984360301811261513657600080fd5b83018035915067ffffffffffffffff82111561515157600080fd5b6020019150600681901b360382131561474257600080fd5b6000808335601e1984360301811261518057600080fd5b83018035915067ffffffffffffffff82111561519b57600080fd5b6020019150600581901b360382131561474257600080fd5b6000808335601e198436030181126151ca57600080fd5b83018035915067ffffffffffffffff8211156151e557600080fd5b60200191503681900382131561474257600080fd5b634e487b7160e01b600052601260045260246000fd5b600063ffffffff80841680615227576152276151fa565b92169190910692915050565b600082615242576152426151fa565b500490565b60005b8381101561526257818101518382015260200161524a565b83811115612a3b5750506000910152565b60008251614cd2818460208701615247565b600082615294576152946151fa565b500690565b60208152600082518060208401526152b8816040850160208701615247565b601f01601f1916919091016040019291505056fe52657761726473436f6f7264696e61746f722e5f636865636b436c61696d3a2061746f724469726563746564526577617264735375626d697373696f6e3a206f52657761726473436f6f7264696e61746f722e5f76616c69646174654f70657252657761726473436f6f7264696e61746f722e5f76616c6964617465436f6d6da2646970667358221220f610aad7d3d0b4eaf0115e45f78936d10f7d68397ebb2834a09d0e21d70c63b864736f6c634300080c0033",
    "linkReferences": {}
  },
  "methodIdentifiers": {
    "CALCULATION_INTERVAL_SECONDS()": "9d45c281",
    "GENESIS_REWARDS_TIMESTAMP()": "131433b4",
    "MAX_FUTURE_LENGTH()": "04a0c502",
    "MAX_RETROACTIVE_LENGTH()": "37838ed0",
    "MAX_REWARDS_DURATION()": "bf21a8aa",
    "activationDelay()": "3a8c0786",
    "beaconChainETHStrategy()": "9104c319",
    "calculateEarnerLeafHash((address,bytes32))": "149bc872",
    "calculateTokenLeafHash((address,uint256))": "f8cd8448",
    "checkClaim((uint32,uint32,bytes,(address,bytes32),uint32[],bytes[],(address,uint256)[]))": "5e9d8348",
    "claimerFor(address)": "2b9f64a4",
    "createAVSRewardsSubmission(((address,uint96)[],address,uint256,uint32,uint32)[])": "fce36c7d",
    "createOperatorDirectedAVSRewardsSubmission(address,((address,uint96)[],address,(address,uint256)[],uint32,uint32,string)[])": "9cb9a5fa",
    "createRewardsForAllEarners(((address,uint96)[],address,uint256,uint32,uint32)[])": "ff9f6cce",
    "createRewardsForAllSubmission(((address,uint96)[],address,uint256,uint32,uint32)[])": "36af41fa",
    "cumulativeClaimed(address,address)": "865c6953",
    "currRewardsCalculationEndTimestamp()": "4d18cc35",
    "defaultOperatorSplitBips()": "63f6a798",
    "delegationManager()": "ea4d3c9b",
    "disableRoot(uint32)": "f96abf2e",
    "domainSeparator()": "f698da25",
    "getCurrentClaimableDistributionRoot()": "0e9a53cf",
    "getCurrentDistributionRoot()": "9be3d4e4",
    "getDistributionRootAtIndex(uint256)": "de02e503",
    "getDistributionRootsLength()": "7b8f8b05",
    "getOperatorAVSSplit(address,address)": "e063f81f",
    "getOperatorPISplit(address)": "4b943960",
    "getRootIndexFromHash(bytes32)": "e810ce21",
    "initialize(address,address,uint256,address,uint32,uint16)": "d4540a55",
    "isAVSRewardsSubmissionHash(address,bytes32)": "6d21117e",
    "isOperatorDirectedAVSRewardsSubmissionHash(address,bytes32)": "ed71e6a2",
    "isRewardsForAllSubmitter(address)": "0018572c",
    "isRewardsSubmissionForAllEarnersHash(address,bytes32)": "aebd8bae",
    "isRewardsSubmissionForAllHash(address,bytes32)": "c46db606",
    "owner()": "8da5cb5b",
    "pause(uint256)": "136439dd",
    "pauseAll()": "595c6a67",
    "paused()": "5c975abb",
    "paused(uint8)": "5ac86ab7",
    "pauserRegistry()": "886f1195",
    "processClaim((uint32,uint32,bytes,(address,bytes32),uint32[],bytes[],(address,uint256)[]),address)": "3ccc861d",
    "processClaims((uint32,uint32,bytes,(address,bytes32),uint32[],bytes[],(address,uint256)[])[],address)": "4596021c",
    "renounceOwnership()": "715018a6",
    "rewardsUpdater()": "fbf1e2c1",
    "setActivationDelay(uint32)": "58baaa3e",
    "setClaimerFor(address)": "a0169ddd",
    "setDefaultOperatorSplit(uint16)": "a50a1d9c",
    "setOperatorAVSSplit(address,address,uint16)": "dcbb03b3",
    "setOperatorPISplit(address,uint16)": "b3dbb0e0",
    "setPauserRegistry(address)": "10d67a2f",
    "setRewardsForAllSubmitter(address,bool)": "0eb38345",
    "setRewardsUpdater(address)": "863cb9a9",
    "strategyManager()": "39b70e38",
    "submissionNonce(address)": "bb7e451f",
    "submitRoot(bytes32,uint32)": "3efe1db6",
    "transferOwnership(address)": "f2fde38b",
    "unpause(uint256)": "fabc1cbc"
  },
  "id": 113
}