{
  "abi": [
    {
      "type": "constructor",
      "inputs": [
        {
          "name": "_ethPOS",
          "type": "address",
          "internalType": "contract IETHPOSDeposit"
        },
        {
          "name": "_eigenPodManager",
          "type": "address",
          "internalType": "contract IEigenPodManager"
        },
        {
          "name": "_GENESIS_TIME",
          "type": "uint64",
          "internalType": "uint64"
        }
      ],
      "stateMutability": "nonpayable"
    },
    {
      "type": "receive",
      "stateMutability": "payable"
    },
    {
      "type": "function",
      "name": "GENESIS_TIME",
      "inputs": [],
      "outputs": [
        {
          "name": "",
          "type": "uint64",
          "internalType": "uint64"
        }
      ],
      "stateMutability": "view"
    },
    {
      "type": "function",
      "name": "activeValidatorCount",
      "inputs": [],
      "outputs": [
        {
          "name": "",
          "type": "uint256",
          "internalType": "uint256"
        }
      ],
      "stateMutability": "view"
    },
    {
      "type": "function",
      "name": "checkpointBalanceExitedGwei",
      "inputs": [
        {
          "name": "",
          "type": "uint64",
          "internalType": "uint64"
        }
      ],
      "outputs": [
        {
          "name": "",
          "type": "uint64",
          "internalType": "uint64"
        }
      ],
      "stateMutability": "view"
    },
    {
      "type": "function",
      "name": "currentCheckpoint",
      "inputs": [],
      "outputs": [
        {
          "name": "",
          "type": "tuple",
          "internalType": "struct IEigenPodTypes.Checkpoint",
          "components": [
            {
              "name": "beaconBlockRoot",
              "type": "bytes32",
              "internalType": "bytes32"
            },
            {
              "name": "proofsRemaining",
              "type": "uint24",
              "internalType": "uint24"
            },
            {
              "name": "podBalanceGwei",
              "type": "uint64",
              "internalType": "uint64"
            },
            {
              "name": "balanceDeltasGwei",
              "type": "int64",
              "internalType": "int64"
            },
            {
              "name": "prevBeaconBalanceGwei",
              "type": "uint64",
              "internalType": "uint64"
            }
          ]
        }
      ],
      "stateMutability": "view"
    },
    {
      "type": "function",
      "name": "currentCheckpointTimestamp",
      "inputs": [],
      "outputs": [
        {
          "name": "",
          "type": "uint64",
          "internalType": "uint64"
        }
      ],
      "stateMutability": "view"
    },
    {
      "type": "function",
      "name": "eigenPodManager",
      "inputs": [],
      "outputs": [
        {
          "name": "",
          "type": "address",
          "internalType": "contract IEigenPodManager"
        }
      ],
      "stateMutability": "view"
    },
    {
      "type": "function",
      "name": "ethPOS",
      "inputs": [],
      "outputs": [
        {
          "name": "",
          "type": "address",
          "internalType": "contract IETHPOSDeposit"
        }
      ],
      "stateMutability": "view"
    },
    {
      "type": "function",
      "name": "getParentBlockRoot",
      "inputs": [
        {
          "name": "timestamp",
          "type": "uint64",
          "internalType": "uint64"
        }
      ],
      "outputs": [
        {
          "name": "",
          "type": "bytes32",
          "internalType": "bytes32"
        }
      ],
      "stateMutability": "view"
    },
    {
      "type": "function",
      "name": "initialize",
      "inputs": [
        {
          "name": "_podOwner",
          "type": "address",
          "internalType": "address"
        }
      ],
      "outputs": [],
      "stateMutability": "nonpayable"
    },
    {
      "type": "function",
      "name": "lastCheckpointTimestamp",
      "inputs": [],
      "outputs": [
        {
          "name": "",
          "type": "uint64",
          "internalType": "uint64"
        }
      ],
      "stateMutability": "view"
    },
    {
      "type": "function",
      "name": "podOwner",
      "inputs": [],
      "outputs": [
        {
          "name": "",
          "type": "address",
          "internalType": "address"
        }
      ],
      "stateMutability": "view"
    },
    {
      "type": "function",
      "name": "proofSubmitter",
      "inputs": [],
      "outputs": [
        {
          "name": "",
          "type": "address",
          "internalType": "address"
        }
      ],
      "stateMutability": "view"
    },
    {
      "type": "function",
      "name": "recoverTokens",
      "inputs": [
        {
          "name": "tokenList",
          "type": "address[]",
          "internalType": "contract IERC20[]"
        },
        {
          "name": "amountsToWithdraw",
          "type": "uint256[]",
          "internalType": "uint256[]"
        },
        {
          "name": "recipient",
          "type": "address",
          "internalType": "address"
        }
      ],
      "outputs": [],
      "stateMutability": "nonpayable"
    },
    {
      "type": "function",
      "name": "setProofSubmitter",
      "inputs": [
        {
          "name": "newProofSubmitter",
          "type": "address",
          "internalType": "address"
        }
      ],
      "outputs": [],
      "stateMutability": "nonpayable"
    },
    {
      "type": "function",
      "name": "stake",
      "inputs": [
        {
          "name": "pubkey",
          "type": "bytes",
          "internalType": "bytes"
        },
        {
          "name": "signature",
          "type": "bytes",
          "internalType": "bytes"
        },
        {
          "name": "depositDataRoot",
          "type": "bytes32",
          "internalType": "bytes32"
        }
      ],
      "outputs": [],
      "stateMutability": "payable"
    },
    {
      "type": "function",
      "name": "startCheckpoint",
      "inputs": [
        {
          "name": "revertIfNoBalance",
          "type": "bool",
          "internalType": "bool"
        }
      ],
      "outputs": [],
      "stateMutability": "nonpayable"
    },
    {
      "type": "function",
      "name": "validatorPubkeyHashToInfo",
      "inputs": [
        {
          "name": "validatorPubkeyHash",
          "type": "bytes32",
          "internalType": "bytes32"
        }
      ],
      "outputs": [
        {
          "name": "",
          "type": "tuple",
          "internalType": "struct IEigenPodTypes.ValidatorInfo",
          "components": [
            {
              "name": "validatorIndex",
              "type": "uint64",
              "internalType": "uint64"
            },
            {
              "name": "restakedBalanceGwei",
              "type": "uint64",
              "internalType": "uint64"
            },
            {
              "name": "lastCheckpointedAt",
              "type": "uint64",
              "internalType": "uint64"
            },
            {
              "name": "status",
              "type": "uint8",
              "internalType": "enum IEigenPodTypes.VALIDATOR_STATUS"
            }
          ]
        }
      ],
      "stateMutability": "view"
    },
    {
      "type": "function",
      "name": "validatorPubkeyToInfo",
      "inputs": [
        {
          "name": "validatorPubkey",
          "type": "bytes",
          "internalType": "bytes"
        }
      ],
      "outputs": [
        {
          "name": "",
          "type": "tuple",
          "internalType": "struct IEigenPodTypes.ValidatorInfo",
          "components": [
            {
              "name": "validatorIndex",
              "type": "uint64",
              "internalType": "uint64"
            },
            {
              "name": "restakedBalanceGwei",
              "type": "uint64",
              "internalType": "uint64"
            },
            {
              "name": "lastCheckpointedAt",
              "type": "uint64",
              "internalType": "uint64"
            },
            {
              "name": "status",
              "type": "uint8",
              "internalType": "enum IEigenPodTypes.VALIDATOR_STATUS"
            }
          ]
        }
      ],
      "stateMutability": "view"
    },
    {
      "type": "function",
      "name": "validatorStatus",
      "inputs": [
        {
          "name": "validatorPubkey",
          "type": "bytes",
          "internalType": "bytes"
        }
      ],
      "outputs": [
        {
          "name": "",
          "type": "uint8",
          "internalType": "enum IEigenPodTypes.VALIDATOR_STATUS"
        }
      ],
      "stateMutability": "view"
    },
    {
      "type": "function",
      "name": "validatorStatus",
      "inputs": [
        {
          "name": "pubkeyHash",
          "type": "bytes32",
          "internalType": "bytes32"
        }
      ],
      "outputs": [
        {
          "name": "",
          "type": "uint8",
          "internalType": "enum IEigenPodTypes.VALIDATOR_STATUS"
        }
      ],
      "stateMutability": "view"
    },
    {
      "type": "function",
      "name": "verifyCheckpointProofs",
      "inputs": [
        {
          "name": "balanceContainerProof",
          "type": "tuple",
          "internalType": "struct BeaconChainProofs.BalanceContainerProof",
          "components": [
            {
              "name": "balanceContainerRoot",
              "type": "bytes32",
              "internalType": "bytes32"
            },
            {
              "name": "proof",
              "type": "bytes",
              "internalType": "bytes"
            }
          ]
        },
        {
          "name": "proofs",
          "type": "tuple[]",
          "internalType": "struct BeaconChainProofs.BalanceProof[]",
          "components": [
            {
              "name": "pubkeyHash",
              "type": "bytes32",
              "internalType": "bytes32"
            },
            {
              "name": "balanceRoot",
              "type": "bytes32",
              "internalType": "bytes32"
            },
            {
              "name": "proof",
              "type": "bytes",
              "internalType": "bytes"
            }
          ]
        }
      ],
      "outputs": [],
      "stateMutability": "nonpayable"
    },
    {
      "type": "function",
      "name": "verifyStaleBalance",
      "inputs": [
        {
          "name": "beaconTimestamp",
          "type": "uint64",
          "internalType": "uint64"
        },
        {
          "name": "stateRootProof",
          "type": "tuple",
          "internalType": "struct BeaconChainProofs.StateRootProof",
          "components": [
            {
              "name": "beaconStateRoot",
              "type": "bytes32",
              "internalType": "bytes32"
            },
            {
              "name": "proof",
              "type": "bytes",
              "internalType": "bytes"
            }
          ]
        },
        {
          "name": "proof",
          "type": "tuple",
          "internalType": "struct BeaconChainProofs.ValidatorProof",
          "components": [
            {
              "name": "validatorFields",
              "type": "bytes32[]",
              "internalType": "bytes32[]"
            },
            {
              "name": "proof",
              "type": "bytes",
              "internalType": "bytes"
            }
          ]
        }
      ],
      "outputs": [],
      "stateMutability": "nonpayable"
    },
    {
      "type": "function",
      "name": "verifyWithdrawalCredentials",
      "inputs": [
        {
          "name": "beaconTimestamp",
          "type": "uint64",
          "internalType": "uint64"
        },
        {
          "name": "stateRootProof",
          "type": "tuple",
          "internalType": "struct BeaconChainProofs.StateRootProof",
          "components": [
            {
              "name": "beaconStateRoot",
              "type": "bytes32",
              "internalType": "bytes32"
            },
            {
              "name": "proof",
              "type": "bytes",
              "internalType": "bytes"
            }
          ]
        },
        {
          "name": "validatorIndices",
          "type": "uint40[]",
          "internalType": "uint40[]"
        },
        {
          "name": "validatorFieldsProofs",
          "type": "bytes[]",
          "internalType": "bytes[]"
        },
        {
          "name": "validatorFields",
          "type": "bytes32[][]",
          "internalType": "bytes32[][]"
        }
      ],
      "outputs": [],
      "stateMutability": "nonpayable"
    },
    {
      "type": "function",
      "name": "withdrawRestakedBeaconChainETH",
      "inputs": [
        {
          "name": "recipient",
          "type": "address",
          "internalType": "address"
        },
        {
          "name": "amountWei",
          "type": "uint256",
          "internalType": "uint256"
        }
      ],
      "outputs": [],
      "stateMutability": "nonpayable"
    },
    {
      "type": "function",
      "name": "withdrawableRestakedExecutionLayerGwei",
      "inputs": [],
      "outputs": [
        {
          "name": "",
          "type": "uint64",
          "internalType": "uint64"
        }
      ],
      "stateMutability": "view"
    },
    {
      "type": "event",
      "name": "CheckpointCreated",
      "inputs": [
        {
          "name": "checkpointTimestamp",
          "type": "uint64",
          "indexed": true,
          "internalType": "uint64"
        },
        {
          "name": "beaconBlockRoot",
          "type": "bytes32",
          "indexed": true,
          "internalType": "bytes32"
        },
        {
          "name": "validatorCount",
          "type": "uint256",
          "indexed": false,
          "internalType": "uint256"
        }
      ],
      "anonymous": false
    },
    {
      "type": "event",
      "name": "CheckpointFinalized",
      "inputs": [
        {
          "name": "checkpointTimestamp",
          "type": "uint64",
          "indexed": true,
          "internalType": "uint64"
        },
        {
          "name": "totalShareDeltaWei",
          "type": "int256",
          "indexed": false,
          "internalType": "int256"
        }
      ],
      "anonymous": false
    },
    {
      "type": "event",
      "name": "EigenPodStaked",
      "inputs": [
        {
          "name": "pubkey",
          "type": "bytes",
          "indexed": false,
          "internalType": "bytes"
        }
      ],
      "anonymous": false
    },
    {
      "type": "event",
      "name": "Initialized",
      "inputs": [
        {
          "name": "version",
          "type": "uint8",
          "indexed": false,
          "internalType": "uint8"
        }
      ],
      "anonymous": false
    },
    {
      "type": "event",
      "name": "NonBeaconChainETHReceived",
      "inputs": [
        {
          "name": "amountReceived",
          "type": "uint256",
          "indexed": false,
          "internalType": "uint256"
        }
      ],
      "anonymous": false
    },
    {
      "type": "event",
      "name": "ProofSubmitterUpdated",
      "inputs": [
        {
          "name": "prevProofSubmitter",
          "type": "address",
          "indexed": false,
          "internalType": "address"
        },
        {
          "name": "newProofSubmitter",
          "type": "address",
          "indexed": false,
          "internalType": "address"
        }
      ],
      "anonymous": false
    },
    {
      "type": "event",
      "name": "RestakedBeaconChainETHWithdrawn",
      "inputs": [
        {
          "name": "recipient",
          "type": "address",
          "indexed": true,
          "internalType": "address"
        },
        {
          "name": "amount",
          "type": "uint256",
          "indexed": false,
          "internalType": "uint256"
        }
      ],
      "anonymous": false
    },
    {
      "type": "event",
      "name": "ValidatorBalanceUpdated",
      "inputs": [
        {
          "name": "validatorIndex",
          "type": "uint40",
          "indexed": false,
          "internalType": "uint40"
        },
        {
          "name": "balanceTimestamp",
          "type": "uint64",
          "indexed": false,
          "internalType": "uint64"
        },
        {
          "name": "newValidatorBalanceGwei",
          "type": "uint64",
          "indexed": false,
          "internalType": "uint64"
        }
      ],
      "anonymous": false
    },
    {
      "type": "event",
      "name": "ValidatorCheckpointed",
      "inputs": [
        {
          "name": "checkpointTimestamp",
          "type": "uint64",
          "indexed": true,
          "internalType": "uint64"
        },
        {
          "name": "validatorIndex",
          "type": "uint40",
          "indexed": true,
          "internalType": "uint40"
        }
      ],
      "anonymous": false
    },
    {
      "type": "event",
      "name": "ValidatorRestaked",
      "inputs": [
        {
          "name": "validatorIndex",
          "type": "uint40",
          "indexed": false,
          "internalType": "uint40"
        }
      ],
      "anonymous": false
    },
    {
      "type": "event",
      "name": "ValidatorWithdrawn",
      "inputs": [
        {
          "name": "checkpointTimestamp",
          "type": "uint64",
          "indexed": true,
          "internalType": "uint64"
        },
        {
          "name": "validatorIndex",
          "type": "uint40",
          "indexed": true,
          "internalType": "uint40"
        }
      ],
      "anonymous": false
    },
    {
      "type": "error",
      "name": "BeaconTimestampTooFarInPast",
      "inputs": []
    },
    {
      "type": "error",
      "name": "CannotCheckpointTwiceInSingleBlock",
      "inputs": []
    },
    {
      "type": "error",
      "name": "CheckpointAlreadyActive",
      "inputs": []
    },
    {
      "type": "error",
      "name": "CredentialsAlreadyVerified",
      "inputs": []
    },
    {
      "type": "error",
      "name": "CurrentlyPaused",
      "inputs": []
    },
    {
      "type": "error",
      "name": "InputAddressZero",
      "inputs": []
    },
    {
      "type": "error",
      "name": "InputArrayLengthMismatch",
      "inputs": []
    },
    {
      "type": "error",
      "name": "InsufficientWithdrawableBalance",
      "inputs": []
    },
    {
      "type": "error",
      "name": "InvalidEIP4788Response",
      "inputs": []
    },
    {
      "type": "error",
      "name": "InvalidProof",
      "inputs": []
    },
    {
      "type": "error",
      "name": "InvalidProofLength",
      "inputs": []
    },
    {
      "type": "error",
      "name": "InvalidProofLength",
      "inputs": []
    },
    {
      "type": "error",
      "name": "InvalidPubKeyLength",
      "inputs": []
    },
    {
      "type": "error",
      "name": "InvalidValidatorFieldsLength",
      "inputs": []
    },
    {
      "type": "error",
      "name": "MsgValueNot32ETH",
      "inputs": []
    },
    {
      "type": "error",
      "name": "NoActiveCheckpoint",
      "inputs": []
    },
    {
      "type": "error",
      "name": "NoBalanceToCheckpoint",
      "inputs": []
    },
    {
      "type": "error",
      "name": "OnlyEigenPodManager",
      "inputs": []
    },
    {
      "type": "error",
      "name": "OnlyEigenPodOwner",
      "inputs": []
    },
    {
      "type": "error",
      "name": "OnlyEigenPodOwnerOrProofSubmitter",
      "inputs": []
    },
    {
      "type": "error",
      "name": "TimestampOutOfRange",
      "inputs": []
    },
    {
      "type": "error",
      "name": "ValidatorInactiveOnBeaconChain",
      "inputs": []
    },
    {
      "type": "error",
      "name": "ValidatorIsExitingBeaconChain",
      "inputs": []
    },
    {
      "type": "error",
      "name": "ValidatorNotActiveInPod",
      "inputs": []
    },
    {
      "type": "error",
      "name": "ValidatorNotSlashedOnBeaconChain",
      "inputs": []
    },
    {
      "type": "error",
      "name": "WithdrawalCredentialsNotForEigenPod",
      "inputs": []
    }
  ],
  "bytecode": {
    "object": "0x60e060405234801561000f575f5ffd5b50604051613c7c380380613c7c83398101604081905261002e91610131565b6001600160a01b03808416608052821660a0526001600160401b03811660c05261005661005e565b505050610186565b5f54610100900460ff16156100c95760405162461bcd60e51b815260206004820152602760248201527f496e697469616c697a61626c653a20636f6e747261637420697320696e697469604482015266616c697a696e6760c81b606482015260840160405180910390fd5b5f5460ff90811614610118575f805460ff191660ff9081179091556040519081527f7f26b83ff96e1f2b6a682f133852f6798a09c465da95921460cefb38474024989060200160405180910390a15b565b6001600160a01b038116811461012e575f5ffd5b50565b5f5f5f60608486031215610143575f5ffd5b835161014e8161011a565b602085015190935061015f8161011a565b60408501519092506001600160401b038116811461017b575f5ffd5b809150509250925092565b60805160a05160c051613a7f6101fd5f395f61060401525f81816102a90152818161063f015281816106e7015281816109ab01528181610b7501528181610e4e01528181610ef50152818161112b01528181611479015281816115ad01526127bb01525f81816104c60152610f5e0152613a7f5ff3fe608060405260043610610164575f3560e01c80636fcd0e53116100cd578063c490744211610087578063dda3346c11610062578063dda3346c14610596578063ee94d67c146105b5578063f074ba62146105d4578063f2882461146105f3575f5ffd5b8063c490744214610539578063c4d66de814610558578063d06d558714610577575f5ffd5b80636fcd0e53146104545780637439841f1461048057806374cdd798146104b557806388676cad146104e85780639b4e463414610507578063b522538a1461051a575f5ffd5b80634665bcda1161011e5780634665bcda1461029857806347d28372146102cb57806352396a59146103b657806358753357146103ea57806358eaee79146104095780636c0d2d5a14610435575f5ffd5b8063039157d2146101a25780630b18ff66146101c35780632340e8d3146101ff5780633474aa16146102225780633f65cf191461025357806342ecff2a14610272575f5ffd5b3661019e576040513481527f6fdd3dbdb173299608c0aa9f368735857c8842b581f8389238bf05bd04b3bf499060200160405180910390a1005b5f5ffd5b3480156101ad575f5ffd5b506101c16101bc366004612ff3565b610626565b005b3480156101ce575f5ffd5b506033546101e2906001600160a01b031681565b6040516001600160a01b0390911681526020015b60405180910390f35b34801561020a575f5ffd5b5061021460395481565b6040519081526020016101f6565b34801561022d575f5ffd5b506034546001600160401b03165b6040516001600160401b0390911681526020016101f6565b34801561025e575f5ffd5b506101c161026d3660046130ac565b610952565b34801561027d575f5ffd5b50603a5461023b90600160401b90046001600160401b031681565b3480156102a3575f5ffd5b506101e27f000000000000000000000000000000000000000000000000000000000000000081565b3480156102d6575f5ffd5b5061035b6040805160a0810182525f80825260208201819052918101829052606081018290526080810191909152506040805160a081018252603c548152603d5462ffffff811660208301526001600160401b0363010000008204811693830193909352600160581b810460070b6060830152600160981b9004909116608082015290565b6040516101f691905f60a0820190508251825262ffffff60208401511660208301526001600160401b036040840151166040830152606083015160070b60608301526001600160401b03608084015116608083015292915050565b3480156103c1575f5ffd5b5061023b6103d0366004613181565b603b6020525f90815260409020546001600160401b031681565b3480156103f5575f5ffd5b50603e546101e2906001600160a01b031681565b348015610414575f5ffd5b506104286104233660046131de565b610bda565b6040516101f69190613250565b348015610440575f5ffd5b5061021461044f366004613181565b610c3c565b34801561045f575f5ffd5b5061047361046e36600461325e565b610d4a565b6040516101f69190613275565b34801561048b575f5ffd5b5061042861049a36600461325e565b5f90815260366020526040902054600160c01b900460ff1690565b3480156104c0575f5ffd5b506101e27f000000000000000000000000000000000000000000000000000000000000000081565b3480156104f3575f5ffd5b506101c16105023660046132d8565b610df5565b6101c16105153660046132f3565b610eea565b348015610525575f5ffd5b506104736105343660046131de565b611031565b348015610544575f5ffd5b506101c1610553366004613383565b611120565b348015610563575f5ffd5b506101c16105723660046133ad565b611257565b348015610582575f5ffd5b506101c16105913660046133ad565b6113a1565b3480156105a1575f5ffd5b506101c16105b0366004613498565b611435565b3480156105c0575f5ffd5b50603a5461023b906001600160401b031681565b3480156105df575f5ffd5b506101c16105ee36600461356a565b611594565b3480156105fe575f5ffd5b5061023b7f000000000000000000000000000000000000000000000000000000000000000081565b604051635ac86ab760e01b8152600660048201819052907f00000000000000000000000000000000000000000000000000000000000000006001600160a01b031690635ac86ab790602401602060405180830381865afa15801561068c573d5f5f3e3d5ffd5b505050506040513d601f19601f820116820180604052508101906106b091906135d1565b156106ce5760405163840a48d560e01b815260040160405180910390fd5b604051635ac86ab760e01b8152600860048201819052907f00000000000000000000000000000000000000000000000000000000000000006001600160a01b031690635ac86ab790602401602060405180830381865afa158015610734573d5f5f3e3d5ffd5b505050506040513d601f19601f8201168201806040525081019061075891906135d1565b156107765760405163840a48d560e01b815260040160405180910390fd5b5f6107ba61078485806135ec565b808060200260200160405190810160405280939291908181526020018383602002808284375f9201919091525061199192505050565b5f818152603660209081526040808320815160808101835281546001600160401b038082168352600160401b8204811695830195909552600160801b8104909416928101929092529394509192906060830190600160c01b900460ff1660028111156108285761082861321c565b60028111156108395761083961321c565b81525050905080604001516001600160401b0316876001600160401b031611610875576040516337e07ffd60e01b815260040160405180910390fd5b60018160600151600281111561088d5761088d61321c565b146108ab5760405163d49e19a760e01b815260040160405180910390fd5b6108ee6108b886806135ec565b808060200260200160405190810160405280939291908181526020018383602002808284375f920191909152506119b392505050565b61090b5760405163161ce5ed60e31b815260040160405180910390fd5b61091d61091788610c3c565b876119db565b610940863561092c87806135ec565b61093960208a018a613631565b8651611a80565b6109495f611ba7565b50505050505050565b6033546001600160a01b03163314806109755750603e546001600160a01b031633145b6109925760405163427a777960e01b815260040160405180910390fd5b604051635ac86ab760e01b8152600260048201819052907f00000000000000000000000000000000000000000000000000000000000000006001600160a01b031690635ac86ab790602401602060405180830381865afa1580156109f8573d5f5f3e3d5ffd5b505050506040513d601f19601f82011682018060405250810190610a1c91906135d1565b15610a3a5760405163840a48d560e01b815260040160405180910390fd5b8584148015610a4857508382145b610a65576040516343714afd60e01b815260040160405180910390fd5b603a546001600160401b03600160401b9091048116908a1611610a9b576040516337e07ffd60e01b815260040160405180910390fd5b610aad610aa78a610c3c565b896119db565b5f805b87811015610b4557610b318a358a8a84818110610acf57610acf613673565b9050602002016020810190610ae49190613687565b898985818110610af657610af6613673565b9050602002810190610b089190613631565b898987818110610b1a57610b1a613673565b9050602002810190610b2c91906135ec565b611d27565b610b3b90836136bf565b9150600101610ab0565b5060335460405163a1ca780b60e01b81526001600160a01b0391821660048201525f6024820152604481018390527f00000000000000000000000000000000000000000000000000000000000000009091169063a1ca780b906064015f604051808303815f87803b158015610bb8575f5ffd5b505af1158015610bca573d5f5f3e3d5ffd5b5050505050505050505050505050565b5f5f610c1a84848080601f0160208091040260200160405190810160405280939291908181526020018383808284375f920191909152506121dc92505050565b5f90815260366020526040902054600160c01b900460ff169150505b92915050565b5f610c4a611fff600c6136d2565b610c5d6001600160401b038416426136e9565b10610c7b57604051637944e66d60e11b815260040160405180910390fd5b604080516001600160401b03841660208201525f918291720f3df6d732807ef1319fb7b8bb8522d0beac02910160408051601f1981840301815290829052610cc291613713565b5f60405180830381855afa9150503d805f8114610cfa576040519150601f19603f3d011682016040523d82523d5f602084013e610cff565b606091505b5091509150818015610d1157505f8151115b610d2e5760405163558ad0a360e01b815260040160405180910390fd5b80806020019051810190610d42919061371e565b949350505050565b610d71604080516080810182525f8082526020820181905291810182905290606082015290565b5f82815260366020908152604091829020825160808101845281546001600160401b038082168352600160401b8204811694830194909452600160801b810490931693810193909352906060830190600160c01b900460ff166002811115610ddb57610ddb61321c565b6002811115610dec57610dec61321c565b90525092915050565b6033546001600160a01b0316331480610e185750603e546001600160a01b031633145b610e355760405163427a777960e01b815260040160405180910390fd5b604051635ac86ab760e01b8152600660048201819052907f00000000000000000000000000000000000000000000000000000000000000006001600160a01b031690635ac86ab790602401602060405180830381865afa158015610e9b573d5f5f3e3d5ffd5b505050506040513d601f19601f82011682018060405250810190610ebf91906135d1565b15610edd5760405163840a48d560e01b815260040160405180910390fd5b610ee682611ba7565b5050565b336001600160a01b037f00000000000000000000000000000000000000000000000000000000000000001614610f3357604051633213a66160e21b815260040160405180910390fd5b346801bc16d674ec80000014610f5c5760405163049696b360e31b815260040160405180910390fd5b7f00000000000000000000000000000000000000000000000000000000000000006001600160a01b031663228951186801bc16d674ec8000008787610f9f61226d565b8888886040518863ffffffff1660e01b8152600401610fc39695949392919061378b565b5f604051808303818588803b158015610fda575f5ffd5b505af1158015610fec573d5f5f3e3d5ffd5b50505050507f606865b7934a25d4aed43f6cdb426403353fa4b3009c4d228407474581b01e2385856040516110229291906137d9565b60405180910390a15050505050565b611058604080516080810182525f8082526020820181905291810182905290606082015290565b60365f61109985858080601f0160208091040260200160405190810160405280939291908181526020018383808284375f920191909152506121dc92505050565b815260208082019290925260409081015f20815160808101835281546001600160401b038082168352600160401b8204811695830195909552600160801b81049094169281019290925290916060830190600160c01b900460ff1660028111156111055761110561321c565b60028111156111165761111661321c565b9052509392505050565b336001600160a01b037f0000000000000000000000000000000000000000000000000000000000000000161461116957604051633213a66160e21b815260040160405180910390fd5b5f611178633b9aca0083613800565b9050611191633b9aca006001600160401b0383166136d2565b6034549092506001600160401b0390811690821611156111c4576040516302c6f54760e21b815260040160405180910390fd5b603480548291905f906111e19084906001600160401b0316613813565b92506101000a8154816001600160401b0302191690836001600160401b03160217905550826001600160a01b03167f8947fd2ce07ef9cc302c4e8f0461015615d91ce851564839e91cc804c2f49d8e8360405161124091815260200190565b60405180910390a261125283836122b1565b505050565b5f54610100900460ff161580801561127557505f54600160ff909116105b8061128e5750303b15801561128e57505f5460ff166001145b6112f65760405162461bcd60e51b815260206004820152602e60248201527f496e697469616c697a61626c653a20636f6e747261637420697320616c72656160448201526d191e481a5b9a5d1a585b1a5e995960921b60648201526084015b60405180910390fd5b5f805460ff191660011790558015611317575f805461ff0019166101001790555b6001600160a01b03821661133e576040516339b190bb60e11b815260040160405180910390fd5b603380546001600160a01b0319166001600160a01b0384161790558015610ee6575f805461ff0019169055604051600181527f7f26b83ff96e1f2b6a682f133852f6798a09c465da95921460cefb38474024989060200160405180910390a15050565b6033546001600160a01b031633146113cc5760405163719f370360e11b815260040160405180910390fd5b603e54604080516001600160a01b03928316815291831660208301527ffb8129080a19d34dceac04ba253fc50304dc86c729bd63cdca4a969ad19a5eac910160405180910390a1603e80546001600160a01b0319166001600160a01b0392909216919091179055565b6033546001600160a01b031633146114605760405163719f370360e11b815260040160405180910390fd5b604051635ac86ab760e01b8152600560048201819052907f00000000000000000000000000000000000000000000000000000000000000006001600160a01b031690635ac86ab790602401602060405180830381865afa1580156114c6573d5f5f3e3d5ffd5b505050506040513d601f19601f820116820180604052508101906114ea91906135d1565b156115085760405163840a48d560e01b815260040160405180910390fd5b825184511461152a576040516343714afd60e01b815260040160405180910390fd5b5f5b845181101561158d576115858385838151811061154b5761154b613673565b602002602001015187848151811061156557611565613673565b60200260200101516001600160a01b03166123c69092919063ffffffff16565b60010161152c565b5050505050565b604051635ac86ab760e01b8152600760048201819052907f00000000000000000000000000000000000000000000000000000000000000006001600160a01b031690635ac86ab790602401602060405180830381865afa1580156115fa573d5f5f3e3d5ffd5b505050506040513d601f19601f8201168201806040525081019061161e91906135d1565b1561163c5760405163840a48d560e01b815260040160405180910390fd5b603a54600160401b90046001600160401b03165f81900361167057604051631a544f4960e01b815260040160405180910390fd5b6040805160a081018252603c54808252603d5462ffffff811660208401526001600160401b0363010000008204811694840194909452600160581b810460070b6060840152600160981b90049092166080820152906116cf9087612418565b5f805b8581101561193857368787838181106116ed576116ed613673565b90506020028101906116ff9190613832565b80355f908152603660209081526040808320815160808101835281546001600160401b038082168352600160401b8204811695830195909552600160801b8104909416928101929092529394509192906060830190600160c01b900460ff16600281111561176f5761176f61321c565b60028111156117805761178061321c565b905250905060018160600151600281111561179d5761179d61321c565b146117a9575050611930565b856001600160401b031681604001516001600160401b0316106117cd575050611930565b5f80806117dd848a8f35886124c9565b60208b01805193965091945092506117f482613850565b62ffffff1690525060808801805184919061181090839061386d565b6001600160401b031690525060608801805183919061183090839061388c565b60070b905250611840818861386d565b85355f908152603660209081526040918290208751815492890151938901516001600160401b03908116600160801b0267ffffffffffffffff60801b19958216600160401b026001600160801b0319909516919092161792909217928316821781556060880151939a50879390929091839160ff60c01b1990911668ffffffffffffffffff60801b1990911617600160c01b8360028111156118e4576118e461321c565b021790555050845160405164ffffffffff90911691506001600160401b038b16907fa91c59033c3423e18b54d0acecebb4972f9ea95aedf5f4cae3b677b02eaf3a3f905f90a350505050505b6001016116d2565b506001600160401b038084165f908152603b60205260408120805484939192916119649185911661386d565b92506101000a8154816001600160401b0302191690836001600160401b03160217905550610949826125ec565b5f815f815181106119a4576119a4613673565b60200260200101519050919050565b5f816003815181106119c7576119c7613673565b60200260200101515f5f1b14159050919050565b6119e7600360206136d2565b6119f46020830183613631565b905014611a14576040516313717da960e21b815260040160405180910390fd5b611a63611a246020830183613631565b8080601f0160208091040260200160405190810160405280939291908181526020018383808284375f920191909152508692505084359050600361281b565b610ee6576040516309bde33960e01b815260040160405180910390fd5b60088414611aa15760405163200591bd60e01b815260040160405180910390fd5b6005611aaf602860016136bf565b611ab991906136bf565b611ac49060206136d2565b8214611ae3576040516313717da960e21b815260040160405180910390fd5b5f611b1f8686808060200260200160405190810160405280939291908181526020018383602002808284375f9201919091525061283292505050565b90505f64ffffffffff8316611b36602860016136bf565b600b901b179050611b8085858080601f0160208091040260200160405190810160405280939291908181526020018383808284375f920191909152508c925086915085905061281b565b611b9d576040516309bde33960e01b815260040160405180910390fd5b5050505050505050565b603a54600160401b90046001600160401b031615611bd75760405162be9bc360e81b815260040160405180910390fd5b603a546001600160401b03428116911603611c05576040516367db5b8b60e01b815260040160405180910390fd5b6034545f906001600160401b0316611c21633b9aca0047613800565b611c2b9190613813565b9050818015611c4157506001600160401b038116155b15611c5f576040516332dea95960e21b815260040160405180910390fd5b5f6040518060a00160405280611c7442610c3c565b815260395462ffffff1660208201526001600160401b0380851660408301525f60608301819052608090920191909152603a805442909216600160401b026fffffffffffffffff0000000000000000199092169190911790559050611cd8816125ec565b805160208083015160405162ffffff90911681526001600160401b034216917f575796133bbed337e5b39aa49a30dc2556a91e0c6c2af4b7b886ae77ebef1076910160405180910390a3505050565b5f5f611d648484808060200260200160405190810160405280939291908181526020018383602002808284375f9201919091525061199192505050565b5f818152603660209081526040808320815160808101835281546001600160401b038082168352600160401b8204811695830195909552600160801b8104909416928101929092529394509192906060830190600160c01b900460ff166002811115611dd257611dd261321c565b6002811115611de357611de361321c565b90525090505f81606001516002811115611dff57611dff61321c565b14611e1d576040516335e09e9d60e01b815260040160405180910390fd5b6001600160401b038016611e628686808060200260200160405190810160405280939291908181526020018383602002808284375f92019190915250612ac292505050565b6001600160401b031603611e8957604051631958236d60e21b815260040160405180910390fd5b6001600160401b038016611ece8686808060200260200160405190810160405280939291908181526020018383602002808284375f92019190915250612ae692505050565b6001600160401b031614611ef557604051632eade63760e01b815260040160405180910390fd5b611efd61226d565b611f06906138bb565b611f418686808060200260200160405190810160405280939291908181526020018383602002808284375f92019190915250612afd92505050565b14611f5f57604051633772dd5360e11b815260040160405180910390fd5b5f611f9b8686808060200260200160405190810160405280939291908181526020018383602002808284375f92019190915250612b1192505050565b9050611fab8a87878b8b8e611a80565b60398054905f611fba836138de565b9091555050603a545f90600160401b90046001600160401b031615611ff157603a54600160401b90046001600160401b0316611ffe565b603a546001600160401b03165b6040805160808101825264ffffffffff8d1681526001600160401b03858116602083015283169181019190915290915060608101600190525f858152603660209081526040918290208351815492850151938501516001600160401b03908116600160801b0267ffffffffffffffff60801b19958216600160401b026001600160801b031990951691909216179290921792831682178155606084015190929091839160ff60c01b1990911668ffffffffffffffffff60801b1990911617600160c01b8360028111156120d3576120d361321c565b021790555050603d80548492506013906120fe908490600160981b90046001600160401b031661386d565b92506101000a8154816001600160401b0302191690836001600160401b031602179055507f2d0800bbc377ea54a08c5db6a87aafff5e3e9c8fead0eda110e40e0c104414498a60405161215e919064ffffffffff91909116815260200190565b60405180910390a16040805164ffffffffff8c1681526001600160401b03838116602083015284168183015290517f0e5fac175b83177cc047381e030d8fb3b42b37bd1c025e22c280facad62c32df9181900360600190a16121cd633b9aca006001600160401b0384166136d2565b9b9a5050505050505050505050565b5f81516030146121ff57604051634f88323960e11b815260040160405180910390fd5b6040516002906122159084905f906020016138f6565b60408051601f198184030181529082905261222f91613713565b602060405180830381855afa15801561224a573d5f5f3e3d5ffd5b5050506040513d601f19601f82011682018060405250810190610c36919061371e565b60408051600160f81b60208201525f602182015230606090811b6bffffffffffffffffffffffff1916602c8301529101604051602081830303815290604052905090565b804710156123015760405162461bcd60e51b815260206004820152601d60248201527f416464726573733a20696e73756666696369656e742062616c616e636500000060448201526064016112ed565b5f826001600160a01b0316826040515f6040518083038185875af1925050503d805f811461234a576040519150601f19603f3d011682016040523d82523d5f602084013e61234f565b606091505b50509050806112525760405162461bcd60e51b815260206004820152603a60248201527f416464726573733a20756e61626c6520746f2073656e642076616c75652c207260448201527f6563697069656e74206d6179206861766520726576657274656400000000000060648201526084016112ed565b604080516001600160a01b038416602482015260448082018490528251808303909101815260649091019091526020810180516001600160e01b031663a9059cbb60e01b179052611252908490612b28565b612424600560036136bf565b61242f9060206136d2565b61243c6020830183613631565b90501461245c576040516313717da960e21b815260040160405180910390fd5b606c6124ac61246e6020840184613631565b8080601f0160208091040260200160405190810160405280939291908181526020018383808284375f9201919091525087925050853590508461281b565b611252576040516309bde33960e01b815260040160405180910390fd5b83516020850151905f908190816124e1878388612bfb565b9050846001600160401b0316816001600160401b03161461255b57612506858261391a565b6040805164ffffffffff851681526001600160401b038b8116602083015284168183015290519195507f0e5fac175b83177cc047381e030d8fb3b42b37bd1c025e22c280facad62c32df919081900360600190a15b6001600160401b0380821660208b0181905290891660408b01525f036125e05760398054905f61258a83613949565b9091555050600260608a015261259f8461395e565b92508164ffffffffff16886001600160401b03167f2a02361ffa66cf2c2da4682c2355a6adcaa9f6c227b6e6563e68480f9587626a60405160405180910390a35b50509450945094915050565b602081015162ffffff161561268c578051603c556020810151603d80546040840151606085015160809095015162ffffff9094166affffffffffffffffffffff199092169190911763010000006001600160401b0392831602176fffffffffffffffffffffffffffffffff60581b1916600160581b9482169490940267ffffffffffffffff60981b191693909317600160981b9390921692909202179055565b60808101516034545f916126a8916001600160401b031661386d565b90505f826060015183604001516126bf919061388c565b60408401516034805492935090915f906126e39084906001600160401b031661386d565b82546101009290920a6001600160401b03818102199093169183160217909155603a8054600160401b810483166001600160801b03199091161790555f915061273390633b9aca009085166136d2565b90505f612748633b9aca00600785900b613983565b603a546040518281529192506001600160401b0316907f525408c201bc1576eb44116f6478f1c2a54775b19a043bcfdc708364f74f8e449060200160405180910390a260335460405163a1ca780b60e01b81526001600160a01b03918216600482015260248101849052604481018390527f00000000000000000000000000000000000000000000000000000000000000009091169063a1ca780b906064015f604051808303815f87803b1580156127fe575f5ffd5b505af1158015612810573d5f5f3e3d5ffd5b505050505050505050565b5f83612828868585612cd9565b1495945050505050565b5f5f600283516128429190613800565b90505f816001600160401b0381111561285d5761285d6133c8565b604051908082528060200260200182016040528015612886578160200160208202803683370190505b5090505f5b82811015612980576002856128a083836136d2565b815181106128b0576128b0613673565b6020026020010151868360026128c691906136d2565b6128d19060016136bf565b815181106128e1576128e1613673565b6020026020010151604051602001612903929190918252602082015260400190565b60408051601f198184030181529082905261291d91613713565b602060405180830381855afa158015612938573d5f5f3e3d5ffd5b5050506040513d601f19601f8201168201806040525081019061295b919061371e565b82828151811061296d5761296d613673565b602090810291909101015260010161288b565b5061298c600283613800565b91505b8115612a9f575f5b82811015612a8c576002826129ac83836136d2565b815181106129bc576129bc613673565b6020026020010151838360026129d291906136d2565b6129dd9060016136bf565b815181106129ed576129ed613673565b6020026020010151604051602001612a0f929190918252602082015260400190565b60408051601f1981840301815290829052612a2991613713565b602060405180830381855afa158015612a44573d5f5f3e3d5ffd5b5050506040513d601f19601f82011682018060405250810190612a67919061371e565b828281518110612a7957612a79613673565b6020908102919091010152600101612997565b50612a98600283613800565b915061298f565b805f81518110612ab157612ab1613673565b602002602001015192505050919050565b5f610c3682600581518110612ad957612ad9613673565b6020026020010151612dad565b5f610c3682600681518110612ad957612ad9613673565b5f816001815181106119a4576119a4613673565b5f610c3682600281518110612ad957612ad9613673565b5f612b7c826040518060400160405280602081526020017f5361666545524332303a206c6f772d6c6576656c2063616c6c206661696c6564815250856001600160a01b0316612e149092919063ffffffff16565b905080515f1480612b9c575080806020019051810190612b9c91906135d1565b6112525760405162461bcd60e51b815260206004820152602a60248201527f5361666545524332303a204552433230206f7065726174696f6e20646964206e6044820152691bdd081cdd58d8d9595960b21b60648201526084016112ed565b5f612c08602660016136bf565b612c139060206136d2565b612c206040840184613631565b905014612c40576040516313717da960e21b815260040160405180910390fd5b5f612c4c6004856139b2565b64ffffffffff169050612ca5612c656040850185613631565b8080601f0160208091040260200160405190810160405280939291908181526020018383808284375f92019190915250899250505060208601358461281b565b612cc2576040516309bde33960e01b815260040160405180910390fd5b612cd0836020013585612e22565b95945050505050565b5f83515f14158015612cf6575060208451612cf491906139db565b155b612d13576040516313717da960e21b815260040160405180910390fd5b604080516020808201909252848152905b85518111612da357612d376002856139db565b5f03612d695781515f528086015160205260208260405f60026107d05a03fa612d5e575f5ffd5b600284049350612d91565b808601515f52815160205260208260405f60026107d05a03fa612d8a575f5ffd5b6002840493505b612d9c6020826136bf565b9050612d24565b5051949350505050565b60f881901c60e882901c61ff00161760d882901c62ff0000161760c882901c63ff000000161764ff0000000060b883901c161765ff000000000060a883901c161766ff000000000000609883901c161767ff0000000000000060889290921c919091161790565b6060610d4284845f85612e4e565b5f80612e2f6004846139ee565b612e3a906040613a17565b64ffffffffff169050610d4284821b612dad565b606082471015612eaf5760405162461bcd60e51b815260206004820152602660248201527f416464726573733a20696e73756666696369656e742062616c616e636520666f6044820152651c8818d85b1b60d21b60648201526084016112ed565b5f5f866001600160a01b03168587604051612eca9190613713565b5f6040518083038185875af1925050503d805f8114612f04576040519150601f19603f3d011682016040523d82523d5f602084013e612f09565b606091505b5091509150612f1a87838387612f25565b979650505050505050565b60608315612f935782515f03612f8c576001600160a01b0385163b612f8c5760405162461bcd60e51b815260206004820152601d60248201527f416464726573733a2063616c6c20746f206e6f6e2d636f6e747261637400000060448201526064016112ed565b5081610d42565b610d428383815115612fa85781518083602001fd5b8060405162461bcd60e51b81526004016112ed9190613a37565b80356001600160401b0381168114612fd8575f5ffd5b919050565b5f60408284031215612fed575f5ffd5b50919050565b5f5f5f60608486031215613005575f5ffd5b61300e84612fc2565b925060208401356001600160401b03811115613028575f5ffd5b61303486828701612fdd565b92505060408401356001600160401b0381111561304f575f5ffd5b61305b86828701612fdd565b9150509250925092565b5f5f83601f840112613075575f5ffd5b5081356001600160401b0381111561308b575f5ffd5b6020830191508360208260051b85010111156130a5575f5ffd5b9250929050565b5f5f5f5f5f5f5f5f60a0898b0312156130c3575f5ffd5b6130cc89612fc2565b975060208901356001600160401b038111156130e6575f5ffd5b6130f28b828c01612fdd565b97505060408901356001600160401b0381111561310d575f5ffd5b6131198b828c01613065565b90975095505060608901356001600160401b03811115613137575f5ffd5b6131438b828c01613065565b90955093505060808901356001600160401b03811115613161575f5ffd5b61316d8b828c01613065565b999c989b5096995094979396929594505050565b5f60208284031215613191575f5ffd5b61319a82612fc2565b9392505050565b5f5f83601f8401126131b1575f5ffd5b5081356001600160401b038111156131c7575f5ffd5b6020830191508360208285010111156130a5575f5ffd5b5f5f602083850312156131ef575f5ffd5b82356001600160401b03811115613204575f5ffd5b613210858286016131a1565b90969095509350505050565b634e487b7160e01b5f52602160045260245ffd5b6003811061324c57634e487b7160e01b5f52602160045260245ffd5b9052565b60208101610c368284613230565b5f6020828403121561326e575f5ffd5b5035919050565b5f6080820190506001600160401b0383511682526001600160401b0360208401511660208301526001600160401b03604084015116604083015260608301516132c16060840182613230565b5092915050565b80151581146132d5575f5ffd5b50565b5f602082840312156132e8575f5ffd5b813561319a816132c8565b5f5f5f5f5f60608688031215613307575f5ffd5b85356001600160401b0381111561331c575f5ffd5b613328888289016131a1565b90965094505060208601356001600160401b03811115613346575f5ffd5b613352888289016131a1565b96999598509660400135949350505050565b6001600160a01b03811681146132d5575f5ffd5b8035612fd881613364565b5f5f60408385031215613394575f5ffd5b823561339f81613364565b946020939093013593505050565b5f602082840312156133bd575f5ffd5b813561319a81613364565b634e487b7160e01b5f52604160045260245ffd5b604051601f8201601f191681016001600160401b0381118282101715613404576134046133c8565b604052919050565b5f6001600160401b03821115613424576134246133c8565b5060051b60200190565b5f82601f83011261343d575f5ffd5b813561345061344b8261340c565b6133dc565b8082825260208201915060208360051b860101925085831115613471575f5ffd5b602085015b8381101561348e578035835260209283019201613476565b5095945050505050565b5f5f5f606084860312156134aa575f5ffd5b83356001600160401b038111156134bf575f5ffd5b8401601f810186136134cf575f5ffd5b80356134dd61344b8261340c565b8082825260208201915060208360051b8501019250888311156134fe575f5ffd5b6020840193505b8284101561352957833561351881613364565b825260209384019390910190613505565b955050505060208401356001600160401b03811115613546575f5ffd5b6135528682870161342e565b92505061356160408501613378565b90509250925092565b5f5f5f6040848603121561357c575f5ffd5b83356001600160401b03811115613591575f5ffd5b61359d86828701612fdd565b93505060208401356001600160401b038111156135b8575f5ffd5b6135c486828701613065565b9497909650939450505050565b5f602082840312156135e1575f5ffd5b815161319a816132c8565b5f5f8335601e19843603018112613601575f5ffd5b8301803591506001600160401b0382111561361a575f5ffd5b6020019150600581901b36038213156130a5575f5ffd5b5f5f8335601e19843603018112613646575f5ffd5b8301803591506001600160401b0382111561365f575f5ffd5b6020019150368190038213156130a5575f5ffd5b634e487b7160e01b5f52603260045260245ffd5b5f60208284031215613697575f5ffd5b813564ffffffffff8116811461319a575f5ffd5b634e487b7160e01b5f52601160045260245ffd5b80820180821115610c3657610c366136ab565b8082028115828204841417610c3657610c366136ab565b81810381811115610c3657610c366136ab565b5f81518060208401855e5f93019283525090919050565b5f61319a82846136fc565b5f6020828403121561372e575f5ffd5b5051919050565b81835281816020850137505f828201602090810191909152601f909101601f19169091010190565b5f81518084528060208401602086015e5f602082860101526020601f19601f83011685010191505092915050565b608081525f61379e60808301888a613735565b82810360208401526137b0818861375d565b905082810360408401526137c5818688613735565b915050826060830152979650505050505050565b602081525f610d42602083018486613735565b634e487b7160e01b5f52601260045260245ffd5b5f8261380e5761380e6137ec565b500490565b6001600160401b038281168282160390811115610c3657610c366136ab565b5f8235605e19833603018112613846575f5ffd5b9190910192915050565b5f62ffffff821680613864576138646136ab565b5f190192915050565b6001600160401b038181168382160190811115610c3657610c366136ab565b600781810b9083900b01677fffffffffffffff8113677fffffffffffffff1982121715610c3657610c366136ab565b80516020808301519190811015612fed575f1960209190910360031b1b16919050565b5f600182016138ef576138ef6136ab565b5060010190565b5f61390182856136fc565b6001600160801b03199390931683525050601001919050565b600782810b9082900b03677fffffffffffffff198112677fffffffffffffff82131715610c3657610c366136ab565b5f81613957576139576136ab565b505f190190565b5f8160070b677fffffffffffffff19810361397b5761397b6136ab565b5f0392915050565b8082025f8212600160ff1b8414161561399e5761399e6136ab565b8181058314821517610c3657610c366136ab565b5f64ffffffffff8316806139c8576139c86137ec565b8064ffffffffff84160491505092915050565b5f826139e9576139e96137ec565b500690565b5f64ffffffffff831680613a0457613a046137ec565b8064ffffffffff84160691505092915050565b64ffffffffff81811683821602908116908181146132c1576132c16136ab565b602081525f61319a602083018461375d56fea26469706673582212203f70fbee091f2506f1984b00292cb661d560c4d4a6a15062cc68e1444f76796864736f6c634300081b0033",
    "linkReferences": {}
  },
  "methodIdentifiers": {
    "GENESIS_TIME()": "f2882461",
    "activeValidatorCount()": "2340e8d3",
    "checkpointBalanceExitedGwei(uint64)": "52396a59",
    "currentCheckpoint()": "47d28372",
    "currentCheckpointTimestamp()": "42ecff2a",
    "eigenPodManager()": "4665bcda",
    "ethPOS()": "74cdd798",
    "getParentBlockRoot(uint64)": "6c0d2d5a",
    "initialize(address)": "c4d66de8",
    "lastCheckpointTimestamp()": "ee94d67c",
    "podOwner()": "0b18ff66",
    "proofSubmitter()": "58753357",
    "recoverTokens(address[],uint256[],address)": "dda3346c",
    "setProofSubmitter(address)": "d06d5587",
    "stake(bytes,bytes,bytes32)": "9b4e4634",
    "startCheckpoint(bool)": "88676cad",
    "validatorPubkeyHashToInfo(bytes32)": "6fcd0e53",
    "validatorPubkeyToInfo(bytes)": "b522538a",
    "validatorStatus(bytes)": "58eaee79",
    "validatorStatus(bytes32)": "7439841f",
    "verifyCheckpointProofs((bytes32,bytes),(bytes32,bytes32,bytes)[])": "f074ba62",
    "verifyStaleBalance(uint64,(bytes32,bytes),(bytes32[],bytes))": "039157d2",
    "verifyWithdrawalCredentials(uint64,(bytes32,bytes),uint40[],bytes[],bytes32[][])": "3f65cf19",
    "withdrawRestakedBeaconChainETH(address,uint256)": "c4907442",
    "withdrawableRestakedExecutionLayerGwei()": "3474aa16"
  },
  "id": 168
}