{
  "abi": [
    {
      "type": "constructor",
      "inputs": [
        {
          "name": "_strategyManager",
          "type": "address",
          "internalType": "contract IStrategyManager"
        },
        {
          "name": "_pauserRegistry",
          "type": "address",
          "internalType": "contract IPauserRegistry"
        }
      ],
      "stateMutability": "nonpayable"
    },
    {
      "type": "function",
      "name": "deposit",
      "inputs": [
        {
          "name": "token",
          "type": "address",
          "internalType": "contract IERC20"
        },
        {
          "name": "amount",
          "type": "uint256",
          "internalType": "uint256"
        }
      ],
      "outputs": [
        {
          "name": "newShares",
          "type": "uint256",
          "internalType": "uint256"
        }
      ],
      "stateMutability": "nonpayable"
    },
    {
      "type": "function",
      "name": "explanation",
      "inputs": [],
      "outputs": [
        {
          "name": "",
          "type": "string",
          "internalType": "string"
        }
      ],
      "stateMutability": "pure"
    },
    {
      "type": "function",
      "name": "initialize",
      "inputs": [
        {
          "name": "_underlyingToken",
          "type": "address",
          "internalType": "contract IERC20"
        }
      ],
      "outputs": [],
      "stateMutability": "nonpayable"
    },
    {
      "type": "function",
      "name": "pause",
      "inputs": [
        {
          "name": "newPausedStatus",
          "type": "uint256",
          "internalType": "uint256"
        }
      ],
      "outputs": [],
      "stateMutability": "nonpayable"
    },
    {
      "type": "function",
      "name": "pauseAll",
      "inputs": [],
      "outputs": [],
      "stateMutability": "nonpayable"
    },
    {
      "type": "function",
      "name": "paused",
      "inputs": [
        {
          "name": "index",
          "type": "uint8",
          "internalType": "uint8"
        }
      ],
      "outputs": [
        {
          "name": "",
          "type": "bool",
          "internalType": "bool"
        }
      ],
      "stateMutability": "view"
    },
    {
      "type": "function",
      "name": "paused",
      "inputs": [],
      "outputs": [
        {
          "name": "",
          "type": "uint256",
          "internalType": "uint256"
        }
      ],
      "stateMutability": "view"
    },
    {
      "type": "function",
      "name": "pauserRegistry",
      "inputs": [],
      "outputs": [
        {
          "name": "",
          "type": "address",
          "internalType": "contract IPauserRegistry"
        }
      ],
      "stateMutability": "view"
    },
    {
      "type": "function",
      "name": "shares",
      "inputs": [
        {
          "name": "user",
          "type": "address",
          "internalType": "address"
        }
      ],
      "outputs": [
        {
          "name": "",
          "type": "uint256",
          "internalType": "uint256"
        }
      ],
      "stateMutability": "view"
    },
    {
      "type": "function",
      "name": "sharesToUnderlying",
      "inputs": [
        {
          "name": "amountShares",
          "type": "uint256",
          "internalType": "uint256"
        }
      ],
      "outputs": [
        {
          "name": "",
          "type": "uint256",
          "internalType": "uint256"
        }
      ],
      "stateMutability": "view"
    },
    {
      "type": "function",
      "name": "sharesToUnderlyingView",
      "inputs": [
        {
          "name": "amountShares",
          "type": "uint256",
          "internalType": "uint256"
        }
      ],
      "outputs": [
        {
          "name": "",
          "type": "uint256",
          "internalType": "uint256"
        }
      ],
      "stateMutability": "view"
    },
    {
      "type": "function",
      "name": "strategyManager",
      "inputs": [],
      "outputs": [
        {
          "name": "",
          "type": "address",
          "internalType": "contract IStrategyManager"
        }
      ],
      "stateMutability": "view"
    },
    {
      "type": "function",
      "name": "totalShares",
      "inputs": [],
      "outputs": [
        {
          "name": "",
          "type": "uint256",
          "internalType": "uint256"
        }
      ],
      "stateMutability": "view"
    },
    {
      "type": "function",
      "name": "underlyingToShares",
      "inputs": [
        {
          "name": "amountUnderlying",
          "type": "uint256",
          "internalType": "uint256"
        }
      ],
      "outputs": [
        {
          "name": "",
          "type": "uint256",
          "internalType": "uint256"
        }
      ],
      "stateMutability": "view"
    },
    {
      "type": "function",
      "name": "underlyingToSharesView",
      "inputs": [
        {
          "name": "amountUnderlying",
          "type": "uint256",
          "internalType": "uint256"
        }
      ],
      "outputs": [
        {
          "name": "",
          "type": "uint256",
          "internalType": "uint256"
        }
      ],
      "stateMutability": "view"
    },
    {
      "type": "function",
      "name": "underlyingToken",
      "inputs": [],
      "outputs": [
        {
          "name": "",
          "type": "address",
          "internalType": "contract IERC20"
        }
      ],
      "stateMutability": "view"
    },
    {
      "type": "function",
      "name": "unpause",
      "inputs": [
        {
          "name": "newPausedStatus",
          "type": "uint256",
          "internalType": "uint256"
        }
      ],
      "outputs": [],
      "stateMutability": "nonpayable"
    },
    {
      "type": "function",
      "name": "userUnderlying",
      "inputs": [
        {
          "name": "user",
          "type": "address",
          "internalType": "address"
        }
      ],
      "outputs": [
        {
          "name": "",
          "type": "uint256",
          "internalType": "uint256"
        }
      ],
      "stateMutability": "nonpayable"
    },
    {
      "type": "function",
      "name": "userUnderlyingView",
      "inputs": [
        {
          "name": "user",
          "type": "address",
          "internalType": "address"
        }
      ],
      "outputs": [
        {
          "name": "",
          "type": "uint256",
          "internalType": "uint256"
        }
      ],
      "stateMutability": "view"
    },
    {
      "type": "function",
      "name": "withdraw",
      "inputs": [
        {
          "name": "recipient",
          "type": "address",
          "internalType": "address"
        },
        {
          "name": "token",
          "type": "address",
          "internalType": "contract IERC20"
        },
        {
          "name": "amountShares",
          "type": "uint256",
          "internalType": "uint256"
        }
      ],
      "outputs": [],
      "stateMutability": "nonpayable"
    },
    {
      "type": "event",
      "name": "ExchangeRateEmitted",
      "inputs": [
        {
          "name": "rate",
          "type": "uint256",
          "indexed": false,
          "internalType": "uint256"
        }
      ],
      "anonymous": false
    },
    {
      "type": "event",
      "name": "Initialized",
      "inputs": [
        {
          "name": "version",
          "type": "uint8",
          "indexed": false,
          "internalType": "uint8"
        }
      ],
      "anonymous": false
    },
    {
      "type": "event",
      "name": "Paused",
      "inputs": [
        {
          "name": "account",
          "type": "address",
          "indexed": true,
          "internalType": "address"
        },
        {
          "name": "newPausedStatus",
          "type": "uint256",
          "indexed": false,
          "internalType": "uint256"
        }
      ],
      "anonymous": false
    },
    {
      "type": "event",
      "name": "StrategyTokenSet",
      "inputs": [
        {
          "name": "token",
          "type": "address",
          "indexed": false,
          "internalType": "contract IERC20"
        },
        {
          "name": "decimals",
          "type": "uint8",
          "indexed": false,
          "internalType": "uint8"
        }
      ],
      "anonymous": false
    },
    {
      "type": "event",
      "name": "Unpaused",
      "inputs": [
        {
          "name": "account",
          "type": "address",
          "indexed": true,
          "internalType": "address"
        },
        {
          "name": "newPausedStatus",
          "type": "uint256",
          "indexed": false,
          "internalType": "uint256"
        }
      ],
      "anonymous": false
    },
    {
      "type": "error",
      "name": "BalanceExceedsMaxTotalDeposits",
      "inputs": []
    },
    {
      "type": "error",
      "name": "CurrentlyPaused",
      "inputs": []
    },
    {
      "type": "error",
      "name": "InputAddressZero",
      "inputs": []
    },
    {
      "type": "error",
      "name": "InvalidNewPausedStatus",
      "inputs": []
    },
    {
      "type": "error",
      "name": "MaxPerDepositExceedsMax",
      "inputs": []
    },
    {
      "type": "error",
      "name": "NewSharesZero",
      "inputs": []
    },
    {
      "type": "error",
      "name": "OnlyPauser",
      "inputs": []
    },
    {
      "type": "error",
      "name": "OnlyStrategyManager",
      "inputs": []
    },
    {
      "type": "error",
      "name": "OnlyUnderlyingToken",
      "inputs": []
    },
    {
      "type": "error",
      "name": "OnlyUnpauser",
      "inputs": []
    },
    {
      "type": "error",
      "name": "TotalSharesExceedsMax",
      "inputs": []
    },
    {
      "type": "error",
      "name": "WithdrawalAmountExceedsTotalDeposits",
      "inputs": []
    }
  ],
  "bytecode": {
    "object": "0x60c060405234801561000f575f5ffd5b506040516113a63803806113a683398101604081905261002e9161014b565b806001600160a01b038116610056576040516339b190bb60e11b815260040160405180910390fd5b6001600160a01b03908116608052821660a052610071610078565b5050610183565b5f54610100900460ff16156100e35760405162461bcd60e51b815260206004820152602760248201527f496e697469616c697a61626c653a20636f6e747261637420697320696e697469604482015266616c697a696e6760c81b606482015260840160405180910390fd5b5f5460ff90811614610132575f805460ff191660ff9081179091556040519081527f7f26b83ff96e1f2b6a682f133852f6798a09c465da95921460cefb38474024989060200160405180910390a15b565b6001600160a01b0381168114610148575f5ffd5b50565b5f5f6040838503121561015c575f5ffd5b825161016781610134565b602084015190925061017881610134565b809150509250929050565b60805160a0516111d86101ce5f395f81816101750152818161040201528181610796015261083301525f818161022b0152818161030f01528181610543015261096101526111d85ff3fe608060405234801561000f575f5ffd5b5060043610610127575f3560e01c8063886f1195116100a9578063ce7c2ac21161006e578063ce7c2ac21461029b578063d9caed12146102ae578063e3dae51c146102c1578063f3e73875146102d4578063fabc1cbc146102e7575f5ffd5b8063886f1195146102265780638c8710191461024d5780638f6a624014610260578063ab5921e114610273578063c4d66de814610288575f5ffd5b8063553ca5f8116100ef578063553ca5f8146101c1578063595c6a67146101d45780635ac86ab7146101dc5780635c975abb1461020b5780637a8b263714610213575f5ffd5b8063136439dd1461012b5780632495a5991461014057806339b70e38146101705780633a98ef391461019757806347e7ef24146101ae575b5f5ffd5b61013e610139366004610f4d565b6102fa565b005b603254610153906001600160a01b031681565b6040516001600160a01b0390911681526020015b60405180910390f35b6101537f000000000000000000000000000000000000000000000000000000000000000081565b6101a060335481565b604051908152602001610167565b6101a06101bc366004610f7b565b6103cf565b6101a06101cf366004610fa5565b61051b565b61013e61052e565b6101fb6101ea366004610fd5565b6001805460ff9092161b9081161490565b6040519015158152602001610167565b6001546101a0565b6101a0610221366004610f4d565b6105dd565b6101537f000000000000000000000000000000000000000000000000000000000000000081565b6101a061025b366004610f4d565b610626565b6101a061026e366004610fa5565b610630565b61027b61063d565b6040516101679190610ff0565b61013e610296366004610fa5565b61065d565b6101a06102a9366004610fa5565b61076f565b61013e6102bc366004611025565b610801565b6101a06102cf366004610f4d565b61091e565b6101a06102e2366004610f4d565b610955565b61013e6102f5366004610f4d565b61095f565b60405163237dfb4760e11b81523360048201527f00000000000000000000000000000000000000000000000000000000000000006001600160a01b0316906346fbf68e90602401602060405180830381865afa15801561035c573d5f5f3e3d5ffd5b505050506040513d601f19601f820116820180604052508101906103809190611063565b61039d57604051631d77d47760e21b815260040160405180910390fd5b60015481811681146103c25760405163c61dca5d60e01b815260040160405180910390fd5b6103cb82610a75565b5050565b600180545f9182918116036103f75760405163840a48d560e01b815260040160405180910390fd5b336001600160a01b037f00000000000000000000000000000000000000000000000000000000000000001614610440576040516348da714f60e01b815260040160405180910390fd5b61044a8484610ab2565b6033545f61045a6103e883611096565b90505f6103e8610468610ae0565b6104729190611096565b90505f61047f87836110a9565b90508061048c84896110bc565b61049691906110d3565b9550855f036104b857604051630c392ed360e11b815260040160405180910390fd5b6104c28685611096565b60338190556f4b3b4ca85a86c47a098a223fffffffff10156104f757604051632f14e8a360e11b815260040160405180910390fd5b610510826103e860335461050b9190611096565b610b4f565b505050505092915050565b5f6105286102218361076f565b92915050565b60405163237dfb4760e11b81523360048201527f00000000000000000000000000000000000000000000000000000000000000006001600160a01b0316906346fbf68e90602401602060405180830381865afa158015610590573d5f5f3e3d5ffd5b505050506040513d601f19601f820116820180604052508101906105b49190611063565b6105d157604051631d77d47760e21b815260040160405180910390fd5b6105db5f19610a75565b565b5f5f6103e86033546105ef9190611096565b90505f6103e86105fd610ae0565b6106079190611096565b90508161061485836110bc565b61061e91906110d3565b949350505050565b5f6105288261091e565b5f6105286102e28361076f565b60606040518060800160405280604d8152602001611156604d9139905090565b5f54610100900460ff161580801561067b57505f54600160ff909116105b806106945750303b15801561069457505f5460ff166001145b6106fc5760405162461bcd60e51b815260206004820152602e60248201527f496e697469616c697a61626c653a20636f6e747261637420697320616c72656160448201526d191e481a5b9a5d1a585b1a5e995960921b60648201526084015b60405180910390fd5b5f805460ff19166001179055801561071d575f805461ff0019166101001790555b61072682610b9b565b80156103cb575f805461ff0019169055604051600181527f7f26b83ff96e1f2b6a682f133852f6798a09c465da95921460cefb3847402498906020015b60405180910390a15050565b60405163fe243a1760e01b81526001600160a01b0382811660048301523060248301525f917f00000000000000000000000000000000000000000000000000000000000000009091169063fe243a1790604401602060405180830381865afa1580156107dd573d5f5f3e3d5ffd5b505050506040513d601f19601f8201168201806040525081019061052891906110f2565b600180546002908116036108285760405163840a48d560e01b815260040160405180910390fd5b336001600160a01b037f00000000000000000000000000000000000000000000000000000000000000001614610871576040516348da714f60e01b815260040160405180910390fd5b61087c848484610ce6565b603354808311156108a057604051630b469df360e41b815260040160405180910390fd5b5f6108ad6103e883611096565b90505f6103e86108bb610ae0565b6108c59190611096565b90505f826108d387846110bc565b6108dd91906110d3565b90506108e986856110a9565b6033556109096108f982846110a9565b6103e860335461050b9190611096565b610914888883610d19565b5050505050505050565b5f5f6103e86033546109309190611096565b90505f6103e861093e610ae0565b6109489190611096565b90508061061483866110bc565b5f610528826105dd565b7f00000000000000000000000000000000000000000000000000000000000000006001600160a01b031663eab66d7a6040518163ffffffff1660e01b8152600401602060405180830381865afa1580156109bb573d5f5f3e3d5ffd5b505050506040513d601f19601f820116820180604052508101906109df9190611109565b6001600160a01b0316336001600160a01b031614610a105760405163794821ff60e01b815260040160405180910390fd5b60015480198219811614610a375760405163c61dca5d60e01b815260040160405180910390fd5b600182905560405182815233907f3582d1828e26bf56bd801502bc021ac0bc8afb57c826e4986b45593c8fad389c9060200160405180910390a25050565b600181905560405181815233907fab40a374bc51de372200a8bc981af8c9ecdc08dfdaef0bb6e09f88f3c616ef3d9060200160405180910390a250565b6032546001600160a01b038381169116146103cb57604051630312abdd60e61b815260040160405180910390fd5b6032546040516370a0823160e01b81523060048201525f916001600160a01b0316906370a0823190602401602060405180830381865afa158015610b26573d5f5f3e3d5ffd5b505050506040513d601f19601f82011682018060405250810190610b4a91906110f2565b905090565b7fd2494f3479e5da49d386657c292c610b5b01df313d07c62eb0cfa49924a31be881610b8384670de0b6b3a76400006110bc565b610b8d91906110d3565b604051908152602001610763565b5f54610100900460ff16610c055760405162461bcd60e51b815260206004820152602b60248201527f496e697469616c697a61626c653a20636f6e7472616374206973206e6f74206960448201526a6e697469616c697a696e6760a81b60648201526084016106f3565b603280546001600160a01b0319166001600160a01b038316179055610c295f610a75565b7f1c540707b00eb5427b6b774fc799d756516a54aee108b64b327acc55af55750760325f9054906101000a90046001600160a01b0316826001600160a01b031663313ce5676040518163ffffffff1660e01b8152600401602060405180830381865afa158015610c9b573d5f5f3e3d5ffd5b505050506040513d601f19601f82011682018060405250810190610cbf9190611124565b604080516001600160a01b03909316835260ff90911660208301520160405180910390a150565b6032546001600160a01b03838116911614610d1457604051630312abdd60e61b815260040160405180910390fd5b505050565b604080516001600160a01b03858116602483015260448083018590528351808403909101815260649092018352602080830180516001600160e01b031663a9059cbb60e01b17905283518085019094528084527f5361666545524332303a206c6f772d6c6576656c2063616c6c206661696c656490840152610d1492908516918691859185918591905f90610db19084908490610e30565b905080515f1480610dd1575080806020019051810190610dd19190611063565b610d145760405162461bcd60e51b815260206004820152602a60248201527f5361666545524332303a204552433230206f7065726174696f6e20646964206e6044820152691bdd081cdd58d8d9595960b21b60648201526084016106f3565b606061061e84845f85855f5f866001600160a01b03168587604051610e55919061113f565b5f6040518083038185875af1925050503d805f8114610e8f576040519150601f19603f3d011682016040523d82523d5f602084013e610e94565b606091505b5091509150610ea587838387610eb0565b979650505050505050565b60608315610f1e5782515f03610f17576001600160a01b0385163b610f175760405162461bcd60e51b815260206004820152601d60248201527f416464726573733a2063616c6c20746f206e6f6e2d636f6e747261637400000060448201526064016106f3565b508161061e565b61061e8383815115610f335781518083602001fd5b8060405162461bcd60e51b81526004016106f39190610ff0565b5f60208284031215610f5d575f5ffd5b5035919050565b6001600160a01b0381168114610f78575f5ffd5b50565b5f5f60408385031215610f8c575f5ffd5b8235610f9781610f64565b946020939093013593505050565b5f60208284031215610fb5575f5ffd5b8135610fc081610f64565b9392505050565b60ff81168114610f78575f5ffd5b5f60208284031215610fe5575f5ffd5b8135610fc081610fc7565b602081525f82518060208401528060208501604085015e5f604082850101526040601f19601f83011684010191505092915050565b5f5f5f60608486031215611037575f5ffd5b833561104281610f64565b9250602084013561105281610f64565b929592945050506040919091013590565b5f60208284031215611073575f5ffd5b81518015158114610fc0575f5ffd5b634e487b7160e01b5f52601160045260245ffd5b8082018082111561052857610528611082565b8181038181111561052857610528611082565b808202811582820484141761052857610528611082565b5f826110ed57634e487b7160e01b5f52601260045260245ffd5b500490565b5f60208284031215611102575f5ffd5b5051919050565b5f60208284031215611119575f5ffd5b8151610fc081610f64565b5f60208284031215611134575f5ffd5b8151610fc081610fc7565b5f82518060208501845e5f92019182525091905056fe4261736520537472617465677920696d706c656d656e746174696f6e20746f20696e68657269742066726f6d20666f72206d6f726520636f6d706c657820696d706c656d656e746174696f6e73a264697066735822122000e384ea6d9795e6b1eed3ca3e798dd283954f469b80395ad7b3cbd7a4e0571764736f6c634300081b0033",
    "linkReferences": {}
  },
  "methodIdentifiers": {
    "deposit(address,uint256)": "47e7ef24",
    "explanation()": "ab5921e1",
    "initialize(address)": "c4d66de8",
    "pause(uint256)": "136439dd",
    "pauseAll()": "595c6a67",
    "paused()": "5c975abb",
    "paused(uint8)": "5ac86ab7",
    "pauserRegistry()": "886f1195",
    "shares(address)": "ce7c2ac2",
    "sharesToUnderlying(uint256)": "f3e73875",
    "sharesToUnderlyingView(uint256)": "7a8b2637",
    "strategyManager()": "39b70e38",
    "totalShares()": "3a98ef39",
    "underlyingToShares(uint256)": "8c871019",
    "underlyingToSharesView(uint256)": "e3dae51c",
    "underlyingToken()": "2495a599",
    "unpause(uint256)": "fabc1cbc",
    "userUnderlying(address)": "8f6a6240",
    "userUnderlyingView(address)": "553ca5f8",
    "withdraw(address,address,uint256)": "d9caed12"
  },
  "id": 174
}