{
  "abi": [
    {
      "type": "constructor",
      "inputs": [
        {
          "name": "_delegationManager",
          "type": "address",
          "internalType": "contract IDelegationManager"
        },
        {
          "name": "_strategyManager",
          "type": "address",
          "internalType": "contract IStrategyManager"
        },
        {
          "name": "_CALCULATION_INTERVAL_SECONDS",
          "type": "uint32",
          "internalType": "uint32"
        },
        {
          "name": "_MAX_REWARDS_DURATION",
          "type": "uint32",
          "internalType": "uint32"
        },
        {
          "name": "_MAX_RETROACTIVE_LENGTH",
          "type": "uint32",
          "internalType": "uint32"
        },
        {
          "name": "_MAX_FUTURE_LENGTH",
          "type": "uint32",
          "internalType": "uint32"
        },
        {
          "name": "__GENESIS_REWARDS_TIMESTAMP",
          "type": "uint32",
          "internalType": "uint32"
        }
      ],
      "stateMutability": "nonpayable"
    },
    {
      "type": "function",
      "name": "CALCULATION_INTERVAL_SECONDS",
      "inputs": [],
      "outputs": [
        {
          "name": "",
          "type": "uint32",
          "internalType": "uint32"
        }
      ],
      "stateMutability": "view"
    },
    {
      "type": "function",
      "name": "GENESIS_REWARDS_TIMESTAMP",
      "inputs": [],
      "outputs": [
        {
          "name": "",
          "type": "uint32",
          "internalType": "uint32"
        }
      ],
      "stateMutability": "view"
    },
    {
      "type": "function",
      "name": "MAX_FUTURE_LENGTH",
      "inputs": [],
      "outputs": [
        {
          "name": "",
          "type": "uint32",
          "internalType": "uint32"
        }
      ],
      "stateMutability": "view"
    },
    {
      "type": "function",
      "name": "MAX_RETROACTIVE_LENGTH",
      "inputs": [],
      "outputs": [
        {
          "name": "",
          "type": "uint32",
          "internalType": "uint32"
        }
      ],
      "stateMutability": "view"
    },
    {
      "type": "function",
      "name": "MAX_REWARDS_DURATION",
      "inputs": [],
      "outputs": [
        {
          "name": "",
          "type": "uint32",
          "internalType": "uint32"
        }
      ],
      "stateMutability": "view"
    },
    {
      "type": "function",
      "name": "activationDelay",
      "inputs": [],
      "outputs": [
        {
          "name": "",
          "type": "uint32",
          "internalType": "uint32"
        }
      ],
      "stateMutability": "view"
    },
    {
      "type": "function",
      "name": "beaconChainETHStrategy",
      "inputs": [],
      "outputs": [
        {
          "name": "",
          "type": "address",
          "internalType": "contract IStrategy"
        }
      ],
      "stateMutability": "view"
    },
    {
      "type": "function",
      "name": "calculateEarnerLeafHash",
      "inputs": [
        {
          "name": "leaf",
          "type": "tuple",
          "internalType": "struct IRewardsCoordinator.EarnerTreeMerkleLeaf",
          "components": [
            {
              "name": "earner",
              "type": "address",
              "internalType": "address"
            },
            {
              "name": "earnerTokenRoot",
              "type": "bytes32",
              "internalType": "bytes32"
            }
          ]
        }
      ],
      "outputs": [
        {
          "name": "",
          "type": "bytes32",
          "internalType": "bytes32"
        }
      ],
      "stateMutability": "pure"
    },
    {
      "type": "function",
      "name": "calculateTokenLeafHash",
      "inputs": [
        {
          "name": "leaf",
          "type": "tuple",
          "internalType": "struct IRewardsCoordinator.TokenTreeMerkleLeaf",
          "components": [
            {
              "name": "token",
              "type": "address",
              "internalType": "contract IERC20"
            },
            {
              "name": "cumulativeEarnings",
              "type": "uint256",
              "internalType": "uint256"
            }
          ]
        }
      ],
      "outputs": [
        {
          "name": "",
          "type": "bytes32",
          "internalType": "bytes32"
        }
      ],
      "stateMutability": "pure"
    },
    {
      "type": "function",
      "name": "checkClaim",
      "inputs": [
        {
          "name": "claim",
          "type": "tuple",
          "internalType": "struct IRewardsCoordinator.RewardsMerkleClaim",
          "components": [
            {
              "name": "rootIndex",
              "type": "uint32",
              "internalType": "uint32"
            },
            {
              "name": "earnerIndex",
              "type": "uint32",
              "internalType": "uint32"
            },
            {
              "name": "earnerTreeProof",
              "type": "bytes",
              "internalType": "bytes"
            },
            {
              "name": "earnerLeaf",
              "type": "tuple",
              "internalType": "struct IRewardsCoordinator.EarnerTreeMerkleLeaf",
              "components": [
                {
                  "name": "earner",
                  "type": "address",
                  "internalType": "address"
                },
                {
                  "name": "earnerTokenRoot",
                  "type": "bytes32",
                  "internalType": "bytes32"
                }
              ]
            },
            {
              "name": "tokenIndices",
              "type": "uint32[]",
              "internalType": "uint32[]"
            },
            {
              "name": "tokenTreeProofs",
              "type": "bytes[]",
              "internalType": "bytes[]"
            },
            {
              "name": "tokenLeaves",
              "type": "tuple[]",
              "internalType": "struct IRewardsCoordinator.TokenTreeMerkleLeaf[]",
              "components": [
                {
                  "name": "token",
                  "type": "address",
                  "internalType": "contract IERC20"
                },
                {
                  "name": "cumulativeEarnings",
                  "type": "uint256",
                  "internalType": "uint256"
                }
              ]
            }
          ]
        }
      ],
      "outputs": [
        {
          "name": "",
          "type": "bool",
          "internalType": "bool"
        }
      ],
      "stateMutability": "view"
    },
    {
      "type": "function",
      "name": "claimerFor",
      "inputs": [
        {
          "name": "",
          "type": "address",
          "internalType": "address"
        }
      ],
      "outputs": [
        {
          "name": "",
          "type": "address",
          "internalType": "address"
        }
      ],
      "stateMutability": "view"
    },
    {
      "type": "function",
      "name": "createAVSRewardsSubmission",
      "inputs": [
        {
          "name": "rewardsSubmissions",
          "type": "tuple[]",
          "internalType": "struct IRewardsCoordinator.RewardsSubmission[]",
          "components": [
            {
              "name": "strategiesAndMultipliers",
              "type": "tuple[]",
              "internalType": "struct IRewardsCoordinator.StrategyAndMultiplier[]",
              "components": [
                {
                  "name": "strategy",
                  "type": "address",
                  "internalType": "contract IStrategy"
                },
                {
                  "name": "multiplier",
                  "type": "uint96",
                  "internalType": "uint96"
                }
              ]
            },
            {
              "name": "token",
              "type": "address",
              "internalType": "contract IERC20"
            },
            {
              "name": "amount",
              "type": "uint256",
              "internalType": "uint256"
            },
            {
              "name": "startTimestamp",
              "type": "uint32",
              "internalType": "uint32"
            },
            {
              "name": "duration",
              "type": "uint32",
              "internalType": "uint32"
            }
          ]
        }
      ],
      "outputs": [],
      "stateMutability": "nonpayable"
    },
    {
      "type": "function",
      "name": "createOperatorDirectedAVSRewardsSubmission",
      "inputs": [
        {
          "name": "avs",
          "type": "address",
          "internalType": "address"
        },
        {
          "name": "operatorDirectedRewardsSubmissions",
          "type": "tuple[]",
          "internalType": "struct IRewardsCoordinator.OperatorDirectedRewardsSubmission[]",
          "components": [
            {
              "name": "strategiesAndMultipliers",
              "type": "tuple[]",
              "internalType": "struct IRewardsCoordinator.StrategyAndMultiplier[]",
              "components": [
                {
                  "name": "strategy",
                  "type": "address",
                  "internalType": "contract IStrategy"
                },
                {
                  "name": "multiplier",
                  "type": "uint96",
                  "internalType": "uint96"
                }
              ]
            },
            {
              "name": "token",
              "type": "address",
              "internalType": "contract IERC20"
            },
            {
              "name": "operatorRewards",
              "type": "tuple[]",
              "internalType": "struct IRewardsCoordinator.OperatorReward[]",
              "components": [
                {
                  "name": "operator",
                  "type": "address",
                  "internalType": "address"
                },
                {
                  "name": "amount",
                  "type": "uint256",
                  "internalType": "uint256"
                }
              ]
            },
            {
              "name": "startTimestamp",
              "type": "uint32",
              "internalType": "uint32"
            },
            {
              "name": "duration",
              "type": "uint32",
              "internalType": "uint32"
            },
            {
              "name": "description",
              "type": "string",
              "internalType": "string"
            }
          ]
        }
      ],
      "outputs": [],
      "stateMutability": "nonpayable"
    },
    {
      "type": "function",
      "name": "createRewardsForAllEarners",
      "inputs": [
        {
          "name": "rewardsSubmissions",
          "type": "tuple[]",
          "internalType": "struct IRewardsCoordinator.RewardsSubmission[]",
          "components": [
            {
              "name": "strategiesAndMultipliers",
              "type": "tuple[]",
              "internalType": "struct IRewardsCoordinator.StrategyAndMultiplier[]",
              "components": [
                {
                  "name": "strategy",
                  "type": "address",
                  "internalType": "contract IStrategy"
                },
                {
                  "name": "multiplier",
                  "type": "uint96",
                  "internalType": "uint96"
                }
              ]
            },
            {
              "name": "token",
              "type": "address",
              "internalType": "contract IERC20"
            },
            {
              "name": "amount",
              "type": "uint256",
              "internalType": "uint256"
            },
            {
              "name": "startTimestamp",
              "type": "uint32",
              "internalType": "uint32"
            },
            {
              "name": "duration",
              "type": "uint32",
              "internalType": "uint32"
            }
          ]
        }
      ],
      "outputs": [],
      "stateMutability": "nonpayable"
    },
    {
      "type": "function",
      "name": "createRewardsForAllSubmission",
      "inputs": [
        {
          "name": "rewardsSubmissions",
          "type": "tuple[]",
          "internalType": "struct IRewardsCoordinator.RewardsSubmission[]",
          "components": [
            {
              "name": "strategiesAndMultipliers",
              "type": "tuple[]",
              "internalType": "struct IRewardsCoordinator.StrategyAndMultiplier[]",
              "components": [
                {
                  "name": "strategy",
                  "type": "address",
                  "internalType": "contract IStrategy"
                },
                {
                  "name": "multiplier",
                  "type": "uint96",
                  "internalType": "uint96"
                }
              ]
            },
            {
              "name": "token",
              "type": "address",
              "internalType": "contract IERC20"
            },
            {
              "name": "amount",
              "type": "uint256",
              "internalType": "uint256"
            },
            {
              "name": "startTimestamp",
              "type": "uint32",
              "internalType": "uint32"
            },
            {
              "name": "duration",
              "type": "uint32",
              "internalType": "uint32"
            }
          ]
        }
      ],
      "outputs": [],
      "stateMutability": "nonpayable"
    },
    {
      "type": "function",
      "name": "cumulativeClaimed",
      "inputs": [
        {
          "name": "",
          "type": "address",
          "internalType": "address"
        },
        {
          "name": "",
          "type": "address",
          "internalType": "contract IERC20"
        }
      ],
      "outputs": [
        {
          "name": "",
          "type": "uint256",
          "internalType": "uint256"
        }
      ],
      "stateMutability": "view"
    },
    {
      "type": "function",
      "name": "currRewardsCalculationEndTimestamp",
      "inputs": [],
      "outputs": [
        {
          "name": "",
          "type": "uint32",
          "internalType": "uint32"
        }
      ],
      "stateMutability": "view"
    },
    {
      "type": "function",
      "name": "defaultOperatorSplitBips",
      "inputs": [],
      "outputs": [
        {
          "name": "",
          "type": "uint16",
          "internalType": "uint16"
        }
      ],
      "stateMutability": "view"
    },
    {
      "type": "function",
      "name": "delegationManager",
      "inputs": [],
      "outputs": [
        {
          "name": "",
          "type": "address",
          "internalType": "contract IDelegationManager"
        }
      ],
      "stateMutability": "view"
    },
    {
      "type": "function",
      "name": "disableRoot",
      "inputs": [
        {
          "name": "rootIndex",
          "type": "uint32",
          "internalType": "uint32"
        }
      ],
      "outputs": [],
      "stateMutability": "nonpayable"
    },
    {
      "type": "function",
      "name": "domainSeparator",
      "inputs": [],
      "outputs": [
        {
          "name": "",
          "type": "bytes32",
          "internalType": "bytes32"
        }
      ],
      "stateMutability": "view"
    },
    {
      "type": "function",
      "name": "getCurrentClaimableDistributionRoot",
      "inputs": [],
      "outputs": [
        {
          "name": "",
          "type": "tuple",
          "internalType": "struct IRewardsCoordinator.DistributionRoot",
          "components": [
            {
              "name": "root",
              "type": "bytes32",
              "internalType": "bytes32"
            },
            {
              "name": "rewardsCalculationEndTimestamp",
              "type": "uint32",
              "internalType": "uint32"
            },
            {
              "name": "activatedAt",
              "type": "uint32",
              "internalType": "uint32"
            },
            {
              "name": "disabled",
              "type": "bool",
              "internalType": "bool"
            }
          ]
        }
      ],
      "stateMutability": "view"
    },
    {
      "type": "function",
      "name": "getCurrentDistributionRoot",
      "inputs": [],
      "outputs": [
        {
          "name": "",
          "type": "tuple",
          "internalType": "struct IRewardsCoordinator.DistributionRoot",
          "components": [
            {
              "name": "root",
              "type": "bytes32",
              "internalType": "bytes32"
            },
            {
              "name": "rewardsCalculationEndTimestamp",
              "type": "uint32",
              "internalType": "uint32"
            },
            {
              "name": "activatedAt",
              "type": "uint32",
              "internalType": "uint32"
            },
            {
              "name": "disabled",
              "type": "bool",
              "internalType": "bool"
            }
          ]
        }
      ],
      "stateMutability": "view"
    },
    {
      "type": "function",
      "name": "getDistributionRootAtIndex",
      "inputs": [
        {
          "name": "index",
          "type": "uint256",
          "internalType": "uint256"
        }
      ],
      "outputs": [
        {
          "name": "",
          "type": "tuple",
          "internalType": "struct IRewardsCoordinator.DistributionRoot",
          "components": [
            {
              "name": "root",
              "type": "bytes32",
              "internalType": "bytes32"
            },
            {
              "name": "rewardsCalculationEndTimestamp",
              "type": "uint32",
              "internalType": "uint32"
            },
            {
              "name": "activatedAt",
              "type": "uint32",
              "internalType": "uint32"
            },
            {
              "name": "disabled",
              "type": "bool",
              "internalType": "bool"
            }
          ]
        }
      ],
      "stateMutability": "view"
    },
    {
      "type": "function",
      "name": "getDistributionRootsLength",
      "inputs": [],
      "outputs": [
        {
          "name": "",
          "type": "uint256",
          "internalType": "uint256"
        }
      ],
      "stateMutability": "view"
    },
    {
      "type": "function",
      "name": "getOperatorAVSSplit",
      "inputs": [
        {
          "name": "operator",
          "type": "address",
          "internalType": "address"
        },
        {
          "name": "avs",
          "type": "address",
          "internalType": "address"
        }
      ],
      "outputs": [
        {
          "name": "",
          "type": "uint16",
          "internalType": "uint16"
        }
      ],
      "stateMutability": "view"
    },
    {
      "type": "function",
      "name": "getOperatorPISplit",
      "inputs": [
        {
          "name": "operator",
          "type": "address",
          "internalType": "address"
        }
      ],
      "outputs": [
        {
          "name": "",
          "type": "uint16",
          "internalType": "uint16"
        }
      ],
      "stateMutability": "view"
    },
    {
      "type": "function",
      "name": "getRootIndexFromHash",
      "inputs": [
        {
          "name": "rootHash",
          "type": "bytes32",
          "internalType": "bytes32"
        }
      ],
      "outputs": [
        {
          "name": "",
          "type": "uint32",
          "internalType": "uint32"
        }
      ],
      "stateMutability": "view"
    },
    {
      "type": "function",
      "name": "initialize",
      "inputs": [
        {
          "name": "initialOwner",
          "type": "address",
          "internalType": "address"
        },
        {
          "name": "_pauserRegistry",
          "type": "address",
          "internalType": "contract IPauserRegistry"
        },
        {
          "name": "initialPausedStatus",
          "type": "uint256",
          "internalType": "uint256"
        },
        {
          "name": "_rewardsUpdater",
          "type": "address",
          "internalType": "address"
        },
        {
          "name": "_activationDelay",
          "type": "uint32",
          "internalType": "uint32"
        },
        {
          "name": "_defaultSplitBips",
          "type": "uint16",
          "internalType": "uint16"
        }
      ],
      "outputs": [],
      "stateMutability": "nonpayable"
    },
    {
      "type": "function",
      "name": "isAVSRewardsSubmissionHash",
      "inputs": [
        {
          "name": "",
          "type": "address",
          "internalType": "address"
        },
        {
          "name": "",
          "type": "bytes32",
          "internalType": "bytes32"
        }
      ],
      "outputs": [
        {
          "name": "",
          "type": "bool",
          "internalType": "bool"
        }
      ],
      "stateMutability": "view"
    },
    {
      "type": "function",
      "name": "isOperatorDirectedAVSRewardsSubmissionHash",
      "inputs": [
        {
          "name": "",
          "type": "address",
          "internalType": "address"
        },
        {
          "name": "",
          "type": "bytes32",
          "internalType": "bytes32"
        }
      ],
      "outputs": [
        {
          "name": "",
          "type": "bool",
          "internalType": "bool"
        }
      ],
      "stateMutability": "view"
    },
    {
      "type": "function",
      "name": "isRewardsForAllSubmitter",
      "inputs": [
        {
          "name": "",
          "type": "address",
          "internalType": "address"
        }
      ],
      "outputs": [
        {
          "name": "",
          "type": "bool",
          "internalType": "bool"
        }
      ],
      "stateMutability": "view"
    },
    {
      "type": "function",
      "name": "isRewardsSubmissionForAllEarnersHash",
      "inputs": [
        {
          "name": "",
          "type": "address",
          "internalType": "address"
        },
        {
          "name": "",
          "type": "bytes32",
          "internalType": "bytes32"
        }
      ],
      "outputs": [
        {
          "name": "",
          "type": "bool",
          "internalType": "bool"
        }
      ],
      "stateMutability": "view"
    },
    {
      "type": "function",
      "name": "isRewardsSubmissionForAllHash",
      "inputs": [
        {
          "name": "",
          "type": "address",
          "internalType": "address"
        },
        {
          "name": "",
          "type": "bytes32",
          "internalType": "bytes32"
        }
      ],
      "outputs": [
        {
          "name": "",
          "type": "bool",
          "internalType": "bool"
        }
      ],
      "stateMutability": "view"
    },
    {
      "type": "function",
      "name": "owner",
      "inputs": [],
      "outputs": [
        {
          "name": "",
          "type": "address",
          "internalType": "address"
        }
      ],
      "stateMutability": "view"
    },
    {
      "type": "function",
      "name": "pause",
      "inputs": [
        {
          "name": "newPausedStatus",
          "type": "uint256",
          "internalType": "uint256"
        }
      ],
      "outputs": [],
      "stateMutability": "nonpayable"
    },
    {
      "type": "function",
      "name": "pauseAll",
      "inputs": [],
      "outputs": [],
      "stateMutability": "nonpayable"
    },
    {
      "type": "function",
      "name": "paused",
      "inputs": [
        {
          "name": "index",
          "type": "uint8",
          "internalType": "uint8"
        }
      ],
      "outputs": [
        {
          "name": "",
          "type": "bool",
          "internalType": "bool"
        }
      ],
      "stateMutability": "view"
    },
    {
      "type": "function",
      "name": "paused",
      "inputs": [],
      "outputs": [
        {
          "name": "",
          "type": "uint256",
          "internalType": "uint256"
        }
      ],
      "stateMutability": "view"
    },
    {
      "type": "function",
      "name": "pauserRegistry",
      "inputs": [],
      "outputs": [
        {
          "name": "",
          "type": "address",
          "internalType": "contract IPauserRegistry"
        }
      ],
      "stateMutability": "view"
    },
    {
      "type": "function",
      "name": "processClaim",
      "inputs": [
        {
          "name": "claim",
          "type": "tuple",
          "internalType": "struct IRewardsCoordinator.RewardsMerkleClaim",
          "components": [
            {
              "name": "rootIndex",
              "type": "uint32",
              "internalType": "uint32"
            },
            {
              "name": "earnerIndex",
              "type": "uint32",
              "internalType": "uint32"
            },
            {
              "name": "earnerTreeProof",
              "type": "bytes",
              "internalType": "bytes"
            },
            {
              "name": "earnerLeaf",
              "type": "tuple",
              "internalType": "struct IRewardsCoordinator.EarnerTreeMerkleLeaf",
              "components": [
                {
                  "name": "earner",
                  "type": "address",
                  "internalType": "address"
                },
                {
                  "name": "earnerTokenRoot",
                  "type": "bytes32",
                  "internalType": "bytes32"
                }
              ]
            },
            {
              "name": "tokenIndices",
              "type": "uint32[]",
              "internalType": "uint32[]"
            },
            {
              "name": "tokenTreeProofs",
              "type": "bytes[]",
              "internalType": "bytes[]"
            },
            {
              "name": "tokenLeaves",
              "type": "tuple[]",
              "internalType": "struct IRewardsCoordinator.TokenTreeMerkleLeaf[]",
              "components": [
                {
                  "name": "token",
                  "type": "address",
                  "internalType": "contract IERC20"
                },
                {
                  "name": "cumulativeEarnings",
                  "type": "uint256",
                  "internalType": "uint256"
                }
              ]
            }
          ]
        },
        {
          "name": "recipient",
          "type": "address",
          "internalType": "address"
        }
      ],
      "outputs": [],
      "stateMutability": "nonpayable"
    },
    {
      "type": "function",
      "name": "processClaims",
      "inputs": [
        {
          "name": "claims",
          "type": "tuple[]",
          "internalType": "struct IRewardsCoordinator.RewardsMerkleClaim[]",
          "components": [
            {
              "name": "rootIndex",
              "type": "uint32",
              "internalType": "uint32"
            },
            {
              "name": "earnerIndex",
              "type": "uint32",
              "internalType": "uint32"
            },
            {
              "name": "earnerTreeProof",
              "type": "bytes",
              "internalType": "bytes"
            },
            {
              "name": "earnerLeaf",
              "type": "tuple",
              "internalType": "struct IRewardsCoordinator.EarnerTreeMerkleLeaf",
              "components": [
                {
                  "name": "earner",
                  "type": "address",
                  "internalType": "address"
                },
                {
                  "name": "earnerTokenRoot",
                  "type": "bytes32",
                  "internalType": "bytes32"
                }
              ]
            },
            {
              "name": "tokenIndices",
              "type": "uint32[]",
              "internalType": "uint32[]"
            },
            {
              "name": "tokenTreeProofs",
              "type": "bytes[]",
              "internalType": "bytes[]"
            },
            {
              "name": "tokenLeaves",
              "type": "tuple[]",
              "internalType": "struct IRewardsCoordinator.TokenTreeMerkleLeaf[]",
              "components": [
                {
                  "name": "token",
                  "type": "address",
                  "internalType": "contract IERC20"
                },
                {
                  "name": "cumulativeEarnings",
                  "type": "uint256",
                  "internalType": "uint256"
                }
              ]
            }
          ]
        },
        {
          "name": "recipient",
          "type": "address",
          "internalType": "address"
        }
      ],
      "outputs": [],
      "stateMutability": "nonpayable"
    },
    {
      "type": "function",
      "name": "renounceOwnership",
      "inputs": [],
      "outputs": [],
      "stateMutability": "nonpayable"
    },
    {
      "type": "function",
      "name": "rewardsUpdater",
      "inputs": [],
      "outputs": [
        {
          "name": "",
          "type": "address",
          "internalType": "address"
        }
      ],
      "stateMutability": "view"
    },
    {
      "type": "function",
      "name": "setActivationDelay",
      "inputs": [
        {
          "name": "_activationDelay",
          "type": "uint32",
          "internalType": "uint32"
        }
      ],
      "outputs": [],
      "stateMutability": "nonpayable"
    },
    {
      "type": "function",
      "name": "setClaimerFor",
      "inputs": [
        {
          "name": "claimer",
          "type": "address",
          "internalType": "address"
        }
      ],
      "outputs": [],
      "stateMutability": "nonpayable"
    },
    {
      "type": "function",
      "name": "setDefaultOperatorSplit",
      "inputs": [
        {
          "name": "split",
          "type": "uint16",
          "internalType": "uint16"
        }
      ],
      "outputs": [],
      "stateMutability": "nonpayable"
    },
    {
      "type": "function",
      "name": "setOperatorAVSSplit",
      "inputs": [
        {
          "name": "operator",
          "type": "address",
          "internalType": "address"
        },
        {
          "name": "avs",
          "type": "address",
          "internalType": "address"
        },
        {
          "name": "split",
          "type": "uint16",
          "internalType": "uint16"
        }
      ],
      "outputs": [],
      "stateMutability": "nonpayable"
    },
    {
      "type": "function",
      "name": "setOperatorPISplit",
      "inputs": [
        {
          "name": "operator",
          "type": "address",
          "internalType": "address"
        },
        {
          "name": "split",
          "type": "uint16",
          "internalType": "uint16"
        }
      ],
      "outputs": [],
      "stateMutability": "nonpayable"
    },
    {
      "type": "function",
      "name": "setPauserRegistry",
      "inputs": [
        {
          "name": "newPauserRegistry",
          "type": "address",
          "internalType": "contract IPauserRegistry"
        }
      ],
      "outputs": [],
      "stateMutability": "nonpayable"
    },
    {
      "type": "function",
      "name": "setRewardsForAllSubmitter",
      "inputs": [
        {
          "name": "_submitter",
          "type": "address",
          "internalType": "address"
        },
        {
          "name": "_newValue",
          "type": "bool",
          "internalType": "bool"
        }
      ],
      "outputs": [],
      "stateMutability": "nonpayable"
    },
    {
      "type": "function",
      "name": "setRewardsUpdater",
      "inputs": [
        {
          "name": "_rewardsUpdater",
          "type": "address",
          "internalType": "address"
        }
      ],
      "outputs": [],
      "stateMutability": "nonpayable"
    },
    {
      "type": "function",
      "name": "strategyManager",
      "inputs": [],
      "outputs": [
        {
          "name": "",
          "type": "address",
          "internalType": "contract IStrategyManager"
        }
      ],
      "stateMutability": "view"
    },
    {
      "type": "function",
      "name": "submissionNonce",
      "inputs": [
        {
          "name": "",
          "type": "address",
          "internalType": "address"
        }
      ],
      "outputs": [
        {
          "name": "",
          "type": "uint256",
          "internalType": "uint256"
        }
      ],
      "stateMutability": "view"
    },
    {
      "type": "function",
      "name": "submitRoot",
      "inputs": [
        {
          "name": "root",
          "type": "bytes32",
          "internalType": "bytes32"
        },
        {
          "name": "rewardsCalculationEndTimestamp",
          "type": "uint32",
          "internalType": "uint32"
        }
      ],
      "outputs": [],
      "stateMutability": "nonpayable"
    },
    {
      "type": "function",
      "name": "transferOwnership",
      "inputs": [
        {
          "name": "newOwner",
          "type": "address",
          "internalType": "address"
        }
      ],
      "outputs": [],
      "stateMutability": "nonpayable"
    },
    {
      "type": "function",
      "name": "unpause",
      "inputs": [
        {
          "name": "newPausedStatus",
          "type": "uint256",
          "internalType": "uint256"
        }
      ],
      "outputs": [],
      "stateMutability": "nonpayable"
    },
    {
      "type": "event",
      "name": "AVSRewardsSubmissionCreated",
      "inputs": [
        {
          "name": "avs",
          "type": "address",
          "indexed": true,
          "internalType": "address"
        },
        {
          "name": "submissionNonce",
          "type": "uint256",
          "indexed": true,
          "internalType": "uint256"
        },
        {
          "name": "rewardsSubmissionHash",
          "type": "bytes32",
          "indexed": true,
          "internalType": "bytes32"
        },
        {
          "name": "rewardsSubmission",
          "type": "tuple",
          "indexed": false,
          "internalType": "struct IRewardsCoordinator.RewardsSubmission",
          "components": [
            {
              "name": "strategiesAndMultipliers",
              "type": "tuple[]",
              "internalType": "struct IRewardsCoordinator.StrategyAndMultiplier[]",
              "components": [
                {
                  "name": "strategy",
                  "type": "address",
                  "internalType": "contract IStrategy"
                },
                {
                  "name": "multiplier",
                  "type": "uint96",
                  "internalType": "uint96"
                }
              ]
            },
            {
              "name": "token",
              "type": "address",
              "internalType": "contract IERC20"
            },
            {
              "name": "amount",
              "type": "uint256",
              "internalType": "uint256"
            },
            {
              "name": "startTimestamp",
              "type": "uint32",
              "internalType": "uint32"
            },
            {
              "name": "duration",
              "type": "uint32",
              "internalType": "uint32"
            }
          ]
        }
      ],
      "anonymous": false
    },
    {
      "type": "event",
      "name": "ActivationDelaySet",
      "inputs": [
        {
          "name": "oldActivationDelay",
          "type": "uint32",
          "indexed": false,
          "internalType": "uint32"
        },
        {
          "name": "newActivationDelay",
          "type": "uint32",
          "indexed": false,
          "internalType": "uint32"
        }
      ],
      "anonymous": false
    },
    {
      "type": "event",
      "name": "ClaimerForSet",
      "inputs": [
        {
          "name": "earner",
          "type": "address",
          "indexed": true,
          "internalType": "address"
        },
        {
          "name": "oldClaimer",
          "type": "address",
          "indexed": true,
          "internalType": "address"
        },
        {
          "name": "claimer",
          "type": "address",
          "indexed": true,
          "internalType": "address"
        }
      ],
      "anonymous": false
    },
    {
      "type": "event",
      "name": "DefaultOperatorSplitBipsSet",
      "inputs": [
        {
          "name": "oldDefaultOperatorSplitBips",
          "type": "uint16",
          "indexed": false,
          "internalType": "uint16"
        },
        {
          "name": "newDefaultOperatorSplitBips",
          "type": "uint16",
          "indexed": false,
          "internalType": "uint16"
        }
      ],
      "anonymous": false
    },
    {
      "type": "event",
      "name": "DistributionRootDisabled",
      "inputs": [
        {
          "name": "rootIndex",
          "type": "uint32",
          "indexed": true,
          "internalType": "uint32"
        }
      ],
      "anonymous": false
    },
    {
      "type": "event",
      "name": "DistributionRootSubmitted",
      "inputs": [
        {
          "name": "rootIndex",
          "type": "uint32",
          "indexed": true,
          "internalType": "uint32"
        },
        {
          "name": "root",
          "type": "bytes32",
          "indexed": true,
          "internalType": "bytes32"
        },
        {
          "name": "rewardsCalculationEndTimestamp",
          "type": "uint32",
          "indexed": true,
          "internalType": "uint32"
        },
        {
          "name": "activatedAt",
          "type": "uint32",
          "indexed": false,
          "internalType": "uint32"
        }
      ],
      "anonymous": false
    },
    {
      "type": "event",
      "name": "Initialized",
      "inputs": [
        {
          "name": "version",
          "type": "uint8",
          "indexed": false,
          "internalType": "uint8"
        }
      ],
      "anonymous": false
    },
    {
      "type": "event",
      "name": "OperatorAVSSplitBipsSet",
      "inputs": [
        {
          "name": "caller",
          "type": "address",
          "indexed": true,
          "internalType": "address"
        },
        {
          "name": "operator",
          "type": "address",
          "indexed": true,
          "internalType": "address"
        },
        {
          "name": "avs",
          "type": "address",
          "indexed": true,
          "internalType": "address"
        },
        {
          "name": "activatedAt",
          "type": "uint32",
          "indexed": false,
          "internalType": "uint32"
        },
        {
          "name": "oldOperatorAVSSplitBips",
          "type": "uint16",
          "indexed": false,
          "internalType": "uint16"
        },
        {
          "name": "newOperatorAVSSplitBips",
          "type": "uint16",
          "indexed": false,
          "internalType": "uint16"
        }
      ],
      "anonymous": false
    },
    {
      "type": "event",
      "name": "OperatorDirectedAVSRewardsSubmissionCreated",
      "inputs": [
        {
          "name": "caller",
          "type": "address",
          "indexed": true,
          "internalType": "address"
        },
        {
          "name": "avs",
          "type": "address",
          "indexed": true,
          "internalType": "address"
        },
        {
          "name": "operatorDirectedRewardsSubmissionHash",
          "type": "bytes32",
          "indexed": true,
          "internalType": "bytes32"
        },
        {
          "name": "submissionNonce",
          "type": "uint256",
          "indexed": false,
          "internalType": "uint256"
        },
        {
          "name": "operatorDirectedRewardsSubmission",
          "type": "tuple",
          "indexed": false,
          "internalType": "struct IRewardsCoordinator.OperatorDirectedRewardsSubmission",
          "components": [
            {
              "name": "strategiesAndMultipliers",
              "type": "tuple[]",
              "internalType": "struct IRewardsCoordinator.StrategyAndMultiplier[]",
              "components": [
                {
                  "name": "strategy",
                  "type": "address",
                  "internalType": "contract IStrategy"
                },
                {
                  "name": "multiplier",
                  "type": "uint96",
                  "internalType": "uint96"
                }
              ]
            },
            {
              "name": "token",
              "type": "address",
              "internalType": "contract IERC20"
            },
            {
              "name": "operatorRewards",
              "type": "tuple[]",
              "internalType": "struct IRewardsCoordinator.OperatorReward[]",
              "components": [
                {
                  "name": "operator",
                  "type": "address",
                  "internalType": "address"
                },
                {
                  "name": "amount",
                  "type": "uint256",
                  "internalType": "uint256"
                }
              ]
            },
            {
              "name": "startTimestamp",
              "type": "uint32",
              "internalType": "uint32"
            },
            {
              "name": "duration",
              "type": "uint32",
              "internalType": "uint32"
            },
            {
              "name": "description",
              "type": "string",
              "internalType": "string"
            }
          ]
        }
      ],
      "anonymous": false
    },
    {
      "type": "event",
      "name": "OperatorPISplitBipsSet",
      "inputs": [
        {
          "name": "caller",
          "type": "address",
          "indexed": true,
          "internalType": "address"
        },
        {
          "name": "operator",
          "type": "address",
          "indexed": true,
          "internalType": "address"
        },
        {
          "name": "activatedAt",
          "type": "uint32",
          "indexed": false,
          "internalType": "uint32"
        },
        {
          "name": "oldOperatorPISplitBips",
          "type": "uint16",
          "indexed": false,
          "internalType": "uint16"
        },
        {
          "name": "newOperatorPISplitBips",
          "type": "uint16",
          "indexed": false,
          "internalType": "uint16"
        }
      ],
      "anonymous": false
    },
    {
      "type": "event",
      "name": "OwnershipTransferred",
      "inputs": [
        {
          "name": "previousOwner",
          "type": "address",
          "indexed": true,
          "internalType": "address"
        },
        {
          "name": "newOwner",
          "type": "address",
          "indexed": true,
          "internalType": "address"
        }
      ],
      "anonymous": false
    },
    {
      "type": "event",
      "name": "Paused",
      "inputs": [
        {
          "name": "account",
          "type": "address",
          "indexed": true,
          "internalType": "address"
        },
        {
          "name": "newPausedStatus",
          "type": "uint256",
          "indexed": false,
          "internalType": "uint256"
        }
      ],
      "anonymous": false
    },
    {
      "type": "event",
      "name": "PauserRegistrySet",
      "inputs": [
        {
          "name": "pauserRegistry",
          "type": "address",
          "indexed": false,
          "internalType": "contract IPauserRegistry"
        },
        {
          "name": "newPauserRegistry",
          "type": "address",
          "indexed": false,
          "internalType": "contract IPauserRegistry"
        }
      ],
      "anonymous": false
    },
    {
      "type": "event",
      "name": "RewardsClaimed",
      "inputs": [
        {
          "name": "root",
          "type": "bytes32",
          "indexed": false,
          "internalType": "bytes32"
        },
        {
          "name": "earner",
          "type": "address",
          "indexed": true,
          "internalType": "address"
        },
        {
          "name": "claimer",
          "type": "address",
          "indexed": true,
          "internalType": "address"
        },
        {
          "name": "recipient",
          "type": "address",
          "indexed": true,
          "internalType": "address"
        },
        {
          "name": "token",
          "type": "address",
          "indexed": false,
          "internalType": "contract IERC20"
        },
        {
          "name": "claimedAmount",
          "type": "uint256",
          "indexed": false,
          "internalType": "uint256"
        }
      ],
      "anonymous": false
    },
    {
      "type": "event",
      "name": "RewardsForAllSubmitterSet",
      "inputs": [
        {
          "name": "rewardsForAllSubmitter",
          "type": "address",
          "indexed": true,
          "internalType": "address"
        },
        {
          "name": "oldValue",
          "type": "bool",
          "indexed": true,
          "internalType": "bool"
        },
        {
          "name": "newValue",
          "type": "bool",
          "indexed": true,
          "internalType": "bool"
        }
      ],
      "anonymous": false
    },
    {
      "type": "event",
      "name": "RewardsSubmissionForAllCreated",
      "inputs": [
        {
          "name": "submitter",
          "type": "address",
          "indexed": true,
          "internalType": "address"
        },
        {
          "name": "submissionNonce",
          "type": "uint256",
          "indexed": true,
          "internalType": "uint256"
        },
        {
          "name": "rewardsSubmissionHash",
          "type": "bytes32",
          "indexed": true,
          "internalType": "bytes32"
        },
        {
          "name": "rewardsSubmission",
          "type": "tuple",
          "indexed": false,
          "internalType": "struct IRewardsCoordinator.RewardsSubmission",
          "components": [
            {
              "name": "strategiesAndMultipliers",
              "type": "tuple[]",
              "internalType": "struct IRewardsCoordinator.StrategyAndMultiplier[]",
              "components": [
                {
                  "name": "strategy",
                  "type": "address",
                  "internalType": "contract IStrategy"
                },
                {
                  "name": "multiplier",
                  "type": "uint96",
                  "internalType": "uint96"
                }
              ]
            },
            {
              "name": "token",
              "type": "address",
              "internalType": "contract IERC20"
            },
            {
              "name": "amount",
              "type": "uint256",
              "internalType": "uint256"
            },
            {
              "name": "startTimestamp",
              "type": "uint32",
              "internalType": "uint32"
            },
            {
              "name": "duration",
              "type": "uint32",
              "internalType": "uint32"
            }
          ]
        }
      ],
      "anonymous": false
    },
    {
      "type": "event",
      "name": "RewardsSubmissionForAllEarnersCreated",
      "inputs": [
        {
          "name": "tokenHopper",
          "type": "address",
          "indexed": true,
          "internalType": "address"
        },
        {
          "name": "submissionNonce",
          "type": "uint256",
          "indexed": true,
          "internalType": "uint256"
        },
        {
          "name": "rewardsSubmissionHash",
          "type": "bytes32",
          "indexed": true,
          "internalType": "bytes32"
        },
        {
          "name": "rewardsSubmission",
          "type": "tuple",
          "indexed": false,
          "internalType": "struct IRewardsCoordinator.RewardsSubmission",
          "components": [
            {
              "name": "strategiesAndMultipliers",
              "type": "tuple[]",
              "internalType": "struct IRewardsCoordinator.StrategyAndMultiplier[]",
              "components": [
                {
                  "name": "strategy",
                  "type": "address",
                  "internalType": "contract IStrategy"
                },
                {
                  "name": "multiplier",
                  "type": "uint96",
                  "internalType": "uint96"
                }
              ]
            },
            {
              "name": "token",
              "type": "address",
              "internalType": "contract IERC20"
            },
            {
              "name": "amount",
              "type": "uint256",
              "internalType": "uint256"
            },
            {
              "name": "startTimestamp",
              "type": "uint32",
              "internalType": "uint32"
            },
            {
              "name": "duration",
              "type": "uint32",
              "internalType": "uint32"
            }
          ]
        }
      ],
      "anonymous": false
    },
    {
      "type": "event",
      "name": "RewardsUpdaterSet",
      "inputs": [
        {
          "name": "oldRewardsUpdater",
          "type": "address",
          "indexed": true,
          "internalType": "address"
        },
        {
          "name": "newRewardsUpdater",
          "type": "address",
          "indexed": true,
          "internalType": "address"
        }
      ],
      "anonymous": false
    },
    {
      "type": "event",
      "name": "Unpaused",
      "inputs": [
        {
          "name": "account",
          "type": "address",
          "indexed": true,
          "internalType": "address"
        },
        {
          "name": "newPausedStatus",
          "type": "uint256",
          "indexed": false,
          "internalType": "uint256"
        }
      ],
      "anonymous": false
    }
  ],
  "bytecode": {
    "object": "0x6101806040523480156200001257600080fd5b506040516200583c3803806200583c8339810160408190526200003591620002e4565b868686868686866200004885826200037e565b63ffffffff1615620000ed5760405162461bcd60e51b815260206004820152606060248201527f52657761726473436f6f7264696e61746f723a2047454e455349535f5245574160448201527f5244535f54494d455354414d50206d7573742062652061206d756c7469706c6560648201527f206f662043414c43554c4154494f4e5f494e54455256414c5f5345434f4e4453608482015260a4015b60405180910390fd5b620000fc62015180866200037e565b63ffffffff16156200019d5760405162461bcd60e51b815260206004820152605760248201527f52657761726473436f6f7264696e61746f723a2043414c43554c4154494f4e5f60448201527f494e54455256414c5f5345434f4e4453206d7573742062652061206d756c746960648201527f706c65206f6620534e415053484f545f434144454e4345000000000000000000608482015260a401620000e4565b6001600160a01b0396871661012052949095166101405263ffffffff92831660805290821660a052811660c05291821660e0521661010052620001df620001f2565b5050466101605250620003b09350505050565b600054610100900460ff16156200025c5760405162461bcd60e51b815260206004820152602760248201527f496e697469616c697a61626c653a20636f6e747261637420697320696e697469604482015266616c697a696e6760c81b6064820152608401620000e4565b60005460ff9081161015620002af576000805460ff191660ff9081179091556040519081527f7f26b83ff96e1f2b6a682f133852f6798a09c465da95921460cefb38474024989060200160405180910390a15b565b6001600160a01b0381168114620002c757600080fd5b50565b805163ffffffff81168114620002df57600080fd5b919050565b600080600080600080600060e0888a0312156200030057600080fd5b87516200030d81620002b1565b60208901519097506200032081620002b1565b95506200033060408901620002ca565b94506200034060608901620002ca565b93506200035060808901620002ca565b92506200036060a08901620002ca565b91506200037060c08901620002ca565b905092959891949750929550565b600063ffffffff80841680620003a457634e487b7160e01b600052601260045260246000fd5b92169190910692915050565b60805160a05160c05160e051610100516101205161014051610160516153f562000447600039600061206e0152600081816105460152613e7d015260006108a00152600081816104700152613d770152600081816103c40152612a1301526000818161051f0152613d350152600081816107ec0152613ad201526000818161073e01528181613b8b0152613c5b01526153f56000f3fe608060405234801561001057600080fd5b50600436106103825760003560e01c8063865c6953116101de578063d4540a551161010f578063f2fde38b116100ad578063fabc1cbc1161007c578063fabc1cbc14610931578063fbf1e2c114610944578063fce36c7d14610957578063ff9f6cce1461096a57600080fd5b8063f2fde38b146108f0578063f698da2514610903578063f8cd84481461090b578063f96abf2e1461091e57600080fd5b8063e063f81f116100e9578063e063f81f14610875578063e810ce2114610888578063ea4d3c9b1461089b578063ed71e6a2146108c257600080fd5b8063d4540a551461083c578063dcbb03b31461084f578063de02e5031461086257600080fd5b8063a0169ddd1161017c578063b3dbb0e011610156578063b3dbb0e0146107b4578063bb7e451f146107c7578063bf21a8aa146107e7578063c46db6061461080e57600080fd5b8063a0169ddd14610760578063a50a1d9c14610773578063aebd8bae1461078657600080fd5b80639104c319116101b85780639104c319146107035780639be3d4e41461071e5780639cb9a5fa146107265780639d45c2811461073957600080fd5b8063865c6953146106b4578063886f1195146106df5780638da5cb5b146106f257600080fd5b80633efe1db6116102b85780635c975abb116102565780636d21117e116102305780636d21117e14610663578063715018a6146106915780637b8f8b0514610699578063863cb9a9146106a157600080fd5b80635c975abb146106335780635e9d83481461063b57806363f6a7981461064e57600080fd5b80634d18cc35116102925780634d18cc35146105de57806358baaa3e146105f5578063595c6a67146106085780635ac86ab71461061057600080fd5b80633efe1db6146105925780634596021c146105a55780634b943960146105b857600080fd5b8063149bc8721161032557806337838ed0116102ff57806337838ed01461051a57806339b70e38146105415780633a8c0786146105685780633ccc861d1461057f57600080fd5b8063149bc872146104a55780632b9f64a4146104c657806336af41fa1461050757600080fd5b80630eb38345116103615780630eb383451461044357806310d67a2f14610458578063131433b41461046b578063136439dd1461049257600080fd5b806218572c1461038757806304a0c502146103bf5780630e9a53cf146103fb575b600080fd5b6103aa6103953660046146bf565b60d16020526000908152604090205460ff1681565b60405190151581526020015b60405180910390f35b6103e67f000000000000000000000000000000000000000000000000000000000000000081565b60405163ffffffff90911681526020016103b6565b61040361097d565b604080518251815260208084015163ffffffff908116918301919091528383015116918101919091526060918201511515918101919091526080016103b6565b6104566104513660046146ea565b610a81565b005b6104566104663660046146bf565b610b03565b6103e67f000000000000000000000000000000000000000000000000000000000000000081565b6104566104a0366004614723565b610bbf565b6104b86104b3366004614754565b610cfe565b6040519081526020016103b6565b6104ef6104d43660046146bf565b60cc602052600090815260409020546001600160a01b031681565b6040516001600160a01b0390911681526020016103b6565b6104566105153660046147bc565b610d74565b6103e67f000000000000000000000000000000000000000000000000000000000000000081565b6104ef7f000000000000000000000000000000000000000000000000000000000000000081565b60cb546103e690600160a01b900463ffffffff1681565b61045661058d366004614811565b610f3e565b6104566105a036600461486c565b610fa3565b6104566105b3366004614898565b611274565b6105cb6105c63660046146bf565b61131b565b60405161ffff90911681526020016103b6565b60cb546103e690600160c01b900463ffffffff1681565b6104566106033660046148ef565b611377565b610456611388565b6103aa61061e36600461490a565b606654600160ff9092169190911b9081161490565b6066546104b8565b6103aa61064936600461492d565b61144f565b60cb546105cb90600160e01b900461ffff1681565b6103aa610671366004614962565b60cf60209081526000928352604080842090915290825290205460ff1681565b6104566114dc565b60ca546104b8565b6104566106af3660046146bf565b6114f0565b6104b86106c236600461498e565b60cd60209081526000928352604080842090915290825290205481565b6065546104ef906001600160a01b031681565b6033546001600160a01b03166104ef565b6104ef73beac0eeeeeeeeeeeeeeeeeeeeeeeeeeeeeebeac081565b610403611501565b6104566107343660046149bc565b61159f565b6103e67f000000000000000000000000000000000000000000000000000000000000000081565b61045661076e3660046146bf565b6117d8565b610456610781366004614a23565b611837565b6103aa610794366004614962565b60d260209081526000928352604080842090915290825290205460ff1681565b6104566107c2366004614a3e565b611848565b6104b86107d53660046146bf565b60ce6020526000908152604090205481565b6103e67f000000000000000000000000000000000000000000000000000000000000000081565b6103aa61081c366004614962565b60d060209081526000928352604080842090915290825290205460ff1681565b61045661084a366004614a6a565b611a7b565b61045661085d366004614add565b611bc3565b610403610870366004614723565b611e1a565b6105cb61088336600461498e565b611eac565b6103e6610896366004614723565b611f19565b6104ef7f000000000000000000000000000000000000000000000000000000000000000081565b6103aa6108d0366004614962565b60d360209081526000928352604080842090915290825290205460ff1681565b6104566108fe3660046146bf565b611ff4565b6104b861206a565b6104b8610919366004614754565b6120a8565b61045661092c3660046148ef565b6120b9565b61045661093f366004614723565b6122ef565b60cb546104ef906001600160a01b031681565b6104566109653660046147bc565b61244b565b6104566109783660046147bc565b6125ca565b60408051608081018252600080825260208201819052918101829052606081019190915260ca545b8015610a5857600060ca6109ba600184614b3a565b815481106109ca576109ca614b51565b600091825260209182902060408051608081018252600293909302909101805483526001015463ffffffff80821694840194909452600160201b810490931690820152600160401b90910460ff161580156060830181905291925090610a3a5750806040015163ffffffff164210155b15610a455792915050565b5080610a5081614b67565b9150506109a5565b505060408051608081018252600080825260208201819052918101829052606081019190915290565b610a89612778565b6001600160a01b038216600081815260d1602052604080822054905160ff9091169284151592841515927f4de6293e668df1398422e1def12118052c1539a03cbfedc145895d48d7685f1c9190a4506001600160a01b0391909116600090815260d160205260409020805460ff1916911515919091179055565b606560009054906101000a90046001600160a01b03166001600160a01b031663eab66d7a6040518163ffffffff1660e01b8152600401602060405180830381865afa158015610b56573d6000803e3d6000fd5b505050506040513d601f19601f82011682018060405250810190610b7a9190614b7e565b6001600160a01b0316336001600160a01b031614610bb35760405162461bcd60e51b8152600401610baa90614b9b565b60405180910390fd5b610bbc816127d2565b50565b60655460405163237dfb4760e11b81523360048201526001600160a01b03909116906346fbf68e90602401602060405180830381865afa158015610c07573d6000803e3d6000fd5b505050506040513d601f19601f82011682018060405250810190610c2b9190614be5565b610c475760405162461bcd60e51b8152600401610baa90614c02565b60665481811614610cc05760405162461bcd60e51b815260206004820152603860248201527f5061757361626c652e70617573653a20696e76616c696420617474656d70742060448201527f746f20756e70617573652066756e6374696f6e616c69747900000000000000006064820152608401610baa565b606681905560405181815233907fab40a374bc51de372200a8bc981af8c9ecdc08dfdaef0bb6e09f88f3c616ef3d906020015b60405180910390a250565b600080610d0e60208401846146bf565b8360200135604051602001610d579392919060f89390931b6001600160f81b031916835260609190911b6bffffffffffffffffffffffff19166001830152601582015260350190565b604051602081830303815290604052805190602001209050919050565b60665460019060029081161415610d9d5760405162461bcd60e51b8152600401610baa90614c4a565b33600090815260d1602052604090205460ff16610dcc5760405162461bcd60e51b8152600401610baa90614c81565b60026097541415610def5760405162461bcd60e51b8152600401610baa90614cf8565b600260975560005b82811015610f335736848483818110610e1257610e12614b51565b9050602002810190610e249190614d2f565b33600081815260ce60209081526040808320549051949550939192610e4f9290918591879101614e88565b604051602081830303815290604052805190602001209050610e70836128c9565b33600090815260d0602090815260408083208484529091529020805460ff19166001908117909155610ea3908390614eb8565b33600081815260ce602052604090819020929092559051829184917f51088b8c89628df3a8174002c2a034d0152fce6af8415d651b2a4734bf27048290610eeb908890614ed0565b60405180910390a4610f1d333060408601803590610f0c90602089016146bf565b6001600160a01b0316929190612adf565b5050508080610f2b90614ee3565b915050610df7565b505060016097555050565b60665460029060049081161415610f675760405162461bcd60e51b8152600401610baa90614c4a565b60026097541415610f8a5760405162461bcd60e51b8152600401610baa90614cf8565b6002609755610f998383612b50565b5050600160975550565b60665460039060089081161415610fcc5760405162461bcd60e51b8152600401610baa90614c4a565b60cb546001600160a01b03163314610ff65760405162461bcd60e51b8152600401610baa90614efe565b60cb5463ffffffff600160c01b9091048116908316116110925760405162461bcd60e51b815260206004820152604b60248201527f52657761726473436f6f7264696e61746f722e7375626d6974526f6f743a206e60448201527f657720726f6f74206d75737420626520666f72206e657765722063616c63756c60648201526a185d1959081c195c9a5bd960aa1b608482015260a401610baa565b428263ffffffff161061112b5760405162461bcd60e51b815260206004820152605560248201527f52657761726473436f6f7264696e61746f722e7375626d6974526f6f743a207260448201527f65776172647343616c63756c6174696f6e456e6454696d657374616d702063616064820152746e6e6f7420626520696e207468652066757475726560581b608482015260a401610baa565b60ca5460cb5460009061114b90600160a01b900463ffffffff1642614f52565b6040805160808101825287815263ffffffff878116602080840182815286841685870181815260006060880181815260ca8054600181018255925297517f42d72674974f694b5f5159593243114d38a5c39c89d6b62fee061ff523240ee160029092029182015592517f42d72674974f694b5f5159593243114d38a5c39c89d6b62fee061ff523240ee290930180549151975193871667ffffffffffffffff1990921691909117600160201b978716979097029690961760ff60401b1916600160401b921515929092029190911790945560cb805463ffffffff60c01b1916600160c01b840217905593519283529394508892908616917fecd866c3c158fa00bf34d803d5f6023000b57080bcb48af004c2b4b46b3afd08910160405180910390a45050505050565b6066546002906004908116141561129d5760405162461bcd60e51b8152600401610baa90614c4a565b600260975414156112c05760405162461bcd60e51b8152600401610baa90614cf8565b600260975560005b8381101561130f576112fd8585838181106112e5576112e5614b51565b90506020028101906112f79190614f7a565b84612b50565b8061130781614ee3565b9150506112c8565b50506001609755505050565b6001600160a01b038116600090815260d5602090815260408083208151606081018352905461ffff80821683526201000082041693820193909352600160201b90920463ffffffff169082015261137190612ebd565b92915050565b61137f612778565b610bbc81612f0b565b60655460405163237dfb4760e11b81523360048201526001600160a01b03909116906346fbf68e90602401602060405180830381865afa1580156113d0573d6000803e3d6000fd5b505050506040513d601f19601f820116820180604052508101906113f49190614be5565b6114105760405162461bcd60e51b8152600401610baa90614c02565b600019606681905560405190815233907fab40a374bc51de372200a8bc981af8c9ecdc08dfdaef0bb6e09f88f3c616ef3d9060200160405180910390a2565b60006114d48260ca61146460208301836148ef565b63ffffffff168154811061147a5761147a614b51565b600091825260209182902060408051608081018252600293909302909101805483526001015463ffffffff80821694840194909452600160201b810490931690820152600160401b90910460ff1615156060820152612f7c565b506001919050565b6114e4612778565b6114ee600061324d565b565b6114f8612778565b610bbc8161329f565b60408051608081018252600080825260208201819052918101829052606081019190915260ca805461153590600190614b3a565b8154811061154557611545614b51565b600091825260209182902060408051608081018252600293909302909101805483526001015463ffffffff80821694840194909452600160201b810490931690820152600160401b90910460ff1615156060820152919050565b606654600590602090811614156115c85760405162461bcd60e51b8152600401610baa90614c4a565b600260975414156115eb5760405162461bcd60e51b8152600401610baa90614cf8565b6002609755336001600160a01b0385161461168b5760405162461bcd60e51b815260206004820152605460248201527f52657761726473436f6f7264696e61746f722e6372656174654f70657261746f60448201527f724469726563746564415653526577617264735375626d697373696f6e3a2063606482015273616c6c6572206973206e6f74207468652041565360601b608482015260a401610baa565b60005b8281101561130f57368484838181106116a9576116a9614b51565b90506020028101906116bb9190614f90565b6001600160a01b038716600090815260ce60209081526040808320549051939450926116ed918a91859187910161510d565b6040516020818303038152906040528051906020012090506000611710846132fb565b6001600160a01b038a16600090815260d3602090815260408083208684529091529020805460ff1916600190811790915590915061174f908490614eb8565b6001600160a01b038a16600081815260ce60205260409081902092909255905183919033907ffc8888bffd711da60bc5092b33f677d81896fe80ecc677b84cfab8184462b6e0906117a39088908a90615134565b60405180910390a46117c1333083610f0c6040890160208a016146bf565b5050505080806117d090614ee3565b91505061168e565b33600081815260cc602052604080822080546001600160a01b031981166001600160a01b038781169182179093559251911692839185917fbab947934d42e0ad206f25c9cab18b5bb6ae144acfb00f40b4e3aa59590ca31291a4505050565b61183f612778565b610bbc8161375d565b606654600790608090811614156118715760405162461bcd60e51b8152600401610baa90614c4a565b336001600160a01b038416146118f95760405162461bcd60e51b815260206004820152604160248201527f52657761726473436f6f7264696e61746f722e7365744f70657261746f72504960448201527f53706c69743a2063616c6c6572206973206e6f7420746865206f70657261746f6064820152603960f91b608482015260a401610baa565b61271061ffff831611156119805760405162461bcd60e51b815260206004820152604260248201527f52657761726473436f6f7264696e61746f722e7365744f70657261746f72504960448201527f53706c69743a2073706c6974206d757374206265203c3d203130303030206269606482015261707360f01b608482015260a401610baa565b60cb5460009061199d90600160a01b900463ffffffff1642614f52565b6001600160a01b038516600090815260d5602090815260408083208151606081018352905461ffff80821683526201000082041693820193909352600160201b90920463ffffffff1690820152919250906119f790612ebd565b6001600160a01b038616600090815260d560205260409020909150611a1d9085846137c8565b6040805163ffffffff8416815261ffff838116602083015286168183015290516001600160a01b0387169133917fd1e028bd664486a46ad26040e999cd2d22e1e9a094ee6afe19fcf64678f16f749181900360600190a35050505050565b600054610100900460ff1615808015611a9b5750600054600160ff909116105b80611ab55750303b158015611ab5575060005460ff166001145b611b185760405162461bcd60e51b815260206004820152602e60248201527f496e697469616c697a61626c653a20636f6e747261637420697320616c72656160448201526d191e481a5b9a5d1a585b1a5e995960921b6064820152608401610baa565b6000805460ff191660011790558015611b3b576000805461ff0019166101001790555b611b436138df565b60c955611b508686613976565b611b598761324d565b611b628461329f565b611b6b83612f0b565b611b748261375d565b8015611bba576000805461ff0019169055604051600181527f7f26b83ff96e1f2b6a682f133852f6798a09c465da95921460cefb38474024989060200160405180910390a15b50505050505050565b60665460069060409081161415611bec5760405162461bcd60e51b8152600401610baa90614c4a565b336001600160a01b03851614611c755760405162461bcd60e51b815260206004820152604260248201527f52657761726473436f6f7264696e61746f722e7365744f70657261746f72415660448201527f5353706c69743a2063616c6c6572206973206e6f7420746865206f706572617460648201526137b960f11b608482015260a401610baa565b61271061ffff83161115611cfd5760405162461bcd60e51b815260206004820152604360248201527f52657761726473436f6f7264696e61746f722e7365744f70657261746f72415660448201527f5353706c69743a2073706c6974206d757374206265203c3d203130303030206260648201526269707360e81b608482015260a401610baa565b60cb54600090611d1a90600160a01b900463ffffffff1642614f52565b6001600160a01b03868116600090815260d46020908152604080832093891683529281528282208351606081018552905461ffff80821683526201000082041692820192909252600160201b90910463ffffffff1692810192909252919250611d8290612ebd565b6001600160a01b03808816600090815260d460209081526040808320938a16835292905220909150611db59085846137c8565b6040805163ffffffff8416815261ffff838116602083015286168183015290516001600160a01b03878116929089169133917f48e198b6ae357e529204ee53a8e514c470ff77d9cc8e4f7207f8b5d490ae6934919081900360600190a4505050505050565b60408051608081018252600080825260208201819052918101829052606081019190915260ca8281548110611e5157611e51614b51565b600091825260209182902060408051608081018252600293909302909101805483526001015463ffffffff80821694840194909452600160201b810490931690820152600160401b90910460ff161515606082015292915050565b6001600160a01b03828116600090815260d46020908152604080832093851683529281528282208351606081018552905461ffff80821683526201000082041692820192909252600160201b90910463ffffffff169281019290925290611f1290612ebd565b9392505050565b60ca546000905b63ffffffff811615611f85578260ca611f3a60018461514d565b63ffffffff1681548110611f5057611f50614b51565b9060005260206000209060020201600001541415611f7357611f1260018261514d565b80611f7d81615172565b915050611f20565b5060405162461bcd60e51b815260206004820152603760248201527f52657761726473436f6f7264696e61746f722e676574526f6f74496e6465784660448201527f726f6d486173683a20726f6f74206e6f7420666f756e640000000000000000006064820152608401610baa565b611ffc612778565b6001600160a01b0381166120615760405162461bcd60e51b815260206004820152602660248201527f4f776e61626c653a206e6577206f776e657220697320746865207a65726f206160448201526564647265737360d01b6064820152608401610baa565b610bbc8161324d565b60007f000000000000000000000000000000000000000000000000000000000000000046141561209b575060c95490565b6120a36138df565b905090565b60006001610d0e60208401846146bf565b606654600390600890811614156120e25760405162461bcd60e51b8152600401610baa90614c4a565b60cb546001600160a01b0316331461210c5760405162461bcd60e51b8152600401610baa90614efe565b60ca5463ffffffff83161061217d5760405162461bcd60e51b815260206004820152603160248201527f52657761726473436f6f7264696e61746f722e64697361626c65526f6f743a206044820152700d2dcecc2d8d2c840e4dedee892dcc8caf607b1b6064820152608401610baa565b600060ca8363ffffffff168154811061219857612198614b51565b906000526020600020906002020190508060010160089054906101000a900460ff16156122255760405162461bcd60e51b815260206004820152603560248201527f52657761726473436f6f7264696e61746f722e64697361626c65526f6f743a206044820152741c9bdbdd08185b1c9958591e48191a5cd8589b1959605a1b6064820152608401610baa565b6001810154600160201b900463ffffffff1642106122a45760405162461bcd60e51b815260206004820152603660248201527f52657761726473436f6f7264696e61746f722e64697361626c65526f6f743a206044820152751c9bdbdd08185b1c9958591e481858dd1a5d985d195960521b6064820152608401610baa565b60018101805460ff60401b1916600160401b17905560405163ffffffff8416907fd850e6e5dfa497b72661fa73df2923464eaed9dc2ff1d3cb82bccbfeabe5c41e90600090a2505050565b606560009054906101000a90046001600160a01b03166001600160a01b031663eab66d7a6040518163ffffffff1660e01b8152600401602060405180830381865afa158015612342573d6000803e3d6000fd5b505050506040513d601f19601f820116820180604052508101906123669190614b7e565b6001600160a01b0316336001600160a01b0316146123965760405162461bcd60e51b8152600401610baa90614b9b565b6066541981196066541916146124145760405162461bcd60e51b815260206004820152603860248201527f5061757361626c652e756e70617573653a20696e76616c696420617474656d7060448201527f7420746f2070617573652066756e6374696f6e616c69747900000000000000006064820152608401610baa565b606681905560405181815233907f3582d1828e26bf56bd801502bc021ac0bc8afb57c826e4986b45593c8fad389c90602001610cf3565b606654600090600190811614156124745760405162461bcd60e51b8152600401610baa90614c4a565b600260975414156124975760405162461bcd60e51b8152600401610baa90614cf8565b600260975560005b82811015610f3357368484838181106124ba576124ba614b51565b90506020028101906124cc9190614d2f565b33600081815260ce602090815260408083205490519495509391926124f79290918591879101614e88565b604051602081830303815290604052805190602001209050612518836128c9565b33600090815260cf602090815260408083208484529091529020805460ff1916600190811790915561254b908390614eb8565b33600081815260ce602052604090819020929092559051829184917f450a367a380c4e339e5ae7340c8464ef27af7781ad9945cfe8abd828f89e628190612593908890614ed0565b60405180910390a46125b4333060408601803590610f0c90602089016146bf565b50505080806125c290614ee3565b91505061249f565b606654600490601090811614156125f35760405162461bcd60e51b8152600401610baa90614c4a565b33600090815260d1602052604090205460ff166126225760405162461bcd60e51b8152600401610baa90614c81565b600260975414156126455760405162461bcd60e51b8152600401610baa90614cf8565b600260975560005b82811015610f33573684848381811061266857612668614b51565b905060200281019061267a9190614d2f565b33600081815260ce602090815260408083205490519495509391926126a59290918591879101614e88565b6040516020818303038152906040528051906020012090506126c6836128c9565b33600090815260d2602090815260408083208484529091529020805460ff191660019081179091556126f9908390614eb8565b33600081815260ce602052604090819020929092559051829184917f5251b6fdefcb5d81144e735f69ea4c695fd43b0289ca53dc075033f5fc80068b90612741908890614ed0565b60405180910390a4612762333060408601803590610f0c90602089016146bf565b505050808061277090614ee3565b91505061264d565b6033546001600160a01b031633146114ee5760405162461bcd60e51b815260206004820181905260248201527f4f776e61626c653a2063616c6c6572206973206e6f7420746865206f776e65726044820152606401610baa565b6001600160a01b0381166128605760405162461bcd60e51b815260206004820152604960248201527f5061757361626c652e5f73657450617573657252656769737472793a206e657760448201527f50617573657252656769737472792063616e6e6f7420626520746865207a65726064820152686f206164647265737360b81b608482015260a401610baa565b606554604080516001600160a01b03928316815291831660208301527f6e9fcd539896fca60e8b0f01dd580233e48a6b0f7df013b89ba7f565869acdb6910160405180910390a1606580546001600160a01b0319166001600160a01b0392909216919091179055565b6128fb6128d68280615192565b6128e660808501606086016148ef565b6128f660a08601608087016148ef565b613a60565b600081604001351161297f5760405162461bcd60e51b815260206004820152604160248201527f52657761726473436f6f7264696e61746f722e5f76616c69646174655265776160448201527f7264735375626d697373696f6e3a20616d6f756e742063616e6e6f74206265206064820152600360fc1b608482015260a401610baa565b6f4b3b4ca85a86c47a098a223fffffffff81604001351115612a095760405162461bcd60e51b815260206004820152603f60248201527f52657761726473436f6f7264696e61746f722e5f76616c69646174655265776160448201527f7264735375626d697373696f6e3a20616d6f756e7420746f6f206c61726765006064820152608401610baa565b612a3963ffffffff7f00000000000000000000000000000000000000000000000000000000000000001642614eb8565b612a4960808301606084016148ef565b63ffffffff161115610bbc5760405162461bcd60e51b815260206004820152605360248201527f52657761726473436f6f7264696e61746f722e5f76616c69646174655265776160448201527f7264735375626d697373696f6e3a20737461727454696d657374616d7020746f6064820152726f2066617220696e207468652066757475726560681b608482015260a401610baa565b6040516001600160a01b0380851660248301528316604482015260648101829052612b4a9085906323b872dd60e01b906084015b60408051601f198184030181529190526020810180516001600160e01b03166001600160e01b03199093169290921790915261404f565b50505050565b600060ca612b6160208501856148ef565b63ffffffff1681548110612b7757612b77614b51565b600091825260209182902060408051608081018252600293909302909101805483526001015463ffffffff80821694840194909452600160201b810490931690820152600160401b90910460ff16151560608201529050612bd88382612f7c565b6000612bea60808501606086016146bf565b6001600160a01b03808216600090815260cc60205260409020549192501680612c105750805b336001600160a01b03821614612c8e5760405162461bcd60e51b815260206004820152603c60248201527f52657761726473436f6f7264696e61746f722e70726f63657373436c61696d3a60448201527f2063616c6c6572206973206e6f742076616c696420636c61696d6572000000006064820152608401610baa565b60005b612c9e60a08701876151dc565b9050811015612eb55736612cb560e0880188615192565b83818110612cc557612cc5614b51565b6001600160a01b038716600090815260cd602090815260408083209302949094019450929091508290612cfa908501856146bf565b6001600160a01b03166001600160a01b0316815260200190815260200160002054905080826020013511612db45760405162461bcd60e51b815260206004820152605560248201527f52657761726473436f6f7264696e61746f722e70726f63657373436c61696d3a60448201527f2063756d756c61746976654561726e696e6773206d75737420626520677420746064820152741a185b8818dd5b5d5b185d1a5d9950db185a5b5959605a1b608482015260a401610baa565b6000612dc4826020850135614b3a565b6001600160a01b038716600090815260cd60209081526040822092935085018035929190612df290876146bf565b6001600160a01b0316815260208082019290925260400160002091909155612e349089908390612e24908701876146bf565b6001600160a01b03169190614121565b86516001600160a01b03808a1691878216918916907f9543dbd55580842586a951f0386e24d68a5df99ae29e3b216588b45fd684ce3190612e7860208901896146bf565b604080519283526001600160a01b039091166020830152810186905260600160405180910390a45050508080612ead90614ee3565b915050612c91565b505050505050565b6000816040015163ffffffff1660001415612ee557505060cb54600160e01b900461ffff1690565b816040015163ffffffff16421015612efe578151611371565b506020015190565b919050565b60cb546040805163ffffffff600160a01b9093048316815291831660208301527faf557c6c02c208794817a705609cfa935f827312a1adfdd26494b6b95dd2b4b3910160405180910390a160cb805463ffffffff909216600160a01b0263ffffffff60a01b19909216919091179055565b806060015115612fd55760405162461bcd60e51b8152602060048201526030602482015260008051602061534083398151915260448201526f1c9bdbdd081a5cc8191a5cd8589b195960821b6064820152608401610baa565b806040015163ffffffff1642101561303c5760405162461bcd60e51b815260206004820152603660248201526000805160206153408339815191526044820152751c9bdbdd081b9bdd081858dd1a5d985d1959081e595d60521b6064820152608401610baa565b61304960c08301836151dc565b905061305860a08401846151dc565b9050146130d05760405162461bcd60e51b815260206004820152604c602482015260008051602061534083398151915260448201527f746f6b656e496e646963657320616e6420746f6b656e50726f6f6673206c656e60648201526b0cee8d040dad2e6dac2e8c6d60a31b608482015260a401610baa565b6130dd60e0830183615192565b90506130ec60c08401846151dc565b9050146131625760405162461bcd60e51b815260206004820152604a602482015260008051602061534083398151915260448201527f746f6b656e5472656550726f6f667320616e64206c6561766573206c656e67746064820152690d040dad2e6dac2e8c6d60b31b608482015260a401610baa565b805161318e9061317860408501602086016148ef565b6131856040860186615226565b86606001614151565b60005b61319e60a08401846151dc565b90508110156132485761323860808401356131bc60a08601866151dc565b848181106131cc576131cc614b51565b90506020020160208101906131e191906148ef565b6131ee60c08701876151dc565b858181106131fe576131fe614b51565b90506020028101906132109190615226565b61321d60e0890189615192565b8781811061322d5761322d614b51565b9050604002016142bd565b61324181614ee3565b9050613191565b505050565b603380546001600160a01b038381166001600160a01b0319831681179093556040519116919082907f8be0079c531659141344cd1fd0a4f28419497f9722a3daafe3b4186f6b6457e090600090a35050565b60cb546040516001600160a01b038084169216907f237b82f438d75fc568ebab484b75b01d9287b9e98b490b7c23221623b6705dbb90600090a360cb80546001600160a01b0319166001600160a01b0392909216919091179055565b600061332a61330a8380615192565b61331a60808601606087016148ef565b6128f660a08701608088016148ef565b60006133396040840184615192565b9050116133b95760405162461bcd60e51b8152602060048201526054602482015260008051602061538083398151915260448201527f61746f724469726563746564526577617264735375626d697373696f6e3a206e6064820152731bc81bdc195c985d1bdc9cc81c995dd85c99195960621b608482015260a401610baa565b60008060005b6133cc6040860186615192565b90508110156135fe57366133e36040870187615192565b838181106133f3576133f3614b51565b6040029190910191506000905061340d60208301836146bf565b6001600160a01b0316141561348c5760405162461bcd60e51b815260206004820152605b6024820152600080516020615380833981519152604482015260008051602061536083398151915260648201527f70657261746f722063616e6e6f74206265203020616464726573730000000000608482015260a401610baa565b61349960208201826146bf565b6001600160a01b0316836001600160a01b0316106135475760405162461bcd60e51b81526020600482015260786024820152600080516020615380833981519152604482015260008051602061536083398151915260648201527f70657261746f7273206d75737420626520696e20617363656e64696e67206f7260848201527f64657220746f2068616e646c65206475706c696361746573000000000000000060a482015260c401610baa565b61355460208201826146bf565b925060008160200135116135dc5760405162461bcd60e51b81526020600482015260616024820152600080516020615380833981519152604482015260008051602061536083398151915260648201527f70657261746f722072657761726420616d6f756e742063616e6e6f74206265206084820152600360fc1b60a482015260c401610baa565b6135ea602082013585614eb8565b935050806135f790614ee3565b90506133bf565b506f4b3b4ca85a86c47a098a223fffffffff8211156136915760405162461bcd60e51b8152602060048201526055602482015260008051602061538083398151915260448201527f61746f724469726563746564526577617264735375626d697373696f6e3a20746064820152746f74616c20616d6f756e7420746f6f206c6172676560581b608482015260a401610baa565b426136a260a08601608087016148ef565b6136b260808701606088016148ef565b6136bc9190614f52565b63ffffffff16106137565760405162461bcd60e51b81526020600482015260766024820152600080516020615380833981519152604482015260008051602061536083398151915260648201527f70657261746f722d64697265637465642072657761726473207375626d697373608482015275696f6e206973206e6f7420726574726f61637469766560501b60a482015260c401610baa565b5092915050565b60cb546040805161ffff600160e01b9093048316815291831660208301527fe6cd4edfdcc1f6d130ab35f73d72378f3a642944fb4ee5bd84b7807a81ea1c4e910160405180910390a160cb805461ffff909216600160e01b0261ffff60e01b19909216919091179055565b8254600160201b900463ffffffff1642116138595760405162461bcd60e51b815260206004820152604560248201527f52657761726473436f6f7264696e61746f722e5f7365744f70657261746f725360448201527f706c69743a206561726c6965722073706c6974206e6f7420616374697661746560648201526419081e595d60da1b608482015260a401610baa565b8254600160201b900463ffffffff1661388c5760cb548354600160e01b90910461ffff1661ffff199091161783556138a3565b825462010000810461ffff1661ffff199091161783555b825463ffffffff909116600160201b0267ffffffff000000001961ffff90931662010000029290921667ffffffffffff00001990911617179055565b604080518082018252600a81526922b4b3b2b72630bcb2b960b11b60209182015281517f8cad95687ba82c2ce50e74f7b754645e5117c3a5bec8151c0726d5857980a866818301527f71b625cfad44bac63b13dba07f2e1d6084ee04b6f8752101ece6126d584ee6ea81840152466060820152306080808301919091528351808303909101815260a0909101909252815191012090565b6065546001600160a01b031615801561399757506001600160a01b03821615155b613a195760405162461bcd60e51b815260206004820152604760248201527f5061757361626c652e5f696e697469616c697a655061757365723a205f696e6960448201527f7469616c697a6550617573657228292063616e206f6e6c792062652063616c6c6064820152666564206f6e636560c81b608482015260a401610baa565b606681905560405181815233907fab40a374bc51de372200a8bc981af8c9ecdc08dfdaef0bb6e09f88f3c616ef3d9060200160405180910390a2613a5c826127d2565b5050565b82613ad05760405162461bcd60e51b815260206004820152604660248201526000805160206153a083398151915260448201527f6f6e526577617264735375626d697373696f6e3a206e6f207374726174656769606482015265195cc81cd95d60d21b608482015260a401610baa565b7f000000000000000000000000000000000000000000000000000000000000000063ffffffff168163ffffffff161115613b865760405162461bcd60e51b815260206004820152605a60248201526000805160206153a083398151915260448201527f6f6e526577617264735375626d697373696f6e3a206475726174696f6e20657860648201527f6365656473204d41585f524557415244535f4455524154494f4e000000000000608482015260a401610baa565b613bb07f000000000000000000000000000000000000000000000000000000000000000082615283565b63ffffffff1615613c565760405162461bcd60e51b815260206004820152607060248201526000805160206153a083398151915260448201527f6f6e526577617264735375626d697373696f6e3a206475726174696f6e206d7560648201527f73742062652061206d756c7469706c65206f662043414c43554c4154494f4e5f60848201526f494e54455256414c5f5345434f4e445360801b60a482015260c401610baa565b613c807f000000000000000000000000000000000000000000000000000000000000000083615283565b63ffffffff1615613d2c5760405162461bcd60e51b815260206004820152607660248201526000805160206153a083398151915260448201527f6f6e526577617264735375626d697373696f6e3a20737461727454696d65737460648201527f616d70206d7573742062652061206d756c7469706c65206f662043414c43554c6084820152754154494f4e5f494e54455256414c5f5345434f4e445360501b60a482015260c401610baa565b8163ffffffff167f000000000000000000000000000000000000000000000000000000000000000063ffffffff1642613d659190614b3a565b11158015613d9f57508163ffffffff167f000000000000000000000000000000000000000000000000000000000000000063ffffffff1611155b613e255760405162461bcd60e51b815260206004820152605760248201526000805160206153a083398151915260448201527f6f6e526577617264735375626d697373696f6e3a20737461727454696d65737460648201527f616d7020746f6f2066617220696e207468652070617374000000000000000000608482015260a401610baa565b6000805b84811015612eb5576000868683818110613e4557613e45614b51565b613e5b92602060409092020190810191506146bf565b60405163198f077960e21b81526001600160a01b0380831660048301529192507f00000000000000000000000000000000000000000000000000000000000000009091169063663c1de490602401602060405180830381865afa158015613ec6573d6000803e3d6000fd5b505050506040513d601f19601f82011682018060405250810190613eea9190614be5565b80613f1157506001600160a01b03811673beac0eeeeeeeeeeeeeeeeeeeeeeeeeeeeeebeac0145b613f8a5760405162461bcd60e51b815260206004820152605060248201526000805160206153a083398151915260448201527f6f6e526577617264735375626d697373696f6e3a20696e76616c69642073747260648201526f185d1959de4818dbdb9cda59195c995960821b608482015260a401610baa565b806001600160a01b0316836001600160a01b03161061403d5760405162461bcd60e51b815260206004820152606f60248201526000805160206153a083398151915260448201527f6f6e526577617264735375626d697373696f6e3a20737472617465676965732060648201527f6d75737420626520696e20617363656e64696e67206f7264657220746f20686160848201526e6e646c65206475706c69636174657360881b60a482015260c401610baa565b915061404881614ee3565b9050613e29565b60006140a4826040518060400160405280602081526020017f5361666545524332303a206c6f772d6c6576656c2063616c6c206661696c6564815250856001600160a01b031661440e9092919063ffffffff16565b80519091501561324857808060200190518101906140c29190614be5565b6132485760405162461bcd60e51b815260206004820152602a60248201527f5361666545524332303a204552433230206f7065726174696f6e20646964206e6044820152691bdd081cdd58d8d9595960b21b6064820152608401610baa565b6040516001600160a01b03831660248201526044810182905261324890849063a9059cbb60e01b90606401612b13565b61415c6020836152a6565b6001901b8463ffffffff16106141e65760405162461bcd60e51b815260206004820152604360248201527f52657761726473436f6f7264696e61746f722e5f7665726966794561726e657260448201527f436c61696d50726f6f663a20696e76616c6964206561726e65724c656166496e6064820152620c8caf60eb1b608482015260a401610baa565b60006141f182610cfe565b905061423c84848080601f0160208091040260200160405190810160405280939291908181526020018383808284376000920191909152508a92508591505063ffffffff8916614425565b612eb55760405162461bcd60e51b815260206004820152604660248201527f52657761726473436f6f7264696e61746f722e5f7665726966794561726e657260448201527f436c61696d50726f6f663a20696e76616c6964206561726e657220636c61696d60648201526510383937b7b360d11b608482015260a401610baa565b6142c86020836152a6565b6001901b8463ffffffff16106143465760405162461bcd60e51b815260206004820152603c60248201527f52657761726473436f6f7264696e61746f722e5f766572696679546f6b656e4360448201527f6c61696d3a20696e76616c696420746f6b656e4c656166496e646578000000006064820152608401610baa565b6000614351826120a8565b905061439c84848080601f0160208091040260200160405190810160405280939291908181526020018383808284376000920191909152508a92508591505063ffffffff8916614425565b612eb55760405162461bcd60e51b815260206004820152603f60248201527f52657761726473436f6f7264696e61746f722e5f766572696679546f6b656e4360448201527f6c61696d3a20696e76616c696420746f6b656e20636c61696d2070726f6f66006064820152608401610baa565b606061441d848460008561443d565b949350505050565b60008361443386858561456e565b1495945050505050565b60608247101561449e5760405162461bcd60e51b815260206004820152602660248201527f416464726573733a20696e73756666696369656e742062616c616e636520666f6044820152651c8818d85b1b60d21b6064820152608401610baa565b6001600160a01b0385163b6144f55760405162461bcd60e51b815260206004820152601d60248201527f416464726573733a2063616c6c20746f206e6f6e2d636f6e74726163740000006044820152606401610baa565b600080866001600160a01b0316858760405161451191906152e6565b60006040518083038185875af1925050503d806000811461454e576040519150601f19603f3d011682016040523d82523d6000602084013e614553565b606091505b5091509150614563828286614671565b979650505050505050565b60006020845161457e91906152f8565b156146055760405162461bcd60e51b815260206004820152604b60248201527f4d65726b6c652e70726f63657373496e636c7573696f6e50726f6f664b65636360448201527f616b3a2070726f6f66206c656e6774682073686f756c642062652061206d756c60648201526a3a34b836329037b310199960a91b608482015260a401610baa565b8260205b855181116146685761461c6002856152f8565b61463d57816000528086015160205260406000209150600284049350614656565b8086015160005281602052604060002091506002840493505b614661602082614eb8565b9050614609565b50949350505050565b60608315614680575081611f12565b8251156146905782518084602001fd5b8160405162461bcd60e51b8152600401610baa919061530c565b6001600160a01b0381168114610bbc57600080fd5b6000602082840312156146d157600080fd5b8135611f12816146aa565b8015158114610bbc57600080fd5b600080604083850312156146fd57600080fd5b8235614708816146aa565b91506020830135614718816146dc565b809150509250929050565b60006020828403121561473557600080fd5b5035919050565b60006040828403121561474e57600080fd5b50919050565b60006040828403121561476657600080fd5b611f12838361473c565b60008083601f84011261478257600080fd5b50813567ffffffffffffffff81111561479a57600080fd5b6020830191508360208260051b85010111156147b557600080fd5b9250929050565b600080602083850312156147cf57600080fd5b823567ffffffffffffffff8111156147e657600080fd5b6147f285828601614770565b90969095509350505050565b6000610100828403121561474e57600080fd5b6000806040838503121561482457600080fd5b823567ffffffffffffffff81111561483b57600080fd5b614847858286016147fe565b9250506020830135614718816146aa565b803563ffffffff81168114612f0657600080fd5b6000806040838503121561487f57600080fd5b8235915061488f60208401614858565b90509250929050565b6000806000604084860312156148ad57600080fd5b833567ffffffffffffffff8111156148c457600080fd5b6148d086828701614770565b90945092505060208401356148e4816146aa565b809150509250925092565b60006020828403121561490157600080fd5b611f1282614858565b60006020828403121561491c57600080fd5b813560ff81168114611f1257600080fd5b60006020828403121561493f57600080fd5b813567ffffffffffffffff81111561495657600080fd5b61441d848285016147fe565b6000806040838503121561497557600080fd5b8235614980816146aa565b946020939093013593505050565b600080604083850312156149a157600080fd5b82356149ac816146aa565b91506020830135614718816146aa565b6000806000604084860312156149d157600080fd5b83356149dc816146aa565b9250602084013567ffffffffffffffff8111156149f857600080fd5b614a0486828701614770565b9497909650939450505050565b803561ffff81168114612f0657600080fd5b600060208284031215614a3557600080fd5b611f1282614a11565b60008060408385031215614a5157600080fd5b8235614a5c816146aa565b915061488f60208401614a11565b60008060008060008060c08789031215614a8357600080fd5b8635614a8e816146aa565b95506020870135614a9e816146aa565b9450604087013593506060870135614ab5816146aa565b9250614ac360808801614858565b9150614ad160a08801614a11565b90509295509295509295565b600080600060608486031215614af257600080fd5b8335614afd816146aa565b92506020840135614b0d816146aa565b9150614b1b60408501614a11565b90509250925092565b634e487b7160e01b600052601160045260246000fd5b600082821015614b4c57614b4c614b24565b500390565b634e487b7160e01b600052603260045260246000fd5b600081614b7657614b76614b24565b506000190190565b600060208284031215614b9057600080fd5b8151611f12816146aa565b6020808252602a908201527f6d73672e73656e646572206973206e6f74207065726d697373696f6e6564206160408201526939903ab73830bab9b2b960b11b606082015260800190565b600060208284031215614bf757600080fd5b8151611f12816146dc565b60208082526028908201527f6d73672e73656e646572206973206e6f74207065726d697373696f6e6564206160408201526739903830bab9b2b960c11b606082015260800190565b60208082526019908201527f5061757361626c653a20696e6465782069732070617573656400000000000000604082015260600190565b60208082526051908201527f52657761726473436f6f7264696e61746f723a2063616c6c6572206973206e6f60408201527f7420612076616c69642063726561746552657761726473466f72416c6c53756260608201527036b4b9b9b4b7b71039bab136b4ba3a32b960791b608082015260a00190565b6020808252601f908201527f5265656e7472616e637947756172643a207265656e7472616e742063616c6c00604082015260600190565b60008235609e19833603018112614d4557600080fd5b9190910192915050565b6000808335601e19843603018112614d6657600080fd5b830160208101925035905067ffffffffffffffff811115614d8657600080fd5b8060061b36038313156147b557600080fd5b818352600060208085019450826000805b86811015614dfd578235614dbc816146aa565b6001600160a01b03168852828401356bffffffffffffffffffffffff8116808214614de5578384fd5b89860152506040978801979290920191600101614da9565b50959695505050505050565b6000614e158283614d4f565b60a08552614e2760a086018284614d98565b9150506020830135614e38816146aa565b6001600160a01b0316602085015260408381013590850152614e5c60608401614858565b63ffffffff808216606087015280614e7660808701614858565b16608087015250508091505092915050565b60018060a01b0384168152826020820152606060408201526000614eaf6060830184614e09565b95945050505050565b60008219821115614ecb57614ecb614b24565b500190565b602081526000611f126020830184614e09565b6000600019821415614ef757614ef7614b24565b5060010190565b60208082526034908201527f52657761726473436f6f7264696e61746f723a2063616c6c6572206973206e6f6040820152733a103a3432903932bbb0b93239aab83230ba32b960611b606082015260800190565b600063ffffffff808316818516808303821115614f7157614f71614b24565b01949350505050565b6000823560fe19833603018112614d4557600080fd5b6000823560be19833603018112614d4557600080fd5b6000808335601e19843603018112614fbd57600080fd5b830160208101925035905067ffffffffffffffff811115614fdd57600080fd5b8036038313156147b557600080fd5b81835281816020850137506000828201602090810191909152601f909101601f19169091010190565b60006150218283614d4f565b60c0855261503360c086018284614d98565b915050602080840135615045816146aa565b6001600160a01b039081168683015260409061506386830187614d4f565b888603848a015280865290946000919085015b818310156150a7578635615089816146aa565b84168152868601358682015295840195600192909201918401615076565b6150b360608a01614858565b63ffffffff811660608c015296506150cd60808a01614858565b63ffffffff811660808c015296506150e860a08a018a614fa6565b9750955089810360a08b01526150ff818888614fec565b9a9950505050505050505050565b60018060a01b0384168152826020820152606060408201526000614eaf6060830184615015565b82815260406020820152600061441d6040830184615015565b600063ffffffff8381169083168181101561516a5761516a614b24565b039392505050565b600063ffffffff82168061518857615188614b24565b6000190192915050565b6000808335601e198436030181126151a957600080fd5b83018035915067ffffffffffffffff8211156151c457600080fd5b6020019150600681901b36038213156147b557600080fd5b6000808335601e198436030181126151f357600080fd5b83018035915067ffffffffffffffff82111561520e57600080fd5b6020019150600581901b36038213156147b557600080fd5b6000808335601e1984360301811261523d57600080fd5b83018035915067ffffffffffffffff82111561525857600080fd5b6020019150368190038213156147b557600080fd5b634e487b7160e01b600052601260045260246000fd5b600063ffffffff8084168061529a5761529a61526d565b92169190910692915050565b6000826152b5576152b561526d565b500490565b60005b838110156152d55781810151838201526020016152bd565b83811115612b4a5750506000910152565b60008251614d458184602087016152ba565b6000826153075761530761526d565b500690565b602081526000825180602084015261532b8160408501602087016152ba565b601f01601f1916919091016040019291505056fe52657761726473436f6f7264696e61746f722e5f636865636b436c61696d3a2061746f724469726563746564526577617264735375626d697373696f6e3a206f52657761726473436f6f7264696e61746f722e5f76616c69646174654f70657252657761726473436f6f7264696e61746f722e5f76616c6964617465436f6d6da264697066735822122027a0f2f61e28e3b2cab62f242f7682c9e7e25bdfc987eb630e7787844ff64b6f64736f6c634300080c0033",
    "linkReferences": {}
  },
  "methodIdentifiers": {
    "CALCULATION_INTERVAL_SECONDS()": "9d45c281",
    "GENESIS_REWARDS_TIMESTAMP()": "131433b4",
    "MAX_FUTURE_LENGTH()": "04a0c502",
    "MAX_RETROACTIVE_LENGTH()": "37838ed0",
    "MAX_REWARDS_DURATION()": "bf21a8aa",
    "activationDelay()": "3a8c0786",
    "beaconChainETHStrategy()": "9104c319",
    "calculateEarnerLeafHash((address,bytes32))": "149bc872",
    "calculateTokenLeafHash((address,uint256))": "f8cd8448",
    "checkClaim((uint32,uint32,bytes,(address,bytes32),uint32[],bytes[],(address,uint256)[]))": "5e9d8348",
    "claimerFor(address)": "2b9f64a4",
    "createAVSRewardsSubmission(((address,uint96)[],address,uint256,uint32,uint32)[])": "fce36c7d",
    "createOperatorDirectedAVSRewardsSubmission(address,((address,uint96)[],address,(address,uint256)[],uint32,uint32,string)[])": "9cb9a5fa",
    "createRewardsForAllEarners(((address,uint96)[],address,uint256,uint32,uint32)[])": "ff9f6cce",
    "createRewardsForAllSubmission(((address,uint96)[],address,uint256,uint32,uint32)[])": "36af41fa",
    "cumulativeClaimed(address,address)": "865c6953",
    "currRewardsCalculationEndTimestamp()": "4d18cc35",
    "defaultOperatorSplitBips()": "63f6a798",
    "delegationManager()": "ea4d3c9b",
    "disableRoot(uint32)": "f96abf2e",
    "domainSeparator()": "f698da25",
    "getCurrentClaimableDistributionRoot()": "0e9a53cf",
    "getCurrentDistributionRoot()": "9be3d4e4",
    "getDistributionRootAtIndex(uint256)": "de02e503",
    "getDistributionRootsLength()": "7b8f8b05",
    "getOperatorAVSSplit(address,address)": "e063f81f",
    "getOperatorPISplit(address)": "4b943960",
    "getRootIndexFromHash(bytes32)": "e810ce21",
    "initialize(address,address,uint256,address,uint32,uint16)": "d4540a55",
    "isAVSRewardsSubmissionHash(address,bytes32)": "6d21117e",
    "isOperatorDirectedAVSRewardsSubmissionHash(address,bytes32)": "ed71e6a2",
    "isRewardsForAllSubmitter(address)": "0018572c",
    "isRewardsSubmissionForAllEarnersHash(address,bytes32)": "aebd8bae",
    "isRewardsSubmissionForAllHash(address,bytes32)": "c46db606",
    "owner()": "8da5cb5b",
    "pause(uint256)": "136439dd",
    "pauseAll()": "595c6a67",
    "paused()": "5c975abb",
    "paused(uint8)": "5ac86ab7",
    "pauserRegistry()": "886f1195",
    "processClaim((uint32,uint32,bytes,(address,bytes32),uint32[],bytes[],(address,uint256)[]),address)": "3ccc861d",
    "processClaims((uint32,uint32,bytes,(address,bytes32),uint32[],bytes[],(address,uint256)[])[],address)": "4596021c",
    "renounceOwnership()": "715018a6",
    "rewardsUpdater()": "fbf1e2c1",
    "setActivationDelay(uint32)": "58baaa3e",
    "setClaimerFor(address)": "a0169ddd",
    "setDefaultOperatorSplit(uint16)": "a50a1d9c",
    "setOperatorAVSSplit(address,address,uint16)": "dcbb03b3",
    "setOperatorPISplit(address,uint16)": "b3dbb0e0",
    "setPauserRegistry(address)": "10d67a2f",
    "setRewardsForAllSubmitter(address,bool)": "0eb38345",
    "setRewardsUpdater(address)": "863cb9a9",
    "strategyManager()": "39b70e38",
    "submissionNonce(address)": "bb7e451f",
    "submitRoot(bytes32,uint32)": "3efe1db6",
    "transferOwnership(address)": "f2fde38b",
    "unpause(uint256)": "fabc1cbc"
  },
  "id": 121
}