{
  "abi": [
    {
      "type": "constructor",
      "inputs": [
        {
          "name": "_ethPOS",
          "type": "address",
          "internalType": "contract IETHPOSDeposit"
        },
        {
          "name": "_eigenPodBeacon",
          "type": "address",
          "internalType": "contract IBeacon"
        },
        {
          "name": "_delegationManager",
          "type": "address",
          "internalType": "contract IDelegationManager"
        },
        {
          "name": "_pauserRegistry",
          "type": "address",
          "internalType": "contract IPauserRegistry"
        }
      ],
      "stateMutability": "nonpayable"
    },
    {
      "type": "function",
      "name": "addShares",
      "inputs": [
        {
          "name": "staker",
          "type": "address",
          "internalType": "address"
        },
        {
          "name": "strategy",
          "type": "address",
          "internalType": "contract IStrategy"
        },
        {
          "name": "",
          "type": "address",
          "internalType": "contract IERC20"
        },
        {
          "name": "shares",
          "type": "uint256",
          "internalType": "uint256"
        }
      ],
      "outputs": [
        {
          "name": "",
          "type": "uint256",
          "internalType": "uint256"
        },
        {
          "name": "",
          "type": "uint256",
          "internalType": "uint256"
        }
      ],
      "stateMutability": "nonpayable"
    },
    {
      "type": "function",
      "name": "beaconChainETHStrategy",
      "inputs": [],
      "outputs": [
        {
          "name": "",
          "type": "address",
          "internalType": "contract IStrategy"
        }
      ],
      "stateMutability": "view"
    },
    {
      "type": "function",
      "name": "beaconChainSlashingFactor",
      "inputs": [
        {
          "name": "podOwner",
          "type": "address",
          "internalType": "address"
        }
      ],
      "outputs": [
        {
          "name": "",
          "type": "uint64",
          "internalType": "uint64"
        }
      ],
      "stateMutability": "view"
    },
    {
      "type": "function",
      "name": "createPod",
      "inputs": [],
      "outputs": [
        {
          "name": "",
          "type": "address",
          "internalType": "address"
        }
      ],
      "stateMutability": "nonpayable"
    },
    {
      "type": "function",
      "name": "delegationManager",
      "inputs": [],
      "outputs": [
        {
          "name": "",
          "type": "address",
          "internalType": "contract IDelegationManager"
        }
      ],
      "stateMutability": "view"
    },
    {
      "type": "function",
      "name": "eigenPodBeacon",
      "inputs": [],
      "outputs": [
        {
          "name": "",
          "type": "address",
          "internalType": "contract IBeacon"
        }
      ],
      "stateMutability": "view"
    },
    {
      "type": "function",
      "name": "ethPOS",
      "inputs": [],
      "outputs": [
        {
          "name": "",
          "type": "address",
          "internalType": "contract IETHPOSDeposit"
        }
      ],
      "stateMutability": "view"
    },
    {
      "type": "function",
      "name": "getPod",
      "inputs": [
        {
          "name": "podOwner",
          "type": "address",
          "internalType": "address"
        }
      ],
      "outputs": [
        {
          "name": "",
          "type": "address",
          "internalType": "contract IEigenPod"
        }
      ],
      "stateMutability": "view"
    },
    {
      "type": "function",
      "name": "hasPod",
      "inputs": [
        {
          "name": "podOwner",
          "type": "address",
          "internalType": "address"
        }
      ],
      "outputs": [
        {
          "name": "",
          "type": "bool",
          "internalType": "bool"
        }
      ],
      "stateMutability": "view"
    },
    {
      "type": "function",
      "name": "initialize",
      "inputs": [
        {
          "name": "initialOwner",
          "type": "address",
          "internalType": "address"
        },
        {
          "name": "_initPausedStatus",
          "type": "uint256",
          "internalType": "uint256"
        }
      ],
      "outputs": [],
      "stateMutability": "nonpayable"
    },
    {
      "type": "function",
      "name": "numPods",
      "inputs": [],
      "outputs": [
        {
          "name": "",
          "type": "uint256",
          "internalType": "uint256"
        }
      ],
      "stateMutability": "view"
    },
    {
      "type": "function",
      "name": "owner",
      "inputs": [],
      "outputs": [
        {
          "name": "",
          "type": "address",
          "internalType": "address"
        }
      ],
      "stateMutability": "view"
    },
    {
      "type": "function",
      "name": "ownerToPod",
      "inputs": [
        {
          "name": "podOwner",
          "type": "address",
          "internalType": "address"
        }
      ],
      "outputs": [
        {
          "name": "",
          "type": "address",
          "internalType": "contract IEigenPod"
        }
      ],
      "stateMutability": "view"
    },
    {
      "type": "function",
      "name": "pause",
      "inputs": [
        {
          "name": "newPausedStatus",
          "type": "uint256",
          "internalType": "uint256"
        }
      ],
      "outputs": [],
      "stateMutability": "nonpayable"
    },
    {
      "type": "function",
      "name": "pauseAll",
      "inputs": [],
      "outputs": [],
      "stateMutability": "nonpayable"
    },
    {
      "type": "function",
      "name": "paused",
      "inputs": [
        {
          "name": "index",
          "type": "uint8",
          "internalType": "uint8"
        }
      ],
      "outputs": [
        {
          "name": "",
          "type": "bool",
          "internalType": "bool"
        }
      ],
      "stateMutability": "view"
    },
    {
      "type": "function",
      "name": "paused",
      "inputs": [],
      "outputs": [
        {
          "name": "",
          "type": "uint256",
          "internalType": "uint256"
        }
      ],
      "stateMutability": "view"
    },
    {
      "type": "function",
      "name": "pauserRegistry",
      "inputs": [],
      "outputs": [
        {
          "name": "",
          "type": "address",
          "internalType": "contract IPauserRegistry"
        }
      ],
      "stateMutability": "view"
    },
    {
      "type": "function",
      "name": "podOwnerDepositShares",
      "inputs": [
        {
          "name": "podOwner",
          "type": "address",
          "internalType": "address"
        }
      ],
      "outputs": [
        {
          "name": "shares",
          "type": "int256",
          "internalType": "int256"
        }
      ],
      "stateMutability": "view"
    },
    {
      "type": "function",
      "name": "recordBeaconChainETHBalanceUpdate",
      "inputs": [
        {
          "name": "podOwner",
          "type": "address",
          "internalType": "address"
        },
        {
          "name": "prevRestakedBalanceWei",
          "type": "uint256",
          "internalType": "uint256"
        },
        {
          "name": "balanceDeltaWei",
          "type": "int256",
          "internalType": "int256"
        }
      ],
      "outputs": [],
      "stateMutability": "nonpayable"
    },
    {
      "type": "function",
      "name": "removeDepositShares",
      "inputs": [
        {
          "name": "staker",
          "type": "address",
          "internalType": "address"
        },
        {
          "name": "strategy",
          "type": "address",
          "internalType": "contract IStrategy"
        },
        {
          "name": "depositSharesToRemove",
          "type": "uint256",
          "internalType": "uint256"
        }
      ],
      "outputs": [],
      "stateMutability": "nonpayable"
    },
    {
      "type": "function",
      "name": "renounceOwnership",
      "inputs": [],
      "outputs": [],
      "stateMutability": "nonpayable"
    },
    {
      "type": "function",
      "name": "stake",
      "inputs": [
        {
          "name": "pubkey",
          "type": "bytes",
          "internalType": "bytes"
        },
        {
          "name": "signature",
          "type": "bytes",
          "internalType": "bytes"
        },
        {
          "name": "depositDataRoot",
          "type": "bytes32",
          "internalType": "bytes32"
        }
      ],
      "outputs": [],
      "stateMutability": "payable"
    },
    {
      "type": "function",
      "name": "stakerDepositShares",
      "inputs": [
        {
          "name": "user",
          "type": "address",
          "internalType": "address"
        },
        {
          "name": "strategy",
          "type": "address",
          "internalType": "contract IStrategy"
        }
      ],
      "outputs": [
        {
          "name": "depositShares",
          "type": "uint256",
          "internalType": "uint256"
        }
      ],
      "stateMutability": "view"
    },
    {
      "type": "function",
      "name": "transferOwnership",
      "inputs": [
        {
          "name": "newOwner",
          "type": "address",
          "internalType": "address"
        }
      ],
      "outputs": [],
      "stateMutability": "nonpayable"
    },
    {
      "type": "function",
      "name": "unpause",
      "inputs": [
        {
          "name": "newPausedStatus",
          "type": "uint256",
          "internalType": "uint256"
        }
      ],
      "outputs": [],
      "stateMutability": "nonpayable"
    },
    {
      "type": "function",
      "name": "withdrawSharesAsTokens",
      "inputs": [
        {
          "name": "staker",
          "type": "address",
          "internalType": "address"
        },
        {
          "name": "strategy",
          "type": "address",
          "internalType": "contract IStrategy"
        },
        {
          "name": "",
          "type": "address",
          "internalType": "contract IERC20"
        },
        {
          "name": "shares",
          "type": "uint256",
          "internalType": "uint256"
        }
      ],
      "outputs": [],
      "stateMutability": "nonpayable"
    },
    {
      "type": "event",
      "name": "BeaconChainETHDeposited",
      "inputs": [
        {
          "name": "podOwner",
          "type": "address",
          "indexed": true,
          "internalType": "address"
        },
        {
          "name": "amount",
          "type": "uint256",
          "indexed": false,
          "internalType": "uint256"
        }
      ],
      "anonymous": false
    },
    {
      "type": "event",
      "name": "BeaconChainETHWithdrawalCompleted",
      "inputs": [
        {
          "name": "podOwner",
          "type": "address",
          "indexed": true,
          "internalType": "address"
        },
        {
          "name": "shares",
          "type": "uint256",
          "indexed": false,
          "internalType": "uint256"
        },
        {
          "name": "nonce",
          "type": "uint96",
          "indexed": false,
          "internalType": "uint96"
        },
        {
          "name": "delegatedAddress",
          "type": "address",
          "indexed": false,
          "internalType": "address"
        },
        {
          "name": "withdrawer",
          "type": "address",
          "indexed": false,
          "internalType": "address"
        },
        {
          "name": "withdrawalRoot",
          "type": "bytes32",
          "indexed": false,
          "internalType": "bytes32"
        }
      ],
      "anonymous": false
    },
    {
      "type": "event",
      "name": "BeaconChainSlashingFactorDecreased",
      "inputs": [
        {
          "name": "staker",
          "type": "address",
          "indexed": false,
          "internalType": "address"
        },
        {
          "name": "prevBeaconChainSlashingFactor",
          "type": "uint64",
          "indexed": false,
          "internalType": "uint64"
        },
        {
          "name": "newBeaconChainSlashingFactor",
          "type": "uint64",
          "indexed": false,
          "internalType": "uint64"
        }
      ],
      "anonymous": false
    },
    {
      "type": "event",
      "name": "Initialized",
      "inputs": [
        {
          "name": "version",
          "type": "uint8",
          "indexed": false,
          "internalType": "uint8"
        }
      ],
      "anonymous": false
    },
    {
      "type": "event",
      "name": "NewTotalShares",
      "inputs": [
        {
          "name": "podOwner",
          "type": "address",
          "indexed": true,
          "internalType": "address"
        },
        {
          "name": "newTotalShares",
          "type": "int256",
          "indexed": false,
          "internalType": "int256"
        }
      ],
      "anonymous": false
    },
    {
      "type": "event",
      "name": "OwnershipTransferred",
      "inputs": [
        {
          "name": "previousOwner",
          "type": "address",
          "indexed": true,
          "internalType": "address"
        },
        {
          "name": "newOwner",
          "type": "address",
          "indexed": true,
          "internalType": "address"
        }
      ],
      "anonymous": false
    },
    {
      "type": "event",
      "name": "Paused",
      "inputs": [
        {
          "name": "account",
          "type": "address",
          "indexed": true,
          "internalType": "address"
        },
        {
          "name": "newPausedStatus",
          "type": "uint256",
          "indexed": false,
          "internalType": "uint256"
        }
      ],
      "anonymous": false
    },
    {
      "type": "event",
      "name": "PodDeployed",
      "inputs": [
        {
          "name": "eigenPod",
          "type": "address",
          "indexed": true,
          "internalType": "address"
        },
        {
          "name": "podOwner",
          "type": "address",
          "indexed": true,
          "internalType": "address"
        }
      ],
      "anonymous": false
    },
    {
      "type": "event",
      "name": "PodSharesUpdated",
      "inputs": [
        {
          "name": "podOwner",
          "type": "address",
          "indexed": true,
          "internalType": "address"
        },
        {
          "name": "sharesDelta",
          "type": "int256",
          "indexed": false,
          "internalType": "int256"
        }
      ],
      "anonymous": false
    },
    {
      "type": "event",
      "name": "Unpaused",
      "inputs": [
        {
          "name": "account",
          "type": "address",
          "indexed": true,
          "internalType": "address"
        },
        {
          "name": "newPausedStatus",
          "type": "uint256",
          "indexed": false,
          "internalType": "uint256"
        }
      ],
      "anonymous": false
    },
    {
      "type": "error",
      "name": "CurrentlyPaused",
      "inputs": []
    },
    {
      "type": "error",
      "name": "EigenPodAlreadyExists",
      "inputs": []
    },
    {
      "type": "error",
      "name": "InputAddressZero",
      "inputs": []
    },
    {
      "type": "error",
      "name": "InvalidNewPausedStatus",
      "inputs": []
    },
    {
      "type": "error",
      "name": "InvalidStrategy",
      "inputs": []
    },
    {
      "type": "error",
      "name": "LegacyWithdrawalsNotCompleted",
      "inputs": []
    },
    {
      "type": "error",
      "name": "OnlyDelegationManager",
      "inputs": []
    },
    {
      "type": "error",
      "name": "OnlyEigenPod",
      "inputs": []
    },
    {
      "type": "error",
      "name": "OnlyPauser",
      "inputs": []
    },
    {
      "type": "error",
      "name": "OnlyUnpauser",
      "inputs": []
    },
    {
      "type": "error",
      "name": "SharesNegative",
      "inputs": []
    },
    {
      "type": "error",
      "name": "SharesNotMultipleOfGwei",
      "inputs": []
    }
  ],
  "bytecode": {
    "object": "0x61010060405234801561001157600080fd5b50604051612a57380380612a5783398101604081905261003091610161565b838383836001600160a01b03811661005b576040516339b190bb60e11b815260040160405180910390fd5b6001600160a01b0390811660805292831660a05290821660c0521660e05261008161008a565b505050506101c0565b600054610100900460ff16156100f65760405162461bcd60e51b815260206004820152602760248201527f496e697469616c697a61626c653a20636f6e747261637420697320696e697469604482015266616c697a696e6760c81b606482015260840160405180910390fd5b60005460ff90811614610147576000805460ff191660ff9081179091556040519081527f7f26b83ff96e1f2b6a682f133852f6798a09c465da95921460cefb38474024989060200160405180910390a15b565b6001600160a01b038116811461015e57600080fd5b50565b6000806000806080858703121561017757600080fd5b845161018281610149565b602086015190945061019381610149565b60408601519093506101a481610149565b60608601519092506101b581610149565b939692955090935050565b60805160a05160c05160e05161281861023f6000396000818161050c015281816106ab015281816109c201528181610d4901528181610dfc0152610fb30152600081816101d501528181610ec901526114ad015260006102ef015260008181610338015281816105de0152818161090801526111e201526128186000f3fe60806040526004361061019c5760003560e01c80639b4e4634116100ec578063cd6dc6871161008a578063f2fde38b11610064578063f2fde38b1461052e578063f6848d241461054e578063fabc1cbc14610589578063fe243a17146105a957600080fd5b8063cd6dc687146104ad578063d48e8894146104cd578063ea4d3c9b146104fa57600080fd5b8063a38406a3116100c6578063a38406a314610409578063a3d75e0914610429578063a6a509be14610462578063c4623ea11461047857600080fd5b80639b4e4634146103a05780639ba06275146103b3578063a1ca780b146103e957600080fd5b8063715018a61161015957806384d810621161013357806384d8106214610311578063886f1195146103265780638da5cb5b1461035a5780639104c3191461037857600080fd5b8063715018a6146102a8578063724af423146102bd57806374cdd798146102dd57600080fd5b8063136439dd146101a1578063292b7b2b146101c35780632eae418c14610214578063595c6a67146102345780635ac86ab7146102495780635c975abb14610289575b600080fd5b3480156101ad57600080fd5b506101c16101bc366004611a8b565b6105c9565b005b3480156101cf57600080fd5b506101f77f000000000000000000000000000000000000000000000000000000000000000081565b6040516001600160a01b0390911681526020015b60405180910390f35b34801561022057600080fd5b506101c161022f366004611ab9565b6106a0565b34801561024057600080fd5b506101c16108f3565b34801561025557600080fd5b50610279610264366004611b0a565b606654600160ff9092169190911b9081161490565b604051901515815260200161020b565b34801561029557600080fd5b506066545b60405190815260200161020b565b3480156102b457600080fd5b506101c16109a5565b3480156102c957600080fd5b506101c16102d8366004611b2d565b6109b7565b3480156102e957600080fd5b506101f77f000000000000000000000000000000000000000000000000000000000000000081565b34801561031d57600080fd5b506101f7610ae0565b34801561033257600080fd5b506101f77f000000000000000000000000000000000000000000000000000000000000000081565b34801561036657600080fd5b506033546001600160a01b03166101f7565b34801561038457600080fd5b506101f773beac0eeeeeeeeeeeeeeeeeeeeeeeeeeeeeebeac081565b6101c16103ae366004611bb0565b610b53565b3480156103bf57600080fd5b506101f76103ce366004611c29565b6098602052600090815260409020546001600160a01b031681565b3480156103f557600080fd5b506101c1610404366004611c46565b610c16565b34801561041557600080fd5b506101f7610424366004611c29565b610e6d565b34801561043557600080fd5b50610449610444366004611c29565b610f41565b60405167ffffffffffffffff909116815260200161020b565b34801561046e57600080fd5b5061029a60995481565b34801561048457600080fd5b50610498610493366004611ab9565b610fa5565b6040805192835260208301919091520161020b565b3480156104b957600080fd5b506101c16104c8366004611c7b565b611045565b3480156104d957600080fd5b5061029a6104e8366004611c29565b609b6020526000908152604090205481565b34801561050657600080fd5b506101f77f000000000000000000000000000000000000000000000000000000000000000081565b34801561053a57600080fd5b506101c1610549366004611c29565b611167565b34801561055a57600080fd5b50610279610569366004611c29565b6001600160a01b0390811660009081526098602052604090205416151590565b34801561059557600080fd5b506101c16105a4366004611a8b565b6111e0565b3480156105b557600080fd5b5061029a6105c4366004611ca7565b6112f8565b60405163237dfb4760e11b81523360048201527f00000000000000000000000000000000000000000000000000000000000000006001600160a01b0316906346fbf68e90602401602060405180830381865afa15801561062d573d6000803e3d6000fd5b505050506040513d601f19601f820116820180604052508101906106519190611ce0565b61066e57604051631d77d47760e21b815260040160405180910390fd5b60665481811681146106935760405163c61dca5d60e01b815260040160405180910390fd5b61069c8261137c565b5050565b336001600160a01b037f000000000000000000000000000000000000000000000000000000000000000016146106e95760405163f739589b60e01b815260040160405180910390fd5b6001600160a01b03831673beac0eeeeeeeeeeeeeeeeeeeeeeeeeeeeeebeac01461072657604051632711b74d60e11b815260040160405180910390fd5b6001600160a01b03841661074d576040516339b190bb60e11b815260040160405180910390fd5b6000811361076e5760405163ef147de160e01b815260040160405180910390fd5b6001600160a01b0384166000908152609b602052604081205490829082121561086e57600061079c83611d18565b90506000818511156107bb5750806107b48186611d34565b92506107c2565b5060009150835b60006107ce8286611d47565b6001600160a01b038a166000818152609b60205260409081902083905551919250907f4e2b791dedccd9fb30141b088cabf5c14a8912b52f59375c95c010700b8c61939061081f9085815260200190565b60405180910390a2886001600160a01b03167fd4def76d6d2bed6f14d5cd9af73cc2913d618d00edde42432e81c09bfe0770988260405161086291815260200190565b60405180910390a25050505b80156108eb576001600160a01b03868116600081815260986020526040908190205490516362483a2160e11b81526004810192909252602482018490529091169063c490744290604401600060405180830381600087803b1580156108d257600080fd5b505af11580156108e6573d6000803e3d6000fd5b505050505b505050505050565b60405163237dfb4760e11b81523360048201527f00000000000000000000000000000000000000000000000000000000000000006001600160a01b0316906346fbf68e90602401602060405180830381865afa158015610957573d6000803e3d6000fd5b505050506040513d601f19601f8201168201806040525081019061097b9190611ce0565b61099857604051631d77d47760e21b815260040160405180910390fd5b6109a360001961137c565b565b6109ad6113b9565b6109a36000611413565b336001600160a01b037f00000000000000000000000000000000000000000000000000000000000000001614610a005760405163f739589b60e01b815260040160405180910390fd5b6001600160a01b03821673beac0eeeeeeeeeeeeeeeeeeeeeeeeeeeeeebeac014610a3d57604051632711b74d60e11b815260040160405180910390fd5b6001600160a01b0383166000908152609b6020526040812054610a61908390611d6f565b90506000811215610a855760405163ef147de160e01b815260040160405180910390fd5b6001600160a01b0384166000818152609b602052604090819020839055517fd4def76d6d2bed6f14d5cd9af73cc2913d618d00edde42432e81c09bfe07709890610ad29084815260200190565b60405180910390a250505050565b6066546000908190600190811603610b0b5760405163840a48d560e01b815260040160405180910390fd5b336000908152609860205260409020546001600160a01b031615610b425760405163031a852160e21b815260040160405180910390fd5b6000610b4c611465565b9250505090565b606654600090600190811603610b7c5760405163840a48d560e01b815260040160405180910390fd5b336000908152609860205260409020546001600160a01b031680610ba557610ba2611465565b90505b6040516326d3918d60e21b81526001600160a01b03821690639b4e4634903490610bdb908b908b908b908b908b90600401611dbf565b6000604051808303818588803b158015610bf457600080fd5b505af1158015610c08573d6000803e3d6000fd5b505050505050505050505050565b6001600160a01b038084166000908152609860205260409020548491163314610c52576040516312e16d7160e11b815260040160405180910390fd5b610c5a6115ca565b6001600160a01b038416610c81576040516339b190bb60e11b815260040160405180910390fd5b610c8f633b9aca0083611e0f565b15610cad576040516347d072bb60e11b815260040160405180910390fd5b6001600160a01b0384166000908152609b602052604081205490811215610ce757604051634b692bcf60e01b815260040160405180910390fd5b60008312610dae57600080610cfc8786611623565b604051631e328e7960e11b81526001600160a01b038a8116600483015273beac0eeeeeeeeeeeeeeeeeeeeeeeeeeeeeebeac0602483015260448201849052606482018390529294509092507f000000000000000000000000000000000000000000000000000000000000000090911690633c651cf290608401600060405180830381600087803b158015610d8f57600080fd5b505af1158015610da3573d6000803e3d6000fd5b505050505050610e5c565b6000610dc38686610dbe87611d18565b611768565b60405163305068e760e11b81526001600160a01b0388811660048301526024820185905267ffffffffffffffff831660448301529192507f0000000000000000000000000000000000000000000000000000000000000000909116906360a0d1ce90606401600060405180830381600087803b158015610e4257600080fd5b505af1158015610e56573d6000803e3d6000fd5b50505050505b50610e67600160c955565b50505050565b6001600160a01b0380821660009081526098602052604081205490911680610f3b57610f38836001600160a01b031660001b60405180610940016040528061090e8152602001611ed561090e9139604080516001600160a01b037f0000000000000000000000000000000000000000000000000000000000000000166020820152808201919091526000606082015260800160408051601f1981840301815290829052610f1d9291602001611e61565b60405160208183030381529060405280519060200120611866565b90505b92915050565b6001600160a01b0381166000908152609d6020908152604080832081518083019092525460ff8116151580835261010090910467ffffffffffffffff169282019290925290610f9857670de0b6b3a7640000610f9e565b80602001515b9392505050565b600080336001600160a01b037f00000000000000000000000000000000000000000000000000000000000000001614610ff15760405163f739589b60e01b815260040160405180910390fd5b6001600160a01b03851673beac0eeeeeeeeeeeeeeeeeeeeeeeeeeeeeebeac01461102e57604051632711b74d60e11b815260040160405180910390fd5b6110388684611623565b9150915094509492505050565b600054610100900460ff16158080156110655750600054600160ff909116105b8061107f5750303b15801561107f575060005460ff166001145b6110e75760405162461bcd60e51b815260206004820152602e60248201527f496e697469616c697a61626c653a20636f6e747261637420697320616c72656160448201526d191e481a5b9a5d1a585b1a5e995960921b60648201526084015b60405180910390fd5b6000805460ff19166001179055801561110a576000805461ff0019166101001790555b61111383611413565b61111c8261137c565b8015611162576000805461ff0019169055604051600181527f7f26b83ff96e1f2b6a682f133852f6798a09c465da95921460cefb38474024989060200160405180910390a15b505050565b61116f6113b9565b6001600160a01b0381166111d45760405162461bcd60e51b815260206004820152602660248201527f4f776e61626c653a206e6577206f776e657220697320746865207a65726f206160448201526564647265737360d01b60648201526084016110de565b6111dd81611413565b50565b7f00000000000000000000000000000000000000000000000000000000000000006001600160a01b031663eab66d7a6040518163ffffffff1660e01b8152600401602060405180830381865afa15801561123e573d6000803e3d6000fd5b505050506040513d601f19601f820116820180604052508101906112629190611e7e565b6001600160a01b0316336001600160a01b0316146112935760405163794821ff60e01b815260040160405180910390fd5b606654801982198116146112ba5760405163c61dca5d60e01b815260040160405180910390fd5b606682905560405182815233907f3582d1828e26bf56bd801502bc021ac0bc8afb57c826e4986b45593c8fad389c9060200160405180910390a25050565b60006001600160a01b03821673beac0eeeeeeeeeeeeeeeeeeeeeeeeeeeeeebeac01461133757604051632711b74d60e11b815260040160405180910390fd5b6001600160a01b0383166000908152609b602052604081205412611373576001600160a01b0383166000908152609b6020526040902054610f38565b50600092915050565b606681905560405181815233907fab40a374bc51de372200a8bc981af8c9ecdc08dfdaef0bb6e09f88f3c616ef3d9060200160405180910390a250565b6033546001600160a01b031633146109a35760405162461bcd60e51b815260206004820181905260248201527f4f776e61626c653a2063616c6c6572206973206e6f7420746865206f776e657260448201526064016110de565b603380546001600160a01b038381166001600160a01b0319831681179093556040519116919082907f8be0079c531659141344cd1fd0a4f28419497f9722a3daafe3b4186f6b6457e090600090a35050565b600060996000815461147690611e9b565b9091555060408051610940810190915261090e8082526000916115159183913391611ed56020830139604080516001600160a01b037f0000000000000000000000000000000000000000000000000000000000000000166020820152808201919091526000606082015260800160408051601f19818403018152908290526115019291602001611e61565b604051602081830303815290604052611873565b60405163189acdbd60e31b81523360048201529091506001600160a01b0382169063c4d66de890602401600060405180830381600087803b15801561155957600080fd5b505af115801561156d573d6000803e3d6000fd5b50503360008181526098602052604080822080546001600160a01b0319166001600160a01b038816908117909155905192945092507f21c99d0db02213c32fff5b05cf0a718ab5f858802b91498f80d82270289d856a91a3919050565b600260c9540361161c5760405162461bcd60e51b815260206004820152601f60248201527f5265656e7472616e637947756172643a207265656e7472616e742063616c6c0060448201526064016110de565b600260c955565b6000806001600160a01b03841661164d576040516339b190bb60e11b815260040160405180910390fd5b600083121561166f5760405163ef147de160e01b815260040160405180910390fd5b6001600160a01b0384166000908152609b602052604081205484916116948383611d47565b6001600160a01b0388166000818152609b60205260409081902083905551919250907f4e2b791dedccd9fb30141b088cabf5c14a8912b52f59375c95c010700b8c6193906116e59086815260200190565b60405180910390a2866001600160a01b03167fd4def76d6d2bed6f14d5cd9af73cc2913d618d00edde42432e81c09bfe0770988260405161172891815260200190565b60405180910390a2600081136117475760008094509450505050611761565b600082126117555781611758565b60005b86945094505050505b9250929050565b6000806117758385611d34565b9050600061178286610f41565b9050600061179b67ffffffffffffffff83168488611977565b905060006117a98284611eb4565b6040805180820182526001815267ffffffffffffffff85811660208084018281526001600160a01b038f166000818152609d845287902095518654925168ffffffffffffffffff1990931690151568ffffffffffffffff001916176101009286169290920291909117909455845193845291881691830191909152918101919091529091507fb160ab8589bf47dc04ea11b50d46678d21590cea2ed3e454e7bd3e41510f98cf9060600160405180910390a1979650505050505050565b6000610f38838330611a61565b6000834710156118c55760405162461bcd60e51b815260206004820152601d60248201527f437265617465323a20696e73756666696369656e742062616c616e636500000060448201526064016110de565b81516000036119165760405162461bcd60e51b815260206004820181905260248201527f437265617465323a2062797465636f6465206c656e677468206973207a65726f60448201526064016110de565b8282516020840186f590506001600160a01b038116610f9e5760405162461bcd60e51b815260206004820152601960248201527f437265617465323a204661696c6564206f6e206465706c6f790000000000000060448201526064016110de565b60008080600019858709858702925082811083820303915050806000036119b1578382816119a7576119a7611df9565b0492505050610f9e565b8084116119f85760405162461bcd60e51b81526020600482015260156024820152744d6174683a206d756c446976206f766572666c6f7760581b60448201526064016110de565b60008486880960026001871981018816978890046003810283188082028403028082028403028082028403028082028403028082028403029081029092039091026000889003889004909101858311909403939093029303949094049190911702949350505050565b6000604051836040820152846020820152828152600b8101905060ff815360559020949350505050565b600060208284031215611a9d57600080fd5b5035919050565b6001600160a01b03811681146111dd57600080fd5b60008060008060808587031215611acf57600080fd5b8435611ada81611aa4565b93506020850135611aea81611aa4565b92506040850135611afa81611aa4565b9396929550929360600135925050565b600060208284031215611b1c57600080fd5b813560ff81168114610f9e57600080fd5b600080600060608486031215611b4257600080fd5b8335611b4d81611aa4565b92506020840135611b5d81611aa4565b929592945050506040919091013590565b60008083601f840112611b8057600080fd5b50813567ffffffffffffffff811115611b9857600080fd5b60208301915083602082850101111561176157600080fd5b600080600080600060608688031215611bc857600080fd5b853567ffffffffffffffff811115611bdf57600080fd5b611beb88828901611b6e565b909650945050602086013567ffffffffffffffff811115611c0b57600080fd5b611c1788828901611b6e565b96999598509660400135949350505050565b600060208284031215611c3b57600080fd5b8135610f9e81611aa4565b600080600060608486031215611c5b57600080fd5b8335611c6681611aa4565b95602085013595506040909401359392505050565b60008060408385031215611c8e57600080fd5b8235611c9981611aa4565b946020939093013593505050565b60008060408385031215611cba57600080fd5b8235611cc581611aa4565b91506020830135611cd581611aa4565b809150509250929050565b600060208284031215611cf257600080fd5b81518015158114610f9e57600080fd5b634e487b7160e01b600052601160045260246000fd5b6000600160ff1b8201611d2d57611d2d611d02565b5060000390565b81810381811115610f3b57610f3b611d02565b8082018281126000831280158216821582161715611d6757611d67611d02565b505092915050565b8181036000831280158383131683831282161715611d8f57611d8f611d02565b5092915050565b81835281816020850137506000828201602090810191909152601f909101601f19169091010190565b606081526000611dd3606083018789611d96565b8281036020840152611de6818688611d96565b9150508260408301529695505050505050565b634e487b7160e01b600052601260045260246000fd5b600082611e2c57634e487b7160e01b600052601260045260246000fd5b500790565b6000815160005b81811015611e525760208185018101518683015201611e38565b50600093019283525090919050565b6000611e76611e708386611e31565b84611e31565b949350505050565b600060208284031215611e9057600080fd5b8151610f9e81611aa4565b600060018201611ead57611ead611d02565b5060010190565b67ffffffffffffffff8281168282160390811115610f3b57610f3b611d0256fe608060405260405161090e38038061090e83398101604081905261002291610460565b61002e82826000610035565b505061058a565b61003e83610100565b6040516001600160a01b038416907f1cf3b03a6cf19fa2baba4df148e9dcabedea7f8a5c07840e207e5c089be95d3e90600090a260008251118061007f5750805b156100fb576100f9836001600160a01b0316635c60da1b6040518163ffffffff1660e01b8152600401602060405180830381865afa1580156100c5573d6000803e3d6000fd5b505050506040513d601f19601f820116820180604052508101906100e99190610520565b836102a360201b6100291760201c565b505b505050565b610113816102cf60201b6100551760201c565b6101725760405162461bcd60e51b815260206004820152602560248201527f455243313936373a206e657720626561636f6e206973206e6f74206120636f6e6044820152641d1c9858dd60da1b60648201526084015b60405180910390fd5b6101e6816001600160a01b0316635c60da1b6040518163ffffffff1660e01b8152600401602060405180830381865afa1580156101b3573d6000803e3d6000fd5b505050506040513d601f19601f820116820180604052508101906101d79190610520565b6102cf60201b6100551760201c565b61024b5760405162461bcd60e51b815260206004820152603060248201527f455243313936373a20626561636f6e20696d706c656d656e746174696f6e206960448201526f1cc81b9bdd08184818dbdb9d1c9858dd60821b6064820152608401610169565b806102827fa3f0ad74e5423aebfd80d3ef4346578335a9a72aeaee59ff6cb3582b35133d5060001b6102de60201b6100641760201c565b80546001600160a01b0319166001600160a01b039290921691909117905550565b60606102c883836040518060600160405280602781526020016108e7602791396102e1565b9392505050565b6001600160a01b03163b151590565b90565b6060600080856001600160a01b0316856040516102fe919061053b565b600060405180830381855af49150503d8060008114610339576040519150601f19603f3d011682016040523d82523d6000602084013e61033e565b606091505b5090925090506103508683838761035a565b9695505050505050565b606083156103c65782516103bf576001600160a01b0385163b6103bf5760405162461bcd60e51b815260206004820152601d60248201527f416464726573733a2063616c6c20746f206e6f6e2d636f6e74726163740000006044820152606401610169565b50816103d0565b6103d083836103d8565b949350505050565b8151156103e85781518083602001fd5b8060405162461bcd60e51b81526004016101699190610557565b80516001600160a01b038116811461041957600080fd5b919050565b634e487b7160e01b600052604160045260246000fd5b60005b8381101561044f578181015183820152602001610437565b838111156100f95750506000910152565b6000806040838503121561047357600080fd5b61047c83610402565b60208401519092506001600160401b038082111561049957600080fd5b818501915085601f8301126104ad57600080fd5b8151818111156104bf576104bf61041e565b604051601f8201601f19908116603f011681019083821181831017156104e7576104e761041e565b8160405282815288602084870101111561050057600080fd5b610511836020830160208801610434565b80955050505050509250929050565b60006020828403121561053257600080fd5b6102c882610402565b6000825161054d818460208701610434565b9190910192915050565b6020815260008251806020840152610576816040850160208701610434565b601f01601f19169190910160400192915050565b61034e806105996000396000f3fe60806040523661001357610011610017565b005b6100115b610027610022610067565b610100565b565b606061004e83836040518060600160405280602781526020016102f260279139610124565b9392505050565b6001600160a01b03163b151590565b90565b600061009a7fa3f0ad74e5423aebfd80d3ef4346578335a9a72aeaee59ff6cb3582b35133d50546001600160a01b031690565b6001600160a01b0316635c60da1b6040518163ffffffff1660e01b8152600401602060405180830381865afa1580156100d7573d6000803e3d6000fd5b505050506040513d601f19601f820116820180604052508101906100fb9190610249565b905090565b3660008037600080366000845af43d6000803e80801561011f573d6000f35b3d6000fd5b6060600080856001600160a01b03168560405161014191906102a2565b600060405180830381855af49150503d806000811461017c576040519150601f19603f3d011682016040523d82523d6000602084013e610181565b606091505b50915091506101928683838761019c565b9695505050505050565b6060831561020d578251610206576001600160a01b0385163b6102065760405162461bcd60e51b815260206004820152601d60248201527f416464726573733a2063616c6c20746f206e6f6e2d636f6e747261637400000060448201526064015b60405180910390fd5b5081610217565b610217838361021f565b949350505050565b81511561022f5781518083602001fd5b8060405162461bcd60e51b81526004016101fd91906102be565b60006020828403121561025b57600080fd5b81516001600160a01b038116811461004e57600080fd5b60005b8381101561028d578181015183820152602001610275565b8381111561029c576000848401525b50505050565b600082516102b4818460208701610272565b9190910192915050565b60208152600082518060208401526102dd816040850160208701610272565b601f01601f1916919091016040019291505056fe416464726573733a206c6f772d6c6576656c2064656c65676174652063616c6c206661696c6564a2646970667358221220d51e81d3bc5ed20a26aeb05dce7e825c503b2061aa78628027300c8d65b9d89a64736f6c634300080c0033416464726573733a206c6f772d6c6576656c2064656c65676174652063616c6c206661696c6564a26469706673582212204cb095042616133c7e6aed81cd73cefa26afa88ee762b57c62e15f8db8fa765a64736f6c634300081b0033",
    "linkReferences": {}
  },
  "methodIdentifiers": {
    "addShares(address,address,address,uint256)": "c4623ea1",
    "beaconChainETHStrategy()": "9104c319",
    "beaconChainSlashingFactor(address)": "a3d75e09",
    "createPod()": "84d81062",
    "delegationManager()": "ea4d3c9b",
    "eigenPodBeacon()": "292b7b2b",
    "ethPOS()": "74cdd798",
    "getPod(address)": "a38406a3",
    "hasPod(address)": "f6848d24",
    "initialize(address,uint256)": "cd6dc687",
    "numPods()": "a6a509be",
    "owner()": "8da5cb5b",
    "ownerToPod(address)": "9ba06275",
    "pause(uint256)": "136439dd",
    "pauseAll()": "595c6a67",
    "paused()": "5c975abb",
    "paused(uint8)": "5ac86ab7",
    "pauserRegistry()": "886f1195",
    "podOwnerDepositShares(address)": "d48e8894",
    "recordBeaconChainETHBalanceUpdate(address,uint256,int256)": "a1ca780b",
    "removeDepositShares(address,address,uint256)": "724af423",
    "renounceOwnership()": "715018a6",
    "stake(bytes,bytes,bytes32)": "9b4e4634",
    "stakerDepositShares(address,address)": "fe243a17",
    "transferOwnership(address)": "f2fde38b",
    "unpause(uint256)": "fabc1cbc",
    "withdrawSharesAsTokens(address,address,address,uint256)": "2eae418c"
  },
  "id": 159
}