{
  "abi": [
    {
      "type": "constructor",
      "inputs": [
        {
          "name": "_strategyManager",
          "type": "address",
          "internalType": "contract IStrategyManager"
        },
        {
          "name": "_pauserRegistry",
          "type": "address",
          "internalType": "contract IPauserRegistry"
        }
      ],
      "stateMutability": "nonpayable"
    },
    {
      "type": "function",
      "name": "EIGEN",
      "inputs": [],
      "outputs": [
        {
          "name": "",
          "type": "address",
          "internalType": "contract IEigen"
        }
      ],
      "stateMutability": "view"
    },
    {
      "type": "function",
      "name": "deposit",
      "inputs": [
        {
          "name": "token",
          "type": "address",
          "internalType": "contract IERC20"
        },
        {
          "name": "amount",
          "type": "uint256",
          "internalType": "uint256"
        }
      ],
      "outputs": [
        {
          "name": "newShares",
          "type": "uint256",
          "internalType": "uint256"
        }
      ],
      "stateMutability": "nonpayable"
    },
    {
      "type": "function",
      "name": "explanation",
      "inputs": [],
      "outputs": [
        {
          "name": "",
          "type": "string",
          "internalType": "string"
        }
      ],
      "stateMutability": "pure"
    },
    {
      "type": "function",
      "name": "initialize",
      "inputs": [
        {
          "name": "_EIGEN",
          "type": "address",
          "internalType": "contract IEigen"
        },
        {
          "name": "_bEIGEN",
          "type": "address",
          "internalType": "contract IERC20"
        }
      ],
      "outputs": [],
      "stateMutability": "nonpayable"
    },
    {
      "type": "function",
      "name": "initialize",
      "inputs": [
        {
          "name": "_underlyingToken",
          "type": "address",
          "internalType": "contract IERC20"
        }
      ],
      "outputs": [],
      "stateMutability": "nonpayable"
    },
    {
      "type": "function",
      "name": "pause",
      "inputs": [
        {
          "name": "newPausedStatus",
          "type": "uint256",
          "internalType": "uint256"
        }
      ],
      "outputs": [],
      "stateMutability": "nonpayable"
    },
    {
      "type": "function",
      "name": "pauseAll",
      "inputs": [],
      "outputs": [],
      "stateMutability": "nonpayable"
    },
    {
      "type": "function",
      "name": "paused",
      "inputs": [
        {
          "name": "index",
          "type": "uint8",
          "internalType": "uint8"
        }
      ],
      "outputs": [
        {
          "name": "",
          "type": "bool",
          "internalType": "bool"
        }
      ],
      "stateMutability": "view"
    },
    {
      "type": "function",
      "name": "paused",
      "inputs": [],
      "outputs": [
        {
          "name": "",
          "type": "uint256",
          "internalType": "uint256"
        }
      ],
      "stateMutability": "view"
    },
    {
      "type": "function",
      "name": "pauserRegistry",
      "inputs": [],
      "outputs": [
        {
          "name": "",
          "type": "address",
          "internalType": "contract IPauserRegistry"
        }
      ],
      "stateMutability": "view"
    },
    {
      "type": "function",
      "name": "shares",
      "inputs": [
        {
          "name": "user",
          "type": "address",
          "internalType": "address"
        }
      ],
      "outputs": [
        {
          "name": "",
          "type": "uint256",
          "internalType": "uint256"
        }
      ],
      "stateMutability": "view"
    },
    {
      "type": "function",
      "name": "sharesToUnderlying",
      "inputs": [
        {
          "name": "amountShares",
          "type": "uint256",
          "internalType": "uint256"
        }
      ],
      "outputs": [
        {
          "name": "",
          "type": "uint256",
          "internalType": "uint256"
        }
      ],
      "stateMutability": "view"
    },
    {
      "type": "function",
      "name": "sharesToUnderlyingView",
      "inputs": [
        {
          "name": "amountShares",
          "type": "uint256",
          "internalType": "uint256"
        }
      ],
      "outputs": [
        {
          "name": "",
          "type": "uint256",
          "internalType": "uint256"
        }
      ],
      "stateMutability": "view"
    },
    {
      "type": "function",
      "name": "strategyManager",
      "inputs": [],
      "outputs": [
        {
          "name": "",
          "type": "address",
          "internalType": "contract IStrategyManager"
        }
      ],
      "stateMutability": "view"
    },
    {
      "type": "function",
      "name": "totalShares",
      "inputs": [],
      "outputs": [
        {
          "name": "",
          "type": "uint256",
          "internalType": "uint256"
        }
      ],
      "stateMutability": "view"
    },
    {
      "type": "function",
      "name": "underlyingToShares",
      "inputs": [
        {
          "name": "amountUnderlying",
          "type": "uint256",
          "internalType": "uint256"
        }
      ],
      "outputs": [
        {
          "name": "",
          "type": "uint256",
          "internalType": "uint256"
        }
      ],
      "stateMutability": "view"
    },
    {
      "type": "function",
      "name": "underlyingToSharesView",
      "inputs": [
        {
          "name": "amountUnderlying",
          "type": "uint256",
          "internalType": "uint256"
        }
      ],
      "outputs": [
        {
          "name": "",
          "type": "uint256",
          "internalType": "uint256"
        }
      ],
      "stateMutability": "view"
    },
    {
      "type": "function",
      "name": "underlyingToken",
      "inputs": [],
      "outputs": [
        {
          "name": "",
          "type": "address",
          "internalType": "contract IERC20"
        }
      ],
      "stateMutability": "view"
    },
    {
      "type": "function",
      "name": "unpause",
      "inputs": [
        {
          "name": "newPausedStatus",
          "type": "uint256",
          "internalType": "uint256"
        }
      ],
      "outputs": [],
      "stateMutability": "nonpayable"
    },
    {
      "type": "function",
      "name": "userUnderlying",
      "inputs": [
        {
          "name": "user",
          "type": "address",
          "internalType": "address"
        }
      ],
      "outputs": [
        {
          "name": "",
          "type": "uint256",
          "internalType": "uint256"
        }
      ],
      "stateMutability": "nonpayable"
    },
    {
      "type": "function",
      "name": "userUnderlyingView",
      "inputs": [
        {
          "name": "user",
          "type": "address",
          "internalType": "address"
        }
      ],
      "outputs": [
        {
          "name": "",
          "type": "uint256",
          "internalType": "uint256"
        }
      ],
      "stateMutability": "view"
    },
    {
      "type": "function",
      "name": "withdraw",
      "inputs": [
        {
          "name": "recipient",
          "type": "address",
          "internalType": "address"
        },
        {
          "name": "token",
          "type": "address",
          "internalType": "contract IERC20"
        },
        {
          "name": "amountShares",
          "type": "uint256",
          "internalType": "uint256"
        }
      ],
      "outputs": [],
      "stateMutability": "nonpayable"
    },
    {
      "type": "event",
      "name": "ExchangeRateEmitted",
      "inputs": [
        {
          "name": "rate",
          "type": "uint256",
          "indexed": false,
          "internalType": "uint256"
        }
      ],
      "anonymous": false
    },
    {
      "type": "event",
      "name": "Initialized",
      "inputs": [
        {
          "name": "version",
          "type": "uint8",
          "indexed": false,
          "internalType": "uint8"
        }
      ],
      "anonymous": false
    },
    {
      "type": "event",
      "name": "Paused",
      "inputs": [
        {
          "name": "account",
          "type": "address",
          "indexed": true,
          "internalType": "address"
        },
        {
          "name": "newPausedStatus",
          "type": "uint256",
          "indexed": false,
          "internalType": "uint256"
        }
      ],
      "anonymous": false
    },
    {
      "type": "event",
      "name": "StrategyTokenSet",
      "inputs": [
        {
          "name": "token",
          "type": "address",
          "indexed": false,
          "internalType": "contract IERC20"
        },
        {
          "name": "decimals",
          "type": "uint8",
          "indexed": false,
          "internalType": "uint8"
        }
      ],
      "anonymous": false
    },
    {
      "type": "event",
      "name": "Unpaused",
      "inputs": [
        {
          "name": "account",
          "type": "address",
          "indexed": true,
          "internalType": "address"
        },
        {
          "name": "newPausedStatus",
          "type": "uint256",
          "indexed": false,
          "internalType": "uint256"
        }
      ],
      "anonymous": false
    },
    {
      "type": "error",
      "name": "BalanceExceedsMaxTotalDeposits",
      "inputs": []
    },
    {
      "type": "error",
      "name": "CurrentlyPaused",
      "inputs": []
    },
    {
      "type": "error",
      "name": "InputAddressZero",
      "inputs": []
    },
    {
      "type": "error",
      "name": "InvalidNewPausedStatus",
      "inputs": []
    },
    {
      "type": "error",
      "name": "MaxPerDepositExceedsMax",
      "inputs": []
    },
    {
      "type": "error",
      "name": "NewSharesZero",
      "inputs": []
    },
    {
      "type": "error",
      "name": "OnlyPauser",
      "inputs": []
    },
    {
      "type": "error",
      "name": "OnlyStrategyManager",
      "inputs": []
    },
    {
      "type": "error",
      "name": "OnlyUnderlyingToken",
      "inputs": []
    },
    {
      "type": "error",
      "name": "OnlyUnpauser",
      "inputs": []
    },
    {
      "type": "error",
      "name": "TotalSharesExceedsMax",
      "inputs": []
    },
    {
      "type": "error",
      "name": "WithdrawalAmountExceedsTotalDeposits",
      "inputs": []
    }
  ],
  "bytecode": {
    "object": "0x60c060405234801561001057600080fd5b5060405161172638038061172683398101604081905261002f91610154565b8181806001600160a01b038116610059576040516339b190bb60e11b815260040160405180910390fd5b6001600160a01b03908116608052821660a05261007461007d565b5050505061018e565b600054610100900460ff16156100e95760405162461bcd60e51b815260206004820152602760248201527f496e697469616c697a61626c653a20636f6e747261637420697320696e697469604482015266616c697a696e6760c81b606482015260840160405180910390fd5b60005460ff9081161461013a576000805460ff191660ff9081179091556040519081527f7f26b83ff96e1f2b6a682f133852f6798a09c465da95921460cefb38474024989060200160405180910390a15b565b6001600160a01b038116811461015157600080fd5b50565b6000806040838503121561016757600080fd5b82516101728161013c565b60208401519092506101838161013c565b809150509250929050565b60805160a0516115496101dd600039600081816101910152818161044701528181610893015261093201526000818161025a015281816103510152818161067e0152610a6601526115496000f3fe608060405234801561001057600080fd5b50600436106101425760003560e01c8063886f1195116100b8578063ce7c2ac21161007c578063ce7c2ac2146102ca578063d9caed12146102dd578063e3dae51c146102f0578063f3e7387514610303578063fabc1cbc14610316578063fdc371ce1461032957600080fd5b8063886f1195146102555780638c8710191461027c5780638f6a62401461028f578063ab5921e1146102a2578063c4d66de8146102b757600080fd5b8063485cc9551161010a578063485cc955146101dd578063553ca5f8146101f0578063595c6a67146102035780635ac86ab71461020b5780635c975abb1461023a5780637a8b26371461024257600080fd5b8063136439dd146101475780632495a5991461015c57806339b70e381461018c5780633a98ef39146101b357806347e7ef24146101ca575b600080fd5b61015a6101553660046111f4565b61033c565b005b60325461016f906001600160a01b031681565b6040516001600160a01b0390911681526020015b60405180910390f35b61016f7f000000000000000000000000000000000000000000000000000000000000000081565b6101bc60335481565b604051908152602001610183565b6101bc6101d8366004611225565b610413565b61015a6101eb366004611251565b610564565b6101bc6101fe36600461128a565b610655565b61015a610669565b61022a6102193660046112bd565b6001805460ff9092161b9081161490565b6040519015158152602001610183565b6001546101bc565b6101bc6102503660046111f4565b61071b565b61016f7f000000000000000000000000000000000000000000000000000000000000000081565b6101bc61028a3660046111f4565b610766565b6101bc61029d36600461128a565b610771565b6102aa61077f565b60405161018391906112fe565b61015a6102c536600461128a565b61079f565b6101bc6102d836600461128a565b61086b565b61015a6102eb366004611331565b610900565b6101bc6102fe3660046111f4565b610a20565b6101bc6103113660046111f4565b610a59565b61015a6103243660046111f4565b610a64565b60645461016f906001600160a01b031681565b60405163237dfb4760e11b81523360048201527f00000000000000000000000000000000000000000000000000000000000000006001600160a01b0316906346fbf68e90602401602060405180830381865afa1580156103a0573d6000803e3d6000fd5b505050506040513d601f19601f820116820180604052508101906103c49190611372565b6103e157604051631d77d47760e21b815260040160405180910390fd5b60015481811681146104065760405163c61dca5d60e01b815260040160405180910390fd5b61040f82610b7c565b5050565b60018054600091829181160361043c5760405163840a48d560e01b815260040160405180910390fd5b336001600160a01b037f00000000000000000000000000000000000000000000000000000000000000001614610485576040516348da714f60e01b815260040160405180910390fd5b61048f8484610bb9565b60335460006104a06103e8836113aa565b905060006103e86104af610c77565b6104b991906113aa565b905060006104c787836113bd565b9050806104d484896113d0565b6104de91906113e7565b95508560000361050157604051630c392ed360e11b815260040160405180910390fd5b61050b86856113aa565b60338190556f4b3b4ca85a86c47a098a223fffffffff101561054057604051632f14e8a360e11b815260040160405180910390fd5b610559826103e860335461055491906113aa565b610ce9565b505050505092915050565b600054610100900460ff16158080156105845750600054600160ff909116105b8061059e5750303b15801561059e575060005460ff166001145b6105c35760405162461bcd60e51b81526004016105ba90611409565b60405180910390fd5b6000805460ff1916600117905580156105e6576000805461ff0019166101001790555b606480546001600160a01b0319166001600160a01b03851617905561060a82610d35565b8015610650576000805461ff0019169055604051600181527f7f26b83ff96e1f2b6a682f133852f6798a09c465da95921460cefb38474024989060200160405180910390a15b505050565b60006106636102508361086b565b92915050565b60405163237dfb4760e11b81523360048201527f00000000000000000000000000000000000000000000000000000000000000006001600160a01b0316906346fbf68e90602401602060405180830381865afa1580156106cd573d6000803e3d6000fd5b505050506040513d601f19601f820116820180604052508101906106f19190611372565b61070e57604051631d77d47760e21b815260040160405180910390fd5b610719600019610b7c565b565b6000806103e860335461072e91906113aa565b905060006103e861073d610c77565b61074791906113aa565b90508161075485836113d0565b61075e91906113e7565b949350505050565b600061066382610a20565b60006106636103118361086b565b60606040518060800160405280604d81526020016114c7604d9139905090565b600054610100900460ff16158080156107bf5750600054600160ff909116105b806107d95750303b1580156107d9575060005460ff166001145b6107f55760405162461bcd60e51b81526004016105ba90611409565b6000805460ff191660011790558015610818576000805461ff0019166101001790555b61082182610d35565b801561040f576000805461ff0019169055604051600181527f7f26b83ff96e1f2b6a682f133852f6798a09c465da95921460cefb3847402498906020015b60405180910390a15050565b60405163fe243a1760e01b81526001600160a01b0382811660048301523060248301526000917f00000000000000000000000000000000000000000000000000000000000000009091169063fe243a1790604401602060405180830381865afa1580156108dc573d6000803e3d6000fd5b505050506040513d601f19601f820116820180604052508101906106639190611457565b600180546002908116036109275760405163840a48d560e01b815260040160405180910390fd5b336001600160a01b037f00000000000000000000000000000000000000000000000000000000000000001614610970576040516348da714f60e01b815260040160405180910390fd5b61097b848484610e85565b6033548083111561099f57604051630b469df360e41b815260040160405180910390fd5b60006109ad6103e8836113aa565b905060006103e86109bc610c77565b6109c691906113aa565b90506000826109d587846113d0565b6109df91906113e7565b90506109eb86856113bd565b603355610a0b6109fb82846113bd565b6103e860335461055491906113aa565b610a16888883610ecb565b5050505050505050565b6000806103e8603354610a3391906113aa565b905060006103e8610a42610c77565b610a4c91906113aa565b90508061075483866113d0565b60006106638261071b565b7f00000000000000000000000000000000000000000000000000000000000000006001600160a01b031663eab66d7a6040518163ffffffff1660e01b8152600401602060405180830381865afa158015610ac2573d6000803e3d6000fd5b505050506040513d601f19601f82011682018060405250810190610ae69190611470565b6001600160a01b0316336001600160a01b031614610b175760405163794821ff60e01b815260040160405180910390fd5b60015480198219811614610b3e5760405163c61dca5d60e01b815260040160405180910390fd5b600182905560405182815233907f3582d1828e26bf56bd801502bc021ac0bc8afb57c826e4986b45593c8fad389c9060200160405180910390a25050565b600181905560405181815233907fab40a374bc51de372200a8bc981af8c9ecdc08dfdaef0bb6e09f88f3c616ef3d9060200160405180910390a250565b6032546001600160a01b0383811691161480610be257506064546001600160a01b038381169116145b610bff57604051630312abdd60e61b815260040160405180910390fd5b6064546001600160a01b039081169083160361040f57606454604051636f074d1f60e11b8152600481018390526001600160a01b039091169063de0e9a3e90602401600060405180830381600087803b158015610c5b57600080fd5b505af1158015610c6f573d6000803e3d6000fd5b505050505050565b6032546040516370a0823160e01b81523060048201526000916001600160a01b0316906370a0823190602401602060405180830381865afa158015610cc0573d6000803e3d6000fd5b505050506040513d601f19601f82011682018060405250810190610ce49190611457565b905090565b7fd2494f3479e5da49d386657c292c610b5b01df313d07c62eb0cfa49924a31be881610d1d84670de0b6b3a76400006113d0565b610d2791906113e7565b60405190815260200161085f565b600054610100900460ff16610da05760405162461bcd60e51b815260206004820152602b60248201527f496e697469616c697a61626c653a20636f6e7472616374206973206e6f74206960448201526a6e697469616c697a696e6760a81b60648201526084016105ba565b603280546001600160a01b0319166001600160a01b038316179055610dc56000610b7c565b7f1c540707b00eb5427b6b774fc799d756516a54aee108b64b327acc55af557507603260009054906101000a90046001600160a01b0316826001600160a01b031663313ce5676040518163ffffffff1660e01b8152600401602060405180830381865afa158015610e3a573d6000803e3d6000fd5b505050506040513d601f19601f82011682018060405250810190610e5e919061148d565b604080516001600160a01b03909316835260ff90911660208301520160405180910390a150565b6032546001600160a01b0383811691161480610eae57506064546001600160a01b038381169116145b61065057604051630312abdd60e61b815260040160405180910390fd5b6064546001600160a01b0390811690831603610fb85760325460405163095ea7b360e01b81526001600160a01b038481166004830152602482018490529091169063095ea7b3906044016020604051808303816000875af1158015610f34573d6000803e3d6000fd5b505050506040513d601f19601f82011682018060405250810190610f589190611372565b50606454604051630ea598cb60e41b8152600481018390526001600160a01b039091169063ea598cb090602401600060405180830381600087803b158015610f9f57600080fd5b505af1158015610fb3573d6000803e3d6000fd5b505050505b604080516001600160a01b03858116602483015260448083018590528351808403909101815260649092018352602080830180516001600160e01b031663a9059cbb60e01b17905283518085019094528084527f5361666545524332303a206c6f772d6c6576656c2063616c6c206661696c656490840152610650929085169186918591859185919060009061105190849084906110d1565b90508051600014806110725750808060200190518101906110729190611372565b6106505760405162461bcd60e51b815260206004820152602a60248201527f5361666545524332303a204552433230206f7065726174696f6e20646964206e6044820152691bdd081cdd58d8d9595960b21b60648201526084016105ba565b606061075e848460008585600080866001600160a01b031685876040516110f891906114aa565b60006040518083038185875af1925050503d8060008114611135576040519150601f19603f3d011682016040523d82523d6000602084013e61113a565b606091505b509150915061114b87838387611156565b979650505050505050565b606083156111c55782516000036111be576001600160a01b0385163b6111be5760405162461bcd60e51b815260206004820152601d60248201527f416464726573733a2063616c6c20746f206e6f6e2d636f6e747261637400000060448201526064016105ba565b508161075e565b61075e83838151156111da5781518083602001fd5b8060405162461bcd60e51b81526004016105ba91906112fe565b60006020828403121561120657600080fd5b5035919050565b6001600160a01b038116811461122257600080fd5b50565b6000806040838503121561123857600080fd5b82356112438161120d565b946020939093013593505050565b6000806040838503121561126457600080fd5b823561126f8161120d565b9150602083013561127f8161120d565b809150509250929050565b60006020828403121561129c57600080fd5b81356112a78161120d565b9392505050565b60ff8116811461122257600080fd5b6000602082840312156112cf57600080fd5b81356112a7816112ae565b60005b838110156112f55781810151838201526020016112dd565b50506000910152565b602081526000825180602084015261131d8160408501602087016112da565b601f01601f19169190910160400192915050565b60008060006060848603121561134657600080fd5b83356113518161120d565b925060208401356113618161120d565b929592945050506040919091013590565b60006020828403121561138457600080fd5b815180151581146112a757600080fd5b634e487b7160e01b600052601160045260246000fd5b8082018082111561066357610663611394565b8181038181111561066357610663611394565b808202811582820484141761066357610663611394565b60008261140457634e487b7160e01b600052601260045260246000fd5b500490565b6020808252602e908201527f496e697469616c697a61626c653a20636f6e747261637420697320616c72656160408201526d191e481a5b9a5d1a585b1a5e995960921b606082015260800190565b60006020828403121561146957600080fd5b5051919050565b60006020828403121561148257600080fd5b81516112a78161120d565b60006020828403121561149f57600080fd5b81516112a7816112ae565b600082516114bc8184602087016112da565b919091019291505056fe4261736520537472617465677920696d706c656d656e746174696f6e20746f20696e68657269742066726f6d20666f72206d6f726520636f6d706c657820696d706c656d656e746174696f6e73a2646970667358221220c0c53e7c43d6d4b41fa8b16280ee4b36d422cd94239a19e35ccb68509163892f64736f6c634300081b0033",
    "linkReferences": {}
  },
  "methodIdentifiers": {
    "EIGEN()": "fdc371ce",
    "deposit(address,uint256)": "47e7ef24",
    "explanation()": "ab5921e1",
    "initialize(address)": "c4d66de8",
    "initialize(address,address)": "485cc955",
    "pause(uint256)": "136439dd",
    "pauseAll()": "595c6a67",
    "paused()": "5c975abb",
    "paused(uint8)": "5ac86ab7",
    "pauserRegistry()": "886f1195",
    "shares(address)": "ce7c2ac2",
    "sharesToUnderlying(uint256)": "f3e73875",
    "sharesToUnderlyingView(uint256)": "7a8b2637",
    "strategyManager()": "39b70e38",
    "totalShares()": "3a98ef39",
    "underlyingToShares(uint256)": "8c871019",
    "underlyingToSharesView(uint256)": "e3dae51c",
    "underlyingToken()": "2495a599",
    "unpause(uint256)": "fabc1cbc",
    "userUnderlying(address)": "8f6a6240",
    "userUnderlyingView(address)": "553ca5f8",
    "withdraw(address,address,uint256)": "d9caed12"
  },
  "id": 163
}