{
  "abi": [
    {
      "type": "constructor",
      "inputs": [
        {
          "name": "_pausers",
          "type": "address[]",
          "internalType": "address[]"
        },
        {
          "name": "_unpauser",
          "type": "address",
          "internalType": "address"
        }
      ],
      "stateMutability": "nonpayable"
    },
    {
      "type": "function",
      "name": "isPauser",
      "inputs": [
        {
          "name": "",
          "type": "address",
          "internalType": "address"
        }
      ],
      "outputs": [
        {
          "name": "",
          "type": "bool",
          "internalType": "bool"
        }
      ],
      "stateMutability": "view"
    },
    {
      "type": "function",
      "name": "setIsPauser",
      "inputs": [
        {
          "name": "newPauser",
          "type": "address",
          "internalType": "address"
        },
        {
          "name": "canPause",
          "type": "bool",
          "internalType": "bool"
        }
      ],
      "outputs": [],
      "stateMutability": "nonpayable"
    },
    {
      "type": "function",
      "name": "setUnpauser",
      "inputs": [
        {
          "name": "newUnpauser",
          "type": "address",
          "internalType": "address"
        }
      ],
      "outputs": [],
      "stateMutability": "nonpayable"
    },
    {
      "type": "function",
      "name": "unpauser",
      "inputs": [],
      "outputs": [
        {
          "name": "",
          "type": "address",
          "internalType": "address"
        }
      ],
      "stateMutability": "view"
    },
    {
      "type": "event",
      "name": "PauserStatusChanged",
      "inputs": [
        {
          "name": "pauser",
          "type": "address",
          "indexed": false,
          "internalType": "address"
        },
        {
          "name": "canPause",
          "type": "bool",
          "indexed": false,
          "internalType": "bool"
        }
      ],
      "anonymous": false
    },
    {
      "type": "event",
      "name": "UnpauserChanged",
      "inputs": [
        {
          "name": "previousUnpauser",
          "type": "address",
          "indexed": false,
          "internalType": "address"
        },
        {
          "name": "newUnpauser",
          "type": "address",
          "indexed": false,
          "internalType": "address"
        }
      ],
      "anonymous": false
    },
    {
      "type": "error",
      "name": "InputAddressZero",
      "inputs": []
    },
    {
      "type": "error",
      "name": "OnlyUnpauser",
      "inputs": []
    }
  ],
  "bytecode": {
    "object": "0x608060405234801561001057600080fd5b506040516105e23803806105e283398101604081905261002f916101c8565b60005b825181101561006d57610065838281518110610050576100506102a9565b6020026020010151600161007e60201b60201c565b600101610032565b5061007781610106565b50506102bf565b6001600160a01b0382166100a5576040516339b190bb60e11b815260040160405180910390fd5b6001600160a01b03821660008181526020818152604091829020805460ff19168515159081179091558251938452908301527f65d3a1fd4c13f05cba164f80d03ce90fb4b5e21946bfc3ab7dbd434c2d0b9152910160405180910390a15050565b6001600160a01b03811661012d576040516339b190bb60e11b815260040160405180910390fd5b600154604080516001600160a01b03928316815291831660208301527f06b4167a2528887a1e97a366eefe8549bfbf1ea3e6ac81cb2564a934d20e8892910160405180910390a1600180546001600160a01b0319166001600160a01b0392909216919091179055565b634e487b7160e01b600052604160045260246000fd5b80516001600160a01b03811681146101c357600080fd5b919050565b600080604083850312156101db57600080fd5b82516001600160401b038111156101f157600080fd5b8301601f8101851361020257600080fd5b80516001600160401b0381111561021b5761021b610196565b604051600582901b90603f8201601f191681016001600160401b038111828210171561024957610249610196565b60405291825260208184018101929081018884111561026757600080fd5b6020850194505b8385101561028d5761027f856101ac565b81526020948501940161026e565b5094506102a092505050602084016101ac565b90509250929050565b634e487b7160e01b600052603260045260246000fd5b610314806102ce6000396000f3fe608060405234801561001057600080fd5b506004361061004c5760003560e01c806346fbf68e146100515780638568520614610089578063ce5484281461009e578063eab66d7a146100b1575b600080fd5b61007461005f366004610280565b60006020819052908152604090205460ff1681565b60405190151581526020015b60405180910390f35b61009c6100973660046102a2565b6100dc565b005b61009c6100ac366004610280565b610115565b6001546100c4906001600160a01b031681565b6040516001600160a01b039091168152602001610080565b6001546001600160a01b031633146101075760405163794821ff60e01b815260040160405180910390fd5b610111828261014c565b5050565b6001546001600160a01b031633146101405760405163794821ff60e01b815260040160405180910390fd5b610149816101d4565b50565b6001600160a01b038216610173576040516339b190bb60e11b815260040160405180910390fd5b6001600160a01b03821660008181526020818152604091829020805460ff19168515159081179091558251938452908301527f65d3a1fd4c13f05cba164f80d03ce90fb4b5e21946bfc3ab7dbd434c2d0b9152910160405180910390a15050565b6001600160a01b0381166101fb576040516339b190bb60e11b815260040160405180910390fd5b600154604080516001600160a01b03928316815291831660208301527f06b4167a2528887a1e97a366eefe8549bfbf1ea3e6ac81cb2564a934d20e8892910160405180910390a1600180546001600160a01b0319166001600160a01b0392909216919091179055565b80356001600160a01b038116811461027b57600080fd5b919050565b60006020828403121561029257600080fd5b61029b82610264565b9392505050565b600080604083850312156102b557600080fd5b6102be83610264565b9150602083013580151581146102d357600080fd5b80915050925092905056fea2646970667358221220e165396a512ff2b6e2f77852623a0f3ee43d1eca10d557ff6863e2fc122b475c64736f6c634300081b0033",
    "linkReferences": {}
  },
  "methodIdentifiers": {
    "isPauser(address)": "46fbf68e",
    "setIsPauser(address,bool)": "85685206",
    "setUnpauser(address)": "ce548428",
    "unpauser()": "eab66d7a"
  },
  "id": 155
}