{
  "abi": [
    {
      "type": "constructor",
      "inputs": [
        {
          "name": "_delegationManager",
          "type": "address",
          "internalType": "contract IDelegationManager"
        },
        {
          "name": "_strategyManager",
          "type": "address",
          "internalType": "contract IStrategyManager"
        },
        {
          "name": "_allocationManager",
          "type": "address",
          "internalType": "contract IAllocationManager"
        },
        {
          "name": "_pauserRegistry",
          "type": "address",
          "internalType": "contract IPauserRegistry"
        },
        {
          "name": "_permissionController",
          "type": "address",
          "internalType": "contract IPermissionController"
        },
        {
          "name": "_CALCULATION_INTERVAL_SECONDS",
          "type": "uint32",
          "internalType": "uint32"
        },
        {
          "name": "_MAX_REWARDS_DURATION",
          "type": "uint32",
          "internalType": "uint32"
        },
        {
          "name": "_MAX_RETROACTIVE_LENGTH",
          "type": "uint32",
          "internalType": "uint32"
        },
        {
          "name": "_MAX_FUTURE_LENGTH",
          "type": "uint32",
          "internalType": "uint32"
        },
        {
          "name": "_GENESIS_REWARDS_TIMESTAMP",
          "type": "uint32",
          "internalType": "uint32"
        }
      ],
      "stateMutability": "nonpayable"
    },
    {
      "type": "function",
      "name": "CALCULATION_INTERVAL_SECONDS",
      "inputs": [],
      "outputs": [
        {
          "name": "",
          "type": "uint32",
          "internalType": "uint32"
        }
      ],
      "stateMutability": "view"
    },
    {
      "type": "function",
      "name": "GENESIS_REWARDS_TIMESTAMP",
      "inputs": [],
      "outputs": [
        {
          "name": "",
          "type": "uint32",
          "internalType": "uint32"
        }
      ],
      "stateMutability": "view"
    },
    {
      "type": "function",
      "name": "MAX_FUTURE_LENGTH",
      "inputs": [],
      "outputs": [
        {
          "name": "",
          "type": "uint32",
          "internalType": "uint32"
        }
      ],
      "stateMutability": "view"
    },
    {
      "type": "function",
      "name": "MAX_RETROACTIVE_LENGTH",
      "inputs": [],
      "outputs": [
        {
          "name": "",
          "type": "uint32",
          "internalType": "uint32"
        }
      ],
      "stateMutability": "view"
    },
    {
      "type": "function",
      "name": "MAX_REWARDS_DURATION",
      "inputs": [],
      "outputs": [
        {
          "name": "",
          "type": "uint32",
          "internalType": "uint32"
        }
      ],
      "stateMutability": "view"
    },
    {
      "type": "function",
      "name": "activationDelay",
      "inputs": [],
      "outputs": [
        {
          "name": "",
          "type": "uint32",
          "internalType": "uint32"
        }
      ],
      "stateMutability": "view"
    },
    {
      "type": "function",
      "name": "allocationManager",
      "inputs": [],
      "outputs": [
        {
          "name": "",
          "type": "address",
          "internalType": "contract IAllocationManager"
        }
      ],
      "stateMutability": "view"
    },
    {
      "type": "function",
      "name": "beaconChainETHStrategy",
      "inputs": [],
      "outputs": [
        {
          "name": "",
          "type": "address",
          "internalType": "contract IStrategy"
        }
      ],
      "stateMutability": "view"
    },
    {
      "type": "function",
      "name": "calculateEarnerLeafHash",
      "inputs": [
        {
          "name": "leaf",
          "type": "tuple",
          "internalType": "struct IRewardsCoordinatorTypes.EarnerTreeMerkleLeaf",
          "components": [
            {
              "name": "earner",
              "type": "address",
              "internalType": "address"
            },
            {
              "name": "earnerTokenRoot",
              "type": "bytes32",
              "internalType": "bytes32"
            }
          ]
        }
      ],
      "outputs": [
        {
          "name": "",
          "type": "bytes32",
          "internalType": "bytes32"
        }
      ],
      "stateMutability": "pure"
    },
    {
      "type": "function",
      "name": "calculateTokenLeafHash",
      "inputs": [
        {
          "name": "leaf",
          "type": "tuple",
          "internalType": "struct IRewardsCoordinatorTypes.TokenTreeMerkleLeaf",
          "components": [
            {
              "name": "token",
              "type": "address",
              "internalType": "contract IERC20"
            },
            {
              "name": "cumulativeEarnings",
              "type": "uint256",
              "internalType": "uint256"
            }
          ]
        }
      ],
      "outputs": [
        {
          "name": "",
          "type": "bytes32",
          "internalType": "bytes32"
        }
      ],
      "stateMutability": "pure"
    },
    {
      "type": "function",
      "name": "checkClaim",
      "inputs": [
        {
          "name": "claim",
          "type": "tuple",
          "internalType": "struct IRewardsCoordinatorTypes.RewardsMerkleClaim",
          "components": [
            {
              "name": "rootIndex",
              "type": "uint32",
              "internalType": "uint32"
            },
            {
              "name": "earnerIndex",
              "type": "uint32",
              "internalType": "uint32"
            },
            {
              "name": "earnerTreeProof",
              "type": "bytes",
              "internalType": "bytes"
            },
            {
              "name": "earnerLeaf",
              "type": "tuple",
              "internalType": "struct IRewardsCoordinatorTypes.EarnerTreeMerkleLeaf",
              "components": [
                {
                  "name": "earner",
                  "type": "address",
                  "internalType": "address"
                },
                {
                  "name": "earnerTokenRoot",
                  "type": "bytes32",
                  "internalType": "bytes32"
                }
              ]
            },
            {
              "name": "tokenIndices",
              "type": "uint32[]",
              "internalType": "uint32[]"
            },
            {
              "name": "tokenTreeProofs",
              "type": "bytes[]",
              "internalType": "bytes[]"
            },
            {
              "name": "tokenLeaves",
              "type": "tuple[]",
              "internalType": "struct IRewardsCoordinatorTypes.TokenTreeMerkleLeaf[]",
              "components": [
                {
                  "name": "token",
                  "type": "address",
                  "internalType": "contract IERC20"
                },
                {
                  "name": "cumulativeEarnings",
                  "type": "uint256",
                  "internalType": "uint256"
                }
              ]
            }
          ]
        }
      ],
      "outputs": [
        {
          "name": "",
          "type": "bool",
          "internalType": "bool"
        }
      ],
      "stateMutability": "view"
    },
    {
      "type": "function",
      "name": "claimerFor",
      "inputs": [
        {
          "name": "earner",
          "type": "address",
          "internalType": "address"
        }
      ],
      "outputs": [
        {
          "name": "claimer",
          "type": "address",
          "internalType": "address"
        }
      ],
      "stateMutability": "view"
    },
    {
      "type": "function",
      "name": "createAVSRewardsSubmission",
      "inputs": [
        {
          "name": "rewardsSubmissions",
          "type": "tuple[]",
          "internalType": "struct IRewardsCoordinatorTypes.RewardsSubmission[]",
          "components": [
            {
              "name": "strategiesAndMultipliers",
              "type": "tuple[]",
              "internalType": "struct IRewardsCoordinatorTypes.StrategyAndMultiplier[]",
              "components": [
                {
                  "name": "strategy",
                  "type": "address",
                  "internalType": "contract IStrategy"
                },
                {
                  "name": "multiplier",
                  "type": "uint96",
                  "internalType": "uint96"
                }
              ]
            },
            {
              "name": "token",
              "type": "address",
              "internalType": "contract IERC20"
            },
            {
              "name": "amount",
              "type": "uint256",
              "internalType": "uint256"
            },
            {
              "name": "startTimestamp",
              "type": "uint32",
              "internalType": "uint32"
            },
            {
              "name": "duration",
              "type": "uint32",
              "internalType": "uint32"
            }
          ]
        }
      ],
      "outputs": [],
      "stateMutability": "nonpayable"
    },
    {
      "type": "function",
      "name": "createOperatorDirectedAVSRewardsSubmission",
      "inputs": [
        {
          "name": "avs",
          "type": "address",
          "internalType": "address"
        },
        {
          "name": "operatorDirectedRewardsSubmissions",
          "type": "tuple[]",
          "internalType": "struct IRewardsCoordinatorTypes.OperatorDirectedRewardsSubmission[]",
          "components": [
            {
              "name": "strategiesAndMultipliers",
              "type": "tuple[]",
              "internalType": "struct IRewardsCoordinatorTypes.StrategyAndMultiplier[]",
              "components": [
                {
                  "name": "strategy",
                  "type": "address",
                  "internalType": "contract IStrategy"
                },
                {
                  "name": "multiplier",
                  "type": "uint96",
                  "internalType": "uint96"
                }
              ]
            },
            {
              "name": "token",
              "type": "address",
              "internalType": "contract IERC20"
            },
            {
              "name": "operatorRewards",
              "type": "tuple[]",
              "internalType": "struct IRewardsCoordinatorTypes.OperatorReward[]",
              "components": [
                {
                  "name": "operator",
                  "type": "address",
                  "internalType": "address"
                },
                {
                  "name": "amount",
                  "type": "uint256",
                  "internalType": "uint256"
                }
              ]
            },
            {
              "name": "startTimestamp",
              "type": "uint32",
              "internalType": "uint32"
            },
            {
              "name": "duration",
              "type": "uint32",
              "internalType": "uint32"
            },
            {
              "name": "description",
              "type": "string",
              "internalType": "string"
            }
          ]
        }
      ],
      "outputs": [],
      "stateMutability": "nonpayable"
    },
    {
      "type": "function",
      "name": "createRewardsForAllEarners",
      "inputs": [
        {
          "name": "rewardsSubmissions",
          "type": "tuple[]",
          "internalType": "struct IRewardsCoordinatorTypes.RewardsSubmission[]",
          "components": [
            {
              "name": "strategiesAndMultipliers",
              "type": "tuple[]",
              "internalType": "struct IRewardsCoordinatorTypes.StrategyAndMultiplier[]",
              "components": [
                {
                  "name": "strategy",
                  "type": "address",
                  "internalType": "contract IStrategy"
                },
                {
                  "name": "multiplier",
                  "type": "uint96",
                  "internalType": "uint96"
                }
              ]
            },
            {
              "name": "token",
              "type": "address",
              "internalType": "contract IERC20"
            },
            {
              "name": "amount",
              "type": "uint256",
              "internalType": "uint256"
            },
            {
              "name": "startTimestamp",
              "type": "uint32",
              "internalType": "uint32"
            },
            {
              "name": "duration",
              "type": "uint32",
              "internalType": "uint32"
            }
          ]
        }
      ],
      "outputs": [],
      "stateMutability": "nonpayable"
    },
    {
      "type": "function",
      "name": "createRewardsForAllSubmission",
      "inputs": [
        {
          "name": "rewardsSubmissions",
          "type": "tuple[]",
          "internalType": "struct IRewardsCoordinatorTypes.RewardsSubmission[]",
          "components": [
            {
              "name": "strategiesAndMultipliers",
              "type": "tuple[]",
              "internalType": "struct IRewardsCoordinatorTypes.StrategyAndMultiplier[]",
              "components": [
                {
                  "name": "strategy",
                  "type": "address",
                  "internalType": "contract IStrategy"
                },
                {
                  "name": "multiplier",
                  "type": "uint96",
                  "internalType": "uint96"
                }
              ]
            },
            {
              "name": "token",
              "type": "address",
              "internalType": "contract IERC20"
            },
            {
              "name": "amount",
              "type": "uint256",
              "internalType": "uint256"
            },
            {
              "name": "startTimestamp",
              "type": "uint32",
              "internalType": "uint32"
            },
            {
              "name": "duration",
              "type": "uint32",
              "internalType": "uint32"
            }
          ]
        }
      ],
      "outputs": [],
      "stateMutability": "nonpayable"
    },
    {
      "type": "function",
      "name": "cumulativeClaimed",
      "inputs": [
        {
          "name": "earner",
          "type": "address",
          "internalType": "address"
        },
        {
          "name": "token",
          "type": "address",
          "internalType": "contract IERC20"
        }
      ],
      "outputs": [
        {
          "name": "totalClaimed",
          "type": "uint256",
          "internalType": "uint256"
        }
      ],
      "stateMutability": "view"
    },
    {
      "type": "function",
      "name": "currRewardsCalculationEndTimestamp",
      "inputs": [],
      "outputs": [
        {
          "name": "",
          "type": "uint32",
          "internalType": "uint32"
        }
      ],
      "stateMutability": "view"
    },
    {
      "type": "function",
      "name": "defaultOperatorSplitBips",
      "inputs": [],
      "outputs": [
        {
          "name": "",
          "type": "uint16",
          "internalType": "uint16"
        }
      ],
      "stateMutability": "view"
    },
    {
      "type": "function",
      "name": "delegationManager",
      "inputs": [],
      "outputs": [
        {
          "name": "",
          "type": "address",
          "internalType": "contract IDelegationManager"
        }
      ],
      "stateMutability": "view"
    },
    {
      "type": "function",
      "name": "disableRoot",
      "inputs": [
        {
          "name": "rootIndex",
          "type": "uint32",
          "internalType": "uint32"
        }
      ],
      "outputs": [],
      "stateMutability": "nonpayable"
    },
    {
      "type": "function",
      "name": "getCurrentClaimableDistributionRoot",
      "inputs": [],
      "outputs": [
        {
          "name": "",
          "type": "tuple",
          "internalType": "struct IRewardsCoordinatorTypes.DistributionRoot",
          "components": [
            {
              "name": "root",
              "type": "bytes32",
              "internalType": "bytes32"
            },
            {
              "name": "rewardsCalculationEndTimestamp",
              "type": "uint32",
              "internalType": "uint32"
            },
            {
              "name": "activatedAt",
              "type": "uint32",
              "internalType": "uint32"
            },
            {
              "name": "disabled",
              "type": "bool",
              "internalType": "bool"
            }
          ]
        }
      ],
      "stateMutability": "view"
    },
    {
      "type": "function",
      "name": "getCurrentDistributionRoot",
      "inputs": [],
      "outputs": [
        {
          "name": "",
          "type": "tuple",
          "internalType": "struct IRewardsCoordinatorTypes.DistributionRoot",
          "components": [
            {
              "name": "root",
              "type": "bytes32",
              "internalType": "bytes32"
            },
            {
              "name": "rewardsCalculationEndTimestamp",
              "type": "uint32",
              "internalType": "uint32"
            },
            {
              "name": "activatedAt",
              "type": "uint32",
              "internalType": "uint32"
            },
            {
              "name": "disabled",
              "type": "bool",
              "internalType": "bool"
            }
          ]
        }
      ],
      "stateMutability": "view"
    },
    {
      "type": "function",
      "name": "getDistributionRootAtIndex",
      "inputs": [
        {
          "name": "index",
          "type": "uint256",
          "internalType": "uint256"
        }
      ],
      "outputs": [
        {
          "name": "",
          "type": "tuple",
          "internalType": "struct IRewardsCoordinatorTypes.DistributionRoot",
          "components": [
            {
              "name": "root",
              "type": "bytes32",
              "internalType": "bytes32"
            },
            {
              "name": "rewardsCalculationEndTimestamp",
              "type": "uint32",
              "internalType": "uint32"
            },
            {
              "name": "activatedAt",
              "type": "uint32",
              "internalType": "uint32"
            },
            {
              "name": "disabled",
              "type": "bool",
              "internalType": "bool"
            }
          ]
        }
      ],
      "stateMutability": "view"
    },
    {
      "type": "function",
      "name": "getDistributionRootsLength",
      "inputs": [],
      "outputs": [
        {
          "name": "",
          "type": "uint256",
          "internalType": "uint256"
        }
      ],
      "stateMutability": "view"
    },
    {
      "type": "function",
      "name": "getOperatorAVSSplit",
      "inputs": [
        {
          "name": "operator",
          "type": "address",
          "internalType": "address"
        },
        {
          "name": "avs",
          "type": "address",
          "internalType": "address"
        }
      ],
      "outputs": [
        {
          "name": "",
          "type": "uint16",
          "internalType": "uint16"
        }
      ],
      "stateMutability": "view"
    },
    {
      "type": "function",
      "name": "getOperatorPISplit",
      "inputs": [
        {
          "name": "operator",
          "type": "address",
          "internalType": "address"
        }
      ],
      "outputs": [
        {
          "name": "",
          "type": "uint16",
          "internalType": "uint16"
        }
      ],
      "stateMutability": "view"
    },
    {
      "type": "function",
      "name": "getRootIndexFromHash",
      "inputs": [
        {
          "name": "rootHash",
          "type": "bytes32",
          "internalType": "bytes32"
        }
      ],
      "outputs": [
        {
          "name": "",
          "type": "uint32",
          "internalType": "uint32"
        }
      ],
      "stateMutability": "view"
    },
    {
      "type": "function",
      "name": "initialize",
      "inputs": [
        {
          "name": "initialOwner",
          "type": "address",
          "internalType": "address"
        },
        {
          "name": "initialPausedStatus",
          "type": "uint256",
          "internalType": "uint256"
        },
        {
          "name": "_rewardsUpdater",
          "type": "address",
          "internalType": "address"
        },
        {
          "name": "_activationDelay",
          "type": "uint32",
          "internalType": "uint32"
        },
        {
          "name": "_defaultSplitBips",
          "type": "uint16",
          "internalType": "uint16"
        }
      ],
      "outputs": [],
      "stateMutability": "nonpayable"
    },
    {
      "type": "function",
      "name": "isAVSRewardsSubmissionHash",
      "inputs": [
        {
          "name": "avs",
          "type": "address",
          "internalType": "address"
        },
        {
          "name": "hash",
          "type": "bytes32",
          "internalType": "bytes32"
        }
      ],
      "outputs": [
        {
          "name": "valid",
          "type": "bool",
          "internalType": "bool"
        }
      ],
      "stateMutability": "view"
    },
    {
      "type": "function",
      "name": "isOperatorDirectedAVSRewardsSubmissionHash",
      "inputs": [
        {
          "name": "",
          "type": "address",
          "internalType": "address"
        },
        {
          "name": "",
          "type": "bytes32",
          "internalType": "bytes32"
        }
      ],
      "outputs": [
        {
          "name": "",
          "type": "bool",
          "internalType": "bool"
        }
      ],
      "stateMutability": "view"
    },
    {
      "type": "function",
      "name": "isRewardsForAllSubmitter",
      "inputs": [
        {
          "name": "submitter",
          "type": "address",
          "internalType": "address"
        }
      ],
      "outputs": [
        {
          "name": "valid",
          "type": "bool",
          "internalType": "bool"
        }
      ],
      "stateMutability": "view"
    },
    {
      "type": "function",
      "name": "isRewardsSubmissionForAllEarnersHash",
      "inputs": [
        {
          "name": "avs",
          "type": "address",
          "internalType": "address"
        },
        {
          "name": "hash",
          "type": "bytes32",
          "internalType": "bytes32"
        }
      ],
      "outputs": [
        {
          "name": "valid",
          "type": "bool",
          "internalType": "bool"
        }
      ],
      "stateMutability": "view"
    },
    {
      "type": "function",
      "name": "isRewardsSubmissionForAllHash",
      "inputs": [
        {
          "name": "avs",
          "type": "address",
          "internalType": "address"
        },
        {
          "name": "hash",
          "type": "bytes32",
          "internalType": "bytes32"
        }
      ],
      "outputs": [
        {
          "name": "valid",
          "type": "bool",
          "internalType": "bool"
        }
      ],
      "stateMutability": "view"
    },
    {
      "type": "function",
      "name": "owner",
      "inputs": [],
      "outputs": [
        {
          "name": "",
          "type": "address",
          "internalType": "address"
        }
      ],
      "stateMutability": "view"
    },
    {
      "type": "function",
      "name": "pause",
      "inputs": [
        {
          "name": "newPausedStatus",
          "type": "uint256",
          "internalType": "uint256"
        }
      ],
      "outputs": [],
      "stateMutability": "nonpayable"
    },
    {
      "type": "function",
      "name": "pauseAll",
      "inputs": [],
      "outputs": [],
      "stateMutability": "nonpayable"
    },
    {
      "type": "function",
      "name": "paused",
      "inputs": [
        {
          "name": "index",
          "type": "uint8",
          "internalType": "uint8"
        }
      ],
      "outputs": [
        {
          "name": "",
          "type": "bool",
          "internalType": "bool"
        }
      ],
      "stateMutability": "view"
    },
    {
      "type": "function",
      "name": "paused",
      "inputs": [],
      "outputs": [
        {
          "name": "",
          "type": "uint256",
          "internalType": "uint256"
        }
      ],
      "stateMutability": "view"
    },
    {
      "type": "function",
      "name": "pauserRegistry",
      "inputs": [],
      "outputs": [
        {
          "name": "",
          "type": "address",
          "internalType": "contract IPauserRegistry"
        }
      ],
      "stateMutability": "view"
    },
    {
      "type": "function",
      "name": "permissionController",
      "inputs": [],
      "outputs": [
        {
          "name": "",
          "type": "address",
          "internalType": "contract IPermissionController"
        }
      ],
      "stateMutability": "view"
    },
    {
      "type": "function",
      "name": "processClaim",
      "inputs": [
        {
          "name": "claim",
          "type": "tuple",
          "internalType": "struct IRewardsCoordinatorTypes.RewardsMerkleClaim",
          "components": [
            {
              "name": "rootIndex",
              "type": "uint32",
              "internalType": "uint32"
            },
            {
              "name": "earnerIndex",
              "type": "uint32",
              "internalType": "uint32"
            },
            {
              "name": "earnerTreeProof",
              "type": "bytes",
              "internalType": "bytes"
            },
            {
              "name": "earnerLeaf",
              "type": "tuple",
              "internalType": "struct IRewardsCoordinatorTypes.EarnerTreeMerkleLeaf",
              "components": [
                {
                  "name": "earner",
                  "type": "address",
                  "internalType": "address"
                },
                {
                  "name": "earnerTokenRoot",
                  "type": "bytes32",
                  "internalType": "bytes32"
                }
              ]
            },
            {
              "name": "tokenIndices",
              "type": "uint32[]",
              "internalType": "uint32[]"
            },
            {
              "name": "tokenTreeProofs",
              "type": "bytes[]",
              "internalType": "bytes[]"
            },
            {
              "name": "tokenLeaves",
              "type": "tuple[]",
              "internalType": "struct IRewardsCoordinatorTypes.TokenTreeMerkleLeaf[]",
              "components": [
                {
                  "name": "token",
                  "type": "address",
                  "internalType": "contract IERC20"
                },
                {
                  "name": "cumulativeEarnings",
                  "type": "uint256",
                  "internalType": "uint256"
                }
              ]
            }
          ]
        },
        {
          "name": "recipient",
          "type": "address",
          "internalType": "address"
        }
      ],
      "outputs": [],
      "stateMutability": "nonpayable"
    },
    {
      "type": "function",
      "name": "processClaims",
      "inputs": [
        {
          "name": "claims",
          "type": "tuple[]",
          "internalType": "struct IRewardsCoordinatorTypes.RewardsMerkleClaim[]",
          "components": [
            {
              "name": "rootIndex",
              "type": "uint32",
              "internalType": "uint32"
            },
            {
              "name": "earnerIndex",
              "type": "uint32",
              "internalType": "uint32"
            },
            {
              "name": "earnerTreeProof",
              "type": "bytes",
              "internalType": "bytes"
            },
            {
              "name": "earnerLeaf",
              "type": "tuple",
              "internalType": "struct IRewardsCoordinatorTypes.EarnerTreeMerkleLeaf",
              "components": [
                {
                  "name": "earner",
                  "type": "address",
                  "internalType": "address"
                },
                {
                  "name": "earnerTokenRoot",
                  "type": "bytes32",
                  "internalType": "bytes32"
                }
              ]
            },
            {
              "name": "tokenIndices",
              "type": "uint32[]",
              "internalType": "uint32[]"
            },
            {
              "name": "tokenTreeProofs",
              "type": "bytes[]",
              "internalType": "bytes[]"
            },
            {
              "name": "tokenLeaves",
              "type": "tuple[]",
              "internalType": "struct IRewardsCoordinatorTypes.TokenTreeMerkleLeaf[]",
              "components": [
                {
                  "name": "token",
                  "type": "address",
                  "internalType": "contract IERC20"
                },
                {
                  "name": "cumulativeEarnings",
                  "type": "uint256",
                  "internalType": "uint256"
                }
              ]
            }
          ]
        },
        {
          "name": "recipient",
          "type": "address",
          "internalType": "address"
        }
      ],
      "outputs": [],
      "stateMutability": "nonpayable"
    },
    {
      "type": "function",
      "name": "renounceOwnership",
      "inputs": [],
      "outputs": [],
      "stateMutability": "nonpayable"
    },
    {
      "type": "function",
      "name": "rewardsUpdater",
      "inputs": [],
      "outputs": [
        {
          "name": "",
          "type": "address",
          "internalType": "address"
        }
      ],
      "stateMutability": "view"
    },
    {
      "type": "function",
      "name": "setActivationDelay",
      "inputs": [
        {
          "name": "_activationDelay",
          "type": "uint32",
          "internalType": "uint32"
        }
      ],
      "outputs": [],
      "stateMutability": "nonpayable"
    },
    {
      "type": "function",
      "name": "setClaimerFor",
      "inputs": [
        {
          "name": "claimer",
          "type": "address",
          "internalType": "address"
        }
      ],
      "outputs": [],
      "stateMutability": "nonpayable"
    },
    {
      "type": "function",
      "name": "setClaimerFor",
      "inputs": [
        {
          "name": "earner",
          "type": "address",
          "internalType": "address"
        },
        {
          "name": "claimer",
          "type": "address",
          "internalType": "address"
        }
      ],
      "outputs": [],
      "stateMutability": "nonpayable"
    },
    {
      "type": "function",
      "name": "setDefaultOperatorSplit",
      "inputs": [
        {
          "name": "split",
          "type": "uint16",
          "internalType": "uint16"
        }
      ],
      "outputs": [],
      "stateMutability": "nonpayable"
    },
    {
      "type": "function",
      "name": "setOperatorAVSSplit",
      "inputs": [
        {
          "name": "operator",
          "type": "address",
          "internalType": "address"
        },
        {
          "name": "avs",
          "type": "address",
          "internalType": "address"
        },
        {
          "name": "split",
          "type": "uint16",
          "internalType": "uint16"
        }
      ],
      "outputs": [],
      "stateMutability": "nonpayable"
    },
    {
      "type": "function",
      "name": "setOperatorPISplit",
      "inputs": [
        {
          "name": "operator",
          "type": "address",
          "internalType": "address"
        },
        {
          "name": "split",
          "type": "uint16",
          "internalType": "uint16"
        }
      ],
      "outputs": [],
      "stateMutability": "nonpayable"
    },
    {
      "type": "function",
      "name": "setRewardsForAllSubmitter",
      "inputs": [
        {
          "name": "_submitter",
          "type": "address",
          "internalType": "address"
        },
        {
          "name": "_newValue",
          "type": "bool",
          "internalType": "bool"
        }
      ],
      "outputs": [],
      "stateMutability": "nonpayable"
    },
    {
      "type": "function",
      "name": "setRewardsUpdater",
      "inputs": [
        {
          "name": "_rewardsUpdater",
          "type": "address",
          "internalType": "address"
        }
      ],
      "outputs": [],
      "stateMutability": "nonpayable"
    },
    {
      "type": "function",
      "name": "strategyManager",
      "inputs": [],
      "outputs": [
        {
          "name": "",
          "type": "address",
          "internalType": "contract IStrategyManager"
        }
      ],
      "stateMutability": "view"
    },
    {
      "type": "function",
      "name": "submissionNonce",
      "inputs": [
        {
          "name": "avs",
          "type": "address",
          "internalType": "address"
        }
      ],
      "outputs": [
        {
          "name": "nonce",
          "type": "uint256",
          "internalType": "uint256"
        }
      ],
      "stateMutability": "view"
    },
    {
      "type": "function",
      "name": "submitRoot",
      "inputs": [
        {
          "name": "root",
          "type": "bytes32",
          "internalType": "bytes32"
        },
        {
          "name": "rewardsCalculationEndTimestamp",
          "type": "uint32",
          "internalType": "uint32"
        }
      ],
      "outputs": [],
      "stateMutability": "nonpayable"
    },
    {
      "type": "function",
      "name": "transferOwnership",
      "inputs": [
        {
          "name": "newOwner",
          "type": "address",
          "internalType": "address"
        }
      ],
      "outputs": [],
      "stateMutability": "nonpayable"
    },
    {
      "type": "function",
      "name": "unpause",
      "inputs": [
        {
          "name": "newPausedStatus",
          "type": "uint256",
          "internalType": "uint256"
        }
      ],
      "outputs": [],
      "stateMutability": "nonpayable"
    },
    {
      "type": "event",
      "name": "AVSRewardsSubmissionCreated",
      "inputs": [
        {
          "name": "avs",
          "type": "address",
          "indexed": true,
          "internalType": "address"
        },
        {
          "name": "submissionNonce",
          "type": "uint256",
          "indexed": true,
          "internalType": "uint256"
        },
        {
          "name": "rewardsSubmissionHash",
          "type": "bytes32",
          "indexed": true,
          "internalType": "bytes32"
        },
        {
          "name": "rewardsSubmission",
          "type": "tuple",
          "indexed": false,
          "internalType": "struct IRewardsCoordinatorTypes.RewardsSubmission",
          "components": [
            {
              "name": "strategiesAndMultipliers",
              "type": "tuple[]",
              "internalType": "struct IRewardsCoordinatorTypes.StrategyAndMultiplier[]",
              "components": [
                {
                  "name": "strategy",
                  "type": "address",
                  "internalType": "contract IStrategy"
                },
                {
                  "name": "multiplier",
                  "type": "uint96",
                  "internalType": "uint96"
                }
              ]
            },
            {
              "name": "token",
              "type": "address",
              "internalType": "contract IERC20"
            },
            {
              "name": "amount",
              "type": "uint256",
              "internalType": "uint256"
            },
            {
              "name": "startTimestamp",
              "type": "uint32",
              "internalType": "uint32"
            },
            {
              "name": "duration",
              "type": "uint32",
              "internalType": "uint32"
            }
          ]
        }
      ],
      "anonymous": false
    },
    {
      "type": "event",
      "name": "ActivationDelaySet",
      "inputs": [
        {
          "name": "oldActivationDelay",
          "type": "uint32",
          "indexed": false,
          "internalType": "uint32"
        },
        {
          "name": "newActivationDelay",
          "type": "uint32",
          "indexed": false,
          "internalType": "uint32"
        }
      ],
      "anonymous": false
    },
    {
      "type": "event",
      "name": "ClaimerForSet",
      "inputs": [
        {
          "name": "earner",
          "type": "address",
          "indexed": true,
          "internalType": "address"
        },
        {
          "name": "oldClaimer",
          "type": "address",
          "indexed": true,
          "internalType": "address"
        },
        {
          "name": "claimer",
          "type": "address",
          "indexed": true,
          "internalType": "address"
        }
      ],
      "anonymous": false
    },
    {
      "type": "event",
      "name": "DefaultOperatorSplitBipsSet",
      "inputs": [
        {
          "name": "oldDefaultOperatorSplitBips",
          "type": "uint16",
          "indexed": false,
          "internalType": "uint16"
        },
        {
          "name": "newDefaultOperatorSplitBips",
          "type": "uint16",
          "indexed": false,
          "internalType": "uint16"
        }
      ],
      "anonymous": false
    },
    {
      "type": "event",
      "name": "DistributionRootDisabled",
      "inputs": [
        {
          "name": "rootIndex",
          "type": "uint32",
          "indexed": true,
          "internalType": "uint32"
        }
      ],
      "anonymous": false
    },
    {
      "type": "event",
      "name": "DistributionRootSubmitted",
      "inputs": [
        {
          "name": "rootIndex",
          "type": "uint32",
          "indexed": true,
          "internalType": "uint32"
        },
        {
          "name": "root",
          "type": "bytes32",
          "indexed": true,
          "internalType": "bytes32"
        },
        {
          "name": "rewardsCalculationEndTimestamp",
          "type": "uint32",
          "indexed": true,
          "internalType": "uint32"
        },
        {
          "name": "activatedAt",
          "type": "uint32",
          "indexed": false,
          "internalType": "uint32"
        }
      ],
      "anonymous": false
    },
    {
      "type": "event",
      "name": "Initialized",
      "inputs": [
        {
          "name": "version",
          "type": "uint8",
          "indexed": false,
          "internalType": "uint8"
        }
      ],
      "anonymous": false
    },
    {
      "type": "event",
      "name": "OperatorAVSSplitBipsSet",
      "inputs": [
        {
          "name": "caller",
          "type": "address",
          "indexed": true,
          "internalType": "address"
        },
        {
          "name": "operator",
          "type": "address",
          "indexed": true,
          "internalType": "address"
        },
        {
          "name": "avs",
          "type": "address",
          "indexed": true,
          "internalType": "address"
        },
        {
          "name": "activatedAt",
          "type": "uint32",
          "indexed": false,
          "internalType": "uint32"
        },
        {
          "name": "oldOperatorAVSSplitBips",
          "type": "uint16",
          "indexed": false,
          "internalType": "uint16"
        },
        {
          "name": "newOperatorAVSSplitBips",
          "type": "uint16",
          "indexed": false,
          "internalType": "uint16"
        }
      ],
      "anonymous": false
    },
    {
      "type": "event",
      "name": "OperatorDirectedAVSRewardsSubmissionCreated",
      "inputs": [
        {
          "name": "caller",
          "type": "address",
          "indexed": true,
          "internalType": "address"
        },
        {
          "name": "avs",
          "type": "address",
          "indexed": true,
          "internalType": "address"
        },
        {
          "name": "operatorDirectedRewardsSubmissionHash",
          "type": "bytes32",
          "indexed": true,
          "internalType": "bytes32"
        },
        {
          "name": "submissionNonce",
          "type": "uint256",
          "indexed": false,
          "internalType": "uint256"
        },
        {
          "name": "operatorDirectedRewardsSubmission",
          "type": "tuple",
          "indexed": false,
          "internalType": "struct IRewardsCoordinatorTypes.OperatorDirectedRewardsSubmission",
          "components": [
            {
              "name": "strategiesAndMultipliers",
              "type": "tuple[]",
              "internalType": "struct IRewardsCoordinatorTypes.StrategyAndMultiplier[]",
              "components": [
                {
                  "name": "strategy",
                  "type": "address",
                  "internalType": "contract IStrategy"
                },
                {
                  "name": "multiplier",
                  "type": "uint96",
                  "internalType": "uint96"
                }
              ]
            },
            {
              "name": "token",
              "type": "address",
              "internalType": "contract IERC20"
            },
            {
              "name": "operatorRewards",
              "type": "tuple[]",
              "internalType": "struct IRewardsCoordinatorTypes.OperatorReward[]",
              "components": [
                {
                  "name": "operator",
                  "type": "address",
                  "internalType": "address"
                },
                {
                  "name": "amount",
                  "type": "uint256",
                  "internalType": "uint256"
                }
              ]
            },
            {
              "name": "startTimestamp",
              "type": "uint32",
              "internalType": "uint32"
            },
            {
              "name": "duration",
              "type": "uint32",
              "internalType": "uint32"
            },
            {
              "name": "description",
              "type": "string",
              "internalType": "string"
            }
          ]
        }
      ],
      "anonymous": false
    },
    {
      "type": "event",
      "name": "OperatorPISplitBipsSet",
      "inputs": [
        {
          "name": "caller",
          "type": "address",
          "indexed": true,
          "internalType": "address"
        },
        {
          "name": "operator",
          "type": "address",
          "indexed": true,
          "internalType": "address"
        },
        {
          "name": "activatedAt",
          "type": "uint32",
          "indexed": false,
          "internalType": "uint32"
        },
        {
          "name": "oldOperatorPISplitBips",
          "type": "uint16",
          "indexed": false,
          "internalType": "uint16"
        },
        {
          "name": "newOperatorPISplitBips",
          "type": "uint16",
          "indexed": false,
          "internalType": "uint16"
        }
      ],
      "anonymous": false
    },
    {
      "type": "event",
      "name": "OwnershipTransferred",
      "inputs": [
        {
          "name": "previousOwner",
          "type": "address",
          "indexed": true,
          "internalType": "address"
        },
        {
          "name": "newOwner",
          "type": "address",
          "indexed": true,
          "internalType": "address"
        }
      ],
      "anonymous": false
    },
    {
      "type": "event",
      "name": "Paused",
      "inputs": [
        {
          "name": "account",
          "type": "address",
          "indexed": true,
          "internalType": "address"
        },
        {
          "name": "newPausedStatus",
          "type": "uint256",
          "indexed": false,
          "internalType": "uint256"
        }
      ],
      "anonymous": false
    },
    {
      "type": "event",
      "name": "RewardsClaimed",
      "inputs": [
        {
          "name": "root",
          "type": "bytes32",
          "indexed": false,
          "internalType": "bytes32"
        },
        {
          "name": "earner",
          "type": "address",
          "indexed": true,
          "internalType": "address"
        },
        {
          "name": "claimer",
          "type": "address",
          "indexed": true,
          "internalType": "address"
        },
        {
          "name": "recipient",
          "type": "address",
          "indexed": true,
          "internalType": "address"
        },
        {
          "name": "token",
          "type": "address",
          "indexed": false,
          "internalType": "contract IERC20"
        },
        {
          "name": "claimedAmount",
          "type": "uint256",
          "indexed": false,
          "internalType": "uint256"
        }
      ],
      "anonymous": false
    },
    {
      "type": "event",
      "name": "RewardsForAllSubmitterSet",
      "inputs": [
        {
          "name": "rewardsForAllSubmitter",
          "type": "address",
          "indexed": true,
          "internalType": "address"
        },
        {
          "name": "oldValue",
          "type": "bool",
          "indexed": true,
          "internalType": "bool"
        },
        {
          "name": "newValue",
          "type": "bool",
          "indexed": true,
          "internalType": "bool"
        }
      ],
      "anonymous": false
    },
    {
      "type": "event",
      "name": "RewardsSubmissionForAllCreated",
      "inputs": [
        {
          "name": "submitter",
          "type": "address",
          "indexed": true,
          "internalType": "address"
        },
        {
          "name": "submissionNonce",
          "type": "uint256",
          "indexed": true,
          "internalType": "uint256"
        },
        {
          "name": "rewardsSubmissionHash",
          "type": "bytes32",
          "indexed": true,
          "internalType": "bytes32"
        },
        {
          "name": "rewardsSubmission",
          "type": "tuple",
          "indexed": false,
          "internalType": "struct IRewardsCoordinatorTypes.RewardsSubmission",
          "components": [
            {
              "name": "strategiesAndMultipliers",
              "type": "tuple[]",
              "internalType": "struct IRewardsCoordinatorTypes.StrategyAndMultiplier[]",
              "components": [
                {
                  "name": "strategy",
                  "type": "address",
                  "internalType": "contract IStrategy"
                },
                {
                  "name": "multiplier",
                  "type": "uint96",
                  "internalType": "uint96"
                }
              ]
            },
            {
              "name": "token",
              "type": "address",
              "internalType": "contract IERC20"
            },
            {
              "name": "amount",
              "type": "uint256",
              "internalType": "uint256"
            },
            {
              "name": "startTimestamp",
              "type": "uint32",
              "internalType": "uint32"
            },
            {
              "name": "duration",
              "type": "uint32",
              "internalType": "uint32"
            }
          ]
        }
      ],
      "anonymous": false
    },
    {
      "type": "event",
      "name": "RewardsSubmissionForAllEarnersCreated",
      "inputs": [
        {
          "name": "tokenHopper",
          "type": "address",
          "indexed": true,
          "internalType": "address"
        },
        {
          "name": "submissionNonce",
          "type": "uint256",
          "indexed": true,
          "internalType": "uint256"
        },
        {
          "name": "rewardsSubmissionHash",
          "type": "bytes32",
          "indexed": true,
          "internalType": "bytes32"
        },
        {
          "name": "rewardsSubmission",
          "type": "tuple",
          "indexed": false,
          "internalType": "struct IRewardsCoordinatorTypes.RewardsSubmission",
          "components": [
            {
              "name": "strategiesAndMultipliers",
              "type": "tuple[]",
              "internalType": "struct IRewardsCoordinatorTypes.StrategyAndMultiplier[]",
              "components": [
                {
                  "name": "strategy",
                  "type": "address",
                  "internalType": "contract IStrategy"
                },
                {
                  "name": "multiplier",
                  "type": "uint96",
                  "internalType": "uint96"
                }
              ]
            },
            {
              "name": "token",
              "type": "address",
              "internalType": "contract IERC20"
            },
            {
              "name": "amount",
              "type": "uint256",
              "internalType": "uint256"
            },
            {
              "name": "startTimestamp",
              "type": "uint32",
              "internalType": "uint32"
            },
            {
              "name": "duration",
              "type": "uint32",
              "internalType": "uint32"
            }
          ]
        }
      ],
      "anonymous": false
    },
    {
      "type": "event",
      "name": "RewardsUpdaterSet",
      "inputs": [
        {
          "name": "oldRewardsUpdater",
          "type": "address",
          "indexed": true,
          "internalType": "address"
        },
        {
          "name": "newRewardsUpdater",
          "type": "address",
          "indexed": true,
          "internalType": "address"
        }
      ],
      "anonymous": false
    },
    {
      "type": "event",
      "name": "Unpaused",
      "inputs": [
        {
          "name": "account",
          "type": "address",
          "indexed": true,
          "internalType": "address"
        },
        {
          "name": "newPausedStatus",
          "type": "uint256",
          "indexed": false,
          "internalType": "uint256"
        }
      ],
      "anonymous": false
    },
    {
      "type": "error",
      "name": "AmountExceedsMax",
      "inputs": []
    },
    {
      "type": "error",
      "name": "AmountIsZero",
      "inputs": []
    },
    {
      "type": "error",
      "name": "CurrentlyPaused",
      "inputs": []
    },
    {
      "type": "error",
      "name": "DurationExceedsMax",
      "inputs": []
    },
    {
      "type": "error",
      "name": "EarningsNotGreaterThanClaimed",
      "inputs": []
    },
    {
      "type": "error",
      "name": "InputAddressZero",
      "inputs": []
    },
    {
      "type": "error",
      "name": "InputArrayLengthMismatch",
      "inputs": []
    },
    {
      "type": "error",
      "name": "InputArrayLengthZero",
      "inputs": []
    },
    {
      "type": "error",
      "name": "InvalidAddressZero",
      "inputs": []
    },
    {
      "type": "error",
      "name": "InvalidCalculationIntervalSecondsRemainder",
      "inputs": []
    },
    {
      "type": "error",
      "name": "InvalidClaimProof",
      "inputs": []
    },
    {
      "type": "error",
      "name": "InvalidDurationRemainder",
      "inputs": []
    },
    {
      "type": "error",
      "name": "InvalidEarner",
      "inputs": []
    },
    {
      "type": "error",
      "name": "InvalidEarnerLeafIndex",
      "inputs": []
    },
    {
      "type": "error",
      "name": "InvalidGenesisRewardsTimestampRemainder",
      "inputs": []
    },
    {
      "type": "error",
      "name": "InvalidNewPausedStatus",
      "inputs": []
    },
    {
      "type": "error",
      "name": "InvalidPermissions",
      "inputs": []
    },
    {
      "type": "error",
      "name": "InvalidProofLength",
      "inputs": []
    },
    {
      "type": "error",
      "name": "InvalidRoot",
      "inputs": []
    },
    {
      "type": "error",
      "name": "InvalidRootIndex",
      "inputs": []
    },
    {
      "type": "error",
      "name": "InvalidStartTimestampRemainder",
      "inputs": []
    },
    {
      "type": "error",
      "name": "InvalidTokenLeafIndex",
      "inputs": []
    },
    {
      "type": "error",
      "name": "NewRootMustBeForNewCalculatedPeriod",
      "inputs": []
    },
    {
      "type": "error",
      "name": "OnlyPauser",
      "inputs": []
    },
    {
      "type": "error",
      "name": "OnlyUnpauser",
      "inputs": []
    },
    {
      "type": "error",
      "name": "OperatorsNotInAscendingOrder",
      "inputs": []
    },
    {
      "type": "error",
      "name": "PreviousSplitPending",
      "inputs": []
    },
    {
      "type": "error",
      "name": "RewardsEndTimestampNotElapsed",
      "inputs": []
    },
    {
      "type": "error",
      "name": "RootAlreadyActivated",
      "inputs": []
    },
    {
      "type": "error",
      "name": "RootDisabled",
      "inputs": []
    },
    {
      "type": "error",
      "name": "RootNotActivated",
      "inputs": []
    },
    {
      "type": "error",
      "name": "SplitExceedsMax",
      "inputs": []
    },
    {
      "type": "error",
      "name": "StartTimestampTooFarInFuture",
      "inputs": []
    },
    {
      "type": "error",
      "name": "StartTimestampTooFarInPast",
      "inputs": []
    },
    {
      "type": "error",
      "name": "StrategiesNotInAscendingOrder",
      "inputs": []
    },
    {
      "type": "error",
      "name": "StrategyNotWhitelisted",
      "inputs": []
    },
    {
      "type": "error",
      "name": "SubmissionNotRetroactive",
      "inputs": []
    },
    {
      "type": "error",
      "name": "UnauthorizedCaller",
      "inputs": []
    }
  ],
  "bytecode": {
    "object": "0x6101c060405234801561001157600080fd5b5060405161442738038061442783398101604081905261003091610217565b858a8a8a88888888888f6001600160a01b038116610061576040516339b190bb60e11b815260040160405180910390fd5b6001600160a01b031660805261007785826102df565b63ffffffff161561009b57604051630e06bd3160e01b815260040160405180910390fd5b6100a862015180866102df565b63ffffffff16156100cc5760405163223c7b3960e11b815260040160405180910390fd5b6001600160a01b0397881660a05295871660c05293861660e05263ffffffff9283166101005290821661012052811661014052908116610160521661018052166101a052610118610127565b50505050505050505050610315565b600054610100900460ff16156101935760405162461bcd60e51b815260206004820152602760248201527f496e697469616c697a61626c653a20636f6e747261637420697320696e697469604482015266616c697a696e6760c81b606482015260840160405180910390fd5b60005460ff908116146101e4576000805460ff191660ff9081179091556040519081527f7f26b83ff96e1f2b6a682f133852f6798a09c465da95921460cefb38474024989060200160405180910390a15b565b6001600160a01b03811681146101fb57600080fd5b50565b805163ffffffff8116811461021257600080fd5b919050565b6000806000806000806000806000806101408b8d03121561023757600080fd5b8a51610242816101e6565b60208c0151909a50610253816101e6565b60408c0151909950610264816101e6565b60608c0151909850610275816101e6565b60808c0151909750610286816101e6565b955061029460a08c016101fe565b94506102a260c08c016101fe565b93506102b060e08c016101fe565b92506102bf6101008c016101fe565b91506102ce6101208c016101fe565b90509295989b9194979a5092959850565b600063ffffffff83168061030357634e487b7160e01b600052601260045260246000fd5b8063ffffffff84160691505092915050565b60805160a05160c05160e05161010051610120516101405161016051610180516101a05161403c6103eb600039600081816105bb0152612a8b01526000818161046e0152612fbe0152600081816103cf01526123e401526000818161051d0152612f7c0152600081816108250152612e8c01526000818161077701528181612edc0152612f2a01526000818161087a0152611abe015260008181610544015261305b0152600081816108ed0152611a2b01526000818161070901528181610b83015281816111a20152611e70015261403c6000f3fe608060405234801561001057600080fd5b506004361061038d5760003560e01c8063886f1195116101de578063dcbb03b31161010f578063f2fde38b116100ad578063fabc1cbc1161007c578063fabc1cbc1461099c578063fbf1e2c1146109af578063fce36c7d146109c2578063ff9f6cce146109d557600080fd5b8063f2fde38b14610950578063f6efbb5914610963578063f8cd844814610976578063f96abf2e1461098957600080fd5b8063e810ce21116100e9578063e810ce21146108d5578063ea4d3c9b146108e8578063ed71e6a21461090f578063f22cef851461093d57600080fd5b8063dcbb03b31461089c578063de02e503146108af578063e063f81f146108c257600080fd5b8063a50a1d9c1161017c578063bb7e451f11610156578063bb7e451f14610800578063bf21a8aa14610820578063c46db60614610847578063ca8aa7c71461087557600080fd5b8063a50a1d9c146107ac578063aebd8bae146107bf578063b3dbb0e0146107ed57600080fd5b80639be3d4e4116101b85780639be3d4e4146107575780639cb9a5fa1461075f5780639d45c28114610772578063a0169ddd1461079957600080fd5b8063886f1195146107045780638da5cb5b1461072b5780639104c3191461073c57600080fd5b80634596021c116102c35780635c975abb11610261578063715018a611610230578063715018a6146106b65780637b8f8b05146106be578063863cb9a9146106c6578063865c6953146106d957600080fd5b80635c975abb146106585780635e9d83481461066057806363f6a798146106735780636d21117e1461068857600080fd5b80634d18cc351161029d5780634d18cc351461060357806358baaa3e1461061a578063595c6a671461062d5780635ac86ab71461063557600080fd5b80634596021c146105a35780634657e26a146105b65780634b943960146105dd57600080fd5b80632b9f64a41161033057806339b70e381161030a57806339b70e381461053f5780633a8c0786146105665780633ccc861d1461057d5780633efe1db61461059057600080fd5b80632b9f64a4146104c457806336af41fa1461050557806337838ed01461051857600080fd5b80630eb383451161036c5780630eb3834514610454578063131433b414610469578063136439dd14610490578063149bc872146104a357600080fd5b806218572c1461039257806304a0c502146103ca5780630e9a53cf14610406575b600080fd5b6103b56103a036600461358c565b60d16020526000908152604090205460ff1681565b60405190151581526020015b60405180910390f35b6103f17f000000000000000000000000000000000000000000000000000000000000000081565b60405163ffffffff90911681526020016103c1565b61040e6109e8565b6040516103c1919060006080820190508251825263ffffffff602084015116602083015263ffffffff604084015116604083015260608301511515606083015292915050565b6104676104623660046135b7565b610aec565b005b6103f17f000000000000000000000000000000000000000000000000000000000000000081565b61046761049e3660046135f0565b610b6e565b6104b66104b1366004613621565b610c45565b6040519081526020016103c1565b6104ed6104d236600461358c565b60cc602052600090815260409020546001600160a01b031681565b6040516001600160a01b0390911681526020016103c1565b610467610513366004613689565b610cbb565b6103f17f000000000000000000000000000000000000000000000000000000000000000081565b6104ed7f000000000000000000000000000000000000000000000000000000000000000081565b60cb546103f190600160a01b900463ffffffff1681565b61046761058b3660046136de565b610e60565b61046761059e366004613739565b610ea5565b6104676105b1366004613765565b61109b565b6104ed7f000000000000000000000000000000000000000000000000000000000000000081565b6105f06105eb36600461358c565b61111d565b60405161ffff90911681526020016103c1565b60cb546103f190600160c01b900463ffffffff1681565b6104676106283660046137bc565b611179565b61046761118d565b6103b56106433660046137d7565b606654600160ff9092169190911b9081161490565b6066546104b6565b6103b561066e3660046137fa565b61123f565b60cb546105f090600160e01b900461ffff1681565b6103b561069636600461382f565b60cf60209081526000928352604080842090915290825290205460ff1681565b6104676112cc565b60ca546104b6565b6104676106d436600461358c565b6112de565b6104b66106e736600461385b565b60cd60209081526000928352604080842090915290825290205481565b6104ed7f000000000000000000000000000000000000000000000000000000000000000081565b6033546001600160a01b03166104ed565b6104ed73beac0eeeeeeeeeeeeeeeeeeeeeeeeeeeeeebeac081565b61040e6112ef565b61046761076d366004613889565b61138d565b6103f17f000000000000000000000000000000000000000000000000000000000000000081565b6104676107a736600461358c565b61153d565b6104676107ba3660046138f0565b611548565b6103b56107cd36600461382f565b60d260209081526000928352604080842090915290825290205460ff1681565b6104676107fb36600461390b565b611559565b6104b661080e36600461358c565b60ce6020526000908152604090205481565b6103f17f000000000000000000000000000000000000000000000000000000000000000081565b6103b561085536600461382f565b60d060209081526000928352604080842090915290825290205460ff1681565b6104ed7f000000000000000000000000000000000000000000000000000000000000000081565b6104676108aa366004613937565b6116cc565b61040e6108bd3660046135f0565b611861565b6105f06108d036600461385b565b6118f3565b6103f16108e33660046135f0565b611960565b6104ed7f000000000000000000000000000000000000000000000000000000000000000081565b6103b561091d36600461382f565b60d360209081526000928352604080842090915290825290205460ff1681565b61046761094b36600461385b565b6119e5565b61046761095e36600461358c565b611b54565b61046761097136600461397e565b611bcf565b6104b6610984366004613621565b611d0a565b6104676109973660046137bc565b611d1b565b6104676109aa3660046135f0565b611e6e565b60cb546104ed906001600160a01b031681565b6104676109d0366004613689565b611f86565b6104676109e3366004613689565b6120da565b60408051608081018252600080825260208201819052918101829052606081019190915260ca545b8015610ac357600060ca610a256001846139f6565b81548110610a3557610a35613a09565b600091825260209182902060408051608081018252600293909302909101805483526001015463ffffffff80821694840194909452600160201b810490931690820152600160401b90910460ff161580156060830181905291925090610aa55750806040015163ffffffff164210155b15610ab05792915050565b5080610abb81613a1f565b915050610a10565b505060408051608081018252600080825260208201819052918101829052606081019190915290565b610af461225e565b6001600160a01b038216600081815260d1602052604080822054905160ff9091169284151592841515927f4de6293e668df1398422e1def12118052c1539a03cbfedc145895d48d7685f1c9190a4506001600160a01b0391909116600090815260d160205260409020805460ff1916911515919091179055565b60405163237dfb4760e11b81523360048201527f00000000000000000000000000000000000000000000000000000000000000006001600160a01b0316906346fbf68e90602401602060405180830381865afa158015610bd2573d6000803e3d6000fd5b505050506040513d601f19601f82011682018060405250810190610bf69190613a36565b610c1357604051631d77d47760e21b815260040160405180910390fd5b6066548181168114610c385760405163c61dca5d60e01b815260040160405180910390fd5b610c41826122b8565b5050565b600080610c55602084018461358c565b8360200135604051602001610c9e9392919060f89390931b6001600160f81b031916835260609190911b6bffffffffffffffffffffffff19166001830152601582015260350190565b604051602081830303815290604052805190602001209050919050565b606654600190600290811603610ce45760405163840a48d560e01b815260040160405180910390fd5b33600090815260d1602052604090205460ff16610d1457604051635c427cd960e01b815260040160405180910390fd5b610d1c6122f5565b60005b82811015610e505736848483818110610d3a57610d3a613a09565b9050602002810190610d4c9190613a53565b33600081815260ce60209081526040808320549051949550939192610d779290918591879101613bab565b604051602081830303815290604052805190602001209050610d988361234e565b33600090815260d0602090815260408083208484529091529020805460ff19166001908117909155610dcb908390613bdb565b33600081815260ce602052604090819020929092559051829184917f51088b8c89628df3a8174002c2a034d0152fce6af8415d651b2a4734bf27048290610e13908890613bee565b60405180910390a4610e45333060408601803590610e34906020890161358c565b6001600160a01b031692919061243f565b505050600101610d1f565b50610e5b6001609755565b505050565b606654600290600490811603610e895760405163840a48d560e01b815260040160405180910390fd5b610e916122f5565b610e9b83836124aa565b610e5b6001609755565b606654600390600890811603610ece5760405163840a48d560e01b815260040160405180910390fd5b60cb546001600160a01b03163314610ef957604051635c427cd960e01b815260040160405180910390fd5b60cb5463ffffffff600160c01b909104811690831611610f2c57604051631ca7e50b60e21b815260040160405180910390fd5b428263ffffffff1610610f52576040516306957c9160e11b815260040160405180910390fd5b60ca5460cb54600090610f7290600160a01b900463ffffffff1642613c01565b6040805160808101825287815263ffffffff878116602080840182815286841685870181815260006060880181815260ca8054600181018255925297517f42d72674974f694b5f5159593243114d38a5c39c89d6b62fee061ff523240ee160029092029182015592517f42d72674974f694b5f5159593243114d38a5c39c89d6b62fee061ff523240ee290930180549151975193871667ffffffffffffffff1990921691909117600160201b978716979097029690961760ff60401b1916600160401b921515929092029190911790945560cb805463ffffffff60c01b1916600160c01b840217905593519283529394508892908616917fecd866c3c158fa00bf34d803d5f6023000b57080bcb48af004c2b4b46b3afd08910160405180910390a45050505050565b6066546002906004908116036110c45760405163840a48d560e01b815260040160405180910390fd5b6110cc6122f5565b60005b8381101561110c576111048585838181106110ec576110ec613a09565b90506020028101906110fe9190613c1d565b846124aa565b6001016110cf565b506111176001609755565b50505050565b6001600160a01b038116600090815260d5602090815260408083208151606081018352905461ffff80821683526201000082041693820193909352600160201b90920463ffffffff16908201526111739061273c565b92915050565b61118161225e565b61118a81612789565b50565b60405163237dfb4760e11b81523360048201527f00000000000000000000000000000000000000000000000000000000000000006001600160a01b0316906346fbf68e90602401602060405180830381865afa1580156111f1573d6000803e3d6000fd5b505050506040513d601f19601f820116820180604052508101906112159190613a36565b61123257604051631d77d47760e21b815260040160405180910390fd5b61123d6000196122b8565b565b60006112c48260ca61125460208301836137bc565b63ffffffff168154811061126a5761126a613a09565b600091825260209182902060408051608081018252600293909302909101805483526001015463ffffffff80821694840194909452600160201b810490931690820152600160401b90910460ff16151560608201526127fa565b506001919050565b6112d461225e565b61123d600061299e565b6112e661225e565b61118a816129f0565b60408051608081018252600080825260208201819052918101829052606081019190915260ca8054611323906001906139f6565b8154811061133357611333613a09565b600091825260209182902060408051608081018252600293909302909101805483526001015463ffffffff80821694840194909452600160201b810490931690820152600160401b90910460ff1615156060820152919050565b6066546005906020908116036113b65760405163840a48d560e01b815260040160405180910390fd5b836113c081612a4c565b6113dd5760405163932d94f760e01b815260040160405180910390fd5b6113e56122f5565b60005b8381101561152b573685858381811061140357611403613a09565b90506020028101906114159190613c33565b6001600160a01b038816600090815260ce6020908152604080832054905193945092611447918b918591879101613daa565b604051602081830303815290604052805190602001209050600061146a84612afa565b6001600160a01b038b16600090815260d3602090815260408083208684529091529020805460ff191660019081179091559091506114a9908490613bdb565b6001600160a01b038b16600081815260ce60205260409081902092909255905183919033907ffc8888bffd711da60bc5092b33f677d81896fe80ecc677b84cfab8184462b6e0906114fd9088908a90613dd1565b60405180910390a461151b333083610e346040890160208a0161358c565b5050600190920191506113e89050565b506115366001609755565b5050505050565b33610c418183612ce6565b61155061225e565b61118a81612d4a565b6066546007906080908116036115825760405163840a48d560e01b815260040160405180910390fd5b8261158c81612a4c565b6115a95760405163932d94f760e01b815260040160405180910390fd5b61271061ffff841611156115d05760405163891c63df60e01b815260040160405180910390fd5b60cb546000906115ed90600160a01b900463ffffffff1642613c01565b6001600160a01b038616600090815260d5602090815260408083208151606081018352905461ffff80821683526201000082041693820193909352600160201b90920463ffffffff1690820152919250906116479061273c565b6001600160a01b038716600090815260d56020526040902090915061166d908684612db5565b6040805163ffffffff8416815261ffff838116602083015287168183015290516001600160a01b0388169133917fd1e028bd664486a46ad26040e999cd2d22e1e9a094ee6afe19fcf64678f16f749181900360600190a3505050505050565b6066546006906040908116036116f55760405163840a48d560e01b815260040160405180910390fd5b836116ff81612a4c565b61171c5760405163932d94f760e01b815260040160405180910390fd5b61271061ffff841611156117435760405163891c63df60e01b815260040160405180910390fd5b60cb5460009061176090600160a01b900463ffffffff1642613c01565b6001600160a01b03878116600090815260d460209081526040808320938a1683529281528282208351606081018552905461ffff80821683526201000082041692820192909252600160201b90910463ffffffff16928101929092529192506117c89061273c565b6001600160a01b03808916600090815260d460209081526040808320938b168352929052209091506117fb908684612db5565b6040805163ffffffff8416815261ffff838116602083015287168183015290516001600160a01b0388811692908a169133917f48e198b6ae357e529204ee53a8e514c470ff77d9cc8e4f7207f8b5d490ae6934919081900360600190a450505050505050565b60408051608081018252600080825260208201819052918101829052606081019190915260ca828154811061189857611898613a09565b600091825260209182902060408051608081018252600293909302909101805483526001015463ffffffff80821694840194909452600160201b810490931690820152600160401b90910460ff161515606082015292915050565b6001600160a01b03828116600090815260d46020908152604080832093851683529281528282208351606081018552905461ffff80821683526201000082041692820192909252600160201b90910463ffffffff1692810192909252906119599061273c565b9392505050565b60ca546000905b63ffffffff8116156119cb578260ca611981600184613dea565b63ffffffff168154811061199757611997613a09565b906000526020600020906002020160000154036119b957611959600182613dea565b806119c381613e06565b915050611967565b5060405163504570e360e01b815260040160405180910390fd5b816119ef81612a4c565b611a0c5760405163932d94f760e01b815260040160405180910390fd5b6040516336b87bd760e11b81526001600160a01b0384811660048301527f00000000000000000000000000000000000000000000000000000000000000001690636d70f7ae90602401602060405180830381865afa158015611a72573d6000803e3d6000fd5b505050506040513d601f19601f82011682018060405250810190611a969190613a36565b80611b2d575060405163ba1a84e560e01b81526001600160a01b0384811660048301526000917f00000000000000000000000000000000000000000000000000000000000000009091169063ba1a84e590602401602060405180830381865afa158015611b07573d6000803e3d6000fd5b505050506040513d601f19601f82011682018060405250810190611b2b9190613e26565b115b611b4a5760405163fb494ea160e01b815260040160405180910390fd5b610e5b8383612ce6565b611b5c61225e565b6001600160a01b038116611bc65760405162461bcd60e51b815260206004820152602660248201527f4f776e61626c653a206e6577206f776e657220697320746865207a65726f206160448201526564647265737360d01b60648201526084015b60405180910390fd5b61118a8161299e565b600054610100900460ff1615808015611bef5750600054600160ff909116105b80611c095750303b158015611c09575060005460ff166001145b611c6c5760405162461bcd60e51b815260206004820152602e60248201527f496e697469616c697a61626c653a20636f6e747261637420697320616c72656160448201526d191e481a5b9a5d1a585b1a5e995960921b6064820152608401611bbd565b6000805460ff191660011790558015611c8f576000805461ff0019166101001790555b611c98856122b8565b611ca18661299e565b611caa846129f0565b611cb383612789565b611cbc82612d4a565b8015611d02576000805461ff0019169055604051600181527f7f26b83ff96e1f2b6a682f133852f6798a09c465da95921460cefb38474024989060200160405180910390a15b505050505050565b60006001610c55602084018461358c565b606654600390600890811603611d445760405163840a48d560e01b815260040160405180910390fd5b60cb546001600160a01b03163314611d6f57604051635c427cd960e01b815260040160405180910390fd5b60ca5463ffffffff831610611d97576040516394a8d38960e01b815260040160405180910390fd5b600060ca8363ffffffff1681548110611db257611db2613a09565b906000526020600020906002020190508060010160089054906101000a900460ff1615611df257604051631b14174b60e01b815260040160405180910390fd5b6001810154600160201b900463ffffffff164210611e2357604051630c36f66560e21b815260040160405180910390fd5b60018101805460ff60401b1916600160401b17905560405163ffffffff8416907fd850e6e5dfa497b72661fa73df2923464eaed9dc2ff1d3cb82bccbfeabe5c41e90600090a2505050565b7f00000000000000000000000000000000000000000000000000000000000000006001600160a01b031663eab66d7a6040518163ffffffff1660e01b8152600401602060405180830381865afa158015611ecc573d6000803e3d6000fd5b505050506040513d601f19601f82011682018060405250810190611ef09190613e3f565b6001600160a01b0316336001600160a01b031614611f215760405163794821ff60e01b815260040160405180910390fd5b60665480198219811614611f485760405163c61dca5d60e01b815260040160405180910390fd5b606682905560405182815233907f3582d1828e26bf56bd801502bc021ac0bc8afb57c826e4986b45593c8fad389c9060200160405180910390a25050565b606654600090600190811603611faf5760405163840a48d560e01b815260040160405180910390fd5b611fb76122f5565b60005b82811015610e505736848483818110611fd557611fd5613a09565b9050602002810190611fe79190613a53565b33600081815260ce602090815260408083205490519495509391926120129290918591879101613bab565b6040516020818303038152906040528051906020012090506120338361234e565b33600090815260cf602090815260408083208484529091529020805460ff19166001908117909155612066908390613bdb565b33600081815260ce602052604090819020929092559051829184917f450a367a380c4e339e5ae7340c8464ef27af7781ad9945cfe8abd828f89e6281906120ae908890613bee565b60405180910390a46120cf333060408601803590610e34906020890161358c565b505050600101611fba565b6066546004906010908116036121035760405163840a48d560e01b815260040160405180910390fd5b33600090815260d1602052604090205460ff1661213357604051635c427cd960e01b815260040160405180910390fd5b61213b6122f5565b60005b82811015610e50573684848381811061215957612159613a09565b905060200281019061216b9190613a53565b33600081815260ce602090815260408083205490519495509391926121969290918591879101613bab565b6040516020818303038152906040528051906020012090506121b78361234e565b33600090815260d2602090815260408083208484529091529020805460ff191660019081179091556121ea908390613bdb565b33600081815260ce602052604090819020929092559051829184917f5251b6fdefcb5d81144e735f69ea4c695fd43b0289ca53dc075033f5fc80068b90612232908890613bee565b60405180910390a4612253333060408601803590610e34906020890161358c565b50505060010161213e565b6033546001600160a01b0316331461123d5760405162461bcd60e51b815260206004820181905260248201527f4f776e61626c653a2063616c6c6572206973206e6f7420746865206f776e65726044820152606401611bbd565b606681905560405181815233907fab40a374bc51de372200a8bc981af8c9ecdc08dfdaef0bb6e09f88f3c616ef3d9060200160405180910390a250565b6002609754036123475760405162461bcd60e51b815260206004820152601f60248201527f5265656e7472616e637947756172643a207265656e7472616e742063616c6c006044820152606401611bbd565b6002609755565b61238061235b8280613e5c565b61236b60808501606086016137bc565b61237b60a08601608087016137bc565b612e6c565b60008160400135116123a5576040516310eb483f60e21b815260040160405180910390fd5b6f4b3b4ca85a86c47a098a223fffffffff816040013511156123da5760405163070b5a6f60e21b815260040160405180910390fd5b61240a63ffffffff7f00000000000000000000000000000000000000000000000000000000000000001642613bdb565b61241a60808301606084016137bc565b63ffffffff16111561118a57604051637ee2b44360e01b815260040160405180910390fd5b6040516001600160a01b03808516602483015283166044820152606481018290526111179085906323b872dd60e01b906084015b60408051601f198184030181529190526020810180516001600160e01b03166001600160e01b031990931692909217909152613148565b600060ca6124bb60208501856137bc565b63ffffffff16815481106124d1576124d1613a09565b600091825260209182902060408051608081018252600293909302909101805483526001015463ffffffff80821694840194909452600160201b810490931690820152600160401b90910460ff1615156060820152905061253283826127fa565b6000612544608085016060860161358c565b6001600160a01b03808216600090815260cc6020526040902054919250168061256a5750805b336001600160a01b0382161461259357604051635c427cd960e01b815260040160405180910390fd5b60005b6125a360a0870187613ea6565b9050811015611d0257366125ba60e0880188613e5c565b838181106125ca576125ca613a09565b6001600160a01b038716600090815260cd6020908152604080832093029490940194509290915082906125ff9085018561358c565b6001600160a01b03166001600160a01b03168152602001908152602001600020549050808260200135116126465760405163aa385e8160e01b815260040160405180910390fd5b60006126568260208501356139f6565b6001600160a01b038716600090815260cd60209081526040822092935085018035929190612684908761358c565b6001600160a01b03168152602080820192909252604001600020919091556126c690899083906126b69087018761358c565b6001600160a01b0316919061321d565b86516001600160a01b03808a1691878216918916907f9543dbd55580842586a951f0386e24d68a5df99ae29e3b216588b45fd684ce319061270a602089018961358c565b604080519283526001600160a01b039091166020830152810186905260600160405180910390a4505050600101612596565b6000816040015163ffffffff1660000361276357505060cb54600160e01b900461ffff1690565b816040015163ffffffff1642101561277c578151611173565b506020015190565b919050565b60cb546040805163ffffffff600160a01b9093048316815291831660208301527faf557c6c02c208794817a705609cfa935f827312a1adfdd26494b6b95dd2b4b3910160405180910390a160cb805463ffffffff909216600160a01b0263ffffffff60a01b19909216919091179055565b80606001511561281d57604051631b14174b60e01b815260040160405180910390fd5b806040015163ffffffff1642101561284857604051631437a2bb60e31b815260040160405180910390fd5b61285560c0830183613ea6565b905061286460a0840184613ea6565b905014612884576040516343714afd60e01b815260040160405180910390fd5b61289160e0830183613e5c565b90506128a060c0840184613ea6565b9050146128c0576040516343714afd60e01b815260040160405180910390fd5b80516128ec906128d660408501602086016137bc565b6128e36040860186613ef0565b8660600161324d565b60005b6128fc60a0840184613ea6565b9050811015610e5b57612996608084013561291a60a0860186613ea6565b8481811061292a5761292a613a09565b905060200201602081019061293f91906137bc565b61294c60c0870187613ea6565b8581811061295c5761295c613a09565b905060200281019061296e9190613ef0565b61297b60e0890189613e5c565b8781811061298b5761298b613a09565b9050604002016132f3565b6001016128ef565b603380546001600160a01b038381166001600160a01b0319831681179093556040519116919082907f8be0079c531659141344cd1fd0a4f28419497f9722a3daafe3b4186f6b6457e090600090a35050565b60cb546040516001600160a01b038084169216907f237b82f438d75fc568ebab484b75b01d9287b9e98b490b7c23221623b6705dbb90600090a360cb80546001600160a01b0319166001600160a01b0392909216919091179055565b604051631beb2b9760e31b81526001600160a01b038281166004830152336024830152306044830152600080356001600160e01b0319166064840152917f00000000000000000000000000000000000000000000000000000000000000009091169063df595cb8906084016020604051808303816000875af1158015612ad6573d6000803e3d6000fd5b505050506040513d601f19601f820116820180604052508101906111739190613a36565b6000612b29612b098380613e5c565b612b1960808601606087016137bc565b61237b60a08701608088016137bc565b6000612b386040840184613e5c565b905011612b585760405163796cc52560e01b815260040160405180910390fd5b42612b6960a08401608085016137bc565b612b7960808501606086016137bc565b612b839190613c01565b63ffffffff1610612ba75760405163150358a160e21b815260040160405180910390fd5b60008060005b612bba6040860186613e5c565b9050811015612cad5736612bd16040870187613e5c565b83818110612be157612be1613a09565b60400291909101915060009050612bfb602083018361358c565b6001600160a01b031603612c2257604051630863a45360e11b815260040160405180910390fd5b612c2f602082018261358c565b6001600160a01b0316836001600160a01b031610612c60576040516310fb47f160e31b815260040160405180910390fd5b6000816020013511612c85576040516310eb483f60e21b815260040160405180910390fd5b612c92602082018261358c565b9250612ca2602082013585613bdb565b935050600101612bad565b506f4b3b4ca85a86c47a098a223fffffffff821115612cdf5760405163070b5a6f60e21b815260040160405180910390fd5b5092915050565b6001600160a01b03808316600081815260cc602052604080822080548686166001600160a01b0319821681179092559151919094169392849290917fbab947934d42e0ad206f25c9cab18b5bb6ae144acfb00f40b4e3aa59590ca3129190a4505050565b60cb546040805161ffff600160e01b9093048316815291831660208301527fe6cd4edfdcc1f6d130ab35f73d72378f3a642944fb4ee5bd84b7807a81ea1c4e910160405180910390a160cb805461ffff909216600160e01b0261ffff60e01b19909216919091179055565b8254600160201b900463ffffffff164211612de357604051637b1e25c560e01b815260040160405180910390fd5b8254600160201b900463ffffffff16600003612e195760cb548354600160e01b90910461ffff1661ffff19909116178355612e30565b825462010000810461ffff1661ffff199091161783555b825463ffffffff909116600160201b0267ffffffff000000001961ffff90931662010000029290921667ffffffffffff00001990911617179055565b82612e8a5760405163796cc52560e01b815260040160405180910390fd5b7f000000000000000000000000000000000000000000000000000000000000000063ffffffff168163ffffffff161115612ed757604051630dd0b9f560e21b815260040160405180910390fd5b612f017f000000000000000000000000000000000000000000000000000000000000000082613f4d565b63ffffffff1615612f255760405163ee66470560e01b815260040160405180910390fd5b612f4f7f000000000000000000000000000000000000000000000000000000000000000083613f4d565b63ffffffff1615612f7357604051633c1a94f160e21b815260040160405180910390fd5b8163ffffffff167f000000000000000000000000000000000000000000000000000000000000000063ffffffff1642612fac91906139f6565b11158015612fe657508163ffffffff167f000000000000000000000000000000000000000000000000000000000000000063ffffffff1611155b6130035760405163041aa75760e11b815260040160405180910390fd5b6000805b84811015611d0257600086868381811061302357613023613a09565b613039926020604090920201908101915061358c565b60405163198f077960e21b81526001600160a01b0380831660048301529192507f00000000000000000000000000000000000000000000000000000000000000009091169063663c1de490602401602060405180830381865afa1580156130a4573d6000803e3d6000fd5b505050506040513d601f19601f820116820180604052508101906130c89190613a36565b806130ef57506001600160a01b03811673beac0eeeeeeeeeeeeeeeeeeeeeeeeeeeeeebeac0145b61310c57604051632efd965160e11b815260040160405180910390fd5b806001600160a01b0316836001600160a01b03161061313e5760405163dfad9ca160e01b815260040160405180910390fd5b9150600101613007565b600061319d826040518060400160405280602081526020017f5361666545524332303a206c6f772d6c6576656c2063616c6c206661696c6564815250856001600160a01b03166133329092919063ffffffff16565b90508051600014806131be5750808060200190518101906131be9190613a36565b610e5b5760405162461bcd60e51b815260206004820152602a60248201527f5361666545524332303a204552433230206f7065726174696f6e20646964206e6044820152691bdd081cdd58d8d9595960b21b6064820152608401611bbd565b6040516001600160a01b038316602482015260448101829052610e5b90849063a9059cbb60e01b90606401612473565b613258602083613f75565b6001901b8463ffffffff16106132805760405162c6c39d60e71b815260040160405180910390fd5b600061328b82610c45565b90506132d684848080601f0160208091040260200160405190810160405280939291908181526020018383808284376000920191909152508a92508591505063ffffffff8916613349565b611d02576040516369ca16c960e01b815260040160405180910390fd5b6132fe602083613f75565b6001901b8463ffffffff16106133275760405163054ff4df60e51b815260040160405180910390fd5b600061328b82611d0a565b60606133418484600085613361565b949350505050565b60008361335786858561343c565b1495945050505050565b6060824710156133c25760405162461bcd60e51b815260206004820152602660248201527f416464726573733a20696e73756666696369656e742062616c616e636520666f6044820152651c8818d85b1b60d21b6064820152608401611bbd565b600080866001600160a01b031685876040516133de9190613fad565b60006040518083038185875af1925050503d806000811461341b576040519150601f19603f3d011682016040523d82523d6000602084013e613420565b606091505b5091509150613431878383876134d9565b979650505050505050565b60006020845161344c9190613fbf565b1561346a576040516313717da960e21b815260040160405180910390fd5b8260205b855181116134d057613481600285613fbf565b6000036134a5578160005280860151602052604060002091506002840493506134be565b8086015160005281602052604060002091506002840493505b6134c9602082613bdb565b905061346e565b50949350505050565b60608315613548578251600003613541576001600160a01b0385163b6135415760405162461bcd60e51b815260206004820152601d60248201527f416464726573733a2063616c6c20746f206e6f6e2d636f6e74726163740000006044820152606401611bbd565b5081613341565b613341838381511561355d5781518083602001fd5b8060405162461bcd60e51b8152600401611bbd9190613fd3565b6001600160a01b038116811461118a57600080fd5b60006020828403121561359e57600080fd5b813561195981613577565b801515811461118a57600080fd5b600080604083850312156135ca57600080fd5b82356135d581613577565b915060208301356135e5816135a9565b809150509250929050565b60006020828403121561360257600080fd5b5035919050565b60006040828403121561361b57600080fd5b50919050565b60006040828403121561363357600080fd5b6119598383613609565b60008083601f84011261364f57600080fd5b50813567ffffffffffffffff81111561366757600080fd5b6020830191508360208260051b850101111561368257600080fd5b9250929050565b6000806020838503121561369c57600080fd5b823567ffffffffffffffff8111156136b357600080fd5b6136bf8582860161363d565b90969095509350505050565b6000610100828403121561361b57600080fd5b600080604083850312156136f157600080fd5b823567ffffffffffffffff81111561370857600080fd5b613714858286016136cb565b92505060208301356135e581613577565b803563ffffffff8116811461278457600080fd5b6000806040838503121561374c57600080fd5b8235915061375c60208401613725565b90509250929050565b60008060006040848603121561377a57600080fd5b833567ffffffffffffffff81111561379157600080fd5b61379d8682870161363d565b90945092505060208401356137b181613577565b809150509250925092565b6000602082840312156137ce57600080fd5b61195982613725565b6000602082840312156137e957600080fd5b813560ff8116811461195957600080fd5b60006020828403121561380c57600080fd5b813567ffffffffffffffff81111561382357600080fd5b613341848285016136cb565b6000806040838503121561384257600080fd5b823561384d81613577565b946020939093013593505050565b6000806040838503121561386e57600080fd5b823561387981613577565b915060208301356135e581613577565b60008060006040848603121561389e57600080fd5b83356138a981613577565b9250602084013567ffffffffffffffff8111156138c557600080fd5b6138d18682870161363d565b9497909650939450505050565b803561ffff8116811461278457600080fd5b60006020828403121561390257600080fd5b611959826138de565b6000806040838503121561391e57600080fd5b823561392981613577565b915061375c602084016138de565b60008060006060848603121561394c57600080fd5b833561395781613577565b9250602084013561396781613577565b9150613975604085016138de565b90509250925092565b600080600080600060a0868803121561399657600080fd5b85356139a181613577565b94506020860135935060408601356139b881613577565b92506139c660608701613725565b91506139d4608087016138de565b90509295509295909350565b634e487b7160e01b600052601160045260246000fd5b81810381811115611173576111736139e0565b634e487b7160e01b600052603260045260246000fd5b600081613a2e57613a2e6139e0565b506000190190565b600060208284031215613a4857600080fd5b8151611959816135a9565b60008235609e19833603018112613a6957600080fd5b9190910192915050565b6000808335601e19843603018112613a8a57600080fd5b830160208101925035905067ffffffffffffffff811115613aaa57600080fd5b8060061b360382131561368257600080fd5b81835260208301925060008160005b84811015613b22578135613ade81613577565b6001600160a01b0316865260208201356bffffffffffffffffffffffff8116808214613b0957600080fd5b6020880152506040958601959190910190600101613acb565b5093949350505050565b6000613b388283613a73565b60a08552613b4a60a086018284613abc565b9150506020830135613b5b81613577565b6001600160a01b031660208501526040838101359085015263ffffffff613b8460608501613725565b16606085015263ffffffff613b9b60808501613725565b1660808501528091505092915050565b60018060a01b0384168152826020820152606060408201526000613bd26060830184613b2c565b95945050505050565b80820180821115611173576111736139e0565b6020815260006119596020830184613b2c565b63ffffffff8181168382160190811115611173576111736139e0565b6000823560fe19833603018112613a6957600080fd5b6000823560be19833603018112613a6957600080fd5b6000808335601e19843603018112613c6057600080fd5b830160208101925035905067ffffffffffffffff811115613c8057600080fd5b80360382131561368257600080fd5b81835281816020850137506000828201602090810191909152601f909101601f19169091010190565b6000613cc48283613a73565b60c08552613cd660c086018284613abc565b9150506020830135613ce781613577565b6001600160a01b03166020850152613d026040840184613a73565b85830360408701528083529091600091906020015b81831015613d52578335613d2a81613577565b6001600160a01b03168152602084810135908201526040938401936001939093019201613d17565b613d5e60608701613725565b63ffffffff811660608901529350613d7860808701613725565b63ffffffff811660808901529350613d9360a0870187613c49565b9450925086810360a0880152613431818585613c8f565b60018060a01b0384168152826020820152606060408201526000613bd26060830184613cb8565b8281526040602082015260006133416040830184613cb8565b63ffffffff8281168282160390811115611173576111736139e0565b600063ffffffff821680613e1c57613e1c6139e0565b6000190192915050565b600060208284031215613e3857600080fd5b5051919050565b600060208284031215613e5157600080fd5b815161195981613577565b6000808335601e19843603018112613e7357600080fd5b83018035915067ffffffffffffffff821115613e8e57600080fd5b6020019150600681901b360382131561368257600080fd5b6000808335601e19843603018112613ebd57600080fd5b83018035915067ffffffffffffffff821115613ed857600080fd5b6020019150600581901b360382131561368257600080fd5b6000808335601e19843603018112613f0757600080fd5b83018035915067ffffffffffffffff821115613f2257600080fd5b60200191503681900382131561368257600080fd5b634e487b7160e01b600052601260045260246000fd5b600063ffffffff831680613f6357613f63613f37565b8063ffffffff84160691505092915050565b600082613f8457613f84613f37565b500490565b60005b83811015613fa4578181015183820152602001613f8c565b50506000910152565b60008251613a69818460208701613f89565b600082613fce57613fce613f37565b500690565b6020815260008251806020840152613ff2816040850160208701613f89565b601f01601f1916919091016040019291505056fea2646970667358221220105ebb2179cb60a90cb929570ae3c17407c0a1f5def41343f511de249dec7c1464736f6c634300081b0033",
    "linkReferences": {}
  },
  "methodIdentifiers": {
    "CALCULATION_INTERVAL_SECONDS()": "9d45c281",
    "GENESIS_REWARDS_TIMESTAMP()": "131433b4",
    "MAX_FUTURE_LENGTH()": "04a0c502",
    "MAX_RETROACTIVE_LENGTH()": "37838ed0",
    "MAX_REWARDS_DURATION()": "bf21a8aa",
    "activationDelay()": "3a8c0786",
    "allocationManager()": "ca8aa7c7",
    "beaconChainETHStrategy()": "9104c319",
    "calculateEarnerLeafHash((address,bytes32))": "149bc872",
    "calculateTokenLeafHash((address,uint256))": "f8cd8448",
    "checkClaim((uint32,uint32,bytes,(address,bytes32),uint32[],bytes[],(address,uint256)[]))": "5e9d8348",
    "claimerFor(address)": "2b9f64a4",
    "createAVSRewardsSubmission(((address,uint96)[],address,uint256,uint32,uint32)[])": "fce36c7d",
    "createOperatorDirectedAVSRewardsSubmission(address,((address,uint96)[],address,(address,uint256)[],uint32,uint32,string)[])": "9cb9a5fa",
    "createRewardsForAllEarners(((address,uint96)[],address,uint256,uint32,uint32)[])": "ff9f6cce",
    "createRewardsForAllSubmission(((address,uint96)[],address,uint256,uint32,uint32)[])": "36af41fa",
    "cumulativeClaimed(address,address)": "865c6953",
    "currRewardsCalculationEndTimestamp()": "4d18cc35",
    "defaultOperatorSplitBips()": "63f6a798",
    "delegationManager()": "ea4d3c9b",
    "disableRoot(uint32)": "f96abf2e",
    "getCurrentClaimableDistributionRoot()": "0e9a53cf",
    "getCurrentDistributionRoot()": "9be3d4e4",
    "getDistributionRootAtIndex(uint256)": "de02e503",
    "getDistributionRootsLength()": "7b8f8b05",
    "getOperatorAVSSplit(address,address)": "e063f81f",
    "getOperatorPISplit(address)": "4b943960",
    "getRootIndexFromHash(bytes32)": "e810ce21",
    "initialize(address,uint256,address,uint32,uint16)": "f6efbb59",
    "isAVSRewardsSubmissionHash(address,bytes32)": "6d21117e",
    "isOperatorDirectedAVSRewardsSubmissionHash(address,bytes32)": "ed71e6a2",
    "isRewardsForAllSubmitter(address)": "0018572c",
    "isRewardsSubmissionForAllEarnersHash(address,bytes32)": "aebd8bae",
    "isRewardsSubmissionForAllHash(address,bytes32)": "c46db606",
    "owner()": "8da5cb5b",
    "pause(uint256)": "136439dd",
    "pauseAll()": "595c6a67",
    "paused()": "5c975abb",
    "paused(uint8)": "5ac86ab7",
    "pauserRegistry()": "886f1195",
    "permissionController()": "4657e26a",
    "processClaim((uint32,uint32,bytes,(address,bytes32),uint32[],bytes[],(address,uint256)[]),address)": "3ccc861d",
    "processClaims((uint32,uint32,bytes,(address,bytes32),uint32[],bytes[],(address,uint256)[])[],address)": "4596021c",
    "renounceOwnership()": "715018a6",
    "rewardsUpdater()": "fbf1e2c1",
    "setActivationDelay(uint32)": "58baaa3e",
    "setClaimerFor(address)": "a0169ddd",
    "setClaimerFor(address,address)": "f22cef85",
    "setDefaultOperatorSplit(uint16)": "a50a1d9c",
    "setOperatorAVSSplit(address,address,uint16)": "dcbb03b3",
    "setOperatorPISplit(address,uint16)": "b3dbb0e0",
    "setRewardsForAllSubmitter(address,bool)": "0eb38345",
    "setRewardsUpdater(address)": "863cb9a9",
    "strategyManager()": "39b70e38",
    "submissionNonce(address)": "bb7e451f",
    "submitRoot(bytes32,uint32)": "3efe1db6",
    "transferOwnership(address)": "f2fde38b",
    "unpause(uint256)": "fabc1cbc"
  },
  "id": 123
}