{
  "abi": [
    {
      "type": "constructor",
      "inputs": [
        {
          "name": "_delegation",
          "type": "address",
          "internalType": "contract IDelegationManager"
        },
        {
          "name": "_pauserRegistry",
          "type": "address",
          "internalType": "contract IPauserRegistry"
        }
      ],
      "stateMutability": "nonpayable"
    },
    {
      "type": "function",
      "name": "DEFAULT_BURN_ADDRESS",
      "inputs": [],
      "outputs": [
        {
          "name": "",
          "type": "address",
          "internalType": "address"
        }
      ],
      "stateMutability": "view"
    },
    {
      "type": "function",
      "name": "DEPOSIT_TYPEHASH",
      "inputs": [],
      "outputs": [
        {
          "name": "",
          "type": "bytes32",
          "internalType": "bytes32"
        }
      ],
      "stateMutability": "view"
    },
    {
      "type": "function",
      "name": "addShares",
      "inputs": [
        {
          "name": "staker",
          "type": "address",
          "internalType": "address"
        },
        {
          "name": "strategy",
          "type": "address",
          "internalType": "contract IStrategy"
        },
        {
          "name": "token",
          "type": "address",
          "internalType": "contract IERC20"
        },
        {
          "name": "shares",
          "type": "uint256",
          "internalType": "uint256"
        }
      ],
      "outputs": [
        {
          "name": "",
          "type": "uint256",
          "internalType": "uint256"
        },
        {
          "name": "",
          "type": "uint256",
          "internalType": "uint256"
        }
      ],
      "stateMutability": "nonpayable"
    },
    {
      "type": "function",
      "name": "addStrategiesToDepositWhitelist",
      "inputs": [
        {
          "name": "strategiesToWhitelist",
          "type": "address[]",
          "internalType": "contract IStrategy[]"
        }
      ],
      "outputs": [],
      "stateMutability": "nonpayable"
    },
    {
      "type": "function",
      "name": "burnShares",
      "inputs": [
        {
          "name": "strategy",
          "type": "address",
          "internalType": "contract IStrategy"
        },
        {
          "name": "sharesToBurn",
          "type": "uint256",
          "internalType": "uint256"
        }
      ],
      "outputs": [],
      "stateMutability": "nonpayable"
    },
    {
      "type": "function",
      "name": "calculateStrategyDepositDigestHash",
      "inputs": [
        {
          "name": "staker",
          "type": "address",
          "internalType": "address"
        },
        {
          "name": "strategy",
          "type": "address",
          "internalType": "contract IStrategy"
        },
        {
          "name": "token",
          "type": "address",
          "internalType": "contract IERC20"
        },
        {
          "name": "amount",
          "type": "uint256",
          "internalType": "uint256"
        },
        {
          "name": "nonce",
          "type": "uint256",
          "internalType": "uint256"
        },
        {
          "name": "expiry",
          "type": "uint256",
          "internalType": "uint256"
        }
      ],
      "outputs": [
        {
          "name": "",
          "type": "bytes32",
          "internalType": "bytes32"
        }
      ],
      "stateMutability": "view"
    },
    {
      "type": "function",
      "name": "delegation",
      "inputs": [],
      "outputs": [
        {
          "name": "",
          "type": "address",
          "internalType": "contract IDelegationManager"
        }
      ],
      "stateMutability": "view"
    },
    {
      "type": "function",
      "name": "depositIntoStrategy",
      "inputs": [
        {
          "name": "strategy",
          "type": "address",
          "internalType": "contract IStrategy"
        },
        {
          "name": "token",
          "type": "address",
          "internalType": "contract IERC20"
        },
        {
          "name": "amount",
          "type": "uint256",
          "internalType": "uint256"
        }
      ],
      "outputs": [
        {
          "name": "depositedShares",
          "type": "uint256",
          "internalType": "uint256"
        }
      ],
      "stateMutability": "nonpayable"
    },
    {
      "type": "function",
      "name": "depositIntoStrategyWithSignature",
      "inputs": [
        {
          "name": "strategy",
          "type": "address",
          "internalType": "contract IStrategy"
        },
        {
          "name": "token",
          "type": "address",
          "internalType": "contract IERC20"
        },
        {
          "name": "amount",
          "type": "uint256",
          "internalType": "uint256"
        },
        {
          "name": "staker",
          "type": "address",
          "internalType": "address"
        },
        {
          "name": "expiry",
          "type": "uint256",
          "internalType": "uint256"
        },
        {
          "name": "signature",
          "type": "bytes",
          "internalType": "bytes"
        }
      ],
      "outputs": [
        {
          "name": "depositedShares",
          "type": "uint256",
          "internalType": "uint256"
        }
      ],
      "stateMutability": "nonpayable"
    },
    {
      "type": "function",
      "name": "domainSeparator",
      "inputs": [],
      "outputs": [
        {
          "name": "",
          "type": "bytes32",
          "internalType": "bytes32"
        }
      ],
      "stateMutability": "view"
    },
    {
      "type": "function",
      "name": "getDeposits",
      "inputs": [
        {
          "name": "staker",
          "type": "address",
          "internalType": "address"
        }
      ],
      "outputs": [
        {
          "name": "",
          "type": "address[]",
          "internalType": "contract IStrategy[]"
        },
        {
          "name": "",
          "type": "uint256[]",
          "internalType": "uint256[]"
        }
      ],
      "stateMutability": "view"
    },
    {
      "type": "function",
      "name": "getStakerStrategyList",
      "inputs": [
        {
          "name": "staker",
          "type": "address",
          "internalType": "address"
        }
      ],
      "outputs": [
        {
          "name": "",
          "type": "address[]",
          "internalType": "contract IStrategy[]"
        }
      ],
      "stateMutability": "view"
    },
    {
      "type": "function",
      "name": "initialize",
      "inputs": [
        {
          "name": "initialOwner",
          "type": "address",
          "internalType": "address"
        },
        {
          "name": "initialStrategyWhitelister",
          "type": "address",
          "internalType": "address"
        },
        {
          "name": "initialPausedStatus",
          "type": "uint256",
          "internalType": "uint256"
        }
      ],
      "outputs": [],
      "stateMutability": "nonpayable"
    },
    {
      "type": "function",
      "name": "nonces",
      "inputs": [
        {
          "name": "signer",
          "type": "address",
          "internalType": "address"
        }
      ],
      "outputs": [
        {
          "name": "nonce",
          "type": "uint256",
          "internalType": "uint256"
        }
      ],
      "stateMutability": "view"
    },
    {
      "type": "function",
      "name": "owner",
      "inputs": [],
      "outputs": [
        {
          "name": "",
          "type": "address",
          "internalType": "address"
        }
      ],
      "stateMutability": "view"
    },
    {
      "type": "function",
      "name": "pause",
      "inputs": [
        {
          "name": "newPausedStatus",
          "type": "uint256",
          "internalType": "uint256"
        }
      ],
      "outputs": [],
      "stateMutability": "nonpayable"
    },
    {
      "type": "function",
      "name": "pauseAll",
      "inputs": [],
      "outputs": [],
      "stateMutability": "nonpayable"
    },
    {
      "type": "function",
      "name": "paused",
      "inputs": [
        {
          "name": "index",
          "type": "uint8",
          "internalType": "uint8"
        }
      ],
      "outputs": [
        {
          "name": "",
          "type": "bool",
          "internalType": "bool"
        }
      ],
      "stateMutability": "view"
    },
    {
      "type": "function",
      "name": "paused",
      "inputs": [],
      "outputs": [
        {
          "name": "",
          "type": "uint256",
          "internalType": "uint256"
        }
      ],
      "stateMutability": "view"
    },
    {
      "type": "function",
      "name": "pauserRegistry",
      "inputs": [],
      "outputs": [
        {
          "name": "",
          "type": "address",
          "internalType": "contract IPauserRegistry"
        }
      ],
      "stateMutability": "view"
    },
    {
      "type": "function",
      "name": "removeDepositShares",
      "inputs": [
        {
          "name": "staker",
          "type": "address",
          "internalType": "address"
        },
        {
          "name": "strategy",
          "type": "address",
          "internalType": "contract IStrategy"
        },
        {
          "name": "depositSharesToRemove",
          "type": "uint256",
          "internalType": "uint256"
        }
      ],
      "outputs": [],
      "stateMutability": "nonpayable"
    },
    {
      "type": "function",
      "name": "removeStrategiesFromDepositWhitelist",
      "inputs": [
        {
          "name": "strategiesToRemoveFromWhitelist",
          "type": "address[]",
          "internalType": "contract IStrategy[]"
        }
      ],
      "outputs": [],
      "stateMutability": "nonpayable"
    },
    {
      "type": "function",
      "name": "renounceOwnership",
      "inputs": [],
      "outputs": [],
      "stateMutability": "nonpayable"
    },
    {
      "type": "function",
      "name": "setStrategyWhitelister",
      "inputs": [
        {
          "name": "newStrategyWhitelister",
          "type": "address",
          "internalType": "address"
        }
      ],
      "outputs": [],
      "stateMutability": "nonpayable"
    },
    {
      "type": "function",
      "name": "stakerDepositShares",
      "inputs": [
        {
          "name": "staker",
          "type": "address",
          "internalType": "address"
        },
        {
          "name": "strategy",
          "type": "address",
          "internalType": "contract IStrategy"
        }
      ],
      "outputs": [
        {
          "name": "shares",
          "type": "uint256",
          "internalType": "uint256"
        }
      ],
      "stateMutability": "view"
    },
    {
      "type": "function",
      "name": "stakerStrategyList",
      "inputs": [
        {
          "name": "staker",
          "type": "address",
          "internalType": "address"
        },
        {
          "name": "",
          "type": "uint256",
          "internalType": "uint256"
        }
      ],
      "outputs": [
        {
          "name": "strategies",
          "type": "address",
          "internalType": "contract IStrategy"
        }
      ],
      "stateMutability": "view"
    },
    {
      "type": "function",
      "name": "stakerStrategyListLength",
      "inputs": [
        {
          "name": "staker",
          "type": "address",
          "internalType": "address"
        }
      ],
      "outputs": [
        {
          "name": "",
          "type": "uint256",
          "internalType": "uint256"
        }
      ],
      "stateMutability": "view"
    },
    {
      "type": "function",
      "name": "strategyIsWhitelistedForDeposit",
      "inputs": [
        {
          "name": "strategy",
          "type": "address",
          "internalType": "contract IStrategy"
        }
      ],
      "outputs": [
        {
          "name": "whitelisted",
          "type": "bool",
          "internalType": "bool"
        }
      ],
      "stateMutability": "view"
    },
    {
      "type": "function",
      "name": "strategyWhitelister",
      "inputs": [],
      "outputs": [
        {
          "name": "",
          "type": "address",
          "internalType": "address"
        }
      ],
      "stateMutability": "view"
    },
    {
      "type": "function",
      "name": "transferOwnership",
      "inputs": [
        {
          "name": "newOwner",
          "type": "address",
          "internalType": "address"
        }
      ],
      "outputs": [],
      "stateMutability": "nonpayable"
    },
    {
      "type": "function",
      "name": "unpause",
      "inputs": [
        {
          "name": "newPausedStatus",
          "type": "uint256",
          "internalType": "uint256"
        }
      ],
      "outputs": [],
      "stateMutability": "nonpayable"
    },
    {
      "type": "function",
      "name": "withdrawSharesAsTokens",
      "inputs": [
        {
          "name": "staker",
          "type": "address",
          "internalType": "address"
        },
        {
          "name": "strategy",
          "type": "address",
          "internalType": "contract IStrategy"
        },
        {
          "name": "token",
          "type": "address",
          "internalType": "contract IERC20"
        },
        {
          "name": "shares",
          "type": "uint256",
          "internalType": "uint256"
        }
      ],
      "outputs": [],
      "stateMutability": "nonpayable"
    },
    {
      "type": "event",
      "name": "Deposit",
      "inputs": [
        {
          "name": "staker",
          "type": "address",
          "indexed": false,
          "internalType": "address"
        },
        {
          "name": "token",
          "type": "address",
          "indexed": false,
          "internalType": "contract IERC20"
        },
        {
          "name": "strategy",
          "type": "address",
          "indexed": false,
          "internalType": "contract IStrategy"
        },
        {
          "name": "shares",
          "type": "uint256",
          "indexed": false,
          "internalType": "uint256"
        }
      ],
      "anonymous": false
    },
    {
      "type": "event",
      "name": "Initialized",
      "inputs": [
        {
          "name": "version",
          "type": "uint8",
          "indexed": false,
          "internalType": "uint8"
        }
      ],
      "anonymous": false
    },
    {
      "type": "event",
      "name": "OwnershipTransferred",
      "inputs": [
        {
          "name": "previousOwner",
          "type": "address",
          "indexed": true,
          "internalType": "address"
        },
        {
          "name": "newOwner",
          "type": "address",
          "indexed": true,
          "internalType": "address"
        }
      ],
      "anonymous": false
    },
    {
      "type": "event",
      "name": "Paused",
      "inputs": [
        {
          "name": "account",
          "type": "address",
          "indexed": true,
          "internalType": "address"
        },
        {
          "name": "newPausedStatus",
          "type": "uint256",
          "indexed": false,
          "internalType": "uint256"
        }
      ],
      "anonymous": false
    },
    {
      "type": "event",
      "name": "StrategyAddedToDepositWhitelist",
      "inputs": [
        {
          "name": "strategy",
          "type": "address",
          "indexed": false,
          "internalType": "contract IStrategy"
        }
      ],
      "anonymous": false
    },
    {
      "type": "event",
      "name": "StrategyRemovedFromDepositWhitelist",
      "inputs": [
        {
          "name": "strategy",
          "type": "address",
          "indexed": false,
          "internalType": "contract IStrategy"
        }
      ],
      "anonymous": false
    },
    {
      "type": "event",
      "name": "StrategyWhitelisterChanged",
      "inputs": [
        {
          "name": "previousAddress",
          "type": "address",
          "indexed": false,
          "internalType": "address"
        },
        {
          "name": "newAddress",
          "type": "address",
          "indexed": false,
          "internalType": "address"
        }
      ],
      "anonymous": false
    },
    {
      "type": "event",
      "name": "Unpaused",
      "inputs": [
        {
          "name": "account",
          "type": "address",
          "indexed": true,
          "internalType": "address"
        },
        {
          "name": "newPausedStatus",
          "type": "uint256",
          "indexed": false,
          "internalType": "uint256"
        }
      ],
      "anonymous": false
    },
    {
      "type": "error",
      "name": "CurrentlyPaused",
      "inputs": []
    },
    {
      "type": "error",
      "name": "InputAddressZero",
      "inputs": []
    },
    {
      "type": "error",
      "name": "InvalidNewPausedStatus",
      "inputs": []
    },
    {
      "type": "error",
      "name": "InvalidSignature",
      "inputs": []
    },
    {
      "type": "error",
      "name": "MaxStrategiesExceeded",
      "inputs": []
    },
    {
      "type": "error",
      "name": "OnlyDelegationManager",
      "inputs": []
    },
    {
      "type": "error",
      "name": "OnlyPauser",
      "inputs": []
    },
    {
      "type": "error",
      "name": "OnlyStrategyWhitelister",
      "inputs": []
    },
    {
      "type": "error",
      "name": "OnlyUnpauser",
      "inputs": []
    },
    {
      "type": "error",
      "name": "SharesAmountTooHigh",
      "inputs": []
    },
    {
      "type": "error",
      "name": "SharesAmountZero",
      "inputs": []
    },
    {
      "type": "error",
      "name": "SignatureExpired",
      "inputs": []
    },
    {
      "type": "error",
      "name": "StakerAddressZero",
      "inputs": []
    },
    {
      "type": "error",
      "name": "StrategyNotFound",
      "inputs": []
    },
    {
      "type": "error",
      "name": "StrategyNotWhitelisted",
      "inputs": []
    }
  ],
  "bytecode": {
    "object": "0x61010060405234801561001157600080fd5b5060405161285b38038061285b8339810160408190526100309161020a565b81816001600160a01b038116610059576040516339b190bb60e11b815260040160405180910390fd5b6001600160a01b039081166080521660a0524660c052610077610089565b60e052610082610133565b5050610244565b600060c051461461012c5750604080518082018252600a81526922b4b3b2b72630bcb2b960b11b60209182015281517f8cad95687ba82c2ce50e74f7b754645e5117c3a5bec8151c0726d5857980a866818301527f71b625cfad44bac63b13dba07f2e1d6084ee04b6f8752101ece6126d584ee6ea81840152466060820152306080808301919091528351808303909101815260a0909101909252815191012090565b5060e05190565b600054610100900460ff161561019f5760405162461bcd60e51b815260206004820152602760248201527f496e697469616c697a61626c653a20636f6e747261637420697320696e697469604482015266616c697a696e6760c81b606482015260840160405180910390fd5b60005460ff908116146101f0576000805460ff191660ff9081179091556040519081527f7f26b83ff96e1f2b6a682f133852f6798a09c465da95921460cefb38474024989060200160405180910390a15b565b6001600160a01b038116811461020757600080fd5b50565b6000806040838503121561021d57600080fd5b8251610228816101f2565b6020840151909250610239816101f2565b809150509250929050565b60805160a05160c05160e0516125a66102b5600039600061193e0152600061187e0152600081816104770152818161073001528181610a9801528181610e4601528181610fbe0152611529015260008181610336015281816105370152818161089a015261116101526125a66000f3fe608060405234801561001057600080fd5b50600436106101f05760003560e01c806394f649dd1161010f578063df5cf723116100a2578063f3b4a00011610071578063f3b4a000146104d2578063f698da25146104dc578063fabc1cbc146104e4578063fe243a17146104f757600080fd5b8063df5cf72314610472578063e7a050aa14610499578063ee7a7c04146104ac578063f2fde38b146104bf57600080fd5b8063c4623ea1116100de578063c4623ea114610404578063c66567021461042c578063cbc2bd621461043f578063de44acb61461045257600080fd5b806394f649dd146103aa578063967fc0d2146103cb5780639ac01d61146103de578063b5d8b5b8146103f157600080fd5b80635de08ff2116101875780637ecebe00116101565780637ecebe0014610311578063886f1195146103315780638b8aac3c146103705780638da5cb5b1461039957600080fd5b80635de08ff2146102c0578063663c1de4146102d3578063715018a6146102f6578063724af423146102fe57600080fd5b806348825e94116101c357806348825e9414610256578063595c6a671461027d5780635ac86ab7146102855780635c975abb146102b857600080fd5b8063136439dd146101f55780631794bb3c1461020a5780632eae418c1461021d57806332e89ace14610230575b600080fd5b610208610203366004611ff0565b610522565b005b61020861021836600461201e565b6105f9565b61020861022b36600461205f565b610725565b61024361023e3660046120c6565b6107de565b6040519081526020015b60405180910390f35b6102437f4337f82d142e41f2a8c10547cd8c859bddb92262a61058e77842e24d9dea922481565b610208610885565b6102a86102933660046121c9565b609854600160ff9092169190911b9081161490565b604051901515815260200161024d565b609854610243565b6102086102ce3660046121ec565b610937565b6102a86102e1366004612263565b60d16020526000908152604090205460ff1681565b610208610a7b565b61020861030c36600461201e565b610a8d565b61024361031f366004612263565b60ca6020526000908152604090205481565b6103587f000000000000000000000000000000000000000000000000000000000000000081565b6040516001600160a01b03909116815260200161024d565b61024361037e366004612263565b6001600160a01b0316600090815260ce602052604090205490565b6033546001600160a01b0316610358565b6103bd6103b8366004612263565b610ae1565b60405161024d9291906122c5565b60cb54610358906001600160a01b031681565b6102436103ec36600461231f565b610c61565b6102086103ff3660046121ec565b610cf3565b61041761041236600461205f565b610e38565b6040805192835260208301919091520161024d565b61020861043a366004612263565b610e9e565b61035861044d366004612384565b610eb2565b610465610460366004612263565b610eea565b60405161024d91906123b0565b6103587f000000000000000000000000000000000000000000000000000000000000000081565b6102436104a736600461201e565b610f60565b6102086104ba366004612384565b610fb3565b6102086104cd366004612263565b6110da565b610358620e16e481565b610243611150565b6102086104f2366004611ff0565b61115f565b6102436105053660046123c3565b60cd60209081526000928352604080842090915290825290205481565b60405163237dfb4760e11b81523360048201527f00000000000000000000000000000000000000000000000000000000000000006001600160a01b0316906346fbf68e90602401602060405180830381865afa158015610586573d6000803e3d6000fd5b505050506040513d601f19601f820116820180604052508101906105aa91906123fc565b6105c757604051631d77d47760e21b815260040160405180910390fd5b60985481811681146105ec5760405163c61dca5d60e01b815260040160405180910390fd5b6105f582611277565b5050565b600054610100900460ff16158080156106195750600054600160ff909116105b806106335750303b158015610633575060005460ff166001145b61069b5760405162461bcd60e51b815260206004820152602e60248201527f496e697469616c697a61626c653a20636f6e747261637420697320616c72656160448201526d191e481a5b9a5d1a585b1a5e995960921b60648201526084015b60405180910390fd5b6000805460ff1916600117905580156106be576000805461ff0019166101001790555b6106c782611277565b6106d0846112b4565b6106d983611306565b801561071f576000805461ff0019169055604051600181527f7f26b83ff96e1f2b6a682f133852f6798a09c465da95921460cefb38474024989060200160405180910390a15b50505050565b336001600160a01b037f0000000000000000000000000000000000000000000000000000000000000000161461076e5760405163f739589b60e01b815260040160405180910390fd5b604051636ce5768960e11b81526001600160a01b03858116600483015283811660248301526044820183905284169063d9caed1290606401600060405180830381600087803b1580156107c057600080fd5b505af11580156107d4573d6000803e3d6000fd5b5050505050505050565b60985460009081906001908116036108095760405163840a48d560e01b815260040160405180910390fd5b61081161136f565b6001600160a01b038516600090815260ca60205260409020546108438661083c818c8c8c878c610c61565b86886113c8565b6001600160a01b038616600090815260ca6020526040902060018201905561086d868a8a8a61141a565b92505061087a6001606555565b509695505050505050565b60405163237dfb4760e11b81523360048201527f00000000000000000000000000000000000000000000000000000000000000006001600160a01b0316906346fbf68e90602401602060405180830381865afa1580156108e9573d6000803e3d6000fd5b505050506040513d601f19601f8201168201806040525081019061090d91906123fc565b61092a57604051631d77d47760e21b815260040160405180910390fd5b610935600019611277565b565b60cb546001600160a01b03163314610962576040516320ba3ff960e21b815260040160405180910390fd5b8060005b8181101561071f5760d160008585848181106109845761098461241e565b90506020020160208101906109999190612263565b6001600160a01b0316815260208101919091526040016000205460ff16610a7357600160d160008686858181106109d2576109d261241e565b90506020020160208101906109e79190612263565b6001600160a01b031681526020810191909152604001600020805460ff19169115159190911790557f0c35b17d91c96eb2751cd456e1252f42a386e524ef9ff26ecc9950859fdc04fe848483818110610a4257610a4261241e565b9050602002016020810190610a579190612263565b6040516001600160a01b03909116815260200160405180910390a15b600101610966565b610a83611592565b61093560006112b4565b336001600160a01b037f00000000000000000000000000000000000000000000000000000000000000001614610ad65760405163f739589b60e01b815260040160405180910390fd5b61071f8383836115ec565b6001600160a01b038116600090815260ce60205260408120546060918291908167ffffffffffffffff811115610b1957610b196120b0565b604051908082528060200260200182016040528015610b42578160200160208202803683370190505b50905060005b82811015610bd3576001600160a01b038616600090815260cd6020908152604080832060ce9092528220805491929184908110610b8757610b8761241e565b60009182526020808320909101546001600160a01b031683528201929092526040019020548251839083908110610bc057610bc061241e565b6020908102919091010152600101610b48565b5060ce6000866001600160a01b03166001600160a01b031681526020019081526020016000208181805480602002602001604051908101604052809291908181526020018280548015610c4f57602002820191906000526020600020905b81546001600160a01b03168152600190910190602001808311610c31575b50505050509150935093505050915091565b604080517f4337f82d142e41f2a8c10547cd8c859bddb92262a61058e77842e24d9dea922460208201526001600160a01b03808916928201929092528187166060820152908516608082015260a0810184905260c0810183905260e08101829052600090610ce89061010001604051602081830303815290604052805190602001206116b5565b979650505050505050565b60cb546001600160a01b03163314610d1e576040516320ba3ff960e21b815260040160405180910390fd5b8060005b8181101561071f5760d16000858584818110610d4057610d4061241e565b9050602002016020810190610d559190612263565b6001600160a01b0316815260208101919091526040016000205460ff1615610e3057600060d16000868685818110610d8f57610d8f61241e565b9050602002016020810190610da49190612263565b6001600160a01b031681526020810191909152604001600020805460ff19169115159190911790557f4074413b4b443e4e58019f2855a8765113358c7c72e39509c6af45fc0f5ba030848483818110610dff57610dff61241e565b9050602002016020810190610e149190612263565b6040516001600160a01b03909116815260200160405180910390a15b600101610d22565b600080336001600160a01b037f00000000000000000000000000000000000000000000000000000000000000001614610e845760405163f739589b60e01b815260040160405180910390fd5b610e90868587866116fc565b915091505b94509492505050565b610ea6611592565b610eaf81611306565b50565b60ce6020528160005260406000208181548110610ece57600080fd5b6000918252602090912001546001600160a01b03169150829050565b6001600160a01b038116600090815260ce6020908152604091829020805483518184028101840190945280845260609392830182828015610f5457602002820191906000526020600020905b81546001600160a01b03168152600190910190602001808311610f36575b50505050509050919050565b6098546000908190600190811603610f8b5760405163840a48d560e01b815260040160405180910390fd5b610f9361136f565b610f9f3386868661141a565b9150610fab6001606555565b509392505050565b336001600160a01b037f00000000000000000000000000000000000000000000000000000000000000001614610ffc5760405163f739589b60e01b815260040160405180910390fd5b816001600160a01b031663d9caed12620e16e4846001600160a01b0316632495a5996040518163ffffffff1660e01b8152600401602060405180830381865afa15801561104d573d6000803e3d6000fd5b505050506040513d601f19601f820116820180604052508101906110719190612434565b6040516001600160e01b031960e085901b1681526001600160a01b0392831660048201529116602482015260448101849052606401600060405180830381600087803b1580156110c057600080fd5b505af19250505080156110d1575060015b156105f5575050565b6110e2611592565b6001600160a01b0381166111475760405162461bcd60e51b815260206004820152602660248201527f4f776e61626c653a206e6577206f776e657220697320746865207a65726f206160448201526564647265737360d01b6064820152608401610692565b610eaf816112b4565b600061115a61187a565b905090565b7f00000000000000000000000000000000000000000000000000000000000000006001600160a01b031663eab66d7a6040518163ffffffff1660e01b8152600401602060405180830381865afa1580156111bd573d6000803e3d6000fd5b505050506040513d601f19601f820116820180604052508101906111e19190612434565b6001600160a01b0316336001600160a01b0316146112125760405163794821ff60e01b815260040160405180910390fd5b609854801982198116146112395760405163c61dca5d60e01b815260040160405180910390fd5b609882905560405182815233907f3582d1828e26bf56bd801502bc021ac0bc8afb57c826e4986b45593c8fad389c9060200160405180910390a25050565b609881905560405181815233907fab40a374bc51de372200a8bc981af8c9ecdc08dfdaef0bb6e09f88f3c616ef3d9060200160405180910390a250565b603380546001600160a01b038381166001600160a01b0319831681179093556040519116919082907f8be0079c531659141344cd1fd0a4f28419497f9722a3daafe3b4186f6b6457e090600090a35050565b60cb54604080516001600160a01b03928316815291831660208301527f4264275e593955ff9d6146a51a4525f6ddace2e81db9391abcc9d1ca48047d29910160405180910390a160cb80546001600160a01b0319166001600160a01b0392909216919091179055565b6002606554036113c15760405162461bcd60e51b815260206004820152601f60248201527f5265656e7472616e637947756172643a207265656e7472616e742063616c6c006044820152606401610692565b6002606555565b428110156113e957604051630819bdcd60e01b815260040160405180910390fd5b6113fd6001600160a01b0385168484611960565b61071f57604051638baa579f60e01b815260040160405180910390fd5b6001600160a01b038316600090815260d16020526040812054849060ff1661145557604051632efd965160e11b815260040160405180910390fd5b61146a6001600160a01b0385163387866119c1565b6040516311f9fbc960e21b81526001600160a01b038581166004830152602482018590528616906347e7ef24906044016020604051808303816000875af11580156114b9573d6000803e3d6000fd5b505050506040513d601f19601f820116820180604052508101906114dd9190612451565b91506000806114ee888789876116fc565b604051631e328e7960e11b81526001600160a01b038b811660048301528a8116602483015260448201849052606482018390529294509092507f000000000000000000000000000000000000000000000000000000000000000090911690633c651cf290608401600060405180830381600087803b15801561156f57600080fd5b505af1158015611583573d6000803e3d6000fd5b50505050505050949350505050565b6033546001600160a01b031633146109355760405162461bcd60e51b815260206004820181905260248201527f4f776e61626c653a2063616c6c6572206973206e6f7420746865206f776e65726044820152606401610692565b60008160000361160f576040516342061b2560e11b815260040160405180910390fd5b6001600160a01b03808516600090815260cd60209081526040808320938716835292905220548083111561165657604051634b18b19360e01b815260040160405180910390fd5b6116608382612480565b6001600160a01b03808716600090815260cd6020908152604080832093891683529290529081208290559091508190036116a85761169e8585611a1b565b60019150506116ae565b60009150505b9392505050565b60006116bf61187a565b60405161190160f01b6020820152602281019190915260428101839052606201604051602081830303815290604052805190602001209050919050565b6000806001600160a01b038616611726576040516316f2ccc960e01b815260040160405180910390fd5b82600003611747576040516342061b2560e11b815260040160405180910390fd5b6001600160a01b03808716600090815260cd60209081526040808320938816835292905290812054908190036117f0576001600160a01b038716600090815260ce6020908152604090912054106117b1576040516301a1443960e31b815260040160405180910390fd5b6001600160a01b03878116600090815260ce602090815260408220805460018101825590835291200180546001600160a01b0319169187169190911790555b6117fa8482612499565b6001600160a01b03888116600081815260cd602090815260408083208b861680855290835292819020959095558451928352928a169282019290925291820152606081018590527f7cfff908a4b583f36430b25d75964c458d8ede8a99bd61be750e97ee1b2f3a969060800160405180910390a196929550919350505050565b60007f0000000000000000000000000000000000000000000000000000000000000000461461193b5750604080518082018252600a81526922b4b3b2b72630bcb2b960b11b60209182015281517f8cad95687ba82c2ce50e74f7b754645e5117c3a5bec8151c0726d5857980a866818301527f71b625cfad44bac63b13dba07f2e1d6084ee04b6f8752101ece6126d584ee6ea81840152466060820152306080808301919091528351808303909101815260a0909101909252815191012090565b507f000000000000000000000000000000000000000000000000000000000000000090565b600080600061196f8585611ba4565b90925090506000816004811115611988576119886124ac565b1480156119a65750856001600160a01b0316826001600160a01b0316145b806119b757506119b7868686611be9565b9695505050505050565b604080516001600160a01b0385811660248301528416604482015260648082018490528251808303909101815260849091019091526020810180516001600160e01b03166323b872dd60e01b17905261071f908590611cd5565b6001600160a01b038216600090815260ce6020526040812054905b81811015611b35576001600160a01b03848116600090815260ce6020526040902080549185169183908110611a6d57611a6d61241e565b6000918252602090912001546001600160a01b031603611b2d576001600160a01b038416600090815260ce602052604090208054611aad90600190612480565b81548110611abd57611abd61241e565b60009182526020808320909101546001600160a01b03878116845260ce9092526040909220805491909216919083908110611afa57611afa61241e565b9060005260206000200160006101000a8154816001600160a01b0302191690836001600160a01b03160217905550611b35565b600101611a36565b818103611b5557604051632df15a4160e11b815260040160405180910390fd5b6001600160a01b038416600090815260ce60205260409020805480611b7c57611b7c6124c2565b600082815260209020810160001990810180546001600160a01b031916905501905550505050565b6000808251604103611bda5760208301516040840151606085015160001a611bce87828585611daf565b94509450505050611be2565b506000905060025b9250929050565b6000806000856001600160a01b0316631626ba7e60e01b8686604051602401611c13929190612528565b60408051601f198184030181529181526020820180516001600160e01b03166001600160e01b0319909416939093179092529051611c519190612541565b600060405180830381855afa9150503d8060008114611c8c576040519150601f19603f3d011682016040523d82523d6000602084013e611c91565b606091505b5091509150818015611ca557506020815110155b80156119b757508051630b135d3f60e11b90611cca9083016020908101908401612451565b149695505050505050565b6000611d2a826040518060400160405280602081526020017f5361666545524332303a206c6f772d6c6576656c2063616c6c206661696c6564815250856001600160a01b0316611e709092919063ffffffff16565b9050805160001480611d4b575080806020019051810190611d4b91906123fc565b611daa5760405162461bcd60e51b815260206004820152602a60248201527f5361666545524332303a204552433230206f7065726174696f6e20646964206e6044820152691bdd081cdd58d8d9595960b21b6064820152608401610692565b505050565b6000807f7fffffffffffffffffffffffffffffff5d576e7357a4501ddfe92f46681b20a0831115611de65750600090506003610e95565b6040805160008082526020820180845289905260ff881692820192909252606081018690526080810185905260019060a0016020604051602081039080840390855afa158015611e3a573d6000803e3d6000fd5b5050604051601f1901519150506001600160a01b038116611e6357600060019250925050610e95565b9660009650945050505050565b6060611e7f8484600085611e87565b949350505050565b606082471015611ee85760405162461bcd60e51b815260206004820152602660248201527f416464726573733a20696e73756666696369656e742062616c616e636520666f6044820152651c8818d85b1b60d21b6064820152608401610692565b600080866001600160a01b03168587604051611f049190612541565b60006040518083038185875af1925050503d8060008114611f41576040519150601f19603f3d011682016040523d82523d6000602084013e611f46565b606091505b5091509150610ce88783838760608315611fc1578251600003611fba576001600160a01b0385163b611fba5760405162461bcd60e51b815260206004820152601d60248201527f416464726573733a2063616c6c20746f206e6f6e2d636f6e74726163740000006044820152606401610692565b5081611e7f565b611e7f8383815115611fd65781518083602001fd5b8060405162461bcd60e51b8152600401610692919061255d565b60006020828403121561200257600080fd5b5035919050565b6001600160a01b0381168114610eaf57600080fd5b60008060006060848603121561203357600080fd5b833561203e81612009565b9250602084013561204e81612009565b929592945050506040919091013590565b6000806000806080858703121561207557600080fd5b843561208081612009565b9350602085013561209081612009565b925060408501356120a081612009565b9396929550929360600135925050565b634e487b7160e01b600052604160045260246000fd5b60008060008060008060c087890312156120df57600080fd5b86356120ea81612009565b955060208701356120fa81612009565b945060408701359350606087013561211181612009565b92506080870135915060a087013567ffffffffffffffff81111561213457600080fd5b8701601f8101891361214557600080fd5b803567ffffffffffffffff81111561215f5761215f6120b0565b604051601f8201601f19908116603f0116810167ffffffffffffffff8111828210171561218e5761218e6120b0565b6040528181528282016020018b10156121a657600080fd5b816020840160208301376000602083830101528093505050509295509295509295565b6000602082840312156121db57600080fd5b813560ff811681146116ae57600080fd5b600080602083850312156121ff57600080fd5b823567ffffffffffffffff81111561221657600080fd5b8301601f8101851361222757600080fd5b803567ffffffffffffffff81111561223e57600080fd5b8560208260051b840101111561225357600080fd5b6020919091019590945092505050565b60006020828403121561227557600080fd5b81356116ae81612009565b600081518084526020840193506020830160005b828110156122bb5781516001600160a01b0316865260209586019590910190600101612294565b5093949350505050565b6040815260006122d86040830185612280565b828103602084015280845180835260208301915060208601925060005b818110156123135783518352602093840193909201916001016122f5565b50909695505050505050565b60008060008060008060c0878903121561233857600080fd5b863561234381612009565b9550602087013561235381612009565b9450604087013561236381612009565b959894975094956060810135955060808101359460a0909101359350915050565b6000806040838503121561239757600080fd5b82356123a281612009565b946020939093013593505050565b6020815260006116ae6020830184612280565b600080604083850312156123d657600080fd5b82356123e181612009565b915060208301356123f181612009565b809150509250929050565b60006020828403121561240e57600080fd5b815180151581146116ae57600080fd5b634e487b7160e01b600052603260045260246000fd5b60006020828403121561244657600080fd5b81516116ae81612009565b60006020828403121561246357600080fd5b5051919050565b634e487b7160e01b600052601160045260246000fd5b818103818111156124935761249361246a565b92915050565b808201808211156124935761249361246a565b634e487b7160e01b600052602160045260246000fd5b634e487b7160e01b600052603160045260246000fd5b60005b838110156124f35781810151838201526020016124db565b50506000910152565b600081518084526125148160208601602086016124d8565b601f01601f19169290920160200192915050565b828152604060208201526000611e7f60408301846124fc565b600082516125538184602087016124d8565b9190910192915050565b6020815260006116ae60208301846124fc56fea264697066735822122046af8a941b75642d17aac2164bae0a7b43e2c95da204d76ce5b7b288255f327564736f6c634300081b0033",
    "linkReferences": {}
  },
  "methodIdentifiers": {
    "DEFAULT_BURN_ADDRESS()": "f3b4a000",
    "DEPOSIT_TYPEHASH()": "48825e94",
    "addShares(address,address,address,uint256)": "c4623ea1",
    "addStrategiesToDepositWhitelist(address[])": "5de08ff2",
    "burnShares(address,uint256)": "ee7a7c04",
    "calculateStrategyDepositDigestHash(address,address,address,uint256,uint256,uint256)": "9ac01d61",
    "delegation()": "df5cf723",
    "depositIntoStrategy(address,address,uint256)": "e7a050aa",
    "depositIntoStrategyWithSignature(address,address,uint256,address,uint256,bytes)": "32e89ace",
    "domainSeparator()": "f698da25",
    "getDeposits(address)": "94f649dd",
    "getStakerStrategyList(address)": "de44acb6",
    "initialize(address,address,uint256)": "1794bb3c",
    "nonces(address)": "7ecebe00",
    "owner()": "8da5cb5b",
    "pause(uint256)": "136439dd",
    "pauseAll()": "595c6a67",
    "paused()": "5c975abb",
    "paused(uint8)": "5ac86ab7",
    "pauserRegistry()": "886f1195",
    "removeDepositShares(address,address,uint256)": "724af423",
    "removeStrategiesFromDepositWhitelist(address[])": "b5d8b5b8",
    "renounceOwnership()": "715018a6",
    "setStrategyWhitelister(address)": "c6656702",
    "stakerDepositShares(address,address)": "fe243a17",
    "stakerStrategyList(address,uint256)": "cbc2bd62",
    "stakerStrategyListLength(address)": "8b8aac3c",
    "strategyIsWhitelistedForDeposit(address)": "663c1de4",
    "strategyWhitelister()": "967fc0d2",
    "transferOwnership(address)": "f2fde38b",
    "unpause(uint256)": "fabc1cbc",
    "withdrawSharesAsTokens(address,address,address,uint256)": "2eae418c"
  },
  "id": 125
}