{
  "abi": [
    {
      "type": "constructor",
      "inputs": [
        {
          "name": "_strategyManager",
          "type": "address",
          "internalType": "contract IStrategyManager"
        },
        {
          "name": "_pauserRegistry",
          "type": "address",
          "internalType": "contract IPauserRegistry"
        }
      ],
      "stateMutability": "nonpayable"
    },
    {
      "type": "function",
      "name": "blacklistTokens",
      "inputs": [
        {
          "name": "tokens",
          "type": "address[]",
          "internalType": "contract IERC20[]"
        }
      ],
      "outputs": [],
      "stateMutability": "nonpayable"
    },
    {
      "type": "function",
      "name": "deployNewStrategy",
      "inputs": [
        {
          "name": "token",
          "type": "address",
          "internalType": "contract IERC20"
        }
      ],
      "outputs": [
        {
          "name": "newStrategy",
          "type": "address",
          "internalType": "contract IStrategy"
        }
      ],
      "stateMutability": "nonpayable"
    },
    {
      "type": "function",
      "name": "deployedStrategies",
      "inputs": [
        {
          "name": "",
          "type": "address",
          "internalType": "contract IERC20"
        }
      ],
      "outputs": [
        {
          "name": "",
          "type": "address",
          "internalType": "contract IStrategy"
        }
      ],
      "stateMutability": "view"
    },
    {
      "type": "function",
      "name": "initialize",
      "inputs": [
        {
          "name": "_initialOwner",
          "type": "address",
          "internalType": "address"
        },
        {
          "name": "_initialPausedStatus",
          "type": "uint256",
          "internalType": "uint256"
        },
        {
          "name": "_strategyBeacon",
          "type": "address",
          "internalType": "contract IBeacon"
        }
      ],
      "outputs": [],
      "stateMutability": "nonpayable"
    },
    {
      "type": "function",
      "name": "isBlacklisted",
      "inputs": [
        {
          "name": "",
          "type": "address",
          "internalType": "contract IERC20"
        }
      ],
      "outputs": [
        {
          "name": "",
          "type": "bool",
          "internalType": "bool"
        }
      ],
      "stateMutability": "view"
    },
    {
      "type": "function",
      "name": "owner",
      "inputs": [],
      "outputs": [
        {
          "name": "",
          "type": "address",
          "internalType": "address"
        }
      ],
      "stateMutability": "view"
    },
    {
      "type": "function",
      "name": "pause",
      "inputs": [
        {
          "name": "newPausedStatus",
          "type": "uint256",
          "internalType": "uint256"
        }
      ],
      "outputs": [],
      "stateMutability": "nonpayable"
    },
    {
      "type": "function",
      "name": "pauseAll",
      "inputs": [],
      "outputs": [],
      "stateMutability": "nonpayable"
    },
    {
      "type": "function",
      "name": "paused",
      "inputs": [
        {
          "name": "index",
          "type": "uint8",
          "internalType": "uint8"
        }
      ],
      "outputs": [
        {
          "name": "",
          "type": "bool",
          "internalType": "bool"
        }
      ],
      "stateMutability": "view"
    },
    {
      "type": "function",
      "name": "paused",
      "inputs": [],
      "outputs": [
        {
          "name": "",
          "type": "uint256",
          "internalType": "uint256"
        }
      ],
      "stateMutability": "view"
    },
    {
      "type": "function",
      "name": "pauserRegistry",
      "inputs": [],
      "outputs": [
        {
          "name": "",
          "type": "address",
          "internalType": "contract IPauserRegistry"
        }
      ],
      "stateMutability": "view"
    },
    {
      "type": "function",
      "name": "removeStrategiesFromWhitelist",
      "inputs": [
        {
          "name": "strategiesToRemoveFromWhitelist",
          "type": "address[]",
          "internalType": "contract IStrategy[]"
        }
      ],
      "outputs": [],
      "stateMutability": "nonpayable"
    },
    {
      "type": "function",
      "name": "renounceOwnership",
      "inputs": [],
      "outputs": [],
      "stateMutability": "nonpayable"
    },
    {
      "type": "function",
      "name": "strategyBeacon",
      "inputs": [],
      "outputs": [
        {
          "name": "",
          "type": "address",
          "internalType": "contract IBeacon"
        }
      ],
      "stateMutability": "view"
    },
    {
      "type": "function",
      "name": "strategyManager",
      "inputs": [],
      "outputs": [
        {
          "name": "",
          "type": "address",
          "internalType": "contract IStrategyManager"
        }
      ],
      "stateMutability": "view"
    },
    {
      "type": "function",
      "name": "transferOwnership",
      "inputs": [
        {
          "name": "newOwner",
          "type": "address",
          "internalType": "address"
        }
      ],
      "outputs": [],
      "stateMutability": "nonpayable"
    },
    {
      "type": "function",
      "name": "unpause",
      "inputs": [
        {
          "name": "newPausedStatus",
          "type": "uint256",
          "internalType": "uint256"
        }
      ],
      "outputs": [],
      "stateMutability": "nonpayable"
    },
    {
      "type": "function",
      "name": "whitelistStrategies",
      "inputs": [
        {
          "name": "strategiesToWhitelist",
          "type": "address[]",
          "internalType": "contract IStrategy[]"
        }
      ],
      "outputs": [],
      "stateMutability": "nonpayable"
    },
    {
      "type": "event",
      "name": "Initialized",
      "inputs": [
        {
          "name": "version",
          "type": "uint8",
          "indexed": false,
          "internalType": "uint8"
        }
      ],
      "anonymous": false
    },
    {
      "type": "event",
      "name": "OwnershipTransferred",
      "inputs": [
        {
          "name": "previousOwner",
          "type": "address",
          "indexed": true,
          "internalType": "address"
        },
        {
          "name": "newOwner",
          "type": "address",
          "indexed": true,
          "internalType": "address"
        }
      ],
      "anonymous": false
    },
    {
      "type": "event",
      "name": "Paused",
      "inputs": [
        {
          "name": "account",
          "type": "address",
          "indexed": true,
          "internalType": "address"
        },
        {
          "name": "newPausedStatus",
          "type": "uint256",
          "indexed": false,
          "internalType": "uint256"
        }
      ],
      "anonymous": false
    },
    {
      "type": "event",
      "name": "StrategyBeaconModified",
      "inputs": [
        {
          "name": "previousBeacon",
          "type": "address",
          "indexed": false,
          "internalType": "contract IBeacon"
        },
        {
          "name": "newBeacon",
          "type": "address",
          "indexed": false,
          "internalType": "contract IBeacon"
        }
      ],
      "anonymous": false
    },
    {
      "type": "event",
      "name": "StrategySetForToken",
      "inputs": [
        {
          "name": "token",
          "type": "address",
          "indexed": false,
          "internalType": "contract IERC20"
        },
        {
          "name": "strategy",
          "type": "address",
          "indexed": false,
          "internalType": "contract IStrategy"
        }
      ],
      "anonymous": false
    },
    {
      "type": "event",
      "name": "TokenBlacklisted",
      "inputs": [
        {
          "name": "token",
          "type": "address",
          "indexed": false,
          "internalType": "contract IERC20"
        }
      ],
      "anonymous": false
    },
    {
      "type": "event",
      "name": "Unpaused",
      "inputs": [
        {
          "name": "account",
          "type": "address",
          "indexed": true,
          "internalType": "address"
        },
        {
          "name": "newPausedStatus",
          "type": "uint256",
          "indexed": false,
          "internalType": "uint256"
        }
      ],
      "anonymous": false
    },
    {
      "type": "error",
      "name": "AlreadyBlacklisted",
      "inputs": []
    },
    {
      "type": "error",
      "name": "BlacklistedToken",
      "inputs": []
    },
    {
      "type": "error",
      "name": "CurrentlyPaused",
      "inputs": []
    },
    {
      "type": "error",
      "name": "InputAddressZero",
      "inputs": []
    },
    {
      "type": "error",
      "name": "InvalidNewPausedStatus",
      "inputs": []
    },
    {
      "type": "error",
      "name": "OnlyPauser",
      "inputs": []
    },
    {
      "type": "error",
      "name": "OnlyUnpauser",
      "inputs": []
    },
    {
      "type": "error",
      "name": "StrategyAlreadyExists",
      "inputs": []
    }
  ],
  "bytecode": {
    "object": "0x60c060405234801561001057600080fd5b50604051611a2f380380611a2f83398101604081905261002f91610150565b806001600160a01b038116610057576040516339b190bb60e11b815260040160405180910390fd5b6001600160a01b03908116608052821660a052610072610079565b505061018a565b603354610100900460ff16156100e55760405162461bcd60e51b815260206004820152602760248201527f496e697469616c697a61626c653a20636f6e747261637420697320696e697469604482015266616c697a696e6760c81b606482015260840160405180910390fd5b60335460ff90811614610136576033805460ff191660ff9081179091556040519081527f7f26b83ff96e1f2b6a682f133852f6798a09c465da95921460cefb38474024989060200160405180910390a15b565b6001600160a01b038116811461014d57600080fd5b50565b6000806040838503121561016357600080fd5b825161016e81610138565b602084015190925061017f81610138565b809150509250929050565b60805160a05161184f6101e060003960008181610148015281816105e90152818161088e015281816109310152610c7901526000818161021c015281816102f90152818161066c0152610b44015261184f6000f3fe608060405234801561001057600080fd5b50600436106101165760003560e01c8063886f1195116100a2578063f0062d9a11610071578063f0062d9a14610275578063f2fde38b14610288578063fabc1cbc1461029b578063fe38b32d146102ae578063fe575a87146102c157600080fd5b8063886f1195146102175780638da5cb5b1461023e578063b768ebc91461024f578063c350a1b51461026257600080fd5b8063595c6a67116100e9578063595c6a67146101b05780635ac86ab7146101b85780635c975abb146101eb5780636b9b6229146101fc578063715018a61461020f57600080fd5b8063136439dd1461011b57806323103c411461013057806339b70e3814610143578063581dfd6514610187575b600080fd5b61012e610129366004610e7a565b6102e4565b005b61012e61013e366004610edf565b6103bb565b61016a7f000000000000000000000000000000000000000000000000000000000000000081565b6040516001600160a01b0390911681526020015b60405180910390f35b61016a610195366004610f36565b6001602052600090815260409020546001600160a01b031681565b61012e610657565b6101db6101c6366004610f5a565b609954600160ff9092169190911b9081161490565b604051901515815260200161017e565b60995460405190815260200161017e565b61016a61020a366004610f36565b610709565b61012e610900565b61016a7f000000000000000000000000000000000000000000000000000000000000000081565b6066546001600160a01b031661016a565b61012e61025d366004610edf565b610912565b61012e610270366004610f7d565b61099e565b60005461016a906001600160a01b031681565b61012e610296366004610f36565b610ac9565b61012e6102a9366004610e7a565b610b42565b61012e6102bc366004610edf565b610c5a565b6101db6102cf366004610f36565b60026020526000908152604090205460ff1681565b60405163237dfb4760e11b81523360048201527f00000000000000000000000000000000000000000000000000000000000000006001600160a01b0316906346fbf68e90602401602060405180830381865afa158015610348573d6000803e3d6000fd5b505050506040513d601f19601f8201168201806040525081019061036c9190610fbf565b61038957604051631d77d47760e21b815260040160405180910390fd5b60995481811681146103ae5760405163c61dca5d60e01b815260040160405180910390fd5b6103b782610cb0565b5050565b6103c3610ced565b60008167ffffffffffffffff8111156103de576103de610fe1565b604051908082528060200260200182016040528015610407578160200160208202803683370190505b5090506000805b838110156105c8576002600086868481811061042c5761042c610ff7565b90506020020160208101906104419190610f36565b6001600160a01b0316815260208101919091526040016000205460ff161561047c5760405163f53de75f60e01b815260040160405180910390fd5b60016002600087878581811061049457610494610ff7565b90506020020160208101906104a99190610f36565b6001600160a01b031681526020810191909152604001600020805460ff19169115159190911790557f75519c51f39873ec0e27dd3bbc09549e4865a113f505393fb9eab5898f6418b385858381811061050457610504610ff7565b90506020020160208101906105199190610f36565b6040516001600160a01b03909116815260200160405180910390a160006001600087878581811061054c5761054c610ff7565b90506020020160208101906105619190610f36565b6001600160a01b03908116825260208201929092526040016000205416905080156105bf578084848151811061059957610599610ff7565b6001600160a01b0390921660209283029190910190910152826105bb8161100d565b9350505b5060010161040e565b508082528015610651576040516316bb16b760e31b81526001600160a01b037f0000000000000000000000000000000000000000000000000000000000000000169063b5d8b5b89061061e908590600401611034565b600060405180830381600087803b15801561063857600080fd5b505af115801561064c573d6000803e3d6000fd5b505050505b50505050565b60405163237dfb4760e11b81523360048201527f00000000000000000000000000000000000000000000000000000000000000006001600160a01b0316906346fbf68e90602401602060405180830381865afa1580156106bb573d6000803e3d6000fd5b505050506040513d601f19601f820116820180604052508101906106df9190610fbf565b6106fc57604051631d77d47760e21b815260040160405180910390fd5b610707600019610cb0565b565b60995460009081906001908116036107345760405163840a48d560e01b815260040160405180910390fd5b6001600160a01b03831660009081526002602052604090205460ff161561076e5760405163091867bd60e11b815260040160405180910390fd5b6001600160a01b0383811660009081526001602052604090205416156107a75760405163c45546f760e01b815260040160405180910390fd5b60008054604080516001600160a01b0387811660248084019190915283518084039091018152604490920183526020820180516001600160e01b031663189acdbd60e31b17905291519190921691906107ff90610e6d565b61080a929190611080565b604051809103906000f080158015610826573d6000803e3d6000fd5b5090506108338482610d47565b60408051600180825281830190925260009160208083019080368337019050509050818160008151811061086957610869610ff7565b6001600160a01b039283166020918202929092010152604051632ef047f960e11b81527f000000000000000000000000000000000000000000000000000000000000000090911690635de08ff2906108c5908490600401611034565b600060405180830381600087803b1580156108df57600080fd5b505af11580156108f3573d6000803e3d6000fd5b5093979650505050505050565b610908610ced565b6107076000610db2565b61091a610ced565b604051632ef047f960e11b81526001600160a01b037f00000000000000000000000000000000000000000000000000000000000000001690635de08ff29061096890859085906004016110dd565b600060405180830381600087803b15801561098257600080fd5b505af1158015610996573d6000803e3d6000fd5b505050505050565b603354610100900460ff16158080156109be5750603354600160ff909116105b806109d85750303b1580156109d8575060335460ff166001145b610a405760405162461bcd60e51b815260206004820152602e60248201527f496e697469616c697a61626c653a20636f6e747261637420697320616c72656160448201526d191e481a5b9a5d1a585b1a5e995960921b60648201526084015b60405180910390fd5b6033805460ff191660011790558015610a63576033805461ff0019166101001790555b610a6c84610db2565b610a7583610cb0565b610a7e82610e04565b8015610651576033805461ff0019169055604051600181527f7f26b83ff96e1f2b6a682f133852f6798a09c465da95921460cefb38474024989060200160405180910390a150505050565b610ad1610ced565b6001600160a01b038116610b365760405162461bcd60e51b815260206004820152602660248201527f4f776e61626c653a206e6577206f776e657220697320746865207a65726f206160448201526564647265737360d01b6064820152608401610a37565b610b3f81610db2565b50565b7f00000000000000000000000000000000000000000000000000000000000000006001600160a01b031663eab66d7a6040518163ffffffff1660e01b8152600401602060405180830381865afa158015610ba0573d6000803e3d6000fd5b505050506040513d601f19601f82011682018060405250810190610bc4919061112a565b6001600160a01b0316336001600160a01b031614610bf55760405163794821ff60e01b815260040160405180910390fd5b60995480198219811614610c1c5760405163c61dca5d60e01b815260040160405180910390fd5b609982905560405182815233907f3582d1828e26bf56bd801502bc021ac0bc8afb57c826e4986b45593c8fad389c9060200160405180910390a25050565b610c62610ced565b6040516316bb16b760e31b81526001600160a01b037f0000000000000000000000000000000000000000000000000000000000000000169063b5d8b5b89061096890859085906004016110dd565b609981905560405181815233907fab40a374bc51de372200a8bc981af8c9ecdc08dfdaef0bb6e09f88f3c616ef3d9060200160405180910390a250565b6066546001600160a01b031633146107075760405162461bcd60e51b815260206004820181905260248201527f4f776e61626c653a2063616c6c6572206973206e6f7420746865206f776e65726044820152606401610a37565b6001600160a01b0382811660008181526001602090815260409182902080546001600160a01b031916948616948517905581519283528201929092527f6852a55230ef089d785bce7ffbf757985de34026df90a87d7b4a6e56f95d251f910160405180910390a15050565b606680546001600160a01b038381166001600160a01b0319831681179093556040519116919082907f8be0079c531659141344cd1fd0a4f28419497f9722a3daafe3b4186f6b6457e090600090a35050565b600054604080516001600160a01b03928316815291831660208301527fe21755962a7d7e100b59b9c3e4d4b54085b146313719955efb6a7a25c5c7feee910160405180910390a1600080546001600160a01b0319166001600160a01b0392909216919091179055565b6106d28061114883390190565b600060208284031215610e8c57600080fd5b5035919050565b60008083601f840112610ea557600080fd5b50813567ffffffffffffffff811115610ebd57600080fd5b6020830191508360208260051b8501011115610ed857600080fd5b9250929050565b60008060208385031215610ef257600080fd5b823567ffffffffffffffff811115610f0957600080fd5b610f1585828601610e93565b90969095509350505050565b6001600160a01b0381168114610b3f57600080fd5b600060208284031215610f4857600080fd5b8135610f5381610f21565b9392505050565b600060208284031215610f6c57600080fd5b813560ff81168114610f5357600080fd5b600080600060608486031215610f9257600080fd5b8335610f9d81610f21565b9250602084013591506040840135610fb481610f21565b809150509250925092565b600060208284031215610fd157600080fd5b81518015158114610f5357600080fd5b634e487b7160e01b600052604160045260246000fd5b634e487b7160e01b600052603260045260246000fd5b60006001820161102d57634e487b7160e01b600052601160045260246000fd5b5060010190565b602080825282518282018190526000918401906040840190835b818110156110755783516001600160a01b031683526020938401939092019160010161104e565b509095945050505050565b60018060a01b0383168152604060208201526000825180604084015260005b818110156110bc576020818601810151606086840101520161109f565b506000606082850101526060601f19601f8301168401019150509392505050565b6020808252810182905260008360408301825b8581101561112057823561110381610f21565b6001600160a01b03168252602092830192909101906001016110f0565b5095945050505050565b60006020828403121561113c57600080fd5b8151610f5381610f2156fe60806040526040516106d23803806106d283398101604081905261002291610420565b61002e82826000610035565b5050610550565b61003e836100f6565b6040516001600160a01b038416907f1cf3b03a6cf19fa2baba4df148e9dcabedea7f8a5c07840e207e5c089be95d3e90600090a260008251118061007f5750805b156100f1576100ef836001600160a01b0316635c60da1b6040518163ffffffff1660e01b8152600401602060405180830381865afa1580156100c5573d6000803e3d6000fd5b505050506040513d601f19601f820116820180604052508101906100e991906104e6565b8361027a565b505b505050565b6001600160a01b0381163b6101605760405162461bcd60e51b815260206004820152602560248201527f455243313936373a206e657720626561636f6e206973206e6f74206120636f6e6044820152641d1c9858dd60da1b60648201526084015b60405180910390fd5b6101d4816001600160a01b0316635c60da1b6040518163ffffffff1660e01b8152600401602060405180830381865afa1580156101a1573d6000803e3d6000fd5b505050506040513d601f19601f820116820180604052508101906101c591906104e6565b6001600160a01b03163b151590565b6102395760405162461bcd60e51b815260206004820152603060248201527f455243313936373a20626561636f6e20696d706c656d656e746174696f6e206960448201526f1cc81b9bdd08184818dbdb9d1c9858dd60821b6064820152608401610157565b7fa3f0ad74e5423aebfd80d3ef4346578335a9a72aeaee59ff6cb3582b35133d5080546001600160a01b0319166001600160a01b0392909216919091179055565b606061029f83836040518060600160405280602781526020016106ab602791396102a6565b9392505050565b6060600080856001600160a01b0316856040516102c39190610501565b600060405180830381855af49150503d80600081146102fe576040519150601f19603f3d011682016040523d82523d6000602084013e610303565b606091505b5090925090506103158683838761031f565b9695505050505050565b6060831561038e578251600003610387576001600160a01b0385163b6103875760405162461bcd60e51b815260206004820152601d60248201527f416464726573733a2063616c6c20746f206e6f6e2d636f6e74726163740000006044820152606401610157565b5081610398565b61039883836103a0565b949350505050565b8151156103b05781518083602001fd5b8060405162461bcd60e51b8152600401610157919061051d565b80516001600160a01b03811681146103e157600080fd5b919050565b634e487b7160e01b600052604160045260246000fd5b60005b838110156104175781810151838201526020016103ff565b50506000910152565b6000806040838503121561043357600080fd5b61043c836103ca565b60208401519092506001600160401b0381111561045857600080fd5b8301601f8101851361046957600080fd5b80516001600160401b03811115610482576104826103e6565b604051601f8201601f19908116603f011681016001600160401b03811182821017156104b0576104b06103e6565b6040528181528282016020018710156104c857600080fd5b6104d98260208301602086016103fc565b8093505050509250929050565b6000602082840312156104f857600080fd5b61029f826103ca565b600082516105138184602087016103fc565b9190910192915050565b602081526000825180602084015261053c8160408501602087016103fc565b601f01601f19169190910160400192915050565b61014c8061055f6000396000f3fe60806040523661001357610011610017565b005b6100115b610027610022610029565b6100c2565b565b600061005c7fa3f0ad74e5423aebfd80d3ef4346578335a9a72aeaee59ff6cb3582b35133d50546001600160a01b031690565b6001600160a01b0316635c60da1b6040518163ffffffff1660e01b8152600401602060405180830381865afa158015610099573d6000803e3d6000fd5b505050506040513d601f19601f820116820180604052508101906100bd91906100e6565b905090565b3660008037600080366000845af43d6000803e8080156100e1573d6000f35b3d6000fd5b6000602082840312156100f857600080fd5b81516001600160a01b038116811461010f57600080fd5b939250505056fea2646970667358221220c713350530d7743d63f059fac4a4079abefdb272c7fbd383fdcd392f715b496764736f6c634300081b0033416464726573733a206c6f772d6c6576656c2064656c65676174652063616c6c206661696c6564a2646970667358221220de561e9ca67606f95fbad982338c6e308f773f4e4c6457c2b676919993ecde4f64736f6c634300081b0033",
    "linkReferences": {}
  },
  "methodIdentifiers": {
    "blacklistTokens(address[])": "23103c41",
    "deployNewStrategy(address)": "6b9b6229",
    "deployedStrategies(address)": "581dfd65",
    "initialize(address,uint256,address)": "c350a1b5",
    "isBlacklisted(address)": "fe575a87",
    "owner()": "8da5cb5b",
    "pause(uint256)": "136439dd",
    "pauseAll()": "595c6a67",
    "paused()": "5c975abb",
    "paused(uint8)": "5ac86ab7",
    "pauserRegistry()": "886f1195",
    "removeStrategiesFromWhitelist(address[])": "fe38b32d",
    "renounceOwnership()": "715018a6",
    "strategyBeacon()": "f0062d9a",
    "strategyManager()": "39b70e38",
    "transferOwnership(address)": "f2fde38b",
    "unpause(uint256)": "fabc1cbc",
    "whitelistStrategies(address[])": "b768ebc9"
  },
  "id": 166
}