{
  "abi": [
    {
      "type": "constructor",
      "inputs": [
        {
          "name": "_delegation",
          "type": "address",
          "internalType": "contract IDelegationManager"
        },
        {
          "name": "_pauserRegistry",
          "type": "address",
          "internalType": "contract IPauserRegistry"
        },
        {
          "name": "_permissionController",
          "type": "address",
          "internalType": "contract IPermissionController"
        },
        {
          "name": "_DEALLOCATION_DELAY",
          "type": "uint32",
          "internalType": "uint32"
        },
        {
          "name": "_ALLOCATION_CONFIGURATION_DELAY",
          "type": "uint32",
          "internalType": "uint32"
        }
      ],
      "stateMutability": "nonpayable"
    },
    {
      "type": "function",
      "name": "ALLOCATION_CONFIGURATION_DELAY",
      "inputs": [],
      "outputs": [
        {
          "name": "",
          "type": "uint32",
          "internalType": "uint32"
        }
      ],
      "stateMutability": "view"
    },
    {
      "type": "function",
      "name": "DEALLOCATION_DELAY",
      "inputs": [],
      "outputs": [
        {
          "name": "",
          "type": "uint32",
          "internalType": "uint32"
        }
      ],
      "stateMutability": "view"
    },
    {
      "type": "function",
      "name": "addStrategiesToOperatorSet",
      "inputs": [
        {
          "name": "avs",
          "type": "address",
          "internalType": "address"
        },
        {
          "name": "operatorSetId",
          "type": "uint32",
          "internalType": "uint32"
        },
        {
          "name": "strategies",
          "type": "address[]",
          "internalType": "contract IStrategy[]"
        }
      ],
      "outputs": [],
      "stateMutability": "nonpayable"
    },
    {
      "type": "function",
      "name": "clearDeallocationQueue",
      "inputs": [
        {
          "name": "operator",
          "type": "address",
          "internalType": "address"
        },
        {
          "name": "strategies",
          "type": "address[]",
          "internalType": "contract IStrategy[]"
        },
        {
          "name": "numToClear",
          "type": "uint16[]",
          "internalType": "uint16[]"
        }
      ],
      "outputs": [],
      "stateMutability": "nonpayable"
    },
    {
      "type": "function",
      "name": "createOperatorSets",
      "inputs": [
        {
          "name": "avs",
          "type": "address",
          "internalType": "address"
        },
        {
          "name": "params",
          "type": "tuple[]",
          "internalType": "struct IAllocationManagerTypes.CreateSetParams[]",
          "components": [
            {
              "name": "operatorSetId",
              "type": "uint32",
              "internalType": "uint32"
            },
            {
              "name": "strategies",
              "type": "address[]",
              "internalType": "contract IStrategy[]"
            }
          ]
        }
      ],
      "outputs": [],
      "stateMutability": "nonpayable"
    },
    {
      "type": "function",
      "name": "delegation",
      "inputs": [],
      "outputs": [
        {
          "name": "",
          "type": "address",
          "internalType": "contract IDelegationManager"
        }
      ],
      "stateMutability": "view"
    },
    {
      "type": "function",
      "name": "deregisterFromOperatorSets",
      "inputs": [
        {
          "name": "params",
          "type": "tuple",
          "internalType": "struct IAllocationManagerTypes.DeregisterParams",
          "components": [
            {
              "name": "operator",
              "type": "address",
              "internalType": "address"
            },
            {
              "name": "avs",
              "type": "address",
              "internalType": "address"
            },
            {
              "name": "operatorSetIds",
              "type": "uint32[]",
              "internalType": "uint32[]"
            }
          ]
        }
      ],
      "outputs": [],
      "stateMutability": "nonpayable"
    },
    {
      "type": "function",
      "name": "encumberedMagnitude",
      "inputs": [
        {
          "name": "operator",
          "type": "address",
          "internalType": "address"
        },
        {
          "name": "strategy",
          "type": "address",
          "internalType": "contract IStrategy"
        }
      ],
      "outputs": [
        {
          "name": "",
          "type": "uint64",
          "internalType": "uint64"
        }
      ],
      "stateMutability": "view"
    },
    {
      "type": "function",
      "name": "getAVSRegistrar",
      "inputs": [
        {
          "name": "avs",
          "type": "address",
          "internalType": "address"
        }
      ],
      "outputs": [
        {
          "name": "",
          "type": "address",
          "internalType": "contract IAVSRegistrar"
        }
      ],
      "stateMutability": "view"
    },
    {
      "type": "function",
      "name": "getAllocatableMagnitude",
      "inputs": [
        {
          "name": "operator",
          "type": "address",
          "internalType": "address"
        },
        {
          "name": "strategy",
          "type": "address",
          "internalType": "contract IStrategy"
        }
      ],
      "outputs": [
        {
          "name": "",
          "type": "uint64",
          "internalType": "uint64"
        }
      ],
      "stateMutability": "view"
    },
    {
      "type": "function",
      "name": "getAllocatedSets",
      "inputs": [
        {
          "name": "operator",
          "type": "address",
          "internalType": "address"
        }
      ],
      "outputs": [
        {
          "name": "",
          "type": "tuple[]",
          "internalType": "struct OperatorSet[]",
          "components": [
            {
              "name": "avs",
              "type": "address",
              "internalType": "address"
            },
            {
              "name": "id",
              "type": "uint32",
              "internalType": "uint32"
            }
          ]
        }
      ],
      "stateMutability": "view"
    },
    {
      "type": "function",
      "name": "getAllocatedStrategies",
      "inputs": [
        {
          "name": "operator",
          "type": "address",
          "internalType": "address"
        },
        {
          "name": "operatorSet",
          "type": "tuple",
          "internalType": "struct OperatorSet",
          "components": [
            {
              "name": "avs",
              "type": "address",
              "internalType": "address"
            },
            {
              "name": "id",
              "type": "uint32",
              "internalType": "uint32"
            }
          ]
        }
      ],
      "outputs": [
        {
          "name": "",
          "type": "address[]",
          "internalType": "contract IStrategy[]"
        }
      ],
      "stateMutability": "view"
    },
    {
      "type": "function",
      "name": "getAllocation",
      "inputs": [
        {
          "name": "operator",
          "type": "address",
          "internalType": "address"
        },
        {
          "name": "operatorSet",
          "type": "tuple",
          "internalType": "struct OperatorSet",
          "components": [
            {
              "name": "avs",
              "type": "address",
              "internalType": "address"
            },
            {
              "name": "id",
              "type": "uint32",
              "internalType": "uint32"
            }
          ]
        },
        {
          "name": "strategy",
          "type": "address",
          "internalType": "contract IStrategy"
        }
      ],
      "outputs": [
        {
          "name": "",
          "type": "tuple",
          "internalType": "struct IAllocationManagerTypes.Allocation",
          "components": [
            {
              "name": "currentMagnitude",
              "type": "uint64",
              "internalType": "uint64"
            },
            {
              "name": "pendingDiff",
              "type": "int128",
              "internalType": "int128"
            },
            {
              "name": "effectBlock",
              "type": "uint32",
              "internalType": "uint32"
            }
          ]
        }
      ],
      "stateMutability": "view"
    },
    {
      "type": "function",
      "name": "getAllocationDelay",
      "inputs": [
        {
          "name": "operator",
          "type": "address",
          "internalType": "address"
        }
      ],
      "outputs": [
        {
          "name": "",
          "type": "bool",
          "internalType": "bool"
        },
        {
          "name": "",
          "type": "uint32",
          "internalType": "uint32"
        }
      ],
      "stateMutability": "view"
    },
    {
      "type": "function",
      "name": "getAllocations",
      "inputs": [
        {
          "name": "operators",
          "type": "address[]",
          "internalType": "address[]"
        },
        {
          "name": "operatorSet",
          "type": "tuple",
          "internalType": "struct OperatorSet",
          "components": [
            {
              "name": "avs",
              "type": "address",
              "internalType": "address"
            },
            {
              "name": "id",
              "type": "uint32",
              "internalType": "uint32"
            }
          ]
        },
        {
          "name": "strategy",
          "type": "address",
          "internalType": "contract IStrategy"
        }
      ],
      "outputs": [
        {
          "name": "",
          "type": "tuple[]",
          "internalType": "struct IAllocationManagerTypes.Allocation[]",
          "components": [
            {
              "name": "currentMagnitude",
              "type": "uint64",
              "internalType": "uint64"
            },
            {
              "name": "pendingDiff",
              "type": "int128",
              "internalType": "int128"
            },
            {
              "name": "effectBlock",
              "type": "uint32",
              "internalType": "uint32"
            }
          ]
        }
      ],
      "stateMutability": "view"
    },
    {
      "type": "function",
      "name": "getMaxMagnitude",
      "inputs": [
        {
          "name": "operator",
          "type": "address",
          "internalType": "address"
        },
        {
          "name": "strategy",
          "type": "address",
          "internalType": "contract IStrategy"
        }
      ],
      "outputs": [
        {
          "name": "",
          "type": "uint64",
          "internalType": "uint64"
        }
      ],
      "stateMutability": "view"
    },
    {
      "type": "function",
      "name": "getMaxMagnitudes",
      "inputs": [
        {
          "name": "operators",
          "type": "address[]",
          "internalType": "address[]"
        },
        {
          "name": "strategy",
          "type": "address",
          "internalType": "contract IStrategy"
        }
      ],
      "outputs": [
        {
          "name": "",
          "type": "uint64[]",
          "internalType": "uint64[]"
        }
      ],
      "stateMutability": "view"
    },
    {
      "type": "function",
      "name": "getMaxMagnitudes",
      "inputs": [
        {
          "name": "operator",
          "type": "address",
          "internalType": "address"
        },
        {
          "name": "strategies",
          "type": "address[]",
          "internalType": "contract IStrategy[]"
        }
      ],
      "outputs": [
        {
          "name": "",
          "type": "uint64[]",
          "internalType": "uint64[]"
        }
      ],
      "stateMutability": "view"
    },
    {
      "type": "function",
      "name": "getMaxMagnitudesAtBlock",
      "inputs": [
        {
          "name": "operator",
          "type": "address",
          "internalType": "address"
        },
        {
          "name": "strategies",
          "type": "address[]",
          "internalType": "contract IStrategy[]"
        },
        {
          "name": "blockNumber",
          "type": "uint32",
          "internalType": "uint32"
        }
      ],
      "outputs": [
        {
          "name": "",
          "type": "uint64[]",
          "internalType": "uint64[]"
        }
      ],
      "stateMutability": "view"
    },
    {
      "type": "function",
      "name": "getMemberCount",
      "inputs": [
        {
          "name": "operatorSet",
          "type": "tuple",
          "internalType": "struct OperatorSet",
          "components": [
            {
              "name": "avs",
              "type": "address",
              "internalType": "address"
            },
            {
              "name": "id",
              "type": "uint32",
              "internalType": "uint32"
            }
          ]
        }
      ],
      "outputs": [
        {
          "name": "",
          "type": "uint256",
          "internalType": "uint256"
        }
      ],
      "stateMutability": "view"
    },
    {
      "type": "function",
      "name": "getMembers",
      "inputs": [
        {
          "name": "operatorSet",
          "type": "tuple",
          "internalType": "struct OperatorSet",
          "components": [
            {
              "name": "avs",
              "type": "address",
              "internalType": "address"
            },
            {
              "name": "id",
              "type": "uint32",
              "internalType": "uint32"
            }
          ]
        }
      ],
      "outputs": [
        {
          "name": "",
          "type": "address[]",
          "internalType": "address[]"
        }
      ],
      "stateMutability": "view"
    },
    {
      "type": "function",
      "name": "getMinimumSlashableStake",
      "inputs": [
        {
          "name": "operatorSet",
          "type": "tuple",
          "internalType": "struct OperatorSet",
          "components": [
            {
              "name": "avs",
              "type": "address",
              "internalType": "address"
            },
            {
              "name": "id",
              "type": "uint32",
              "internalType": "uint32"
            }
          ]
        },
        {
          "name": "operators",
          "type": "address[]",
          "internalType": "address[]"
        },
        {
          "name": "strategies",
          "type": "address[]",
          "internalType": "contract IStrategy[]"
        },
        {
          "name": "futureBlock",
          "type": "uint32",
          "internalType": "uint32"
        }
      ],
      "outputs": [
        {
          "name": "slashableStake",
          "type": "uint256[][]",
          "internalType": "uint256[][]"
        }
      ],
      "stateMutability": "view"
    },
    {
      "type": "function",
      "name": "getOperatorSetCount",
      "inputs": [
        {
          "name": "avs",
          "type": "address",
          "internalType": "address"
        }
      ],
      "outputs": [
        {
          "name": "",
          "type": "uint256",
          "internalType": "uint256"
        }
      ],
      "stateMutability": "view"
    },
    {
      "type": "function",
      "name": "getRegisteredSets",
      "inputs": [
        {
          "name": "operator",
          "type": "address",
          "internalType": "address"
        }
      ],
      "outputs": [
        {
          "name": "",
          "type": "tuple[]",
          "internalType": "struct OperatorSet[]",
          "components": [
            {
              "name": "avs",
              "type": "address",
              "internalType": "address"
            },
            {
              "name": "id",
              "type": "uint32",
              "internalType": "uint32"
            }
          ]
        }
      ],
      "stateMutability": "view"
    },
    {
      "type": "function",
      "name": "getStrategiesInOperatorSet",
      "inputs": [
        {
          "name": "operatorSet",
          "type": "tuple",
          "internalType": "struct OperatorSet",
          "components": [
            {
              "name": "avs",
              "type": "address",
              "internalType": "address"
            },
            {
              "name": "id",
              "type": "uint32",
              "internalType": "uint32"
            }
          ]
        }
      ],
      "outputs": [
        {
          "name": "",
          "type": "address[]",
          "internalType": "contract IStrategy[]"
        }
      ],
      "stateMutability": "view"
    },
    {
      "type": "function",
      "name": "getStrategyAllocations",
      "inputs": [
        {
          "name": "operator",
          "type": "address",
          "internalType": "address"
        },
        {
          "name": "strategy",
          "type": "address",
          "internalType": "contract IStrategy"
        }
      ],
      "outputs": [
        {
          "name": "",
          "type": "tuple[]",
          "internalType": "struct OperatorSet[]",
          "components": [
            {
              "name": "avs",
              "type": "address",
              "internalType": "address"
            },
            {
              "name": "id",
              "type": "uint32",
              "internalType": "uint32"
            }
          ]
        },
        {
          "name": "",
          "type": "tuple[]",
          "internalType": "struct IAllocationManagerTypes.Allocation[]",
          "components": [
            {
              "name": "currentMagnitude",
              "type": "uint64",
              "internalType": "uint64"
            },
            {
              "name": "pendingDiff",
              "type": "int128",
              "internalType": "int128"
            },
            {
              "name": "effectBlock",
              "type": "uint32",
              "internalType": "uint32"
            }
          ]
        }
      ],
      "stateMutability": "view"
    },
    {
      "type": "function",
      "name": "initialize",
      "inputs": [
        {
          "name": "initialOwner",
          "type": "address",
          "internalType": "address"
        },
        {
          "name": "initialPausedStatus",
          "type": "uint256",
          "internalType": "uint256"
        }
      ],
      "outputs": [],
      "stateMutability": "nonpayable"
    },
    {
      "type": "function",
      "name": "isMemberOfOperatorSet",
      "inputs": [
        {
          "name": "operator",
          "type": "address",
          "internalType": "address"
        },
        {
          "name": "operatorSet",
          "type": "tuple",
          "internalType": "struct OperatorSet",
          "components": [
            {
              "name": "avs",
              "type": "address",
              "internalType": "address"
            },
            {
              "name": "id",
              "type": "uint32",
              "internalType": "uint32"
            }
          ]
        }
      ],
      "outputs": [
        {
          "name": "",
          "type": "bool",
          "internalType": "bool"
        }
      ],
      "stateMutability": "view"
    },
    {
      "type": "function",
      "name": "isOperatorSet",
      "inputs": [
        {
          "name": "operatorSet",
          "type": "tuple",
          "internalType": "struct OperatorSet",
          "components": [
            {
              "name": "avs",
              "type": "address",
              "internalType": "address"
            },
            {
              "name": "id",
              "type": "uint32",
              "internalType": "uint32"
            }
          ]
        }
      ],
      "outputs": [
        {
          "name": "",
          "type": "bool",
          "internalType": "bool"
        }
      ],
      "stateMutability": "view"
    },
    {
      "type": "function",
      "name": "modifyAllocations",
      "inputs": [
        {
          "name": "operator",
          "type": "address",
          "internalType": "address"
        },
        {
          "name": "params",
          "type": "tuple[]",
          "internalType": "struct IAllocationManagerTypes.AllocateParams[]",
          "components": [
            {
              "name": "operatorSet",
              "type": "tuple",
              "internalType": "struct OperatorSet",
              "components": [
                {
                  "name": "avs",
                  "type": "address",
                  "internalType": "address"
                },
                {
                  "name": "id",
                  "type": "uint32",
                  "internalType": "uint32"
                }
              ]
            },
            {
              "name": "strategies",
              "type": "address[]",
              "internalType": "contract IStrategy[]"
            },
            {
              "name": "newMagnitudes",
              "type": "uint64[]",
              "internalType": "uint64[]"
            }
          ]
        }
      ],
      "outputs": [],
      "stateMutability": "nonpayable"
    },
    {
      "type": "function",
      "name": "owner",
      "inputs": [],
      "outputs": [
        {
          "name": "",
          "type": "address",
          "internalType": "address"
        }
      ],
      "stateMutability": "view"
    },
    {
      "type": "function",
      "name": "pause",
      "inputs": [
        {
          "name": "newPausedStatus",
          "type": "uint256",
          "internalType": "uint256"
        }
      ],
      "outputs": [],
      "stateMutability": "nonpayable"
    },
    {
      "type": "function",
      "name": "pauseAll",
      "inputs": [],
      "outputs": [],
      "stateMutability": "nonpayable"
    },
    {
      "type": "function",
      "name": "paused",
      "inputs": [
        {
          "name": "index",
          "type": "uint8",
          "internalType": "uint8"
        }
      ],
      "outputs": [
        {
          "name": "",
          "type": "bool",
          "internalType": "bool"
        }
      ],
      "stateMutability": "view"
    },
    {
      "type": "function",
      "name": "paused",
      "inputs": [],
      "outputs": [
        {
          "name": "",
          "type": "uint256",
          "internalType": "uint256"
        }
      ],
      "stateMutability": "view"
    },
    {
      "type": "function",
      "name": "pauserRegistry",
      "inputs": [],
      "outputs": [
        {
          "name": "",
          "type": "address",
          "internalType": "contract IPauserRegistry"
        }
      ],
      "stateMutability": "view"
    },
    {
      "type": "function",
      "name": "permissionController",
      "inputs": [],
      "outputs": [
        {
          "name": "",
          "type": "address",
          "internalType": "contract IPermissionController"
        }
      ],
      "stateMutability": "view"
    },
    {
      "type": "function",
      "name": "registerForOperatorSets",
      "inputs": [
        {
          "name": "operator",
          "type": "address",
          "internalType": "address"
        },
        {
          "name": "params",
          "type": "tuple",
          "internalType": "struct IAllocationManagerTypes.RegisterParams",
          "components": [
            {
              "name": "avs",
              "type": "address",
              "internalType": "address"
            },
            {
              "name": "operatorSetIds",
              "type": "uint32[]",
              "internalType": "uint32[]"
            },
            {
              "name": "data",
              "type": "bytes",
              "internalType": "bytes"
            }
          ]
        }
      ],
      "outputs": [],
      "stateMutability": "nonpayable"
    },
    {
      "type": "function",
      "name": "removeStrategiesFromOperatorSet",
      "inputs": [
        {
          "name": "avs",
          "type": "address",
          "internalType": "address"
        },
        {
          "name": "operatorSetId",
          "type": "uint32",
          "internalType": "uint32"
        },
        {
          "name": "strategies",
          "type": "address[]",
          "internalType": "contract IStrategy[]"
        }
      ],
      "outputs": [],
      "stateMutability": "nonpayable"
    },
    {
      "type": "function",
      "name": "renounceOwnership",
      "inputs": [],
      "outputs": [],
      "stateMutability": "nonpayable"
    },
    {
      "type": "function",
      "name": "setAVSRegistrar",
      "inputs": [
        {
          "name": "avs",
          "type": "address",
          "internalType": "address"
        },
        {
          "name": "registrar",
          "type": "address",
          "internalType": "contract IAVSRegistrar"
        }
      ],
      "outputs": [],
      "stateMutability": "nonpayable"
    },
    {
      "type": "function",
      "name": "setAllocationDelay",
      "inputs": [
        {
          "name": "operator",
          "type": "address",
          "internalType": "address"
        },
        {
          "name": "delay",
          "type": "uint32",
          "internalType": "uint32"
        }
      ],
      "outputs": [],
      "stateMutability": "nonpayable"
    },
    {
      "type": "function",
      "name": "slashOperator",
      "inputs": [
        {
          "name": "avs",
          "type": "address",
          "internalType": "address"
        },
        {
          "name": "params",
          "type": "tuple",
          "internalType": "struct IAllocationManagerTypes.SlashingParams",
          "components": [
            {
              "name": "operator",
              "type": "address",
              "internalType": "address"
            },
            {
              "name": "operatorSetId",
              "type": "uint32",
              "internalType": "uint32"
            },
            {
              "name": "strategies",
              "type": "address[]",
              "internalType": "contract IStrategy[]"
            },
            {
              "name": "wadsToSlash",
              "type": "uint256[]",
              "internalType": "uint256[]"
            },
            {
              "name": "description",
              "type": "string",
              "internalType": "string"
            }
          ]
        }
      ],
      "outputs": [],
      "stateMutability": "nonpayable"
    },
    {
      "type": "function",
      "name": "transferOwnership",
      "inputs": [
        {
          "name": "newOwner",
          "type": "address",
          "internalType": "address"
        }
      ],
      "outputs": [],
      "stateMutability": "nonpayable"
    },
    {
      "type": "function",
      "name": "unpause",
      "inputs": [
        {
          "name": "newPausedStatus",
          "type": "uint256",
          "internalType": "uint256"
        }
      ],
      "outputs": [],
      "stateMutability": "nonpayable"
    },
    {
      "type": "function",
      "name": "updateAVSMetadataURI",
      "inputs": [
        {
          "name": "avs",
          "type": "address",
          "internalType": "address"
        },
        {
          "name": "metadataURI",
          "type": "string",
          "internalType": "string"
        }
      ],
      "outputs": [],
      "stateMutability": "nonpayable"
    },
    {
      "type": "event",
      "name": "AVSMetadataURIUpdated",
      "inputs": [
        {
          "name": "avs",
          "type": "address",
          "indexed": true,
          "internalType": "address"
        },
        {
          "name": "metadataURI",
          "type": "string",
          "indexed": false,
          "internalType": "string"
        }
      ],
      "anonymous": false
    },
    {
      "type": "event",
      "name": "AVSRegistrarSet",
      "inputs": [
        {
          "name": "avs",
          "type": "address",
          "indexed": false,
          "internalType": "address"
        },
        {
          "name": "registrar",
          "type": "address",
          "indexed": false,
          "internalType": "contract IAVSRegistrar"
        }
      ],
      "anonymous": false
    },
    {
      "type": "event",
      "name": "AllocationDelaySet",
      "inputs": [
        {
          "name": "operator",
          "type": "address",
          "indexed": false,
          "internalType": "address"
        },
        {
          "name": "delay",
          "type": "uint32",
          "indexed": false,
          "internalType": "uint32"
        },
        {
          "name": "effectBlock",
          "type": "uint32",
          "indexed": false,
          "internalType": "uint32"
        }
      ],
      "anonymous": false
    },
    {
      "type": "event",
      "name": "AllocationUpdated",
      "inputs": [
        {
          "name": "operator",
          "type": "address",
          "indexed": false,
          "internalType": "address"
        },
        {
          "name": "operatorSet",
          "type": "tuple",
          "indexed": false,
          "internalType": "struct OperatorSet",
          "components": [
            {
              "name": "avs",
              "type": "address",
              "internalType": "address"
            },
            {
              "name": "id",
              "type": "uint32",
              "internalType": "uint32"
            }
          ]
        },
        {
          "name": "strategy",
          "type": "address",
          "indexed": false,
          "internalType": "contract IStrategy"
        },
        {
          "name": "magnitude",
          "type": "uint64",
          "indexed": false,
          "internalType": "uint64"
        },
        {
          "name": "effectBlock",
          "type": "uint32",
          "indexed": false,
          "internalType": "uint32"
        }
      ],
      "anonymous": false
    },
    {
      "type": "event",
      "name": "EncumberedMagnitudeUpdated",
      "inputs": [
        {
          "name": "operator",
          "type": "address",
          "indexed": false,
          "internalType": "address"
        },
        {
          "name": "strategy",
          "type": "address",
          "indexed": false,
          "internalType": "contract IStrategy"
        },
        {
          "name": "encumberedMagnitude",
          "type": "uint64",
          "indexed": false,
          "internalType": "uint64"
        }
      ],
      "anonymous": false
    },
    {
      "type": "event",
      "name": "Initialized",
      "inputs": [
        {
          "name": "version",
          "type": "uint8",
          "indexed": false,
          "internalType": "uint8"
        }
      ],
      "anonymous": false
    },
    {
      "type": "event",
      "name": "MaxMagnitudeUpdated",
      "inputs": [
        {
          "name": "operator",
          "type": "address",
          "indexed": false,
          "internalType": "address"
        },
        {
          "name": "strategy",
          "type": "address",
          "indexed": false,
          "internalType": "contract IStrategy"
        },
        {
          "name": "maxMagnitude",
          "type": "uint64",
          "indexed": false,
          "internalType": "uint64"
        }
      ],
      "anonymous": false
    },
    {
      "type": "event",
      "name": "OperatorAddedToOperatorSet",
      "inputs": [
        {
          "name": "operator",
          "type": "address",
          "indexed": true,
          "internalType": "address"
        },
        {
          "name": "operatorSet",
          "type": "tuple",
          "indexed": false,
          "internalType": "struct OperatorSet",
          "components": [
            {
              "name": "avs",
              "type": "address",
              "internalType": "address"
            },
            {
              "name": "id",
              "type": "uint32",
              "internalType": "uint32"
            }
          ]
        }
      ],
      "anonymous": false
    },
    {
      "type": "event",
      "name": "OperatorRemovedFromOperatorSet",
      "inputs": [
        {
          "name": "operator",
          "type": "address",
          "indexed": true,
          "internalType": "address"
        },
        {
          "name": "operatorSet",
          "type": "tuple",
          "indexed": false,
          "internalType": "struct OperatorSet",
          "components": [
            {
              "name": "avs",
              "type": "address",
              "internalType": "address"
            },
            {
              "name": "id",
              "type": "uint32",
              "internalType": "uint32"
            }
          ]
        }
      ],
      "anonymous": false
    },
    {
      "type": "event",
      "name": "OperatorSetCreated",
      "inputs": [
        {
          "name": "operatorSet",
          "type": "tuple",
          "indexed": false,
          "internalType": "struct OperatorSet",
          "components": [
            {
              "name": "avs",
              "type": "address",
              "internalType": "address"
            },
            {
              "name": "id",
              "type": "uint32",
              "internalType": "uint32"
            }
          ]
        }
      ],
      "anonymous": false
    },
    {
      "type": "event",
      "name": "OperatorSlashed",
      "inputs": [
        {
          "name": "operator",
          "type": "address",
          "indexed": false,
          "internalType": "address"
        },
        {
          "name": "operatorSet",
          "type": "tuple",
          "indexed": false,
          "internalType": "struct OperatorSet",
          "components": [
            {
              "name": "avs",
              "type": "address",
              "internalType": "address"
            },
            {
              "name": "id",
              "type": "uint32",
              "internalType": "uint32"
            }
          ]
        },
        {
          "name": "strategies",
          "type": "address[]",
          "indexed": false,
          "internalType": "contract IStrategy[]"
        },
        {
          "name": "wadSlashed",
          "type": "uint256[]",
          "indexed": false,
          "internalType": "uint256[]"
        },
        {
          "name": "description",
          "type": "string",
          "indexed": false,
          "internalType": "string"
        }
      ],
      "anonymous": false
    },
    {
      "type": "event",
      "name": "OwnershipTransferred",
      "inputs": [
        {
          "name": "previousOwner",
          "type": "address",
          "indexed": true,
          "internalType": "address"
        },
        {
          "name": "newOwner",
          "type": "address",
          "indexed": true,
          "internalType": "address"
        }
      ],
      "anonymous": false
    },
    {
      "type": "event",
      "name": "Paused",
      "inputs": [
        {
          "name": "account",
          "type": "address",
          "indexed": true,
          "internalType": "address"
        },
        {
          "name": "newPausedStatus",
          "type": "uint256",
          "indexed": false,
          "internalType": "uint256"
        }
      ],
      "anonymous": false
    },
    {
      "type": "event",
      "name": "StrategyAddedToOperatorSet",
      "inputs": [
        {
          "name": "operatorSet",
          "type": "tuple",
          "indexed": false,
          "internalType": "struct OperatorSet",
          "components": [
            {
              "name": "avs",
              "type": "address",
              "internalType": "address"
            },
            {
              "name": "id",
              "type": "uint32",
              "internalType": "uint32"
            }
          ]
        },
        {
          "name": "strategy",
          "type": "address",
          "indexed": false,
          "internalType": "contract IStrategy"
        }
      ],
      "anonymous": false
    },
    {
      "type": "event",
      "name": "StrategyRemovedFromOperatorSet",
      "inputs": [
        {
          "name": "operatorSet",
          "type": "tuple",
          "indexed": false,
          "internalType": "struct OperatorSet",
          "components": [
            {
              "name": "avs",
              "type": "address",
              "internalType": "address"
            },
            {
              "name": "id",
              "type": "uint32",
              "internalType": "uint32"
            }
          ]
        },
        {
          "name": "strategy",
          "type": "address",
          "indexed": false,
          "internalType": "contract IStrategy"
        }
      ],
      "anonymous": false
    },
    {
      "type": "event",
      "name": "Unpaused",
      "inputs": [
        {
          "name": "account",
          "type": "address",
          "indexed": true,
          "internalType": "address"
        },
        {
          "name": "newPausedStatus",
          "type": "uint256",
          "indexed": false,
          "internalType": "uint256"
        }
      ],
      "anonymous": false
    },
    {
      "type": "error",
      "name": "AlreadyMemberOfSet",
      "inputs": []
    },
    {
      "type": "error",
      "name": "CurrentlyPaused",
      "inputs": []
    },
    {
      "type": "error",
      "name": "Empty",
      "inputs": []
    },
    {
      "type": "error",
      "name": "InputAddressZero",
      "inputs": []
    },
    {
      "type": "error",
      "name": "InputArrayLengthMismatch",
      "inputs": []
    },
    {
      "type": "error",
      "name": "InsufficientMagnitude",
      "inputs": []
    },
    {
      "type": "error",
      "name": "InvalidCaller",
      "inputs": []
    },
    {
      "type": "error",
      "name": "InvalidNewPausedStatus",
      "inputs": []
    },
    {
      "type": "error",
      "name": "InvalidOperator",
      "inputs": []
    },
    {
      "type": "error",
      "name": "InvalidOperatorSet",
      "inputs": []
    },
    {
      "type": "error",
      "name": "InvalidPermissions",
      "inputs": []
    },
    {
      "type": "error",
      "name": "InvalidSnapshotOrdering",
      "inputs": []
    },
    {
      "type": "error",
      "name": "InvalidWadToSlash",
      "inputs": []
    },
    {
      "type": "error",
      "name": "ModificationAlreadyPending",
      "inputs": []
    },
    {
      "type": "error",
      "name": "NotMemberOfSet",
      "inputs": []
    },
    {
      "type": "error",
      "name": "OnlyPauser",
      "inputs": []
    },
    {
      "type": "error",
      "name": "OnlyUnpauser",
      "inputs": []
    },
    {
      "type": "error",
      "name": "OperatorNotSlashable",
      "inputs": []
    },
    {
      "type": "error",
      "name": "OutOfBounds",
      "inputs": []
    },
    {
      "type": "error",
      "name": "SameMagnitude",
      "inputs": []
    },
    {
      "type": "error",
      "name": "StrategiesMustBeInAscendingOrder",
      "inputs": []
    },
    {
      "type": "error",
      "name": "StrategyAlreadyInOperatorSet",
      "inputs": []
    },
    {
      "type": "error",
      "name": "StrategyNotInOperatorSet",
      "inputs": []
    },
    {
      "type": "error",
      "name": "UninitializedAllocationDelay",
      "inputs": []
    }
  ],
  "bytecode": {
    "object": "0x610120604052348015610010575f5ffd5b50604051615a75380380615a7583398101604081905261002f91610180565b82858383876001600160a01b03811661005b576040516339b190bb60e11b815260040160405180910390fd5b6001600160a01b0390811660805292831660a05263ffffffff91821660c0521660e052166101005261008b610095565b50505050506101e9565b5f54610100900460ff16156101005760405162461bcd60e51b815260206004820152602760248201527f496e697469616c697a61626c653a20636f6e747261637420697320696e697469604482015266616c697a696e6760c81b606482015260840160405180910390fd5b5f5460ff9081161461014f575f805460ff191660ff9081179091556040519081527f7f26b83ff96e1f2b6a682f133852f6798a09c465da95921460cefb38474024989060200160405180910390a15b565b6001600160a01b0381168114610165575f5ffd5b50565b805163ffffffff8116811461017b575f5ffd5b919050565b5f5f5f5f5f60a08688031215610194575f5ffd5b855161019f81610151565b60208701519095506101b081610151565b60408701519094506101c181610151565b92506101cf60608701610168565b91506101dd60808701610168565b90509295509295909350565b60805160a05160c05160e051610100516157fb61027a5f395f81816103f9015261370301525f81816105480152613d0301525f818161031e0152818161223e015261293501525f81816106fa01528181610c970152818161161c01528181611c8301528181611ced0152612bfc01525f818161056f0152818161079201528181611d92015261337a01526157fb5ff3fe608060405234801561000f575f5ffd5b5060043610610281575f3560e01c80636e875dba11610156578063a984eb3a116100ca578063c221d8ae11610084578063c221d8ae146106bc578063cd6dc687146106cf578063d3d96ff4146106e2578063df5cf723146106f5578063f2fde38b1461071c578063fabc1cbc1461072f575f5ffd5b8063a984eb3a1461060e578063adc2e3d914610641578063b2447af714610654578063b66bd98914610667578063b9fbaed11461067a578063ba1a84e5146106a9575f5ffd5b80638ce648541161011b5780638ce64854146105915780638da5cb5b146105b157806394d7d00c146105c2578063952899ee146105d5578063a9333ec8146105e8578063a9821821146105fb575f5ffd5b80636e875dba14610515578063715018a61461052857806379ae50cd146105305780637bc1ef6114610543578063886f11951461056a575f5ffd5b80634657e26a116101f8578063595c6a67116101b2578063595c6a67146104875780635ac86ab71461048f5780635c975abb146104b2578063670d3ba2146104c45780636cfb4481146104d75780636e3492b514610502575f5ffd5b80634657e26a146103f45780634a10ffe51461041b5780634b5046ef1461043b57806350feea201461044e578063547afb871461046157806356c483e614610474575f5ffd5b80632981eb77116102495780632981eb77146103195780632bab2c4a14610355578063304c10cd1461037557806336352057146103a057806340120dab146103b35780634177a87c146103d4575f5ffd5b806310e1b9b814610285578063136439dd146102ae57806315fe5028146102c3578063260dc758146102e3578063261f84e014610306575b5f5ffd5b610298610293366004614728565b610742565b6040516102a5919061476f565b60405180910390f35b6102c16102bc3660046147a2565b61077d565b005b6102d66102d13660046147b9565b610852565b6040516102a59190614837565b6102f66102f1366004614849565b610969565b60405190151581526020016102a5565b6102c16103143660046148a3565b6109a0565b6103407f000000000000000000000000000000000000000000000000000000000000000081565b60405163ffffffff90911681526020016102a5565b610368610363366004614988565b610c43565b6040516102a59190614a3c565b6103886103833660046147b9565b610f30565b6040516001600160a01b0390911681526020016102a5565b6102c16103ae366004614a9f565b610f5f565b6103c66103c1366004614af1565b611771565b6040516102a5929190614b7e565b6103e76103e2366004614849565b6118ec565b6040516102a59190614bdb565b6103887f000000000000000000000000000000000000000000000000000000000000000081565b61042e610429366004614bed565b611910565b6040516102a59190614c30565b6102c1610449366004614c7b565b6119b8565b6102c161045c366004614cfb565b611a72565b61042e61046f366004614d59565b611bd0565b6102c1610482366004614da5565b611c78565b6102c1611d7d565b6102f661049d366004614dd8565b606654600160ff9092169190911b9081161490565b6066545b6040519081526020016102a5565b6102f66104d2366004614df8565b611e2c565b6104ea6104e5366004614af1565b611e3d565b6040516001600160401b0390911681526020016102a5565b6102c1610510366004614e39565b611faa565b6103e7610523366004614849565b61237a565b6102c161238b565b6102d661053e3660046147b9565b61239c565b6103407f000000000000000000000000000000000000000000000000000000000000000081565b6103887f000000000000000000000000000000000000000000000000000000000000000081565b6105a461059f366004614e6a565b612476565b6040516102a59190614ead565b6033546001600160a01b0316610388565b61042e6105d0366004614ebf565b61253b565b6102c16105e3366004614f1a565b612627565b6104ea6105f6366004614af1565b612aee565b6102c16106093660046150c3565b612b1d565b6104ea61061c366004614af1565b60a260209081525f92835260408084209091529082529020546001600160401b031681565b6102c161064f366004615141565b612b8d565b6104b6610662366004614849565b612edc565b6102c1610675366004614cfb565b612efe565b61068d6106883660046147b9565b613058565b60408051921515835263ffffffff9091166020830152016102a5565b6104b66106b73660046147b9565b6130f2565b6103e76106ca366004614df8565b613112565b6102c16106dd366004615183565b613143565b6102c16106f0366004614af1565b613260565b6103887f000000000000000000000000000000000000000000000000000000000000000081565b6102c161072a3660046147b9565b6132ff565b6102c161073d3660046147a2565b613378565b604080516060810182525f80825260208201819052918101829052906107718561076b8661348e565b856134f1565b925050505b9392505050565b60405163237dfb4760e11b81523360048201527f00000000000000000000000000000000000000000000000000000000000000006001600160a01b0316906346fbf68e90602401602060405180830381865afa1580156107df573d5f5f3e3d5ffd5b505050506040513d601f19601f8201168201806040525081019061080391906151ad565b61082057604051631d77d47760e21b815260040160405180910390fd5b60665481811681146108455760405163c61dca5d60e01b815260040160405180910390fd5b61084e8261365d565b5050565b6001600160a01b0381165f908152609d60205260408120606091906108769061369a565b90505f816001600160401b038111156108915761089161464c565b6040519080825280602002602001820160405280156108d557816020015b604080518082019091525f80825260208201528152602001906001900390816108af5790505b5090505f5b82811015610961576001600160a01b0385165f908152609d6020526040902061093c9061090790836136a3565b604080518082019091525f80825260208201525060408051808201909152606082901c815263ffffffff909116602082015290565b82828151811061094e5761094e6151cc565b60209081029190910101526001016108da565b509392505050565b60208082015182516001600160a01b03165f90815260989092526040822061099a9163ffffffff908116906136ae16565b92915050565b826109aa816136c5565b6109c75760405163932d94f760e01b815260040160405180910390fd5b5f5b82811015610c3c575f6040518060400160405280876001600160a01b031681526020018686858181106109fe576109fe6151cc565b9050602002810190610a1091906151e0565b610a1e9060208101906151fe565b63ffffffff168152509050610a68816020015163ffffffff1660985f896001600160a01b03166001600160a01b031681526020019081526020015f2061376f90919063ffffffff16565b610a8557604051631fb1705560e21b815260040160405180910390fd5b7f31629285ead2335ae0933f86ed2ae63321f7af77b4e6eaabc42c057880977e6c6040518060400160405280886001600160a01b03168152602001836020015163ffffffff16815250604051610adb9190615217565b60405180910390a15f610aed8261348e565b90505f5b868685818110610b0357610b036151cc565b9050602002810190610b1591906151e0565b610b23906020810190615225565b9050811015610c3157610b99878786818110610b4157610b416151cc565b9050602002810190610b5391906151e0565b610b61906020810190615225565b83818110610b7157610b716151cc565b9050602002016020810190610b8691906147b9565b5f8481526099602052604090209061377a565b507f7ab260fe0af193db5f4986770d831bda4ea46099dc817e8b6716dcae8af8e88b83888887818110610bce57610bce6151cc565b9050602002810190610be091906151e0565b610bee906020810190615225565b84818110610bfe57610bfe6151cc565b9050602002016020810190610c1391906147b9565b604051610c2192919061526a565b60405180910390a1600101610af1565b5050506001016109c9565b5050505050565b606083516001600160401b03811115610c5e57610c5e61464c565b604051908082528060200260200182016040528015610c9157816020015b6060815260200190600190039081610c7c5790505b5090505f7f00000000000000000000000000000000000000000000000000000000000000006001600160a01b031663f0e0e67686866040518363ffffffff1660e01b8152600401610ce3929190615290565b5f60405180830381865afa158015610cfd573d5f5f3e3d5ffd5b505050506040513d5f823e601f3d908101601f19168201604052610d2491908101906152b4565b90505f5b8551811015610f26575f868281518110610d4457610d446151cc565b6020026020010151905085516001600160401b03811115610d6757610d6761464c565b604051908082528060200260200182016040528015610d90578160200160208202803683370190505b50848381518110610da357610da36151cc565b60209081029190910101525f5b8651811015610f1c575f878281518110610dcc57610dcc6151cc565b6020908102919091018101516001600160a01b038086165f90815260a1845260408082209284168252919093528220909250610e079061378e565b9050806001600160401b03165f03610e20575050610f14565b5f610e2c858d85610742565b90508863ffffffff16816040015163ffffffff1611158015610e5457505f8160200151600f0b125b15610e7657610e6a815f015182602001516137a1565b6001600160401b031681525b80515f90610e91906001600160401b039081169085166137b5565b9050610ed881898981518110610ea957610ea96151cc565b60200260200101518781518110610ec257610ec26151cc565b60200260200101516137c990919063ffffffff16565b898881518110610eea57610eea6151cc565b60200260200101518681518110610f0357610f036151cc565b602002602001018181525050505050505b600101610db0565b5050600101610d28565b5050949350505050565b6001600160a01b038082165f908152609760205260408120549091168015610f585780610776565b5090919050565b606654600190600290811603610f885760405163840a48d560e01b815260040160405180910390fd5b82610f92816136c5565b610faf5760405163932d94f760e01b815260040160405180910390fd5b5f6040518060400160405280866001600160a01b03168152602001856020016020810190610fdd91906151fe565b63ffffffff16905290505f610ffe610ff860208701876147b9565b836137dd565b905061100d6060860186615225565b905061101c6040870187615225565b90501461103c576040516343714afd60e01b815260040160405180910390fd5b60208083015183516001600160a01b03165f9081526098909252604090912061106e9163ffffffff908116906136ae16565b61108b57604051631fb1705560e21b815260040160405180910390fd5b806110a95760405163ebbff49760e01b815260040160405180910390fd5b5f6110b76040870187615225565b90506001600160401b038111156110d0576110d061464c565b6040519080825280602002602001820160405280156110f9578160200160208202803683370190505b5090505f5b61110b6040880188615225565b90508110156117025780158061119e57506111296040880188615225565b6111346001846153d4565b818110611143576111436151cc565b905060200201602081019061115891906147b9565b6001600160a01b031661116e6040890189615225565b8381811061117e5761117e6151cc565b905060200201602081019061119391906147b9565b6001600160a01b0316115b6111bb57604051639f1c805360e01b815260040160405180910390fd5b6111c86060880188615225565b828181106111d8576111d86151cc565b905060200201355f1080156112185750670de0b6b3a76400006111fe6060890189615225565b8381811061120e5761120e6151cc565b9050602002013511155b61123557604051631353603160e01b815260040160405180910390fd5b6112916112456040890189615225565b83818110611255576112556151cc565b905060200201602081019061126a91906147b9565b60995f6112768861348e565b81526020019081526020015f2061385390919063ffffffff16565b6112ae576040516331bc342760e11b815260040160405180910390fd5b5f806113006112c060208b018b6147b9565b6112c98861348e565b6112d660408d018d615225565b878181106112e6576112e66151cc565b90506020020160208101906112fb91906147b9565b6134f1565b805191935091506001600160401b03165f0361131d5750506116fa565b5f61135861132e60608c018c615225565b8681811061133e5761133e6151cc565b85516001600160401b031692602090910201359050613874565b83519091506113736001600160401b038084169083166137b5565b868681518110611385576113856151cc565b60200260200101818152505081835f018181516113a291906153e7565b6001600160401b03169052508351829085906113bf9083906153e7565b6001600160401b03169052506020840180518391906113df9083906153e7565b6001600160401b031690525060208301515f600f9190910b12156114fa575f61144261140e60608e018e615225565b8881811061141e5761141e6151cc565b90506020020135856020015161143390615406565b6001600160801b031690613874565b9050806001600160401b03168460200181815161145f919061542a565b600f0b9052507f1487af5418c47ee5ea45ef4a93398668120890774a9e13487e61e9dc3baf76dd61149360208e018e6147b9565b8a8e80604001906114a49190615225565b8a8181106114b4576114b46151cc565b90506020020160208101906114c991906147b9565b6114da885f015189602001516137a1565b88604001516040516114f0959493929190615457565b60405180910390a1505b61154c61150a60208d018d6147b9565b6115138a61348e565b61152060408f018f615225565b89818110611530576115306151cc565b905060200201602081019061154591906147b9565b878761388a565b7f1487af5418c47ee5ea45ef4a93398668120890774a9e13487e61e9dc3baf76dd61157a60208d018d6147b9565b8961158860408f018f615225565b89818110611598576115986151cc565b90506020020160208101906115ad91906147b9565b86516040516115c194939291904390615457565b60405180910390a16116126115d960208d018d6147b9565b6115e660408e018e615225565b888181106115f6576115f66151cc565b905060200201602081019061160b91906147b9565b8651613aca565b6001600160a01b037f00000000000000000000000000000000000000000000000000000000000000001663ee74937f61164e60208e018e6147b9565b61165b60408f018f615225565b8981811061166b5761166b6151cc565b905060200201602081019061168091906147b9565b875160405160e085901b6001600160e01b03191681526001600160a01b0393841660048201529290911660248301526001600160401b0380861660448401521660648201526084015f604051808303815f87803b1580156116df575f5ffd5b505af11580156116f1573d5f5f3e3d5ffd5b50505050505050505b6001016110fe565b507f80969ad29428d6797ee7aad084f9e4a42a82fc506dcd2ca3b6fb431f85ccebe561173160208801886147b9565b8461173f60408a018a615225565b8561174d60808d018d6154a8565b6040516117609796959493929190615512565b60405180910390a150505050505050565b6001600160a01b0382165f908152609d6020526040812060609182916117969061369a565b90505f816001600160401b038111156117b1576117b161464c565b6040519080825280602002602001820160405280156117f557816020015b604080518082019091525f80825260208201528152602001906001900390816117cf5790505b5090505f826001600160401b038111156118115761181161464c565b60405190808252806020026020018201604052801561185a57816020015b604080516060810182525f80825260208083018290529282015282525f1990920191018161182f5790505b5090505f5b838110156118dd576001600160a01b0388165f908152609d6020526040812061188c9061090790846136a3565b9050808483815181106118a1576118a16151cc565b60200260200101819052506118b789828a610742565b8383815181106118c9576118c96151cc565b60209081029190910101525060010161185f565b509093509150505b9250929050565b60605f61077660995f6118fe8661348e565b81526020019081526020015f20613b4c565b60605f83516001600160401b0381111561192c5761192c61464c565b604051908082528060200260200182016040528015611955578160200160208202803683370190505b5090505f5b845181101561096157611986858281518110611978576119786151cc565b602002602001015185612aee565b828281518110611998576119986151cc565b6001600160401b039092166020928302919091019091015260010161195a565b6066545f906001908116036119e05760405163840a48d560e01b815260040160405180910390fd5b838214611a00576040516343714afd60e01b815260040160405180910390fd5b5f5b84811015611a6957611a6187878784818110611a2057611a206151cc565b9050602002016020810190611a3591906147b9565b868685818110611a4757611a476151cc565b9050602002016020810190611a5c91906155a8565b613b58565b600101611a02565b50505050505050565b83611a7c816136c5565b611a995760405163932d94f760e01b815260040160405180910390fd5b604080518082019091526001600160a01b038616815263ffffffff851660208201525f611ac58261348e565b9050611b06826020015163ffffffff1660985f8a6001600160a01b03166001600160a01b031681526020019081526020015f206136ae90919063ffffffff16565b611b2357604051631fb1705560e21b815260040160405180910390fd5b5f5b84811015611bc657611b42868683818110610b7157610b716151cc565b611b5f5760405163585cfb2f60e01b815260040160405180910390fd5b7f7ab260fe0af193db5f4986770d831bda4ea46099dc817e8b6716dcae8af8e88b83878784818110611b9357611b936151cc565b9050602002016020810190611ba891906147b9565b604051611bb692919061526a565b60405180910390a1600101611b25565b5050505050505050565b60605f82516001600160401b03811115611bec57611bec61464c565b604051908082528060200260200182016040528015611c15578160200160208202803683370190505b5090505f5b835181101561096157611c4685858381518110611c3957611c396151cc565b6020026020010151612aee565b828281518110611c5857611c586151cc565b6001600160401b0390921660209283029190910190910152600101611c1a565b336001600160a01b037f00000000000000000000000000000000000000000000000000000000000000001614611d7357611cb1826136c5565b611cce576040516348f5c3ed60e01b815260040160405180910390fd5b6040516336b87bd760e11b81526001600160a01b0383811660048301527f00000000000000000000000000000000000000000000000000000000000000001690636d70f7ae90602401602060405180830381865afa158015611d32573d5f5f3e3d5ffd5b505050506040513d601f19601f82011682018060405250810190611d5691906151ad565b611d735760405163ccea9e6f60e01b815260040160405180910390fd5b61084e8282613c5c565b60405163237dfb4760e11b81523360048201527f00000000000000000000000000000000000000000000000000000000000000006001600160a01b0316906346fbf68e90602401602060405180830381865afa158015611ddf573d5f5f3e3d5ffd5b505050506040513d601f19601f82011682018060405250810190611e0391906151ad565b611e2057604051631d77d47760e21b815260040160405180910390fd5b611e2a5f1961365d565b565b5f61077683609a5f6112768661348e565b6001600160a01b038281165f81815260a2602090815260408083209486168084529482528083205493835260a38252808320948352939052918220546001600160401b0390911690600f81810b600160801b909204900b03825b81811015611f67576001600160a01b038087165f90815260a3602090815260408083209389168352929052908120611ecf9083613dfd565b6001600160a01b038881165f90815260a0602090815260408083208584528252808320938b16835292815290829020825160608101845290546001600160401b0381168252600160401b8104600f0b92820192909252600160c01b90910463ffffffff16918101829052919250431015611f4a575050611f67565b611f588582602001516137a1565b94505050806001019050611e97565b506001600160a01b038086165f90815260a1602090815260408083209388168352929052208290611f979061378e565b611fa191906153e7565b95945050505050565b606654600290600490811603611fd35760405163840a48d560e01b815260040160405180910390fd5b611fe8611fe360208401846147b9565b6136c5565b806120015750612001611fe360408401602085016147b9565b61201e576040516348f5c3ed60e01b815260040160405180910390fd5b5f5b61202d6040840184615225565b90508110156122ef575f604051806040016040528085602001602081019061205591906147b9565b6001600160a01b031681526020016120706040870187615225565b85818110612080576120806151cc565b905060200201602081019061209591906151fe565b63ffffffff1681525090506120e2816020015163ffffffff1660985f8760200160208101906120c491906147b9565b6001600160a01b0316815260208101919091526040015f20906136ae565b6120ff57604051631fb1705560e21b815260040160405180910390fd5b609e5f61210f60208701876147b9565b6001600160a01b03166001600160a01b031681526020019081526020015f205f6121388361348e565b815260208101919091526040015f205460ff16612168576040516325131d4f60e01b815260040160405180910390fd5b6121a26121748261348e565b609c5f61218460208901896147b9565b6001600160a01b0316815260208101919091526040015f2090613e6c565b506121da6121b360208601866147b9565b609a5f6121bf8561348e565b81526020019081526020015f20613e7790919063ffffffff16565b506121e860208501856147b9565b6001600160a01b03167fad34c3070be1dffbcaa499d000ba2b8d9848aefcac3059df245dd95c4ece14fe826040516122209190615217565b60405180910390a2604080518082019091525f8152602081016122637f0000000000000000000000000000000000000000000000000000000000000000436155c9565b63ffffffff169052609e5f61227b60208801886147b9565b6001600160a01b03166001600160a01b031681526020019081526020015f205f6122a48461348e565b81526020808201929092526040015f2082518154939092015163ffffffff166101000264ffffffff00199215159290921664ffffffffff199093169290921717905550600101612020565b5061230361038360408401602085016147b9565b6001600160a01b0316639d8e0c2361231e60208501856147b9565b61232b6040860186615225565b6040518463ffffffff1660e01b81526004016123499392919061561e565b5f604051808303815f87803b158015612360575f5ffd5b505af1925050508015612371575060015b1561084e575050565b606061099a609a5f6118fe8561348e565b612393613e8b565b611e2a5f613ee5565b6001600160a01b0381165f908152609c60205260408120606091906123c09061369a565b90505f816001600160401b038111156123db576123db61464c565b60405190808252806020026020018201604052801561241f57816020015b604080518082019091525f80825260208201528152602001906001900390816123f95790505b5090505f5b82811015610961576001600160a01b0385165f908152609c602052604090206124519061090790836136a3565b828281518110612463576124636151cc565b6020908102919091010152600101612424565b60605f84516001600160401b038111156124925761249261464c565b6040519080825280602002602001820160405280156124db57816020015b604080516060810182525f80825260208083018290529282015282525f199092019101816124b05790505b5090505f5b85518110156125325761250d8682815181106124fe576124fe6151cc565b60200260200101518686610742565b82828151811061251f5761251f6151cc565b60209081029190910101526001016124e0565b50949350505050565b60605f83516001600160401b038111156125575761255761464c565b604051908082528060200260200182016040528015612580578160200160208202803683370190505b5090505f5b8451811015612532576001600160a01b0386165f90815260a16020526040812086516125f5928792918990869081106125c0576125c06151cc565b60200260200101516001600160a01b03166001600160a01b031681526020019081526020015f20613f3690919063ffffffff16565b828281518110612607576126076151cc565b6001600160401b0390921660209283029190910190910152600101612585565b6066545f9060019081160361264f5760405163840a48d560e01b815260040160405180910390fd5b612658836136c5565b612675576040516348f5c3ed60e01b815260040160405180910390fd5b5f5f5f61268186613058565b91509150816126a35760405163fa55fc8160e01b815260040160405180910390fd5b91505f90505b8351811015610c3c578381815181106126c4576126c46151cc565b602002602001015160400151518482815181106126e3576126e36151cc565b602002602001015160200151511461270e576040516343714afd60e01b815260040160405180910390fd5b5f848281518110612721576127216151cc565b602090810291909101810151518082015181516001600160a01b03165f908152609890935260409092209092506127619163ffffffff908116906136ae16565b61277e57604051631fb1705560e21b815260040160405180910390fd5b5f61278987836137dd565b90505f5b86848151811061279f5761279f6151cc565b60200260200101516020015151811015612ae3575f8785815181106127c6576127c66151cc565b60200260200101516020015182815181106127e3576127e36151cc565b602002602001015190506127fa898261ffff613b58565b5f5f6128098b61076b8861348e565b915091508060200151600f0b5f1461283457604051630d8fcbe360e41b815260040160405180910390fd5b5f61284187858489613f4a565b9050612886825f01518c8a8151811061285c5761285c6151cc565b6020026020010151604001518781518110612879576128796151cc565b6020026020010151613f80565b600f0b602083018190525f036128af57604051634606179360e11b815260040160405180910390fd5b5f8260200151600f0b12156129f3578015612975576129306128d08861348e565b6001600160a01b03808f165f90815260a360209081526040808320938a16835292905220908154600160801b90819004600f0b5f818152600180860160205260409091209390935583546001600160801b03908116939091011602179055565b61295a7f0000000000000000000000000000000000000000000000000000000000000000436155c9565b6129659060016155c9565b63ffffffff166040830152612a60565b612987836020015183602001516137a1565b6001600160401b031660208401528a518b90899081106129a9576129a96151cc565b60200260200101516040015185815181106129c6576129c66151cc565b6020908102919091018101516001600160401b031683525f9083015263ffffffff43166040830152612a60565b5f8260200151600f0b1315612a6057612a14836020015183602001516137a1565b6001600160401b039081166020850181905284519091161015612a4a57604051636c9be0bf60e01b815260040160405180910390fd5b612a5489436155c9565b63ffffffff1660408301525b612a758c612a6d8961348e565b86868661388a565b7f1487af5418c47ee5ea45ef4a93398668120890774a9e13487e61e9dc3baf76dd8c612aa36109078a61348e565b86612ab5865f015187602001516137a1565b8660400151604051612acb959493929190615457565b60405180910390a150506001909201915061278d9050565b5050506001016126a9565b6001600160a01b038083165f90815260a16020908152604080832093851683529290529081206107769061378e565b82612b27816136c5565b612b445760405163932d94f760e01b815260040160405180910390fd5b836001600160a01b03167fa89c1dc243d8908a96dd84944bcc97d6bc6ac00dd78e20621576be6a3c9437138484604051612b7f929190615642565b60405180910390a250505050565b606654600290600490811603612bb65760405163840a48d560e01b815260040160405180910390fd5b82612bc0816136c5565b612bdd5760405163932d94f760e01b815260040160405180910390fd5b6040516336b87bd760e11b81526001600160a01b0385811660048301527f00000000000000000000000000000000000000000000000000000000000000001690636d70f7ae90602401602060405180830381865afa158015612c41573d5f5f3e3d5ffd5b505050506040513d601f19601f82011682018060405250810190612c6591906151ad565b612c825760405163ccea9e6f60e01b815260040160405180910390fd5b5f5b612c916020850185615225565b9050811015612e5957604080518082019091525f9080612cb460208801886147b9565b6001600160a01b03168152602001868060200190612cd29190615225565b85818110612ce257612ce26151cc565b9050602002016020810190612cf791906151fe565b63ffffffff90811690915260208083015183516001600160a01b03165f90815260989092526040909120929350612d339291908116906136ae16565b612d5057604051631fb1705560e21b815260040160405180910390fd5b612d5a86826137dd565b15612d7857604051636c6c6e2760e11b815260040160405180910390fd5b612da1612d848261348e565b6001600160a01b0388165f908152609c602052604090209061376f565b50612dcd86609a5f612db28561348e565b81526020019081526020015f2061377a90919063ffffffff16565b50856001600160a01b03167f43232edf9071753d2321e5fa7e018363ee248e5f2142e6c08edd3265bfb4895e82604051612e079190615217565b60405180910390a26001600160a01b0386165f908152609e60205260408120600191612e328461348e565b815260208101919091526040015f20805460ff191691151591909117905550600101612c84565b50612e6a61038360208501856147b9565b6001600160a01b031663adcf73f785612e866020870187615225565b612e9360408901896154a8565b6040518663ffffffff1660e01b8152600401612eb3959493929190615655565b5f604051808303815f87803b158015612eca575f5ffd5b505af1158015611bc6573d5f5f3e3d5ffd5b5f61099a609a5f612eec8561348e565b81526020019081526020015f2061369a565b83612f08816136c5565b612f255760405163932d94f760e01b815260040160405180910390fd5b6040805180820182526001600160a01b03871680825263ffffffff80881660208085018290525f93845260989052939091209192612f6492916136ae16565b612f8157604051631fb1705560e21b815260040160405180910390fd5b5f612f8b8261348e565b90505f5b84811015611bc657612fd4868683818110612fac57612fac6151cc565b9050602002016020810190612fc191906147b9565b5f84815260996020526040902090613e77565b612ff1576040516331bc342760e11b815260040160405180910390fd5b7f7b4b073d80dcac55a11177d8459ad9f664ceeb91f71f27167bb14f8152a7eeee83878784818110613025576130256151cc565b905060200201602081019061303a91906147b9565b60405161304892919061526a565b60405180910390a1600101612f8f565b6001600160a01b0381165f908152609b602090815260408083208151608081018352905463ffffffff80821680845260ff600160201b8404161515958401869052650100000000008304821694840194909452600160481b9091041660608201819052849391929190158015906130d95750826060015163ffffffff164310155b156130e8575050604081015160015b9590945092505050565b6001600160a01b0381165f90815260986020526040812061099a9061369a565b6001600160a01b0382165f908152609f602052604081206060919061313b90826118fe8661348e565b949350505050565b5f54610100900460ff161580801561316157505f54600160ff909116105b8061317a5750303b15801561317a57505f5460ff166001145b6131e25760405162461bcd60e51b815260206004820152602e60248201527f496e697469616c697a61626c653a20636f6e747261637420697320616c72656160448201526d191e481a5b9a5d1a585b1a5e995960921b60648201526084015b60405180910390fd5b5f805460ff191660011790558015613203575f805461ff0019166101001790555b61320c8261365d565b61321583613ee5565b801561325b575f805461ff0019169055604051600181527f7f26b83ff96e1f2b6a682f133852f6798a09c465da95921460cefb3847402498906020015b60405180910390a15b505050565b8161326a816136c5565b6132875760405163932d94f760e01b815260040160405180910390fd5b6001600160a01b038381165f90815260976020526040902080546001600160a01b0319169184169190911790557f2ae945c40c44dc0ec263f95609c3fdc6952e0aefa22d6374e44f2c997acedf85836132df81610f30565b604080516001600160a01b03938416815292909116602083015201613252565b613307613e8b565b6001600160a01b03811661336c5760405162461bcd60e51b815260206004820152602660248201527f4f776e61626c653a206e6577206f776e657220697320746865207a65726f206160448201526564647265737360d01b60648201526084016131d9565b61337581613ee5565b50565b7f00000000000000000000000000000000000000000000000000000000000000006001600160a01b031663eab66d7a6040518163ffffffff1660e01b8152600401602060405180830381865afa1580156133d4573d5f5f3e3d5ffd5b505050506040513d601f19601f820116820180604052508101906133f89190615698565b6001600160a01b0316336001600160a01b0316146134295760405163794821ff60e01b815260040160405180910390fd5b606654801982198116146134505760405163c61dca5d60e01b815260040160405180910390fd5b606682905560405182815233907f3582d1828e26bf56bd801502bc021ac0bc8afb57c826e4986b45593c8fad389c9060200160405180910390a25050565b5f815f0151826020015163ffffffff166040516020016134d992919060609290921b6bffffffffffffffffffffffff1916825260a01b6001600160a01b031916601482015260200190565b60405160208183030381529060405261099a906156b3565b6040805180820182525f80825260208083018290528351606081018552828152808201839052808501839052845180860186526001600160a01b03898116855260a18452868520908816855290925293822092939281906135519061378e565b6001600160401b0390811682526001600160a01b038981165f81815260a260209081526040808320948c168084529482528083205486169682019690965291815260a082528481208b8252825284812092815291815290839020835160608101855290549283168152600160401b8304600f0b91810191909152600160c01b90910463ffffffff169181018290529192504310156135f3579092509050613655565b613604815f015182602001516137a1565b6001600160401b0316815260208101515f600f9190910b121561364257613633826020015182602001516137a1565b6001600160401b031660208301525b5f60408201819052602082015290925090505b935093915050565b606681905560405181815233907fab40a374bc51de372200a8bc981af8c9ecdc08dfdaef0bb6e09f88f3c616ef3d9060200160405180910390a250565b5f61099a825490565b5f6107768383613f97565b5f8181526001830160205260408120541515610776565b604051631beb2b9760e31b81526001600160a01b0382811660048301523360248301523060448301525f80356001600160e01b0319166064840152917f00000000000000000000000000000000000000000000000000000000000000009091169063df595cb8906084016020604051808303815f875af115801561374b573d5f5f3e3d5ffd5b505050506040513d601f19601f8201168201806040525081019061099a91906151ad565b5f6107768383613fbd565b5f610776836001600160a01b038416613fbd565b5f61099a82670de0b6b3a7640000614009565b5f610776826001600160401b03851661542a565b5f61077683670de0b6b3a76400008461404d565b5f6107768383670de0b6b3a764000061404d565b6001600160a01b0382165f908152609e602052604081208190816138008561348e565b815260208082019290925260409081015f2081518083019092525460ff8116151580835261010090910463ffffffff169282019290925291508061313b57506020015163ffffffff164311159392505050565b6001600160a01b0381165f9081526001830160205260408120541515610776565b5f6107768383670de0b6b3a76400006001614132565b6020808301516001600160a01b038088165f90815260a284526040808220928816825291909352909120546001600160401b0390811691161461395057602082810180516001600160a01b038881165f81815260a286526040808220938a1680835293875290819020805467ffffffffffffffff19166001600160401b0395861617905593518451918252948101919091529216908201527facf9095feb3a370c9cf692421c69ef320d4db5c66e6a7d29c7694eb02364fc559060600160405180910390a15b6001600160a01b038086165f90815260a060209081526040808320888452825280832093871683529281529082902083518154928501519385015163ffffffff16600160c01b0263ffffffff60c01b196001600160801b038616600160401b026001600160c01b03199095166001600160401b03909316929092179390931716919091179055600f0b15613a32576001600160a01b0385165f908152609f602090815260408083208784529091529020613a0a908461377a565b506001600160a01b0385165f908152609d60205260409020613a2c908561376f565b50610c3c565b80516001600160401b03165f03610c3c576001600160a01b0385165f908152609f602090815260408083208784529091529020613a6f9084613e77565b506001600160a01b0385165f908152609f602090815260408083208784529091529020613a9b9061369a565b5f03610c3c576001600160a01b0385165f908152609d60205260409020613ac29085613e6c565b505050505050565b6001600160a01b038084165f90815260a160209081526040808320938616835292905220613af990438361418b565b604080516001600160a01b038086168252841660208201526001600160401b038316918101919091527f1c6458079a41077d003c11faf9bf097e693bd67979e4e6500bac7b29db779b5c90606001613252565b60605f6107768361419f565b6001600160a01b038381165f90815260a360209081526040808320938616835292905290812054600f81810b600160801b909204900b035b5f81118015613ba257508261ffff1682105b15610c3c576001600160a01b038086165f90815260a3602090815260408083209388168352929052908120613bd6906141f8565b90505f5f613be58884896134f1565b91509150806040015163ffffffff16431015613c0357505050610c3c565b613c10888489858561388a565b6001600160a01b038089165f90815260a360209081526040808320938b16835292905220613c3d9061424a565b50613c47856156d6565b9450613c52846156ee565b9350505050613b90565b6001600160a01b0382165f908152609b60209081526040918290208251608081018452905463ffffffff808216835260ff600160201b830416151593830193909352650100000000008104831693820193909352600160481b909204166060820181905215801590613cd85750806060015163ffffffff164310155b15613cf257604081015163ffffffff168152600160208201525b63ffffffff82166040820152613d287f0000000000000000000000000000000000000000000000000000000000000000436155c9565b63ffffffff90811660608381019182526001600160a01b0386165f818152609b602090815260409182902087518154838a0151858b01519851928a1664ffffffffff1990921691909117600160201b91151591909102176cffffffffffffffff0000000000191665010000000000978916979097026cffffffff000000000000000000191696909617600160481b968816968702179055815192835294871694820194909452928301919091527f4e85751d6331506c6c62335f207eb31f12a61e570f34f5c17640308785c6d4db9101613252565b5f5f613e1f613e0b846142c7565b8554613e1a9190600f0b615703565b614334565b8454909150600160801b9004600f90810b9082900b12613e5257604051632d0483c560e21b815260040160405180910390fd5b600f0b5f9081526001939093016020525050604090205490565b5f610776838361439d565b5f610776836001600160a01b03841661439d565b6033546001600160a01b03163314611e2a5760405162461bcd60e51b815260206004820181905260248201527f4f776e61626c653a2063616c6c6572206973206e6f7420746865206f776e657260448201526064016131d9565b603380546001600160a01b038381166001600160a01b0319831681179093556040519116919082907f8be0079c531659141344cd1fd0a4f28419497f9722a3daafe3b4186f6b6457e0905f90a35050565b5f6107768383670de0b6b3a7640000614480565b5f613f5b8460995f6112768961348e565b8015613f645750815b8015611fa157505090516001600160401b031615159392505050565b5f6107766001600160401b0380851690841661572a565b5f825f018281548110613fac57613fac6151cc565b905f5260205f200154905092915050565b5f81815260018301602052604081205461400257508154600181810184555f84815260208082209093018490558454848252828601909352604090209190915561099a565b505f61099a565b81545f9080156140455761402f846140226001846153d4565b5f91825260209091200190565b54600160201b90046001600160e01b031661313b565b509092915050565b5f80805f19858709858702925082811083820303915050805f036140845783828161407a5761407a615757565b0492505050610776565b8084116140cb5760405162461bcd60e51b81526020600482015260156024820152744d6174683a206d756c446976206f766572666c6f7760581b60448201526064016131d9565b5f8486880960026001871981018816978890046003810283188082028403028082028403028082028403028082028403028082028403029081029092039091025f889003889004909101858311909403939093029303949094049190911702949350505050565b5f5f61413f86868661404d565b905060018360028111156141555761415561576b565b14801561417157505f848061416c5761416c615757565b868809115b15611fa15761418160018261577f565b9695505050505050565b61325b83836001600160401b0384166144c8565b6060815f018054806020026020016040519081016040528092919081815260200182805480156141ec57602002820191905f5260205f20905b8154815260200190600101908083116141d8575b50505050509050919050565b5f6142128254600f81810b600160801b909204900b131590565b1561423057604051631ed9509560e11b815260040160405180910390fd5b508054600f0b5f9081526001909101602052604090205490565b5f6142648254600f81810b600160801b909204900b131590565b1561428257604051631ed9509560e11b815260040160405180910390fd5b508054600f0b5f818152600180840160205260408220805492905583546fffffffffffffffffffffffffffffffff191692016001600160801b03169190911790915590565b5f6001600160ff1b038211156143305760405162461bcd60e51b815260206004820152602860248201527f53616665436173743a2076616c756520646f65736e27742066697420696e2061604482015267371034b73a191a9b60c11b60648201526084016131d9565b5090565b80600f81900b81146143985760405162461bcd60e51b815260206004820152602760248201527f53616665436173743a2076616c756520646f65736e27742066697420696e20316044820152663238206269747360c81b60648201526084016131d9565b919050565b5f8181526001830160205260408120548015614477575f6143bf6001836153d4565b85549091505f906143d2906001906153d4565b9050818114614431575f865f0182815481106143f0576143f06151cc565b905f5260205f200154905080875f018481548110614410576144106151cc565b5f918252602080832090910192909255918252600188019052604090208390555b855486908061444257614442615792565b600190038181905f5260205f20015f90559055856001015f8681526020019081526020015f205f90556001935050505061099a565b5f91505061099a565b82545f9081614491868683856145cb565b905080156144be576144a8866140226001846153d4565b54600160201b90046001600160e01b0316610771565b5091949350505050565b8254801561457e575f6144e0856140226001856153d4565b60408051808201909152905463ffffffff808216808452600160201b9092046001600160e01b0316602084015291925090851610156145325760405163151b8e3f60e11b815260040160405180910390fd5b805163ffffffff80861691160361457c5782614553866140226001866153d4565b80546001600160e01b0392909216600160201b0263ffffffff9092169190911790555050505050565b505b506040805180820190915263ffffffff92831681526001600160e01b03918216602080830191825285546001810187555f968752952091519051909216600160201b029190921617910155565b5f5b81831015610961575f6145e0848461461e565b5f8781526020902090915063ffffffff86169082015463ffffffff16111561460a57809250614618565b61461581600161577f565b93505b506145cd565b5f61462c60028484186157a6565b6107769084841661577f565b6001600160a01b0381168114613375575f5ffd5b634e487b7160e01b5f52604160045260245ffd5b604051606081016001600160401b03811182821017156146825761468261464c565b60405290565b604051601f8201601f191681016001600160401b03811182821017156146b0576146b061464c565b604052919050565b803563ffffffff81168114614398575f5ffd5b5f604082840312156146db575f5ffd5b604080519081016001600160401b03811182821017156146fd576146fd61464c565b604052905080823561470e81614638565b815261471c602084016146b8565b60208201525092915050565b5f5f5f6080848603121561473a575f5ffd5b833561474581614638565b925061475485602086016146cb565b9150606084013561476481614638565b809150509250925092565b81516001600160401b03168152602080830151600f0b9082015260408083015163ffffffff16908201526060810161099a565b5f602082840312156147b2575f5ffd5b5035919050565b5f602082840312156147c9575f5ffd5b813561077681614638565b80516001600160a01b0316825260209081015163ffffffff16910152565b5f8151808452602084019350602083015f5b8281101561482d576148178683516147d4565b6040959095019460209190910190600101614804565b5093949350505050565b602081525f61077660208301846147f2565b5f60408284031215614859575f5ffd5b61077683836146cb565b5f5f83601f840112614873575f5ffd5b5081356001600160401b03811115614889575f5ffd5b6020830191508360208260051b85010111156118e5575f5ffd5b5f5f5f604084860312156148b5575f5ffd5b83356148c081614638565b925060208401356001600160401b038111156148da575f5ffd5b6148e686828701614863565b9497909650939450505050565b5f6001600160401b0382111561490b5761490b61464c565b5060051b60200190565b5f82601f830112614924575f5ffd5b8135614937614932826148f3565b614688565b8082825260208201915060208360051b860101925085831115614958575f5ffd5b602085015b8381101561497e57803561497081614638565b83526020928301920161495d565b5095945050505050565b5f5f5f5f60a0858703121561499b575f5ffd5b6149a586866146cb565b935060408501356001600160401b038111156149bf575f5ffd5b6149cb87828801614915565b93505060608501356001600160401b038111156149e6575f5ffd5b6149f287828801614915565b925050614a01608086016146b8565b905092959194509250565b5f8151808452602084019350602083015f5b8281101561482d578151865260209586019590910190600101614a1e565b5f602082016020835280845180835260408501915060408160051b8601019250602086015f5b82811015614a9357603f19878603018452614a7e858351614a0c565b94506020938401939190910190600101614a62565b50929695505050505050565b5f5f60408385031215614ab0575f5ffd5b8235614abb81614638565b915060208301356001600160401b03811115614ad5575f5ffd5b830160a08186031215614ae6575f5ffd5b809150509250929050565b5f5f60408385031215614b02575f5ffd5b8235614b0d81614638565b91506020830135614ae681614638565b5f8151808452602084019350602083015f5b8281101561482d57614b6886835180516001600160401b03168252602080820151600f0b9083015260409081015163ffffffff16910152565b6060959095019460209190910190600101614b2f565b604081525f614b9060408301856147f2565b8281036020840152611fa18185614b1d565b5f8151808452602084019350602083015f5b8281101561482d5781516001600160a01b0316865260209586019590910190600101614bb4565b602081525f6107766020830184614ba2565b5f5f60408385031215614bfe575f5ffd5b82356001600160401b03811115614c13575f5ffd5b614c1f85828601614915565b9250506020830135614ae681614638565b602080825282518282018190525f918401906040840190835b81811015614c705783516001600160401b0316835260209384019390920191600101614c49565b509095945050505050565b5f5f5f5f5f60608688031215614c8f575f5ffd5b8535614c9a81614638565b945060208601356001600160401b03811115614cb4575f5ffd5b614cc088828901614863565b90955093505060408601356001600160401b03811115614cde575f5ffd5b614cea88828901614863565b969995985093965092949392505050565b5f5f5f5f60608587031215614d0e575f5ffd5b8435614d1981614638565b9350614d27602086016146b8565b925060408501356001600160401b03811115614d41575f5ffd5b614d4d87828801614863565b95989497509550505050565b5f5f60408385031215614d6a575f5ffd5b8235614d7581614638565b915060208301356001600160401b03811115614d8f575f5ffd5b614d9b85828601614915565b9150509250929050565b5f5f60408385031215614db6575f5ffd5b8235614dc181614638565b9150614dcf602084016146b8565b90509250929050565b5f60208284031215614de8575f5ffd5b813560ff81168114610776575f5ffd5b5f5f60608385031215614e09575f5ffd5b8235614e1481614638565b9150614dcf84602085016146cb565b5f60608284031215614e33575f5ffd5b50919050565b5f60208284031215614e49575f5ffd5b81356001600160401b03811115614e5e575f5ffd5b61313b84828501614e23565b5f5f5f60808486031215614e7c575f5ffd5b83356001600160401b03811115614e91575f5ffd5b614e9d86828701614915565b93505061475485602086016146cb565b602081525f6107766020830184614b1d565b5f5f5f60608486031215614ed1575f5ffd5b8335614edc81614638565b925060208401356001600160401b03811115614ef6575f5ffd5b614f0286828701614915565b925050614f11604085016146b8565b90509250925092565b5f5f60408385031215614f2b575f5ffd5b8235614f3681614638565b915060208301356001600160401b03811115614f50575f5ffd5b8301601f81018513614f60575f5ffd5b8035614f6e614932826148f3565b8082825260208201915060208360051b850101925087831115614f8f575f5ffd5b602084015b838110156150b45780356001600160401b03811115614fb1575f5ffd5b85016080818b03601f19011215614fc6575f5ffd5b614fce614660565b614fdb8b602084016146cb565b815260608201356001600160401b03811115614ff5575f5ffd5b6150048c602083860101614915565b60208301525060808201356001600160401b03811115615022575f5ffd5b6020818401019250508a601f830112615039575f5ffd5b8135615047614932826148f3565b8082825260208201915060208360051b86010192508d831115615068575f5ffd5b6020850194505b8285101561509e5784356001600160401b038116811461508d575f5ffd5b82526020948501949091019061506f565b6040840152505084525060209283019201614f94565b50809450505050509250929050565b5f5f5f604084860312156150d5575f5ffd5b83356150e081614638565b925060208401356001600160401b038111156150fa575f5ffd5b8401601f8101861361510a575f5ffd5b80356001600160401b0381111561511f575f5ffd5b866020828401011115615130575f5ffd5b939660209190910195509293505050565b5f5f60408385031215615152575f5ffd5b823561515d81614638565b915060208301356001600160401b03811115615177575f5ffd5b614d9b85828601614e23565b5f5f60408385031215615194575f5ffd5b823561519f81614638565b946020939093013593505050565b5f602082840312156151bd575f5ffd5b81518015158114610776575f5ffd5b634e487b7160e01b5f52603260045260245ffd5b5f8235603e198336030181126151f4575f5ffd5b9190910192915050565b5f6020828403121561520e575f5ffd5b610776826146b8565b6040810161099a82846147d4565b5f5f8335601e1984360301811261523a575f5ffd5b8301803591506001600160401b03821115615253575f5ffd5b6020019150600581901b36038213156118e5575f5ffd5b6060810161527882856147d4565b6001600160a01b039290921660409190910152919050565b604081525f6152a26040830185614ba2565b8281036020840152611fa18185614ba2565b5f602082840312156152c4575f5ffd5b81516001600160401b038111156152d9575f5ffd5b8201601f810184136152e9575f5ffd5b80516152f7614932826148f3565b8082825260208201915060208360051b850101925086831115615318575f5ffd5b602084015b838110156153b55780516001600160401b0381111561533a575f5ffd5b8501603f8101891361534a575f5ffd5b602081015161535b614932826148f3565b808282526020820191506020808460051b8601010192508b83111561537e575f5ffd5b6040840193505b828410156153a0578351825260209384019390910190615385565b8652505060209384019391909101905061531d565b509695505050505050565b634e487b7160e01b5f52601160045260245ffd5b8181038181111561099a5761099a6153c0565b6001600160401b03828116828216039081111561099a5761099a6153c0565b5f81600f0b60016001607f1b03198103615422576154226153c0565b5f0392915050565b600f81810b9083900b0160016001607f1b03811360016001607f1b03198212171561099a5761099a6153c0565b6001600160a01b038616815260c0810161547460208301876147d4565b6001600160a01b039490941660608201526001600160401b0392909216608083015263ffffffff1660a09091015292915050565b5f5f8335601e198436030181126154bd575f5ffd5b8301803591506001600160401b038211156154d6575f5ffd5b6020019150368190038213156118e5575f5ffd5b81835281816020850137505f828201602090810191909152601f909101601f19169091010190565b6001600160a01b03881681525f60c08201615530602084018a6147d4565b60c060608401528690528660e083015f5b8881101561557157823561555481614638565b6001600160a01b0316825260209283019290910190600101615541565b5083810360808501526155848188614a0c565b91505082810360a084015261559a8185876154ea565b9a9950505050505050505050565b5f602082840312156155b8575f5ffd5b813561ffff81168114610776575f5ffd5b63ffffffff818116838216019081111561099a5761099a6153c0565b8183526020830192505f815f5b8481101561482d5763ffffffff615608836146b8565b16865260209586019591909101906001016155f2565b6001600160a01b03841681526040602082018190525f90611fa190830184866155e5565b602081525f61313b6020830184866154ea565b6001600160a01b03861681526060602082018190525f9061567990830186886155e5565b828103604084015261568c8185876154ea565b98975050505050505050565b5f602082840312156156a8575f5ffd5b815161077681614638565b80516020808301519190811015614e33575f1960209190910360031b1b16919050565b5f600182016156e7576156e76153c0565b5060010190565b5f816156fc576156fc6153c0565b505f190190565b8082018281125f831280158216821582161715615722576157226153c0565b505092915050565b600f82810b9082900b0360016001607f1b0319811260016001607f1b038213171561099a5761099a6153c0565b634e487b7160e01b5f52601260045260245ffd5b634e487b7160e01b5f52602160045260245ffd5b8082018082111561099a5761099a6153c0565b634e487b7160e01b5f52603160045260245ffd5b5f826157c057634e487b7160e01b5f52601260045260245ffd5b50049056fea2646970667358221220049ddc48108b86f3be70590462d517d57c47bba9450f474f41b568a93ac1337d64736f6c634300081b0033",
    "linkReferences": {}
  },
  "methodIdentifiers": {
    "ALLOCATION_CONFIGURATION_DELAY()": "7bc1ef61",
    "DEALLOCATION_DELAY()": "2981eb77",
    "addStrategiesToOperatorSet(address,uint32,address[])": "50feea20",
    "clearDeallocationQueue(address,address[],uint16[])": "4b5046ef",
    "createOperatorSets(address,(uint32,address[])[])": "261f84e0",
    "delegation()": "df5cf723",
    "deregisterFromOperatorSets((address,address,uint32[]))": "6e3492b5",
    "encumberedMagnitude(address,address)": "a984eb3a",
    "getAVSRegistrar(address)": "304c10cd",
    "getAllocatableMagnitude(address,address)": "6cfb4481",
    "getAllocatedSets(address)": "15fe5028",
    "getAllocatedStrategies(address,(address,uint32))": "c221d8ae",
    "getAllocation(address,(address,uint32),address)": "10e1b9b8",
    "getAllocationDelay(address)": "b9fbaed1",
    "getAllocations(address[],(address,uint32),address)": "8ce64854",
    "getMaxMagnitude(address,address)": "a9333ec8",
    "getMaxMagnitudes(address,address[])": "547afb87",
    "getMaxMagnitudes(address[],address)": "4a10ffe5",
    "getMaxMagnitudesAtBlock(address,address[],uint32)": "94d7d00c",
    "getMemberCount((address,uint32))": "b2447af7",
    "getMembers((address,uint32))": "6e875dba",
    "getMinimumSlashableStake((address,uint32),address[],address[],uint32)": "2bab2c4a",
    "getOperatorSetCount(address)": "ba1a84e5",
    "getRegisteredSets(address)": "79ae50cd",
    "getStrategiesInOperatorSet((address,uint32))": "4177a87c",
    "getStrategyAllocations(address,address)": "40120dab",
    "initialize(address,uint256)": "cd6dc687",
    "isMemberOfOperatorSet(address,(address,uint32))": "670d3ba2",
    "isOperatorSet((address,uint32))": "260dc758",
    "modifyAllocations(address,((address,uint32),address[],uint64[])[])": "952899ee",
    "owner()": "8da5cb5b",
    "pause(uint256)": "136439dd",
    "pauseAll()": "595c6a67",
    "paused()": "5c975abb",
    "paused(uint8)": "5ac86ab7",
    "pauserRegistry()": "886f1195",
    "permissionController()": "4657e26a",
    "registerForOperatorSets(address,(address,uint32[],bytes))": "adc2e3d9",
    "removeStrategiesFromOperatorSet(address,uint32,address[])": "b66bd989",
    "renounceOwnership()": "715018a6",
    "setAVSRegistrar(address,address)": "d3d96ff4",
    "setAllocationDelay(address,uint32)": "56c483e6",
    "slashOperator(address,(address,uint32,address[],uint256[],string))": "36352057",
    "transferOwnership(address)": "f2fde38b",
    "unpause(uint256)": "fabc1cbc",
    "updateAVSMetadataURI(address,string)": "a9821821"
  },
  "id": 103
}