{
  "abi": [
    {
      "type": "constructor",
      "inputs": [
        {
          "name": "_strategyManager",
          "type": "address",
          "internalType": "contract IStrategyManager"
        },
        {
          "name": "_eigenPodManager",
          "type": "address",
          "internalType": "contract IEigenPodManager"
        },
        {
          "name": "_allocationManager",
          "type": "address",
          "internalType": "contract IAllocationManager"
        },
        {
          "name": "_pauserRegistry",
          "type": "address",
          "internalType": "contract IPauserRegistry"
        },
        {
          "name": "_permissionController",
          "type": "address",
          "internalType": "contract IPermissionController"
        },
        {
          "name": "_MIN_WITHDRAWAL_DELAY",
          "type": "uint32",
          "internalType": "uint32"
        }
      ],
      "stateMutability": "nonpayable"
    },
    {
      "type": "function",
      "name": "DELEGATION_APPROVAL_TYPEHASH",
      "inputs": [],
      "outputs": [
        {
          "name": "",
          "type": "bytes32",
          "internalType": "bytes32"
        }
      ],
      "stateMutability": "view"
    },
    {
      "type": "function",
      "name": "allocationManager",
      "inputs": [],
      "outputs": [
        {
          "name": "",
          "type": "address",
          "internalType": "contract IAllocationManager"
        }
      ],
      "stateMutability": "view"
    },
    {
      "type": "function",
      "name": "beaconChainETHStrategy",
      "inputs": [],
      "outputs": [
        {
          "name": "",
          "type": "address",
          "internalType": "contract IStrategy"
        }
      ],
      "stateMutability": "view"
    },
    {
      "type": "function",
      "name": "burnOperatorShares",
      "inputs": [
        {
          "name": "operator",
          "type": "address",
          "internalType": "address"
        },
        {
          "name": "strategy",
          "type": "address",
          "internalType": "contract IStrategy"
        },
        {
          "name": "prevMaxMagnitude",
          "type": "uint64",
          "internalType": "uint64"
        },
        {
          "name": "newMaxMagnitude",
          "type": "uint64",
          "internalType": "uint64"
        }
      ],
      "outputs": [],
      "stateMutability": "nonpayable"
    },
    {
      "type": "function",
      "name": "calculateDelegationApprovalDigestHash",
      "inputs": [
        {
          "name": "staker",
          "type": "address",
          "internalType": "address"
        },
        {
          "name": "operator",
          "type": "address",
          "internalType": "address"
        },
        {
          "name": "approver",
          "type": "address",
          "internalType": "address"
        },
        {
          "name": "approverSalt",
          "type": "bytes32",
          "internalType": "bytes32"
        },
        {
          "name": "expiry",
          "type": "uint256",
          "internalType": "uint256"
        }
      ],
      "outputs": [
        {
          "name": "",
          "type": "bytes32",
          "internalType": "bytes32"
        }
      ],
      "stateMutability": "view"
    },
    {
      "type": "function",
      "name": "calculateWithdrawalRoot",
      "inputs": [
        {
          "name": "withdrawal",
          "type": "tuple",
          "internalType": "struct IDelegationManagerTypes.Withdrawal",
          "components": [
            {
              "name": "staker",
              "type": "address",
              "internalType": "address"
            },
            {
              "name": "delegatedTo",
              "type": "address",
              "internalType": "address"
            },
            {
              "name": "withdrawer",
              "type": "address",
              "internalType": "address"
            },
            {
              "name": "nonce",
              "type": "uint256",
              "internalType": "uint256"
            },
            {
              "name": "startBlock",
              "type": "uint32",
              "internalType": "uint32"
            },
            {
              "name": "strategies",
              "type": "address[]",
              "internalType": "contract IStrategy[]"
            },
            {
              "name": "scaledShares",
              "type": "uint256[]",
              "internalType": "uint256[]"
            }
          ]
        }
      ],
      "outputs": [
        {
          "name": "",
          "type": "bytes32",
          "internalType": "bytes32"
        }
      ],
      "stateMutability": "pure"
    },
    {
      "type": "function",
      "name": "completeQueuedWithdrawal",
      "inputs": [
        {
          "name": "withdrawal",
          "type": "tuple",
          "internalType": "struct IDelegationManagerTypes.Withdrawal",
          "components": [
            {
              "name": "staker",
              "type": "address",
              "internalType": "address"
            },
            {
              "name": "delegatedTo",
              "type": "address",
              "internalType": "address"
            },
            {
              "name": "withdrawer",
              "type": "address",
              "internalType": "address"
            },
            {
              "name": "nonce",
              "type": "uint256",
              "internalType": "uint256"
            },
            {
              "name": "startBlock",
              "type": "uint32",
              "internalType": "uint32"
            },
            {
              "name": "strategies",
              "type": "address[]",
              "internalType": "contract IStrategy[]"
            },
            {
              "name": "scaledShares",
              "type": "uint256[]",
              "internalType": "uint256[]"
            }
          ]
        },
        {
          "name": "tokens",
          "type": "address[]",
          "internalType": "contract IERC20[]"
        },
        {
          "name": "receiveAsTokens",
          "type": "bool",
          "internalType": "bool"
        }
      ],
      "outputs": [],
      "stateMutability": "nonpayable"
    },
    {
      "type": "function",
      "name": "completeQueuedWithdrawals",
      "inputs": [
        {
          "name": "withdrawals",
          "type": "tuple[]",
          "internalType": "struct IDelegationManagerTypes.Withdrawal[]",
          "components": [
            {
              "name": "staker",
              "type": "address",
              "internalType": "address"
            },
            {
              "name": "delegatedTo",
              "type": "address",
              "internalType": "address"
            },
            {
              "name": "withdrawer",
              "type": "address",
              "internalType": "address"
            },
            {
              "name": "nonce",
              "type": "uint256",
              "internalType": "uint256"
            },
            {
              "name": "startBlock",
              "type": "uint32",
              "internalType": "uint32"
            },
            {
              "name": "strategies",
              "type": "address[]",
              "internalType": "contract IStrategy[]"
            },
            {
              "name": "scaledShares",
              "type": "uint256[]",
              "internalType": "uint256[]"
            }
          ]
        },
        {
          "name": "tokens",
          "type": "address[][]",
          "internalType": "contract IERC20[][]"
        },
        {
          "name": "receiveAsTokens",
          "type": "bool[]",
          "internalType": "bool[]"
        }
      ],
      "outputs": [],
      "stateMutability": "nonpayable"
    },
    {
      "type": "function",
      "name": "convertToDepositShares",
      "inputs": [
        {
          "name": "staker",
          "type": "address",
          "internalType": "address"
        },
        {
          "name": "strategies",
          "type": "address[]",
          "internalType": "contract IStrategy[]"
        },
        {
          "name": "withdrawableShares",
          "type": "uint256[]",
          "internalType": "uint256[]"
        }
      ],
      "outputs": [
        {
          "name": "",
          "type": "uint256[]",
          "internalType": "uint256[]"
        }
      ],
      "stateMutability": "view"
    },
    {
      "type": "function",
      "name": "cumulativeWithdrawalsQueued",
      "inputs": [
        {
          "name": "staker",
          "type": "address",
          "internalType": "address"
        }
      ],
      "outputs": [
        {
          "name": "totalQueued",
          "type": "uint256",
          "internalType": "uint256"
        }
      ],
      "stateMutability": "view"
    },
    {
      "type": "function",
      "name": "decreaseDelegatedShares",
      "inputs": [
        {
          "name": "staker",
          "type": "address",
          "internalType": "address"
        },
        {
          "name": "curDepositShares",
          "type": "uint256",
          "internalType": "uint256"
        },
        {
          "name": "beaconChainSlashingFactorDecrease",
          "type": "uint64",
          "internalType": "uint64"
        }
      ],
      "outputs": [],
      "stateMutability": "nonpayable"
    },
    {
      "type": "function",
      "name": "delegateTo",
      "inputs": [
        {
          "name": "operator",
          "type": "address",
          "internalType": "address"
        },
        {
          "name": "approverSignatureAndExpiry",
          "type": "tuple",
          "internalType": "struct ISignatureUtils.SignatureWithExpiry",
          "components": [
            {
              "name": "signature",
              "type": "bytes",
              "internalType": "bytes"
            },
            {
              "name": "expiry",
              "type": "uint256",
              "internalType": "uint256"
            }
          ]
        },
        {
          "name": "approverSalt",
          "type": "bytes32",
          "internalType": "bytes32"
        }
      ],
      "outputs": [],
      "stateMutability": "nonpayable"
    },
    {
      "type": "function",
      "name": "delegatedTo",
      "inputs": [
        {
          "name": "staker",
          "type": "address",
          "internalType": "address"
        }
      ],
      "outputs": [
        {
          "name": "operator",
          "type": "address",
          "internalType": "address"
        }
      ],
      "stateMutability": "view"
    },
    {
      "type": "function",
      "name": "delegationApprover",
      "inputs": [
        {
          "name": "operator",
          "type": "address",
          "internalType": "address"
        }
      ],
      "outputs": [
        {
          "name": "",
          "type": "address",
          "internalType": "address"
        }
      ],
      "stateMutability": "view"
    },
    {
      "type": "function",
      "name": "delegationApproverSaltIsSpent",
      "inputs": [
        {
          "name": "delegationApprover",
          "type": "address",
          "internalType": "address"
        },
        {
          "name": "salt",
          "type": "bytes32",
          "internalType": "bytes32"
        }
      ],
      "outputs": [
        {
          "name": "spent",
          "type": "bool",
          "internalType": "bool"
        }
      ],
      "stateMutability": "view"
    },
    {
      "type": "function",
      "name": "depositScalingFactor",
      "inputs": [
        {
          "name": "staker",
          "type": "address",
          "internalType": "address"
        },
        {
          "name": "strategy",
          "type": "address",
          "internalType": "contract IStrategy"
        }
      ],
      "outputs": [
        {
          "name": "",
          "type": "uint256",
          "internalType": "uint256"
        }
      ],
      "stateMutability": "view"
    },
    {
      "type": "function",
      "name": "domainSeparator",
      "inputs": [],
      "outputs": [
        {
          "name": "",
          "type": "bytes32",
          "internalType": "bytes32"
        }
      ],
      "stateMutability": "view"
    },
    {
      "type": "function",
      "name": "eigenPodManager",
      "inputs": [],
      "outputs": [
        {
          "name": "",
          "type": "address",
          "internalType": "contract IEigenPodManager"
        }
      ],
      "stateMutability": "view"
    },
    {
      "type": "function",
      "name": "getDepositedShares",
      "inputs": [
        {
          "name": "staker",
          "type": "address",
          "internalType": "address"
        }
      ],
      "outputs": [
        {
          "name": "",
          "type": "address[]",
          "internalType": "contract IStrategy[]"
        },
        {
          "name": "",
          "type": "uint256[]",
          "internalType": "uint256[]"
        }
      ],
      "stateMutability": "view"
    },
    {
      "type": "function",
      "name": "getOperatorShares",
      "inputs": [
        {
          "name": "operator",
          "type": "address",
          "internalType": "address"
        },
        {
          "name": "strategies",
          "type": "address[]",
          "internalType": "contract IStrategy[]"
        }
      ],
      "outputs": [
        {
          "name": "",
          "type": "uint256[]",
          "internalType": "uint256[]"
        }
      ],
      "stateMutability": "view"
    },
    {
      "type": "function",
      "name": "getOperatorsShares",
      "inputs": [
        {
          "name": "operators",
          "type": "address[]",
          "internalType": "address[]"
        },
        {
          "name": "strategies",
          "type": "address[]",
          "internalType": "contract IStrategy[]"
        }
      ],
      "outputs": [
        {
          "name": "",
          "type": "uint256[][]",
          "internalType": "uint256[][]"
        }
      ],
      "stateMutability": "view"
    },
    {
      "type": "function",
      "name": "getQueuedWithdrawals",
      "inputs": [
        {
          "name": "staker",
          "type": "address",
          "internalType": "address"
        }
      ],
      "outputs": [
        {
          "name": "withdrawals",
          "type": "tuple[]",
          "internalType": "struct IDelegationManagerTypes.Withdrawal[]",
          "components": [
            {
              "name": "staker",
              "type": "address",
              "internalType": "address"
            },
            {
              "name": "delegatedTo",
              "type": "address",
              "internalType": "address"
            },
            {
              "name": "withdrawer",
              "type": "address",
              "internalType": "address"
            },
            {
              "name": "nonce",
              "type": "uint256",
              "internalType": "uint256"
            },
            {
              "name": "startBlock",
              "type": "uint32",
              "internalType": "uint32"
            },
            {
              "name": "strategies",
              "type": "address[]",
              "internalType": "contract IStrategy[]"
            },
            {
              "name": "scaledShares",
              "type": "uint256[]",
              "internalType": "uint256[]"
            }
          ]
        },
        {
          "name": "shares",
          "type": "uint256[][]",
          "internalType": "uint256[][]"
        }
      ],
      "stateMutability": "view"
    },
    {
      "type": "function",
      "name": "getSlashableSharesInQueue",
      "inputs": [
        {
          "name": "operator",
          "type": "address",
          "internalType": "address"
        },
        {
          "name": "strategy",
          "type": "address",
          "internalType": "contract IStrategy"
        }
      ],
      "outputs": [
        {
          "name": "",
          "type": "uint256",
          "internalType": "uint256"
        }
      ],
      "stateMutability": "view"
    },
    {
      "type": "function",
      "name": "getWithdrawableShares",
      "inputs": [
        {
          "name": "staker",
          "type": "address",
          "internalType": "address"
        },
        {
          "name": "strategies",
          "type": "address[]",
          "internalType": "contract IStrategy[]"
        }
      ],
      "outputs": [
        {
          "name": "withdrawableShares",
          "type": "uint256[]",
          "internalType": "uint256[]"
        },
        {
          "name": "depositShares",
          "type": "uint256[]",
          "internalType": "uint256[]"
        }
      ],
      "stateMutability": "view"
    },
    {
      "type": "function",
      "name": "increaseDelegatedShares",
      "inputs": [
        {
          "name": "staker",
          "type": "address",
          "internalType": "address"
        },
        {
          "name": "strategy",
          "type": "address",
          "internalType": "contract IStrategy"
        },
        {
          "name": "prevDepositShares",
          "type": "uint256",
          "internalType": "uint256"
        },
        {
          "name": "addedShares",
          "type": "uint256",
          "internalType": "uint256"
        }
      ],
      "outputs": [],
      "stateMutability": "nonpayable"
    },
    {
      "type": "function",
      "name": "initialize",
      "inputs": [
        {
          "name": "initialOwner",
          "type": "address",
          "internalType": "address"
        },
        {
          "name": "initialPausedStatus",
          "type": "uint256",
          "internalType": "uint256"
        }
      ],
      "outputs": [],
      "stateMutability": "nonpayable"
    },
    {
      "type": "function",
      "name": "isDelegated",
      "inputs": [
        {
          "name": "staker",
          "type": "address",
          "internalType": "address"
        }
      ],
      "outputs": [
        {
          "name": "",
          "type": "bool",
          "internalType": "bool"
        }
      ],
      "stateMutability": "view"
    },
    {
      "type": "function",
      "name": "isOperator",
      "inputs": [
        {
          "name": "operator",
          "type": "address",
          "internalType": "address"
        }
      ],
      "outputs": [
        {
          "name": "",
          "type": "bool",
          "internalType": "bool"
        }
      ],
      "stateMutability": "view"
    },
    {
      "type": "function",
      "name": "minWithdrawalDelayBlocks",
      "inputs": [],
      "outputs": [
        {
          "name": "",
          "type": "uint32",
          "internalType": "uint32"
        }
      ],
      "stateMutability": "view"
    },
    {
      "type": "function",
      "name": "modifyOperatorDetails",
      "inputs": [
        {
          "name": "operator",
          "type": "address",
          "internalType": "address"
        },
        {
          "name": "newDelegationApprover",
          "type": "address",
          "internalType": "address"
        }
      ],
      "outputs": [],
      "stateMutability": "nonpayable"
    },
    {
      "type": "function",
      "name": "operatorShares",
      "inputs": [
        {
          "name": "operator",
          "type": "address",
          "internalType": "address"
        },
        {
          "name": "strategy",
          "type": "address",
          "internalType": "contract IStrategy"
        }
      ],
      "outputs": [
        {
          "name": "shares",
          "type": "uint256",
          "internalType": "uint256"
        }
      ],
      "stateMutability": "view"
    },
    {
      "type": "function",
      "name": "owner",
      "inputs": [],
      "outputs": [
        {
          "name": "",
          "type": "address",
          "internalType": "address"
        }
      ],
      "stateMutability": "view"
    },
    {
      "type": "function",
      "name": "pause",
      "inputs": [
        {
          "name": "newPausedStatus",
          "type": "uint256",
          "internalType": "uint256"
        }
      ],
      "outputs": [],
      "stateMutability": "nonpayable"
    },
    {
      "type": "function",
      "name": "pauseAll",
      "inputs": [],
      "outputs": [],
      "stateMutability": "nonpayable"
    },
    {
      "type": "function",
      "name": "paused",
      "inputs": [
        {
          "name": "index",
          "type": "uint8",
          "internalType": "uint8"
        }
      ],
      "outputs": [
        {
          "name": "",
          "type": "bool",
          "internalType": "bool"
        }
      ],
      "stateMutability": "view"
    },
    {
      "type": "function",
      "name": "paused",
      "inputs": [],
      "outputs": [
        {
          "name": "",
          "type": "uint256",
          "internalType": "uint256"
        }
      ],
      "stateMutability": "view"
    },
    {
      "type": "function",
      "name": "pauserRegistry",
      "inputs": [],
      "outputs": [
        {
          "name": "",
          "type": "address",
          "internalType": "contract IPauserRegistry"
        }
      ],
      "stateMutability": "view"
    },
    {
      "type": "function",
      "name": "pendingWithdrawals",
      "inputs": [
        {
          "name": "withdrawalRoot",
          "type": "bytes32",
          "internalType": "bytes32"
        }
      ],
      "outputs": [
        {
          "name": "pending",
          "type": "bool",
          "internalType": "bool"
        }
      ],
      "stateMutability": "view"
    },
    {
      "type": "function",
      "name": "permissionController",
      "inputs": [],
      "outputs": [
        {
          "name": "",
          "type": "address",
          "internalType": "contract IPermissionController"
        }
      ],
      "stateMutability": "view"
    },
    {
      "type": "function",
      "name": "queueWithdrawals",
      "inputs": [
        {
          "name": "params",
          "type": "tuple[]",
          "internalType": "struct IDelegationManagerTypes.QueuedWithdrawalParams[]",
          "components": [
            {
              "name": "strategies",
              "type": "address[]",
              "internalType": "contract IStrategy[]"
            },
            {
              "name": "depositShares",
              "type": "uint256[]",
              "internalType": "uint256[]"
            },
            {
              "name": "withdrawer",
              "type": "address",
              "internalType": "address"
            }
          ]
        }
      ],
      "outputs": [
        {
          "name": "",
          "type": "bytes32[]",
          "internalType": "bytes32[]"
        }
      ],
      "stateMutability": "nonpayable"
    },
    {
      "type": "function",
      "name": "queuedWithdrawals",
      "inputs": [
        {
          "name": "withdrawalRoot",
          "type": "bytes32",
          "internalType": "bytes32"
        }
      ],
      "outputs": [
        {
          "name": "staker",
          "type": "address",
          "internalType": "address"
        },
        {
          "name": "delegatedTo",
          "type": "address",
          "internalType": "address"
        },
        {
          "name": "withdrawer",
          "type": "address",
          "internalType": "address"
        },
        {
          "name": "nonce",
          "type": "uint256",
          "internalType": "uint256"
        },
        {
          "name": "startBlock",
          "type": "uint32",
          "internalType": "uint32"
        }
      ],
      "stateMutability": "view"
    },
    {
      "type": "function",
      "name": "redelegate",
      "inputs": [
        {
          "name": "newOperator",
          "type": "address",
          "internalType": "address"
        },
        {
          "name": "newOperatorApproverSig",
          "type": "tuple",
          "internalType": "struct ISignatureUtils.SignatureWithExpiry",
          "components": [
            {
              "name": "signature",
              "type": "bytes",
              "internalType": "bytes"
            },
            {
              "name": "expiry",
              "type": "uint256",
              "internalType": "uint256"
            }
          ]
        },
        {
          "name": "approverSalt",
          "type": "bytes32",
          "internalType": "bytes32"
        }
      ],
      "outputs": [
        {
          "name": "withdrawalRoots",
          "type": "bytes32[]",
          "internalType": "bytes32[]"
        }
      ],
      "stateMutability": "nonpayable"
    },
    {
      "type": "function",
      "name": "registerAsOperator",
      "inputs": [
        {
          "name": "initDelegationApprover",
          "type": "address",
          "internalType": "address"
        },
        {
          "name": "allocationDelay",
          "type": "uint32",
          "internalType": "uint32"
        },
        {
          "name": "metadataURI",
          "type": "string",
          "internalType": "string"
        }
      ],
      "outputs": [],
      "stateMutability": "nonpayable"
    },
    {
      "type": "function",
      "name": "renounceOwnership",
      "inputs": [],
      "outputs": [],
      "stateMutability": "nonpayable"
    },
    {
      "type": "function",
      "name": "strategyManager",
      "inputs": [],
      "outputs": [
        {
          "name": "",
          "type": "address",
          "internalType": "contract IStrategyManager"
        }
      ],
      "stateMutability": "view"
    },
    {
      "type": "function",
      "name": "transferOwnership",
      "inputs": [
        {
          "name": "newOwner",
          "type": "address",
          "internalType": "address"
        }
      ],
      "outputs": [],
      "stateMutability": "nonpayable"
    },
    {
      "type": "function",
      "name": "undelegate",
      "inputs": [
        {
          "name": "staker",
          "type": "address",
          "internalType": "address"
        }
      ],
      "outputs": [
        {
          "name": "withdrawalRoots",
          "type": "bytes32[]",
          "internalType": "bytes32[]"
        }
      ],
      "stateMutability": "nonpayable"
    },
    {
      "type": "function",
      "name": "unpause",
      "inputs": [
        {
          "name": "newPausedStatus",
          "type": "uint256",
          "internalType": "uint256"
        }
      ],
      "outputs": [],
      "stateMutability": "nonpayable"
    },
    {
      "type": "function",
      "name": "updateOperatorMetadataURI",
      "inputs": [
        {
          "name": "operator",
          "type": "address",
          "internalType": "address"
        },
        {
          "name": "metadataURI",
          "type": "string",
          "internalType": "string"
        }
      ],
      "outputs": [],
      "stateMutability": "nonpayable"
    },
    {
      "type": "event",
      "name": "DelegationApproverUpdated",
      "inputs": [
        {
          "name": "operator",
          "type": "address",
          "indexed": true,
          "internalType": "address"
        },
        {
          "name": "newDelegationApprover",
          "type": "address",
          "indexed": false,
          "internalType": "address"
        }
      ],
      "anonymous": false
    },
    {
      "type": "event",
      "name": "DepositScalingFactorUpdated",
      "inputs": [
        {
          "name": "staker",
          "type": "address",
          "indexed": false,
          "internalType": "address"
        },
        {
          "name": "strategy",
          "type": "address",
          "indexed": false,
          "internalType": "contract IStrategy"
        },
        {
          "name": "newDepositScalingFactor",
          "type": "uint256",
          "indexed": false,
          "internalType": "uint256"
        }
      ],
      "anonymous": false
    },
    {
      "type": "event",
      "name": "Initialized",
      "inputs": [
        {
          "name": "version",
          "type": "uint8",
          "indexed": false,
          "internalType": "uint8"
        }
      ],
      "anonymous": false
    },
    {
      "type": "event",
      "name": "OperatorMetadataURIUpdated",
      "inputs": [
        {
          "name": "operator",
          "type": "address",
          "indexed": true,
          "internalType": "address"
        },
        {
          "name": "metadataURI",
          "type": "string",
          "indexed": false,
          "internalType": "string"
        }
      ],
      "anonymous": false
    },
    {
      "type": "event",
      "name": "OperatorRegistered",
      "inputs": [
        {
          "name": "operator",
          "type": "address",
          "indexed": true,
          "internalType": "address"
        },
        {
          "name": "delegationApprover",
          "type": "address",
          "indexed": false,
          "internalType": "address"
        }
      ],
      "anonymous": false
    },
    {
      "type": "event",
      "name": "OperatorSharesBurned",
      "inputs": [
        {
          "name": "operator",
          "type": "address",
          "indexed": true,
          "internalType": "address"
        },
        {
          "name": "strategy",
          "type": "address",
          "indexed": false,
          "internalType": "contract IStrategy"
        },
        {
          "name": "shares",
          "type": "uint256",
          "indexed": false,
          "internalType": "uint256"
        }
      ],
      "anonymous": false
    },
    {
      "type": "event",
      "name": "OperatorSharesDecreased",
      "inputs": [
        {
          "name": "operator",
          "type": "address",
          "indexed": true,
          "internalType": "address"
        },
        {
          "name": "staker",
          "type": "address",
          "indexed": false,
          "internalType": "address"
        },
        {
          "name": "strategy",
          "type": "address",
          "indexed": false,
          "internalType": "contract IStrategy"
        },
        {
          "name": "shares",
          "type": "uint256",
          "indexed": false,
          "internalType": "uint256"
        }
      ],
      "anonymous": false
    },
    {
      "type": "event",
      "name": "OperatorSharesIncreased",
      "inputs": [
        {
          "name": "operator",
          "type": "address",
          "indexed": true,
          "internalType": "address"
        },
        {
          "name": "staker",
          "type": "address",
          "indexed": false,
          "internalType": "address"
        },
        {
          "name": "strategy",
          "type": "address",
          "indexed": false,
          "internalType": "contract IStrategy"
        },
        {
          "name": "shares",
          "type": "uint256",
          "indexed": false,
          "internalType": "uint256"
        }
      ],
      "anonymous": false
    },
    {
      "type": "event",
      "name": "OwnershipTransferred",
      "inputs": [
        {
          "name": "previousOwner",
          "type": "address",
          "indexed": true,
          "internalType": "address"
        },
        {
          "name": "newOwner",
          "type": "address",
          "indexed": true,
          "internalType": "address"
        }
      ],
      "anonymous": false
    },
    {
      "type": "event",
      "name": "Paused",
      "inputs": [
        {
          "name": "account",
          "type": "address",
          "indexed": true,
          "internalType": "address"
        },
        {
          "name": "newPausedStatus",
          "type": "uint256",
          "indexed": false,
          "internalType": "uint256"
        }
      ],
      "anonymous": false
    },
    {
      "type": "event",
      "name": "SlashingWithdrawalCompleted",
      "inputs": [
        {
          "name": "withdrawalRoot",
          "type": "bytes32",
          "indexed": false,
          "internalType": "bytes32"
        }
      ],
      "anonymous": false
    },
    {
      "type": "event",
      "name": "SlashingWithdrawalQueued",
      "inputs": [
        {
          "name": "withdrawalRoot",
          "type": "bytes32",
          "indexed": false,
          "internalType": "bytes32"
        },
        {
          "name": "withdrawal",
          "type": "tuple",
          "indexed": false,
          "internalType": "struct IDelegationManagerTypes.Withdrawal",
          "components": [
            {
              "name": "staker",
              "type": "address",
              "internalType": "address"
            },
            {
              "name": "delegatedTo",
              "type": "address",
              "internalType": "address"
            },
            {
              "name": "withdrawer",
              "type": "address",
              "internalType": "address"
            },
            {
              "name": "nonce",
              "type": "uint256",
              "internalType": "uint256"
            },
            {
              "name": "startBlock",
              "type": "uint32",
              "internalType": "uint32"
            },
            {
              "name": "strategies",
              "type": "address[]",
              "internalType": "contract IStrategy[]"
            },
            {
              "name": "scaledShares",
              "type": "uint256[]",
              "internalType": "uint256[]"
            }
          ]
        },
        {
          "name": "sharesToWithdraw",
          "type": "uint256[]",
          "indexed": false,
          "internalType": "uint256[]"
        }
      ],
      "anonymous": false
    },
    {
      "type": "event",
      "name": "StakerDelegated",
      "inputs": [
        {
          "name": "staker",
          "type": "address",
          "indexed": true,
          "internalType": "address"
        },
        {
          "name": "operator",
          "type": "address",
          "indexed": true,
          "internalType": "address"
        }
      ],
      "anonymous": false
    },
    {
      "type": "event",
      "name": "StakerForceUndelegated",
      "inputs": [
        {
          "name": "staker",
          "type": "address",
          "indexed": true,
          "internalType": "address"
        },
        {
          "name": "operator",
          "type": "address",
          "indexed": true,
          "internalType": "address"
        }
      ],
      "anonymous": false
    },
    {
      "type": "event",
      "name": "StakerUndelegated",
      "inputs": [
        {
          "name": "staker",
          "type": "address",
          "indexed": true,
          "internalType": "address"
        },
        {
          "name": "operator",
          "type": "address",
          "indexed": true,
          "internalType": "address"
        }
      ],
      "anonymous": false
    },
    {
      "type": "event",
      "name": "Unpaused",
      "inputs": [
        {
          "name": "account",
          "type": "address",
          "indexed": true,
          "internalType": "address"
        },
        {
          "name": "newPausedStatus",
          "type": "uint256",
          "indexed": false,
          "internalType": "uint256"
        }
      ],
      "anonymous": false
    },
    {
      "type": "error",
      "name": "ActivelyDelegated",
      "inputs": []
    },
    {
      "type": "error",
      "name": "CallerCannotUndelegate",
      "inputs": []
    },
    {
      "type": "error",
      "name": "CurrentlyPaused",
      "inputs": []
    },
    {
      "type": "error",
      "name": "FullySlashed",
      "inputs": []
    },
    {
      "type": "error",
      "name": "InputAddressZero",
      "inputs": []
    },
    {
      "type": "error",
      "name": "InputArrayLengthMismatch",
      "inputs": []
    },
    {
      "type": "error",
      "name": "InputArrayLengthZero",
      "inputs": []
    },
    {
      "type": "error",
      "name": "InvalidNewPausedStatus",
      "inputs": []
    },
    {
      "type": "error",
      "name": "InvalidPermissions",
      "inputs": []
    },
    {
      "type": "error",
      "name": "InvalidSignature",
      "inputs": []
    },
    {
      "type": "error",
      "name": "InvalidSnapshotOrdering",
      "inputs": []
    },
    {
      "type": "error",
      "name": "NotActivelyDelegated",
      "inputs": []
    },
    {
      "type": "error",
      "name": "OnlyAllocationManager",
      "inputs": []
    },
    {
      "type": "error",
      "name": "OnlyEigenPodManager",
      "inputs": []
    },
    {
      "type": "error",
      "name": "OnlyPauser",
      "inputs": []
    },
    {
      "type": "error",
      "name": "OnlyStrategyManagerOrEigenPodManager",
      "inputs": []
    },
    {
      "type": "error",
      "name": "OnlyUnpauser",
      "inputs": []
    },
    {
      "type": "error",
      "name": "OperatorNotRegistered",
      "inputs": []
    },
    {
      "type": "error",
      "name": "OperatorsCannotUndelegate",
      "inputs": []
    },
    {
      "type": "error",
      "name": "SaltSpent",
      "inputs": []
    },
    {
      "type": "error",
      "name": "SignatureExpired",
      "inputs": []
    },
    {
      "type": "error",
      "name": "WithdrawalDelayNotElapsed",
      "inputs": []
    },
    {
      "type": "error",
      "name": "WithdrawalExceedsMax",
      "inputs": []
    },
    {
      "type": "error",
      "name": "WithdrawalNotQueued",
      "inputs": []
    },
    {
      "type": "error",
      "name": "WithdrawerNotCaller",
      "inputs": []
    },
    {
      "type": "error",
      "name": "WithdrawerNotStaker",
      "inputs": []
    }
  ],
  "bytecode": {
    "object": "0x610180604052348015610010575f5ffd5b5060405161601138038061601183398101604081905261002f91610235565b8186868684876001600160a01b03811661005c576040516339b190bb60e11b815260040160405180910390fd5b6001600160a01b0390811660805293841660a05291831660c05290911660e05263ffffffff166101005246610120526100936100b7565b610140526001600160a01b0316610160526100ac610162565b5050505050506102c0565b5f61012051461461015a5750604080518082018252600a81526922b4b3b2b72630bcb2b960b11b60209182015281517f8cad95687ba82c2ce50e74f7b754645e5117c3a5bec8151c0726d5857980a866818301527f71b625cfad44bac63b13dba07f2e1d6084ee04b6f8752101ece6126d584ee6ea81840152466060820152306080808301919091528351808303909101815260a0909101909252815191012090565b506101405190565b5f54610100900460ff16156101cd5760405162461bcd60e51b815260206004820152602760248201527f496e697469616c697a61626c653a20636f6e747261637420697320696e697469604482015266616c697a696e6760c81b606482015260840160405180910390fd5b5f5460ff9081161461021c575f805460ff191660ff9081179091556040519081527f7f26b83ff96e1f2b6a682f133852f6798a09c465da95921460cefb38474024989060200160405180910390a15b565b6001600160a01b0381168114610232575f5ffd5b50565b5f5f5f5f5f5f60c0878903121561024a575f5ffd5b86516102558161021e565b60208801519096506102668161021e565b60408801519095506102778161021e565b60608801519094506102888161021e565b60808801519093506102998161021e565b60a088015190925063ffffffff811681146102b2575f5ffd5b809150509295509295509295565b60805160a05160c05160e05161010051610120516101405161016051615c556103bc5f395f8181610412015261345d01525f61418001525f6140c001525f8181610741015281816114f2015281816136f4015261391201525f818161079101528181610e4701528181610ff80152818161172601528181611bad015281816124b001528181612962015261352001525f818161043901528181610f7e0152818161168d015281816118eb01528181613246015261408001525f818161036f01528181610f4c0152818161183f0152818161259d015261405a01525f81816105a101528181610bdf0152818161111801526127d40152615c555ff3fe608060405234801561000f575f5ffd5b50600436106102b1575f3560e01c8063778e55f31161017b578063bfae3fd2116100e4578063e4cc3f901161009e578063f0e0e67611610079578063f0e0e67614610812578063f2fde38b14610832578063f698da2514610845578063fabc1cbc1461084d575f5ffd5b8063e4cc3f90146107d9578063ee74937f146107ec578063eea9064b146107ff575f5ffd5b8063bfae3fd214610724578063c448feb814610737578063c978f7ac1461076b578063ca8aa7c71461078c578063cd6dc687146107b3578063da8be864146107c6575f5ffd5b80639435bb43116101355780639435bb431461060257806399f5371b14610615578063a1788484146106a3578063a33a3433146106c2578063b7f06ebe146106d5578063bb45fef2146106f7575f5ffd5b8063778e55f31461055f57806378296ec514610589578063886f11951461059c5780638da5cb5b146105c357806390041347146105d45780639104c319146105e7575f5ffd5b806354b7c96c1161021d57806360a0d1ce116101d757806360a0d1ce146104d557806365da1264146104e857806366d5ba93146105105780636d70f7ae146105315780636e17444814610544578063715018a614610557575f5ffd5b806354b7c96c1461045b578063595c6a671461046e578063597b36da146104765780635ac86ab7146104895780635c975abb146104ac5780635dd68579146104b4575f5ffd5b806339b70e381161026e57806339b70e381461036a5780633c651cf2146103a95780633cdeb5e0146103bc5780633e28391d146103ea5780634657e26a1461040d5780634665bcda14610434575f5ffd5b806304a4f979146102b55780630b9f487a146102ef5780630dd8dd0214610302578063136439dd1461032257806325df922e146103375780632aa6d88814610357575b5f5ffd5b6102dc7f14bde674c9f64b2ad00eaaee4a8bed1fabef35c7507e3c5b9cfc9436909a2dad81565b6040519081526020015b60405180910390f35b6102dc6102fd366004614b72565b610860565b610315610310366004614c09565b6108e8565b6040516102e69190614c47565b610335610330366004614c7e565b610bca565b005b61034a610345366004614e13565b610c9f565b6040516102e69190614ec1565b610335610365366004614f23565b610dff565b6103917f000000000000000000000000000000000000000000000000000000000000000081565b6040516001600160a01b0390911681526020016102e6565b6103356103b7366004614f81565b610f41565b6103916103ca366004614fc4565b6001600160a01b039081165f908152609960205260409020600101541690565b6103fd6103f8366004614fc4565b611088565b60405190151581526020016102e6565b6103917f000000000000000000000000000000000000000000000000000000000000000081565b6103917f000000000000000000000000000000000000000000000000000000000000000081565b610335610469366004614fdf565b6110a7565b610335611103565b6102dc6104843660046150d2565b6111b2565b6103fd610497366004615103565b606654600160ff9092169190911b9081161490565b6066546102dc565b6104c76104c2366004614fc4565b6111e1565b6040516102e6929190615228565b6103356104e33660046152a9565b611682565b6103916104f6366004614fc4565b609a6020525f90815260409020546001600160a01b031681565b61052361051e366004614fc4565b611817565b6040516102e69291906152e8565b6103fd61053f366004614fc4565b611b17565b6102dc610552366004614fdf565b611b4f565b610335611c55565b6102dc61056d366004614fdf565b609860209081525f928352604080842090915290825290205481565b61033561059736600461530c565b611c66565b6103917f000000000000000000000000000000000000000000000000000000000000000081565b6033546001600160a01b0316610391565b61034a6105e236600461535c565b611cee565b61039173beac0eeeeeeeeeeeeeeeeeeeeeeeeeeeeeebeac081565b6103356106103660046153a8565b611dc4565b610665610623366004614c7e565b60a46020525f9081526040902080546001820154600283015460038401546004909401546001600160a01b039384169492841693909116919063ffffffff1685565b604080516001600160a01b03968716815294861660208601529290941691830191909152606082015263ffffffff909116608082015260a0016102e6565b6102dc6106b1366004614fc4565b609f6020525f908152604090205481565b6103156106d0366004615444565b611e94565b6103fd6106e3366004614c7e565b609e6020525f908152604090205460ff1681565b6103fd61070536600461552b565b609c60209081525f928352604080842090915290825290205460ff1681565b6102dc610732366004614fdf565b611f2a565b60405163ffffffff7f00000000000000000000000000000000000000000000000000000000000000001681526020016102e6565b61077e61077936600461535c565b611f66565b6040516102e6929190615555565b6103917f000000000000000000000000000000000000000000000000000000000000000081565b6103356107c136600461552b565b6121f3565b6103156107d4366004614fc4565b61230e565b6103356107e7366004615574565b61244f565b6103356107fa3660046155f2565b6124a5565b61033561080d366004615444565b612643565b610825610820366004615640565b6126a6565b6040516102e691906156ed565b610335610840366004614fc4565b61274b565b6102dc6127c4565b61033561085b366004614c7e565b6127d2565b604080517f14bde674c9f64b2ad00eaaee4a8bed1fabef35c7507e3c5b9cfc9436909a2dad60208201526001600160a01b03808616928201929092528187166060820152908516608082015260a0810183905260c081018290525f906108de9060e001604051602081830303815290604052805190602001206128e9565b9695505050505050565b6066546060906001906002908116036109145760405163840a48d560e01b815260040160405180910390fd5b5f836001600160401b0381111561092d5761092d614c95565b604051908082528060200260200182016040528015610956578160200160208202803683370190505b50335f908152609a60205260408120549192506001600160a01b03909116905b85811015610bbf57868682818110610990576109906156ff565b90506020028101906109a29190615713565b6109b0906020810190615731565b90508787838181106109c4576109c46156ff565b90506020028101906109d69190615713565b6109e09080615731565b905014610a00576040516343714afd60e01b815260040160405180910390fd5b33878783818110610a1357610a136156ff565b9050602002810190610a259190615713565b610a36906060810190604001614fc4565b6001600160a01b031614610a5d576040516330c4716960e21b815260040160405180910390fd5b5f610ac733848a8a86818110610a7557610a756156ff565b9050602002810190610a879190615713565b610a919080615731565b808060200260200160405190810160405280939291908181526020018383602002808284375f9201919091525061291792505050565b9050610b9933848a8a86818110610ae057610ae06156ff565b9050602002810190610af29190615713565b610afc9080615731565b808060200260200160405190810160405280939291908181526020018383602002808284375f920191909152508e92508d9150889050818110610b4157610b416156ff565b9050602002810190610b539190615713565b610b61906020810190615731565b808060200260200160405190810160405280939291908181526020018383602002808284375f92019190915250889250612a5e915050565b848381518110610bab57610bab6156ff565b602090810291909101015250600101610976565b509095945050505050565b60405163237dfb4760e11b81523360048201527f00000000000000000000000000000000000000000000000000000000000000006001600160a01b0316906346fbf68e90602401602060405180830381865afa158015610c2c573d5f5f3e3d5ffd5b505050506040513d601f19601f82011682018060405250810190610c509190615776565b610c6d57604051631d77d47760e21b815260040160405180910390fd5b6066548181168114610c925760405163c61dca5d60e01b815260040160405180910390fd5b610c9b82613037565b5050565b6001600160a01b038084165f908152609a60205260408120546060921690610cc8868387612917565b90505f85516001600160401b03811115610ce457610ce4614c95565b604051908082528060200260200182016040528015610d0d578160200160208202803683370190505b5090505f5b8651811015610df2576001600160a01b0388165f90815260a260205260408120885182908a9085908110610d4857610d486156ff565b60200260200101516001600160a01b03166001600160a01b031681526020019081526020015f206040518060200160405290815f820154815250509050610dcc878381518110610d9a57610d9a6156ff565b6020026020010151858481518110610db457610db46156ff565b6020026020010151836130749092919063ffffffff16565b838381518110610dde57610dde6156ff565b602090810291909101015250600101610d12565b50925050505b9392505050565b610e0833611088565b15610e2657604051633bf2b50360e11b815260040160405180910390fd5b604051632b6241f360e11b815233600482015263ffffffff841660248201527f00000000000000000000000000000000000000000000000000000000000000006001600160a01b0316906356c483e6906044015f604051808303815f87803b158015610e90575f5ffd5b505af1158015610ea2573d5f5f3e3d5ffd5b50505050610eb0338561309a565b610eba33336130fc565b6040516001600160a01b038516815233907fa453db612af59e5521d6ab9284dc3e2d06af286eb1b1b7b771fce4716c19f2c19060200160405180910390a2336001600160a01b03167f02a919ed0e2acad1dd90f17ef2fa4ae5462ee1339170034a8531cca4b67080908383604051610f33929190615791565b60405180910390a250505050565b336001600160a01b037f0000000000000000000000000000000000000000000000000000000000000000161480610fa05750336001600160a01b037f000000000000000000000000000000000000000000000000000000000000000016145b610fbd5760405163045206a560e21b815260040160405180910390fd5b6001600160a01b038481165f908152609a602052604080822054905163152667d960e31b8152908316600482018190528684166024830152927f0000000000000000000000000000000000000000000000000000000000000000169063a9333ec890604401602060405180830381865afa15801561103d573d5f5f3e3d5ffd5b505050506040513d601f19601f8201168201806040525081019061106191906157bf565b90505f61106f8787846131ff565b905061107f8388888888866132e1565b50505050505050565b6001600160a01b039081165f908152609a602052604090205416151590565b816110b18161341f565b6110ce5760405163932d94f760e01b815260040160405180910390fd5b6110d783611b17565b6110f4576040516325ec6c1f60e01b815260040160405180910390fd5b6110fe838361309a565b505050565b60405163237dfb4760e11b81523360048201527f00000000000000000000000000000000000000000000000000000000000000006001600160a01b0316906346fbf68e90602401602060405180830381865afa158015611165573d5f5f3e3d5ffd5b505050506040513d601f19601f820116820180604052508101906111899190615776565b6111a657604051631d77d47760e21b815260040160405180910390fd5b6111b05f19613037565b565b5f816040516020016111c491906157da565b604051602081830303815290604052805190602001209050919050565b6001600160a01b0381165f90815260a3602052604081206060918291611206906134c9565b8051909150806001600160401b0381111561122357611223614c95565b6040519080825280602002602001820160405280156112b057816020015b61129d6040518060e001604052805f6001600160a01b031681526020015f6001600160a01b031681526020015f6001600160a01b031681526020015f81526020015f63ffffffff16815260200160608152602001606081525090565b8152602001906001900390816112415790505b509350806001600160401b038111156112cb576112cb614c95565b6040519080825280602002602001820160405280156112fe57816020015b60608152602001906001900390816112e95790505b506001600160a01b038087165f908152609a60205260408120549295509116905b828110156116795760a45f85838151811061133c5761133c6156ff565b60209081029190910181015182528181019290925260409081015f20815160e08101835281546001600160a01b03908116825260018301548116828601526002830154168184015260038201546060820152600482015463ffffffff1660808201526005820180548451818702810187019095528085529194929360a08601939092908301828280156113f657602002820191905f5260205f20905b81546001600160a01b031681526001909101906020018083116113d8575b505050505081526020016006820180548060200260200160405190810160405280929190818152602001828054801561144c57602002820191905f5260205f20905b815481526020019060010190808311611438575b505050505081525050868281518110611467576114676156ff565b6020026020010181905250858181518110611484576114846156ff565b602002602001015160a00151516001600160401b038111156114a8576114a8614c95565b6040519080825280602002602001820160405280156114d1578160200160208202803683370190505b508582815181106114e4576114e46156ff565b60200260200101819052505f7f0000000000000000000000000000000000000000000000000000000000000000878381518110611523576115236156ff565b6020026020010151608001516115399190615800565b905060604363ffffffff168263ffffffff1610156115815761157a89858a8681518110611568576115686156ff565b602002602001015160a00151856134d5565b90506115ac565b6115a989858a8681518110611598576115986156ff565b602002602001015160a00151612917565b90505b5f5b8884815181106115c0576115c06156ff565b602002602001015160a001515181101561166b5761162d8985815181106115e9576115e96156ff565b602002602001015160c001518281518110611606576116066156ff565b6020026020010151838381518110611620576116206156ff565b6020026020010151613603565b88858151811061163f5761163f6156ff565b60200260200101518281518110611658576116586156ff565b60209081029190910101526001016115ae565b50505080600101905061131f565b50505050915091565b336001600160a01b037f000000000000000000000000000000000000000000000000000000000000000016146116cb57604051633213a66160e21b815260040160405180910390fd5b6116d483611088565b156110fe576001600160a01b038381165f908152609a602052604080822054905163152667d960e31b81529083166004820181905273beac0eeeeeeeeeeeeeeeeeeeeeeeeeeeeeebeac06024830152927f0000000000000000000000000000000000000000000000000000000000000000169063a9333ec890604401602060405180830381865afa15801561176b573d5f5f3e3d5ffd5b505050506040513d601f19601f8201168201806040525081019061178f91906157bf565b6001600160a01b0386165f90815260a26020908152604080832073beac0eeeeeeeeeeeeeeeeeeeeeeeeeeeeeebeac08452825280832081519283019091525481529192506117f5866117ed6001600160401b0380871690891661360a565b84919061361e565b905061107f848873beac0eeeeeeeeeeeeeeeeeeeeeeeeeeeeeebeac08461363c565b6040516394f649dd60e01b81526001600160a01b03828116600483015260609182915f9182917f000000000000000000000000000000000000000000000000000000000000000016906394f649dd906024015f60405180830381865afa158015611883573d5f5f3e3d5ffd5b505050506040513d5f823e601f3d908101601f191682016040526118aa9190810190615877565b60405163fe243a1760e01b81526001600160a01b03888116600483015273beac0eeeeeeeeeeeeeeeeeeeeeeeeeeeeeebeac060248301529294509092505f917f0000000000000000000000000000000000000000000000000000000000000000169063fe243a1790604401602060405180830381865afa158015611930573d5f5f3e3d5ffd5b505050506040513d601f19601f820116820180604052508101906119549190615932565b9050805f0361196857509094909350915050565b5f835160016119779190615949565b6001600160401b0381111561198e5761198e614c95565b6040519080825280602002602001820160405280156119b7578160200160208202803683370190505b5090505f845160016119c99190615949565b6001600160401b038111156119e0576119e0614c95565b604051908082528060200260200182016040528015611a09578160200160208202803683370190505b50905073beac0eeeeeeeeeeeeeeeeeeeeeeeeeeeeeebeac082865181518110611a3457611a346156ff565b60200260200101906001600160a01b031690816001600160a01b0316815250508281865181518110611a6857611a686156ff565b60209081029190910101525f5b8551811015611b0957858181518110611a9057611a906156ff565b6020026020010151838281518110611aaa57611aaa6156ff565b60200260200101906001600160a01b031690816001600160a01b031681525050848181518110611adc57611adc6156ff565b6020026020010151828281518110611af657611af66156ff565b6020908102919091010152600101611a75565b509097909650945050505050565b5f6001600160a01b03821615801590611b4957506001600160a01b038083165f818152609a6020526040902054909116145b92915050565b6040805160018082528183019092525f918291906020808301908036833701905050905082815f81518110611b8657611b866156ff565b6001600160a01b03928316602091820292909201015260405163547afb8760e01b81525f917f0000000000000000000000000000000000000000000000000000000000000000169063547afb8790611be4908890869060040161595c565b5f60405180830381865afa158015611bfe573d5f5f3e3d5ffd5b505050506040513d5f823e601f3d908101601f19168201604052611c25919081019061597f565b5f81518110611c3657611c366156ff565b60200260200101519050611c4c8585835f6136b6565b95945050505050565b611c5d613773565b6111b05f6137cd565b82611c708161341f565b611c8d5760405163932d94f760e01b815260040160405180910390fd5b611c9684611b17565b611cb3576040516325ec6c1f60e01b815260040160405180910390fd5b836001600160a01b03167f02a919ed0e2acad1dd90f17ef2fa4ae5462ee1339170034a8531cca4b67080908484604051610f33929190615791565b60605f82516001600160401b03811115611d0a57611d0a614c95565b604051908082528060200260200182016040528015611d33578160200160208202803683370190505b5090505f5b8351811015611dbc576001600160a01b0385165f9081526098602052604081208551909190869084908110611d6f57611d6f6156ff565b60200260200101516001600160a01b03166001600160a01b031681526020019081526020015f2054828281518110611da957611da96156ff565b6020908102919091010152600101611d38565b509392505050565b606654600290600490811603611ded5760405163840a48d560e01b815260040160405180910390fd5b611df561381e565b855f5b81811015611e8857611e80898983818110611e1557611e156156ff565b9050602002810190611e279190615a0e565b611e3090615a22565b888884818110611e4257611e426156ff565b9050602002810190611e549190615731565b888886818110611e6657611e666156ff565b9050602002016020810190611e7b9190615a2d565b613877565b600101611df8565b505061107f600160c955565b6060611e9f33611088565b611ebc5760405163a5c7c44560e01b815260040160405180910390fd5b611ec533611b17565b15611ee3576040516311ca333560e31b815260040160405180910390fd5b611eec84611b17565b611f09576040516325ec6c1f60e01b815260040160405180910390fd5b611f1233613cf0565b9050611f2033858585613f4f565b610df833856130fc565b6001600160a01b038083165f90815260a260209081526040808320938516835292815282822083519182019093529154825290610df890614014565b60608082516001600160401b03811115611f8257611f82614c95565b604051908082528060200260200182016040528015611fab578160200160208202803683370190505b50915082516001600160401b03811115611fc757611fc7614c95565b604051908082528060200260200182016040528015611ff0578160200160208202803683370190505b506001600160a01b038086165f908152609a602052604081205492935091169061201b868387612917565b90505f5b85518110156121e8575f61204b87838151811061203e5761203e6156ff565b6020026020010151614033565b9050806001600160a01b031663fe243a178989858151811061206f5761206f6156ff565b60200260200101516040518363ffffffff1660e01b81526004016120a99291906001600160a01b0392831681529116602082015260400190565b602060405180830381865afa1580156120c4573d5f5f3e3d5ffd5b505050506040513d601f19601f820116820180604052508101906120e89190615932565b8583815181106120fa576120fa6156ff565b6020026020010181815250505f60a25f8a6001600160a01b03166001600160a01b031681526020019081526020015f205f89858151811061213d5761213d6156ff565b60200260200101516001600160a01b03166001600160a01b031681526020019081526020015f206040518060200160405290815f8201548152505090506121c186848151811061218f5761218f6156ff565b60200260200101518585815181106121a9576121a96156ff565b60200260200101518361361e9092919063ffffffff16565b8784815181106121d3576121d36156ff565b6020908102919091010152505060010161201f565b5050505b9250929050565b5f54610100900460ff161580801561221157505f54600160ff909116105b8061222a5750303b15801561222a57505f5460ff166001145b6122925760405162461bcd60e51b815260206004820152602e60248201527f496e697469616c697a61626c653a20636f6e747261637420697320616c72656160448201526d191e481a5b9a5d1a585b1a5e995960921b60648201526084015b60405180910390fd5b5f805460ff1916600117905580156122b3575f805461ff0019166101001790555b6122bc82613037565b6122c5836137cd565b80156110fe575f805461ff0019169055604051600181527f7f26b83ff96e1f2b6a682f133852f6798a09c465da95921460cefb38474024989060200160405180910390a1505050565b606061231982611088565b6123365760405163a5c7c44560e01b815260040160405180910390fd5b61233f82611b17565b1561235d576040516311ca333560e31b815260040160405180910390fd5b6001600160a01b038216612384576040516339b190bb60e11b815260040160405180910390fd5b6001600160a01b038083165f818152609a6020526040902054909116903314806123b257506123b28161341f565b806123d857506001600160a01b038181165f908152609960205260409020600101541633145b6123f557604051631e499a2360e11b815260040160405180910390fd5b336001600160a01b0384161461244657806001600160a01b0316836001600160a01b03167ff0eddf07e6ea14f388b47e1e94a0f464ecbd9eed4171130e0fc0e99fb4030a8a60405160405180910390a35b610df883613cf0565b6066546002906004908116036124785760405163840a48d560e01b815260040160405180910390fd5b61248061381e565b61249461248c86615a22565b858585613877565b61249e600160c955565b5050505050565b336001600160a01b037f000000000000000000000000000000000000000000000000000000000000000016146124ee576040516323d871a560e01b815260040160405180910390fd5b6001600160a01b038085165f90815260986020908152604080832093871683529290529081205461252c906001600160401b038086169085166140a5565b90505f61253b868686866136b6565b6125459083615949565b9050612553865f878561363c565b6001600160a01b03851673beac0eeeeeeeeeeeeeeeeeeeeeeeeeeeeeebeac01461263b57604051633b9e9f0160e21b81526001600160a01b038681166004830152602482018390527f0000000000000000000000000000000000000000000000000000000000000000169063ee7a7c04906044015f604051808303815f87803b1580156125de575f5ffd5b505af11580156125f0573d5f5f3e3d5ffd5b5050604080516001600160a01b038981168252602082018690528a1693507feff6aab2bc3f7c648896e1522eae71d6c22e3b0e218206b3f40af0e4d204716b92500160405180910390a25b505050505050565b61264c33611088565b1561266a57604051633bf2b50360e11b815260040160405180910390fd5b61267383611b17565b612690576040516325ec6c1f60e01b815260040160405180910390fd5b61269c33848484613f4f565b6110fe33846130fc565b60605f83516001600160401b038111156126c2576126c2614c95565b6040519080825280602002602001820160405280156126f557816020015b60608152602001906001900390816126e05790505b5090505f5b8451811015611dbc57612726858281518110612718576127186156ff565b602002602001015185611cee565b828281518110612738576127386156ff565b60209081029190910101526001016126fa565b612753613773565b6001600160a01b0381166127b85760405162461bcd60e51b815260206004820152602660248201527f4f776e61626c653a206e6577206f776e657220697320746865207a65726f206160448201526564647265737360d01b6064820152608401612289565b6127c1816137cd565b50565b5f6127cd6140bd565b905090565b7f00000000000000000000000000000000000000000000000000000000000000006001600160a01b031663eab66d7a6040518163ffffffff1660e01b8152600401602060405180830381865afa15801561282e573d5f5f3e3d5ffd5b505050506040513d601f19601f820116820180604052508101906128529190615a48565b6001600160a01b0316336001600160a01b0316146128835760405163794821ff60e01b815260040160405180910390fd5b606654801982198116146128aa5760405163c61dca5d60e01b815260040160405180910390fd5b606682905560405182815233907f3582d1828e26bf56bd801502bc021ac0bc8afb57c826e4986b45593c8fad389c906020015b60405180910390a25050565b5f6128f26140bd565b60405161190160f01b60208201526022810191909152604281018390526062016111c4565b60605f82516001600160401b0381111561293357612933614c95565b60405190808252806020026020018201604052801561295c578160200160208202803683370190505b5090505f7f00000000000000000000000000000000000000000000000000000000000000006001600160a01b031663547afb8786866040518363ffffffff1660e01b81526004016129ae92919061595c565b5f60405180830381865afa1580156129c8573d5f5f3e3d5ffd5b505050506040513d5f823e601f3d908101601f191682016040526129ef919081019061597f565b90505f5b8451811015610bbf57612a3987868381518110612a1257612a126156ff565b6020026020010151848481518110612a2c57612a2c6156ff565b60200260200101516131ff565b838281518110612a4b57612a4b6156ff565b60209081029190910101526001016129f3565b5f6001600160a01b038616612a86576040516339b190bb60e11b815260040160405180910390fd5b83515f03612aa75760405163796cc52560e01b815260040160405180910390fd5b5f84516001600160401b03811115612ac157612ac1614c95565b604051908082528060200260200182016040528015612aea578160200160208202803683370190505b5090505f85516001600160401b03811115612b0757612b07614c95565b604051908082528060200260200182016040528015612b30578160200160208202803683370190505b5090505f5b8651811015612e6a575f612b5488838151811061203e5761203e6156ff565b90505f60a25f8c6001600160a01b03166001600160a01b031681526020019081526020015f205f8a8581518110612b8d57612b8d6156ff565b60200260200101516001600160a01b03166001600160a01b031681526020019081526020015f206040518060200160405290815f820154815250509050816001600160a01b031663fe243a178c8b8681518110612bec57612bec6156ff565b60200260200101516040518363ffffffff1660e01b8152600401612c269291906001600160a01b0392831681529116602082015260400190565b602060405180830381865afa158015612c41573d5f5f3e3d5ffd5b505050506040513d601f19601f82011682018060405250810190612c659190615932565b888481518110612c7757612c776156ff565b60200260200101511115612c9e5760405163f020e5b960e01b815260040160405180910390fd5b612ccd888481518110612cb357612cb36156ff565b60200260200101518885815181106121a9576121a96156ff565b848481518110612cdf57612cdf6156ff565b602002602001018181525050612d27848481518110612d0057612d006156ff565b6020026020010151888581518110612d1a57612d1a6156ff565b60200260200101516141a2565b858481518110612d3957612d396156ff565b60209081029190910101526001600160a01b038a1615612dce57612d908a8a8581518110612d6957612d696156ff565b6020026020010151878681518110612d8357612d836156ff565b60200260200101516141bb565b612dce8a8c8b8681518110612da757612da76156ff565b6020026020010151878781518110612dc157612dc16156ff565b602002602001015161363c565b816001600160a01b031663724af4238c8b8681518110612df057612df06156ff565b60200260200101518b8781518110612e0a57612e0a6156ff565b60200260200101516040518463ffffffff1660e01b8152600401612e3093929190615a63565b5f604051808303815f87803b158015612e47575f5ffd5b505af1158015612e59573d5f5f3e3d5ffd5b505050505050806001019050612b35565b506001600160a01b0388165f908152609f60205260408120805491829190612e9183615a87565b91905055505f6040518060e001604052808b6001600160a01b031681526020018a6001600160a01b031681526020018b6001600160a01b031681526020018381526020014363ffffffff1681526020018981526020018581525090505f612ef7826111b2565b5f818152609e602090815260408083208054600160ff19909116811790915560a4835292819020865181546001600160a01b03199081166001600160a01b039283161783558885015195830180548216968316969096179095559187015160028201805490951692169190911790925560608501516003830155608085015160048301805463ffffffff191663ffffffff90921691909117905560a085015180519394508593612fad9260058501920190614a87565b5060c08201518051612fc9916006840191602090910190614aea565b5050506001600160a01b038b165f90815260a360205260409020612fed9082614249565b507f26b2aae26516e8719ef50ea2f6831a2efbd4e37dccdf0f6936b27bc08e793e3081838660405161302193929190615a9f565b60405180910390a19a9950505050505050505050565b606681905560405181815233907fab40a374bc51de372200a8bc981af8c9ecdc08dfdaef0bb6e09f88f3c616ef3d9060200160405180910390a250565b5f6130928261308c61308587614014565b8690614254565b90614254565b949350505050565b6001600160a01b038281165f8181526099602090815260409182902060010180546001600160a01b0319169486169485179055905192835290917f773b54c04d756fcc5e678111f7d730de3be98192000799eee3d63716055a87c691016128dd565b6066545f906001908116036131245760405163840a48d560e01b815260040160405180910390fd5b6001600160a01b038381165f818152609a602052604080822080546001600160a01b0319169487169485179055517fc3ee9f2e5fda98e8066a1f745b2df9285f416fe98cf2559cd21484b3d87433049190a35f5f61318185611817565b915091505f613191868685612917565b90505f5b835181101561107f576131f786888684815181106131b5576131b56156ff565b60200260200101515f8786815181106131d0576131d06156ff565b60200260200101518787815181106131ea576131ea6156ff565b60200260200101516132e1565b600101613195565b5f73beac0eeeeeeeeeeeeeeeeeeeeeeeeeeeeeebeabf196001600160a01b038416016132d15760405163a3d75e0960e01b81526001600160a01b0385811660048301525f917f00000000000000000000000000000000000000000000000000000000000000009091169063a3d75e0990602401602060405180830381865afa15801561328d573d5f5f3e3d5ffd5b505050506040513d601f19601f820116820180604052508101906132b191906157bf565b90506132c96001600160401b0384811690831661360a565b915050610df8565b506001600160401b031692915050565b805f0361330157604051630a33bc6960e21b815260040160405180910390fd5b6001600160a01b038086165f90815260a26020908152604080832093881683529290522061333181858585614268565b6040805160208101909152815481527f8be932bac54561f27260f95463d9b8ab37e06b2842e5ee2404157cc13df6eb8f908790879061336f90614014565b60405161337e93929190615a63565b60405180910390a161338f86611088565b1561107f576001600160a01b038088165f908152609860209081526040808320938916835292905290812080548592906133ca908490615949565b92505081905550866001600160a01b03167f1ec042c965e2edd7107b51188ee0f383e22e76179041ab3a9d18ff151405166c87878660405161340e93929190615a63565b60405180910390a250505050505050565b604051631beb2b9760e31b81526001600160a01b0382811660048301523360248301523060448301525f80356001600160e01b0319166064840152917f00000000000000000000000000000000000000000000000000000000000000009091169063df595cb8906084016020604051808303815f875af11580156134a5573d5f5f3e3d5ffd5b505050506040513d601f19601f82011682018060405250810190611b499190615776565b60605f610df8836142d7565b60605f83516001600160401b038111156134f1576134f1614c95565b60405190808252806020026020018201604052801561351a578160200160208202803683370190505b5090505f7f00000000000000000000000000000000000000000000000000000000000000006001600160a01b03166394d7d00c8787876040518463ffffffff1660e01b815260040161356e93929190615ac9565b5f60405180830381865afa158015613588573d5f5f3e3d5ffd5b505050506040513d5f823e601f3d908101601f191682016040526135af919081019061597f565b90505f5b85518110156135f7576135d288878381518110612a1257612a126156ff565b8382815181106135e4576135e46156ff565b60209081029190910101526001016135b3565b50909695505050505050565b5f610df883835b5f610df88383670de0b6b3a7640000614330565b5f6130928261363661362f87614014565b869061360a565b9061360a565b6001600160a01b038085165f90815260986020908152604080832093861683529290529081208054839290613672908490615b02565b92505081905550836001600160a01b03167f6909600037b75d7b4733aedd815442b5ec018a827751c832aaff64eba5d6d2dd848484604051610f3393929190615a63565b6001600160a01b038085165f90815260a560209081526040808320938716835292905290812081906136e790614415565b90505f61374d60016137197f000000000000000000000000000000000000000000000000000000000000000043615b15565b6137239190615b15565b6001600160a01b03808a165f90815260a560209081526040808320938c168352929052209061442f565b90505f61375a8284615b02565b905061376781878761444b565b98975050505050505050565b6033546001600160a01b031633146111b05760405162461bcd60e51b815260206004820181905260248201527f4f776e61626c653a2063616c6c6572206973206e6f7420746865206f776e65726044820152606401612289565b603380546001600160a01b038381166001600160a01b0319831681179093556040519116919082907f8be0079c531659141344cd1fd0a4f28419497f9722a3daafe3b4186f6b6457e0905f90a35050565b600260c954036138705760405162461bcd60e51b815260206004820152601f60248201527f5265656e7472616e637947756172643a207265656e7472616e742063616c6c006044820152606401612289565b600260c955565b60a084015151821461389c576040516343714afd60e01b815260040160405180910390fd5b83604001516001600160a01b0316336001600160a01b0316146138d2576040516316110d3560e21b815260040160405180910390fd5b5f6138dc856111b2565b5f818152609e602052604090205490915060ff1661390d576040516387c9d21960e01b815260040160405180910390fd5b60605f7f000000000000000000000000000000000000000000000000000000000000000087608001516139409190615800565b90504363ffffffff168163ffffffff161061396e576040516378f67ae160e11b815260040160405180910390fd5b613985875f015188602001518960a00151846134d5565b87516001600160a01b039081165f908152609a60205260408120548a5160a08c015194965092169350916139bb91908490612917565b90505f5b8860a0015151811015613c0e575f6139e68a60a00151838151811061203e5761203e6156ff565b90505f613a1c8b60c001518481518110613a0257613a026156ff565b6020026020010151878581518110611620576116206156ff565b90508715613aec57816001600160a01b0316632eae418c8c5f01518d60a001518681518110613a4d57613a4d6156ff565b60200260200101518d8d88818110613a6757613a676156ff565b9050602002016020810190613a7c9190614fc4565b60405160e085901b6001600160e01b03191681526001600160a01b03938416600482015291831660248301529091166044820152606481018490526084015f604051808303815f87803b158015613ad1575f5ffd5b505af1158015613ae3573d5f5f3e3d5ffd5b50505050613c04565b5f5f836001600160a01b031663c4623ea18e5f01518f60a001518881518110613b1757613b176156ff565b60200260200101518f8f8a818110613b3157613b316156ff565b9050602002016020810190613b469190614fc4565b60405160e085901b6001600160e01b03191681526001600160a01b039384166004820152918316602483015290911660448201526064810186905260840160408051808303815f875af1158015613b9f573d5f5f3e3d5ffd5b505050506040513d601f19601f82011682018060405250810190613bc39190615b31565b91509150613c01878e5f01518f60a001518881518110613be557613be56156ff565b602002602001015185858b8b815181106131ea576131ea6156ff565b50505b50506001016139bf565b5087516001600160a01b03165f90815260a360205260409020613c319085614469565b505f84815260a46020526040812080546001600160a01b031990811682556001820180548216905560028201805490911690556003810182905560048101805463ffffffff1916905590613c886005830182614b23565b613c95600683015f614b23565b50505f848152609e602052604090819020805460ff19169055517f1f40400889274ed07b24845e5054a87a0cab969eb1277aafe61ae352e7c32a0090613cde9086815260200190565b60405180910390a15050505050505050565b606654606090600190600290811603613d1c5760405163840a48d560e01b815260040160405180910390fd5b6001600160a01b038084165f818152609a602052604080822080546001600160a01b0319811690915590519316928392917ffee30966a256b71e14bc0ebfc94315e28ef4a97a7131a9e2b7a310a73af4467691a35f5f613d7b86611817565b9150915081515f03613d8f57505050613f49565b81516001600160401b03811115613da857613da8614c95565b604051908082528060200260200182016040528015613dd1578160200160208202803683370190505b5094505f613de0878585612917565b90505f5b8351811015613f43576040805160018082528183019092525f916020808301908036833750506040805160018082528183019092529293505f9291506020808301908036833750506040805160018082528183019092529293505f92915060208083019080368337019050509050868481518110613e6457613e646156ff565b6020026020010151835f81518110613e7e57613e7e6156ff565b60200260200101906001600160a01b031690816001600160a01b031681525050858481518110613eb057613eb06156ff565b6020026020010151825f81518110613eca57613eca6156ff565b602002602001018181525050848481518110613ee857613ee86156ff565b6020026020010151815f81518110613f0257613f026156ff565b602002602001018181525050613f1b8b89858585612a5e565b8a8581518110613f2d57613f2d6156ff565b6020908102919091010152505050600101613de4565b50505050505b50919050565b6001600160a01b038084165f908152609960205260409020600101541680613f77575061400e565b6001600160a01b0381165f908152609c6020908152604080832085845290915290205460ff1615613fbb57604051630d4c4c9160e21b815260040160405180910390fd5b6001600160a01b0381165f908152609c602090815260408083208584528252909120805460ff1916600117905583015161249e908290614002908890889084908890610860565b85516020870151614474565b50505050565b80515f9015614024578151611b49565b670de0b6b3a764000092915050565b5f6001600160a01b03821673beac0eeeeeeeeeeeeeeeeeeeeeeeeeeeeeebeac01461407e577f0000000000000000000000000000000000000000000000000000000000000000611b49565b7f000000000000000000000000000000000000000000000000000000000000000092915050565b5f6140b384838560016144c6565b6130929085615b02565b5f7f0000000000000000000000000000000000000000000000000000000000000000461461417d5750604080518082018252600a81526922b4b3b2b72630bcb2b960b11b60209182015281517f8cad95687ba82c2ce50e74f7b754645e5117c3a5bec8151c0726d5857980a866818301527f71b625cfad44bac63b13dba07f2e1d6084ee04b6f8752101ece6126d584ee6ea81840152466060820152306080808301919091528351808303909101815260a0909101909252815191012090565b507f000000000000000000000000000000000000000000000000000000000000000090565b5f815f036141b157505f611b49565b610df88383614254565b6001600160a01b03821673beac0eeeeeeeeeeeeeeeeeeeeeeeeeeeeeebeac0146110fe576001600160a01b038084165f90815260a560209081526040808320938616835292905290812061420e90614415565b905061400e4361421e8484615949565b6001600160a01b038088165f90815260a560209081526040808320938a168352929052209190614515565b5f610df88383614520565b5f610df883670de0b6b3a764000084614330565b825f0361428857614281670de0b6b3a764000082614254565b845561400e565b6040805160208101909152845481525f906142a490858461361e565b90505f6142b18483615949565b90505f6142cc8461308c6142c5888a615949565b8590614254565b875550505050505050565b6060815f0180548060200260200160405190810160405280929190818152602001828054801561432457602002820191905f5260205f20905b815481526020019060010190808311614310575b50505050509050919050565b5f80805f19858709858702925082811083820303915050805f036143675783828161435d5761435d615b53565b0492505050610df8565b8084116143ae5760405162461bcd60e51b81526020600482015260156024820152744d6174683a206d756c446976206f766572666c6f7760581b6044820152606401612289565b5f8486880960026001871981018816978890046003810283188082028403028082028403028082028403028082028403028082028403029081029092039091025f889003889004909101858311909403939093029303949094049190911702949350505050565b5f614420828261456c565b6001600160e01b031692915050565b5f61443b8383836145b1565b6001600160e01b03169392505050565b5f6130926144598385615b67565b85906001600160401b031661360a565b5f610df883836145fa565b4281101561449557604051630819bdcd60e01b815260040160405180910390fd5b6144a96001600160a01b03851684846146dd565b61400e57604051638baa579f60e01b815260040160405180910390fd5b5f5f6144d3868686614330565b905060018360028111156144e9576144e9615b86565b14801561450557505f848061450057614500615b53565b868809115b15611c4c576108de600182615949565b6110fe838383614731565b5f81815260018301602052604081205461456557508154600181810184555f848152602080822090930184905584548482528286019093526040902091909155611b49565b505f611b49565b81545f9080156145a95761459284614585600184615b02565b5f91825260209091200190565b5464010000000090046001600160e01b0316613092565b509092915050565b82545f90816145c286868385614837565b905080156145f0576145d986614585600184615b02565b5464010000000090046001600160e01b03166108de565b5091949350505050565b5f81815260018301602052604081205480156146d4575f61461c600183615b02565b85549091505f9061462f90600190615b02565b905081811461468e575f865f01828154811061464d5761464d6156ff565b905f5260205f200154905080875f01848154811061466d5761466d6156ff565b5f918252602080832090910192909255918252600188019052604090208390555b855486908061469f5761469f615b9a565b600190038181905f5260205f20015f90559055856001015f8681526020019081526020015f205f905560019350505050611b49565b5f915050611b49565b5f5f5f6146ea858561488a565b90925090505f81600481111561470257614702615b86565b1480156147205750856001600160a01b0316826001600160a01b0316145b806108de57506108de8686866148c9565b825480156147e9575f61474985614585600185615b02565b60408051808201909152905463ffffffff8082168084526401000000009092046001600160e01b03166020840152919250908516101561479c5760405163151b8e3f60e11b815260040160405180910390fd5b805163ffffffff8086169116036147e757826147bd86614585600186615b02565b80546001600160e01b03929092166401000000000263ffffffff9092169190911790555050505050565b505b506040805180820190915263ffffffff92831681526001600160e01b03918216602080830191825285546001810187555f968752952091519051909216640100000000029190921617910155565b5f5b81831015611dbc575f61484c84846149b0565b5f8781526020902090915063ffffffff86169082015463ffffffff16111561487657809250614884565b614881816001615949565b93505b50614839565b5f5f82516041036148be576020830151604084015160608501515f1a6148b2878285856149ca565b945094505050506121ec565b505f905060026121ec565b5f5f5f856001600160a01b0316631626ba7e60e01b86866040516024016148f1929190615bae565b60408051601f198184030181529181526020820180516001600160e01b03166001600160e01b031990941693909317909252905161492f9190615bea565b5f60405180830381855afa9150503d805f8114614967576040519150601f19603f3d011682016040523d82523d5f602084013e61496c565b606091505b509150915081801561498057506020815110155b80156108de57508051630b135d3f60e11b906149a59083016020908101908401615932565b149695505050505050565b5f6149be6002848418615c00565b610df890848416615949565b5f807f7fffffffffffffffffffffffffffffff5d576e7357a4501ddfe92f46681b20a08311156149ff57505f90506003614a7e565b604080515f8082526020820180845289905260ff881692820192909252606081018690526080810185905260019060a0016020604051602081039080840390855afa158015614a50573d5f5f3e3d5ffd5b5050604051601f1901519150506001600160a01b038116614a78575f60019250925050614a7e565b91505f90505b94509492505050565b828054828255905f5260205f20908101928215614ada579160200282015b82811115614ada57825182546001600160a01b0319166001600160a01b03909116178255602090920191600190910190614aa5565b50614ae6929150614b3a565b5090565b828054828255905f5260205f20908101928215614ada579160200282015b82811115614ada578251825591602001919060010190614b08565b5080545f8255905f5260205f20908101906127c191905b5b80821115614ae6575f8155600101614b3b565b6001600160a01b03811681146127c1575f5ffd5b8035614b6d81614b4e565b919050565b5f5f5f5f5f60a08688031215614b86575f5ffd5b8535614b9181614b4e565b94506020860135614ba181614b4e565b93506040860135614bb181614b4e565b94979396509394606081013594506080013592915050565b5f5f83601f840112614bd9575f5ffd5b5081356001600160401b03811115614bef575f5ffd5b6020830191508360208260051b85010111156121ec575f5ffd5b5f5f60208385031215614c1a575f5ffd5b82356001600160401b03811115614c2f575f5ffd5b614c3b85828601614bc9565b90969095509350505050565b602080825282518282018190525f918401906040840190835b81811015610bbf578351835260209384019390920191600101614c60565b5f60208284031215614c8e575f5ffd5b5035919050565b634e487b7160e01b5f52604160045260245ffd5b60405160e081016001600160401b0381118282101715614ccb57614ccb614c95565b60405290565b604080519081016001600160401b0381118282101715614ccb57614ccb614c95565b604051601f8201601f191681016001600160401b0381118282101715614d1b57614d1b614c95565b604052919050565b5f6001600160401b03821115614d3b57614d3b614c95565b5060051b60200190565b5f82601f830112614d54575f5ffd5b8135614d67614d6282614d23565b614cf3565b8082825260208201915060208360051b860101925085831115614d88575f5ffd5b602085015b83811015614dae578035614da081614b4e565b835260209283019201614d8d565b5095945050505050565b5f82601f830112614dc7575f5ffd5b8135614dd5614d6282614d23565b8082825260208201915060208360051b860101925085831115614df6575f5ffd5b602085015b83811015614dae578035835260209283019201614dfb565b5f5f5f60608486031215614e25575f5ffd5b8335614e3081614b4e565b925060208401356001600160401b03811115614e4a575f5ffd5b614e5686828701614d45565b92505060408401356001600160401b03811115614e71575f5ffd5b614e7d86828701614db8565b9150509250925092565b5f8151808452602084019350602083015f5b82811015614eb7578151865260209586019590910190600101614e99565b5093949350505050565b602081525f610df86020830184614e87565b803563ffffffff81168114614b6d575f5ffd5b5f5f83601f840112614ef6575f5ffd5b5081356001600160401b03811115614f0c575f5ffd5b6020830191508360208285010111156121ec575f5ffd5b5f5f5f5f60608587031215614f36575f5ffd5b8435614f4181614b4e565b9350614f4f60208601614ed3565b925060408501356001600160401b03811115614f69575f5ffd5b614f7587828801614ee6565b95989497509550505050565b5f5f5f5f60808587031215614f94575f5ffd5b8435614f9f81614b4e565b93506020850135614faf81614b4e565b93969395505050506040820135916060013590565b5f60208284031215614fd4575f5ffd5b8135610df881614b4e565b5f5f60408385031215614ff0575f5ffd5b8235614ffb81614b4e565b9150602083013561500b81614b4e565b809150509250929050565b5f60e08284031215615026575f5ffd5b61502e614ca9565b905061503982614b62565b815261504760208301614b62565b602082015261505860408301614b62565b60408201526060828101359082015261507360808301614ed3565b608082015260a08201356001600160401b03811115615090575f5ffd5b61509c84828501614d45565b60a08301525060c08201356001600160401b038111156150ba575f5ffd5b6150c684828501614db8565b60c08301525092915050565b5f602082840312156150e2575f5ffd5b81356001600160401b038111156150f7575f5ffd5b61309284828501615016565b5f60208284031215615113575f5ffd5b813560ff81168114610df8575f5ffd5b5f8151808452602084019350602083015f5b82811015614eb75781516001600160a01b0316865260209586019590910190600101615135565b80516001600160a01b03908116835260208083015182169084015260408083015190911690830152606080820151908301526080808201515f916151a79085018263ffffffff169052565b5060a082015160e060a08501526151c160e0850182615123565b905060c083015184820360c0860152611c4c8282614e87565b5f82825180855260208501945060208160051b830101602085015f5b838110156135f757601f19858403018852615212838351614e87565b60209889019890935091909101906001016151f6565b5f604082016040835280855180835260608501915060608160051b8601019250602087015f5b8281101561527f57605f1987860301845261526a85835161515c565b9450602093840193919091019060010161524e565b505050508281036020840152611c4c81856151da565b6001600160401b03811681146127c1575f5ffd5b5f5f5f606084860312156152bb575f5ffd5b83356152c681614b4e565b92506020840135915060408401356152dd81615295565b809150509250925092565b604081525f6152fa6040830185615123565b8281036020840152611c4c8185614e87565b5f5f5f6040848603121561531e575f5ffd5b833561532981614b4e565b925060208401356001600160401b03811115615343575f5ffd5b61534f86828701614ee6565b9497909650939450505050565b5f5f6040838503121561536d575f5ffd5b823561537881614b4e565b915060208301356001600160401b03811115615392575f5ffd5b61539e85828601614d45565b9150509250929050565b5f5f5f5f5f5f606087890312156153bd575f5ffd5b86356001600160401b038111156153d2575f5ffd5b6153de89828a01614bc9565b90975095505060208701356001600160401b038111156153fc575f5ffd5b61540889828a01614bc9565b90955093505060408701356001600160401b03811115615426575f5ffd5b61543289828a01614bc9565b979a9699509497509295939492505050565b5f5f5f60608486031215615456575f5ffd5b833561546181614b4e565b925060208401356001600160401b0381111561547b575f5ffd5b84016040818703121561548c575f5ffd5b615494614cd1565b81356001600160401b038111156154a9575f5ffd5b8201601f810188136154b9575f5ffd5b80356001600160401b038111156154d2576154d2614c95565b6154e5601f8201601f1916602001614cf3565b8181528960208385010111156154f9575f5ffd5b816020840160208301375f60209282018301528352928301359282019290925293969395505050506040919091013590565b5f5f6040838503121561553c575f5ffd5b823561554781614b4e565b946020939093013593505050565b604081525f6152fa6040830185614e87565b80151581146127c1575f5ffd5b5f5f5f5f60608587031215615587575f5ffd5b84356001600160401b0381111561559c575f5ffd5b850160e081880312156155ad575f5ffd5b935060208501356001600160401b038111156155c7575f5ffd5b6155d387828801614bc9565b90945092505060408501356155e781615567565b939692955090935050565b5f5f5f5f60808587031215615605575f5ffd5b843561561081614b4e565b9350602085013561562081614b4e565b9250604085013561563081615295565b915060608501356155e781615295565b5f5f60408385031215615651575f5ffd5b82356001600160401b03811115615666575f5ffd5b8301601f81018513615676575f5ffd5b8035615684614d6282614d23565b8082825260208201915060208360051b8501019250878311156156a5575f5ffd5b6020840193505b828410156156d05783356156bf81614b4e565b8252602093840193909101906156ac565b945050505060208301356001600160401b03811115615392575f5ffd5b602081525f610df860208301846151da565b634e487b7160e01b5f52603260045260245ffd5b5f8235605e19833603018112615727575f5ffd5b9190910192915050565b5f5f8335601e19843603018112615746575f5ffd5b8301803591506001600160401b0382111561575f575f5ffd5b6020019150600581901b36038213156121ec575f5ffd5b5f60208284031215615786575f5ffd5b8151610df881615567565b60208152816020820152818360408301375f818301604090810191909152601f909201601f19160101919050565b5f602082840312156157cf575f5ffd5b8151610df881615295565b602081525f610df8602083018461515c565b634e487b7160e01b5f52601160045260245ffd5b63ffffffff8181168382160190811115611b4957611b496157ec565b5f82601f83011261582b575f5ffd5b8151615839614d6282614d23565b8082825260208201915060208360051b86010192508583111561585a575f5ffd5b602085015b83811015614dae57805183526020928301920161585f565b5f5f60408385031215615888575f5ffd5b82516001600160401b0381111561589d575f5ffd5b8301601f810185136158ad575f5ffd5b80516158bb614d6282614d23565b8082825260208201915060208360051b8501019250878311156158dc575f5ffd5b6020840193505b828410156159075783516158f681614b4e565b8252602093840193909101906158e3565b8095505050505060208301516001600160401b03811115615926575f5ffd5b61539e8582860161581c565b5f60208284031215615942575f5ffd5b5051919050565b80820180821115611b4957611b496157ec565b6001600160a01b03831681526040602082018190525f9061309290830184615123565b5f6020828403121561598f575f5ffd5b81516001600160401b038111156159a4575f5ffd5b8201601f810184136159b4575f5ffd5b80516159c2614d6282614d23565b8082825260208201915060208360051b8501019250868311156159e3575f5ffd5b6020840193505b828410156108de5783516159fd81615295565b8252602093840193909101906159ea565b5f823560de19833603018112615727575f5ffd5b5f611b493683615016565b5f60208284031215615a3d575f5ffd5b8135610df881615567565b5f60208284031215615a58575f5ffd5b8151610df881614b4e565b6001600160a01b039384168152919092166020820152604081019190915260600190565b5f60018201615a9857615a986157ec565b5060010190565b838152606060208201525f615ab7606083018561515c565b82810360408401526108de8185614e87565b6001600160a01b03841681526060602082018190525f90615aec90830185615123565b905063ffffffff83166040830152949350505050565b81810381811115611b4957611b496157ec565b63ffffffff8281168282160390811115611b4957611b496157ec565b5f5f60408385031215615b42575f5ffd5b505080516020909101519092909150565b634e487b7160e01b5f52601260045260245ffd5b6001600160401b038281168282160390811115611b4957611b496157ec565b634e487b7160e01b5f52602160045260245ffd5b634e487b7160e01b5f52603160045260245ffd5b828152604060208201525f82518060408401528060208501606085015e5f606082850101526060601f19601f8301168401019150509392505050565b5f82518060208501845e5f920191825250919050565b5f82615c1a57634e487b7160e01b5f52601260045260245ffd5b50049056fea2646970667358221220b5026cd99da9f0fbef2508808be6d5977145f46d257de170fa0dbf0977792ccc64736f6c634300081b0033",
    "linkReferences": {}
  },
  "methodIdentifiers": {
    "DELEGATION_APPROVAL_TYPEHASH()": "04a4f979",
    "allocationManager()": "ca8aa7c7",
    "beaconChainETHStrategy()": "9104c319",
    "burnOperatorShares(address,address,uint64,uint64)": "ee74937f",
    "calculateDelegationApprovalDigestHash(address,address,address,bytes32,uint256)": "0b9f487a",
    "calculateWithdrawalRoot((address,address,address,uint256,uint32,address[],uint256[]))": "597b36da",
    "completeQueuedWithdrawal((address,address,address,uint256,uint32,address[],uint256[]),address[],bool)": "e4cc3f90",
    "completeQueuedWithdrawals((address,address,address,uint256,uint32,address[],uint256[])[],address[][],bool[])": "9435bb43",
    "convertToDepositShares(address,address[],uint256[])": "25df922e",
    "cumulativeWithdrawalsQueued(address)": "a1788484",
    "decreaseDelegatedShares(address,uint256,uint64)": "60a0d1ce",
    "delegateTo(address,(bytes,uint256),bytes32)": "eea9064b",
    "delegatedTo(address)": "65da1264",
    "delegationApprover(address)": "3cdeb5e0",
    "delegationApproverSaltIsSpent(address,bytes32)": "bb45fef2",
    "depositScalingFactor(address,address)": "bfae3fd2",
    "domainSeparator()": "f698da25",
    "eigenPodManager()": "4665bcda",
    "getDepositedShares(address)": "66d5ba93",
    "getOperatorShares(address,address[])": "90041347",
    "getOperatorsShares(address[],address[])": "f0e0e676",
    "getQueuedWithdrawals(address)": "5dd68579",
    "getSlashableSharesInQueue(address,address)": "6e174448",
    "getWithdrawableShares(address,address[])": "c978f7ac",
    "increaseDelegatedShares(address,address,uint256,uint256)": "3c651cf2",
    "initialize(address,uint256)": "cd6dc687",
    "isDelegated(address)": "3e28391d",
    "isOperator(address)": "6d70f7ae",
    "minWithdrawalDelayBlocks()": "c448feb8",
    "modifyOperatorDetails(address,address)": "54b7c96c",
    "operatorShares(address,address)": "778e55f3",
    "owner()": "8da5cb5b",
    "pause(uint256)": "136439dd",
    "pauseAll()": "595c6a67",
    "paused()": "5c975abb",
    "paused(uint8)": "5ac86ab7",
    "pauserRegistry()": "886f1195",
    "pendingWithdrawals(bytes32)": "b7f06ebe",
    "permissionController()": "4657e26a",
    "queueWithdrawals((address[],uint256[],address)[])": "0dd8dd02",
    "queuedWithdrawals(bytes32)": "99f5371b",
    "redelegate(address,(bytes,uint256),bytes32)": "a33a3433",
    "registerAsOperator(address,uint32,string)": "2aa6d888",
    "renounceOwnership()": "715018a6",
    "strategyManager()": "39b70e38",
    "transferOwnership(address)": "f2fde38b",
    "undelegate(address)": "da8be864",
    "unpause(uint256)": "fabc1cbc",
    "updateOperatorMetadataURI(address,string)": "78296ec5"
  },
  "id": 105
}