{
  "abi": [
    {
      "type": "constructor",
      "inputs": [
        {
          "name": "_strategyManager",
          "type": "address",
          "internalType": "contract IStrategyManager"
        },
        {
          "name": "_pauserRegistry",
          "type": "address",
          "internalType": "contract IPauserRegistry"
        }
      ],
      "stateMutability": "nonpayable"
    },
    {
      "type": "function",
      "name": "deposit",
      "inputs": [
        {
          "name": "token",
          "type": "address",
          "internalType": "contract IERC20"
        },
        {
          "name": "amount",
          "type": "uint256",
          "internalType": "uint256"
        }
      ],
      "outputs": [
        {
          "name": "newShares",
          "type": "uint256",
          "internalType": "uint256"
        }
      ],
      "stateMutability": "nonpayable"
    },
    {
      "type": "function",
      "name": "explanation",
      "inputs": [],
      "outputs": [
        {
          "name": "",
          "type": "string",
          "internalType": "string"
        }
      ],
      "stateMutability": "pure"
    },
    {
      "type": "function",
      "name": "getTVLLimits",
      "inputs": [],
      "outputs": [
        {
          "name": "",
          "type": "uint256",
          "internalType": "uint256"
        },
        {
          "name": "",
          "type": "uint256",
          "internalType": "uint256"
        }
      ],
      "stateMutability": "view"
    },
    {
      "type": "function",
      "name": "initialize",
      "inputs": [
        {
          "name": "_maxPerDeposit",
          "type": "uint256",
          "internalType": "uint256"
        },
        {
          "name": "_maxTotalDeposits",
          "type": "uint256",
          "internalType": "uint256"
        },
        {
          "name": "_underlyingToken",
          "type": "address",
          "internalType": "contract IERC20"
        }
      ],
      "outputs": [],
      "stateMutability": "nonpayable"
    },
    {
      "type": "function",
      "name": "initialize",
      "inputs": [
        {
          "name": "_underlyingToken",
          "type": "address",
          "internalType": "contract IERC20"
        }
      ],
      "outputs": [],
      "stateMutability": "nonpayable"
    },
    {
      "type": "function",
      "name": "maxPerDeposit",
      "inputs": [],
      "outputs": [
        {
          "name": "",
          "type": "uint256",
          "internalType": "uint256"
        }
      ],
      "stateMutability": "view"
    },
    {
      "type": "function",
      "name": "maxTotalDeposits",
      "inputs": [],
      "outputs": [
        {
          "name": "",
          "type": "uint256",
          "internalType": "uint256"
        }
      ],
      "stateMutability": "view"
    },
    {
      "type": "function",
      "name": "pause",
      "inputs": [
        {
          "name": "newPausedStatus",
          "type": "uint256",
          "internalType": "uint256"
        }
      ],
      "outputs": [],
      "stateMutability": "nonpayable"
    },
    {
      "type": "function",
      "name": "pauseAll",
      "inputs": [],
      "outputs": [],
      "stateMutability": "nonpayable"
    },
    {
      "type": "function",
      "name": "paused",
      "inputs": [
        {
          "name": "index",
          "type": "uint8",
          "internalType": "uint8"
        }
      ],
      "outputs": [
        {
          "name": "",
          "type": "bool",
          "internalType": "bool"
        }
      ],
      "stateMutability": "view"
    },
    {
      "type": "function",
      "name": "paused",
      "inputs": [],
      "outputs": [
        {
          "name": "",
          "type": "uint256",
          "internalType": "uint256"
        }
      ],
      "stateMutability": "view"
    },
    {
      "type": "function",
      "name": "pauserRegistry",
      "inputs": [],
      "outputs": [
        {
          "name": "",
          "type": "address",
          "internalType": "contract IPauserRegistry"
        }
      ],
      "stateMutability": "view"
    },
    {
      "type": "function",
      "name": "setTVLLimits",
      "inputs": [
        {
          "name": "newMaxPerDeposit",
          "type": "uint256",
          "internalType": "uint256"
        },
        {
          "name": "newMaxTotalDeposits",
          "type": "uint256",
          "internalType": "uint256"
        }
      ],
      "outputs": [],
      "stateMutability": "nonpayable"
    },
    {
      "type": "function",
      "name": "shares",
      "inputs": [
        {
          "name": "user",
          "type": "address",
          "internalType": "address"
        }
      ],
      "outputs": [
        {
          "name": "",
          "type": "uint256",
          "internalType": "uint256"
        }
      ],
      "stateMutability": "view"
    },
    {
      "type": "function",
      "name": "sharesToUnderlying",
      "inputs": [
        {
          "name": "amountShares",
          "type": "uint256",
          "internalType": "uint256"
        }
      ],
      "outputs": [
        {
          "name": "",
          "type": "uint256",
          "internalType": "uint256"
        }
      ],
      "stateMutability": "view"
    },
    {
      "type": "function",
      "name": "sharesToUnderlyingView",
      "inputs": [
        {
          "name": "amountShares",
          "type": "uint256",
          "internalType": "uint256"
        }
      ],
      "outputs": [
        {
          "name": "",
          "type": "uint256",
          "internalType": "uint256"
        }
      ],
      "stateMutability": "view"
    },
    {
      "type": "function",
      "name": "strategyManager",
      "inputs": [],
      "outputs": [
        {
          "name": "",
          "type": "address",
          "internalType": "contract IStrategyManager"
        }
      ],
      "stateMutability": "view"
    },
    {
      "type": "function",
      "name": "totalShares",
      "inputs": [],
      "outputs": [
        {
          "name": "",
          "type": "uint256",
          "internalType": "uint256"
        }
      ],
      "stateMutability": "view"
    },
    {
      "type": "function",
      "name": "underlyingToShares",
      "inputs": [
        {
          "name": "amountUnderlying",
          "type": "uint256",
          "internalType": "uint256"
        }
      ],
      "outputs": [
        {
          "name": "",
          "type": "uint256",
          "internalType": "uint256"
        }
      ],
      "stateMutability": "view"
    },
    {
      "type": "function",
      "name": "underlyingToSharesView",
      "inputs": [
        {
          "name": "amountUnderlying",
          "type": "uint256",
          "internalType": "uint256"
        }
      ],
      "outputs": [
        {
          "name": "",
          "type": "uint256",
          "internalType": "uint256"
        }
      ],
      "stateMutability": "view"
    },
    {
      "type": "function",
      "name": "underlyingToken",
      "inputs": [],
      "outputs": [
        {
          "name": "",
          "type": "address",
          "internalType": "contract IERC20"
        }
      ],
      "stateMutability": "view"
    },
    {
      "type": "function",
      "name": "unpause",
      "inputs": [
        {
          "name": "newPausedStatus",
          "type": "uint256",
          "internalType": "uint256"
        }
      ],
      "outputs": [],
      "stateMutability": "nonpayable"
    },
    {
      "type": "function",
      "name": "userUnderlying",
      "inputs": [
        {
          "name": "user",
          "type": "address",
          "internalType": "address"
        }
      ],
      "outputs": [
        {
          "name": "",
          "type": "uint256",
          "internalType": "uint256"
        }
      ],
      "stateMutability": "nonpayable"
    },
    {
      "type": "function",
      "name": "userUnderlyingView",
      "inputs": [
        {
          "name": "user",
          "type": "address",
          "internalType": "address"
        }
      ],
      "outputs": [
        {
          "name": "",
          "type": "uint256",
          "internalType": "uint256"
        }
      ],
      "stateMutability": "view"
    },
    {
      "type": "function",
      "name": "withdraw",
      "inputs": [
        {
          "name": "recipient",
          "type": "address",
          "internalType": "address"
        },
        {
          "name": "token",
          "type": "address",
          "internalType": "contract IERC20"
        },
        {
          "name": "amountShares",
          "type": "uint256",
          "internalType": "uint256"
        }
      ],
      "outputs": [],
      "stateMutability": "nonpayable"
    },
    {
      "type": "event",
      "name": "ExchangeRateEmitted",
      "inputs": [
        {
          "name": "rate",
          "type": "uint256",
          "indexed": false,
          "internalType": "uint256"
        }
      ],
      "anonymous": false
    },
    {
      "type": "event",
      "name": "Initialized",
      "inputs": [
        {
          "name": "version",
          "type": "uint8",
          "indexed": false,
          "internalType": "uint8"
        }
      ],
      "anonymous": false
    },
    {
      "type": "event",
      "name": "MaxPerDepositUpdated",
      "inputs": [
        {
          "name": "previousValue",
          "type": "uint256",
          "indexed": false,
          "internalType": "uint256"
        },
        {
          "name": "newValue",
          "type": "uint256",
          "indexed": false,
          "internalType": "uint256"
        }
      ],
      "anonymous": false
    },
    {
      "type": "event",
      "name": "MaxTotalDepositsUpdated",
      "inputs": [
        {
          "name": "previousValue",
          "type": "uint256",
          "indexed": false,
          "internalType": "uint256"
        },
        {
          "name": "newValue",
          "type": "uint256",
          "indexed": false,
          "internalType": "uint256"
        }
      ],
      "anonymous": false
    },
    {
      "type": "event",
      "name": "Paused",
      "inputs": [
        {
          "name": "account",
          "type": "address",
          "indexed": true,
          "internalType": "address"
        },
        {
          "name": "newPausedStatus",
          "type": "uint256",
          "indexed": false,
          "internalType": "uint256"
        }
      ],
      "anonymous": false
    },
    {
      "type": "event",
      "name": "StrategyTokenSet",
      "inputs": [
        {
          "name": "token",
          "type": "address",
          "indexed": false,
          "internalType": "contract IERC20"
        },
        {
          "name": "decimals",
          "type": "uint8",
          "indexed": false,
          "internalType": "uint8"
        }
      ],
      "anonymous": false
    },
    {
      "type": "event",
      "name": "Unpaused",
      "inputs": [
        {
          "name": "account",
          "type": "address",
          "indexed": true,
          "internalType": "address"
        },
        {
          "name": "newPausedStatus",
          "type": "uint256",
          "indexed": false,
          "internalType": "uint256"
        }
      ],
      "anonymous": false
    },
    {
      "type": "error",
      "name": "BalanceExceedsMaxTotalDeposits",
      "inputs": []
    },
    {
      "type": "error",
      "name": "CurrentlyPaused",
      "inputs": []
    },
    {
      "type": "error",
      "name": "InputAddressZero",
      "inputs": []
    },
    {
      "type": "error",
      "name": "InvalidNewPausedStatus",
      "inputs": []
    },
    {
      "type": "error",
      "name": "MaxPerDepositExceedsMax",
      "inputs": []
    },
    {
      "type": "error",
      "name": "NewSharesZero",
      "inputs": []
    },
    {
      "type": "error",
      "name": "OnlyPauser",
      "inputs": []
    },
    {
      "type": "error",
      "name": "OnlyStrategyManager",
      "inputs": []
    },
    {
      "type": "error",
      "name": "OnlyUnderlyingToken",
      "inputs": []
    },
    {
      "type": "error",
      "name": "OnlyUnpauser",
      "inputs": []
    },
    {
      "type": "error",
      "name": "TotalSharesExceedsMax",
      "inputs": []
    },
    {
      "type": "error",
      "name": "WithdrawalAmountExceedsTotalDeposits",
      "inputs": []
    }
  ],
  "bytecode": {
    "object": "0x60c060405234801561000f575f5ffd5b5060405161173e38038061173e83398101604081905261002e9161014f565b8181806001600160a01b038116610058576040516339b190bb60e11b815260040160405180910390fd5b6001600160a01b03908116608052821660a05261007361007c565b50505050610187565b5f54610100900460ff16156100e75760405162461bcd60e51b815260206004820152602760248201527f496e697469616c697a61626c653a20636f6e747261637420697320696e697469604482015266616c697a696e6760c81b606482015260840160405180910390fd5b5f5460ff90811614610136575f805460ff191660ff9081179091556040519081527f7f26b83ff96e1f2b6a682f133852f6798a09c465da95921460cefb38474024989060200160405180910390a15b565b6001600160a01b038116811461014c575f5ffd5b50565b5f5f60408385031215610160575f5ffd5b825161016b81610138565b602084015190925061017c81610138565b809150509250929050565b60805160a0516115656101d95f395f81816101ce01528181610556015281816109790152610a1601525f81816102960152818161039501528181610467015281816106970152610b4401526115655ff3fe608060405234801561000f575f5ffd5b506004361061016d575f3560e01c80637a8b2637116100d9578063c4d66de811610093578063df6fadc11161006e578063df6fadc11461033f578063e3dae51c1461035a578063f3e738751461036d578063fabc1cbc14610380575f5ffd5b8063c4d66de814610306578063ce7c2ac214610319578063d9caed121461032c575f5ffd5b80637a8b26371461027e578063886f1195146102915780638c871019146102b85780638f6a6240146102cb578063a6ab36f2146102de578063ab5921e1146102f1575f5ffd5b806347e7ef241161012a57806347e7ef2414610210578063553ca5f814610223578063595c6a67146102365780635ac86ab71461023e5780635c975abb1461026d57806361b01b5d14610275575f5ffd5b806311c70c9d14610171578063136439dd146101865780632495a5991461019957806339b70e38146101c95780633a98ef39146101f057806343fe08b014610207575b5f5ffd5b61018461017f366004611236565b610393565b005b610184610194366004611256565b610452565b6032546101ac906001600160a01b031681565b6040516001600160a01b0390911681526020015b60405180910390f35b6101ac7f000000000000000000000000000000000000000000000000000000000000000081565b6101f960335481565b6040519081526020016101c0565b6101f960645481565b6101f961021e366004611284565b610523565b6101f96102313660046112ae565b61066f565b610184610682565b61025d61024c3660046112de565b6001805460ff9092161b9081161490565b60405190151581526020016101c0565b6001546101f9565b6101f960655481565b6101f961028c366004611256565b610731565b6101ac7f000000000000000000000000000000000000000000000000000000000000000081565b6101f96102c6366004611256565b61077a565b6101f96102d93660046112ae565b610784565b6101846102ec3660046112f9565b610791565b6102f961086c565b6040516101c0919061132f565b6101846103143660046112ae565b61088c565b6101f96103273660046112ae565b610952565b61018461033a366004611364565b6109e4565b606454606554604080519283526020830191909152016101c0565b6101f9610368366004611256565b610b01565b6101f961037b366004611256565b610b38565b61018461038e366004611256565b610b42565b7f00000000000000000000000000000000000000000000000000000000000000006001600160a01b031663eab66d7a6040518163ffffffff1660e01b8152600401602060405180830381865afa1580156103ef573d5f5f3e3d5ffd5b505050506040513d601f19601f8201168201806040525081019061041391906113a2565b6001600160a01b0316336001600160a01b0316146104445760405163794821ff60e01b815260040160405180910390fd5b61044e8282610c58565b5050565b60405163237dfb4760e11b81523360048201527f00000000000000000000000000000000000000000000000000000000000000006001600160a01b0316906346fbf68e90602401602060405180830381865afa1580156104b4573d5f5f3e3d5ffd5b505050506040513d601f19601f820116820180604052508101906104d891906113bd565b6104f557604051631d77d47760e21b815260040160405180910390fd5b600154818116811461051a5760405163c61dca5d60e01b815260040160405180910390fd5b61044e82610cfc565b600180545f91829181160361054b5760405163840a48d560e01b815260040160405180910390fd5b336001600160a01b037f00000000000000000000000000000000000000000000000000000000000000001614610594576040516348da714f60e01b815260040160405180910390fd5b61059e8484610d39565b6033545f6105ae6103e8836113f0565b90505f6103e86105bc610d90565b6105c691906113f0565b90505f6105d38783611403565b9050806105e08489611416565b6105ea919061142d565b9550855f0361060c57604051630c392ed360e11b815260040160405180910390fd5b61061686856113f0565b60338190556f4b3b4ca85a86c47a098a223fffffffff101561064b57604051632f14e8a360e11b815260040160405180910390fd5b610664826103e860335461065f91906113f0565b610dff565b505050505092915050565b5f61067c61028c83610952565b92915050565b60405163237dfb4760e11b81523360048201527f00000000000000000000000000000000000000000000000000000000000000006001600160a01b0316906346fbf68e90602401602060405180830381865afa1580156106e4573d5f5f3e3d5ffd5b505050506040513d601f19601f8201168201806040525081019061070891906113bd565b61072557604051631d77d47760e21b815260040160405180910390fd5b61072f5f19610cfc565b565b5f5f6103e860335461074391906113f0565b90505f6103e8610751610d90565b61075b91906113f0565b9050816107688583611416565b610772919061142d565b949350505050565b5f61067c82610b01565b5f61067c61037b83610952565b5f54610100900460ff16158080156107af57505f54600160ff909116105b806107c85750303b1580156107c857505f5460ff166001145b6107ed5760405162461bcd60e51b81526004016107e49061144c565b60405180910390fd5b5f805460ff19166001179055801561080e575f805461ff0019166101001790555b6108188484610c58565b61082182610e4b565b8015610866575f805461ff0019169055604051600181527f7f26b83ff96e1f2b6a682f133852f6798a09c465da95921460cefb38474024989060200160405180910390a15b50505050565b60606040518060800160405280604d81526020016114e3604d9139905090565b5f54610100900460ff16158080156108aa57505f54600160ff909116105b806108c35750303b1580156108c357505f5460ff166001145b6108df5760405162461bcd60e51b81526004016107e49061144c565b5f805460ff191660011790558015610900575f805461ff0019166101001790555b61090982610e4b565b801561044e575f805461ff0019169055604051600181527f7f26b83ff96e1f2b6a682f133852f6798a09c465da95921460cefb3847402498906020015b60405180910390a15050565b60405163fe243a1760e01b81526001600160a01b0382811660048301523060248301525f917f00000000000000000000000000000000000000000000000000000000000000009091169063fe243a1790604401602060405180830381865afa1580156109c0573d5f5f3e3d5ffd5b505050506040513d601f19601f8201168201806040525081019061067c919061149a565b60018054600290811603610a0b5760405163840a48d560e01b815260040160405180910390fd5b336001600160a01b037f00000000000000000000000000000000000000000000000000000000000000001614610a54576040516348da714f60e01b815260040160405180910390fd5b610a5f848484610f96565b60335480831115610a8357604051630b469df360e41b815260040160405180910390fd5b5f610a906103e8836113f0565b90505f6103e8610a9e610d90565b610aa891906113f0565b90505f82610ab68784611416565b610ac0919061142d565b9050610acc8685611403565b603355610aec610adc8284611403565b6103e860335461065f91906113f0565b610af7888883610fc9565b5050505050505050565b5f5f6103e8603354610b1391906113f0565b90505f6103e8610b21610d90565b610b2b91906113f0565b9050806107688386611416565b5f61067c82610731565b7f00000000000000000000000000000000000000000000000000000000000000006001600160a01b031663eab66d7a6040518163ffffffff1660e01b8152600401602060405180830381865afa158015610b9e573d5f5f3e3d5ffd5b505050506040513d601f19601f82011682018060405250810190610bc291906113a2565b6001600160a01b0316336001600160a01b031614610bf35760405163794821ff60e01b815260040160405180910390fd5b60015480198219811614610c1a5760405163c61dca5d60e01b815260040160405180910390fd5b600182905560405182815233907f3582d1828e26bf56bd801502bc021ac0bc8afb57c826e4986b45593c8fad389c9060200160405180910390a25050565b60645460408051918252602082018490527ff97ed4e083acac67830025ecbc756d8fe847cdbdca4cee3fe1e128e98b54ecb5910160405180910390a160655460408051918252602082018390527f6ab181e0440bfbf4bacdf2e99674735ce6638005490688c5f994f5399353e452910160405180910390a180821115610cf15760405163052b07b760e21b815260040160405180910390fd5b606491909155606555565b600181905560405181815233907fab40a374bc51de372200a8bc981af8c9ecdc08dfdaef0bb6e09f88f3c616ef3d9060200160405180910390a250565b606454811115610d5c5760405163052b07b760e21b815260040160405180910390fd5b606554610d67610d90565b1115610d865760405163d86bae6760e01b815260040160405180910390fd5b61044e8282610fdd565b6032546040516370a0823160e01b81523060048201525f916001600160a01b0316906370a0823190602401602060405180830381865afa158015610dd6573d5f5f3e3d5ffd5b505050506040513d601f19601f82011682018060405250810190610dfa919061149a565b905090565b7fd2494f3479e5da49d386657c292c610b5b01df313d07c62eb0cfa49924a31be881610e3384670de0b6b3a7640000611416565b610e3d919061142d565b604051908152602001610946565b5f54610100900460ff16610eb55760405162461bcd60e51b815260206004820152602b60248201527f496e697469616c697a61626c653a20636f6e7472616374206973206e6f74206960448201526a6e697469616c697a696e6760a81b60648201526084016107e4565b603280546001600160a01b0319166001600160a01b038316179055610ed95f610cfc565b7f1c540707b00eb5427b6b774fc799d756516a54aee108b64b327acc55af55750760325f9054906101000a90046001600160a01b0316826001600160a01b031663313ce5676040518163ffffffff1660e01b8152600401602060405180830381865afa158015610f4b573d5f5f3e3d5ffd5b505050506040513d601f19601f82011682018060405250810190610f6f91906114b1565b604080516001600160a01b03909316835260ff90911660208301520160405180910390a150565b6032546001600160a01b03838116911614610fc457604051630312abdd60e61b815260040160405180910390fd5b505050565b610fc46001600160a01b038316848361100b565b6032546001600160a01b0383811691161461044e57604051630312abdd60e61b815260040160405180910390fd5b604080516001600160a01b03848116602483015260448083018590528351808403909101815260649092018352602080830180516001600160e01b031663a9059cbb60e01b17905283518085019094528084527f5361666545524332303a206c6f772d6c6576656c2063616c6c206661696c656490840152610fc4928692915f9161109a918516908490611119565b905080515f14806110ba5750808060200190518101906110ba91906113bd565b610fc45760405162461bcd60e51b815260206004820152602a60248201527f5361666545524332303a204552433230206f7065726174696f6e20646964206e6044820152691bdd081cdd58d8d9595960b21b60648201526084016107e4565b606061077284845f85855f5f866001600160a01b0316858760405161113e91906114cc565b5f6040518083038185875af1925050503d805f8114611178576040519150601f19603f3d011682016040523d82523d5f602084013e61117d565b606091505b509150915061118e87838387611199565b979650505050505050565b606083156112075782515f03611200576001600160a01b0385163b6112005760405162461bcd60e51b815260206004820152601d60248201527f416464726573733a2063616c6c20746f206e6f6e2d636f6e747261637400000060448201526064016107e4565b5081610772565b610772838381511561121c5781518083602001fd5b8060405162461bcd60e51b81526004016107e4919061132f565b5f5f60408385031215611247575f5ffd5b50508035926020909101359150565b5f60208284031215611266575f5ffd5b5035919050565b6001600160a01b0381168114611281575f5ffd5b50565b5f5f60408385031215611295575f5ffd5b82356112a08161126d565b946020939093013593505050565b5f602082840312156112be575f5ffd5b81356112c98161126d565b9392505050565b60ff81168114611281575f5ffd5b5f602082840312156112ee575f5ffd5b81356112c9816112d0565b5f5f5f6060848603121561130b575f5ffd5b833592506020840135915060408401356113248161126d565b809150509250925092565b602081525f82518060208401528060208501604085015e5f604082850101526040601f19601f83011684010191505092915050565b5f5f5f60608486031215611376575f5ffd5b83356113818161126d565b925060208401356113918161126d565b929592945050506040919091013590565b5f602082840312156113b2575f5ffd5b81516112c98161126d565b5f602082840312156113cd575f5ffd5b815180151581146112c9575f5ffd5b634e487b7160e01b5f52601160045260245ffd5b8082018082111561067c5761067c6113dc565b8181038181111561067c5761067c6113dc565b808202811582820484141761067c5761067c6113dc565b5f8261144757634e487b7160e01b5f52601260045260245ffd5b500490565b6020808252602e908201527f496e697469616c697a61626c653a20636f6e747261637420697320616c72656160408201526d191e481a5b9a5d1a585b1a5e995960921b606082015260800190565b5f602082840312156114aa575f5ffd5b5051919050565b5f602082840312156114c1575f5ffd5b81516112c9816112d0565b5f82518060208501845e5f92019182525091905056fe4261736520537472617465677920696d706c656d656e746174696f6e20746f20696e68657269742066726f6d20666f72206d6f726520636f6d706c657820696d706c656d656e746174696f6e73a2646970667358221220a172bfd9a52e27e8738e3f464887b0dabecab50ca6735024b69221cc0ef0d3ae64736f6c634300081b0033",
    "linkReferences": {}
  },
  "methodIdentifiers": {
    "deposit(address,uint256)": "47e7ef24",
    "explanation()": "ab5921e1",
    "getTVLLimits()": "df6fadc1",
    "initialize(address)": "c4d66de8",
    "initialize(uint256,uint256,address)": "a6ab36f2",
    "maxPerDeposit()": "43fe08b0",
    "maxTotalDeposits()": "61b01b5d",
    "pause(uint256)": "136439dd",
    "pauseAll()": "595c6a67",
    "paused()": "5c975abb",
    "paused(uint8)": "5ac86ab7",
    "pauserRegistry()": "886f1195",
    "setTVLLimits(uint256,uint256)": "11c70c9d",
    "shares(address)": "ce7c2ac2",
    "sharesToUnderlying(uint256)": "f3e73875",
    "sharesToUnderlyingView(uint256)": "7a8b2637",
    "strategyManager()": "39b70e38",
    "totalShares()": "3a98ef39",
    "underlyingToShares(uint256)": "8c871019",
    "underlyingToSharesView(uint256)": "e3dae51c",
    "underlyingToken()": "2495a599",
    "unpause(uint256)": "fabc1cbc",
    "userUnderlying(address)": "8f6a6240",
    "userUnderlyingView(address)": "553ca5f8",
    "withdraw(address,address,uint256)": "d9caed12"
  },
  "id": 149
}